:100000000C9455000C9474000C9474000C947400BF
:100010000C9474000C9474000C9474000C94740090
:100020000C9474000C9474000C9474000C94740080
:100030000C9474000C9474000C948D280C9474002F
:100040000C9474000C9474000C94274D0C94740060
:100050000C9474000C9474000C9474000C94740050
:100060000C9474000C9474000C9474000C94740040
:100070000C9474000C9474000C940A010C94740099
:100080000C9474000C9474000C94740005A84CCD6E
:10009000B2D44EB93836A9020C50B9918688083CC2
:1000A000A6AAAA2ABE000000803F11241FBECFEFDF
:1000B000D0E1DEBFCDBF12E0A0E0B1E0ECE7F9EAAD
:1000C00000E00BBF02C007900D92A63AB107D9F726
:1000D00016E0A6EAB2E001C01D92A73BB107E1F726
:1000E0000E9426180C94CF4D0C94000094EA909333
:1000F00074009091740097FFFCCF9AE09093730086
:1001000094E8909374009091740097FFFCCF8093D3
:10011000730084E8809374008091740087FFFCCFA3
:1001200084E98093740084EA809374008091740061
:1001300087FFFCCF8BE08093730084E8809374008A
:100140008091740087FFFCCF84E8809374008091D5
:10015000740087FFFCCF8091730094E99093740042
:10016000089594EA909374009091740097FFFCCFE7
:100170009AE09093730094E89093740090917400C7
:1001800097FFFCCF8093730084E880937400809184
:10019000740087FFFCCF6093730084E88093740041
:1001A0008091740087FFFCCF84E9809374000895E8
:1001B00010929B0088E980939A0086E080939D00CE
:1001C000109298008FE580939900789408951F937A
:1001D0001FEF1093730081E4809370000E94B72199
:1001E0000E94134D0E94D8000E94B1201FBC85E0E0
:1001F0008EBD1DBD80E78CBD84E087BF78948FE005
:1002000087BB81B3807F81BB84B3806F84BB18BA06
:100210001F9108951F920F920FB60F9211248F9382
:10022000DF93CF930F92CDB7DEB780919C00898387
:1002300080919B00887BE1F381E08093A602898115
:100240008093A7020F90CF91DF918F910F900FBEF7
:100250000F901F901895DF93CF930F92CDB7DEB715
:100260008091A70289831092A702F8941092A602A7
:10027000789489810F90CF91DF91089590919B00A0
:1002800095FFFCCF80939C000895CF93DF93E4E724
:10029000F0E094EA9083A1EEB2E01197F1F700004C
:1002A000A3E7B0E09EE09C9394E89083C1EED2E097
:1002B0002197F1F700008C93908381EE92E00197F3
:1002C000F1F7000084E98083DF91CF910895EF92E8
:1002D000FF920F931F93DF93CF9300D0CDB7DEB77C
:1002E000082F162F843070F5643160F58BE1498357
:1002F0005A830E9445018CE40E944501812F0E948F
:100300004501802F0E94450180E791E00197F1F7B8
:1003100000C0E12EFF2449815A81042F152F06C009
:100320000E94450194EC9A95F1F700C0E4E1EE16C5
:10033000F10444F4F80181918F010894E11CF11C4F
:10034000882371F70F900F90CF91DF911F910F913C
:10035000FF90EF9008951F93DF93CF9300D0CDB718
:10036000DEB7182F8430F0F46431E0F48BE12A8397
:1003700069830E9445018CE40E9445016981862FB2
:100380000E944501812F0E94450180E791E001977D
:10039000F1F700C02A81822F0E94450194EC9A95C2
:1003A000F1F700C00F900F90CF91DF911F9108954A
:1003B0008BE10E94450183E40E94450186E696EEAA
:1003C000A0E081509040A040E1F70895EF92FF92A5
:1003D0000F931F93182FF62EE42E842F64E60E94AD
:1003E0008954082F282F30E0205D3F4F442737FDE8
:1003F0004095542F812F6F2D0E94AB018CE9089FEF
:10040000002D11240E0D802F6AE00E948954E82EE1
:100410006F2D6F5F282F30E0205D3F4F442737FD61
:100420004095542F812F0E94AB016F2D6E5F26EFF8
:10043000E29E202D1124200F30E0205D3F4F442705
:1004400037FD4095542F812F0E94AB011F910F91D2
:10045000FF90EF900895EF92FF920F931F9380E02B
:1004600090E062E070E040E050E020E030E00AE040
:1004700010E0E8E7EE2EF12C0E943034009709F0EE
:1004800046C080E090E06CEF7FEF40E050E020E07D
:1004900030E00E9430340097D1F580E090E066E0D3
:1004A00070E040E050E020E030E00E9430340097FF
:1004B00071F580E090E068EF7FEF40E050E020E0F1
:1004C00030E00E943034009711F580E090E06AE05F
:1004D00070E040E050E020E030E00E9430340097CF
:1004E000B1F480E090E064EF7FEF40E050E020E086
:1004F00030E00E943034009751F480E090E06EE0EC
:1005000070E040E050E020E030E00E9430341F9185
:100510000F91FF90EF900895EF92FF920F931F932A
:100520002091C0043091C1043093BF042093BE04D5
:100530008091F6039091F7032130310509F0CFC087
:100540009C012370307021153105C9F580E090E0E1
:1005500060E070E048EE53E022E330E00CE310E0AE
:100560000E94F8498FE090E06AE570E040E050E0DA
:100570002DE230E000E010E00E94583B88ED9FEF54
:1005800060E070E040E050E022E330E00E944D3057
:1005900086EA9FEF9093DD038093DC0384E190E093
:1005A00066EA7FEF40E050E02DE230E00E94583BE9
:1005B0001092DD031092DC0381E190E022C064E040
:1005C00070E00E9495548130910509F041C080E0AF
:1005D00090E060E070E048EE53E022E330E00CE3AE
:1005E00010E00E94F84980E090E06EE170E040E0A9
:1005F00050E022E330E000E010E00E944D3084E162
:1006000090E06AE570E040E050E02DE230E00E94CA
:10061000583B80E090E068E17CEF40E050E020E073
:1006200030E002E310E0EE24FF240E9430348DEF2E
:100630009FEF60E070E040E050E022E330E004EC47
:100640001FEF0E944D3080E090E068EE73E02FC114
:100650008230910509F494C080E090E060E070E0A1
:1006600048EE53E022E330E00CE310E00E94F8494A
:100670008FE090E066EA7FEF40E050E02DE230E06E
:1006800000E010E00E94583B8FE090E060E070E0F6
:1006900040E050E022E330E00E944D308AE590E0F7
:1006A0009093DD038093DC0384E190E06AE570E0E1
:1006B00040E050E02DE230E00E94583B1092DD0314
:1006C0001092DC038FE090E066EA7FEF40E050E0BC
:1006D0002DE230E009EC1FEF0E94583BE4C09C0182
:1006E000237030702115310509F043C080E090E09F
:1006F00060E070E048EE53E022E330E00CE310E00D
:100700000E94F8498FE090E06AE570E040E050E038
:100710002DE230E000E010E00E94583B86EF9FEFB2
:1007200060E070E040E050E022E330E00E944D30B5
:1007300086EA9FEF9093DD038093DC0384E190E0F1
:1007400066EA7FEF40E050E02DE230E00E94583B47
:100750001092DD031092DC038FE090E06AE570E018
:1007600040E050E02DE230E009EC1FEF0E94583BE2
:100770006ACF64E070E00E94955481309105D9F40D
:1007800080E090E060E070E048EE53E022E330E08B
:100790000CE310E00E94F84980E090E062E370E032
:1007A00040E050E022E330E004EC1FEF0E944D30C7
:1007B0000E942B0287C082309105D9F480E090E03E
:1007C00060E070E048EE53E022E330E00CE310E03C
:1007D0000E94F84980E090E06EE170E040E050E077
:1007E00022E330E000E010E00E944D3084E190E030
:1007F00038C080E090E060E070E048EE53E022E333
:1008000030E00CE310E00E94F8498FE090E066EAE7
:100810007FEF40E050E02DE230E000E010E00E9489
:10082000583B88E290E060E070E040E050E022E376
:1008300030E00E944D308AE590E09093DD03809394
:10084000DC0384E190E06AE570E040E050E02DE2F6
:1008500030E00E94583B1092DD031092DC0381E1EE
:1008600090E066EA7FEF40E050E02DE230E00E9449
:10087000583B80E090E068EE73E040E050E020E01C
:1008800030E002E310E0EE24FF240E94303483E0E5
:1008900090E060E070E040E050E022E330E004EC03
:1008A0001FEF0E944D3080E090E068E17CEF40E077
:1008B00050E020E030E004E110E0F2E8EF2EF12C0F
:1008C0000E94303481E090E060E070E048EE53E058
:1008D00022E330E00CE310E00E94F8498AE090E067
:1008E00060E070E04EE050E022E330E004EC1FEF07
:1008F0000E94F8491F910F91FF90EF900895AF92D9
:10090000BF92CF92DF92EF92FF920F931F938CE0F2
:1009100090E068E070E045E050E023E030E002E184
:1009200010E0EE24FF24F8E2CF2ED12CE2E3AE2E2D
:10093000B12C0E94C6368AE090E068E070E049E1A0
:1009400050E025E030E0BEECAB2EBFEFBB2E0E94A6
:10095000C63662ED75E080E090E0DC018093D20560
:100960009093D305A093D405B093D5052091D205DB
:100970003091D3054091D4055091D505FB01529398
:100980004293329322932081318142815381685076
:100990007040FB0120833183428353838093DE05C3
:1009A0009093DF05A093E005B093E1058091DE050B
:1009B0009091DF05A091E005B091E1058093DA0503
:1009C0009093DB05A093DC05B093DD0580E090E01B
:1009D00068E17CEF40E050E020E030E002E310E02E
:1009E000ACE3EA2EF12C0E9430348BEF9FEF60E0F5
:1009F00070E040E050E022E330E004EC1FEF0E94A2
:100A00004D301F910F91FF90EF90DF90CF90BF90EE
:100A1000AF900895AF92BF92CF92DF92EF92FF9284
:100A20000F931F93CF93DF9380E090E0DC018093DE
:100A3000BA039093BB03A093BC03B093BD03809310
:100A4000A0039093A103A093A203B093A3038AE50C
:100A500090E09093DD038093DC0382E090E064E615
:100A600070E044E050E022EC30E005E010E0F3EA12
:100A7000EF2EF12CE2E3CE2ED12CBEE1AB2EB12C29
:100A80000E94F2451092DD031092DC03C2E0D0E038
:100A9000D0933304C09332048DEF9FEF68E270E08F
:100AA0004AE550E028E230E006E910E00E94BC3957
:100AB00010929206109291061092500610924F06D4
:100AC00087E090E066EA7FEF40E050E028E230E027
:100AD00002E310E00E94583B8AE090E060E070E0A2
:100AE00040E050E022E330E000E010E00E944D30B2
:100AF00080914F06909150068130910509F078C29F
:100B0000D093C104C093C00485E090E060E070E041
:100B100040E050E022E330E004EC1FEF0E944D3053
:100B200080E090E068E17CEF42E050E020E030E0DF
:100B300004E110E0A2E8EA2EF12C0E94303481E0BA
:100B400090E060E070E048EE53E022E330E00CE338
:100B500010E00E94F84980E090E06FE070E04AE524
:100B600050E022E330E004EC1FEFF4E6EF2EF12C2E
:100B70000E94E74080E090E068E17CEF40E050E0D8
:100B800020E030E004E110E0E2E8EE2EF12C0E94DB
:100B9000303487E690E063E070E00E94462B90934B
:100BA00073038093720380E090E060E070E043EDB7
:100BB0005FEF22E830E008E710E00E944D3087E662
:100BC00090E063E070E00E94462B90937B0380935B
:100BD0007A0380E090E060E070E043ED5FEF22E8B0
:100BE00030E00E944D3087E690E063E070E00E94C4
:100BF000462B909379038093780380E090E060E047
:100C000070E044EC5FEF22E830E00E944D300E943B
:100C1000F22A80E062E10E94D84C8823D1F30E943E
:100C2000524B80E063E10E94D84C8823D1F360915D
:100C3000760370917703409174035091750380E0BF
:100C400090E0FC01EE0FFF1F9C0113E0220F331F09
:100C50001A95E1F7E20FF31FEB50FA4F2081318133
:100C60002115310509F475C02281338123543040A8
:100C700037FF03C0309521953F4F2431310544F5AE
:100C8000FC01EE0FFF1F9C01A3E0220F331FAA956A
:100C9000E1F7E20FF31FEB50FA4F2481358126551F
:100CA000304037FF03C0309521953F4F2431310547
:100CB0007CF4FC01EE0FFF1F9C0163E0220F331F49
:100CC0006A95E1F7E20FF31FEB50FA4F60817181F3
:100CD000FC01EE0FFF1F9C0113E0220F331F1A953A
:100CE000E1F7E20FF31FEB50FA4F228133812259D3
:100CF000304037FF03C0309521953F4F24313105F7
:100D000044F5FC01EE0FFF1F9C01A3E0220F331FEF
:100D1000AA95E1F7E20FF31FEB50FA4F24813581DA
:100D20002552304037FF03C0309521953F4F243185
:100D300031057CF4FC01EE0FFF1F9C0143E0220F04
:100D4000331F4A95E1F7E20FF31FEB50FA4F408152
:100D5000518101968930910509F073CF7093770323
:100D600060937603509375034093740380E090E0A2
:100D700060E070E042EE5FEF20E530E002E810E076
:100D80000E944D300E94F22A80E062E10E94D84C1D
:100D90008823D1F30E94524B80E063E10E94D84C3B
:100DA0008823D1F360916E0370916F0340916C03BF
:100DB00050916D0380E090E0FC01EE0FFF1F9C015D
:100DC00013E0220F331F1A95E1F7E20FF31FEB50E8
:100DD000FA4F208131812115310509F475C0228136
:100DE00033812258304037FF03C0309521953F4F63
:100DF0002431310544F5FC01EE0FFF1F9C01A3E0F7
:100E0000220F331FAA95E1F7E20FF31FEB50FA4FC1
:100E1000248135812258304037FF03C03095219519
:100E20003F4F243131057CF4FC01EE0FFF1F9C0184
:100E300013E0220F331F1A95E1F7E20FF31FEB5077
:100E4000FA4F60817181FC01EE0FFF1F9C01A3E04E
:100E5000220F331FAA95E1F7E20FF31FEB50FA4F71
:100E6000228133812D57304037FF03C030952195C3
:100E70003F4F2431310544F5FC01EE0FFF1F9C016B
:100E800003E0220F331F0A95E1F7E20FF31FEB5047
:100E9000FA4F248135812D52304037FF03C0309501
:100EA00021953F4F243131057CF4FC01EE0FFF1FEB
:100EB0009C01B3E0220F331FBA95E1F7E20FF31F55
:100EC000EB50FA4F4081518101968930910509F02C
:100ED00073CF70936F0360936E0350936D034093D1
:100EE0006C030E94D8018DB79EB70C970FB6F8948B
:100EF0009EBF0FBE8DBFEDB7FEB73196CDE7D6E0F2
:100F0000ADB7BEB71296DC93CE93119700E011E017
:100F10001383028380916C0390916D039583848386
:100F200080916E0390916F03978386838091700305
:100F300090917103918780878091720390917303E0
:100F4000938782870E94E94D8DB79EB70C960FB6A6
:100F5000F8949EBF0FBE8DBF80E060E0AE010E949E
:100F60006701ADB7BEB71C970FB6F894BEBF0FBEF2
:100F7000ADBFEDB7FEB731961296DC93CE931197C5
:100F80001383028380917403909175039583848306
:100F9000809176039091770397838683809178037D
:100FA000909179039187808780917A0390917B0358
:100FB000938782870E94E94D8DB79EB70C960FB636
:100FC000F8949EBF0FBE8DBF81E060E0AE010E942D
:100FD00067018091A8029091A902009731F00E94C8
:100FE000F22AB59BFECFB599FECF81E090E085C295
:100FF00081E090E09093C1048093C00480E090E091
:1010000068EE73E044E650E020E030E002E310E0F8
:10101000EE24FF240E94303483E090E060E070E032
:1010200040E050E022E330E004EC1FEF0E944D303E
:1010300080E090E068E17CEF42E050E020E030E0CA
:1010400004E110E0A2E8EA2EF12C0E94303481E0A5
:1010500090E060E070E048EE53E022E330E00CE323
:1010600010E00E94F84980E090E06FE070E046EA0E
:101070005FEF22E330E004EC1FEFF4E6EF2EF12CFB
:101080000E94E74080E090E068EE73E040E050E0CE
:1010900020E030E004E110E0E2E8EE2EF12C0E94C6
:1010A000303487E690E063E070E00E94462B909336
:1010B0006D0380936C0380E090E060E070E04DE2AF
:1010C00050E022E830E008E710E00E944D3087E66B
:1010D00090E063E070E00E94462B9093750380934C
:1010E000740380E090E060E070E04DE250E022E8C0
:1010F00030E00E944D3087E690E063E070E00E94AF
:10110000462B909377038093760380E090E060E035
:1011100070E04CE350E022E830E00E944D300E9445
:10112000F22A80E062E10E94D84C8823D1F30E9429
:10113000524B80E063E10E94D84C8823D1F3609148
:1011400078037091790340917A0350917B0380E09A
:1011500090E0FC01EE0FFF1F9C0113E0220F331FF4
:101160001A95E1F7E20FF31FEB50FA4F208131811E
:101170002115310509F475C022813381285C304086
:1011800037FF03C0309521953F4F2431310544F599
:10119000FC01EE0FFF1F9C01A3E0220F331FAA9555
:1011A000E1F7E20FF31FEB50FA4F2481358126550A
:1011B000304037FF03C0309521953F4F2431310532
:1011C0007CF4FC01EE0FFF1F9C0163E0220F331F34
:1011D0006A95E1F7E20FF31FEB50FA4F60817181DE
:1011E000FC01EE0FFF1F9C0113E0220F331F1A9525
:1011F000E1F7E20FF31FEB50FA4F228133812657BC
:10120000304037FF03C0309521953F4F24313105E1
:1012100044F5FC01EE0FFF1F9C01A3E0220F331FDA
:10122000AA95E1F7E20FF31FEB50FA4F24813581C5
:101230002452304037FF03C0309521953F4F243171
:1012400031057CF4FC01EE0FFF1F9C0143E0220FEF
:10125000331F4A95E1F7E20FF31FEB50FA4F40813D
:10126000518101968930910509F073CF709379030C
:101270006093780350937B0340937A0380E090E07F
:1012800060E070E04EE150E020E530E002E810E080
:101290000E944D300E94F22A80E062E10E94D84C08
:1012A0008823D1F30E94524B80E063E10E94D84C26
:1012B0008823D1F3609170037091710340917203A0
:1012C0005091730380E090E0FC01EE0FFF1F9C0142
:1012D00013E0220F331F1A95E1F7E20FF31FEB50D3
:1012E000FA4F208131812115310509F475C0228121
:1012F00033812258304037FF03C0309521953F4F4E
:101300002431310544F5FC01EE0FFF1F9C01A3E0E1
:10131000220F331FAA95E1F7E20FF31FEB50FA4FAC
:10132000248135812258304037FF03C03095219504
:101330003F4F243131057CF4FC01EE0FFF1F9C016F
:1013400013E0220F331F1A95E1F7E20FF31FEB5062
:10135000FA4F60817181FC01EE0FFF1F9C01A3E039
:10136000220F331FAA95E1F7E20FF31FEB50FA4F5C
:10137000228133812D57304037FF03C030952195AE
:101380003F4F2431310544F5FC01EE0FFF1F9C0156
:1013900013E0220F331F1A95E1F7E20FF31FEB5012
:1013A000FA4F248135812D52304037FF03C03095EC
:1013B00021953F4F243131057CF4FC01EE0FFF1FD6
:1013C0009C01A3E0220F331FAA95E1F7E20FF31F60
:1013D000EB50FA4F4081518101968930910509F017
:1013E00073CF7093710360937003509373034093B2
:1013F00072030E94D801ADB7BEB71C970FB6F89420
:10140000BEBF0FBEADBFEDB7FEB73196CDE7D6E09C
:101410001296DC93CE93119700E011E013830283C0
:1014200080916C0390916D039583848380916E030A
:1014300090916F03978386838091700390917103DD
:10144000918780878091720390917303938782873D
:101450000E94E94D8DB79EB70C960FB6F8949EBFCB
:101460000FBE8DBF80E060E0AE010E946701ADB7A6
:10147000BEB71C970FB6F894BEBF0FBEADBFEDB799
:10148000FEB731961296DC93CE93119713830283A5
:101490008091740390917503958384838091760382
:1014A0009091770397838683809178039091790355
:1014B0009187808780917A0390917B0393878287BD
:1014C0000E94E94D8DB79EB70C960FB6F8949EBF5B
:1014D0000FBE8DBF81E060E0AE010E946701809188
:1014E000A8029091A902009731F00E94F22AB59BC0
:1014F000FECFB599FECF83E090E0909333048093C4
:101500003204DF91CF911F910F91FF90EF90DF9008
:10151000CF90BF90AF9008952F923F924F925F92DD
:101520006F927F928F929F92AF92BF92CF92DF92F3
:10153000EF92FF920F931F93DF93CF9300D000D0D1
:1015400000D0CDB7DEB75C0185E690E063E070E0E7
:101550000E94462B009709F408C1DE011196E3EEC4
:10156000F1E086E001900D928150E1F7B5E0CB2EDD
:10157000D12CADE7EA2EA6E0FA2EFCE06F2EF1E0CA
:101580007F2EECE14E2EE1E05E2E1E010894211C20
:10159000311C80E062E10E94D84C8823D1F30E9484
:1015A000524B80E063E10E94D84C8823D1F300E0E5
:1015B00010E0F801EE0FFF1FC80163E0880F991FCC
:1015C0006A95E1F7E80FF91FEB50FA4F808191819E
:1015D000009709F4BDC0828193818458904097FFA1
:1015E00003C0909581959F4F8F3191050CF0B0C04D
:1015F000F801EE0FFF1FC80143E0880F991F4A95BD
:10160000E1F7E80FF91FEB50FA4F8481958185557A
:10161000904097FF03C0909581959F4F8F31910522
:101620000CF096C00E94D801F801EE0FFF1FC80110
:1016300023E0880F991F2A95E1F7E80FF91FEB5077
:10164000FA4F60817181428153812481358196E016
:10165000892E912C8E0E9F1E86819781ADB7BEB7C5
:101660001C970FB6F894BEBF0FBEADBFEDB7FEB767
:1016700031961296FC92EE92119773826282758374
:1016800064835783468331872087938782870E94AC
:10169000E94DEDB7FEB73C960FB6F894FEBF0FBE0E
:1016A000EDBF81E061E0A7010E94670100D000D09A
:1016B00000D0EDB7FEB73196ADB7BEB71296FC922B
:1016C000EE92119753824282B582A4820E94E94D24
:1016D000EDB7FEB736960FB6F894FEBF0FBEEDBF5E
:1016E00082E061E0A7010E946701F10120E030E0A3
:1016F000D4018D919C91119741915191841B950B2F
:1017000097FF03C0909581959F4F2F5F3F4F8B3080
:10171000910524F023303105D9F0EBCFF801EE0F1D
:10172000FF1FB3E0000F111FBA95E1F7E00FF11FA3
:10173000EB50FA4F80819181F501EE0FFF1FEE0F04
:10174000FF1FE45AFB4F91838083338322830DC0B4
:101750000F5F1F4F0930110509F02BCF0894C10806
:10176000D108C114D10409F014CF26960FB6F8940D
:10177000DEBF0FBECDBFCF91DF911F910F91FF90C4
:10178000EF90DF90CF90BF90AF909F908F907F9021
:101790006F905F904F903F902F900895282F392F92
:1017A000D901E62FF72F80E090E00CC02D913D91FC
:1017B000121613062CF4608171812617370741F445
:1017C00001963296841795078CF321E030E002C031
:1017D00020E030E0C90108950F931F93CF93DF936A
:1017E000EC018B01CB016FEF7FEF48E050E00E94EE
:1017F000DB4DCE0103968730910528F0CE0104978A
:10180000F80191838083CE0183709070009729F056
:10181000CE010197F80193838283C031D1052CF466
:10182000CE010496F80195838483CE0164E070E0D4
:101830000E9495548330910521F02196F801D783B9
:10184000C683DF91CF911F910F9108950F931F933E
:10185000CF93DF93EC018B01CB016FEF7FEF48E07B
:1018600050E00E94DB4DC430D1052CF0CE0104972E
:10187000F80191838083CE0164E070E00E9495546A
:101880001816190634F49E0121503040F8013383B4
:101890002283C430D10534F49E012C5F3F4FF80100
:1018A000358324838330910521F02196F801D78375
:1018B000C683DF91CF911F910F9108954F925F9250
:1018C0006F927F928F929F92AF92BF92CF92DF9250
:1018D000EF92FF920F931F93CF93DF93EC016B0175
:1018E0003901580180919404909195044817590743
:1018F0000CF062C022EC34E0FA01EE0FFF1FE20FA1
:10190000F31FD183C083CC15DD0581F4509395047A
:10191000409394046AEF73E0FA013196EE0FFF1FD3
:10192000CB01B901AF010E94D24D46C0FE01EE0FBE
:10193000FF1FEA5DFC4F81E090E0918380837E0190
:1019400093E0EE0CFF1C9A95E1F7E00EF11E84E0A7
:10195000882E912C2A010894411C511CF701819179
:1019600091917F0197FD1CC09C01220F331FF9014B
:10197000EA5DFC4F408151814115510589F48C1578
:101980009D0541F0260D371DF9012081318121157A
:10199000310531F4B601A201930185010E945E0C6C
:1019A00008948108910881149104C1F6CC0FDD1FC1
:1019B000CA5DDC4F19821882DF91CF911F910F9180
:1019C000FF90EF90DF90CF90BF90AF909F908F905F
:1019D0007F906F905F904F9008950F931F93CF93D8
:1019E000DF93FA01890128E2A6E2B3E0ED01199242
:1019F0002A95E9F72CE030E0309395042093940485
:101A000040E050E09F010E945E0C21E030E08091B8
:101A10009404909195048C30910511F420E030E00D
:101A2000C901DF91CF911F910F9108950F931F93DB
:101A3000CF93DF938C01EB018AEE93E06FEF7FEFA2
:101A40004CE050E00E94DB4D1093EB030093EA035F
:101A5000AAEEB3E020E030E0ED91FD91EE0FFF1F24
:101A6000EE0FFF1FEC0FFD1FEE0FFF1FE651FB4FA8
:101A70008081918111969C938E9397FD17C0880F5A
:101A8000991FFC01EA52FD4F4081518141155105DA
:101A900049F082559D4FFC0180819181009711F49E
:101AA0002F5F3F4FF3E0A03FBF07B1F6C901DF91C1
:101AB000CF911F910F9108950F931F93DF93CF93B1
:101AC000CDB7DEB764970FB6F894DEBF0FBECDBFBB
:101AD000FC019B01CE0105966DEF71E048E0DB0152
:101AE0000D90BD01DC010D92CD014150C1F704E024
:101AF00010E0CF01B8010E94955461507040AB01D5
:101B0000440F551F460F571F480F591F5E874D87BB
:101B1000CA010197988B8F87CA0102969A8B898B8D
:101B20004D5F5F4F5C8B4B8BC9010196B8010E94E2
:101B30009554D901AA0FBB1FBE016F5F7F4FA60F3F
:101B4000B71F14960D911C9115971C964D915C91A1
:101B50001D97400F511FDC01AA0FBB1FA60FB71F17
:101B60001C966D917C911D97600F711F7A8369831C
:101B70005C834B83DF01AA0FBB1FAA0FBB1FA80FFB
:101B8000B91FAA0FBB1FA651BB4F8D919C911197F6
:101B900097FF04C08FEF9FEF9A838983C901039653
:101BA00064E070E00E949554DF01AA0FBB1FAA0FEA
:101BB000BB1FA80FB91FAA0FBB1FA651BB4F8D910A
:101BC0009C91119797FF04C08FEF9FEF9C838B83AD
:101BD000EE0FFF1FEE0FFF1FE20FF31FEE0FFF1FB1
:101BE000E651FB4F0190F081E02DF7FD0EC0EE0FA6
:101BF000FF1FEE0FFF1FE20FF31FEE0FFF1FE65157
:101C0000FB4F8081918197FF08C0CE0101966FEF55
:101C10007FEF44E050E00E94DB4DE981FA81F093D0
:101C20008D04E0938C04F7FF09C08FEF9FEF909332
:101C30008D0480938C0420E030E00AC0EE0FFF1F7B
:101C4000EC5AFC4F80819181009779F721E030E0D8
:101C5000EB81FC81F0938F04E0938E04F7FF07C0C3
:101C60008FEF9FEF90938F0480938E040AC0EE0F46
:101C7000FF1FEC5AFC4F80819181009789F72F5FFD
:101C80003F4FC90164960FB6F894DEBF0FBECDBFBB
:101C9000CF91DF911F910F910895EF92FF920F93D3
:101CA0001F93CF93DF937C01C0E0D0E000E010E011
:101CB000C701BE010E945C0D080F191F2196C43098
:101CC000D105B1F7C801DF91CF911F910F91FF901E
:101CD000EF900895EF92FF920F931F93CF93DF93AE
:101CE0007C01C0E0D0E000E010E0C701BE010E942E
:101CF000160D080F191F2196C430D105B1F7C80180
:101D0000DF91CF911F910F91FF90EF900895CF92A7
:101D1000DF92EF92FF920F931F93CF93DF9377FDA4
:101D200045C0EC0113E0CC0FDD1F1A95E1F7C65159
:101D3000DB4F04E010E06B010894C108D108E99082
:101D4000F990F7FC30C0C701880F991FFC01EA52D7
:101D5000FD4F208131812115310529F582559D4F97
:101D6000FC01808191810097C1F480915003909192
:101D70005103833091052CF4C7010E944D0E00974A
:101D8000D1F480914E0390914F03833091052CF450
:101D9000C7010E946A0E009771F4C701B6010E9444
:101DA000870E97FF07C00150104049F6EE24EA94D1
:101DB000FE2C01C07C01C701DF91CF911F910F91D3
:101DC000FF90EF90DF90CF900895CF92DF92EF9247
:101DD000FF920F931F93CF93DF93FC01EE0FFF1F32
:101DE000E255FD4F81E090E091838083CCE8D4E020
:101DF000EE24FF2421E0C22ED12CE881F981F7FDE9
:101E000050C0EE0FFF1FEC5AFC4F8081918100976C
:101E100009F047C0E114F10419F04CEE5FEF02C085
:101E200044E150E080E090E060E070E028E230E0E3
:101E300006E910E00E944D30888199810E948C0A49
:101E4000E114F10419F044E150E002C04CEE5FEF00
:101E500080E090E060E070E028E230E006E910E029
:101E60000E944D300E942B02E881F981DF01AA0F08
:101E7000BB1FAC5ABC4F1196DC92CE92EE0FFF1FE7
:101E8000EE0FFF1FE45AFB4F80819181009749F0CC
:101E90008091500390915103019690935103809348
:101EA00050030894E11CF11C229682E0E816F1042C
:101EB00009F0A3CFDF91CF911F910F91FF90EF9089
:101EC000DF90CF9008954130510541F5FB01EE0FB1
:101ED000FF1FE250FD4F208131812115310579F43A
:101EE000FB01EE0FFF1FE050FD4F21E030E040818D
:101EF00051814115510529F420E030E002C021E074
:101F000030E0220F331F260F371FF901EE0FFF1F9E
:101F1000E050FD4F91838083F90133C04230510579
:101F2000A9F5FB01EE0FFF1FE250FD4F208131812B
:101F300021153105C9F4AB014C5F5F4FFA01EE0F7B
:101F4000FF1FE250FD4F208131812115310561F4E1
:101F500021E030E0E091F603F091F7034E175F07C0
:101F600029F020E030E002C021E030E0620F731F72
:101F7000DB01AA0FBB1FAA5FBC4F11969C938E93E7
:101F8000FB01EE0FFF1FE250FD4F2DC0DB01159648
:101F90002091F6033091F703A217B307C1F0FB01BC
:101FA000EE0FFF1FE250FD4F2081318121153105D9
:101FB00071F4AA0FBB1FA250BD4F2D913C911197F8
:101FC0002115310521F411969C938E930CC0FB01D1
:101FD000EE0FFF1FEA5FFC4F91838083FB01EE0F42
:101FE000FF1FE050FD4F918380830895CF93DF93CF
:101FF000FA01DB01EB01CC0FDD1FC40FD51F2881D7
:1020000039811216130654F11496AA0FBB1FA40FA0
:10201000B51F2D913C91119712161306FCF0DA01B1
:1020200020E030E04D915D91141615063CF41696B3
:102030006D917C9117974617570781F42F5F3F4F9B
:102040002430310579F7208131812817390731F0A3
:10205000268137812817390709F002C080E090E017
:10206000DF91CF9108954F925F926F927F928F92FE
:102070009F92AF92BF92CF92DF92EF92FF920F9317
:102080001F93CF93DF933C016B01EA0179018091AB
:102090008C0390918D03009709F089C08091E10134
:1020A0009091E201481759070CF081C0FA01EE0F38
:1020B000FF1FEA56FB4F718360836091C0047091EB
:1020C000C1048091AC029091AD02A9010E94F60F6B
:1020D000009799F0A4E3B4E0E6E9F4E088E2019027
:1020E0000D928150E1F7D093E201C093E10181E0CC
:1020F00090E090938D0380938C038601000F111F55
:102100000E0D1F1DC60173E0880F991F7A95E1F728
:102110006AE8A62E65E0B62EA80EB91E52E9452E35
:1021200055E0552E480E591E4E010894811C911CF5
:1021300038C0F501619171915F0177FD2FC066157F
:10214000770561F1F801808191819093E303809399
:10215000E203EB01CC0FDD1FCE0DDF1D88819981DD
:10216000918380838091E2039091E3039983888334
:10217000C601A40197010E943310F801808191816A
:102180009093E3038093E203888199819183808314
:102190008091E2039091E30399838883A414B504AA
:1021A00031F080918C0390918D03009711F2DF91B3
:1021B000CF911F910F91FF90EF90DF90CF90BF9044
:1021C000AF909F908F907F906F905F904F90089509
:1021D000FA01B3E0880F991FBA95E1F7E80FF91FEC
:1021E00020E030E0819191918617970711F4C901A1
:1021F00008952F5F3F4F26303105A1F70895681BE2
:10220000790BCB0177FF04C088279927861B970B92
:102210008330910529F4CB016DEF7FEF0E94955437
:10222000CB0177FF04C088279927861B970B823044
:10223000910549F48091AC03853118F062E070E0BB
:1022400002C06EEF7FEF8AE590E0689F9001699F82
:10225000300D789F300D1124C9010895EF92FF923F
:102260000F931F938091320490913304009779F07B
:1022700060E070E00E94FF10AC0180E090E060E060
:1022800070E024E630E008E710E00E944D30109244
:102290003304109232040E942B028091F603909135
:1022A000F7039093BF048093BE042091C004309143
:1022B000C10421303105E1F464E070E00E949554DE
:1022C000823091050CF470C082309105C1F480E039
:1022D00090E060E070E048EE53E022E330E00CE391
:1022E00010E00E94F8498DEF9FEF62E370E090C02C
:1022F00064E070E00E94955482309105ACF180E07A
:1023000090E060E070E048EE53E022E330E00CE360
:1023100010E00E94F84980E090E06EE170E040E05B
:1023200050E022E330E000E010E00E944D3084E114
:1023300090E066EA7FEF40E050E02DE230E00E945E
:10234000583B80E090E068EE73E040E050E020E031
:1023500030E002E310E0EE24FF240E94303483E0FA
:1023600090E060E070E013C081309105E9F480E016
:1023700090E060E070E048EE53E022E330E00CE3F0
:1023800010E00E94F84983E090E062E370E040E0F2
:1023900050E022E330E004EC1FEF0E944D3080E07B
:1023A00090E068E17CEF40C080E090E060E070E0A9
:1023B00048EE53E022E330E00CE310E00E94F849DD
:1023C00080E090E06EE170E040E050E022E330E039
:1023D00000E010E00E944D3084E190E06AE570E09A
:1023E00040E050E02DE230E00E94583B80E090E079
:1023F00068E17CEF40E050E020E030E002E310E0F4
:10240000EE24FF240E9430348DEF9FEF60E070E0F7
:1024100040E050E022E330E004EC1FEF0E944D303A
:1024200080E090E068EE73E040E050E020E030E0D3
:1024300004E110E0E2E8EE2EF12C0E94303481E05D
:1024400090E060E070E048EE53E022E330E00CE31F
:1024500010E00E94F8498AE090E060E070E04EE011
:1024600050E022E330E004EC1FEF0E94F8491F9196
:102470000F91FF90EF900895AF92BF92CF92DF92AD
:10248000EF92FF920F931F93809132049091330447
:102490008230910579F062E070E00E94FF10AC019B
:1024A00080E090E060E070E024E630E008E710E0D3
:1024B0000E944D300E942B0282E090E09093330402
:1024C000809332040E942B028091F6039091F703CF
:1024D0009C01237030702115310549F580E090E0B2
:1024E00060E070E048EE53E022E330E00CE310E0FF
:1024F0000E94F84983E290E06AE570E04AEB5FEF02
:102500002DE230E000E010E00E94583B84E190E0D2
:102510009093DD038093DC0384E090E06BE070E057
:102520004FE050E020E030E006EA1FEF2FC064E00B
:1025300070E00E94955481309105D1F580E090E0E3
:1025400060E070E048EE53E022E330E00CE310E09E
:102550000E94F84983E290E06AE570E04AEB5FEFA1
:102560002DE230E000E010E00E94583B84E190E072
:102570009093DD038093DC0384E090E06BE070E0F7
:102580004FE050E020E030E008ED1FEFF2E3EF2EE7
:10259000F12CCC24DD240E94D44384E090E06BE055
:1025A00070E04FE050E029E130E008E11CEF30C07E
:1025B00082309105B1F580E090E060E070E048EE97
:1025C00053E022E330E00CE310E00E94F84983E29C
:1025D00090E06AE570E04AEB5FEF2DE230E000E06A
:1025E00010E00E94583B84E190E09093DD038093DB
:1025F000DC0384E090E06BE070E04FE050E029E124
:1026000030E008E11CEFE2E3EE2EF12CCC24DD24D7
:102610000E94D44380E090E063EF7FEF4CEE5FEFE9
:1026200012C080E090E060E070E048EE53E022E30A
:1026300030E00CE310E00E94F84983E090E068E2AB
:1026400070E046EA5FEF22E330E004EC1FEF0E9407
:10265000BC3980E090E0DC018093BA039093BB0327
:10266000A093BC03B093BD038093A0039093A103F8
:10267000A093A203B093A3038AE590E09093DD03B7
:102680008093DC0382E090E064E670E044E050E098
:1026900022EC30E005E010E0B3EAEB2EF12CA2E3EF
:1026A000CA2ED12CFEE1AF2EB12C0E94F245109221
:1026B000DD031092DC031F910F91FF90EF90DF90EC
:1026C000CF90BF90AF900895AF92BF92CF92DF921C
:1026D000EF92FF920F931F93CF93DF937C010E94A1
:1026E000D801E701609600E010E0BDE7CB2EB6E030
:1026F000DB2EA3E2AA2EA1E0BA2E8DB79EB70E97CD
:102700000FB6F8949EBF0FBE8DBFEDB7FEB73196E2
:10271000ADB7BEB71296DC92CE921197B382A28269
:10272000D70116968D919C911797958384839A91E2
:102730008A91978386838885998591878087888900
:10274000998993878287888D998D958784870E9440
:10275000E94D8DB79EB70E960FB6F8949EBF0FBE8B
:102760008DBF802F60E0A6010E9467010F5F1F4FA1
:102770000430110511F68091A8029091A9020097EA
:1027800031F00E94F22AB59BFECFB599FECFDF91C2
:10279000CF911F910F91FF90EF90DF90CF90BF905E
:1027A000AF900895AF92BF92CF92DF92EF92FF92D7
:1027B0000F931F93DF93CF9300D0CDB7DEB78983FC
:1027C0009A830E94D80189819A81A82EB92E00E0AF
:1027D00010E09DE7E92E96E0F92E82E3C82E81E015
:1027E000D82E8DB79EB740970FB6F8949EBF0FBEF8
:1027F0008DBFEDB7FEB73196ADB7BEB71296FC925E
:10280000EE921197D382C282D5018D919C9111973E
:102810009583848312968D919C91139797838683D9
:1028200014968D919C9115979187808716968D911E
:102830009C9117979387828718968D919C911997F1
:10284000958784871A968D919C911B979787868789
:102850000E94E94DEDB7FEB770960FB6F894FEBF33
:102860000FBEEDBF802F60E0A7010E9467010F5FE0
:102870001F4F8CE090E0A80EB91E0330110509F03F
:10288000B0CF8091A8029091A902009731F00E94E8
:10289000F22AB59BFECFB599FECF0F900F90CF9146
:1028A000DF911F910F91FF90EF90DF90CF90BF903D
:1028B000AF900895CF92DF92EF92FF920F931F9304
:1028C000DF93CF93CDB7DEB728970FB6F894DEBF6E
:1028D0000FBECDBFDE011196E5EFF1E028E00190DB
:1028E0000D922150E1F7E0903204F09033049C0106
:1028F000E3E0220F331FEA95E1F7260F371FFE01B1
:10290000319679E0C72ED12CCC0EDD1E04E010E00C
:10291000819191918E0D9F1DB8010E949554AC013B
:10292000DC01AA0FBB1FA20FB31F8D919C911197C1
:1029300097FD02C0CA0103C0EC15FD0549F72896B2
:102940000FB6F894DEBF0FBECDBFCF91DF911F91C0
:102950000F91FF90EF90DF90CF9008958F929F920C
:10296000AF92BF92CF92DF92EF92FF920F931F939D
:10297000CF93DF937C016B015A0148010E94D8017B
:102980008DB79EB70A970FB6F8949EBF0FBE8DBF46
:10299000EDB7FEB73196CDE7D6E0ADB7BEB712962C
:1029A000DC93CE93119787E491E093838283F58241
:1029B000E482D782C682B186A0860E94E94D8DB797
:1029C0009EB70A960FB6F8949EBF0FBE8DBF81E0EA
:1029D00061E0AE010E946701C601B501A8010E9435
:1029E000E810EC0180913204909133048C179D071C
:1029F00071F0BE010E94FF10AC0180E090E060E049
:102A000070E02CE330E002E810E00E944D30D093FB
:102A10003304C09332040E942B02C170D070E0FCDA
:102A200059C0C501B4010E945A144C01209721F4E9
:102A300092E0E916F10419F444E150E002C04FE0DD
:102A400050E08AE090E060E070E028E230E002E3ED
:102A500010E00E94F8498091320490913304881567
:102A60009905A9F0B4010E94FF10AC0180E090E04C
:102A70006EE170E02EE130E008ED1FEFA4E6EA2EF3
:102A8000F12CF8E7CF2ED12C0E945C3D18C081E0DC
:102A900090E060E070E048EE53E028E230E000E0D3
:102AA00010E00E94F8498AE090E060E070E04EE0BB
:102AB00050E028E230E00EEC1FEF0E94F8490E943F
:102AC0002B029092330480923204B092BF04A09201
:102AD000BE0470C080E090E0DC018093D20590934A
:102AE000D305A093D405B093D5052091D20530919C
:102AF000D3054091D4055091D5052093CE05309350
:102B0000CF054093D0055093D1052091CE0530914B
:102B1000CF054091D0055091D1052093CA0530933F
:102B2000CB054093CC055093CD058093DE05909363
:102B3000DF05A093E005B093E1058091DE0590915B
:102B4000DF05A091E005B091E1058093DA0590934F
:102B5000DB05A093DC05B093DD05209721F4A3E00D
:102B6000EA16F10419F44BE150E002C046E150E0EE
:102B70008AE090E060E070E028E230E006E910E0F2
:102B80000E94F8496091CE057091CF058091D005E3
:102B90009091D10590580E94004F9B01AC0180E0BC
:102BA00090E0B90140E050E028E230E00E944D3072
:102BB0000E942B02DF91CF911F910F91FF90EF9018
:102BC000DF90CF90BF90AF909F908F9008952F92FD
:102BD0003F924F925F926F927F928F929F92AF92AD
:102BE000BF92CF92DF92EF92FF920F931F93CF93FA
:102BF000DF934C013B012A0159017801CB01BA0155
:102C0000A90198010E94ED0C9AEFC92E93E0D92EEC
:102C1000C0E0D0E08EEA282E84E1382E18C081145E
:102C2000910439F02150304081E090E0C217D30781
:102C300011F080E090E0F601619171916F012196B1
:102C40004081518126ED32E08701F1010995209103
:102C5000940430919504C217D3070CF381149104A6
:102C6000E1F0D301AA0FBB1FAA0DBB1D8D919C9152
:102C700011979093E3038093E203F201EE0FFF1F9D
:102C8000EA0DFB1D8081918111969C938E9380911A
:102C9000E2039091E30391838083DF91CF911F91B1
:102CA0000F91FF90EF90DF90CF90BF90AF909F90EB
:102CB0008F907F906F905F904F903F902F900895EE
:102CC0000F931F936091BE047091BF044091F6036F
:102CD0005091F70380E090E026ED32E00AEE14E038
:102CE0000E94E7158091320490913304823091055F
:102CF00079F062E070E00E94FF10AC0180E090E0AB
:102D000060E070E024E630E008E710E00E944D301B
:102D100082E090E090933304809332040E942B026F
:102D20001F910F910895CF92DF92EF92FF920F9330
:102D30001F93DF93CF93CDB7DEB72C970FB6F894E0
:102D4000DEBF0FBECDBF8C0185E690E063E070E092
:102D50000E94462B009709F487C0DE011196E9EE28
:102D6000F1E08CE001900D928150E1F7A5E0EA2EB0
:102D7000F12CC801880F991F880F991F8E010F5FD2
:102D80001F4F080F191FE2E0CE2ED12CC00ED11E0E
:102D900080E062E10E94D84C8823D1F30E94524B1C
:102DA00080E063E10E94D84C8823D1F380E090E07A
:102DB000FC01EE0FFF1F9C0163E0220F331F6A9599
:102DC000E1F7E20FF31FEB50FA4F2081318121151B
:102DD0003105D1F122813381F80140815181241BD9
:102DE000350B37FF03C0309521953F4F2531310515
:102DF0005CF5FC01EE0FFF1F9C0143E0220F331F27
:102E00004A95E1F7E20FF31FEB50FA4F2481358129
:102E1000F60140815181241B350B37FF03C03095EB
:102E200021953F4F253131057CF4FC01EE0FFF1F4A
:102E300023E0880F991F2A95E1F7E80FF91FEB505F
:102E4000FA4F208131810EC001968930910509F039
:102E5000AFCF0894E108F108E114F10409F098CF2C
:102E600020E030E0C90100C02C960FB6F894DEBF18
:102E70000FBECDBFCF91DF911F910F91FF90EF90CB
:102E8000DF90CF900895CF92DF92EF92FF920F9351
:102E90001F93CF93DF93FC01EE0FFF1FE255FD4F11
:102EA00081E090E0918380835CEEE52E53E0F52E87
:102EB000C1E0D0E041E0C42ED12CD701ED91FC91CE
:102EC0001197EE0FFF1FE255FD4F80819181009712
:102ED00009F0AAC0CE0101970E949316C130D10516
:102EE00051F020915203309153032115310519F40B
:102EF000009709F499C0D701ED91FC911197EE0F5D
:102F0000FF1FEA52FD4F91838083C130D10509F044
:102F100057C0009709F054C0809152039091530319
:102F2000009709F04DC08091AA03883228F484E00C
:102F300090E09183808344C08EEF9FEF60E070E06B
:102F400040E050E02AE030E008E710E00E944D3019
:102F50008091AA03883260F4E091EC03F091ED03D4
:102F6000EE0FFF1FEA52FD4F84E090E091838083D3
:102F700084E090E060E070E040E050E02AE030E083
:102F800008E710E00E944D308091AA03883260F477
:102F9000E091EC03F091ED03EE0FFF1FEA52FD4FBD
:102FA00084E090E0918380838EEF9FEF60E070E09B
:102FB00040E050E02AE030E008E710E00E944D30A9
:102FC000D701ED91FC91DF01AA0FBB1FAA52BD4FA3
:102FD0008D919C9111978430910529F4D0925303DF
:102FE000C092520302C00097F9F0EE0FFF1FE255A6
:102FF000FD4FD182C08280914E0390914F03019684
:1030000090934F0380934E038330910569F4E6ED6E
:10301000F2E08081918197FF02C011821082329686
:10302000B2E0EE3FFB07A9F7219682E090E0E80EC0
:10303000F91EC430D10509F040CFDF91CF911F9127
:103040000F91FF90EF90DF90CF9008952F923F92D5
:103050004F925F926F927F928F929F92AF92BF92A8
:10306000CF92DF92EF92FF920F931F93DF93CF9354
:1030700000D0CDB7DEB70E94E7008EE161E00E948C
:10308000B1008EE165E00E94B1008EE164E10E9432
:10309000B1008EE160E10E94B1000E94BE4C8BE065
:1030A0000E94F64C82E30E94342B80E063E10E9490
:1030B000D84C8823D1F32FEF3FE746E12150304031
:1030C0004040E1F700C0000080E090E0DC01809328
:1030D000D2059093D305A093D405B093D505209144
:1030E000D2053091D3054091D4055091D505209358
:1030F000CE053093CF054093D0055093D105209154
:10310000CE053091CF054091D0055091D105209347
:10311000CA053093CB054093CC055093CD058093E1
:10312000DE059093DF05A093E005B093E105809163
:10313000DE059091DF05A091E005B091E105809357
:10314000DA059093DB05A093DC05B093DD05C39A07
:103150008FEF9FE7A4E081509040A040E1F700C0CE
:103160000000C398B49914C08091A8029091A9025C
:1031700001979093A9028093A802C39A2FEF3FE78B
:1031800044E0215030404040E1F700C00000C398C7
:10319000B69914C08091A8029091A90201969093CB
:1031A000A9028093A802C39A8FEF9FE7A4E0815001
:1031B0009040A040E1F700C00000C398B5999EC4BC
:1031C0000E94D801C39A2FEF3FE744E021503040DE
:1031D0004040E1F700C00000C3988091A8029091A0
:1031E000A9023FEF8E3F930709F4E3C24FEF8E3FF2
:1031F00094070CF483C48230910508F07FC480E00A
:1032000090E0DC018093BA039093BB03A093BC03CE
:10321000B093BD038093A0039093A103A093A20356
:10322000B093A3038AE590E09093DD038093DC03E1
:1032300087E090E060EA70E044E050E022EC30E0AB
:1032400005E010E0A3EAEA2EF12CF2E3CF2ED12C18
:10325000EEE1AE2EB12C0E94F2451092DD031092E9
:10326000DC030E94F22A0AEEE02E04E0F02E00E0D9
:1032700010E0C801B7010E94EC0B0F5F1F4F88E000
:1032800090E0E80EF91E0431110599F71AE8E12ED5
:1032900015E0F12E00E010E0C801B7010E94260CF5
:1032A0000F5F1F4FA8E0B0E0EA0EFB1E0C301105C7
:1032B00099F786ED92E06FEF7FEF48E250E00E94D1
:1032C000DB4D1092FD021092FC021092FB02109254
:1032D000FA021092F9021092F8021092F70210927C
:1032E000F6020E947F046091CA057091CB0580911F
:1032F000CC059091CD050E94004FCB0162E370E0B8
:103300000E9495546D5E7F4F7093F7036093F603B0
:1033100080E090E06AE070E040E050E020E030E0E3
:103320000AE010E0B8E7EB2EF12C0E94303481E087
:1033300090E060E070E048EE53E028E230E002E325
:1033400010E00E94F8498AE090E060E070E04EE012
:1033500050E028E230E00EEC1FEF0E94F849809127
:10336000F6039091F7039093BF048093BE040E94EC
:10337000D80100D000D000D0EDB7FEB73196ADE750
:103380006A2EA6E07A2EADB7BEB712967C926E92E8
:10339000119785E591E0938382838091BE0490919B
:1033A000BF04958384830E94E94D2DB73EB72A5F01
:1033B0003F4F0FB6F8943EBF0FBE2DBF81E061E0D6
:1033C000A3010E94670110928D0310928C03E4E028
:1033D0004E2E512C71E0272E312CE3C06090320428
:1033E00070903304CC24DD24C601860D971DB201F4
:1033F0000E9495547C0180914E0390914F0383303D
:1034000091054CF48091BE049091BF04B7010E94D5
:10341000160D5C0102C0AA24BB2480915003909138
:103420005103833091054CF48091BE049091BF0408
:10343000B7010E945C0D4C0102C088249924C4018C
:103440008A0D9B1D0097E9F180913204909133041D
:103450008E159F0591F0B7010E94FF10AC0180E02E
:1034600090E060E070E022E830E008E710E00E94C1
:103470004D300E942B020E94F22AF0923304E09217
:103480003204A114B10431F08091BE049091BF04C4
:103490000E94431781149104A1F00E94D8018DE786
:1034A00096E06FE571E00E94E24D80E061E04DE75B
:1034B00056E00E9467018091BE049091BF040E9473
:1034C000E50E0894C11CD11C34E0C316D10409F0E8
:1034D0008BCF86ED92E00E9464138CE594E00E940D
:1034E000D21380915003909151038330910521F5BF
:1034F00080914E0390914F038330910521F43092D7
:103500008D0320928C0320918C0330918D03E6ED86
:10351000F2E080E090E04191519157FD09C0833184
:10352000910511F421E030E001968431910599F77D
:1035300030938D0320938C0300E010E02CC0809129
:10354000BE049091BF04B8010E94870E97FD13C07E
:10355000E090BE04F090BF04C701B8010E94870E3E
:10356000AC0180E090E0B70126ED32E00AEE14E015
:103570000E94E71516C081E090E00930110511F0B6
:1035800080E090E090938D0380938C030F5F1F4F3A
:103590000A30110531F080918C0390918D030097D2
:1035A00071F280918C0390918D03009709F416CFEE
:1035B0000CE714E068E0E62EF12C53E0C52ED12C88
:1035C000D8012D913C9111972115310581F0C7014A
:1035D000B6010E949554660F771F660F771F680F1C
:1035E000791FF80142815381C9010E94630F089439
:1035F000E108F10804501040FFEFEF16FFEFFF065F
:10360000F9F60E94F22A0E94D80100D000D000D022
:10361000EDB7FEB73196BDE76B2EB6E07B2EADB7AA
:10362000BEB712967C926E92119788E691E09383D2
:1036300082838091BE049091BF04958384830E940D
:10364000E94D2DB73EB72A5F3F4F0FB6F8943EBF06
:103650000FBE2DBF81E061E0A3010E946701A2E0DF
:103660004A2E512C72C0A981BA818D919D91BA8345
:10367000A983009709F057C0F501808191810097D7
:1036800009F451C00EEF12E0F6ED2F2EF2E03F2EBE
:10369000EE24FF24D1018D919D911D01009721F110
:1036A000F8012081318182179307F1F0D5012D9126
:1036B0003C91119728173907B9F48091BE04909175
:1036C000BF04B70146ED52E02AEE34E00E94ED0C53
:1036D000009751F0C601B70146ED52E02AEE34E002
:1036E0000E94ED0C009751F40894E11CF11C0E5F50
:1036F0001F4FB4E1EB16F10469F615C06091BE04EA
:103700007091BF0480E090E0A70126ED32E00AEE60
:1037100014E00E94E71581E090E0B701A60126EDD4
:1037200032E00E94E7150894C11CD11CE2E0F0E0F1
:10373000AE0EBF1EF4E1CF16D10409F094CF089469
:10374000410851084114510471F0E6ED6E2EE2E09B
:103750007E2E7EEF872E72E0972E54017A82698248
:10376000CC24DD2480CFD3018D919D913D01009724
:1037700029F4F40180819181009759F462E0E62EEA
:10378000F12C8E0C9F1C2EEF621622E0720659F768
:1037900004C09093AD028093AC020E9460168091A9
:1037A000F6039091F70364E070E00E9495540E9444
:1037B0003C120E940A058091A8029091A9023FEF55
:1037C0008E3F9307C9F482E090E09093AD0280931E
:1037D000AC025AE8E52E55E0F52E00E010E0C801F5
:1037E000B7010E94260C0F5F1F4F48E050E0E40E27
:1037F000F51E0C30110599F70E94D80100D000D0B9
:1038000000D0EDB7FEB731964DE7642E46E0742E3A
:10381000ADB7BEB712967C926E92119732E7E32E47
:1038200031E0F32EF382E2828091C0049091C104D2
:10383000958384830E94E94D2DB73EB72A5F3F4FA1
:103840000FB6F8943EBF0FBE2DBF81E061E0A3012B
:103850000E9467018091A8029091A902009731F01F
:103860000E94F22AB59BFECFB599FECF0E94F22AA4
:10387000ECE6F3E080E090E0208131812115310514
:1038800019F4918380830197329633E0EC37F30784
:1038900099F700E010E010928D0310928C031093C2
:1038A000E2010093E101A2E2B4E0ECE6F3E080E1A2
:1038B00001900D928150E1F76091C0047091C104B4
:1038C0008FEF9FEF40E050E022E234E00E9433109F
:1038D00080918C0390918D03009761F0C39A8FEFD4
:1038E0009FEFACE281509040A040E1F700C00000A3
:1038F000C39805C00F5F1F4F0E31110561F680910F
:10390000C0049091C1049093BF048093BE0424E34B
:10391000E22E24E0F22ECC24DD2427C0D7016D91C5
:103920007D917D010894C11CD11C4D915C9180E07A
:1039300090E02CE633E00AE815E00E94E715F70175
:1039400060817181FB01EE0FFF1FE459FC4F808104
:103950009181009751F0F70132974081518181E0C8
:1039600090E02CE633E00E94E7158091E101909110
:10397000E201009709F4A1C0C816D9067CF29DC0E7
:10398000D6018D919C911197009709F081C0F401A7
:1039900080819181009709F47BC00CE613E086EDED
:1039A000482E82E0582EEE24FF24D2018D919D9165
:1039B0002D01009721F1F40120813181D8018D91F1
:1039C0009C91119728173907D1F48091BE049091EA
:1039D000BF04B70146ED52E02AE835E00E94ED0C45
:1039E000009769F08091F6039091F703B50146EDD9
:1039F00052E02AEE34E00E94ED0C009751F4089456
:103A0000E11CF11C0E5F1F4FB8E0EB16F10469F6E4
:103A10003FC06091C0047091C10480E090E0A701B4
:103A20002CE633E00AE815E00E94E7154091C00457
:103A30005091C10480E090E0B7012CE633E00E9491
:103A4000E7150E942E116091F6037091F7037093B1
:103A5000BF046093BE0481E090E0A50126ED32E052
:103A60000AEE14E00E94E715F6018081918190939F
:103A7000E3038093E203F701EE0FFF1FE459FC4FCD
:103A800020813181D60111963C932E9391838083BE
:103A90000894A11CB11CE2E0F0E0CE0EDF1E8E0EF9
:103AA0009F1EF4E1AF16B10409F06ACF08946108D3
:103AB00071086114710421F40EC0A2E06A2E712C09
:103AC000FEEF8F2EF2E09F2EE6EDCE2EE2E0DE2E10
:103AD000AA24BB2455CF0E9460160E943C12C39AB0
:103AE0002FEF3FEF4CE2215030404040E1F700C063
:103AF0000000C398B599FECFB59BFECF2091A802D8
:103B00003091A9028FE791E008E911E02115310514
:103B100009F442C06091AC035091AB034091AA03F9
:103B20003091B2032091B103ADB7BEB71E970FB667
:103B3000F894BEBF0FBEADBFEDB7FEB731967DE7BF
:103B4000672E76E0772E12967C926E921197938371
:103B50008283648315825683178240871186328759
:103B60001386248715860E94E94D2DB73EB7225F44
:103B70003F4F0FB6F8943EBF0FBE2DBF80E060E010
:103B8000A3010E9467013091AD032091AE03909193
:103B9000AF038091B00341C06091C0035091BF0357
:103BA0004091BE033091C6032091C503ADB7BEB7A7
:103BB0001E970FB6F894BEBF0FBEADBFEDB7FEB7F0
:103BC00031967DE7672E76E0772E12967C926E9284
:103BD000119793838283648315825683178240876B
:103BE000118632871386248715860E94E94D2DB7EA
:103BF0003EB7225F3F4F0FB6F8943EBF0FBE2DBFBA
:103C000080E060E0A3010E9467013091C103209130
:103C1000C2039091C3038091C4034DB75EB74C506B
:103C200050400FB6F8945EBF0FBE4DBFEDB7FEB764
:103C30003196ADB7BEB712967C926E9211971383F0
:103C400002833483158226831782908711868287A8
:103C500013860E94E94DEDB7FEB73C960FB6F89477
:103C6000FEBF0FBEEDBF81E060E0A3010E946701CF
:103C70008091A8029091A90297FF03C09095819529
:103C80009F4F69E070E00E9495549093AB0280933F
:103C9000AA020E949A228091AA0266E60E94D84C4B
:103CA000A82E8091AA0267E60E94D84CC82E809167
:103CB000AA0268E60E94D84CE82E0091AA028090E1
:103CC000AB02802F69E60E94D84C2DB73EB72E502C
:103CD00030400FB6F8943EBF0FBE2DBFEDB7FEB714
:103CE0003196ADE76A2EA6E07A2EADB7BEB7129632
:103CF0007C926E92119720EB31E033832283048310
:103D00008582A6821782C0861186E2861386848702
:103D100015860E94E94D2DB73EB7225F3F4F0FB683
:103D2000F8943EBF0FBE2DBF82E060E0A3010E9469
:103D300067014091EB055091EC052091ED05309124
:103D4000EE05A091E905B091EA05E090A306F09098
:103D5000A406C0907706D0907806A090F305B090A6
:103D6000F4058090E7059090E8056091DA05709180
:103D7000DB058091DC059091DD05EDB7FEB774970A
:103D80000FB6F894FEBF0FBEEDBF0DB71EB70F5FA5
:103D90001F4F72826182E4EC6E2EE1E07E2EF8010C
:103DA000738262825583448337832683B187A087D9
:103DB000F386E286D586C486B786A686918A808AEF
:103DC0000E94004FD80153967C936E9352970E94A5
:103DD000E94DEDB7FEB774960FB6F894FEBF0FBE6F
:103DE000EDBF83E060E04DE756E00E94670100D040
:103DF00000D000D0EDB7FEB731967DE7672E76E0B4
:103E0000772EADB7BEB712967C926E9211978AED5F
:103E100091E0938382838091A8029091A902958377
:103E200084830E94E94D2DB73EB72A5F3F4F0FB6FE
:103E3000F8943EBF0FBE2DBF83E060E1A3010E9456
:103E4000670190C990E0FC01B096FE2FEE2720811B
:103E50002093E20520FDFBCF8896B82FAA278C91EE
:103E600090819093E20590FDFBCF089590E08096BD
:103E7000F82FEE2780818093E20580FDFBCF6083E1
:103E800080818093E20580FDFBCF089580E061E0B2
:103E90000E94361F82E061E00E94361F81E061E0EF
:103EA0000E94361F0895A82FB0E0FD01B096FE2FA6
:103EB000EE2780818093E20580FDFBCF9896BA2F94
:103EC000AA27872F992787FD9A958C9380818093C5
:103ED000E20580FDFBCF6C9380818093E20580FD3D
:103EE000FBCF08951F93CF93DF93182F80E06FE1EE
:103EF0000E94361FC1E0D0E002C0CC0FDD1F1A9532
:103F0000E2F780E0BE010E94531F81E06FE10E9452
:103F1000361F81E0BE010E94531F82E06FE10E94C4
:103F2000361F82E0BE010E94531F80E061E00E94C4
:103F3000361F82E061E00E94361F81E061E00E944E
:103F4000361FDF91CF911F910895DF92EF92FF927C
:103F50000F931F93D82E7A018B019B01552737FDB4
:103F60005095452FB9010E94531F8D2DB7010E9416
:103F7000531F1F910F91FF90EF90DF9008951F93B3
:103F8000182F60E00E94361F8CEC9CE10197F1F73E
:103F900000C00000812F6DE10E94361F812F60E07C
:103FA00070E00E94531F1F910895AF92BF92CF926D
:103FB000DF92EF92FF920F931F93CF93DF93F82E30
:103FC0006B01EA018901AA24A3946115710509F422
:103FD000AA24BB24B394209709F4BB24EE24E394D1
:103FE0000115110509F4EE248F2D6EE10E94361F94
:103FF0006B2D70E0660F771F660F771F8A2D90E09C
:1040000043E0880F991F4A95E1F7682B792B8E2D95
:1040100090E0880F991F682B792B8F2D0E94531FDA
:10402000AA2021F08F2DB6010E94531FBB2021F042
:104030008F2DBE010E94531FEE2021F08F2DB8015D
:104040000E94531F8F2D64E00E94361FDF91CF9195
:104050001F910F91FF90EF90DF90CF90BF90AF90A6
:1040600008958F929F92AF92BF92CF92DF92EF927C
:10407000FF920F931F93CF93DF93F82E4B016A01AA
:10408000E901AA24A3946115710509F4AA24BB24AB
:10409000B394C114D10409F4BB24EE24E394209713
:1040A00009F4EE248F2D6EE10E94361F6A2D70E018
:1040B000A3E0660F771FAA95E1F761608B2D90E072
:1040C000880F991F880F991F682B792B8E2D90E0F0
:1040D000880F991F682B792B8F2D0E94531FAA20C0
:1040E00021F08F2DB4010E94531FBB2021F08F2D92
:1040F000B6010E94531FEE2021F08F2DBE010E94B9
:10410000531F8F2DB8010E94531F8F2D64E00E9412
:10411000361FDF91CF911F910F91FF90EF90DF90AD
:10412000CF90BF90AF909F908F900895DF92EF92C5
:10413000FF920F931F93D82E7A018B016FE10E949B
:10414000361F8D2D60E270E00E94531F8D2DB80147
:10415000A7010E94A51F1F910F91FF90EF90DF9084
:10416000089580E060E170E040E050E020E430E05D
:104170000E94D51F81E060E170E040E050E020E463
:1041800030E00E94D51F82E060E170E040E050E046
:1041900020E430E00E94D51F80E04FEF5FEF6FEF2B
:1041A0007FE30E94962081E04FEF5FEF6FEF7FE3A8
:1041B0000E94962082E04FEF5FEF6FEF7FE30E9457
:1041C00096200895DF92EF92FF920F931F93DF9353
:1041D000CF930F92CDB7DEB7D82E7A018B0177FF40
:1041E0000AC010950095F094E094E11CF11C011DAB
:1041F000111D90E001C091E08D2D6FE199830E9427
:10420000361F9981792F7295707F60E068607860C1
:104210008D2D0E94531F8D2DB801A7010E94A51F4F
:104220000F90CF91DF911F910F91FF90EF90DF9052
:104230000895AF92BF92CF92DF92EF92FF920F93C9
:104240001F93DF93CF93CDB7DEB72C970FB6F894BB
:10425000DEBF0FBECDBF59016A010E94334F698393
:104260007A838B839C83C601B5010E94334F6D8393
:104270007E838F839887C801B7010E94334F698777
:104280007A878B879C878E010F5F1F4FEE24F80182
:10429000608171818281938121E73CEA4BE85EE392
:1042A0000E94F7509B01AC01F80121933193419397
:1042B00051938F0120E030E040E857E40E94F7502E
:1042C0000E94004FAB01BC018E2D0E94E220E394BE
:1042D000FE2DF330E1F60E94461F2C960FB6F8949F
:1042E000DEBF0FBECDBFCF91DF911F910F91FF9029
:1042F000EF90DF90CF90BF90AF9008954F925F9274
:104300006F927F928F929F92AF92BF92CF92DF92E5
:10431000EF92FF920F931F93982E862E29013A0158
:104320006FE10E94361F682D70E06A62892D0E943D
:10433000531F892DB301A2010E94A51F892DB80129
:10434000A7010E94A51F892DB601A5010E94A51FE6
:104350001F910F91FF90EF90DF90CF90BF90AF90A3
:104360009F908F907F906F905F904F9008959F9255
:10437000AF92BF92CF92DF92EF92FF920F931F9373
:10438000DF93CF9300D00F92CDB7DEB71ABA15BA2C
:104390008FEF84BB1092650083E08093640010E887
:1043A000A12EB4E8BB2E6E010894C11CD11C85B3AC
:1043B000856085BB83E39BE20197F1F785B38A7F34
:1043C00085BBECECFCE13197F1F700C00000809177
:1043D00065008D7F80936500AB9885B3887F85BB32
:1043E00099B39983A89A19B385B3887F826085BBF6
:1043F00009B3943C09F494C0943809F491C015BAF7
:1044000080E060E045E052E00E94670181E060E00A
:104410004BE052E00E946701143C09F481C014385B
:1044200009F47EC015BA80E060E045E052E00E94E9
:10443000670182E060E04BE152E00E946701043CCA
:1044400009F46EC0043809F46BC015BA80E060E06E
:1044500045E052E00E94670183E060E04BE252E0F9
:1044600029C09E2C9C18892D6DE10E94361F892D34
:1044700060E070E00E94531FF8018081F701819392
:104480007F0100501F4FF3E200301F0751F7898171
:10449000803C99F0803889F085B78F7385BF15BA55
:1044A00080E060E04BE352E00E94670181E060E061
:1044B0004BE052E00E9467017ACF80E060E041E487
:1044C00052E00E94670180E098B3976098BB2FEF9D
:1044D0003FEB46E0215030404040E1F700C0000093
:1044E00098B3987F98BB2FEF3FEB46E021503040C8
:1044F0004040E1F700C000008F5F833029F70E9441
:10450000D8010F900F900F90CF91DF911F910F91D5
:10451000FF90EF90DF90CF90BF90AF909F90089565
:10452000A5BE82E080936D00B0926C00760100E041
:1045300010E297CF4F925F926F927F928F929F92ED
:10454000AF92BF92CF92DF92EF92FF920F931F93A1
:10455000CF93DF9304E6802E912C84E00E947600B6
:10456000982F80E0EC0185E00E94760090E08C2B93
:104570009D2BB4010E949554882777FD8095982F34
:104580000E94334FF62E072F182FE92E462E572E56
:10459000682E792E63015201E894D7F8C601B5015F
:1045A00020E030E044E353E40E945C501816ACF283
:1045B0006091D6057091D7058091D8059091D90565
:1045C0002F2D302F412F5E2D0E94914E882309F40C
:1045D000E5C06F2D702F812F9E2D20E030E0A901C6
:1045E0000E94914E87FF5DC06091D6057091D705FE
:1045F0008091D8059091D90520E030E0A9010E9472
:104600005C5018160CF04DC02091D6053091D7059E
:104610004091D8055091D9055F77C601B5010E9438
:104620001A4E20E030E044E353E40E94914E87FFAD
:1046300015C0A090DA05B090DB05C090DC05D090E5
:10464000DD052091D6053091D7054091D8055091D0
:10465000D9056F2D702F812F9E2D1CC0A090DA05DB
:10466000B090DB05C090DC05D090DD056091D605EB
:104670007091D7058091D8059091D9052F2D302FB5
:10468000412F5E2D0E94194E9B01AC0160E070E04D
:1046900084EB93E40E94194E9B01AC01C601B50165
:1046A00069C0C301B20120E030E0A9010E945C5062
:1046B00018160CF047C06091D6057091D70580910F
:1046C000D8059091D90520E030E0A9010E94914ED3
:1046D00087FF38C02091D6053091D7054091D80585
:1046E0005091D9055F77C601B5010E941A4E20E0AE
:1046F00030E044E353E40E94914E87FD23C0E090F4
:10470000DA05F090DB050091DC051091DD052091C4
:10471000D6053091D7054091D8055091D905C301F0
:10472000B2010E94194E9B01AC0160E070E084EB85
:1047300093E40E94194E9B01AC01C801B7010E948D
:10474000194E1AC0E090DA05F090DB050091DC0507
:104750001091DD052091D6053091D7054091D805FF
:104760005091D905C301B2010E94194E9B01AC01C1
:10477000C801B7010E941A4E9B01AC012093DA05D3
:104780003093DB054093DC055093DD054092D60560
:104790005092D7056092D8057092D905DF91CF91DC
:1047A0001F910F91FF90EF90DF90CF90BF90AF904F
:1047B0009F908F907F906F905F904F9008952F9271
:1047C0003F924F925F926F927F928F929F92AF92A1
:1047D000BF92CF92DF92EF92FF920F931F93DF93DE
:1047E000CF93CDB7DEB762970FB6F894DEBF0FBE9A
:1047F000CDBF69837A838B839C832D833E834F83D4
:1048000058873701480160E070E084E394E4A60132
:1048100095010E94194E162F072FF82EE92E8D8133
:104820009E81AF81B8858093E3059093E405A093C2
:10483000E505B093E60589819A81AB81BC818093BF
:10484000790690937A06A0937B06B0937C06A0929B
:10485000EF05B092F005C092F105D092F205C601C5
:10486000B50120E030E044E353E40E94914E181675
:1048700084F0A8019701652F742F832F922F20E0D9
:1048800030E044EB53E40E94194E162F072FF82E08
:10489000E92EA8019701652F702F832F9E2D20E010
:1048A00030E044EB52E40E94194E69877A878B8787
:1048B0009C87C401B30123EF36E64FE55EE30E9417
:1048C000F7506D877E878F87988B80E090E036E980
:1048D000432E512C28E6222E21E0322E9A8B898BF2
:1048E000B201882777FD8095982F0E94334F5B0196
:1048F0006C01C20188589F4FB1010E9495542C0150
:10490000C601B501D801F7012B2F302F4F2F5E2D97
:104910000E94194E25E33AEF4EE85CE30E94F750FF
:104920000E94954E3B014C01C601B501B985AA858F
:10493000AB84DC842B2F3A2F4A2D5D2D0E94194E1B
:1049400025E33AEF4EE85CE30E94F7500E94954E53
:104950005B016C016D817E818F819885A40193013B
:104960000E94F7503B014C0169817A818B819C81C7
:10497000A60195010E94F7509B01AC01C401B3014F
:104980000E941A4EBD85AE85DF84A8882B2F3A2F52
:104990004D2D5A2D0E94194E2FE632E143E856E480
:1049A0000E94F75023E333E343E250EC0E94F750B8
:1049B0000E94004FAB01BC0189890E94E220A989B5
:1049C000BA891196BA8BA98BA330B10509F088CFAB
:1049D0000E94461F0E949A2262960FB6F894DEBF8C
:1049E0000FBECDBFCF91DF911F910F91FF90EF9040
:1049F000DF90CF90BF90AF909F908F907F906F90FF
:104A00005F904F903F902F9008952F923F924F923A
:104A10005F926F927F928F929F92AF92BF92CF924E
:104A2000DF92EF92FF920F931F93DF93CF93CDB757
:104A3000DEB72C970FB6F894DEBF0FBECDBF5B017B
:104A40006C0139014A01170128016091DA05709162
:104A5000DB058091DC059091DD052091DE0530912C
:104A6000DF054091E0055091E105E090DA05F09016
:104A7000DB050091DC051091DD05E092DE05F0928A
:104A8000DF050093E0051093E105E090D205F0907A
:104A9000D3050091D4051091D5050E94194E9B01B4
:104AA000AC01C801B7010E94194E9B01AC012093D3
:104AB000D2053093D3054093D4055093D505C60154
:104AC000B50120E030E0A9010E94914E882351F405
:104AD000C401B30120E030E0A9010E94914E882377
:104AE00009F4D2C0C601B50120E030E048EC52E440
:104AF0000E94984E69837A838B839C83C401B3019F
:104B000020E030E048EC52E40E94984E6D837E83B2
:104B10008F8398876091D2057091D3058091D405D9
:104B20009091D505A20191010E94194EF62E072FF2
:104B3000182FE92E8091CA059091CB05A091CC0544
:104B4000B091CD0589879A87AB87BC876F2D702F71
:104B5000812F9E2D25E33AEF4EE85CE30E94F7504B
:104B60000E94954E3B014C016F2D702F812F9E2D81
:104B700020E030E044EB52E40E941A4E25E33AEF85
:104B80004EE85CE30E94F7500E94954E5B016C0179
:104B900059814A813B812C81652F742F832F922F5D
:104BA000A40193010E94F7501B012C015D814E81ED
:104BB0003F812885652F742F832F922FA6019501A1
:104BC0000E94F7509B01AC01C201B1010E941A4E34
:104BD0009B01AC0169857A858B859C850E941A4E64
:104BE0009B01AC012093CA053093CB054093CC05C3
:104BF0005093CD052090CE053090CF054090D00544
:104C00005090D1056F2D702F812F9E2D20E030E028
:104C100044EB52E40E94194E25E33AEF4EE85CE380
:104C20000E94F7500E94954E7B018C015D814E8160
:104C30003F812885652F742F832F922FA401930124
:104C40000E94F7505B016C0159814A813B812C81A4
:104C5000652F742F832F922FA80197010E94F75080
:104C60009B01AC01C601B5010E941A4E9B01AC012B
:104C7000C201B1010E941A4E9B01AC01EAECF5E0C1
:104C800024833583468357832C960FB6F894DEBF72
:104C90000FBECDBFCF91DF911F910F91FF90EF908D
:104CA000DF90CF90BF90AF909F908F907F906F904C
:104CB0005F904F903F902F9008952F923F924F9288
:104CC0005F926F927F928F929F92AF92BF92CF929C
:104CD000DF92EF92FF920F931F93DF93CF93CDB7A5
:104CE000DEB72E970FB6F894DEBF0FBECDBF18010A
:104CF00087019A8389837C836B83509541955F4FAD
:104D00005E834D83309521953F4F38872F83CE01A9
:104D100001969A87898779E0472E512C4C0E5D1EAB
:104D20007C0166247724CC24DD24D7016D917D910C
:104D30007D01882777FD8095982F0E94334F4B0186
:104D40005C01E894B7F8662D772D8C2D9D2DA5017B
:104D500094010E94914E87FF02C034016501E41462
:104D6000F50419F7EE24FF24C101AA2797FDA095A9
:104D7000BA2F8B879C87AD87BE87A985BA85AD90F2
:104D8000BD90BA87A9876B857C858D859E850E949D
:104D9000334F1B012C01B501882777FD8095982F93
:104DA0000E94334F262D372D4C2D5D2D0E94984E9D
:104DB000A20191010E94F7509B01AC01F701EE0F97
:104DC000FF1FEE0FFF1FED56F94F20833183428303
:104DD00053830894E11CF11CB4E0EB16F10469F66E
:104DE000043611052CF40115110509F051C005C058
:104DF0000436110511F00456104091E0E92EF12C13
:104E0000662D772D8C2D9D2D20E030E048EC52E46E
:104E10000E94F750A20191010E94984E0E947E4E7E
:104E20005B016C01970122503040C80117FF03C09D
:104E3000909581959F4FB7010E949554620F731F03
:104E4000882777FD8095982F0E94334F9B01AC01F6
:104E5000C601B5010E941A4E0E94004FCB012E964A
:104E60000FB6F894DEBF0FBECDBFCF91DF911F917B
:104E70000F91FF90EF90DF90CF90BF90AF909F90F9
:104E80008F907F906F905F904F903F902F900895FC
:104E900082E0E82EF12CB4CF2F923F924F925F9296
:104EA0006F927F928F929F92AF92BF92CF92DF923A
:104EB000EF92FF920F931F93DF93CF93CDB7DEB79F
:104EC0002E970FB6F894DEBF0FBECDBF7A836983ED
:104ED0006536710514F0645670404B0177FF04C0CD
:104EE00088249924861A970AE090B603F090B703B5
:104EF000A7014F5F5F4F9C012E193F0900E010E0B2
:104F00005A01CC24B7FCC094DC2CAB82BC82CD828D
:104F1000DE821401442437FC4094542C6C01C818E0
:104F2000D908D886CF82C901AA2797FDA095BA2FA4
:104F300089879A87AB87BC877E876D873401F7FCAA
:104F400034C0AD85BE85B7FD2DC04801880C991CC5
:104F5000880C991CF401ED56F94FA080B180C280F5
:104F6000D3806B817C818D819E810E94334F9B0118
:104F7000AC01C601B5010E94F7505B016C01C20192
:104F8000B1010E94334F9B01AC01C601B5010E94E3
:104F9000984E9B01AC01F401EB55F94F208331830E
:104FA00042835383E614F70424F4ED85FE85F7FF6E
:104FB00013C09801220F331F220F331FF901ED5642
:104FC000F94F80819181A281B3812B55394FF9012D
:104FD00080839183A283B383AF80B884AE14BF046F
:104FE00094F549815A814536510568F14801880C8C
:104FF000991C880C991CF401ED56F94FA080B180E2
:10500000C280D38069857A858B859C850E94334FC9
:105010009B01AC01C601B5010E94F7505B016C0118
:10502000C201B1010E94334F9B01AC01C601B50121
:105030000E94984E9B01AC01F401EB55F94F20837F
:105040003183428353830F5F1F4F0430110509F0F2
:1050500076CF2E960FB6F894DEBF0FBECDBFCF91A0
:10506000DF911F910F91FF90EF90DF90CF90BF9055
:10507000AF909F908F907F906F905F904F903F90F8
:105080002F90089581E090E00A9B02C080E090E0BC
:105090009093EE058093ED0581E090E00B9B02C0BC
:1050A00080E090E09093EA058093E90581E090E04C
:1050B0000C9B02C080E090E09093A4068093A3062E
:1050C00081E090E0849B02C080E090E09093EC054A
:1050D0008093EB0581E090E0869B02C080E090E049
:1050E00090937806809377062091630081E090E0AA
:1050F00023FD02C080E090E09093F4058093F305D7
:105100002091630081E090E024FD02C080E090E007
:105110009093E8058093E70508951F920F920FB6CC
:105120000F920BB60F921124EF92FF920F931F93E1
:105130002F933F934F935F936F937F938F939F939F
:10514000AF93BF93EF93FF938FEF8DBD80E78CBD3F
:105150006091A0037091A1038091A2039091A30399
:105160002AE037ED43EA5CE30E941A4E7B018C0192
:105170007F2D912F20E030E040E85FE30E945C50FB
:10518000181624F4EE24FF2400E81FE38E2D9F2D33
:10519000A02FB12F8093A0039093A103A093A2030B
:1051A000B093A3036091BA037091BB038091BC03D9
:1051B0009091BD032AE037ED43EA5CE30E941A4E6A
:1051C0007B018C017F2D912F20E030E040E85FE3F0
:1051D0000E945C50181624F4EE24FF2400E81FE31C
:1051E0008E2D9F2DA02FB12F8093BA039093BB03D8
:1051F000A093BC03B093BD036091A4037091A50379
:105200008091A6039091A7032DEC3CEC4CE45DE368
:105210000E941A4EF62EE72E8C01A701652F742FDF
:10522000912F20E030E040E85FE30E945C501816C8
:1052300024F4FF24EE2400E81FE3A701852F9E2D10
:10524000A02FB12F8093A4039093A503A093A6034E
:10525000B093A7030E9442288091ED059091EE053E
:105260000097B1F080919E0390919F03009781F485
:105270008091A8039091A90301969093A90380932C
:10528000A80381E090E090939F0380939E0310C059
:105290008091ED059091EE05009751F480919E0369
:1052A00090919F03009721F010929F0310929E030C
:1052B0008091E9059091EA05009731F18091D4033E
:1052C0009091D503009701F58091DE039091DF0363
:1052D00001969093DF038093DE0321E030E030936A
:1052E000D5032093D4038091910690919206FC01FE
:1052F000EE0FFF1FE15BF94F3183208301969093FE
:1053000092068093910610C08091E9059091EA057C
:10531000009751F48091D4039091D503009721F028
:105320001092D5031092D4038091A3069091A40605
:105330000097B1F08091D0039091D103009781F450
:105340008091CE039091CF0301969093CF038093E9
:10535000CE0381E090E09093D1038093D00310C0FE
:105360008091A3069091A406009751F48091D003F8
:105370009091D103009721F01092D1031092D003A5
:105380008091EB059091EC050097B1F08091CC03F2
:105390009091CD03009781F48091D6039091D7032B
:1053A00001969093D7038093D60381E090E0909389
:1053B000CD038093CC0310C08091EB059091EC0558
:1053C000009751F48091CC039091CD03009721F088
:1053D0001092CD031092CC038091770690917806BD
:1053E0000097B1F08091B8039091B903009781F4D0
:1053F0008091D8039091D90301969093D90380931B
:10540000D80381E090E09093B9038093B80310C073
:105410008091770690917806009751F48091B803B7
:105420009091B903009721F01092B9031092B8033C
:105430008091F3059091F405009741F18091D2039A
:105440009091D303009711F58091CA039091CB03FB
:1054500001969093CB038093CA0381E090E09093F0
:10546000D3038093D2038091910690919206FC0120
:10547000EE0FFF1FE15BF94F22E030E03183208324
:105480000196909392068093910610C08091F30547
:105490009091F405009751F48091D2039091D30339
:1054A000009721F01092D3031092D2038091E70568
:1054B0009091E8050097B1F08091B4039091B50305
:1054C000009781F48091E0039091E103019690931D
:1054D000E1038093E00381E090E09093B503809333
:1054E000B40310C08091E7059091E805009751F44E
:1054F0008091B4039091B503009721F01092B50309
:105500001092B4038091B6039091B703009729F0ED
:1055100001969093B7038093B60380918E03909188
:105520008F03009749F080918E0390918F0301972C
:1055300090938F0380938E038091DA039091DB0325
:10554000009749F08091DA039091DB0301969093E4
:10555000DB038093DA038091C8039091C90300971D
:1055600029F001969093C9038093C8038091910616
:10557000909192068431910524F010929206109237
:1055800091066091790670917A0680917B069091E0
:105590007C062091E3053091E4054091E5055091AA
:1055A000E605E090EF05F090F0050091F10510910F
:1055B000F2050E940525FF91EF91BF91AF919F9158
:1055C0008F917F916F915F914F913F912F911F919B
:1055D0000F91FF90EF900F900BBE0F900FBE0F90AA
:1055E0001F901895AF92BF92CF92DF92EF92FF92E9
:1055F0000F931F9360E070E0CB019B01AC017B0136
:105600008C015B016C010E94DF231F910F91FF90C1
:10561000EF90DF90CF90BF90AF900895FC01E655DA
:10562000FC4F808190E0681779076CF08091C80387
:105630009091C903009759F481E090E09093C903D9
:105640008093C80304C01092C9031092C80321E0DC
:1056500030E08091C8039091C9038330910514F420
:1056600020E030E0C90108951F93182F81E10E94C6
:105670003E01812F0E943E018091A6028823E1F322
:105680000E942B01882391F31F9108954F925F92FE
:105690006F927F928F929F92AF92BF92CF92DF9242
:1056A000EF92FF920F931F93CF93DF938C013B01F7
:1056B000C1E0D0E0CC24DD248FEFA82EB12C8824CB
:1056C0009924EE24FF2444245524401A510A14C07E
:1056D000602F17FD642D8C2F0E94D84C90E0C816C7
:1056E000D90614F46C017E018A159B0524F40097F9
:1056F00011F05C014E0121966C167D064CF71016D8
:1057000011060CF07401C701DF91CF911F910F9129
:10571000FF90EF90DF90CF90BF90AF909F908F90D1
:105720007F906F905F904F9008956F927F928F92CD
:105730009F92AF92BF92CF92DF92EF92FF920F9320
:105740001F93D62EC72EB82EA92E922E832E742EDE
:10575000652E6E2D7F2D802F912FD601F5012B2FD9
:105760003A2F4F2F5E2F0E945C501816ACF06E2D12
:105770007F2D802F912FD401F3012B2F3A2F4F2F04
:105780005E2F0E94914E87FF03C06401530104C045
:10579000DE2CCF2CB02EA12EA6019501652F7C2DDD
:1057A000832F9A2D1F910F91FF90EF90DF90CF9054
:1057B000BF90AF909F908F907F906F9008952F92A1
:1057C0003F925F926F927F928F929F92AF92BF9221
:1057D000CF92DF92EF92FF920F931F93DF93CF93BD
:1057E000CDB7DEB728970FB6F894DEBF0FBECDBF9A
:1057F000582E4B015A8349831092C9031092C80353
:1058000010928F0310928E0380918E0390918F03DC
:105810009093B6068093B5068091B5069091B60632
:105820009093B7038093B60360E070E080E090E06F
:10583000DC018B01000F111F000F111F98012B5568
:10584000394FF90180839183A283B3832081318111
:1058500042815381F801ED56F94F20833183428311
:1058600053836F5F7F4F6430710519F700D000D00C
:1058700000D0EDB7FEB731960DE716E0ADB7BEB775
:1058800012961C930E93119785E592E09383828381
:105890008AE592E0958384830E94E94DEDB7FEB7D7
:1058A00036960FB6F894FEBF0FBEEDBF80E067E0FE
:1058B000A8010E9467011092DB031092DA03852D84
:1058C00066E60E94D84CA82EE090D205F090D30551
:1058D0000091D4051091D505B401882777FD8095F6
:1058E000982F0E94334FA80197010E941A4E0E94E0
:1058F000004F4B018A189108882777FD8095982FD3
:105900000E94334F5B016C01B401882777FD8095BD
:10591000982F0E94334F7B018C01C40168E572E02F
:105920000E949554882777FD8095982F0E94334FC9
:105930002FE832EC45E75EE30E941A4E9B01AC0172
:10594000C801B7010E94F7509B01AC01C601B50127
:105950000E941A4E0E94004F1B018824992491E056
:10596000692E712C3C822B82140180918E039091C0
:105970008F030097D1F770928F0360928E03852D6D
:1059800066E60E94D84CE82EFF24852D67E60E942B
:10599000D84C38C00E94F22A852D66E60E94D84C69
:1059A000E82E852D67E60E94D84C2091DA033091CD
:1059B000DB032115310521F47092DB036092DA03D9
:1059C0002091DA033091DB03F1E02F353F071CF023
:1059D0000E94F22A12C1FF24E114F10499F020E0A0
:1059E00030E0A9012093BA033093BB034093BC037A
:1059F0005093BD032093A0033093A1034093A203CF
:105A00005093A303082F10E0E114F10421F40115D1
:105A1000110509F4BFCF4B815C814115510591F00F
:105A2000E41AF50AB701882777FD8095982F0E9420
:105A3000334F2DEC3CEC4CE45FE30E94F7500E94A6
:105A4000004F1B0189819A81009719F04C01801A3F
:105A5000910AB101882777FD8095982F0E94334FD6
:105A60007B018C0160E070E088E492E420E030E0AB
:105A700048E452EC0E94952B0E94004F1B01B40198
:105A8000882777FD8095982F0E94334F7B018C01EA
:105A900060E070E080E792E420E030E040E752EC24
:105AA0000E94952B0E94004F4B01A090D205B09010
:105AB000D305C090D405D090D505B401882777FDD3
:105AC0008095982F0E94334F2091BA033091BB03E9
:105AD0004091BC035091BD030E94F7502DEC3CEC6B
