:100000000C9455000C9474000C9474000C947400BF
:100010000C9474000C9474000C9474000C94740090
:100020000C9474000C9474000C9474000C94740080
:100030000C9474000C9474000C94CC220C947400F6
:100040000C9474000C9474000C944A470C94740043
:100050000C9474000C9474000C9474000C94740050
:100060000C9474000C9474000C9474000C94740040
:100070000C9474000C9474000C940A010C94740099
:100080000C9474000C9474000C94740005A84CCD6E
:10009000B2D44EB93836A9020C50B9918688083CC2
:1000A000A6AAAA2ABE000000803F11241FBECFEFDF
:1000B000D0E1DEBFCDBF12E0A0E0B1E0E4E9FDE9B0
:1000C00000E00BBF02C007900D92A636B107D9F72A
:1000D00014E0A6E6B2E001C01D92A137B107E1F736
:1000E0000E9419120C94F2470C94000094EA909329
:1000F00074009091740097FFFCCF9AE09093730086
:1001000094E8909374009091740097FFFCCF8093D3
:10011000730084E8809374008091740087FFFCCFA3
:1001200084E98093740084EA809374008091740061
:1001300087FFFCCF8BE08093730084E8809374008A
:100140008091740087FFFCCF84E8809374008091D5
:10015000740087FFFCCF8091730094E99093740042
:10016000089594EA909374009091740097FFFCCFE7
:100170009AE09093730094E89093740090917400C7
:1001800097FFFCCF8093730084E880937400809184
:10019000740087FFFCCF6093730084E88093740041
:1001A0008091740087FFFCCF84E9809374000895E8
:1001B00010929B0088E980939A0086E080939D00CE
:1001C000109298008FE580939900789408951F937A
:1001D0001FEF1093730081E4809370000E94F61B60
:1001E0000E9436470E94D8000E94F01A1FBC85E08A
:1001F0008EBD1DBD80E78CBD84E087BF78948FE005
:1002000087BB81B3807F81BB84B3806F84BB18BA06
:100210001F9108951F920F920FB60F9211248F9382
:10022000DF93CF930F92CDB7DEB780919C00898387
:1002300080919B00887BE1F381E080936602898155
:10024000809367020F90CF91DF918F910F900FBE37
:100250000F901F901895DF93CF930F92CDB7DEB715
:1002600080916702898310926702F8941092660267
:10027000789489810F90CF91DF91089590919B00A0
:1002800095FFFCCF80939C000895CF93DF93E4E724
:10029000F0E094EA9083A1EEB2E01197F1F700004C
:1002A000A3E7B0E09EE09C9394E89083C1EED2E097
:1002B0002197F1F700008C93908381EE92E00197F3
:1002C000F1F7000084E98083DF91CF910895EF92E8
:1002D000FF920F931F93DF93CF9300D0CDB7DEB77C
:1002E000082F162F843070F5643160F58BE1498357
:1002F0005A830E9445018CE40E944501812F0E948F
:100300004501802F0E94450180E791E00197F1F7B8
:1003100000C0E12EFF2449815A81042F152F06C009
:100320000E94450194EC9A95F1F700C0E4E1EE16C5
:10033000F10444F4F80181918F010894E11CF11C4F
:10034000882371F70F900F90CF91DF911F910F913C
:10035000FF90EF9008951F93DF93CF9300D0CDB718
:10036000DEB7182F8430F0F46431E0F48BE12A8397
:1003700069830E9445018CE40E9445016981862FB2
:100380000E944501812F0E94450180E791E001977D
:10039000F1F700C02A81822F0E94450194EC9A95C2
:1003A000F1F700C00F900F90CF91DF911F9108954A
:1003B0008BE10E94450183E40E94450186E696EEAA
:1003C000A0E081509040A040E1F70895EF92FF92A5
:1003D0000F931F93182FF62EE42E842F64E60E94AD
:1003E000954E082F282F30E0205D3F4F442737FDE2
:1003F0004095542F812F6F2D0E94AB018CE9089FEF
:10040000002D11240E0D802F6AE00E94954EE82EDB
:100410006F2D6F5F282F30E0205D3F4F442737FD61
:100420004095542F812F0E94AB016F2D6E5F26EFF8
:10043000E29E202D1124200F30E0205D3F4F442705
:1004400037FD4095542F812F0E94AB011F910F91D2
:10045000FF90EF900895EF92FF920F931F9380E02B
:1004600090E06EEF7FEF40E050E020E030E00AE007
:1004700010E0E8E7EE2EF12C0E944F2E80E090E095
:1004800064E070E040E050E020E030E00E944F2E59
:1004900080E090E06AEF7FEF40E050E020E030E065
:1004A0000E944F2E80E090E068E070E040E050E075
:1004B00020E030E00E944F2E80E090E066EF7FEF7A
:1004C00040E050E020E030E00E944F2E80E090E0DD
:1004D0006CE070E040E050E020E030E00E944F2E01
:1004E00080E090E062EF7FEF40E050E020E030E01D
:1004F0000E944F2E80E090E060E170E040E050E02C
:1005000020E030E00E944F2E1F910F91FF90EF905E
:100510000895AF92BF92CF92DF92EF92FF920F9326
:100520001F93CF93DF9380E090E0DC018093AE02D5
:100530009093AF02A093B002B093B1028093940263
:1005400090939502A0939602B093970285E090E075
:1005500063EC70E046E050E02DEA30E008E010E0A7
:10056000BDE7EB2EF12CAEE1CA2ED12CFEE1AF2E71
:10057000B12C0E9416401092D1021092D0028CEE43
:100580009FEF60E070E044E150E02EE130E008E2EF
:1005900010E00E940634C4E1D0E0D093D102C093B1
:1005A000D00286EE9FEF60E070E040E050E028E28D
:1005B00030E000E010E00E948C2A8AEB9FEF9093DD
:1005C000D1028093D00284E190E06AE570E040E0DF
:1005D00050E023E230E00E94A235D093D102C093D4
:1005E000D00280E090E060E070E048E15CEF20E065
:1005F00030E002E310E0EE24FF240E944F2E80E062
:1006000090E068EF7FEF40E050E022E330E004EC60
:100610001FEF0E948C2AC39A8FEF9FEFA9E58150AC
:100620009040A040E1F700C00000C398DF91CF9157
:100630001F910F91FF90EF90DF90CF90BF90AF9000
:1006400008954F925F926F927F928F929F92AF9296
:10065000BF92CF92DF92EF92FF920F931F93CF93AF
:10066000DF93EC010F2EF0E06F2EF0E07F2EF0E034
:100670008F2EF0E09F2EF02D6092AE027092AF02AE
:100680008092B0029092B1026092940270929502B0
:10069000809296029092970285E090E063EC70E081
:1006A00046E050E02DEA30E008E010E0ADE7EA2E49
:1006B000F12CFEE1CF2ED12CEEE1AE2EB12C0E941A
:1006C00016401092D1021092D0020E943125C630FD
:1006D000D1050CF0CAC181EF9FEF60E070E046EFFA
:1006E0005FEF28E230E002E310E00E9406348AE582
:1006F00090E09093D1028093D0028FED9FEF6AE556
:1007000070E044EC5FEF28E230E000E010E00E948F
:10071000A2351AEB412E1FEF512E5092D10240927A
:10072000D002C530D10509F4B2C08CEE9FEFC89F4E
:10073000B001C99F700DD89F700D11246154704095
:1007400080E090E040E050E022E330E004EC1FEF76
:100750000E948C2A1092D1021092D0028DE00E9449
:1007600019476092AE027092AF028092B0029092EE
:10077000B1026092940270929502809296029092D9
:10078000970281E090E060E070E042E850E026E807
:1007900030E00E94542880E090E06AE070E040E0A1
:1007A00050E02EE130E008E210E00E948C2A8BEF4E
:1007B0009FEF64E170E04AE550E02EE130E008EDA3
:1007C0001FEFBCE3EB2EF12C0E940B3B5092D102A9
:1007D0004092D00284E190E066EA7FEF40E050E092
:1007E00028E230E002E310E00E94A23584E190E0CC
:1007F0009093D1028093D002C89FB001C99F700D21
:10080000D89F700D11246D5D7F4F80E090E040E037
:1008100050E022E330E000E010E00E948C2A84E106
:1008200090E066EA7FEF4CEE5FEF28E230E00E9456
:10083000A2351092D1021092D00281E190E060E0E6
:1008400070E040E050E028E230E00EEC1FEF0E9444
:100850008C2A6092AE027092AF028092B0029092A7
:10086000B1026092940270929502809296029092E8
:10087000970285E090E063EC70E046E050E02DEAFE
:1008800030E008E010E0ADE7EA2EF12C30C280E065
:1008900090E063E87FEF42EE5FEF22E330E000E0BC
:1008A00010E00E94063486EF9FEF9093D102809370
:1008B000D00280E090E067E070E048EE53E020E096
:1008C00030E0F9E1EF2EF12CE2E3CE2ED12CAA2478
:1008D000BB240E94652C8CE090E060E070E04AE070
:1008E00050E023E230E003ED1FEF0E940634109247
:1008F000D1021092D0026092AE027092AF0280924A
:10090000B0029092B102609294027092950280922D
:1009100096029092970281E090E060E070E042E8F9
:1009200050E026E830E00E94542880E090E06FE03C
:1009300070E040E050E02EE130E008E210E00E947C
:100940008C2A8DEF9FEF6CE170E04AE550E029E1E1
:1009500030E000E010E00E9406348CE090E068E0B7
:1009600070E04AE050E023E030E002E110E0EE24E5
:10097000FF24BCE3CB2ED12CA6E4AA2EB12C0E94DE
:10098000D0308AE090E068E070E04FE350E025E08E
:1009900030E0AA24BB240E94D0308EE190E06AE5CA
:1009A00070E044E150E02DE230E000E010E00E9411
:1009B000A2355092D1024092D0028AE090E066EADD
:1009C0007FEF40E050E028E230E00E94A23584E171
:1009D00090E09093D1028093D00280E090E068E2B2
:1009E00070E040E050E022E330E00E948C2A84E195
:1009F00090E066EA7FEF4CEE5FEF28E230E00E9485
:100A0000A2351092D1021092D00284E190E060E011
:100A100070E040E050E028E230E00EEC1FEF0E9472
:100A20008C2A6092AE027092AF028092B0029092D5
:100A3000B102609294027092950280929602909216
:100A4000970285E090E063EC70E046E050E02DEA2C
:100A500030E008E010E0FDE7EF2EF12CEEE1CE2EC5
:100A6000D12CBEE1AB2EB12C42C16092AE0270928D
:100A7000AF028092B0029092B102609294027092A2
:100A80009502809296029092970285E090E063EC46
:100A900070E046E050E02DEA30E008E010E0ADE71D
:100AA000EA2EF12CFEE1CF2ED12CEEE1AE2EB12CB0
:100AB0000E9416401092D1021092D00260E070E0C5
:100AC00080EA91E448E250E00E94AB398AEB9FEF64
:100AD0009093D1028093D0020E94312580E090E073
:100AE00067E570E040E050E027E330E001E410E02B
:100AF0000E948C2A8BE190E06AE570E040E050E0D3
:100B000022E330E000E010E00E94A235B4E1CB2EF9
:100B1000D12CD092D102C092D002CB30D10509F4B1
:100B2000E9C0CE0166E070E00E94A14E2C01CCEE3F
:100B3000DFEF8C9FB0018D9F700D9C9F700D112475
:100B40006253704080E090E040E050E022E330E00B
:100B50000E948C2A1092D1021092D00280E090E084
:100B600066EF7FEF42E350E028E230E00EEC1FEF4B
:100B7000A0E5EA2EF12C0E940B3B1092D1021092BC
:100B8000D0028DE00E9419476092AE027092AF02CF
:100B90008092B0029092B10260929402709295029B
:100BA000809296029092970281E090E060E070E07F
:100BB00042E850E026E830E00E94542880E090E0CF
:100BC0006AE070E040E050E02EE130E008E210E042
:100BD0000E948C2A85E090E064E170E046EA5FEFD5
:100BE0002EE130E008ED1FEFFCE3EF2EF12C0E9428
:100BF0000B3BD093D102C093D0020E94312584E1F7
:100C000090E066EA7FEF40E050E028E230E002E367
:100C100010E00E94A2358CE390E060E070E040E0DC
:100C200050E022E330E000E010E00E948C2A86E4ED
:100C300090E09093D1028093D00284E190E06AE545
:100C400070E040E050E022E330E00E94A235D09313
:100C5000D102C093D0020894411C511C4C9CB0019D
:100C60004D9C700D5C9C700D112480E090E040E084
:100C700050E02CE330E00E948C2A84E190E066EAA8
:100C80007FEF40E050E022E330E00E94A23581E1B6
:100C900090E060E070E044E150E02DE230E009ECEB
:100CA0001FEF0E9406341092D1021092D00260927F
:100CB000AE027092AF028092B0029092B102609246
:100CC000940270929502809296029092970285E02B
:100CD00090E063EC70E046E050E02DEA30E008E0A0
:100CE00010E0EDE7EE2EF12CBEE1CB2ED12C0E94D0
:100CF0001640DCC080E090E063E87FEF40E050E029
:100D00002CE330E000E010E00E948C2A80E090E0CC
:100D100064E070E040E050E028E13CEFA9E1EA2E19
:100D2000F12CFCE3CF2ED12CAA24BB240E94652CED
:100D300080E090E064EF7FEF46E450E022E330E0B3
:100D400004EC1FEFE0E5EE2EF12C0E940B3B10921D
:100D5000D1021092D0026092AE027092AF028092E5
:100D6000B0029092B10260929402709295028092C9
:100D700096029092970281E090E060E070E042E895
:100D800050E026E830E00E94542880E090E06FE0D8
:100D900070E040E050E02EE130E008E210E00E9418
:100DA0008C2A83E090E06CE170E046EA5FEF29E195
:100DB00030E000E010E00E9406348CE090E061E05A
:100DC00070E04AE050E023E030E000E110E0EE2483
:100DD000FF24B6E4AB2EB12C0E94D0308AE090E024
:100DE00061E070E04CE350E025E030E0AA24BB2451
:100DF0000E94D03084E190E066EA7FEF40E050E06E
:100E00002DE230E000E010E00E94A2358AE590E09B
:100E10009093D1028093D00280E090E064E170E092
:100E20004CEE5FEF28E230E00E94063486E490E06A
:100E30009093D1028093D00280E090E06CE370E068
:100E400040E050E022E330E00E948C2A84E190E010
:100E50006AE570E040E050E028E230E00E94A23510
:100E60008CEE9FEF9093D1028093D00280E090E0CF
:100E700068E270E040E050E022E330E00E948C2A1B
:100E800084E190E066EA7FEF40E050E028E230E065
:100E90000E94A23581E190E060E070E044E150E022
:100EA0002EE130E008ED1FEF0E9406341092D102CF
:100EB0001092D00280E090E0DC018093AE0290932B
:100EC000AF02A093B002B093B102809394029093CA
:100ED0009502A0939602B093970285E090E063ECB0
:100EE00070E046E050E02DEA30E008E010E0ADE7C9
:100EF000EA2EF12CFEE1CF2ED12CEEE1AE2EB12C5C
:100F00000E9416401092D1021092D0020E94312508
:100F1000DF91CF911F910F91FF90EF90DF90CF90D5
:100F2000BF90AF909F908F907F906F905F904F9009
:100F300008952F923F924F925F926F927F928F927D
:100F40009F92AF92BF92CF92DF92EF92FF920F9358
:100F50001F93DF93CF9300D000D0CDB7DEB79C8333
:100F60008B830F2EF0E06F2EF0E07F2EF0E08F2EBF
:100F7000F0E09F2EF02D6092AE027092AF02809250
:100F8000B0029092B10260929402709295028092A7
:100F900096029092970285E090E063EC70E046E064
:100FA00050E02DEA30E008E010E0EDE7EE2EF12C05
:100FB000BEE1CB2ED12CA4E1AA2EB12C0E9416406A
:100FC0001092D1021092D0020E9431256092AE029E
:100FD0007092AF028092B0029092B102609294023D
:100FE00070929502809296029092970285E090E02E
:100FF00063EC70E046E050E02DEA30E00E941640DD
:101000001092D1021092D0020E9431258B819C81D6
:101010006BEF7FEF0E94A14E23E230E0629F200140
:10102000639F500C729F500C11248CE890E0480E86
:10103000591EEB81FC81E430F10551F0E930F105F6
:1010400039F0EE30F10521F0E331F10509F09FC0F0
:101050008CE090E068E070E045E050E023E030E0B4
:1010600000E110E0EE24FF24F2E3CF2ED12CECE3DC
:10107000AE2EB12C0E94D030A2014D5F5F4F8AE0AE
:1010800090E068E070E025E030E0AA24BB240E94F4
:10109000D0308CE090E06AE570E040E050E02DE276
:1010A00030E009EC1FEF0E94A23580E090E061EF94
:1010B0007FEF40E050E029E130E009E110E00E94DC
:1010C0008C2A8BEF9FEF6AE570E04AE050E029E15F
:1010D00030E000E010E00E94A23580EB9FEF90939B
:1010E000D1028093D0028BEF9FEF66EA7FEF4AE058
:1010F00050E029E130E00E94A23584E190E0909335
:10110000D1028093D0028CE090E065E070E04BEF7C
:101110005FEF23E030E00EE010E0B3E2CB2ED12C05
:101120000E94D030C20183978A3191052CF049E1A9
:1011300050E0481B590B02C040E050E08AE090E0CC
:1011400065E070E025E030E00EE010E0EE24FF24E2
:10115000A8E2CA2ED12CAA24BB240E94D0308CEF46
:101160009FEF65E070E048E15CEF25E030E0F9E1F9
:10117000EF2EF12C0E94D03080E090E066EF7FEF00
:101180004CEE5FEF28E230E00EEC1FEF58C18B8190
:101190009C8165E070E00E94A14E1C018DED9FEFE7
:1011A000289E9001299E300D389E300D11243A83DF
:1011B00029838B819C818430910508F0A7C18CE044
:1011C00090E068E070E04AE050E023E030E002E1C7
:1011D00010E0EE24FF24ECE3CE2ED12CB6E4AB2EAF
:1011E000B12C0E94D0308AE090E068E070E042E8E4
:1011F00050E025E030E0AA24BB240E94D0308DEFDF
:101200009FEF68E270E04AE550E022E330E004EC52
:101210001FEF0E9406346092AE027092AF0280927D
:10122000B0029092B1026092940270929502809204
:101230009602909297028AE590E09093D102809373
:10124000D00286E090E060E970E044E050E028EBF6
:1012500030E005E010E0A7EAEA2EF12CF2E3CF2E11
:10126000D12CEEE1AE2EB12C0E9416401092D1028C
:101270001092D00293E02916310421F012E3612E7E
:10128000712C03C0BEE16B2E712C49805A80ECE8B2
:10129000F0E04E0E5F1EAAE0AA2EB12CA60CB71CE1
:1012A0008CE090E068E070E04AE050E023E030E05D
:1012B00002E110E0EE24FF2463010E94D030A2017D
:1012C0004E5150408AE090E068E070E025E030E068
:1012D000AA24BB240E94D03093012A50304000271A
:1012E00011270619170985E090E06AE570E040E0F3
:1012F00050E00E94A2352B813C812330310509F05A
:10130000A8C03AE1431651042CF069E170E0641979
:10131000750902C060E070E080E090E040E050E0DD
:1013200028E230E002E310E00E948C2AFAE56F2EFA
:10133000712C7092D1026092D00280E090E060E067
:1013400070E044E050E028EB30E005E010E0E7EA30
:10135000EE2EF12CB2E3CB2ED12CAA24BB240E947A
:10136000164080E090E0DC018093AE029093AF02E3
:10137000A093B002B093B10280939402909395022F
:10138000A0939602B09397027092D1026092D0021D
:1013900086E090E060E970E044E050E028EB30E067
:1013A000AEE1AA2EB12C0E9416401092D1021092EA
:1013B000D00282EE9FEF61E070E04AEB5FEF2DE23A
:1013C00030E007E310E00E94063484E190E090935F
:1013D000D1028093D0028CE090E065E070E04BEFAA
:1013E0005FEF23E030E00EE010E0EE24FF24FCE3AA
:1013F000CF2ED12CAA24BB240E94D0308AE090E0CA
:1014000065E070E04EE75FEF23E030E00E94D0300F
:1014100084E090E065E070E048E15CEF25E030E0DA
:10142000E9E1EE2EF12C0E94D03080E090E06BEFED
:101430007FEF4CEE5FEF2CE330E00AEB1FEFBEE1F5
:10144000EB2EF12C0E940B3B1092D1021092D00295
:1014500062C280E090E061EF7FEF40E050E022E385
:1014600030E00CE310E00E948C2A89819A81855932
:101470009F4F909581959F4F66EA7FEF42EE5FEF19
:1014800022E330E000E010E00E94A2358CE390E01F
:101490009093D1028093D0028CE090E064E070E001
:1014A0004BEF5FEF23E030E00EE010E0EE24FF248E
:1014B000A2E3CA2ED12CAA24BB240E94D030498199
:1014C0005A81445150408AE090E064E070E025E0A9
:1014D00030E00E94D0308DEF9FEF64E070E048E193
:1014E0005CEF25E030E0F9E1EF2EF12C0E94D030E6
:1014F00080E090E066EF7FEF44EC5FEF22E330E0C6
:1015000004EC1FEFECE3EE2EF12C9CCF8B819C8141
:10151000843191050CF4C5C08831910509F4C1C02E
:101520008DEF9FEF6CE270E04AE550E028E230E09A
:1015300006E910E00E9406346092AE027092AF029B
:101540008092B0029092B1026092940270929502E1
:1015500080929602909297021AE5412E512C509259
:10156000D1024092D00280E090E060E070E044E080
:1015700050E028EB30E005E010E0B7EAEB2EF12C6C
:10158000A2E3CA2ED12CAA24BB240E94164010929A
:10159000D1021092D0020E942B026092AE02709291
:1015A000AF028092B0029092B10260929402709267
:1015B000950280929602909297025092D1024092A8
:1015C000D00280E090E060E070E044E050E028EB82
:1015D00030E00E9416401092D1021092D002498150
:1015E0005A8142585F4F8AE090E060E070E022E369
:1015F00030E000EA10E00E942444E3E2F0E02E9E96
:10160000B0012F9E700D3E9E700D112468577040E2
:1016100080E090E040E050E028E230E002E310E0BB
:101620000E948C2A5092D1024092D00280E090E039
:1016300060E070E044E050E028EB30E005E010E0CE
:101640000E9416406092AE027092AF028092B00289
:101650009092B102609294027092950280929602EA
:10166000909297025092D1024092D00280E090E096
:1016700060E070E044E050E028EB30E00E9416406B
:101680001092D1021092D00289ED9FEF62E070E0DB
:1016900046EA5FEF2EE130E00CE810E00E940634ED
:1016A0003AC12114310409F016C180E69FEF62E0CF
:1016B00070E040E050E02CE330E00AEA10E00E94E5
:1016C0008C2A80E090E0DC018093AE029093AF0220
:1016D000A093B002B093B1028093940290939502CC
:1016E000A0939602B093970284E090E06CEB70E0D8
:1016F00041E050E025EA30E003E010E0FEE9EF2EA3
:10170000F12CEEE1CE2ED12CBEE1AB2EB12C0E94FD
:1017100016401092D1021092D0028CE090E061E06D
:1017200070E045E050E023E030E00CE010E0EE2413
:10173000FF24A2E3CA2ED12CFCE3AF2EB12C0E94D1
:10174000D030A2014F5F5F4F8AE090E061E070E02F
:1017500025E030E0AA24BB240E94D0308CE090E049
:1017600066EA7FEF40E050E02DE230E009EC1FEF49
:101770000E94A23580E090E061EF7FEF40E050E012
:1017800029E130E009E110E00E948C2A8BEF9FEF05
:1017900066EA7FEF46EF5FEF29E130E000E010E01E
:1017A0000E94A23580E590E09093D1028093D00210
:1017B0008BEF9FEF6AE570E046EF5FEF29E130E0E5
:1017C0000E94A2358CEE9FEF9093D1028093D002BD
:1017D0008CE090E064E070E04BEF5FEF23E030E0FE
:1017E00000E110E0E3E2CE2ED12C0E94D030C20105
:1017F00083978A3191052CF049E150E0481B590B41
:1018000002C040E050E08AE090E064E070E025E053
:1018100030E000E110E0EE24FF24B8E2CB2ED12C22
:10182000AA24BB240E94D0308BEF9FEF64E070E0CD
:1018300048E15CEF25E030E0A9E1EA2EF12C0E94BE
:10184000D03080E090E066EF7FEF44E150E028E2A6
:1018500030E00EEC1FEFFEE1EF2EF12C0E940B3B6F
:101860001092D1021092D00280E090E0DC018093CF
:10187000AE029093AF02A093B002B093B1028093F6
:10188000940290939502A0939602B093970284E0FD
:1018900090E06CEB70E041E050E025EA30E003E0DE
:1018A00010E0EEE9EE2EF12CBEE1CB2ED12CAEE114
:1018B000AA2EB12C0E9416401092D1021092D00292
:1018C00080EA90E062E070E040E050E02CE330E03D
:1018D0000AEA10E01EC086EF9FEF65E170E040E08D
:1018E00050E02EE130E00CE810E00E948C2A80E00D
:1018F00090E06BEE7FEF40E050E02EE130E00E94A0
:101900008C2A8AE090E060E070E040E050E02EE158
:1019100030E00E948C2A0E94312580E090E0DC01BA
:101920008093AE029093AF02A093B002B093B10245
:101930008093940290939502A0939602B09397029D
:1019400085E090E063EC70E046E050E02DEA30E0A6
:1019500008E010E0FDE7EF2EF12CEEE1CE2ED12CC9
:10196000B4E1AB2EB12C0E9416401092D10210921D
:10197000D0020E9431250F900F900F900F90CF91C1
:10198000DF911F910F91FF90EF90DF90CF90BF906C
:10199000AF909F908F907F906F905F904F903F900F
:1019A0002F90089540917A0250917B02A2E7B2E015
:1019B00020E030E00DC0ED91FD91EE0FFF1FE80F2C
:1019C000F91F608171816115710541F42F5F3F4FEF
:1019D0002417350784F321E030E002C020E030E036
:1019E000C90108952F923F924F925F926F927F921A
:1019F0008F929F92AF92BF92CF92DF92EF92FF921F
:101A00000F931F93CF93DF936B014A01C5E0D0E0A2
:101A1000BE010E94A14E8B019C01B901882777FD70
:101A20008095982F0E943F492B013C01B8018827DF
:101A300077FD8095982F0E943F497B018C01C6015C
:101A4000BE010E94A14E1B019C01B901882777FDB0
:101A50008095982F0E943F49A30192010E9425483A
:101A60005B016C01C401BE010E94A14EEC018827FC
:101A700077FD8095982F0E943F49A80197010E9409
:101A800025489B01AC01C601B5010E94034B5B01D7
:101A90006C01B101882777FD8095982F0E943F49FE
:101AA000A80197010E9425487B018C01BE0188276F
:101AB00077FD8095982F0E943F49A30192010E94D3
:101AC00025489B01AC01C801B7010E94034B9B0153
:101AD000AC01C601B5010E9425480E940C49CB010A
:101AE000DF91CF911F910F91FF90EF90DF90CF90FA
:101AF000BF90AF909F908F907F906F905F904F902E
:101B00003F902F9008956F927F928F929F92AF9205
:101B1000BF92CF92DF92EF92FF920F931F93DF93CA
:101B2000CF9300D000D000D0CDB7DEB74C017B0101
:101B30006B015E010894A11CB11C00E010E0E3E021
:101B40006E2E712C0F5F1F4FC801B3010E94A14E72
:101B5000880F991F8E0D9F1DFC0160817181F60118
:101B6000819191916F01A4010E94F20CF501819382
:101B700091935F01009781F00330110519F72C81D3
:101B80008A81822787FD08C08E8120952827221F01
:101B90002227221F30E002C020E030E0C901269653
:101BA0000FB6F894DEBF0FBECDBFCF91DF911F916E
:101BB0000F91FF90EF90DF90CF90BF90AF909F90EC
:101BC0008F907F906F9008952F923F924F925F92E7
:101BD0006F927F928F929F92AF92BF92CF92DF923D
:101BE000EF92FF920F931F93DF93CF93CDB7DEB7A2
:101BF0002E970FB6F894DEBF0FBECDBFE82E092F8B
:101C00004B013A0180916A0290916B020196909388
:101C10006B0280936A0223E0893E92078CF08091E8
:101C20008002909181028130910519F481E090E069
:101C300002C082E090E09093810280938002F7C21C
:101C4000C0907E02D0907F02C416D5060CF4EFC27D
:101C500061157105D1F483E991E00E94D20C0097DF
:101C6000A1F081E090E090938102809380027092D5
:101C70007F0260927E02AEE4B3E0ECEFF2E08EE130
:101C800001900D928150E1F7D2C26C147D04ACF545
:101C900033E0831691048CF54E2C502EA301440F93
:101CA000551F460D571D5A8349831A01280C391CAC
:101CB000220C331C8CEF92E0280E391ED4011196B1
:101CC000BE87AD87CA01880F991FFC01E450FD4F04
:101CD000F887EF839C0124593C4F3C832B832E5F74
:101CE0003F4F3A8729874B815C814C5F5F4F5C8710
:101CF0004B873296FE83ED83A6C1ACEFB2E080E065
:101D000090E08301000F111FF801E60DF71DEE0FA3
:101D1000FF1FEA0FFB1F9F012E5F3F4FBF016C5F4C
:101D20007F4F7F016901A2C1F201EE0FFF1FE45254
:101D3000FD4F0190F081E02DD1011196FC93EE93BF
:101D40008114910409F05BC0C0907A02D0907B02AC
:101D500002E712E020E030E080E090E0BF0118C030
:101D6000F801E190F1908F01D901AA0FBB1FAD5688
:101D7000BE4FF701EE0FFF1FED56FE4F0D90BC91C9
:101D8000A02D40815181A417B5070CF4970101964D
:101D90008C159D052CF3FB012093D8023093D902BA
:101DA000C20165E070E00E94A14E8B01C90165E0AF
:101DB00070E00E94A14E0617170709F43EC12115D5
:101DC000310509F434C280914C0390914D031816EB
:101DD00019064CF4EF30F1050CF029C2E217F307B5
:101DE0000CF420C124C2009709F41CC1EA30F105AB
:101DF0000CF41DC22E173F070CF414C118C2F1E0F9
:101E00008F16910409F08DC02091D8023091D9022B
:101E1000C90165E070E00E94A14E7C01AF81B885E8
:101E20000D911C911197C80165E070E00E94A14ED0
:101E30006C01E816F90661F4ED81FE8180819181E3
:101E400065E070E00E94A14EE816F90609F4F5C0BD
:101E5000C90165E070E00E94A14EFB01C80165E088
:101E600070E00E94A14E8B01E617F70769F4AD817F
:101E7000BE818D919C91119765E070E00E94A14E0A
:101E8000E617F70709F4D9C09F012E0D3F1D37FF54
:101E900003C0309521953F4FC8018C0D9D1D97FFC4
:101EA00003C0909581959F4F28173907A1F4AD8104
:101EB000BE818D919C91119765E070E00E94A14ECA
:101EC000860F971F97FF03C0909581959F4F281706
:101ED000390709F4B2C0EE19FF09F7FF03C0F09506
:101EE000E195FF4F0C191D0917FF03C010950195CF
:101EF0001F4FE017F10709F095C0ED81FE81808149
:101F0000918165E070E00E94A14E681B790B77FF1C
:101F100003C0709561957F4F2617370709F082C07F
:101F20008CC0F2E08F16910409F07CC0ACE6B3E0FF
:101F3000E8E11D92EA95E9F7CF80D884AB80BC80B8
:101F4000E0E0F0E0D6010D911D916D0131968D918B
:101F50009C9111976BEF7FEF0E94A14E9B01C801EE
:101F600065E070E00E94A14E260F371F37FF03C0C7
:101F7000309521953F4FD501ED90FC90E20EF31E78
:101F8000C80165E070E00E94A14E9C01CF0163E0B2
:101F900070E00E94A14E49815A81840F951F880FDD
:101FA000991F84509D4FDC018D919C91119765E0A4
:101FB00070E00E94A14E281B390B37FF03C03095FB
:101FC00021953F4F2E0D3F1DD5012D933D935D0172
:101FD000E330F10509F0B6CFEB81FC81208131813E
:101FE0002130310579F0A985BA858D919C911197A1
:101FF0008130910539F0EB85FC85808191818130BC
:10200000910581F4A985BA858D919C911197820FD4
:10201000931FEB85FC8520813181820F931F8C30CB
:1020200091055CF080914C0390914D03840D951DBA
:102030006D857E85A3010E94E40D80914C039091F3
:102040004D03480E591EF0E14F16510408F46CCEB2
:10205000EEC0FB014081518114962D913C91159762
:102060004217530709F4E3C00196169686159705A3
:10207000A4F4F701408151812D913C9111974217B1
:10208000530791F7F6014081518112962D913C91B1
:10209000139742175307E9F2E7CF10926F0210929D
:1020A0006E021092710210927002060D171D000F41
:1020B000111F04501D4F8091D8029091D902B80190
:1020C0000E94830D009709F4B2C040917A025091AA
:1020D0007B0280E090E072E7A72E72E0B72ED50178
:1020E00020E030E00EC0ED91FD91EE0FFF1FED56A8
:1020F000FE4F608171816115710509F001962F5FB6
:102100003F4F241735077CF390936F0280936E0244
:10211000EE24FF2451C0D4014D905D904D01C201C9
:10212000B8010E94830D0097D9F0F201EE0FFF1F56
:10213000ED56FE4F208131812115310509F477C01C
:102140008091700290917102019690937102809338
:102150007002E114F10421F02150304031832083DA
:102160000894C11CD11C80917A0290917B02C81600
:10217000D9068CF2209170023091710280916E022A
:1021800090916F028430910554F441E050E0813029
:10219000910511F440E050E0841B950B02C083E0F0
:1021A00090E0281739070CF442C00894E11CF11C98
:1021B000B2E0EB16F10439F0B2E78B2EB2E09B2EC1
:1021C000CC24DD24D0CF80914C0390914D03181680
:1021D00019061CF480E090E002C08FE090E0A301BB
:1021E0004F5F5F4F60E070E00E94E40DEE24FF243B
:1021F00017C0F501C190D1905F01C601B8010E94DE
:10220000830D009751F0F601EE0FFF1FED56FE4FC4
:10221000808191810196918380830894E11CF11C57
:1022200080917A0290917B02E816F90614F32E96BB
:102230000FB6F894DEBF0FBECDBFCF91DF911F91D7
:102240000F91FF90EF90DF90CF90BF90AF909F9055
:102250008F907F906F905F904F903F902F90089558
:10226000EF92FF920F931F93DF93CF93CDB7DEB71B
:10227000E2970FB6F894DEBF0FBECDBFAC01485D4C
:102280005F4F20E030E07E010894E11CF11C12C099
:102290000D911C911197019311936F5F7F4F1A97C6
:1022A00065307105A9F72B5F3F4F4E5F5F4F2931B6
:1022B000310549F0F901EE0FFF1FEE0DFF1DDA01A8
:1022C00060E070E0E5CFDC01FE01319682E3019031
:1022D0000D928150E1F7E2960FB6F894DEBF0FBE83
:1022E000CDBFCF91DF911F910F91FF90EF90089597
:1022F0000F931F93CF93DF93AC01FB0120E030E0FD
:10230000C5E0D0E00BEF1FEF12C0CA01BE010E9472
:10231000A14EAB01809FB001819F700D909F700D09
:1023200011244C5E5F4F460F571F2F5F3F4F2E17F4
:102330003F075CF3CA01DF91CF911F910F91089580
:10234000EF92FF920F931F93CF93DF937C018B014A
:102350000E943125C3E0D0E080E062E10E94FB46AC
:102360008823D1F30E94754580E063E10E94FB461B
:102370008823D1F380E090E0FC01EE0FFF1F9C0169
:1023800063E0220F331F6A95E1F7E20FF31FE15577
:10239000FC4F2081318121153105C9F12081318126
:1023A00024303105A4F5228133812E193F0937FFEE
:1023B00003C0309521953F4F2E31310544F5FC0186
:1023C000EE0FFF1F9C0143E0220F331F4A95E1F7F8
:1023D000E20FF31FE155FC4F24813581201B310BA7
:1023E00037FF03C0309521953F4F2E3131057CF4E6
:1023F000FC01EE0FFF1F03E0880F991F0A95E1F71C
:10240000E80FF91FE155FC4F208131810AC0019688
:102410008930910509F0B0CF219709F09DCF20E0D8
:1024200030E0C901DF91CF911F910F91FF90EF90A4
:1024300008952F923F924F925F926F927F928F9268
:102440009F92AF92BF92CF92DF92EF92FF920F9343
:102450001F93DF93CF9300D0CDB7DEB70E94E70084
:102460008EE161E00E94B1008EE165E00E94B10062
:102470008EE164E10E94B1008EE160E10E94B10052
:102480000E94E1468BE00E94194780E50E94732577
:1024900080E063E10E94FB468823D1F30FEF1FE742
:1024A00026E1015010402040E1F700C0000080E02C
:1024B00090E0DC0180938C0390938D03A0938E03B6
:1024C000B0938F0320918C0330918D0340918E0344
:1024D00050918F03209388033093890340938A039C
:1024E00050938B03209188033091890340918A0394
:1024F00050918B032093840330938503409386038C
:10250000509387038093980390939903A0939A0321
:10251000B0939B038091980390919903A0919A03A3
:10252000B0919B038093940390939503A09396039B
:10253000B0939703C39A2FEF3FE744E02150304018
:102540004040E1F700C00000C39811E0412E512C3B
:10255000B0E02B2EB1E03B2EB4991BC080916802F5
:10256000909169020197909369028093680246E610
:1025700056E263E0415050406040E1F7C39A6FEF8C
:102580007FE784E0615070408040E1F700C00000C8
:10259000C398B6991BC08091680290916902019618
:1025A000909369028093680286E696E2A3E08150E8
:1025B0009040A040E1F7C39A0FEF1FE724E00150DD
:1025C00010402040E1F700C00000C398B5996BC4EB
:1025D0000E94D80180916802909169028230910531
:1025E00009F488C0833091051CF497FF0AC05BC4CE
:1025F0008330910509F46FC38530910509F053C408
:102600004BC280E090E0DC018093AE029093AF0279
:10261000A093B002B093B10280939402909395027C
:10262000A0939602B09397028AE590E09093D1022E
:102630008093D00280E090E060E070E044E050E001
:1026400028EB30E005E010E0A7EAEA2EF12CF2E3F7
:10265000CF2ED12CAA24BB240E9416401092D10266
:102660001092D00280E090E062E370E04EE150E032
:102670002CE330E006E410E00E9406348EE190E0A6
:102680009093D1028093D00280E090E061E670E008
:1026900040E050E02CE330E000E010E00E948C2AA3
:1026A0008EE190E06AE570E04AE050E027E330E038
:1026B0000E94A23588E290E09093D1028093D002EC
:1026C00081EF9FEF60E070E040E050E02CE330E00D
:1026D0000E948C2A81ED9FEF60E070E048ED5FEF93
:1026E00022E330E004EC1FEF0E9406341092D10286
:1026F0001092D00280E090E0DC018093AE029093D3
:10270000AF02A093B002B093B10280939402909371
:102710009502A0939602B093970284E090E06CEB50
:1027200070E041E050E025EA30E003E010E0EEE93F
:10273000EE2EF12CBEE1CB2ED12CA4E1AA2EB12C91
:102740000E9416401092D1021092D00280E090E0D8
:1027500065E070E040E050E022E330E00CE310E0A0
:102760000E948C2A8CE190E066EA7FEF40E050E026
:102770002DE230E000E010E00E94A23580E090E021
:1027800068EE73E040E050E020E030E008E210E066
:10279000EE24FF240E944F2E85E090E060E070E080
:1027A00040E050E028E230E00EEC1FEF0E948C2A5F
:1027B00080E090E068E17CEF40E050E020E030E035
:1027C00004E110E0F2E8EF2EF12C0E944F2E87E991
:1027D00090E066EA70E00E94A0119093B4018093AB
:1027E000B30180E090E060E070E04FE050E02EE167
:1027F00030E00CE810E00E9424448DE890E06FE5A2
:1028000070E00E94A0119093AA018093A90186E82C
:1028100090E062E170E00E94A0119093A00180938B
:102820009F0181EF9FEF6AE570E040E050E02EE10C
:1028300030E008E210E00E94A23580E090E068EE0F
:1028400073E040E050E020E030E0EE24FF240E94FE
:102850004F2E85E090E060E070E040E050E028E23C
:1028600030E00EEC1FEF0E948C2A80E090E068E1DF
:102870007CEF40E050E020E030E004E110E0E2E8EE
:10288000EE2EF12C0E944F2E87E990E066EA70E070
:102890000E94A0119093B6018093B50180E090E072
:1028A00060E070E04FE050E02EE130E00CE810E036
:1028B0000E9424448DE890E06FE570E00E94A01132
:1028C0009093AC018093AB0186E890E062E170E008
:1028D0000E94A0119093A2018093A10181EF9FEF2C
:1028E0006AE570E040E050E02EE130E008E210E000
:1028F0000E94A23580E090E068EE73E040E050E096
:1029000020E030E0EE24FF240E944F2E85E090E08E
:1029100060E070E040E050E028E230E00EEC1FEFB5
:102920000E948C2A80E090E068E17CEF40E050E07B
:1029300020E030E004E110E0B2E8EB2EF12C0E9440
:102940004F2E87E990E066EA70E00E94A011909314
:10295000B8018093B70180E090E060E070E04FE064
:1029600050E02EE130E00CE810E00E9424448DE8B5
:1029700090E06FE570E00E94A0119093AE0180930B
:10298000AD0186E890E062E170E00E94A0119093B2
:10299000A4018093A3010FE911E0EE24FF242DB7D9
:1029A0003EB72A5030400FB6F8943EBF0FBE2DBF41
:1029B000EDB7FEB73196A7E38A2EA4E09A2EADB705
:1029C000BEB712969C928E92119733822282D801C2
:1029D0008D919C9111979583848312968D919C91F2
:1029E00013979783868314968D919C911597918761
:1029F00080870E94F547EDB7FEB73A960FB6F89478
:102A0000FEBF0FBEEDBF8E2D60E0A4010E946701E6
:102A10000894E11CF11C065F1F4FF3E0EF16F10470
:102A200009F0BDCF88E290E063ED7FEF40E050E039
:102A300022E330E000EA10E00E948C2A80E090E07F
:102A4000DC018093AE029093AF02A093B002B093EA
:102A5000B1028093940290939502A0939602B09352
:102A6000970285E090E063EC70E046E050E02DEAEC
:102A700030E008E010E0FDE7EF2EF12CEEE1CE2E85
:102A8000D12CB4E1AB2EB12C0E9416401092D10291
:102A90001092D0020E943125CC24DD2466246A9451
:102AA000762CD0926D02C0926C021092810210922C
:102AB000800200E010E0A090DA02B090DB0223E98F
:102AC00031E03A832983EE24FF2420E030E0A9811D
:102AD000BA818D909D90BA83A9838114910451F09D
:102AE000F701EE0FFF1FEE58FD4F3183208308944E
:102AF000E11CF11CC90104968930910578F0C901E7
:102B000044978530910550F0C90165E070E00E945E
:102B1000A14E009719F08430910561F4F801EE0F91
:102B2000FF1FE452FD4F318320830F5F1F4F21159C
:102B3000310551F0F501EE0FFF1FED56FE4F80817C
:102B40009181881599050CF459012F5F3F4F293168
:102B5000310509F0BCCF10937D0200937C02F09206
:102B60007B02E0927A02A092DA02B092DB02F501D7
:102B7000EE0FFF1FED56FE4F8081918101969093DD
:102B80007F0280937E0210926B0210926A02709212
:102B90004D0360924C038FE090E060E070E040E015
:102BA00050E00E94E40D809180029091810281307A
:102BB000910529F110926B0210926A02E1E0F0E0B7
:102BC000F0934D03E0934C0380E090E060E070E010
:102BD00040E050E00E94E40D8091800290918102DB
:102BE0008130910561F083E991E00E9430110894F1
:102BF000C11CD11CF4E0CF16D10409F052CFC39A06
:102C00000FEF1FE724E0015010402040E1F700C023
:102C10000000C3980E94D80100D000D000D0EDB7CA
:102C2000FEB7319647E3842E44E0942EADB7BEB78D
:102C300012969C928E92119709E011E01383028301
:102C40008091800290918102958384830E94F54750
:102C50002DB73EB72A5F3F4F0FB6F8943EBF0FBE69
:102C60002DBF81E061E0A4010E94670100D000D087
:102C700000D0EDB7FEB73196ADB7BEB712969C92B5
:102C80008E92119733E1832E31E0932E93828282CC
:102C900080917E0290917F02958384830E94F54704
:102CA0000DB71EB70A5F1F4F0FB6F8941EBF0FBEB9
:102CB0000DBF83E060E047E354E00E94670180912C
:102CC000680290916902009731F00E943125B59B0E
:102CD000FECFB599FECF00917E0210917F022AE1CE
:102CE000C22E23E0D22ED60180E090E031C01196B2
:102CF0005C924E922F5F3F4F6A5F7F4F20173107E4
:102D00000CF5F901EE0FFF1FE20FF31FEE0FFF1F8F
:102D1000E25BFC4F808191814817590719F41196A5
:102D20005C924E92FB01808191814817590719F4FA
:102D300011965C924E92FB0182819381481759074C
:102D4000C9F6D5CFCA01019612968931910531F0A5
:102D500060E573E020E030E0AC01D0CF80E090E0AF
:102D6000EE24FF24D6012D913D916D0121153105F1
:102D700049F08C010F5F1F4F0E942103C7010E9481
:102D80009907C8010894E11CF11CB9E1EB16F104A4
:102D900049F70E948902C39A0FEF1FEF29E50150FE
:102DA00010402040E1F700C00000C3980E94D80105
:102DB00000D000D000D0EDB7FEB7319697E3892E52
:102DC00094E0992EADB7BEB712969C928E92119751
:102DD0000BE111E01383028380917E0290917F02C8
:102DE000958384830E94F5472DB73EB72A5F3F4FF6
:102DF0000FB6F8943EBF0FBE2DBF80E06FE0A40178
:102E00000E9467010EE413E0EE24FF243EC04DB79C
:102E10005EB74A5050400FB6F8945EBF0FBE4DBF2C
:102E2000EDB7FEB7319687E3882E84E0982EADB7D4
:102E3000BEB712969C928E92119733822282D8014D
:102E40008D919C9111979583848312968D919C917D
:102E500013979783868314968D919C9115979187EC
:102E600080870E94F547EDB7FEB73A960FB6F89403
:102E7000FEBF0FBEEDBF8E2D60E0A4010E94670172
:102E80000894E11CF11C0A5F1F4F80917E02909113
:102E90007F02E816F9060CF4BACF0E943125B599E5
:102EA000FECFB59BFECF809168029091690200979A
:102EB00009F447C04091A00230919F0220919E02E8
:102EC0009091A6028091A5020DB71EB70E5010403A
:102ED0000FB6F8941EBF0FBE0DBFEDB7FEB731960B
:102EE00007E3802E04E0902EADB7BEB712969C92F9
:102EF0008E92119702E211E01383028344831582BC
:102F000036831782208711869287138684871586D9
:102F10000E94F5472DB73EB7225F3F4F0FB6F8949A
:102F20003EBF0FBE2DBF80E060E0A4010E9467019C
:102F30003091A1022091A2029091A3028091A4025B
:102F400046C04091B4023091B3022091B2029091F8
:102F5000BA028091B9026DB77EB76E5070400FB65D
:102F6000F8947EBF0FBE6DBFEDB7FEB7319617E385
:102F7000812E14E0912EADB7BEB712969C928E9220
:102F8000119702E211E01383028344831582368392
:102F900017822087118692871386848715860E9460
:102FA000F5472DB73EB7225F3F4F0FB6F8943EBFAF
:102FB0000FBE2DBF80E060E0A4010E946701309148
:102FC000B5022091B6029091B7028091B8024DB738
:102FD0005EB74C5050400FB6F8945EBF0FBE4DBF69
:102FE000EDB7FEB73196ADB7BEB712969C928E92F2
:102FF0001197BBE38B2EB1E09B2E938282823483A8
:1030000015822683178290871186828713860E94F5
:10301000F5470DB71EB7045F1F4F0FB6F8941EBFDC
:103020000FBE0DBF81E060E047E354E00E946701FE
:10303000809168029091690297FF03C090958195F5
:103040009F4F69E070E00E94A14E9093D702809359
:10305000D6020E94D91C8091D60266E60E94FB46E9
:10306000C82E8091D60267E60E94FB46E82E0091AA
:10307000D602A090D702802F68E60E94FB462DB7AB
:103080003EB72C5030400FB6F8943EBF0FBE2DBF58
:10309000EDB7FEB73196A7E38A2EA4E09A2EADB71E
:1030A000BEB712969C928E92119724E531E033833D
:1030B00022830483A582C6821782E08611868287D6
:1030C00013860E94F5474DB75EB7445F5F4F0FB65A
:1030D000F8945EBF0FBE4DBF82E060E0A4010E9485
:1030E00067012091A5033091A6034091A703509159
:1030F000A8036090A3037090A403A0915D04B09115
:103100005E04E0903104F0903204C090AD03D090A2
:10311000AE03A090A103B090A203609194037091BC
:1031200095038091960390919703EDB7FEB774973E
:103130000FB6F894FEBF0FBEEDBF0DB71EB70F5F01
:103140001F4F92828182E7E68E2EE1E09E2EF801EB
:103150009382828235832483578346837186608677
:10316000B387A287F586E486D786C686B18AA08A09
:103170000E940C49D80153967C936E9352970E94FB
:10318000F547EDB7FEB774960FB6F894FEBF0FBEC5
:10319000EDBF83E060E047E354E00E94670100D0A8
:1031A00000D000D0EDB7FEB73196A7E38A2EA4E099
:1031B0009A2EADB7BEB712969C928E9211970DE7DC
:1031C00011E01383028380916802909169029583D4
:1031D00084830E94F5472DB73EB72A5F3F4F0FB655
:1031E000F8943EBF0FBE2DBF83E060E1A4010E94B2
:1031F0006701B2C9CF92DF92EF92FF920F931F93B4
:10320000CF93DF930E94D801C3E9D1E000E010E042
:1032100097E3E92E94E0F92E84E8C82E81E0D82EB9
:103220008DB79EB70E970FB6F8949EBF0FBE8DBF99
:10323000EDB7FEB73196ADB7BEB71296FC92EE92DF
:103240001197D382C28288819981958384838A81F0
:103250009B81978386838C819D81918780878E81D6
:103260009F819387828788859985958784870E9427
:10327000F5478DB79EB70E960FB6F8949EBF0FBE5A
:103280008DBF802F60E0A7010E9467010F5F1F4F75
:103290002A960430110521F6809168029091690206
:1032A000009731F00E943125B59BFECFB599FECF36
:1032B000DF91CF911F910F91FF90EF90DF90CF9012
:1032C000089590E0FC01B096FE2FEE272081209318
:1032D0009C0320FDFBCF8896B82FAA278C91908164
:1032E00090939C0390FDFBCF089590E08096F82F7B
:1032F000EE27808180939C0380FDFBCF60838081DB
:1033000080939C0380FDFBCF089580E061E00E94E4
:10331000751982E061E00E94751981E061E00E9408
:1033200075190895A82FB0E0FD01B096FE2FEE2785
:10333000808180939C0380FDFBCF9896BA2FAA27AB
:10334000872F992787FD9A958C93808180939C0382
:1033500080FDFBCF6C93808180939C0380FDFBCF2D
:1033600008951F93CF93DF93182F80E06FE10E94A1
:103370007519C1E0D0E002C0CC0FDD1F1A95E2F74D
:1033800080E0BE010E94921981E06FE10E947519F0
:1033900081E0BE010E94921982E06FE10E947519DE
:1033A00082E0BE010E94921980E061E00E947519DE
:1033B00082E061E00E94751981E061E00E94751968
:1033C000DF91CF911F910895DF92EF92FF920F93BB
:1033D0001F93D82E7A018B019B01552737FD5095FD
:1033E000452FB9010E9492198D2DB7010E949219A3
:1033F0001F910F91FF90EF90DF9008951F93182F6A
:1034000060E00E9475198CEC9CE10197F1F700C017
:103410000000812F6DE10E947519812F60E070E03E
:103420000E9492191F910895AF92BF92CF92DF929E
:10343000EF92FF920F931F93CF93DF93F82E6B01C0
:10344000EA018901AA24A3946115710509F4AA244B
:10345000BB24B394209709F4BB24EE24E394011514
:10346000110509F4EE248F2D6EE10E9475196B2D64
:1034700070E0660F771F660F771F8A2D90E043E09C
:10348000880F991F4A95E1F7682B792B8E2D90E0D4
:10349000880F991F682B792B8F2D0E949219AA20D3
:1034A00021F08F2DB6010E949219BB2021F08F2DA3
:1034B000BE010E949219EE2021F08F2DB8010E94CA
:1034C00092198F2D64E00E947519DF91CF911F91A1
:1034D0000F91FF90EF90DF90CF90BF90AF90089545
:1034E0008F929F92AF92BF92CF92DF92EF92FF9214
:1034F0000F931F93CF93DF93F82E4B016A01E901DD
:10350000AA24A3946115710509F4AA24BB24B394D9
:10351000C114D10409F4BB24EE24E394209709F4E8
:10352000EE248F2D6EE10E9475196A2D70E0A3E0E4
:10353000660F771FAA95E1F761608B2D90E0880FE9
:10354000991F880F991F682B792B8E2D90E0880F7B
:10355000991F682B792B8F2D0E949219AA2021F098
:103560008F2DB4010E949219BB2021F08F2DB6013E
:103570000E949219EE2021F08F2DBE010E94921917
:103580008F2DB8010E9492198F2D64E00E94751949
:10359000DF91CF911F910F91FF90EF90DF90CF902F
:1035A000BF90AF909F908F900895DF92EF92FF921F
:1035B0000F931F93D82E7A018B016FE10E9475192A
:1035C0008D2D60E270E00E9492198D2DB801A70147
:1035D0000E94E4191F910F91FF90EF90DF900895E2
:1035E00080E060E170E040E050E020E430E00E94E4
:1035F000141A81E060E170E040E050E020E430E047
:103600000E94141A82E060E170E040E050E020E4A3
:1036100030E00E94141A80E04FEF5FEF6FEF7FE31E
:103620000E94D51A81E04FEF5FEF6FEF7FE30E94BA
:10363000D51A82E04FEF5FEF6FEF7FE30E94D51A5C
:103640000895DF92EF92FF920F931F93DF93CF9332
:103650000F92CDB7DEB7D82E7A018B0177FF0AC063
:1036600010950095F094E094E11CF11C011D111DD2
:1036700090E001C091E08D2D6FE199830E94751952
:103680009981792F7295707F60E0686078608D2DE8
:103690000E9492198D2DB801A7010E94E4190F9084
:1036A000CF91DF911F910F91FF90EF90DF900895E0
:1036B000AF92BF92CF92DF92EF92FF920F931F9340
:1036C000DF93CF93CDB7DEB72C970FB6F894DEBF5C
:1036D0000FBECDBF59016A010E943F4969837A83B9
:1036E0008B839C83C601B5010E943F496D837E8315
:1036F0008F839887C801B7010E943F4969877A87FD
:103700008B879C878E010F5F1F4FEE24F80160812D
:1037100071818281938121E73CEA4BE85EE30E945C
:10372000034B9B01AC01F8012193319341935193D9
:103730008F0120E030E040E857E40E94034B0E94F4
:103740000C49AB01BC018E2D0E94211BE394FE2D80
:10375000F330E1F60E9485192C960FB6F894DEBF7F
:103760000FBECDBFCF91DF911F910F91FF90EF90D2
:10377000DF90CF90BF90AF9008954F925F926F927D
:103780007F928F929F92AF92BF92CF92DF92EF92F1
:10379000FF920F931F93982E862E29013A016FE115
:1037A0000E947519682D70E06A62892D0E94921935
:1037B000892DB301A2010E94E419892DB801A70146
:1037C0000E94E419892DB601A5010E94E4191F91F8
:1037D0000F91FF90EF90DF90CF90BF90AF909F90B0
:1037E0008F907F906F905F904F9008959F92AF92CF
:1037F000BF92CF92DF92EF92FF920F931F93DF93CE
:10380000CF9300D00F92CDB7DEB71ABA15BA8FEFAB
:1038100084BB1092650083E08093640010E8A12EC1
:10382000B4E8BB2E6E010894C11CD11C85B3856021
:1038300085BB83E39BE20197F1F785B38A7F85BB64
:10384000ECECFCE13197F1F700C0000080916500DD
:103850008D7F80936500AB9885B3887F85BB99B3D6
:103860009983A89A19B385B3887F826085BB09B311
:10387000943C09F494C0943809F491C015BA80E0DE
:1038800060E045EC51E00E94670181E060E04BECB4
:1038900051E00E946701143C09F481C0143809F416
:1038A0007EC015BA80E060E045EC51E00E946701FF
:1038B00082E060E04BED51E00E946701043C09F4B6
:1038C0006EC0043809F46BC015BA80E060E045ECC6
:1038D00051E00E94670183E060E04BEE51E029C0B7
:1038E0009E2C9C18892D6DE10E947519892D60E030
:1038F00070E00E949219F8018081F70181937F01A5
:1039000000501F4FF3E200301F0751F78981803CC0
:1039100099F0803889F085B78F7385BF15BA80E03C
:1039200060E04BEF51E00E94670181E060E04BEC0A
:1039300051E00E9467017ACF80E060E041E052E010
:103940000E94670180E098B3976098BB2FEF3FEB30
:1039500046E0215030404040E1F700C0000098B3FD
:10396000987F98BB2FEF3FEB46E02150304040401E
:10397000E1F700C000008F5F833029F70E94D80173
:103980000F900F900F90CF91DF911F910F91FF90AB
:10399000EF90DF90CF90BF90AF909F900895A5BE1D
:1039A00082E080936D00B0926C00760100E010E23E
:1039B00097CF4F925F926F927F928F929F92AF922A
:1039C000BF92CF92DF92EF92FF920F931F93CF930C
:1039D000DF9304E6802E912C84E00E947600982FDD
:1039E00080E0EC0185E00E94760090E08C2B9D2B1E
:1039F000B4010E94A14E882777FD8095982F0E94E0
:103A00003F49F62E072F182FE92E462E572E682EE7
:103A1000792E63015201E894D7F8C601B50120E080
:103A200030E044E353E40E94684A1816ACF2609117
:103A300090037091910380919203909193032F2DA5
:103A4000302F412F5E2D0E949D48882309F4E5C048
:103A50006F2D702F812F9E2D20E030E0A9010E9454
:103A60009D4887FF5DC060919003709191038091A4
:103A700092039091930320E030E0A9010E94684AEC
:103A800018160CF04DC02091900330919103409195
:103A90009203509193035F77C601B5010E942648B7
:103AA00020E030E044E353E40E949D4887FF15C0C6
:103AB000A0909403B0909503C0909603D090970384
:103AC0002091900330919103409192035091930380
:103AD0006F2D702F812F9E2D1CC0A0909403B0904D
:103AE0009503C0909603D0909703609190037091D6
:103AF000910380919203909193032F2D302F412FAA
:103B00005E2D0E9425489B01AC0160E070E084EBD3
:103B100093E40E9425489B01AC01C601B50169C030
:103B2000C301B20120E030E0A9010E94684A1816E2
:103B30000CF047C0609190037091910380919203C3
:103B40009091930320E030E0A9010E949D4887FFF7
:103B500038C020919003309191034091920350918D
:103B600093035F77C601B5010E94264820E030E04C
:103B700044E353E40E949D4887FD23C0E0909403F2
:103B8000F090950300919603109197032091900374
:103B9000309191034091920350919303C301B2017C
:103BA0000E9425489B01AC0160E070E084EB93E447
:103BB0000E9425489B01AC01C801B7010E9425481D
:103BC0001AC0E0909403F090950300919603109131
:103BD000970320919003309191034091920350916B
:103BE0009303C301B2010E9425489B01AC01C801A7
:103BF000B7010E9426489B01AC01209394033093A7
:103C000095034093960350939703409290035092EC
:103C100091036092920370929303DF91CF911F9171
:103C20000F91FF90EF90DF90CF90BF90AF909F905B
:103C30008F907F906F905F904F9008952F923F925A
:103C40004F925F926F927F928F929F92AF92BF92AC
:103C5000CF92DF92EF92FF920F931F93DF93CF9358
:103C6000CDB7DEB762970FB6F894DEBF0FBECDBFFB
:103C700069837A838B839C832D833E834F8358870C
:103C80003701480160E070E084E394E4A601950107
:103C90000E942548162F072FF82EE92E8D819E8130
:103CA000AF81B88580939D0390939E03A0939F035B
:103CB000B093A00389819A81AB81BC818093330446
:103CC00090933404A0933504B0933604A092A903D2
:103CD000B092AA03C092AB03D092AC03C601B50167
:103CE00020E030E044E353E40E949D48181684F03D
:103CF000A8019701652F742F832F922F20E030E0C9
:103D000044EB53E40E942548162F072FF82EE92E86
:103D1000A8019701652F702F832F9E2D20E030E0A2
:103D200044EB52E40E94254869877A878B879C87F9
:103D3000C401B30123EF36E64FE55EE30E94034B77
:103D40006D877E878F87988B80E090E036E9432EE1
:103D5000512C28E6222E21E0322E9A8B898BB2013B
:103D6000882777FD8095982F0E943F495B016C0161
:103D7000C20188589F4FB1010E94A14E2C01C6017B
:103D8000B501D801F7012B2F302F4F2F5E2D0E9448
:103D9000254825E33AEF4EE85CE30E94034B0E947E
:103DA000A1483B014C01C601B501B985AA85AB8488
:103DB000DC842B2F3A2F4A2D5D2D0E94254825E3C8
:103DC0003AEF4EE85CE30E94034B0E94A1485B017E
:103DD0006C016D817E818F819885A40193010E9481
:103DE000034B3B014C0169817A818B819C81A60147
:103DF00095010E94034B9B01AC01C401B3010E94D9
:103E00002648BD85AE85DF84A8882B2F3A2F4D2DFF
:103E10005A2D0E9425482FE632E143E856E40E94DD
:103E2000034B23E333E343E250EC0E94034B0E9435
:103E30000C49AB01BC0189890E94211BA989BA895F
:103E40001196BA8BA98BA330B10509F088CF0E94D7
:103E500085190E94D91C62960FB6F894DEBF0FBE7A
:103E6000CDBFCF91DF911F910F91FF90EF90DF9029
:103E7000CF90BF90AF909F908F907F906F905F900A
:103E80004F903F902F9008952F923F924F925F92C4
:103E90006F927F928F929F92AF92BF92CF92DF925A
:103EA000EF92FF920F931F93DF93CF93CDB7DEB7BF
:103EB0002C970FB6F894DEBF0FBECDBF5B016C012F
:103EC00039014A011701280160919403709195030B
:103ED00080919603909197032091980330919903D4
:103EE00040919A0350919B03E0909403F0909503C6
:103EF0000091960310919703E0929803F092990332
:103F000000939A0310939B03E0908C03F0908D0331
:103F100000918E0310918F030E9425489B01AC01F4
:103F2000C801B7010E9425489B01AC0120938C0376
:103F300030938D0340938E0350938F03C601B501D8
:103F400020E030E0A9010E949D48882351F4C4017B
:103F5000B30120E030E0A9010E949D48882309F4C4
:103F6000D2C0C601B50120E030E048EC52E40E9426
:103F7000A44869837A838B839C83C401B30120E0C6
:103F800030E048EC52E40E94A4486D837E838F8326
:103F9000988760918C0370918D0380918E0390912E
:103FA0008F03A20191010E942548F62E072F182F9A
:103FB000E92E8091840390918503A0918603B091AE
:103FC000870389879A87AB87BC876F2D702F812FD6
:103FD0009E2D25E33AEF4EE85CE30E94034B0E94DE
:103FE000A1483B014C016F2D702F812F9E2D20E0A9
:103FF00030E044EB52E40E94264825E33AEF4EE8D5
:104000005CE30E94034B0E94A1485B016C01598153
:104010004A813B812C81652F742F832F922FA4011D
:1040200093010E94034B1B012C015D814E813F8156
:104030002885652F742F832F922FA60195010E944A
:10404000034B9B01AC01C201B1010E9426489B01B8
:10405000AC0169857A858B859C850E9426489B01E9
:10406000AC012093840330938503409386035093DF
:104070008703209088033090890340908A035090F2
:104080008B036F2D702F812F9E2D20E030E044EBAD
:1040900052E40E94254825E33AEF4EE85CE30E9493
:1040A000034B0E94A1487B018C015D814E813F81C1
:1040B0002885652F742F832F922FA40193010E94CE
:1040C000034B5B016C0159814A813B812C81652F37
:1040D000742F832F922FA80197010E94034B9B01FD
:1040E000AC01C601B5010E9426489B01AC01C2018A
:1040F000B1010E9426489B01AC01E4E8F3E024836F
:104100003583468357832C960FB6F894DEBF0FBED7
:10411000CDBFCF91DF911F910F91FF90EF90DF9076
:10412000CF90BF90AF909F908F907F906F905F9057
:104130004F903F902F9008952F923F924F925F9211
:104140006F927F928F929F92AF92BF92CF92DF92A7
:10415000EF92FF920F931F93DF93CF93CDB7DEB70C
:104160002E970FB6F894DEBF0FBECDBF18018701A2
:104170009A8389837C836B83509541955F4F5E83DF
:104180004D83309521953F4F38872F83CE0101967F
:104190009A87898779E0472E512C4C0E5D1E7C0151
:1041A00066247724CC24DD24D7016D917D917D0197
:1041B000882777FD8095982F0E943F494B015C012D
:1041C000E894B7F8662D772D8C2D9D2DA5019401CF
:1041D0000E949D4887FF02C034016501E414F50484
:1041E00019F7EE24FF24C101AA2797FDA095BA2F45
:1041F0008B879C87AD87BE87A985BA85AD90BD901A
:10420000BA87A9876B857C858D859E850E943F49ED
:104210001B012C01B501882777FD8095982F0E94FE
:104220003F49262D372D4C2D5D2D0E94A448A2011B
:1042300091010E94034B9B01AC01F701EE0FFF1FA0
:10424000EE0FFF1FE35BFB4F2083318342835383D9
:104250000894E11CF11CB4E0EB16F10469F6043695
:1042600011052CF40115110509F051C005C00436E3
:10427000110511F00456104091E0E92EF12C662D45
:10428000772D8C2D9D2D20E030E048EC52E40E94EB
:10429000034BA20191010E94A4480E948A485B013D
:1042A0006C01970122503040C80117FF03C0909560
:1042B00081959F4FB7010E94A14E620F731F8827FF
:1042C00077FD8095982F0E943F499B01AC01C60164
:1042D000B5010E9426480E940C49CB012E960FB6CC
:1042E000F894DEBF0FBECDBFCF91DF911F910F912C
:1042F000FF90EF90DF90CF90BF90AF909F908F9006
:104300007F906F905F904F903F902F90089582E044
:10431000E82EF12CB4CF2F923F924F925F926F9282
:104320007F928F929F92AF92BF92CF92DF92EF9245
:10433000FF920F931F93DF93CF93CDB7DEB72E97E6
:104340000FB6F894DEBF0FBECDBF7A8369836536A2
:10435000710514F0645670404B0177FF04C0882447
:104360009924861A970AE090AA02F090AB02A7015E
:104370004F5F5F4F9C012E193F0900E010E05A018A
:10438000CC24B7FCC094DC2CAB82BC82CD82DE8214
:104390001401442437FC4094542C6C01C818D908EB
:1043A000D886CF82C901AA2797FDA095BA2F898701
:1043B0009A87AB87BC877E876D873401F7FC34C052
:1043C000AD85BE85B7FD2DC04801880C991C880CB1
:1043D000991CF401E35BFB4FA080B180C280D380C5
:1043E0006B817C818D819E810E943F499B01AC0144
:1043F000C601B5010E94034B5B016C01C201B10112
:104400000E943F499B01AC01C601B5010E94A4482E
:104410009B01AC01F401E15AFB4F208331834283BD
:104420005383E614F70424F4ED85FE85F7FF13C0EB
:104430009801220F331F220F331FF901E35BFB4F5B
:1044400080819181A281B381215A3B4FF901808300
:104450009183A283B383AF80B884AE14BF0494F574
:1044600049815A814536510568F14801880C991CEB
:10447000880C991CF401E35BFB4FA080B180C280E3
:10448000D38069857A858B859C850E943F499B01F5
:10449000AC01C601B5010E94034B5B016C01C20176
:1044A000B1010E943F499B01AC01C601B5010E94C8
:1044B000A4489B01AC01F401E15AFB4F20833183F6
:1044C000428353830F5F1F4F0430110509F076CFED
:1044D0002E960FB6F894DEBF0FBECDBFCF91DF9101
:1044E0001F910F91FF90EF90DF90CF90BF90AF9012
:1044F0009F908F907F906F905F904F903F902F9004
:10450000089581E090E00A9B02C080E090E09093E3
:10451000A8038093A70381E090E00B9B02C080E09A
:1045200090E09093A4038093A30381E090E00C9B20
:1045300002C080E090E090935E0480935D0481E08F
:1045400090E0849B02C080E090E09093A60380936B
:10455000A50381E090E0869B02C080E090E090930C
:104560003204809331042091630081E090E023FFC6
:1045700002C080E090E09093AE038093AD03209161
:10458000630081E090E024FF02C080E090E090931F
:10459000A2038093A10308951F920F920FB60F926A
:1045A0000BB60F921124EF92FF920F931F932F934C
:1045B0003F934F935F936F937F938F939F93AF93AB
:1045C000BF93EF93FF938FEF8DBD80E78CBD60911C
:1045D00094027091950280919602909197022AE040
:1045E00037ED43EA5CE30E9426487B018C017F2D76
:1045F000912F20E030E040E85FE30E94684A1816FF
:1046000024F4EE24FF2400E81FE38E2D9F2DA02F1D
:10461000B12F8093940290939502A0939602B09349
:1046200097026091AE027091AF028091B0029091BA
:10463000B1022AE037ED43EA5CE30E9426487B01A1
:104640008C017F2D912F20E030E040E85FE30E9455
:10465000684A181624F4EE24FF2400E81FE38E2D88
:104660009F2DA02FB12F8093AE029093AF02A09305
:10467000B002B093B102609198027091990280915A
:104680009A0290919B022DEC3CEC4CE45DE30E947D
:104690002648F62EE72E8C01A701652F742F912F47
:1046A00020E030E040E85FE30E94684A181624F4F6
:1046B000FF24EE2400E81FE3A701852F9E2DA02FE5
:1046C000B12F8093980290939902A0939A02B0938D
:1046D0009B020E9481228091A7039091A8030097DA
:1046E000B1F08091920290919302009781F48091B1
:1046F0009C0290919D02019690939D0280939C0252
:1047000081E090E0909393028093920210C0809198
:10471000A7039091A803009751F480919202909181
:104720009302009721F010929302109292028091CE
:10473000A3039091A403009731F18091C802909156
:10474000C902009701F58091D2029091D30201969F
:104750009093D3028093D20221E030E03093C902DB
:104760002093C80280914B0490914C04FC01EE0F01
:10477000FF1FE75FFB4F31832083019690934C042A
:1047800080934B0410C08091A3039091A4030097E1
:1047900051F48091C8029091C902009721F01092C3
:1047A000C9021092C80280915D0490915E04009746
:1047B000B1F08091C4029091C502009781F480917C
:1047C000C2029091C30201969093C3028093C202E9
:1047D00081E090E09093C5028093C40210C0809164
:1047E0005D0490915E04009751F48091C402909111
:1047F000C502009721F01092C5021092C402809168
:10480000A5039091A6030097B1F08091C00290910A
:10481000C102009781F48091CA029091CB02019667
:104820009093CB028093CA0281E090E09093C10202
:104830008093C00210C08091A5039091A6030097B9
:1048400051F48091C0029091C102009721F0109222
:10485000C1021092C00280913104909132040097FD
:10486000B1F08091AC029091AD02009781F48091FB
:10487000CC029091CD0201969093CD028093CC0210
:1048800081E090E09093AD028093AC0210C08091E3
:10489000310490913204009751F48091AC029091D0
:1048A000AD02009721F01092AD021092AC028091FF
:1048B000AD039091AE03009741F18091C6029091B3
:1048C000C702009711F58091BE029091BF02019638
:1048D0009093BF028093BE0281E090E09093C70264
:1048E0008093C60280914B0490914C04FC01EE0F22
:1048F000FF1FE75FFB4F22E030E03183208301960A
:1049000090934C0480934B0410C08091AD03909120
:10491000AE03009751F48091C6029091C7020097B0
:1049200021F01092C7021092C6028091A1039091CB
:10493000A2030097B1F08091A8029091A90200977C
:1049400081F48091D4029091D50201969093D50282
:104950008093D40281E090E09093A9028093A80212
:1049600010C08091A1039091A203009751F480910F
:10497000A8029091A902009721F01092A90210922A
:10498000A8028091AA029091AB02009729F00196AB
:104990009093AB028093AA0280918202909183024D
:1049A000009749F080918202909183020197909341
:1049B0008302809382028091CE029091CF02009771
:1049C00049F08091CE029091CF0201969093CF0250
:1049D0008093CE028091BC029091BD02009729F095
:1049E00001969093BD028093BC0280914B049091FC
:1049F0004C048431910524F010924C0410924B0425
:104A000060913304709134048091350490913604A0
:104A100020919D0330919E0340919F035091A003EC
:104A2000E090A903F090AA030091AB031091AC03AE
:104A30000E94441FFF91EF91BF91AF919F918F9181
:104A40007F916F915F914F913F912F911F910F91A6
:104A5000FF90EF900F900BBE0F900FBE0F901F9026
:104A60001895AF92BF92CF92DF92EF92FF920F9381
:104A70001F9360E070E0CB019B01AC017B018C01D6
:104A80005B016C010E941E1E1F910F91FF90EF9021
:104A9000DF90CF90BF90AF900895FC01E256FD4F9C
:104AA000808190E0681779076CF08091BC0290914A
:104AB000BD02009759F481E090E09093BD0280938D
:104AC000BC0204C01092BD021092BC0221E030E092
:104AD0008091BC029091BD028330910514F420E0D6
:104AE00030E0C90108951F93182F81E10E943E0113
:104AF000812F0E943E01809166028823E1F30E948B
:104B00002B01882391F31F9108954F925F926F922A
:104B10007F928F929F92AF92BF92CF92DF92EF924D
:104B2000FF920F931F93CF93DF938C013B01C1E062
:104B3000D0E0CC24DD248FEFA82EB12C882499243A
:104B4000EE24FF2444245524401A510A14C0602F37
:104B500017FD642D8C2F0E94FB4690E0C816D906E5
:104B600014F46C017E018A159B0524F4009711F062
:104B70005C014E0121966C167D064CF7101611064D
:104B80000CF07401C701DF91CF911F910F91FF903D
:104B9000EF90DF90CF90BF90AF909F908F907F90DD
:104BA0006F905F904F9008956F927F928F929F9237
:104BB000AF92BF92CF92DF92EF92FF920F931F932B
:104BC000D62EC72EB82EA92E922E832E742E652E89
:104BD0006E2D7F2D802F912FD601F5012B2F3A2F8F
:104BE0004F2F5E2F0E94684A1816ACF06E2D7F2D55
:104BF000802F912FD401F3012B2F3A2F4F2F5E2FAF
:104C00000E949D4887FF03C06401530104C0DE2C4D
:104C1000CF2CB02EA12EA6019501652F7C2D832FC0
:104C20009A2D1F910F91FF90EF90DF90CF90BF9042
:104C3000AF909F908F907F906F9008952F923F92AA
:104C40005F926F927F928F929F92AF92BF92CF921C
:104C5000DF92EF92FF920F931F93DF93CF93CDB725
:104C6000DEB728970FB6F894DEBF0FBECDBF582E23
:104C70004B015A8349831092BD021092BC021092DC
:104C8000830210928202809182029091830290931B
:104C9000700480936F0480916F04909170049093DE
:104CA000AB028093AA0260E070E080E090E0DC015B
:104CB0008B01000F111F000F111F9801215A3B4F4C
:104CC000F90180839183A283B38320813181428162
:104CD0005381F801E35BFB4F20833183428353838D
:104CE0006F5F7F4F6430710519F700D000D000D09E
:104CF000EDB7FEB7319607E314E0ADB7BEB7129635
:104D00001C930E93119785E192E0938382838AE14D
:104D100092E0958384830E94F547EDB7FEB73696FF
:104D20000FB6F894FEBF0FBEEDBF80E067E0A801AC
:104D30000E9467011092CF021092CE02852D66E686
:104D40000E94FB46A82EE0908C03F0908D0300910A
:104D50008E0310918F03B401882777FD8095982FDB
:104D60000E943F49A80197010E9426480E940C49D1
:104D70004B018A189108882777FD8095982F0E940B
:104D80003F495B016C01B401882777FD8095982F1E
:104D90000E943F497B018C01C40168E572E00E94DA
:104DA000A14E882777FD8095982F0E943F492FE8D4
:104DB00032EC45E75EE30E9426489B01AC01C80146
:104DC000B7010E94034B9B01AC01C601B5010E94D3
:104DD00026480E940C491B018824992491E0692EE1
:104DE000712C3C822B82140180918202909183026B
:104DF0000097D1F77092830260928202852D66E659
:104E00000E94FB46E82EFF24852D67E60E94FB46A4
:104E100038C00E943125852D66E60E94FB46E82EAB
:104E2000852D67E60E94FB462091CE023091CF028D
:104E30002115310521F47092CF026092CE022091AB
:104E4000CE023091CF02F1E02F353F071CF00E94D7
:104E5000312512C1FF24E114F10499F020E030E083
:104E6000A9012093AE023093AF024093B002509359
:104E7000B10220939402309395024093960250938E
:104E80009702082F10E0E114F10421F40115110537
:104E900009F4BFCF4B815C814115510591F0E41AB3
:104EA000F50AB701882777FD8095982F0E943F4922
:104EB0002DEC3CEC4CE45FE30E94034B0E940C4958
:104EC0001B0189819A81009719F04C01801A910A7F
:104ED000B101882777FD8095982F0E943F497B017B
:104EE0008C0160E070E088E492E420E030E048E487
:104EF00052EC0E94D4250E940C491B01B401882762
:104F000077FD8095982F0E943F497B018C0160E0DE
:104F100070E080E792E420E030E040E752EC0E944D
:104F2000D4250E940C494B01A0908C03B0908D03B6
:104F3000C0908E03D0908F03B401882777FD8095B1
:104F4000982F0E943F492091AE023091AF024091CC
:104F5000B0025091B1020E94034B2DEC3CEC4CE4AA
:104F60005FE30E94034B6D837E838F839887B1013B
:104F7000882777FD8095982F0E943F4920919402C1
:104F80003091950240919602509197020E94034BF6
:104F90007B018C016091D0027091D102882777FD4E
:104FA0008095982F0E943F49A60195010E942648AE
:104FB0005B016C0160E070E0CB012D813E814F818F
:104FC00058850E941E1E8091AA029091AB02009704
:104FD00021F47092AB026092AA028091AA02909191
:104FE000AB02A1E08F359A0754F42114310409F083
:104FF000FBCEC40101968330910508F0F5CE1092E6
:10500000BD021092BC0280E090E0DC018093A90315
:105010009093AA03A093AB03B093AC038091A90330
:105020009091AA03A091AB03B091AC038093330499
:1050300090933404A0933504B093360480913304E4
:1050400090913404A0913504B091360480939D036F
:1050500090939E03A0939F03B093A00360919D0340
:1050600070919E0380919F039091A0030E940C4930
:105070007093AB026093AA0228960FB6F894DEBF35
:105080000FBECDBFCF91DF911F910F91FF90EF9099
:10509000DF90CF90BF90AF909F908F907F906F9058
:1050A0005F903F902F9008952F923F925F926F9262
:1050B0007F928F929F92AF92BF92CF92DF92EF92A8
:1050C000FF920F931F93DF93CF93CDB7DEB7609717
:1050D0000FB6F894DEBF0FBECDBF582E7A8369831A
:1050E0005C834B833E832D831092BD021092BC02E1
:1050F0001092830210928202809182029091830228
:105100009093700480936F0480916F049091700469
:105110009093AB028093AA0260E070E080E090E0A0
:10512000DC018B01000F111F000F111F9801215A84
:105130003B4FF90180839183A283B3832081318126
:1051400042815381F801E35BFB4F2083318342832B
:1051500053836F5F7F4F6430710519F700D000D023
:1051600000D0EDB7FEB7319607E314E0ADB7BEB798
:1051700012961C930E93119785E192E0938382839C
:105180008EE192E0958384830E94F547EDB7FEB7E8
:1051900036960FB6F894FEBF0FBEEDBF80E067E015
:1051A000A8010E9467011092CF021092CE028824BB
:1051B000992480E090E06624772431E0232E312C7E
:1051C000988B8F8780918202909183020097D1F70C
:1051D0003092830220928202852D66E60E94FB4671
:1051E000E82EFF24852D67E60E94FB46082F10E07D
:1051F000B701CF84D8883BC00E943125852D66E653
:105200000E94FB46A82E852D67E60E94FB46209152
:10521000CE023091CF022115310521F43092CF0218
:105220002092CE022091CE023091CF02F1E02F35B4
:105230003F071CF00E94312557C16A2D70E06115AF
:10524000710599F020E030E0A9012093AE0230937F
:10525000AF024093B0025093B10220939402309376
:1052600095024093960250939702082F10E0611523
:10527000710521F40115110509F4BECFD88ACF8636
:105280004B815C814115510589F0641B750B8827A2
:1052900077FD8095982F0E943F492DEC3CEC4CE423
:1052A0005FE30E94034B0E940C493B0189819A8174
:1052B000009791F0E81AF90AB701882777FD8095E1
:1052C000982F0E943F492AE939E949E15FE30E94AA
:1052D000034B0E940C494B01AD81BE81109721F018
:1052E000A01BB10BB88BAF87B301882777FD8095E2
:1052F000982F0E943F497B018C0160E070E080EFB5
:1053000091E420E030E040EF51EC0E94D4250E946F
:105310000C493B01EF85F889BF01882777FD80950F
:10532000982F0E943F497B018C0160E070E08CE582
:1053300092E420E030E04CE552EC0E94D4250E943B
:105340000C49788B6F87B401882777FD8095982F5B
:105350000E943F497B018C0160E070E088E492E4A8
:1053600020E030E048E452EC0E94D4250E940C4931
:105370004B01E0909402F0909502009196021091FA
:105380009702B301882777FD8095982F0E943F49A7
:10539000A80197010E94034B2DEC3CEC4CE45FE329
:1053A0000E94034B6F83788789879A872F85388976
:1053B000B901882777FD8095982F0E943F49209159
:1053C000AE023091AF024091B0025091B1020E9402
:1053D000034B2DEC3CEC4CE45FE30E94034B6B87EA
:1053E0007C878D879E87B401882777FD8095982FCD
:1053F0000E943F49A80197010E94034B7B018C0149
:105400006091D0027091D102882777FD8095982F06
:105410000E943F495B016C016F81788589859A857F
:105420002B853C854D855E850E941E1E8091AA02BB
:105430009091AB02009721F43092AB022092AA0225
:105440008091AA029091AB0231E08F3593077CF4F2
:105450006114710409F0B6CE8F8598890196833066
:10546000910508F0AFCE8114910409F0ABCE1092F3
:10547000BD021092BC0280E090E0DC018093A903A1
:105480009093AA03A093AB03B093AC038091A903BC
:105490009091AA03A091AB03B091AC038093330425
:1054A00090933404A0933504B09336048091330470
:1054B00090913404A0913504B091360480939D03FB
:1054C00090939E03A0939F03B093A00360919D03CC
:1054D00070919E0380919F039091A0030E940C49BC
:1054E0007093AB026093AA0260960FB6F894DEBF89
:1054F0000FBECDBFCF91DF911F910F91FF90EF9025
:10550000DF90CF90BF90AF909F908F907F906F90E3
:105510005F903F902F9008952F923F924F925F920D
:105520006F927F928F929F92AF92BF92CF92DF92B3
:10553000EF92FF920F931F93DF93CF93CDB7DEB718
:105540002C970FB6F894DEBF0FBECDBF5C013B01B8
:105550005C834B8319011A8309831092BD02109258
:10556000BC0210928302109282028091820290917A
:1055700083029093700480936F0480916F049091E4
:1055800070049093AB028093AA0260E070E080E028
:1055900090E0DC018B01000F111F000F111F98011B
:1055A000215A3B4FF90180839183A283B3832081E9
:1055B000318142815381F801E35BFB4F20833183CA
:1055C000428353836F5F7F4F6430710519F700D0BA
:1055D00000D000D0EDB7FEB7319607E314E0ADB7C9
:1055E000BEB712961C930E93119785E192E09383B8
:1055F000828381E292E0958384830E94F547EDB730
:10560000FEB736960FB6F894FEBF0FBEEDBF80E032
:1056100067E0A8010E94670180919403909195032F
:10562000A0919603B09197038D839E83AF83B88733
:10563000C501B30140E050E020E030E08101E980A5
:10564000FA800E949C20A114B10471F161147104CC
:1056500059F1B101882777FD8095982F0E943F4925
:105660007B018C0160914D0470914E0480914F0438
:105670009091500420915104309152044091530470
:10568000509154040E94754A9B01AC01C801B701B6
:105690000E94A4489B01AC015F77C801B7010E943A
:1056A000034B0E940C491B01C501B3014B815C8176
:1056B00020E030E08101E980FA800E949C209093F4
:1056C000700480936F04C1010A966AE070E00E9442
:1056D000A14ECB01AA2797FDA095BA2F89879A875B
:1056E000AB87BC8780918202909183020097D1F7AB
:1056F000A1E0B0E0B0938302A093820280916F0496
:105700009091700469817A810E948B21EB81FC81E8
:10571000309709F041C02091940330919503409156
:105720009603509197036D817E818F8198850E94A9
:105730002548662EA72EE82E092F69857A858B8548
:105740009C850E943F499B01AC01662D7A2D8E2DD0
:10575000902F0E94034BE62EF72E082F192FC80119
:10576000B7019F7720E030E040EF51E40E94684AA3
:10577000181654F40F2EF0E0EF2EF0E0FF2EF0E0BC
:105780000F2FF0E01F2FF02DE0926704F0926804D5
:105790000093690410936A048091AA029091AB026D
:1057A000009731F481E090E09093AB028093AA02DD
:1057B00080916F04909170042091AA023091AB0205
:1057C000821793070CF056C01092BD021092BC02D3
:1057D00080E090E0DC018093A9039093AA03A0935A
:1057E000AB03B093AC038091A9039091AA03A0915D
:1057F000AB03B091AC038093330490933404A09333
:105800003504B09336048091330490913404A09110
:105810003504B091360480939D0390939E03A0932A
:105820009F03B093A00360919D0370919E038091AC
:105830009F039091A0030E940C497093AB02609368
:10584000AA022C960FB6F894DEBF0FBECDBFCF9143
:10585000DF911F910F91FF90EF90DF90CF90BF905D
:10586000AF909F908F907F906F905F904F903F9000
:105870002F90089560905F047090600480906104A0
:10588000909062042090630430906404409065041A
:1058900050906604E0906704F090680400916904F9
:1058A00010916A046091D0027091D102882777FD2F
:1058B0008095982F0E943F495B016C01C401B301A0
:1058C000A20191010E941E1E0DCF2F923F924F9276
:1058D0005F926F927F928F929F92AF92BF92CF9280
:1058E000DF92EF92FF920F931F93DF93CF93CDB789
:1058F000DEB762970FB6F894DEBF0FBECDBF9A87B2
:1059000089877C876B873A0119011C830B83FE868C
:10591000ED86BA82A9821092BD021092BC0210924A
:10592000830210928202809182029091830290936E
:10593000700480936F0480916F0490917004909331
:10594000AB028093AA0260E070E080E090E0DC01AE
:105950009B01220F331F220F331FF901E15AFB4F26
:1059600080839183A283B383E080F18002811381DD
:10597000235B3B4FF901E082F182028313836F5F67
:105980007F4F6430710521F700D000D000D0EDB713
:10599000FEB7319607E314E0ADB7BEB712961C937D
:1059A0000E93119785E192E09383828386E292E0E1
:1059B000958384830E94F547EDB7FEB736960FB600
:1059C000F894FEBF0FBEEDBF80E067E0A8010E9423
:1059D00067018091940390919503A0919603B091F3
:1059E00097038D839E83AF83B887C301B10140E0E5
:1059F00050E020E030E08601E980FA800E949C209F
:105A00006114710471F12114310459F1B601882730
:105A100077FD8095982F0E943F497B018C01609112
:105A20004D0470914E0480914F0490915004209148
:105A300051043091520440915304509154040E94F7
:105A4000754A9B01AC01C801B7010E94A4489B01A3
:105A5000AC015F77C801B7010E94034B0E940C495B
:105A60006B01C301B1014B815C8120E030E0860114
:105A7000E980FA800E949C209093700480936F04C8
:105A8000C6010A966AE070E00E94A14ECB01AA27E7
:105A900097FDA095BA2F8F87988BA98BBA8B809191
:105AA0008202909183020097D1F7A1E0B0E0B09319
:105AB0008302A093820280916F04909170046981A7
:105AC0007A810E948B21EB81FC81309709F041C0E3
:105AD0002091940330919503409196035091970340
