:100000000C9455000C9474000C9474000C947400BF
:100010000C9474000C9474000C9474000C94740090
:100020000C9474000C9474000C9474000C94740080
:100030000C9474000C9474000C947A350C94740035
:100040000C9474000C9474000C94145A0C94740066
:100050000C9474000C9474000C9474000C94740050
:100060000C9474000C9474000C9474000C94740040
:100070000C9474000C9474000C940A010C94740099
:100080000C9474000C9474000C94740005A84CCD6E
:10009000B2D44EB93836A9020C50B9918688083CC2
:1000A000A6AAAA2ABE000000803F11241FBECFEFDF
:1000B000D0E1DEBFCDBF12E0A0E0B1E0EAE3F3ECB7
:1000C00000E00BBF02C007900D92A83FB107D9F71F
:1000D00018E0A8EFB2E001C01D92AB36B107E1F71E
:1000E0000E9481140C94BC5A0C94000094EA9093E2
:1000F00074009091740097FFFCCF9AE09093730086
:1001000094E8909374009091740097FFFCCF8093D3
:10011000730084E8809374008091740087FFFCCFA3
:1001200084E98093740084EA809374008091740061
:1001300087FFFCCF8BE08093730084E8809374008A
:100140008091740087FFFCCF84E8809374008091D5
:10015000740087FFFCCF8091730094E99093740042
:10016000089594EA909374009091740097FFFCCFE7
:100170009AE09093730094E89093740090917400C7
:1001800097FFFCCF8093730084E880937400809184
:10019000740087FFFCCF6093730084E88093740041
:1001A0008091740087FFFCCF84E9809374000895E8
:1001B00010929B0088E980939A0086E080939D00CE
:1001C000109298008FE580939900789408951F937A
:1001D0001FEF1093730081E4809370000E94A42E9F
:1001E0000E94005A0E94D8000E949E2D1FBC85E0EC
:1001F0008EBD1DBD80E78CBD84E087BF78948FE005
:1002000087BB81B3807F81BB84B3806F84BB18BA06
:100210001F9108951F920F920FB60F9211248F9382
:10022000DF93CF930F92CDB7DEB780919C00898387
:1002300080919B00887BE1F381E08093F8028981C3
:100240008093F9020F90CF91DF918F910F900FBEA5
:100250000F901F901895DF93CF930F92CDB7DEB715
:100260008091F90289831092F902F8941092F802B1
:10027000789489810F90CF91DF91089590919B00A0
:1002800095FFFCCF80939C000895CF93DF93E4E724
:10029000F0E094EA9083A1EEB2E01197F1F700004C
:1002A000A3E7B0E09EE09C9394E89083C1EED2E097
:1002B0002197F1F700008C93908381EE92E00197F3
:1002C000F1F7000084E98083DF91CF910895EF92E8
:1002D000FF920F931F93DF93CF9300D0CDB7DEB77C
:1002E000082F162F843070F5643160F58BE1498357
:1002F0005A830E9445018CE40E944501812F0E948F
:100300004501802F0E94450180E791E00197F1F7B8
:1003100000C0E12EFF2449815A81042F152F06C009
:100320000E94450194EC9A95F1F700C0E4E1EE16C5
:10033000F10444F4F80181918F010894E11CF11C4F
:10034000882371F70F900F90CF91DF911F910F913C
:10035000FF90EF9008951F93DF93CF9300D0CDB718
:10036000DEB7182F8430F0F46431E0F48BE12A8397
:1003700069830E9445018CE40E9445016981862FB2
:100380000E944501812F0E94450180E791E001977D
:10039000F1F700C02A81822F0E94450194EC9A95C2
:1003A000F1F700C00F900F90CF91DF911F9108954A
:1003B0008BE10E94450183E40E94450186E696EEAA
:1003C000A0E081509040A040E1F70895EF92FF92A5
:1003D0000F931F93182FF62EE42E842F64E60E94AD
:1003E0006861082F282F30E0205D3F4F442737FDFC
:1003F0004095542F812F6F2D0E94AB018CE9089FEF
:10040000002D11240E0D802F6AE00E946861E82EF5
:100410006F2D6F5F282F30E0205D3F4F442737FD61
:100420004095542F812F0E94AB016F2D6E5F26EFF8
:10043000E29E202D1124200F30E0205D3F4F442705
:1004400037FD4095542F812F0E94AB011F910F91D2
:10045000FF90EF900895AF92BF92CF92DF92EF920C
:10046000FF920F931F9380E090E0DC0180933A03AA
:1004700090933B03A0933C03B0933D0380932003F0
:1004800090932103A0932203B09323038AE590E085
:1004900090935D0380935C0382E090E066ED70E0F2
:1004A00044E050E022EC30E005E010E0A3EAEA2E60
:1004B000F12CF2E3CF2ED12CEEE1AE2EB12C0E9426
:1004C000DF5210925D0310925C0389E190E06DE4CD
:1004D00070E040E050E022E330E000EA10E00E94EB
:1004E0003A3D0E94DF37C39A8FEF9FEFA9E5815015
:1004F0009040A040E1F700C00000C3981F910F9109
:10050000FF90EF90DF90CF90BF90AF9008956F92E3
:100510007F928F929F92AF92BF92CF92DF92EF9293
:10052000FF920F931F93CF93DF93009709F07BC047
:100530000F2EF0E06F2EF0E07F2EF0E08F2EF0E037
:100540009F2EF02D60923A0370923B0380923C0301
:1005500090923D03609220037092210380922203C7
:1005600090922303CAE5D0E0D0935D03C0935C036F
:1005700082E090E066ED70E044E050E022EC30E094
:1005800005E010E0F3EAEF2EF12CE2E3CE2ED12CC1
:10059000BEE1AB2EB12C0E94DF5210925D0310928F
:1005A0005C038CE090E061E070E045E050E023E027
:1005B00030E00EE010E0EE24FF24ACE3AA2EB12CD4
:1005C0000E94B3438AE090E061E070E04AE050E0CE
:1005D00023E030E0AA24BB240E94B34386E290E0EB
:1005E00066EA7FEF46EA5FEF2DE230E000E010E0E0
:1005F0000E94454886E290E066EA7FEF4AEB5FEFB3
:100600002DE230E00E94454884E190E090935D0344
:1006100080935C0380E090E062E270E040E050E0B4
:1006200022E330E07AC00F2EF0E06F2EF0E07F2E54
:10063000F0E08F2EF0E09F2EF02D60923A03709242
:100640003B0380923C0390923D03609220037092A2
:1006500021038092220390922303CAE5D0E0D09335
:100660005D03C0935C0387E090E060EA70E044E0E3
:1006700050E022EC30E005E010E0F3EAEF2EF12C40
:10068000E2E3CE2ED12CBEE1AB2EB12C0E94DF5284
:1006900010925D0310925C038CE090E068E070E0E3
:1006A00045E050E023E030E002E110E0EE24FF24DA
:1006B000ACE3AA2EB12C0E94B3438AE090E068E03C
:1006C00070E04AE050E023E030E0AA24BB240E941E
:1006D000B34386E290E06AE570E04AE550E028E244
:1006E00030E000E010E00E94454886E290E06AE5D4
:1006F00070E04EE650E023E230E00E94454884E19D
:1007000090E090935D0380935C0380E090E065E26D
:1007100070E040E050E028E230E00E943A3D88E29C
:1007200090E066EA7FEF42E350E022E330E00E948F
:1007300045488CEE9FEF90935D0380935C038CE0C3
:1007400090E064E070E04BEF5FEF23E030E002E127
:1007500010E00E94B3438AE090E064E070E046EF6E
:100760005FEF25E030E00E94B3438BEF9FEF64E042
:1007700070E048E15CEF25E030E0F4E1EF2EF12C91
:100780000E94B34380E090E064EF7FEF44E150E0EB
:1007900022E330E004EC1FEF0E94A94660923A0386
:1007A00070923B0380923C0390923D036092200341
:1007B000709221038092220390922303D0935D03D1
:1007C000C0935C0382E090E066ED70E044E050E0AE
:1007D00022EC30E005E010E0E3EAEE2EF12CBEE181
:1007E000AB2EB12C0E94DF5210925D0310925C037D
:1007F000DF91CF911F910F91FF90EF90DF90CF90FD
:10080000BF90AF909F908F907F906F9008954F9280
:100810005F926F927F928F929F92AF92BF92CF9290
:10082000DF92EF92FF920F931F93CF93DF93EC0130
:100830000F2EF0E04F2EF0E05F2EF0E06F2EF0E094
:100840007F2EF02D40923A0350923B0360923C037E
:1008500070923D0340922003509221036092220344
:1008600070922303FAE58F2E912C90925D03809273
:100870005C0382E090E066ED70E044E050E022EC42
:1008800030E005E010E0E3EAEE2EF12CB2E3CB2EEF
:10089000D12CAEE1AA2EB12C0E94DF5210925D0342
:1008A00010925C03C530D10541F58CE090E061E029
:1008B00070E045E050E023E030E00CE010E0EE2492
:1008C000FF24FCE3AF2EB12C0E94B3438AE090E0FA
:1008D00061E070E041E450E025E030E0AA24BB2470
:1008E0000E94B3438AE090E066EA7FEF40E050E088
:1008F00022E330E004EC1FEF9DC0C830D10589F43D
:100900008AE290E06FE070E040E050E028E230E002
:1009100006E910E00E943A3D1092FF021092FE029A
:10092000E2C1CE0103978230910550F0C630D10567
:1009300039F0C730D10521F0C930D10509F0EAC03E
:1009400082E090E06DE270E046EA5FEF28E230E09E
:1009500006E910E0E4E6EE2EF12C0E94D44D80E092
:1009600090E062E070E040E050E02AE030E008E72C
:1009700010E00E943A3D80E090E0DC0180933A0371
:1009800090933B03A0933C03B0933D0380932003DB
:1009900090932103A0932203B09323038AE590E070
:1009A00090935D0380935C0387E090E062E170E0E8
:1009B00044E050E022EC30E005E010E0BFE9EB2E2F
:1009C000F12CA2E3CA2ED12CF2E3AF2EB12C0E945F
:1009D000DF5210925D0310925C03C630D10589F49A
:1009E00080E090E06AE270E040E050E022E330E036
:1009F0000CE310E00E943A3D86E290E06AE570E088
:100A00002FC0C730D105C9F480E090E060E770E006
:100A100040E050E022E330E00CE310E00E943A3D79
:100A200086E290E06AE570E04AE550E028E230E0D6
:100A30000EEC1FEF0E9445486FCFC930D105D9F4A5
:100A400080E090E06DE470E040E050E022E330E0D0
:100A50000CE310E00E943A3D83E290E066EA7FEF0B
:100A600040E050E028E230E00EEC1FEF0E944548E5
:100A70008EE091E034C1C330D105D9F48FE290E02B
:100A80006AE570E04AE550E02EE130E008E210E06F
:100A90000E94454810925D0310925C0380E090E054
:100AA0006FE370E040E050E022E330E004EC1FEF41
:100AB00031CFC430D10509F016C180E090E067E481
:100AC00070E040E050E028E230E002E310E00E94F5
:100AD0003A3D8AE290E06AE570E046E450E02EE1BB
:100AE00030E000E010E00E9445488CEE9FEF9093CC
:100AF0005D0380935C0380E090E062E470E040E09E
:100B000050E028E230E00EEC1FEF0E943A3D84E511
:100B100091E0E5C060E070E080EA91EC44E150E0F3
:100B20000E94744C8CEE9FEF90935D0380935C0366
:100B300083E790E067ED70E040E050E02CE330E0C8
:100B400006E410E00E943A3D84E190E068E270E043
:100B50004EE650E022E330E004EC1FEF0E94A9468D
:100B600010925D0310925C0380E090E061EF7FEFF4
:100B700040E050E02EE130E008E210E00E943A3D13
:100B800090925D0380925C0380E090E060E070E012
:100B900044E050E022EC30E005E010E0E3EAEE2E25
:100BA000F12CB2E3CB2ED12CAA24BB240E94DF521D
:100BB00040923A0350923B0360923C0370923D0393
:100BC00040922003509221036092220370922303EB
:100BD00090925D0380925C0387E090E060EA70E0B1
:100BE00044E050E022EC30E0AEE1AA2EB12C0E94AD
:100BF000DF5210925D0310925C03C230D10569F49C
:100C000080EE9FEF6AE070E040E050E028E230E0E4
:100C100006E910E00E943A3D2FC0C130D10589F5A8
:100C20008CE090E068E070E045E050E023E030E0E8
:100C300002E110E0EE24FF24F2E3CF2ED12CECE30E
:100C4000AE2EB12C0E94B3438AE090E068E070E0E1
:100C500048E250E023E030E0AA24BB240E94B343E2
:100C600080E290E06AE570E040E050E02DE230E0A4
:100C700009EC1FEF0E9445489092FF028092FE020D
:100C800032C08CE090E068E070E045E050E023E0A6
:100C900030E002E110E0EE24FF24B2E3CB2ED12CB1
:100CA000ACE3AA2EB12C0E94B3438AE090E068E046
:100CB00070E04BE650E023E030E0AA24BB240E9421
:100CC000B34383E290E06AE570E04AE550E02DE24C
:100CD00030E009EC1FEF0E94454884EB90E09093D0
:100CE000FF028093FE020E94DF37DF91CF911F91B8
:100CF0000F91FF90EF90DF90CF90BF90AF909F90BB
:100D00008F907F906F905F904F900895A6EBB3E027
:100D1000E9ECF1E08D919D91181619062CF42081D3
:100D200031818217930741F4329683E0AA3CB807D9
:100D300089F721E030E002C020E030E0C9010895E9
:100D4000CF93DF9380E090E024E130E00DC0CD91BF
:100D5000DD9141915191C417D50729F443E0AA3C94
:100D6000B407A9F710C00196861797077CF4A6EB85
:100D7000B3E0829FF001839FF00D929FF00D11244C
:100D8000EC51FC4FE4CF21E030E002C020E030E045
:100D9000C901DF91CF910895AF92BF92CF92DF92B8
:100DA000EF92FF920F931F93CF93DF938C016B0110
:100DB0008091DD019091DE01481759070CF057C072
:100DC000FA01EE0FFF1FE85EF84F1183008306174C
:100DD000170771F45093DE014093DD01A0EDB3E0FD
:100DE000E8E1F7E084E101900D928150E1F73FC026
:100DF000E801CC0FDD1FFE01EC5FF84F81E090E0D1
:100E000091838083C00FD11FCC0FDD1FCC0FDD1F5E
:100E1000C152DE4F86E0E82EF12C5A010894A11C45
:100E2000B11C8991999197FD15C0FC01EE0FFF1F30
:100E3000EC5FF84F208131812115310559F4209163
:100E4000C7013091C8018217930721F0B601A501AF
:100E50000E94CC060894E108F108E114F10409F7B6
:100E6000F801EE0FFF1FEC5FF84F11821082DF9147
:100E7000CF911F910F91FF90EF90DF90CF90BF9097
:100E8000AF900895262F372FF90120E030E007C0FA
:100E9000619171918617970741F02F5F3F4F24179B
:100EA0003507B4F320E030E002C021E030E0C901B2
:100EB00008952AE030E03093DE012093DD0124E143
:100EC000E4E0F7E0DF011D922A95E9F740E050E009
:100ED0000E94CC0621E030E08091DD019091DE019E
:100EE0008A30910511F420E030E0C90108954F9255
:100EF0005F926F927F928F929F92AF92BF92CF92AA
:100F0000DF92EF92FF920F931F93CF93DF934C01E9
:100F10006B01EA01890180912C0790912D074817F8
:100F200059070CF0A1C08091020390910303009730
:100F300009F09AC0C901BA010E94A006009731F0D9
:100F40002FEF82162FEF920609F08EC0BEE2EB2E35
:100F5000B7E0FB2EFE01EE0FFF1FEE0DFF1DD1824D
:100F6000C0820E9486060097E9F4C601880F991F87
:100F70007801E80EF91E8C0D9D1D880F991F880FB2
:100F8000991F7FEDA72E71E0B72EA80EB91E6BEE4C
:100F9000462E61E0562E480E591E3E010894611CF3
:100FA000711C5BC0D0932D07C0932C0781E090E0AB
:100FB000909303038093020324E633E02196CC0F41
:100FC000DD1FC901B701AE010E94BF5A4DC0F50136
:100FD000619171915F0177FD3DC068157905D1F18F
:100FE0008091C5019091C6016817790799F18091A8
:100FF000C7019091C8016817790761F1F7018081F5
:1010000091819093630380936203EB01CC0FDD1F0A
:10101000C00FD11F88819981918380838091620361
:101020009091630399838883C601A30198010E946C
:101030007707F70180819181909363038093620326
:101040008881998191838083809162039091630369
:1010500099838883A414B50439F080910203909198
:101060000303009709F4B3CFDF91CF911F910F9144
:10107000FF90EF90DF90CF90BF90AF909F908F90B8
:101080007F906F905F904F900895FC01EE0FFF1FCF
:10109000E80FF91FEE0FFF1FEE0FFF1FE152FE4F8B
:1010A00020E030E0819191918617970711F4C901F2
:1010B00008952F5F3F4F26303105A1F70895209105
:1010C000FE023091FF02AC01421B530B9A0157FF05
:1010D00004C044275527421B530B453B510544F0A0
:1010E000121613061CF42856314002C028593E4FF0
:1010F0009093FF028093FE02C9010895AF92BF92C0
:10110000CF92DF92EF92FF920F931F93CF93DF93D3
:101110008230910509F081C087EE9FEF0E945F0841
:101120009C01B901882777FD8095982F0E94125C59
:101130004CE350E00E94744CC7EEDFEFD0935D03A8
:10114000C0935C038CEE9FEF60E070E040E050E005
:1011500022E330E00CE310E00E943A3D81E490E0AD
:1011600090935D0380935C038CEE9FEF6CE370E0E3
:1011700040E050E022E330E000E010E00E9445480B
:1011800010925D0310925C0380E090E06AE17FEFD3
:1011900040E050E022E330E00E943A3DD0935D030E
:1011A000C0935C0383EF9FEF68EF7FEF49E150E06E
:1011B00028E230E00EEC1FEF0E94A94680E090E0AC
:1011C000DC0180933A0390933B03A0933C03B093DC
:1011D0003D038093200390932103A0932203B093B7
:1011E00023038AE590E090935D0380935C0382E0A3
:1011F00090E066ED70E044E050E022EC30E005E085
:1012000010E0A3EAEA2EF12CF2E3CF2ED12CEEE18E
:10121000AE2EB12C0E94DF5212C38130910509F02D
:1012200045C087EE9FEF0E945F089C01B9018827A7
:1012300077FD8095982F0E94125C4CE350E00E944D
:10124000744CC7EEDFEFD0935D03C0935C0380E086
:1012500090E064EC7FEF40E050E022E330E00CE30C
:1012600010E00E943A3D8CEE9FEF67EE7FEF40E08A
:1012700050E022E330E000E010E00E944548109288
:101280005D0310925C0380E090E069E77FEF40E04F
:1012900050E022E330E00E943A3DD0935D03C093DA
:1012A0005C0381EF9FEF67EE7FEFD9C0009709F0F5
:1012B0008EC084E190E00E945F089C01B9018827FC
:1012C00077FD8095982F0E94125C4CE350E00E94BD
:1012D000744C84E190E090935D0380935C038BEF0A
:1012E0009FEF60E070E040E050E02EE130E008E287
:1012F00010E00E943A3D8CE090E063E070E04BEF3C
:101300005FEF23E030E002E110E0EE24FF24B2E3DF
:10131000CB2ED12CACE3AA2EB12C0E94B3438AE091
:1013200090E063E070E040EB5FEF25E030E0AA245E
:10133000BB240E94B34386EE9FEF6AE570E040E075
:1013400050E022E330E000E010E00E9445488AEBE4
:101350009FEF90935D0380935C038CEE9FEF66EAB2
:101360007FEF43ED5FEF2EE130E00E944548C7EE8E
:10137000DFEFD0935D03C0935C038CEE9FEF67EECD
:101380007FEF40E050E028E230E00E9445481092B4
:101390005D0310925C0380E090E064EC7FEF40E03E
:1013A00050E022E330E00E943A3DD0935D03C093C9
:1013B0005C038CEE9FEF6CEE7FEF49E150E02DE295
:1013C00030E009EC1FEFFCE3EF2EF12CEFC083308F
:1013D000910509F04BC087EE9FEF0E945F089C01CA
:1013E000B901882777FD8095982F0E94125C4CE305
:1013F00050E00E94744CC7EEDFEFD0935D03C093C2
:101400005C0380E090E064EC7FEF40E050E022E39A
:1014100030E00CE310E00E943A3D8CEE9FEF67EE67
:101420007FEF40E050E022E330E000E010E00E9477
:10143000454810925D0310925C0380E090E064ECFC
:101440007FEF40E050E022E330E00E943A3DD0934D
:101450005D03C0935C0382EF9FEF63EE7FEF49E192
:1014600050E028E230E00EEC1FEFE7C18430910538
:10147000E9F587EE9FEF0E945F089C01B90188277C
:1014800077FD8095982F0E94125C4CE350E00E94FB
:10149000744CC7EEDFEFD0935D03C0935C038CEE1A
:1014A0009FEF60E070E040E050E022E330E00CE3CA
:1014B00010E00E943A3D81E490E090935D038093B8
:1014C0005C038CEE9FEF6CE370E040E050E022E3C1
:1014D00030E000E010E00E94454810925D03109259
:1014E0005C0380E090E064E77FEFA3C08530910566
:1014F00009F05FC084E190E00E945F089C01B9019F
:10150000882777FD8095982F0E94125C4CE350E06D
:101510000E94744C84E190E090935D0380935C039F
:101520008BEF9FEF60E070E040E050E02EE130E0B4
:1015300008E210E00E943A3D8CE090E063E070E049
:101540004BEF5FEF23E030E002E110E0EE24FF24F8
:10155000E2E3CE2ED12CBCE3AB2EB12C0E94B343E0
:101560008AE090E063E070E04EEC5FEF25E030E071
:10157000AA24BB240E94B3438CEF9FEF63E070E08A
:1015800048E15CEF25E030E0A4E1EA2EF12C0E9476
:10159000B34380E090E064EF7FEF4CEE5FEF22E337
:1015A00030E004EC1FEFF8E2EF2EF12C0E94D44D56
:1015B00046C18630910509F04BC087EE9FEF0E942F
:1015C0005F089C01B901882777FD8095982F0E94BC
:1015D000125C4CE350E00E94744CC7EEDFEFD093F6
:1015E0005D03C0935C038CEE9FEF60E070E040E031
:1015F00050E022E330E00CE310E00E943A3D81E449
:1016000090E090935D0380935C038CEE9FEF6CE31E
:1016100070E040E050E022E330E000E010E00E94A3
:10162000454810925D0310925C0380E090E06FEB00
:101630007FEF40E050E022E330E00E943A3DD0935B
:101640005D03C0935C0383EF9FEF68EF7FEF07CFED
:101650008730910509F068C080E090E00E945F0843
:101660009C01B901882777FD8095982F0E94125C14
:101670004CE350E00E94744C8DED9FEF66EA7FEFE3
:1016800048ED5FEF22E330E00CE310E00E944548B4
:1016900082E390E090935D0380935C0380E090E0B0
:1016A0006CEE7FEF42EE5FEF22E330E000E010E00F
:1016B0000E94A94684E190E090935D0380935C03CF
:1016C00084E090E06CE070E040E150E020E030E049
:1016D0000EEC1FEFE2E3EE2EF12CCC24DD240E9471
:1016E000C15084E090E06CE070E040E150E02EE119
:1016F00030E008E11CEF0E94C1508EEE9FEF6AE5DA
:1017000070E042E350E028E230E000E010E00E94A8
:1017100045488CEE9FEF90935D0380935C0380E0DF
:1017200090E06CEE7FEF83C08830910509F580E092
:1017300090E00E945F089C01B901882777FD8095A1
:10174000982F0E94125C4CE350E00E94744C10925F
:101750005D0310925C0388ED9FEF66EF7FEF40E042
:1017600050E02EE130E00CE810E00E943A3D6BC002
:101770008930910509F067C08AEB9FEF0E945F08EE
:101780009C01B901882777FD8095982F0E94125CF3
:101790004CE350E00E94744C8AEB9FEF90935D0302
:1017A00080935C0383E290E06AE570E040E050E003
:1017B00022E330E00CE310E00E94454884E190E031
:1017C00090935D0380935C0384E090E06CE070E0B4
:1017D00040E150E020E030E00EEC1FEFB2E3EB2EF2
:1017E000F12CCC24DD240E94C15084E090E06CE018
:1017F00070E040E150E02EE130E008E11CEF0E9493
:10180000C1508EEE9FEF6AE570E042E350E028E2BF
:1018100030E000E010E00E9445488CEE9FEF90938E
:101820005D0380935C0380E090E06EEE7FEF44E127
:1018300050E022E330E004EC1FEF0E94A946109232
:101840005D0310925C030E94DF3783E090E063E069
:1018500070E040E050E02AE030E008E710E00E944D
:101860003A3D80E090E0DC0180933A0390933B03A3
:10187000A0933C03B0933D038093200390932103F6
:10188000A0932203B09323038AE590E090935D0335
:1018900080935C0382E090E066ED70E044E050E00D
:1018A00022EC30E005E010E0A3EAEA2EF12CF2E3AE
:1018B000CF2ED12CEEE1AE2EB12C0E94DF52109231
:1018C0005D0310925C03DF91CF911F910F91FF9008
:1018D000EF90DF90CF90BF90AF900895EF92FF927E
:1018E0000F931F9380E090E062E070E040E050E0F2
:1018F00020E030E00AE010E0B8E7EB2EF12C0E9487
:101900001D41009709F046C080E090E06CEF7FEF4A
:1019100040E050E020E030E00E941D410097D1F50A
:1019200080E090E066E070E040E050E020E030E0F1
:101930000E941D41009771F580E090E068EF7FEF15
:1019400040E050E020E030E00E941D41009711F59A
:1019500080E090E06AE070E040E050E020E030E0BD
:101960000E941D410097B1F480E090E064EF7FEFAA
:1019700040E050E020E030E00E941D41009751F42B
:1019800080E090E06EE070E040E050E020E030E089
:101990000E941D411F910F91FF90EF9008954F926B
:1019A0005F926F927F928F929F92AF92BF92CF92EF
:1019B000DF92EF92FF920F931F93CF93DF932C014F
:1019C00060E070E084EB92EC44E650E00E94744CDE
:1019D0008EEF9FEF62E070E040E050E02AE030E000
:1019E00008E710E00E943A3D0F2EF0E06F2EF0E085
:1019F0007F2EF0E08F2EF0E09F2EF02D60923A03C4
:101A000070923B0380923C0390923D0360922003CE
:101A1000709221038092220390922303CAE5D0E0C2
:101A2000D0935D03C0935C0387E090E060EA70E0D0
:101A300044E050E022EC30E005E010E0A3EAEA2EBA
:101A4000F12CF2E3CF2ED12CEEE1AE2EB12C0E9480
:101A5000DF5210925D0310925C034114510409F0AF
:101A600060C160E070E080E291E44AE050E00E94F2
:101A7000744CBAE04B2E512C50925D0340925C03A3
:101A800088E89FEF60E070E040E050E022E330E063
:101A90000CE310E00E943A3D80EB9FEF90935D03D2
:101AA00080935C0382E090E06EE070E042E150E001
:101AB00024E130E008EE13E0A2E3EA2EF12CCC247E
:101AC000DD240E94C15050925D0340925C0386EF7A
:101AD0009FEF60E070E046EF5FEF22E330E004EC60
:101AE0001FEF0E94A94660923A0370923B038092D6
:101AF0003C0390923D0360922003709221038092F8
:101B0000220390922303D0935D03C0935C0380E093
:101B100090E060E070E044E050E022EC30E005E06E
:101B200010E0F3EAEF2EF12CE2E3CE2ED12CAA2422
:101B3000BB240E94DF52D0935D03C0935C0382E01C
:101B400090E060EA70E044E050E022EC30E0B4E184
:101B5000AB2EB12C0E94DF5210925D0310925C03F9
:101B60008CE090E061E070E045E050E023E030E0A0
:101B70000EE010E0EE24FF24AEE1CA2ED12CF8E2F4
:101B8000AF2EB12C0E94B3438AE090E061E070E098
:101B90004FE050E023E030E0AA24BB240E94B3438E
:101BA00080E090E06EE170E04CE95FEF2EE130E024
:101BB00008ED1FEFE4E6EE2EF12C0E94D44D80E5F7
:101BC00090E090935D0380935C038CE090E066E08E
:101BD00070E045E050E023E030E002E110E0EE2468
:101BE000FF24B8E2CB2ED12CA2E3AA2EB12C0E9466
:101BF000B3438AE090E066E070E045E050E025E025
:101C000030E0AA24BB240E94B34389EF9FEF66E033
:101C100070E048EE53E025E030E0F4E1EF2EF12CE7
:101C20000E94B34380E090E06CE070E04AE050E056
:101C300028E230E00EEC1FEF0E94A94660923A03C2
:101C400070923B0380923C0390923D03609220038C
:101C5000709221038092220390922303D0935D031C
:101C6000C0935C0380E090E060E070E044E050E00E
:101C700022EC30E005E010E0E3EAEE2EF12CB2E3D6
:101C8000CB2ED12C0E94DF5260923A0370923B031C
:101C900080923C0390923D03609220037092210356
:101CA0008092220390922303D0935D03C0935C0340
:101CB00087E090E060EA70E044E050E022EC30E041
:101CC000AEE1AA2EB12C0E94DF5210925D03109259
:101CD0005C0360E070E080EA91EC44E150E00E9437
:101CE000744C8CEE9FEF90935D0380935C0380E0D7
:101CF00090E066E270E040E050E028E230E002E38D
:101D000010E00E943A3D84E090E068E270E04AEB27
:101D10005FEF28E230E00EEC1FEFF0E5EF2EF12C44
:101D20002BC281E04816510409F08DC08AEB9FEF69
:101D300060E070E040E050E022E330E00CE310E0CF
:101D40000E943A3D80E090E068E17CEF40E050E0A6
:101D500020E030E002E310E0EE24FF240E941D4169
:101D60008BEF9FEF60E070E040E050E028E230E071
:101D70000EEC1FEF0E943A3D80E090E06AE070E0D8
:101D800040E050E020E030E00AE010E0E8E7EE2E2E
:101D9000F12C0E941D418AE090E060E070E044E197
:101DA00050E02EE130E008E210E00E94E55680E0CD
:101DB00090E06EE170E046EA5FEF2EE130E008ED82
:101DC0001FEFB0E5EB2EF12C0E94D44D80E090E0A7
:101DD00060E070E046EA5FEF20E530E008E710E001
:101DE0000E943A3D60923A0370923B0380923C031A
:101DF00090923D036092200370922103809222030F
:101E000090922303D0935D03C0935C0380E090E045
:101E100060E070E044E050E022EC30E005E010E0EB
:101E2000A3EAEA2EF12CF2E3CF2ED12CAA24BB2474
:101E30000E94DF5210925D0310925C030E946E0CB0
:101E400087EE9FEF91C082E04816510409F097C0D9
:101E500088ED9FEF60E070E040E050E028E230E085
:101E600002E310E00E943A3D80E090E06CE97FEFF1
:101E700040E050E020E030E008E210E0EE24FF24F3
:101E80000E941D418BEF9FEF60E070E040E050E06A
:101E900028E230E00EEC1FEF0E943A3D80E090E037
:101EA0006AE070E040E050E020E030E00AE010E05E
:101EB000E8E7EE2EF12C0E941D418AE090E060E000
:101EC00070E044E150E02EE130E008E210E00E94D2
:101ED000E55680E090E06EE170E04AE550E02EE1EA
:101EE00030E008ED1FEFB0E5EB2EF12C0E94D44D51
:101EF00080E090E060E070E04AE550E020E530E00E
:101F000008E710E00E943A3D60923A0370923B036A
:101F100080923C0390923D036092200370922103D3
:101F20008092220390922303D0935D03C0935C03BD
:101F300080E090E060E070E044E050E022EC30E0CF
:101F400005E010E0A3EAEA2EF12CF2E3CF2ED12C2B
:101F5000AA24BB240E94DF5210925D0310925C03FE
:101F60000E946E0C89E190E062E370E040E050E096
:101F700028E230E006E910E00E943A3D03C1D09328
:101F80005D03C0935C0387E090E068E770E044E0A5
:101F900050E022EC30E005E010E0E3EAEE2EF12C18
:101FA000B2E3CB2ED12CA4E1AA2EB12C0E94DF5299
:101FB00010925D0310925C038CE090E068E070E0AA
:101FC00045E050E023E030E002E110E0EE24FF24A1
:101FD000FEE1CF2ED12CE8E2AE2EB12C0E94B3430D
:101FE0008AE090E068E070E04FE050E023E030E00D
:101FF000AA24BB240E94B34380E090E06EE170E02D
:1020000044E650E02EE130E008ED1FEFB4E6EB2EA1
:10201000F12C0E94D44D80EB9FEF90935D03809351
:102020005C038CE090E063E070E045E050E023E08A
:1020300030E00EE010E0EE24FF24A8E2CA2ED12CFE
:10204000F2E3AF2EB12C0E94B3438AE090E063E04C
:1020500070E045E050E025E030E0AA24BB240E9477
:10206000B3438EEF9FEF63E070E048EE53E025E06E
:1020700030E0E4E1EE2EF12C0E94B34380E090E0EA
:102080006CE070E046EF5FEF28E230E00EEC1FEF0F
:102090000E94A94660923A0370923B0380923C03EF
:1020A00090923D036092200370922103809222035C
:1020B00090922303D0935D03C0935C0380E090E093
:1020C00060E070E044E050E022EC30E005E010E039
:1020D000B3EAEB2EF12CA2E3CA2ED12C0E94DF52E0
:1020E00060923A0370923B0380923C0390923D03CE
:1020F0006092200370922103809222039092230326
:10210000D0935D03C0935C0382E090E066ED70E0E5
:1021100044E050E022EC30E0FEE1AF2EB12C0E9412
:10212000DF5210925D0310925C0360E070E080EA81
:1021300091E444E150E00E94744C84E190E090937B
:102140005D0380935C0380E090E066E270E040E035
:1021500050E028E230E002E310E00E943A3D8CEFCC
:102160009FEF68E270E046E450E028E230E00EECD9
:102170001FEFE4E6EE2EF12C0E94D44D10925D0389
:1021800010925C030E94DF37DF91CF911F910F9176
:10219000FF90EF90DF90CF90BF90AF909F908F9087
:1021A0007F906F905F904F900895EF92FF920F9302
:1021B0001F93CF93DF930E94D8018DB79EB70A97E4
:1021C0000FB6F8949EBF0FBE8DBFEDB7FEB7319628
:1021D000C1E3D8E0ADB7BEB71296DC93CE931197AA
:1021E00000E011E0138302838091B1019091B2016C
:1021F000958384838091B3019091B4019783868302
:102200008091B5019091B601918780870E94C85A4C
:102210008DB79EB70A960FB6F8949EBF0FBE8DBFBE
:1022200080E060E0AE010E946701ADB7BEB71897CD
:102230000FB6F894BEBF0FBEADBFEDB7FEB7319677
:102240001296DC93CE931197B9E0EB2EB1E0FB2E02
:10225000F382E2828091B7019091B80195838483E3
:102260008091B9019091BA01978386830E94C85AE0
:102270008DB79EB708960FB6F8949EBF0FBE8DBF60
:1022800081E060E0AE010E946701ADB7BEB71A976A
:102290000FB6F894BEBF0FBEADBFEDB7FEB7319617
:1022A0001296DC93CE931197138302838091BB0126
:1022B0009091BC01958384838091BD019091BE0172
:1022C000978386838091BF019091C0019187808719
:1022D0000E94C85A8DB79EB70A960FB6F8949EBF53
:1022E0000FBE8DBF82E060E0AE010E946701ADB716
:1022F000BEB718970FB6F894BEBF0FBEADBFEDB70F
:10230000FEB731961296DC93CE931197F382E28258
:102310008091C1019091C201958384838091C30112
:102320009091C401978386830E94C85A8DB79EB747
:1023300008960FB6F8949EBF0FBE8DBF83E060E095
:10234000AE010E946701DF91CF911F910F91FF9025
:10235000EF900895EF92FF920F931F93CF93DF9327
:102360000E94D8018DB79EB70A970FB6F8949EBF0A
:102370000FBE8DBFEDB7FEB73196C1E3D8E0ADB764
:10238000BEB71296DC93CE93119700E011E0138351
:1023900002838091C9019091CA01958384838091C1
:1023A000CB019091CC01978386838091CD01909150
:1023B000CE01918780870E94C85A8DB79EB70A9632
:1023C0000FB6F8949EBF0FBE8DBF80E060E0AE01F7
:1023D0000E946701ADB7BEB718970FB6F894BEBF9D
:1023E0000FBEADBFEDB7FEB731961296DC93CE931C
:1023F000119789E0E82E81E0F82EF382E282809145
:10240000CF019091D001958384838091D1019091E7
:10241000D201978386830E94C85A8DB79EB70896CB
:102420000FB6F8949EBF0FBE8DBF81E060E0AE0195
:102430000E946701ADB7BEB71A970FB6F894BEBF3A
:102440000FBEADBFEDB7FEB731961296DC93CE93BB
:102450001197138302838091D3019091D4019583C6
:1024600084838091D5019091D60197838683809152
:10247000D7019091D801918780870E94C85A8DB763
:102480009EB70A960FB6F8949EBF0FBE8DBF82E02E
:1024900060E0AE010E946701ADB7BEB718970FB6F6
:1024A000F894BEBF0FBEADBFEDB7FEB73196129622
:1024B000DC93CE931197F382E2828091D9019091BF
:1024C000DA01958384838091DB019091DC0197830D
:1024D00086830E94C85A8DB79EB708960FB6F894A7
:1024E0009EBF0FBE8DBF83E060E0AE010E9467011A
:1024F000DF91CF911F910F91FF90EF900895CF92B0
:10250000DF92EF92FF920F931F938AE090E060E0DA
:1025100070E04AE050E02EE130E008E210E00E9476
:10252000E55684E090E060E070E048EE53E02EE194
:1025300030E000E010E00E94E55680912C0380E03E
:1025400090E069E170E044EB50E02EE130E008ED0E
:102550001FEFFCE3EF2EF12CE2E8CE2ED12C0E94EF
:10256000494A0E946E0C80E090E0DC01809386076F
:1025700090938707A0938807B093890720918607D7
:1025800030918707409188075091890720938207EF
:1025900030938307409384075093850720918207E7
:1025A00030918307409184075091850720937E07DF
:1025B00030937F0740938007509381078093920761
:1025C00090939307A0939407B093950780919207F7
:1025D00090919307A0919407B091950780938E07EF
:1025E00090938F07A0939007B09391078AE090E0B3
:1025F00060E070E04AE050E02EE130E008E210E0F8
:102600000E94E55684E090E060E070E048EE53E020
:102610002EE130E000E010E00E94E55680E090E01E
:1026200061E070E040E050E02EE130E008ED1FEFA7
:102630000E943A3D609182077091830780918407E0
:1026400090918507905820E030E040EA50E40E94E5
:10265000F85A0E94DF5B9B01AC0180E090E0B90179
:1026600040E050E02EE130E00CE810E00E943A3DFE
:102670008091FE029091FF028C549F4F68E671E0BA
:102680000E9474619093FF028093FE021F910F914C
:10269000FF90EF90DF90CF9008954F925F926F92EE
:1026A0007F928F929F92AF92BF92CF92DF92EF92E2
:1026B000FF920F931F93CF93DF934C017B012A016D
:1026C00039010E94D8018DB79EB708970FB6F894CC
:1026D0009EBF0FBE8DBFEDB7FEB73196C1E3D8E008
:1026E000ADB7BEB71296DC93CE93119780E191E01F
:1026F0009383828395828482F782E6820E94C85AFD
:10270000EDB7FEB738960FB6F894FEBF0FBEEDBF1B
:1027100081E061E0AE010E94670100D000D000D0EE
:10272000EDB7FEB73196ADB7BEB71296DC93CE9338
:1027300011971EE1A12E11E0B12EB382A2828091E9
:10274000FE029091FF02958384830E94C85AEDB7E0
:10275000FEB736960FB6F894FEBF0FBEEDBF82E00F
:1027600060E0AE010E946701C401B7010E94450804
:102770006C01FC01EE0FFF1FEB55FE4F8081918134
:102780000E945F08AC0180E090E060E070E024E629
:1027900030E008E710E00E943A3D80E090E065E01C
:1027A00070E040E050E024E130E002E810E00E94F8
:1027B0003A3D0E946E0C0E94DF3700D000D000D05E
:1027C000EDB7FEB73196ADB7BEB71296DC93CE9398
:1027D0001197B382A2828091FE029091FF029583AD
:1027E00084830E94C85AEDB7FEB736960FB6F894A8
:1027F000FEBF0FBEEDBF82E060E0AE010E94670148
:102800005701AA0CBB1CA60CB71CD5018D919C913D
:1028100011971816190634F4C401B701A3010E94D8
:102820007F1246C0C701B2010E944508EC018AE050
:1028300090E060E070E04AE050E02EE130E008E235
:1028400010E00E94E55684E090E060E070E048EE21
:1028500053E02EE130E000E010E00E94E556CC1598
:10286000DD05D1F0CC0FDD1FCB55DE4F888199817E
:102870000E945F08AC0180E090E06BE170E02EE127
:1028800030E008ED1FEFE4E6EE2EF12CB8E7CB2E9A
:10289000D12C0E94494A0CC080E090E06BE170E0CE
:1028A00040E050E02EE130E008ED1FEF0E943A3D9D
:1028B000F401EE0FFF1FE60DF71D808191819093CB
:1028C000630380936203D5018D919C91119791834D
:1028D0008083809162039091630311969C938E9301
:1028E000DF91CF911F910F91FF90EF90DF90CF90EC
:1028F000BF90AF909F908F907F906F905F904F9020
:1029000008952F923F924F925F926F927F928F9293
:102910009F92AF92BF92CF92DF92EF92FF920F936E
:102920001F93DF93CF93CDB7DEB764970FB6F894BC
:10293000DEBF0FBECDBF0E94E7008EE161E00E94C6
:10294000B1008EE165E00E94B1008EE164E10E9479
:10295000B1008EE160E10E94B1000E94AB598BE0B2
:102960000E94E35982E30E94213880E063E10E94E3
:10297000C5598823D1F30FEF1FE726E1015010401E
:102980002040E1F700C0000080E090E0DC0180938F
:10299000860790938707A0938807B09389072091B3
:1029A00086073091870740918807509189072093C7
:1029B00082073093830740938407509385072091C3
:1029C00082073091830740918407509185072093B7
:1029D0007E0730937F074093800750938107809351
:1029E000920790939307A0939407B09395078091D3
:1029F000920790919307A0919407B09195078093C7
:102A00008E0790938F07A0939007B0939107C39A76
:102A10002FEF3FE744E0215030404040E1F700C055
:102A20000000C398B1E38B2EB8E09B2EB49914C07C
:102A30008091FA029091FB0201979093FB028093A0
:102A4000FA02C39A4FEF5FE764E0415050406040A4
:102A5000E1F700C00000C398B69914C08091FA0253
:102A60009091FB0201969093FB028093FA02C39A25
:102A70006FEF7FE784E0615070408040E1F700C075
:102A80000000C398B59915C50E94D801C39A8FEF6D
:102A90009FE7A4E081509040A040E1F700C0000013
:102AA000C3988091FA029091FB028230910509F45B
:102AB000DBC083309105BCF4AFEF8E3F9A0709F479
:102AC00045C1BFEF8F3F9B075CF4EFEF8C3F9E0744
:102AD00009F498C4FFEF8D3F9F0709F0EAC439C39A
:102AE00097FF1AC0E6C48530910509F4D8C1863035
:102AF00091054CF48330910509F419C18430910596
:102B000009F0D7C46CC18630910509F407C288303A
:102B1000910509F0CEC4C7C480E090E067EE7FEF76
:102B200040E050E02EE130E00CE810E00E943A3D39
:102B300080E090E0DC0180933A0390933B03A09304
:102B40003C03B0933D038093200390932103A09313
:102B50002203B09323038AE590E090935D03809372
:102B60005C0380E090E060E070E044E050E022EC44
:102B700030E005E010E0A3EAEA2EF12CF2E3CF2EDC
:102B8000D12CAA24BB240E94DF5210925D03109224
:102B90005C0380E090E069E170E040E050E02EE10D
:102BA00030E00CE810E00E943A3D87EE9FEF60E0D5
:102BB00070E048E250E02EE130E0E0E5EE2EF12C4E
:102BC0000E94D44D88E290E090935D0380935C0373
:102BD0008FE090E060E070E04CEE5FEF2EE130E0DF
:102BE000B8E2EB2EF12C0E94D44D84E190E090935A
:102BF0005D0380935C0360E070E048ED5FEF28E2E6
:102C000030E006E910E0A0E5EA2EF12C0E94D44D58
:102C10008CEE9FEF90935D0380935C038FE090E0D8
:102C200060E070E04CEE5FEF2EE130E00CE810E089
:102C3000F8E2EF2EF12C0E94D44D88ED9FEF909397
:102C40005D0380935C0387EE9FEF60E070E048E2F5
:102C500050E02EE130E0ECE3EE2EF12C0E94D44D5A
:102C600010925D0310925C0380E090E067EE7FEFCE
:102C700040E050E02EE130E00CE810E00E943A3DE8
:102C800080E090E0DC0180933A0390933B03A093B3
:102C90003C03B0933D038093200390932103A093C2
:102CA0002203B09323038AE590E090935D03809321
:102CB0005C0380E090E060E070E044E050E022ECF3
:102CC00030E005E010E0B3EAEB2EF12CA2E3CA2ECF
:102CD000D12CAA24BB240E94DF5210925D031092D3
:102CE0005C0380E090E067E370E040E050E022E3C6
:102CF00030E00CE310E00E943A3D80E090E060E0BC
:102D000070E048EE53E020E030E002E310E0EE2413
:102D1000FF240E941D4180E090E062E170E040E00D
:102D200050E022E330E004EC1FEF0E943A3D80E0E7
:102D300090E06EE170E040E550E028E230E006E926
:102D400010E0F0E5EF2EF12C0E94D44D86EF9FEFBE
:102D500090935D0380935C0380E090E063E270E019
:102D600040E050E028E230E002E310E00E943A3D0B
:102D70008EEF9FEF6AE270E044E650E02EE130E033
:102D800008ED1FEF0E94A94610925D0310925C03AC
:102D900080E090E0DC0180933A0390933B03A093A2
:102DA0003C03B0933D038093200390932103A093B1
:102DB0002203B093230380E090E060E070E046E0FF
:102DC00050E02EE930E008E010E0E6E7EE2EF12CCE
:102DD000BEE1CB2ED12CAA24BB240E94DF5260E09E
:102DE00070E084EB92E444E650E00E94744C80E092
:102DF00090E062E070E040E050E02AE030E008E778
:102E000010E00E943A3D80E090E0DC0180933A03BC
:102E100090933B03A0933C03B0933D038093200326
:102E200090932103A0932203B09323038AE590E0BB
:102E300090935D0380935C0387E090E062E170E033
:102E400044E050E022EC30E005E010E0AFE9EA2E8B
:102E5000F12CF2E3CF2ED12CE2E3AE2EB12C0E9466
:102E6000DF5210925D0310925C0360E070E080EA34
:102E700091E444E150E00E94744C84E190E090932E
:102E80005D0380935C0380E090E064E670E040E0E6
:102E900050E022E330E000EA10E00E943A3D84E195
:102EA00090E090935D0380935C0382E090E062E3A6
:102EB00070E042E95FEF28E230E006E910E00E94AE
:102EC000A94610925D0310925C0380E090E0DC0163
:102ED00080933A0390933B03A0933C03B0933D034C
:102EE0008093200390932103A0932203B0932303A4
:102EF00080E090E060E070E041E050E022EA30E005
:102F000003E010E0B6E8EB2EF12CAEE1CA2ED12C96
:102F1000AA24BB240E94DF520E94DF3760E070E0E9
:102F200084EB92EC44E650E00E94744C80E090E028
:102F300062E070E040E050E02AE030E008E710E0B6
:102F40000E943A3D0F2EF0E04F2EF0E05F2EF0E0B1
:102F50006F2EF0E07F2EF02D40923A0350923B030B
:102F600060923C0370923D034092200350922103F3
:102F70006092220370922303FAE52F2E312C3092B7
:102F80005D0320925C0380E090E060E070E044E04C
:102F900050E022EC30E005E010E0E3EAEE2EF12C08
:102FA000B2E3CB2ED12CAA24BB240E94DF52409244
:102FB0003A0350923B0360923C0370923D0340926F
:102FC00020035092210360922203709223033092D7
:102FD0005D0320925C0382E090E064E170E044E0F5
:102FE00050E022EC30E0AFE9EA2EF12CF2E3AF2E14
:102FF000B12C0E94DF5210925D0310925C0382E0BC
:1030000090E06EE170E046EA5FEF2EE130E00CE820
:1030100010E0E4E6EE2EF12C0E94D44D80ED9FEFFF
:103020006EE670E04EE150E022E330E000EA10E0AE
:10303000BAE0EB2EF12C0E94D44D8EE190E09093FB
:103040005D0380935C0360E070E080EF91EC48E208
:1030500050E00E94744C60E070E080EF91EC48E238
:1030600050E00E94744C82EE9FEF90935D0380933A
:103070005C038DED9FEF6AEB7FEF4EE150E028E2BD
:1030800030E006E910E00E94D44D10925D031092EA
:103090005C0388ED9FEF60EB7FEF40E050E022E3C0
:1030A00030E000EA10E00E943A3D40923A0350922C
:1030B0003B0360923C0370923D0340922003509288
:1030C0002103609222037092230330925D032092C9
:1030D0005C0382E090E066ED70E044E050E022ECBA
:1030E00030E005E010E0A3EAEA2EF12CFEE1AF2E7D
:1030F000B12C0E94DF5210925D0310925C030E947B
:10310000D5108091FA029091FB02009731F00E9455
:10311000DF37B59BFECFB599FECF0E94AA118091F3
:10312000FA029091FB02009731F00E94DF37B59BC5
:10313000FECFB599FECF0E94DF378091FA029091C1
:10314000FB02009731F00E94DF37B59BFECFB599A7
:10315000FECF6091C5017091C6010091C701109129
:10316000C801409104035091050320910003309160
:103170000103E1EB2E2EE1E03E2EF10180E090E034
:103180007B016081718161157105A1F48E159F0528
:1031900089F08017910771F0DA01AA0FBB1FA653BF
:1031A000BC4F11969C938E934F5F5F4F318320836A
:1031B00021503040019632968A30910511F7509394
:1031C0000503409304033093010320930003E0912F
:1031D000C501F091C601EE0FFF1FEF54FE4F808135
:1031E0009181009709F48EC00E948606009709F02D
:1031F00089C0A6EBB3E0E1EBF1E084E101900D9230
:103200008150E1F79AECE92E93E0F92E00E010E00E
:103210008AE0482E512C1FC06091C5017091C601F3
:10322000D7018D919D917D010E945907009789F0EA
:103230008091DD019091DE018415950554F4DE0145
:103240001196E0EDF3E024E101900D922150E1F7B9
:103250002C010F5F1F4F8091040390910503081705
:103260001907D4F289819A810E9407048E010F5FA9
:103270001F4FEE24FF2411C00E94D510F801819148
:1032800091918F010894E11CF11C60817181428150
:10329000538121EB31E00E944D13E414F50464F3F3
:1032A000A1EBB1E0E6EBF3E084E101900D928150F7
:1032B000E1F76091C7017091C8014091C50150913B
:1032C000C60120E030E080E090E0D101ED91FD9179
:1032D0001E161F067CF08617970761F08417950766
:1032E00049F0F901EE0FFF1FE653FC4F91838083F5
:1032F0002F5F3F4F01968A30910541F730930503C8
:103300002093040300E010E032C0A6EBB3E0E1EB51
:10331000F1E084E101900D928150E1F710932D07C7
:1033200000932C071092030310920203D2016D91B7
:103330007D912D018FEF9FEF40E050E026EB33E0D1
:103340000E94770780910203909103030097B1F4E4
:103350000894E11CF11C8091040390910503E81688
:10336000F9069CF20F5F1F4F0832110539F0BAECD5
:103370004B2EB3E05B2EEE24FF24EDCF0E94860699
:10338000009731F480916403909165030E940704D3
:1033900004E613E020E030E026C0D8018D919D9135
:1033A0008D0179010894E11CF11C6C9111967C91BE
:1033B000119731972E173F0719F44FEF5FEF02C0B7
:1033C000462F572F21EB31E00E944D138091FA02D6
:1033D0009091FB02009731F00E94DF37B59BFECF42
:1033E000B599FECF9701E0912C07F0912D072E178C
:1033F0003F079CF2EE0FFF1FEC59FC4F808191813B
:103400000E947E08F1EBEF2EF1E0FF2EE9EC4E2E4C
:10341000E1E05E2E00E010E0F70180819181181656
:103420001906A4F10115110581F40E9487020E947A
:10343000851C8091FA029091FB02009731F00E9466
:10344000DF37B59BFECFB599FECFD2014D915C9190
:103450001197E6E0F3E080E090E02191319142178E
:10346000530729F0019684309105B9F70FC0F70191
:1034700051834083FC01EE0FFF1FEA5FFC4F118276
:1034800010820E94CF0CC8010E94BF1F0F5F1F4F08
:1034900062E0C62ED12CEC0CFD1C4C0C5D1C0A30DD
:1034A000110509F0B9CF0E942B02B599FECFB59B4B
:1034B000FECF8091FA029091FB02009709F445C07B
:1034C00040912C0330912B0320912A0390913203D9
:1034D000809131030DB71EB70E5010400FB6F8940F
:1034E0001EBF0FBE0DBFEDB7FEB73196ADB7BEB76D
:1034F00012969C928E92119758E2C52E51E0D52ECD
:10350000D382C28244831582368317822087118634
:1035100092871386848715860E94C85A0DB71EB7F6
:10352000025F1F4F0FB6F8941EBF0FBE0DBF80E0A5
:1035300060E0A4010E94670130912D0320912E03C9
:1035400090912F038091300344C04091400330910B
:103550003F0320913E0390914603809145036DB750
:103560007EB76E5070400FB6F8947EBF0FBE6DBF31
:10357000EDB7FEB73196ADB7BEB712969C928E925C
:10358000119708E2C02E01E0D02ED382C28244837C
:103590001582368317822087118692871386848747
:1035A00015860E94C85A0DB71EB7025F1F4F0FB68F
:1035B000F8941EBF0FBE0DBF80E060E0A4010E9422
:1035C0006701309141032091420390914303809120
:1035D00044034DB75EB74C5050400FB6F8945EBFF1
:1035E0000FBE4DBFEDB7FEB73196ADB7BEB7129661
:1035F0009C928E92119711E4C12E11E0D12ED382AC
:10360000C28234831582268317829087118682872F
:1036100013860E94C85A0DB71EB7045F1F4F0FB61E
:10362000F8941EBF0FBE0DBF81E060E0A4010E94B0
:1036300067018091FA029091FB0297FF03C0909579
:1036400081959F4F69E070E00E9474619093FD0244
:103650008093FC020E94872F8091FC0266E60E9404
:10366000C559482E8091FC0267E60E94C559E82E94
:103670000091FC022090FD02802F68E60E94C5594F
:103680002DB73EB72C5030400FB6F8943EBF0FBE5A
:103690002DBFEDB7FEB73196ADB7BEB712969C926F
:1036A0008E921197B9E5CB2EB1E0DB2ED382C28288
:1036B0000483258246821782E086118682871386DC
:1036C0000E94C85A0DB71EB7045F1F4F0FB6F8947B
:1036D0001EBF0FBE0DBF82E060E0A4010E94670123
:1036E000E0919F07F091A0074091A1075091A20798
:1036F00020919D0730919E07A0905708B0905808E0
:10370000E0902B08F0902C084090A7075090A80755
:1037100020909B0730909C0760918E0770918F07D7
:103720008091900790919107ADB7BEB754970FB6AF
:10373000F894BEBF0FBEADBF0DB71EB70F5F1F4FD2
:1037400012969C928E921197ACE6CA2EA1E0DA2EC8
:10375000D8011396DC92CE9212971596FC93EE93B5
:10376000149717965C934E93169719963C932E9345
:1037700018971B96BC92AE921A971D96FC92EE92E9
:103780001C971F965C924E921E9751963C922E92D9
:1037900050970E94DF5BD80153967C936E935297AB
:1037A0000E94C85AEDB7FEB774960FB6F894FEBFE4
:1037B0000FBEEDBF83E060E0A4010E94670100D06E
:1037C00000D000D0EDB7FEB73196ADB7BEB71296B8
:1037D0009C928E92119702E8C02E01E0D02ED382E7
:1037E000C2828091FA029091FB02958384830E94A9
:1037F000C85A0DB71EB70A5F1F4F0FB6F8941EBF09
:103800000FBE0DBF83E060E1A4010E9467010EC9F5
:10381000EF92FF920F931F93CF93DF937C01EB0105
:1038200085E690E063E070E00E943338009709F489
:1038300065C003E010E080E062E10E94C559882382
:10384000D1F30E943F5880E063E10E94C55988236C
:10385000D1F380E090E0FC01EE0FFF1F9C0163E0DC
:10386000220F331F6A95E1F7E20FF31FE755F84F78
:103870002081318121153105A1F1228133812E1959
:103880003F0937FF03C0309521953F4F293131055E
:1038900044F5FC01EE0FFF1F9C0143E0220F331F94
:1038A0004A95E1F7E20FF31FE755F84F2481358180
:1038B0002C1B3D0B37FF03C0309521953F4F29311D
:1038C00031057CF4FC01EE0FFF1F13E0880F991FF8
:1038D0001A95E1F7E80FF91FE755F84F208131817C
:1038E0000BC001968930910509F0B5CF0150104009
:1038F00009F0A1CF20E030E0C90100C0DF91CF91F5
:103900001F910F91FF90EF900895AF92BF92CF92C9
:10391000DF92EF92FF920F931F93CF93DF9360E0BC
:1039200070E084EB92EC44E650E00E94744C8EEF21
:103930009FEF62E070E040E050E02AE030E008E70E
:1039400010E00E943A3D80E090E0DC0180933A0371
:1039500090933B03A0933C03B0933D0380932003DB
:1039600090932103A0932203B09323038AE590E070
:1039700090935D0380935C0387E090E060EA70E0E1
:1039800044E050E022EC30E005E010E0B3EAEB2E3A
:10399000F12CA2E3CA2ED12CFEE1AF2EB12C0E9455
:1039A000DF5210925D0310925C038CE790E068E8B0
:1039B00070E00E94081C90930D0380930C038EEC22
:1039C0009FEF60E070E040E050E02CE330E00AEA76
:1039D00010E00E943A3D0E94DF378CE790E068E8F3
:1039E00070E00E94081C90930B0380930A030E94CE
:1039F000DF3760E070E088E492E444E650E00E9443
:103A0000744C82E390E090935D0380935C030E948A
:103A1000DF3788E390E068E270E00E94081C909332
:103A20000703809306030E94DF378AE890E063E58E
:103A300070E00E94081C90930903809308030E9481
:103A4000DF3787EE9FEF60E070E04EEC5FEF28E23B
:103A500030E006E910E0ECE3EE2EF12C0E94D44DAC
:103A600010925D0310925C030E94D8018DB79EB73F
:103A70000C970FB6F8949EBF0FBE8DBFEDB7FEB783
:103A80003196C1E3D8E0ADB7BEB71296DC93CE93C2
:103A9000119789E891E09383828380910603909146
:103AA000070395838483809108039091090397838A
:103AB000868380910A0390910B0391878087809180
:103AC0000C0390910D03938782870E94C85A8DB78B
:103AD0009EB70C960FB6F8949EBF0FBE8DBF81E0C7
:103AE00061E0AE010E9467010E94DF378091FA0217
:103AF0009091FB02009731F00E94DF37B59BFECF1B
:103B0000B599FECF84E190E060E070E046E450E0DB
:103B10002EE130E008E210E00E94A9468CEE9FEF13
:103B200090935D0380935C0385E090E06EE070E02D
:103B300042E150E020E030E002EE1FEFB8E2EB2E71
:103B4000F12CCC24DD240E94C15085E090E06EE091
:103B500070E042E150E024E130E008E11CEF0E9417
:103B6000C15080E090E066EF7FEF44E150E028E252
:103B700030E00EEC1FEF0E94A94680E090E0DC01EF
:103B800080933A0390933B03A0933C03B0933D038F
:103B90008093200390932103A0932203B0932303E7
:103BA0008AE590E090935D0380935C0382E090E06F
:103BB00066ED70E044E050E022EC30E005E010E01B
:103BC000A3EAEA2EF12CF2E3CF2ED12CEEE1AE2EB9
:103BD000B12C0E94DF5210925D0310925C03DF91C2
:103BE000CF911F910F91FF90EF90DF90CF90BF90FA
:103BF000AF9008956F927F928F929F92AF92BF92F3
:103C0000CF92DF92EF92FF920F931F93CF93DF93A8
:103C1000EC013B014A0179018091FA029091FB028B
:103C2000009731F00E94DF37B59BFECFB599FECFEC
:103C300085E690E063E070E00E943338009709F475
:103C4000F1C003E010E0B7E0AB2EB12CAE0CBF1C0E
:103C50007E01DC2ECF2CCC0FDD1FCF54DE4F80E059
:103C600062E10E94C5598823D1F30E943F5880E049
:103C700063E10E94C5598823D1F37091C501609119
:103C8000C6015091C7014091C80180E090E07C01DD
:103C9000EE0CFF1C9C01E3E0220F331FEA95E1F7D5
:103CA000E20EF31E29EA37E0E20EF31ED7012D9152
:103CB0003C9111972115310509F4A0C02D913C913B
:103CC00011972330310509F04DC07093C501609301
:103CD000C6015093C7014093C8010E94D801F70163
:103CE00060817181428153812481358186819781F0
:103CF000ADB7BEB71C970FB6F894BEBF0FBEADBF31
:103D0000EDB7FEB73196C1E3D8E01296DC93CE93BF
:103D10001197A5E9B1E0B383A283758364835783C8
:103D2000468331872087938782870E94C85AEDB7E0
:103D3000FEB73C960FB6F894FEBF0FBEEDBF81E014
:103D400061E0AE010E9467018091FA029091FB024E
:103D5000009709F467C00E94DF37B59BFECFB59985
:103D6000FECF60C0D70112962D913C911397261972
:103D7000370937FF03C0309521953F4F2E3131056C
:103D8000ECF5FC01EE0FFF1F9C01A3E0220F331F97
:103D9000AA95E1F7E20FF31FE755F84F248135812B
:103DA0002819390937FF03C0309521953F4F2E312F
:103DB000310524F5FC01EE0FFF1F9C01A3E0220F4B
:103DC000331FAA95E1F7E20FF31FE755F84F26815D
:103DD0003781A216B3062CF02081318139832883E4
:103DE0000DC0208131812130310539F020813181B0
:103DF0002230310519F4A60101C0B60101968930BF
:103E0000910509F044CF7093C5016093C6015093AA
:103E1000C7014093C8010150104009F020CF80E055
:103E200090E000C0DF91CF911F910F91FF90EF9034
:103E3000DF90CF90BF90AF909F908F907F906F90CA
:103E40000895AF92BF92CF92DF92EF92FF920F93BD
:103E50001F9310925D0310925C0382EE9FEF60E06F
:103E600070E04AEB5FEF2EE130E008E210E00E94E4
:103E7000A94684E190E090935D0380935C038CE01D
:103E800090E063E070E04BEF5FEF23E030E002E1B1
:103E900010E0EE24FF24F8E2CF2ED12CAA24BB247C
:103EA0000E94B3438AE090E063E070E046EF5FEF8A
:103EB00025E030E00E94B3438CEF9FEF63E070E0B9
:103EC00048E15CEF25E030E0E4E1EE2EF12C0E94C9
:103ED000B34380E090E066EF7FEF4CEE5FEF28E2C7
:103EE00030E00EEC1FEFB8E2EB2EF12C0E94D44D27
:103EF00080E090E0DC0180933A0390933B03A09331
:103F00003C03B0933D038093200390932103A0933F
:103F10002203B09323038AE590E090935D0380939E
:103F20005C0382E090E066ED70E044E050E022EC5B
:103F300030E005E010E0A3EAEA2EF12CF2E3CF2E08
:103F4000D12CEEE1AE2EB12C0E94DF5210925D0317
:103F500010925C038091FA029091FB02009731F07D
:103F60000E94DF37B59BFECFB599FECF1F910F9111
:103F7000FF90EF90DF90CF90BF90AF9008952F9279
:103F80003F924F925F926F927F928F929F92AF92E9
:103F9000BF92CF92DF92EF92FF920F931F93CF9336
:103FA000DF938830910569F560E070E088ED91E479
:103FB0004CE350E00E94744C10925D0310925C033D
:103FC00080E090E067E370E040E050E028E230E01D
:103FD00006E910E00E943A3D80E090E069EC7FEF56
:103FE00040E050E028E230E00E943A3D8BE190E072
:103FF00090935D0380935C0360E070E088ED91EC4A
:104000002FC089309105B1F560E070E088ED91EC4A
:104010004CE350E00E94744C10925D0310925C03DC
:1040200080E090E067E370E040E050E028E230E0BC
:1040300006E910E00E943A3D80E090E069EC7FEFF5
:1040400040E050E028E230E00E943A3D85EE9FEFEC
:1040500090935D0380935C0360E070E088ED91E4F1
:104060004CE350E00E94744C10925D0310925C038C
:104070000C94FC2B8630910509F09AC080E090E00A
:10408000DC018093860790938707A0938807B093FD
:1040900089072091860730918707409188075091C2
:1040A00089072093820730938307409384075093B6
:1040B00085072091820730918307409184075091B2
:1040C000850720937E0730937F07409380075093A6
:1040D00081078093920790939307A0939407B093DE
:1040E00095078091920790919307A0919407B091C2
:1040F000950780938E0790938F07A0939007B093B6
:10410000910780E090E060E070E048EE53E020E04E
:1041100030E008E210E0E2E3EE2EF12C0E941D41B7
:1041200080E090E06EE370E040E050E028E230E0B4
:104130000EEC1FEF0E943A3D60908207709083075B
:10414000809084079090850780E090E067EE7FEF95
:1041500040E050E02EE130E00CE810E00E943A3DF3
:1041600060E070E080EA91E448E250E00E94744C24
:1041700084E190E090935D0380935C03C401B301FC
:104180000E94DF5BCB016BE170E0681B790B80E084
:1041900090E040E050E028E230E006E910E00E94C4
:1041A0003A3D60E070E080EA91EC48E250E05ACF9E
:1041B0008530910509F026C180E090E060E070E074
:1041C00048EE53E020E030E008E210E0B2E3EB2EEE
:1041D000F12C0E941D4180E090E06AE070E048E22E
:1041E00050E028E230E00EEC1FEFACE3EA2EF12CB9
:1041F0000E94D44D88E290E090935D0380935C032D
:1042000080E090E069E170E040E050E028E230E0DA
:1042100002E310E00E943A3D8AE090E06AE570E037
:1042200040E050E02EE130E000E010E00E94454820
:104230008EEC9FEF90935D0380935C0380E090E0B1
:1042400060E370E040E050E028E230E00E943A3D58
:1042500080E090E064E170E048ED5FEF2EE130E057
:1042600008ED1FEF0E94D44D10925D0310925C0385
:104270000F2EF0E06F2EF0E07F2EF0E08F2EF0E0BA
:104280009F2EF02D60923A0370923B0380923C0384
:1042900090923D036092200370922103809222034A
:1042A0009092230380E090E060E070E041E050E015
:1042B00022EA30E003E010E0F6E8EF2EF12CEEE128
:1042C000CE2ED12CAA24BB240E94DF5260923A0346
:1042D00070923B0380923C0390923D0360922003D6
:1042E00070922103809222039092230380E090E059
:1042F00060E070E041E050E02CE530E000E010E0EC
:10430000EE24FF24BEE1AB2EB12C0E94DF528DE0E3
:1043100090E061E070E04EE150E023E030E005E144
:1043200010E0A4E1CA2ED12C0E94B34380E090E0BB
:1043300063E070E040E050E024E130E002EE1FEF87
:104340000E943A3D8BEF9FEF6EEC7FEF40E050E034
:1043500022E330E000EA10E00E943A3D60923A0326
:1043600070923B0380923C0390923D036092200345
:10437000709221038092220390922303CAE5D0E039
:10438000D0935D03C0935C0380E090E060E070E058
:1043900044E050E022EC30E005E010E0F3EAEF2EDC
:1043A000F12CE2E3CE2ED12CAA24BB240E94DF52B2
:1043B00060923A0370923B0380923C0390923D03DB
:1043C0006092200370922103809222039092230333
:1043D000D0935D03C0935C0382E090E066ED70E0F3
:1043E00044E050E022EC30E0B4E1AB2EB12C0E946E
:1043F000DF5210925D0310925C030E94DF3780E071
:1044000090E029C18730910509F029C180E090E052
:1044100060E070E048EE53E020E030E008E210E0B9
:10442000A2E3EA2EF12C0E941D4180E090E06AE0B8
:1044300070E048ED5FEF28E230E00EEC1FEFFCE3A8
:10444000EF2EF12C0E94D44D88ED9FEF90935D03E9
:1044500080935C0380E090E069E170E040E050E030
:1044600028E230E002E310E00E943A3D8AE090E06A
:1044700066EA7FEF40E050E02EE130E000E010E03F
:104480000E94454882E390E090935D0380935C0333
:1044900080E090E060E370E040E050E028E230E04F
:1044A0000E943A3D80E090E064E170E048E250E034
:1044B0002EE130E008ED1FEF0E94D44D10925D0315
:1044C00010925C030F2EF0E06F2EF0E07F2EF0E0F4
:1044D0008F2EF0E09F2EF02D60923A0370923B03F6
:1044E00080923C0390923D036092200370922103DE
:1044F000809222039092230380E090E060E070E0DD
:1045000046E050E02EE930E008E010E0E6E7EE2E6D
:10451000F12CBEE1CB2ED12CAA24BB240E94DF5269
:1045200060923A0370923B0380923C0390923D0369
:1045300060922003709221038092220390922303C1
:1045400080E090E060E070E048E050E022E430E09D
:1045500000E010E0EE24FF24AEE1AA2EB12C0E9470
:10456000DF528EE090E068E070E04EE150E023E042
:1045700030E00EE110E0F4E1CF2ED12C0E94B343E5
:1045800080E090E063E070E040E050E024E130E063
:1045900002EE1FEF0E943A3D85E090E06EEC7FEF67
:1045A00040E050E022E330E000EA10E00E943A3DB3
:1045B00060923A0370923B0380923C0390923D03D9
:1045C0006092200370922103809222039092230331
:1045D000CAE5D0E0D0935D03C0935C0380E090E037
:1045E00060E070E044E050E022EC30E005E010E0F4
:1045F000E3EAEE2EF12CB2E3CB2ED12CAA24BB247D
:104600000E94DF5260923A0370923B0380923C0317
:1046100090923D03609220037092210380922203C6
:1046200090922303D0935D03C0935C0387E090E0F6
:1046300060EA70E044E050E022EC30E0A4E1AA2E11
:10464000B12C0E94DF5210925D0310925C030E9415
:10465000DF3781E090E00E9487020C94FC2B8330CE
:10466000910509F0EBC080E090E060E070E048EE7A
:1046700053E020E030E008E210E0F2E3EF2EF12C0E
:104680000E941D4180E090E064E170E040E050E075
:1046900028E230E000E010E00E943A3D80E090E047
:1046A00069E170E048E250E028E230E00EEC1FEFF4
:1046B000E8E2EE2EF12C0E94D44DC8E2D0E0D09377
:1046C0005D03C0935C038BED9FEF60E070E048ED0D
:1046D0005FEF2EE130E00CE810E00E94D44D109224
:1046E0005D0310925C036090820770908307809056
:1046F00084079090850780E090E0DC018093860736
:1047000090938707A0938807B09389072091860725
:10471000309187074091880750918907209382073D
:104720003093830740938407509385072091820735
:1047300030918307409184075091850720937E072D
:1047400030937F07409380075093810780939207AF
:1047500090939307A0939407B09395078091920745
:1047600090919307A0919407B091950780938E073D
:1047700090938F07A0939007B093910780E090E00B
:1047800060E070E048EE53E020E030E008E210E046
:10479000B2E3EB2EF12C0E941D4180E090E06CE32F
:1047A00070E040E050E028E230E00EEC1FEF0E94A5
:1047B0003A3D6091820770918307809184079091C0
:1047C000850790580E94DF5B9B01AC0180E090E080
:1047D000B90140E050E028E230E006E910E00E9434
:1047E0003A3D85E290E060E070E048E250E02EE182
:1047F00030E00CE810E0A8E2EA2EF12C0E94D44D43
:10480000D0935D03C0935C0380E090E06CEE7FEF9B
:1048100040E050E028E230E002E310E00E943A3D40
:10482000C401B3010E94DF5BCB0164E170E0681B4F
:10483000790B80E090E048ED5FEF3AC1843091055C
:1048400009F041C10F2EF0E06F2EF0E07F2EF0E076
:104850008F2EF0E09F2EF02D6092860770928707D2
:1048600080928807909289078091860790918707A8
:10487000A0918807B091890780938207909383075E
:10488000A0938407B0938507809182079091830756
:10489000A0918407B091850780937E0790937F074E
:1048A000A0938007B093810760929207709293075C
:1048B0008092940790929507809192079091930728
:1048C000A0919407B091950780938E0790938F07DE
:1048D000A0939007B093910780E090E060E070E0D3
:1048E00048EE53E020E030E008E210E0F2E3EF2E83
:1048F000F12C0E941D4180E090E069E170E048EDFC
:104900005FEF28E230E00EEC1FEFE8E2EE2EF12C34
:104910000E94D44DC8EDDFEFD0935D03C0935C03DC
:1049200085E290E060E070E048E250E02EE130E0A7
:104930000CE810E00E94D44D10925D0310925C03CD
:10494000A0908207B0908307C0908407D09085071D
:1049500060928607709287078092880790928907F5
:104960008091860790918707A0918807B091890769
:104970008093820790938307A0938407B093850761
:104980008091820790918307A0918407B091850759
:1049900080937E0790937F07A0938007B093810751
:1049A0006092920770929307809294079092950775
:1049B0008091920790919307A0919407B0919507E9
:1049C00080938E0790938F07A0939007B0939107E1
:1049D00080E090E060E070E048EE53E020E030E0FE
:1049E00008E210E0B2E3EB2EF12C0E941D4180E0C2
:1049F00090E06CE370E040E050E028E230E00EEC44
:104A00001FEF0E943A3D6091820770918307809169
:104A100084079091850790580E94DF5B9B01AC0151
:104A200080E090E0B90140E050E028E230E006E9A3
:104A300010E00E943A3D60918E0770918F0780913F
:104A400090079091910720E030E040E252E40E940C
:104A5000F85A0E94DF5B9B01AC018BED9FEF60E099
:104A600070E0A9012EE130E00CE810E0A8E2EA2EA7
:104A7000F12C0E94D44DD0935D03C0935C0380E081
:104A800090E06CEE7FEF40E050E028E230E002E39F
:104A900010E00E943A3DC601B5010E94DF5BCB01E8
:104AA00064E170E0681B790B80E090E048E250E040
:104AB00028E230E00EEC1FEF0E94D44D10925D030F
:104AC00010925C0318C4009709F009C20F2EF0E0A1
:104AD0006F2EF0E07F2EF0E08F2EF0E09F2EF02D75
:104AE0006092860770928707809288079092890764
:104AF0008091860790918707A0918807B0918907D8
:104B00008093820790938307A0938407B0938507CF
:104B10008091820790918307A0918407B0918507C7
:104B200080937E0790937F07A0938007B0938107BF
:104B300060929207709293078092940790929507E3
:104B40008091920790919307A0919407B091950757
:104B500080938E0790938F07A0939007B09391074F
:104B600080E090E060E070E048EE53E020E030E06C
:104B700008E210E0F2E3EF2EF12C0E941D4180E0EC
:104B800090E064E170E040E050E028E230E000E0D6
:104B900010E00E943A3D80E090E069E170E048E278
:104BA00050E028E230E00EEC1FEFE8E2EE2EF12CB0
:104BB0000E94D44DC8E2D0E0D0935D03C0935C0363
:104BC0008DED9FEF60E070E048ED5FEF2EE130E0AB
:104BD0000CE810E00E94D44D10925D0310925C032B
:104BE000209082073090830740908407509085077B
:104BF00080E090E060E070E048EE53E020E030E0DC
:104C000008E210E0B2E3EB2EF12C0E941D4180E09F
:104C100090E064E170E040E050E028E230E000E045
:104C200010E00E943A3D80E090E069E170E048E2E7
:104C300050E028E230E00EEC1FEFA8E2EA2EF12C63
:104C40000E94D44DD0935D03C0935C038DED9FEF24
:104C500060E070E048ED5FEF2EE130E00CE810E03E
:104C60000E94D44D10925D0310925C0360928607FF
:104C700070928707809288079092890780918607B3
:104C800090918707A0918807B09189078093820748
:104C900090938307A0938407B09385078091820740
:104CA00090918307A0918407B091850780937E0738
:104CB00090937F07A0938007B0938107609292073B
:104CC0007092930780929407909295078091920733
:104CD00090919307A0919407B091950780938E07C8
:104CE00090938F07A0939007B09391078CE090E08A
:104CF00061E070E04AE050E023E030E005E110E0E0
:104D0000EE24FF24F8E2CF2ED12CE2E3AE2EB12C1C
:104D10000E94B3438AE090E061E070E04AE050E036
:104D200025E030E0AA24BB240E94B3438DE090E04C
:104D300061E070E048EE53E023E030E00E94B343CE
:104D400080E090E063E070E040E050E028E230E096
:104D50000EEC1FEF0E943A3D60908207709083072F
:104D6000809084079090850780E090E06CEE7FEF64
:104D700040E050E02EE130E00CE810E00E943A3DC7
:104D800060E070E080EA91E448E250E00E94744CF8
:104D900084E190E090935D0380935C038CE090E06D
:104DA00063E070E04BEF5FEF23E030E00AE210E0F9
:104DB000B2E3AB2EB12C0E94B343C401B3010E94F5
:104DC000DF5B49E150E0461B570B8AE090E063E06F
:104DD00070E025E030E0AEECAA2EAFEFBA2E0E94D4
:104DE000B3438FE090E060E070E040E050E02EE1FF
:104DF00030E008E210E00E943A3D84E190E060E09B
:104E000070E044E150E02EE130E008ED1FEFF4E106
:104E1000EF2EF12C0E94D44DD0935D03C0935C0320
:104E200080E090E06DED7FEF40E050E028E230E080
:104E300002E310E00E943A3D80E090E06DED7FEFEC
:104E400048ED5FEF28E230E00EEC1FEFE8E2EE2ED7
:104E5000F12C0E94D44D10925D0310925C0383E20A
:104E600090E060E070E048E250E02EE130E00CE8D5
:104E700010E00E94D44DD0935D03C0935C0380E0AA
:104E800090E068ED7FEF48ED5FEF28E230E002E36D
:104E900010E00E94A94610925D0310925C03C201CB
:104EA000B1010E94DF5BCE01861B970BBC0180E045
:104EB00090E040E050E02DE230E009EC1FEF0E946E
:104EC0003A3D8091FA029091FB02009709F413C2D7
:104ED0000E94DF37B59BFECFB599FECF0CC2823062
:104EE000910509F00BC20F2EF0E06F2EF0E07F2E3F
:104EF000F0E08F2EF0E09F2EF02D609286077092EA
:104F00008707809288079092890780918607909101
:104F10008707A0918807B0918907809382079093B3
:104F20008307A0938407B0938507809182079091AF
:104F30008307A0918407B091850780937E079093A3
:104F40007F07A0938007B0938107609292077092C9
:104F50009307809294079092950780919207909181
:104F60009307A0919407B091950780938E07909333
:104F70008F07A0939007B093910780E090E060E0E6
:104F800070E048EE53E020E030E008E210E0B2E3E9
:104F9000EB2EF12C0E941D4180E090E064E170E076
:104FA00040E050E028E230E000E010E00E943A3DAE
:104FB00080E090E069E170E048ED5FEF28E230E0EA
:104FC0000EEC1FEFA8E2EA2EF12C0E94D44DC8EDA2
:104FD000DFEFD0935D03C0935C0383E290E060E079
:104FE00070E048E250E02EE130E00CE810E00E9472
:104FF000D44D10925D0310925C0320908207309094
:105000008307409084075090850780E090E060E03F
:1050100070E048EE53E020E030E008E210E0F2E318
:10502000EF2EF12C0E941D4180E090E064E170E0E1
:1050300040E050E028E230E000E010E00E943A3D1D
:1050400080E090E069E170E048ED5FEF28E230E059
:105050000EEC1FEFE8E2EE2EF12C0E94D44DD0931F
:105060005D03C0935C0383E290E060E070E048E29F
:1050700050E02EE130E00CE810E00E94D44D109298
:105080005D0310925C03609286077092870780929E
:105090008807909289078091860790918707A09151
:1050A0008807B09189078093820790938307A09324
:1050B0008407B09385078091820790918307A09120
:1050C0008407B091850780937E0790937F07A09314
:1050D0008007B09381076092920770929307809245
:1050E0009407909295078091920790919307A091D1
:1050F0009407B091950780938E0790938F07A093A4
:105100009007B09391078CE090E068E070E04AE08F
:1051100050E023E030E00EE110E0EE24FF24B8E29E
:10512000CB2ED12CA2E3AA2EB12C0E94B3438AE04D
:1051300090E068E070E04AE050E025E030E0AA242A
:10514000BB240E94B3438DE090E068E070E048EE3D
:1051500053E023E030E00E94B34380E090E063E05E
:1051600070E040E050E028E230E00EEC1FEF0E94DB
:105170003A3D6090820770908307809084079090FA
:10518000850780E090E06CEE7FEF40E050E02EE19C
:1051900030E00CE810E00E943A3D60E070E080EA08
:1051A00091EC48E250E00E94744C8CEE9FEF90939B
:1051B0005D0380935C038CE090E066E070E04BEF71
:1051C0005FEF23E030E005E110E0F2E3AF2EB12C19
:1051D0000E94B343C401B3010E94DF5B49E150E088
:1051E000461B570B8AE090E066E070E025E030E077
:1051F000EEECAE2EEFEFBE2E0E94B34381EF9FEF99
:1052000060E070E040E050E02EE130E008E210E0C5
:105210000E943A3D8CEE9FEF60E070E04CEE5FEF55
:105220002EE130E008ED1FEFB4E1EB2EF12C0E94EF
:10523000D44DD0935D03C0935C0380E090E06DEDAE
:105240007FEF40E050E028E230E002E310E00E940F
:105250003A3D80E090E06DED7FEF48E250E028E2DB
:1052600030E00EEC1FEFA8E2EA2EF12C0E94D44DA4
:1052700010925D0310925C038DED9FEF60E070E093
:1052800048ED5FEF2EE130E00CE810E00E94D44DD5
:10529000D0935D03C0935C0380E090E068ED7FEF06
:1052A00048E250E028E230E002E310E00E94A94624
:1052B00010925D0310925C03C201B1010E94DF5B9A
:1052C000CB0168E270E0681B790B80E090E040E081
:1052D00050E02DE230E009EC1FEF0E943A3D809152
:1052E000FA029091FB02009731F00E94DF37B59BE4
:1052F000FECFB599FECF0E94211F7EC2813091055D
:1053000009F07AC20F2EF0E06F2EF0E07F2EF0E071
:105310008F2EF0E09F2EF02D609286077092870707
:1053200080928807909289078091860790918707DD
:10533000A0918807B0918907809382079093830793
:10534000A0938407B093850780918207909183078B
:10535000A0918407B091850780937E0790937F0783
:10536000A0938007B0938107609292077092930791
:10537000809294079092950780919207909193075D
:10538000A0919407B091950780938E0790938F0713
:10539000A0939007B093910780E090E060E070E008
:1053A00048EE53E020E030E008E210E0F2E3EF2EB8
:1053B000F12C0E941D4180E090E064E170E040E04B
:1053C00050E028E230E000E010E00E943A3D80E04A
:1053D00090E069E170E048ED5FEF28E230E00EEC2C
:1053E0001FEFE8E2EE2EF12C0E94D44DC8EDDFEF66
:1053F000D0935D03C0935C0383E290E060E070E0D3
:1054000048E250E02EE130E00CE810E00E94D44D7C
:1054100010925D0310925C03209082073090830706
:10542000409084075090850780E090E060E070E055
:1054300048EE53E020E030E008E210E0B2E3EB2E6B
:10544000F12C0E941D4180E090E064E170E040E0BA
:1054500050E028E230E000E010E00E943A3D80E0B9
:1054600090E069E170E048ED5FEF28E230E00EEC9B
:105470001FEFACE3EA2EF12C0E94D44DD0935D03D4
:10548000C0935C0383E290E060E070E048E250E0AB
:105490002EE130E00CE810E0F8E2EF2EF12C0E9453
:1054A000D44D10925D0310925C038CE090E068E0B4
:1054B00070E045E050E023E030E00EE110E0EE2443
:1054C000FF24E8E2CE2ED12CB2E3AB2EB12C0E9409
:1054D000B3438AE090E068E070E04EE150E025E000
:1054E00030E0AA24BB240E94B34380E090E06EE148
:1054F00070E04EE150E028E230E00EEC1FEFACE34C
:10550000EA2EF12C0E94D44DFEE1CF2ED12CD09268
:105510005D03C0925C038DED9FEF60E070E040E0C2
:1055200050E028E230E002E310E00E943A3D82E0E1
:1055300090E068E17CEF40E050E020E030E008E2FD
:1055400010E0EE24FF240E941D418EEF9FEF60E0EB
:1055500070E040E050E028E230E00EEC1FEF0E94E7
:105560003A3D0E946E0C10925D0310925C036092B3
:1055700086077092870780928807909289078091AA
:10558000860790918707A0918807B091890780933B
:10559000820790938307A0938407B0938507809137
:1055A000820790918307A0918407B091850780932B
:1055B0007E0790937F07A0938007B0938107609246
:1055C000920770929307809294079092950780912A
:1055D000920790919307A0919407B09195078093BB
:1055E0008E0790938F07A0939007B093910784E064
:1055F00090E060E070E048EE53E028E230E002E343
:1056000010E00E94E55680E090E063E070E040E04A
:1056100050E028E230E00EEC1FEF0E943A3D80E0BF
:1056200090E06CEE7FEF40E050E02EE130E00CE8DF
:1056300010E00E943A3DD0925D03C0925C038CE181
:1056400090E060E070E040E050E028E230E002E30B
:1056500010E00E943A3D8EE190E060E070E04CE3A3
:1056600050E028E230E00EEC1FEFECE3EE2EF12CE0
:105670000E94D44D60923A0370923B0380923C03A7
:1056800090923D0360922003709221038092220346
:10569000909223038AE590E090935D0380935C03EE
:1056A00080E090E060E070E044E050E022EC30E028
:1056B00005E010E0B3EAEB2EF12CA2E3CA2ED12CC8
:1056C0000E94DF5210925D0310925C038DED9FEFFC
:1056D00062E070E04AEB5FEF2EE130E008E210E0BC
:1056E0000E94A94684E190E090935D0380935C035F
:1056F0008CE090E065E070E04BEF5FEF23E030E09E
:1057000005E110E0EE24FF24F8E2CF2ED12C0E9418
:10571000B3438AE090E065E070E042EE5FEF25E0A1
:1057200030E0EEECAE2EEFEFBE2E0E94B3438DEDD7
:105730009FEF60E070E044EC5FEF2EE130E00CE8BA
:1057400010E0BCE3EB2EF12C0E94D44DD0935D030E
:10575000C0935C0380E090E06DED7FEF40E050E0AF
:1057600028E230E002E310E00E943A3D80E090E061
:105770006DED7FEF48E250E028E230E00EEC1FEFE5
:10578000A8E2EA2EF12C0E94D44D10925D031092F3
:105790005C038DED9FEF60E070E048ED5FEF2EE180
:1057A00030E00CE810E00E94D44DD0935D03C0932C
:1057B0005C0380E090E068ED7FEF48E250E028E293
:1057C00030E002E310E00E94A94610925D031092BF
:1057D0005C03C201B1010E94DF5BCB0168E270E0B3
:1057E000681B790B80E090E040E050E02DE230E073
:1057F00009EC1FEF0E943A3DDF91CF911F910F916D
:10580000FF90EF90DF90CF90BF90AF909F908F90E0
:105810007F906F905F904F903F902F90089590E011
:10582000FC01B096FE2FEE2720812093960720FDE5
:10583000FBCF8896B82FAA278C91908190939607DA
:1058400090FDFBCF089590E08096F82FEE278081A1
:105850008093960780FDFBCF6083808180939607BD
:1058600080FDFBCF089580E061E00E94232C82E060
:1058700061E00E94232C81E061E00E94232C0895C6
:10588000A82FB0E0FD01B096FE2FEE278081809317
:10589000960780FDFBCF9896BA2FAA27872F9927C6
:1058A00087FD9A958C9380818093960780FDFBCF2E
:1058B0006C9380818093960780FDFBCF08951F93A2
:1058C000CF93DF93182F80E06FE10E94232CC1E07B
:1058D000D0E002C0CC0FDD1F1A95E2F780E0BE01D8
:1058E0000E94402C81E06FE10E94232C81E0BE01E8
:1058F0000E94402C82E06FE10E94232C82E0BE01D6
:105900000E94402C80E061E00E94232C82E061E054
:105910000E94232C81E061E00E94232CDF91CF9133
:105920001F910895DF92EF92FF920F931F93D82E4D
:105930007A018B019B01552737FD5095452FB90101
:105940000E94402C8D2DB7010E94402C1F910F9179
:10595000FF90EF90DF9008951F93182F60E00E9452
:10596000232C8CEC9CE10197F1F700C00000812F03
:105970006DE10E94232C812F60E070E00E94402C9A
:105980001F910895AF92BF92CF92DF92EF92FF9254
:105990000F931F93CF93DF93F82E6B01EA018901D8
:1059A000AA24A3946115710509F4AA24BB24B39415
:1059B000209709F4BB24EE24E3940115110509F4A2
:1059C000EE248F2D6EE10E94232C6B2D70E0660F6C
:1059D000771F660F771F8A2D90E043E0880F991F8D
:1059E0004A95E1F7682B792B8E2D90E0880F991F4F
:1059F000682B792B8F2D0E94402CAA2021F08F2D0F
:105A0000B6010E94402CBB2021F08F2DBE010E94C8
:105A1000402CEE2021F08F2DB8010E94402C8F2DBC
:105A200064E00E94232CDF91CF911F910F91FF9092
:105A3000EF90DF90CF90BF90AF9008958F929F929C
:105A4000AF92BF92CF92DF92EF92FF920F931F938C
:105A5000CF93DF93F82E4B016A01E901AA24A394A6
:105A60006115710509F4AA24BB24B394C114D104AF
:105A700009F4BB24EE24E394209709F4EE248F2D3F
:105A80006EE10E94232C6A2D70E0A3E0660F771F61
:105A9000AA95E1F761608B2D90E0880F991F880F20
:105AA000991F682B792B8E2D90E0880F991F682BFA
:105AB000792B8F2D0E94402CAA2021F08F2DB4012C
:105AC0000E94402CBB2021F08F2DB6010E94402C5B
:105AD000EE2021F08F2DBE010E94402C8F2DB801A9
