:100000000C9455000C9474000C9474000C947400BF
:100010000C9474000C9474000C9474000C94740090
:100020000C9474000C9474000C9474000C94740080
:100030000C9474000C9474000C94031A0C947400C7
:100040000C9474000C9474000C94AA3E0C947400EC
:100050000C9474000C9474000C9474000C94740050
:100060000C9474000C9474000C9474000C94740040
:100070000C9474000C9474000C940A010C94740099
:100080000C9474000C9474000C94740005A84CCD6E
:10009000B2D44EB93836A9020C50B9918688083CC2
:1000A000A6AAAA2ABE000000803F11241FBECFEFDF
:1000B000D0E1DEBFCDBF12E0A0E0B1E0E2E6FCE8B7
:1000C00000E00BBF02C007900D92AC33B107D9F727
:1000D00016E0ACE3B2E001C01D92AA33B107E1F72C
:1000E0000E94E8070C94523F0C94000094EA90930D
:1000F00074009091740097FFFCCF9AE09093730086
:1001000094E8909374009091740097FFFCCF8093D3
:10011000730084E8809374008091740087FFFCCFA3
:1001200084E98093740084EA809374008091740061
:1001300087FFFCCF8BE08093730084E8809374008A
:100140008091740087FFFCCF84E8809374008091D5
:10015000740087FFFCCF8091730094E99093740042
:10016000089594EA909374009091740097FFFCCFE7
:100170009AE09093730094E89093740090917400C7
:1001800097FFFCCF8093730084E880937400809184
:10019000740087FFFCCF6093730084E88093740041
:1001A0008091740087FFFCCF84E9809374000895E8
:1001B00010929B0088E980939A0086E080939D00CE
:1001C000109298008FE580939900789408951F937A
:1001D0001FEF1093730081E4809370000E942D1331
:1001E0000E94963E0E94D8000E9427121FBC85E004
:1001F0008EBD1DBD80E78CBD84E087BF78948FE005
:1002000087BB81B3807F81BB84B3806F84BB18BA06
:100210001F9108951F920F920FB60F9211248F9382
:10022000DF93CF930F92CDB7DEB780919C00898387
:1002300080919B00887BE1F381E080933C0289817F
:1002400080933D020F90CF91DF918F910F900FBE61
:100250000F901F901895DF93CF930F92CDB7DEB715
:1002600080913D02898310923D02F89410923C02E5
:10027000789489810F90CF91DF91089590919B00A0
:1002800095FFFCCF80939C000895CF93DF93E4E724
:10029000F0E094EA9083A1EEB2E01197F1F700004C
:1002A000A3E7B0E09EE09C9394E89083C1EED2E097
:1002B0002197F1F700008C93908381EE92E00197F3
:1002C000F1F7000084E98083DF91CF910895EF92E8
:1002D000FF920F931F93DF93CF9300D0CDB7DEB77C
:1002E000082F162F843070F5643160F58BE1498357
:1002F0005A830E9445018CE40E944501812F0E948F
:100300004501802F0E94450180E791E00197F1F7B8
:1003100000C0E12EFF2449815A81042F152F06C009
:100320000E94450194EC9A95F1F700C0E4E1EE16C5
:10033000F10444F4F80181918F010894E11CF11C4F
:10034000882371F70F900F90CF91DF911F910F913C
:10035000FF90EF9008951F93DF93CF9300D0CDB718
:10036000DEB7182F8430F0F46431E0F48BE12A8397
:1003700069830E9445018CE40E9445016981862FB2
:100380000E944501812F0E94450180E791E001977D
:10039000F1F700C02A81822F0E94450194EC9A95C2
:1003A000F1F700C00F900F90CF91DF911F9108954A
:1003B0008BE10E94450183E40E94450186E696EEAA
:1003C000A0E081509040A040E1F70895EF92FF92A5
:1003D0000F931F93182FF62EE42E842F64E60E94AD
:1003E000FC45082F282F30E0205D3F4F442737FD84
:1003F0004095542F812F6F2D0E94AB018CE9089FEF
:10040000002D11240E0D802F6AE00E94FC45E82E7D
:100410006F2D6F5F282F30E0205D3F4F442737FD61
:100420004095542F812F0E94AB016F2D6E5F26EFF8
:10043000E29E202D1124200F30E0205D3F4F442705
:1004400037FD4095542F812F0E94AB011F910F91D2
:10045000FF90EF9008950F931F93CF93DF93EC01DC
:100460008C0143E0000F111F4A95E1F7055B1B4F1C
:10047000C8016FEF7FEF48E050E00E94553FC43065
:10048000D1052CF0CE010497F80191838083CE0131
:1004900064E070E00E940846181619066CF4FE012C
:1004A00033E0EE0FFF1F3A95E1F7E55BFB4F9E014E
:1004B0002150304033832283CC31D1056CF4FE01CE
:1004C00023E0EE0FFF1F2A95E1F7E55BFB4F9E014E
:1004D0002C5F3F4F358324838330910559F0FE0113
:1004E00083E0EE0FFF1F8A95E1F7E55BFB4F219656
:1004F000D783C683DF91CF911F910F910895ECE4CC
:10050000F3E0A2E8B2E0219131918D919D912817FD
:10051000390739F483E0EC38F807A9F721E030E037
:1005200002C020E030E0C90108959C01CB01121601
:1005300013069CF5BA01681B790B77FF03C0709511
:1005400061957F4F6430710541F54031510524F4C8
:100550008031910524F421C080319105F4F464E0E8
:1005600070E00E940846E2ECF2E040E050E0619169
:1005700071916217730749F48417950771F0BA01F6
:100580006F5F7F4F8617970741F04F5F5F4F433094
:10059000510569F720E030E002C021E030E0C901F8
:1005A00008954F925F926F927F928F929F92AF9237
:1005B000BF92CF92DF92EF92FF920F931F93CF9350
:1005C000DF934C01EB017A018091920190919301AC
:1005D000281739070CF067C0F901EE0FFF1FEB5029
:1005E000FC4F718360836417750771F43093930136
:1005F00020939201ADE8B3E0E5EFF3E088E20190EB
:100600000D928150E1F74FC0FB01EE0FFF1FEB543D
:10061000FC4F81E090E091838083CB01F3E0880F71
:10062000991FFA95E1F7EBE4CE2EE4E0DE2EC80E3A
:10063000D91E73E5672E74E0772E680E791E2901A6
:100640000894411C511CF601019111916F0117FD95
:1006500021C05801AA0CBB1CF501EB54FC4F808152
:1006600091810097B9F4C401BE01A8010E949502CE
:10067000009781F00E151F0539F0F501E45BFC4F82
:1006800080819181009731F4C401B801A7019201E2
:100690000E94D102C614D704B1F6CC0FDD1FCB5493
:1006A000DC4F19821882DF91CF911F910F91FF903B
:1006B000EF90DF90CF90BF90AF909F908F907F9002
:1006C0006F905F904F9008952FE030E0309393014A
:1006D0002093920120E4E5EBF3E0DF011D922A95DF
:1006E000E9F720E030E00E94D10221E030E0809183
:1006F0009201909193018F30910511F420E030E048
:10070000C90108952F923F924F925F926F927F920C
:100710008F929F92AF92BF92CF92DF92EF92FF9211
:100720000F931F93DF93CF9300D000D0CDB7DEB7E8
:100730002C016B013A018091C8029091C902009787
:1007400009F0F2C00E947F02009709F446C0D092DF
:100750004C05C0924B05A0E2B3E0EFE1F4E08CE27F
:1007600001900D928150E1F781E090E09093C902F1
:100770008093C802D9C0F501929182915F010097E0
:1007800071F0F70180819181009749F480E090E059
:10079000B201A8010E946403009709F4C5C001508A
:1007A00010408EEF9FEFE80EF91E0F30110509F58E
:1007B0003FE1E32EF12C5601AA0CBB1CAA0CBB1C7A
:1007C000EFE1F4E0AE0EBF1EC50102969A83898365
:1007D00016010894211C311CA0C0F301FE96FC8375
:1007E000EB8392EC892E92E0992E54017F010FE168
:1007F00010E08091C8029091C902009709F4BBCF24
:10080000D7CFF401929182914F01009709F479C0FA
:10081000EB81FC8180819181009709F072C080E0BA
:1008200090E0B201A7010E946403009709F47CC024
:100830008301CC24DD245EC0F80180819181009782
:1008400009F44FC0F401208131818217930709F028
:1008500048C0B701A6010E946403009709F441C093
:10086000EB81FC818081918190931F0380931E0313
:10087000F80180819181EB81FC819183808380915B
:100880001E0390911F03F80191838083F501D182AB
:10089000C082E981FA81F182E082E0919201F091D7
:1008A0009301EE0FFF1FE557FC4F80819181B1014D
:1008B000A3010E948203EB81FC818081918190934E
:1008C0001F0380931E03F80180819181EB81FC81DD
:1008D0009183808380911E0390911F03F80191837F
:1008E00080830894C11CD11C0E5F1F4FF0E1CF160E
:1008F000D10439F08091C8029091C902009709F49F
:100900009BCF0894E108F1088B819C8102979C831E
:100910008B839FE0E916F10439F08091C802909131
:10092000C902009709F46DCF0F900F900F900F90B0
:10093000CF91DF911F910F91FF90EF90DF90CF90BB
:10094000BF90AF909F908F907F906F905F904F90EF
:100950003F902F900895FC0143E0EE0FFF1F4A9552
:10096000E1F7E55BFB4F20E030E081919191861744
:10097000970711F4C90108952F5F3F4F24303105C7
:10098000A1F7089520918C03BC01621B7109CB0172
:1009900077FF04C088279927861B970B8330910522
:1009A00029F4CB016DEF7FEF0E940846CB0177FF62
:1009B00004C088279927861B970B8230910569F41C
:1009C0008091E802893120F48091ED028A3118F497
:1009D00062E070E002C06EEF7FEF8AE590E0689F12
:1009E0009001699F300D789F300D1124C901089541
:1009F000EF92FF920F931F9380E090E062E070E02F
:100A000040E050E020E030E00AE010E0E8E7EE2EC1
:100A1000F12C0E94A625009709F046C080E090E0E6
:100A20006CEF7FEF40E050E020E030E00E94A62530
:100A30000097D1F580E090E066E070E040E050E0A3
:100A400020E030E00E94A625009771F580E090E05C
:100A500068EF7FEF40E050E020E030E00E94A62504
:100A6000009711F580E090E06AE070E040E050E02F
:100A700020E030E00E94A6250097B1F480E090E0ED
:100A800064EF7FEF40E050E020E030E00E94A625D8
:100A9000009751F480E090E06EE070E040E050E0BC
:100AA00020E030E00E94A6251F910F91FF90EF906B
:100AB0000895CF92DF92EF92FF920F931F93CF93FF
:100AC000DF93C2E4D2E000E010E0A0E0EA2EA6E06E
:100AD000FA2EF0E0CF2EF1E0DF2E8DB79EB70C9707
:100AE0000FB6F8949EBF0FBE8DBFEDB7FEB731961F
:100AF000ADB7BEB71296FC92EE921197D382C28226
:100B000088819981958384838A819B819783868359
:100B10008C819D81918780878E819F819387828739
:100B20000E945C3F8DB79EB70C960FB6F8949EBF9F
:100B30000FBE8DBF802F60E0A7010E9467010F5F8D
:100B40001F4F28960430110541F6C2EAD2E000E0BA
:100B500010E0C701FE2CE92EC601DC2CC92EADB772
:100B6000BEB71C970FB6F894BEBF0FBEADBFEDB7B2
:100B7000FEB731961196FC9211971296EC92D282A2
:100B8000C38288819981958384838A819B8197839D
:100B900086838C819D81918780878E819F819387B9
:100BA00082870E945C3F8DB79EB70C960FB6F89473
:100BB0009EBF0FBE8DBF802F68E04F2D5E2D0E941F
:100BC00067010F5F1F4F28960430110541F6DF9132
:100BD000CF911F910F91FF90EF90DF90CF900895EC
:100BE0002F923F924F925F926F927F928F929F923D
:100BF000AF92BF92CF92DF92EF92FF920F931F932B
:100C0000DF93CF93CDB7DEB72E970FB6F894DEBF44
:100C10000FBECDBF9C878B87CB01BA01A9010E9473
:100C200064032DE8422E23E0522EEE24FF2400E040
:100C300010E0CE0109969E878D872BC1F20121908D
:100C400031902F01C70101969A878987A080B180D2
:100C5000C101B5010E94AB046C01F2016281738194
:100C6000C5010E94AB043C01089481089108E81476
:100C7000F90409F063C08B859C8581309105A1F54D
:100C800024E030E0C501B9010E940846FB01C10122
:100C9000B9010E940846E60FF71FE730F10519F485
:100CA00047E150E002C04CE150E00115110519F098
:100CB00008ED1FEF02C00CE810E08AE090E060E071
:100CC00070E02EE130E00E947B3B80E090E064EE3B
:100CD0007FEF40E050E02EE130E00CE810E00E94B1
:100CE000C3210E94F804DDC0DE011196E4E9F1E0C1
:100CF00088E001900D928150E1F7FE013196950157
:100D0000220F331F220F331F819191918C0D9D1D56
:100D100064E070E00E9408463C01D901A80FB91FA9
:100D2000AA0FBB1FA55BBB4F8D919C91119797FF9D
:100D300005C08D859E85E817F90731F780918C03F2
:100D400090E08C159D05A1F0C6010E94C204AC0183
:100D500080E090E060E070E02CE330E002E810E03A
:100D60000E94C321C0928C030E94F80400E010E0AE
:100D7000C614D70409F456C0C0928C03C3010E9464
:100D8000C2044C010115110519F402E310E002C080
:100D900000E010E08AE090E060E070E044E150E0C4
:100DA00028E230E00E947B3BC50164E070E00E94D5
:100DB00008469B01C10164E070E00E940846260FCE
:100DC000371F2730310519F464E170E002C069E192
:100DD00070E080E090E0A40128E230E00EEC1FEF2C
:100DE000F4E6EF2EF12CE8E7CE2ED12C0E94D22E85
:100DF000909219038092180380E090E060E070E028
:100E000048EE53E020E030E00AE010E0B8E7EB2ED7
:100E1000F12C0E94A62510921903109218036092DB
:100E20008C0333C00115110519F402E310E002C070
:100E300000E010E081E090E060E070E048EE53E018
:100E400028E230E00E947B3B8091920190919301D7
:100E50000197E816F90619F40EEC1FEF02C000E046
:100E600010E08AE090E060E070E04EE050E028E2C0
:100E700030E00E947B3B8091920190919301019719
:100E800001E010E0E816F90611F400E010E0E98452
:100E9000FA848090920190909301E814F9040CF484
:100EA000CDCE2E960FB6F894DEBF0FBECDBFCF913C
:100EB000DF911F910F91FF90EF90DF90CF90BF9047
:100EC000AF909F908F907F906F905F904F903F90EA
:100ED0002F900895EF92FF920F931F93CF93DF937C
:100EE0007C01EB010E94681C85E690E063E070E005
:100EF0000E94BC1C009709F461C003E010E080E090
:100F000062E10E945B3E8823D1F30E94D53C80E0E1
:100F100063E10E945B3E8823D1F380E090E0FC0116
:100F2000EE0FFF1F9C0173E0220F331F7A95E1F74C
:100F3000E20FF31FE858FA4F208131812115310566
:100F4000A1F1228133812E193F0937FF03C030956B
:100F500021953F4F2431310544F5FC01EE0FFF1F71
:100F60009C0153E0220F331F5A95E1F7E20FF31F64
:100F7000E858FA4F248135812C1B3D0B37FF03C005
:100F8000309521953F4F2F3031057CF4FC01EE0F59
:100F9000FF1F33E0880F991F3A95E1F7E80FF91F1B
:100FA000E858FA4F208131810BC0019689309105B4
:100FB00009F0B5CF0150104009F0A1CF20E030E09A
:100FC000C901DF91CF911F910F91FF90EF9008958C
:100FD0002F923F924F925F926F927F928F929F9249
:100FE000AF92BF92CF92DF92EF92FF920F931F9337
:100FF000DF93CF9300D000D0CDB7DEB70E94E700DB
:101000008EE161E00E94B1008EE165E00E94B100D6
:101010008EE164E10E94B1008EE160E10E94B100C6
:101020000E94413E8BE00E94793E82E30E94AA1C0E
:1010300080E063E10E945B3E8823D1F30FEF1FE75E
:1010400026E1015010402040E1F700C0000080E0A0
:1010500090E0DC018093550590935605A0935705C9
:10106000B09358052091550530915605409157058C
:1010700050915805209351053093520540935305E4
:1010800050935405209151053091520540915305DC
:101090005091540520934D0530934E0540934F05D4
:1010A000509350058093610590936205A09363056A
:1010B000B09364058091610590916205A0916305EC
:1010C000B091640580935D0590935E05A0935F05E4
:1010D000B0936005C39A2FEF3FE744E021503040C2
:1010E0004040E1F700C00000C3980F2EF0E06F2EE3
:1010F000F0E07F2EF0E08F2EF0E09F2EF02D1AE52D
:10110000412E512CB0E02B2EB1E03B2EB49914C0EF
:1011100080913E0290913F02019790933F0280930D
:101120003E02C39A4FEF5FE764E041505040604099
:10113000E1F700C00000C398B69914C080913E0248
:1011400090913F02019690933F0280933E02C39A92
:101150006FEF7FE784E0615070408040E1F700C0AE
:101160000000C398B59942C60E94D801C39A8FEF78
:101170009FE7A4E081509040A040E1F700C000004C
:10118000C39880913E0290913F028230910509F40C
:1011900056C0833091051CF497FF0AC027C68330E0
:1011A000910509F41DC28430910509F01FC616C3CC
:1011B0000E94681C8BE790E06AE370E00E946A0777
:1011C0009093C5028093C40284EC9FEF62E370E0C9
:1011D00040E050E022E330E000EA10E00E94C3214A
:1011E00080E090E068E17CEF40E050E020E030E01B
:1011F00004E110E0AEE1EA2EF12C0E94A6258BEF6F
:101200009FEF60E070E040E050E024E130E000E07B
:1012100010E00E94C32180E090E060E070E041E0D7
:1012200050E028EA30E003E010E0F4E8EF2EF12C83
:10123000E4E1CE2ED12CAA24BB240E947537609203
:10124000F6027092F7028092F8029092F902609290
:10125000DC027092DD028092DE029092DF0280E07A
:1012600090E060E070E041E050E028EA30E003E028
:1012700010E0B4E8EB2EF12CA4E1CA2ED12CAA2464
:10128000BB240E94753780E090E068EE73E040E098
:1012900050E020E030E00EE110E0F8E2EF2EF12C1B
:1012A0000E94A62589E190E060E070E040E050E017
:1012B0002EE130E008ED1FEF0E94C3210E94681C60
:1012C00081E890E066E970E00E946A079093C302AB
:1012D0008093C20280913E0290913F02009731F0CC
:1012E0000E94681CB59BFECFB599FECF86E490E0C6
:1012F00068E270E00E946A07909353028093520262
:101300008BEA90E066E270E00E946A0790935502D3
:101310008093540285E290E069E570E00E946A07DC
:1013200090935B0280935A028BEC90E064E570E04E
:101330000E946A0790935D0280935C020E94D8012C
:10134000ADB7BEB71C970FB6F894BEBF0FBEADBF0A
:10135000EDB7FEB7319600E016E012961C930E939F
:101360001197338222828091520290915302958389
:101370008483809154029091550297838683809153
:101380005A0290915B029187808780915C029091D4
:101390005D02938782870E945C3F2DB73EB7245F32
:1013A0003F4F0FB6F8943EBF0FBE2DBF81E061E006
:1013B000A8010E9467014DB75EB7485050400FB674
:1013C000F8945EBF0FBE4DBFEDB7FEB73196ADB717
:1013D000BEB712961C930E9311970CE011E0138385
:1013E00002838091C2029091C3029583848380918D
:1013F000C4029091C502978386830E945C3F2DB7FB
:101400003EB7285F3F4F0FB6F8943EBF0FBE2DBFCB
:1014100082E061E040E056E00E94670180E090E0F9
:101420006EE070E042E150E020E030E00EE110E0DC
:10143000E2E3EE2EF12CBCE3CB2ED12C0E944A35F8
:1014400080E090E060E070E048EE53E020E030E0C3
:1014500002E310E0EE24FF240E94A62580E090E045
:101460006EE070E042E150E020E030E003E210E0A6
:10147000A2E3EA2EF12CF4ECCF2EFFEFDF2E0E9438
:101480004A3580913E0290913F02009731F00E94D0
:10149000681CB59BFECFB599FECF8AE490E066E26A
:1014A00070E00E946A0790934302809342028DEAA3
:1014B00090E065E270E00E946A0790934502809395
:1014C00044028BE290E062E570E00E946A0790932C
:1014D0004B0280934A028EEC90E061E570E00E943E
:1014E0006A0790934D0280934C020E94D8014DB739
:1014F0005EB74C5050400FB6F8945EBF0FBE4DBF64
:10150000EDB7FEB7319600E016E0ADB7BEB7129664
:101510001C930E9311973382228280914202909104
:10152000430295838483809144029091450297837E
:10153000868380914A0290914B02918780878091A7
:101540004C0290914D02938782870E945C3F2DB799
:101550003EB7245F3F4F0FB6F8943EBF0FBE2DBF7E
:1015600081E061E0A8010E94670180E090E06EE008
:1015700070E042E150E020E030E008E210E0E8E214
:10158000EE2EF12CB2E3CB2ED12C0E944A3580E016
:1015900090E060E070E048EE53E020E030E0EE24C0
:1015A000FF240E94A62582E090E068E270E046EA0F
:1015B0005FEF28E230E00EEC1FEFA4E6EA2EF12CFC
:1015C0000E945D320E94681C80E090E06AEE7FEF2E
:1015D00040E050E024E130E002E810E00E94C32146
:1015E0006092F6027092F7028092F8029092F902ED
:1015F0006092DC027092DD028092DE029092DF0245
:10160000509219034092180380E090E060E070E08F
:1016100044E050E022EC30E005E010E0F3EAEF2E89
:10162000F12CE2E3CE2ED12CAA24BB240E947537E4
:101630006092F6027092F7028092F8029092F9029C
:101640006092DC027092DD028092DE029092DF02F4
:10165000509219034092180380E090E060E070E03F
:1016600044E050E022EC30E00E94753710921903FC
:101670001092180380E090E06EE070E042E150E0EC
:1016800020E030E00EE110E0B8E2EB2EF12CA6E90C
:10169000CA2ED12C0E944A358AE490E066E270E0BE
:1016A0000E946A0790934902809348028DEA90E075
:1016B00065E270E00E946A079093510280935002A5
:1016C0008BE290E062E570E00E946A079093470227
:1016D000809346028EEC90E061E570E00E946A071C
:1016E00090934F0280934E020E94D8014DB75EB78F
:1016F0004C5050400FB6F8945EBF0FBE4DBFEDB7D3
:10170000FEB7319600E016E0ADB7BEB712961C9357
:101710000E93119733822282809148029091490260
:1017200095838483809150029091510297838683A0
:1017300080914602909147029187808780914E0266
:1017400090914F02938782870E945C3F2DB73EB7EE
:10175000245F3F4F0FB6F8943EBF0FBE2DBF81E010
:1017600061E0A8010E94670180E090E06EE070E017
:1017700042E150E020E030E002E310E0F2E3CF2E5F
:10178000D12C0E944A3580E090E060E070E048EEA5
:1017900053E020E030E008E210E0EE24FF240E9455
:1017A000A62582E090E068E270E046EA5FEF28E27A
:1017B00030E00EEC1FEFE4E6EE2EF12C0E945D32DD
:1017C0000E94681C80E090E065EE7FEF40E050E012
:1017D00024E130E002E810E00E94C3216092F602AA
:1017E0007092F7028092F8029092F9026092DC0205
:1017F0007092DD028092DE029092DF025092190315
:101800004092180380E090E060E070E044E050E037
:1018100022EC30E005E010E0B3EAEB2EF12CA2E37D
:10182000CA2ED12CAA24BB240E9475376092F602DE
:101830007092F7028092F8029092F9026092DC02B4
:101840007092DD028092DE029092DF0250921903C4
:101850004092180380E090E060E070E044E050E0E7
:1018600022EC30E00E947537109219031092180391
:1018700080E090E06CE070E040E150E020E030E09B
:1018800003E210E0F8E2EF2EF12CE6E9CE2ED12CA7
:101890000E944A358AE490E066E270E00E946A079E
:1018A00090936102809360028DEA90E065E270E0BF
:1018B0000E946A0790935F0280935E028BE290E041
:1018C00062E570E00E946A07909359028093580283
:1018D0008EEC90E061E570E00E946A0790935702F9
:1018E000809356020E94D8014DB75EB74C505040CD
:1018F0000FB6F8945EBF0FBE4DBFEDB7FEB7319681
:1019000000E016E0ADB7BEB712961C930E93119788
:101910003382228280916002909161029583848358
:1019200080915E0290915F02978386838091580236
:101930009091590291878087809156029091570229
:10194000938782870E945C3F2DB73EB7245F3F4F4D
:101950000FB6F8943EBF0FBE2DBF81E061E0A80135
:101960000E9467010E94681C1092190310921803CC
:1019700080E090E06EE070E042E150E020E030E096
:1019800004E610E0B2E3EB2EF12CACE3CA2ED12C2E
:101990000E944A3580E090E060E070E048EE53E05D
:1019A00020E030E002E310E0EE24FF240E94A625B0
:1019B00080E090E06EE070E042E150E020E030E056
:1019C0000BE110E0F2E3EF2EF12CCC24DD240E9499
:1019D0004A358FE090E06AE570E040E050E02DE2AB
:1019E00030E000E010E00E94CE2C1092190310921B
:1019F000180380E090E062E070E048E15CEF20E0F6
:101A000030E0EFE0EE2EF12CB8E2CB2ED12C0E948C
:101A1000BC238DEF9FEF60E070E040E050E028E2F3
:101A200030E00EEC1FEF0E94C3216092F60270922C
:101A3000F7028092F8029092F9026092DC027092B2
:101A4000DD028092DE029092DF0280E090E060E0B2
:101A500070E041E050E028EA30E003E010E0A4E864
:101A6000EA2EF12CFEE1CF2ED12C0E94753780E0BA
:101A700090E064E670E040E050E020E030E00AE012
:101A800010E0E8E7EE2EF12C0E94A62581E090E020
:101A900060E070E048EE53E024E130E00EE110E059
:101AA0000E947B3B8AE090E060E070E04EE050E016
:101AB00024E130E002EE1FEF0E947B3B0E94681C95
:101AC0008091C2029091C30246E050E0481B590B3E
:101AD000CA012091C4023091C502821B930B9093DE
:101AE000C7028093C60252E050938C0363E1609377
:101AF0001D0400E010E0C8010E942B020F5F1F4F81
:101B000000321105C1F702E412E020E030E0D80114
:101B1000ED90FD908D01C90164E070E00E940846DF
:101B2000EE27FF27E61BF70B3796C90183709070ED
:101B3000EE0FFF1FEE0FFF1FE80FF91FEE0FFF1F45
:101B4000EE57FD4FF182E0822F5F3F4F203131058C
:101B5000F1F6C39A0FEF1FE72DE00150104020402F
:101B6000E1F700C00000C3980E94D8010E94590507
:101B700080913E0290913F02009731F00E94681CD4
:101B8000B59BFECFB599FECFACE4B3E0E2E4F2E062
:101B900080E401900D928150E1F780911D0490E066
:101BA00060E070E04CE453E00E948203C39A2FEFA0
:101BB0003FE746E1215030404040E1F700C00000DF
:101BC000C3980E94D80100D000D000D0EDB7FEB776
:101BD000319600E016E0ADB7BEB712961C930E9397
:101BE000119729E131E0338322838091C8029091DB
:101BF000C902958384830E945C3F4DB75EB74A5FFC
:101C00005F4F0FB6F8945EBF0FBE4DBF81E061E03D
:101C1000A8010E946701ACE4B3E0E2E4F2E080E4F2
:101C200001900D928150E1F70E94590580913E028A
:101C300090913F02009729F400E213E0EE24FF2484
:101C400094C00E94681CB59BFECFB599FECFF4CF1F
:101C50000E94D8016DB77EB76A5070400FB6F894F5
:101C60007EBF0FBE6DBFEDB7FEB7319620E036E008
:101C7000ADB7BEB712963C932E93119742E251E056
:101C80005383428380911D0484831582D8018D91F2
:101C90009C9111979783868312968D919C911397AF
:101CA000918780870E945C3FEDB7FEB73A960FB6EA
:101CB000F894FEBF0FBEEDBF81E061E040E056E06A
:101CC0000E94670180913E0290913F02009731F09F
:101CD0000E94681CB59BFECFB599FECF40911D04B4
:101CE000D8012D913C9180E090E060E070E050E000
:101CF0000E94F005F80140815181FA01EE0FFF1FAB
:101D0000E45BFC4F60817181D80112962D913C916A
:101D1000139781E090E00E94F005D801ED91FC91CD
:101D2000119712962D913C911397220F331F245B2C
:101D30003C4FEE0FFF1FE45BFC4F80819181D90186
:101D400011969C938E9311821082E0919201F091F2
:101D50009301EE0FFF1FE557FC4F808180931D0418
:101D60000894E11CF11C0C5F1F4F80914B05909172
:101D70004C05E816F9060CF46BCF0E94681C4091E4
:101D80001D0480E090E060E070E050E029E030E089
:101D90000E94F00582E090E00E94C204AC0180E065
:101DA00090E060E070E024E630E008E710E00E9498
:101DB000C32187EE9FEF67EE7FEF40E050E028E21F
:101DC00030E006E910E00E94C3210E94681CC39A1B
:101DD0000FEF1FEF29E5015010402040E1F700C050
:101DE0000000C398B599FECFB59BFECF80913E020F
:101DF00090913F02009709F444C04091E80230916D
:101E0000E7022091E6029091EE028091ED026DB71B
:101E10007EB76E5070400FB6F8947EBF0FBE6DBF98
:101E2000EDB7FEB7319600E016E0ADB7BEB712963B
:101E30001C930E93119761E371E073836283448373
:101E400015823683178220871186928713868487AE
:101E500015860E945C3F8DB79EB70E960FB6F8941C
:101E60009EBF0FBE8DBF80E060E0A8010E946701A9
:101E70003091E9022091EA029091EB028091EC020C
:101E800043C04091FC023091FB022091FA029091F4
:101E90000203809101036DB77EB76E5070400FB69C
:101EA000F8947EBF0FBE6DBFEDB7FEB7319600E070
:101EB00016E0ADB7BEB712961C930E93119761E36F
:101EC00071E073836283448315823683178220878F
:101ED000118692871386848715860E945C3F8DB792
:101EE0009EB70E960FB6F8949EBF0FBE8DBF80E0D2
:101EF00060E0A8010E9467013091FD022091FE027E
:101F00009091FF0280910003ADB7BEB71C970FB64A
:101F1000F894BEBF0FBEADBFEDB7FEB731961296B7
:101F20001C930E9311970AE411E013830283348308
:101F300015822683178290871186828713860E94D6
:101F40005C3F2DB73EB7245F3F4F0FB6F8943EBFBE
:101F50000FBE2DBF81E060E040E056E00E946701C7
:101F600080913E0290913F0297FF03C0909581952A
:101F70009F4F69E070E00E94084690934102809371
:101F800040020E9410148091400266E60E945B3E6F
:101F9000C82E8091400267E60E945B3EE82E0091C9
:101FA0004002A0904102802F68E60E945B3E4DB740
:101FB0005EB74C5050400FB6F8945EBF0FBE4DBF99
:101FC000EDB7FEB7319620E036E0ADB7BEB712965A
:101FD0003C932E93119742E651E05383428304834E
:101FE000A582C6821782E0861186828713860E94A8
:101FF0005C3F6DB77EB7645F7F4F0FB6F8947EBFCE
:102000000FBE6DBF82E060E040E056E00E946701D5
:1020100080916E0590916F059A8389834091700538
:1020200050917105A0916C05B0916D05BC83AB8397
:10203000A0912606B0912706E090FA05F090FB05E6
:10204000C0907605D0907705A0906A05B0906B059A
:1020500060915D0570915E0580915F0590916005CE
:10206000EDB7FEB774970FB6F894FEBF0FBEEDBF85
:102070000DB71EB70F5F1F4F20E036E0328321837C
:1020800025E731E0F8013383228329813A813583C2
:102090002483578346834B815C8151874087B38774
:1020A000A287F586E486D786C686B18AA08A0E9472
:1020B0007340D80153967C936E9352970E945C3F75
:1020C000EDB7FEB774960FB6F894FEBF0FBEEDBF26
:1020D00083E060E040E056E00E94670100D000D05D
:1020E00000D0EDB7FEB7319600E016E0ADB7BEB751
:1020F00012961C930E9311972BE831E033832283C1
:1021000080913E0290913F02958384830E945C3FC0
:102110004DB75EB74A5F5F4F0FB6F8945EBF0FBE14
:102120004DBF83E060E1A8010E9467010C9486081E
:1021300090E0FC01B096FE2FEE27208120936505EC
:1021400020FDFBCF8896B82FAA278C919081909381
:10215000650590FDFBCF089590E08096F82FEE275F
:1021600080818093650580FDFBCF608380818093B3
:10217000650580FDFBCF089580E061E00E94AC1012
:1021800082E061E00E94AC1081E061E00E94AC104E
:102190000895A82FB0E0FD01B096FE2FEE278081B4
:1021A0008093650580FDFBCF9896BA2FAA27872FCD
:1021B000992787FD9A958C9380818093650580FD92
:1021C000FBCF6C9380818093650580FDFBCF0895E4
:1021D0001F93CF93DF93182F80E06FE10E94AC1024
:1021E000C1E0D0E002C0CC0FDD1F1A95E2F780E01D
:1021F000BE010E94C91081E06FE10E94AC1081E035
:10220000BE010E94C91082E06FE10E94AC1082E022
:10221000BE010E94C91080E061E00E94AC1082E023
:1022200061E00E94AC1081E061E00E94AC10DF919F
:10223000CF911F910895DF92EF92FF920F931F931A
:10224000D82E7A018B019B01552737FD5095452FDC
:10225000B9010E94C9108D2DB7010E94C9101F91AC
:102260000F91FF90EF90DF9008951F93182F60E07B
:102270000E94AC108CEC9CE10197F1F700C00000CB
:10228000812F6DE10E94AC10812F60E070E00E9410
:10229000C9101F910895AF92BF92CF92DF92EF9233
:1022A000FF920F931F93CF93DF93F82E6B01EA01F8
:1022B0008901AA24A3946115710509F4AA24BB24F9
:1022C000B394209709F4BB24EE24E394011511057F
:1022D00009F4EE248F2D6EE10E94AC106B2D70E09E
:1022E000660F771F660F771F8A2D90E043E0880FF7
:1022F000991F4A95E1F7682B792B8E2D90E0880F76
:10230000991F682B792B8F2D0E94C910AA2021F0CC
:102310008F2DB6010E94C910BB2021F08F2DBE0168
:102320000E94C910EE2021F08F2DB8010E94C91023
:102330008F2D64E00E94AC10DF91CF911F910F911F
:10234000FF90EF90DF90CF90BF90AF9008958F9265
:102350009F92AF92BF92CF92DF92EF92FF920F9334
:102360001F93CF93DF93F82E4B016A01E901AA2452
:10237000A3946115710509F4AA24BB24B394C11474
:10238000D10409F4BB24EE24E394209709F4EE244D
:102390008F2D6EE10E94AC106A2D70E0A3E0660FF5
:1023A000771FAA95E1F761608B2D90E0880F991F48
:1023B000880F991F682B792B8E2D90E0880F991F1D
:1023C000682B792B8F2D0E94C910AA2021F08F2D08
:1023D000B4010E94C910BB2021F08F2DB6010E94CC
:1023E000C910EE2021F08F2DBE010E94C9108F2D43
:1023F000B8010E94C9108F2D64E00E94AC10DF91DB
:10240000CF911F910F91FF90EF90DF90CF90BF90F1
:10241000AF909F908F900895DF92EF92FF920F936D
:102420001F93D82E7A018B016FE10E94AC108D2D85
:1024300060E270E00E94C9108D2DB801A7010E94D2
:102440001B111F910F91FF90EF90DF90089580E096
:1024500060E170E040E050E020E430E00E944B1189
:1024600081E060E170E040E050E020E430E00E9474
:102470004B1182E060E170E040E050E020E430E0A9
:102480000E944B1180E04FEF5FEF6FEF7FE30E9400
:102490000C1281E04FEF5FEF6FEF7FE30E940C12B1
:1024A00082E04FEF5FEF6FEF7FE30E940C12089521
:1024B000DF92EF92FF920F931F93DF93CF930F92D0
:1024C000CDB7DEB7D82E7A018B0177FF0AC0109501
:1024D0000095F094E094E11CF11C011D111D90E0A9
:1024E00001C091E08D2D6FE199830E94AC1099811C
:1024F000792F7295707F60E0686078608D2D0E9402
:10250000C9108D2DB801A7010E941B110F90CF910A
:10251000DF911F910F91FF90EF90DF900895AF92A0
:10252000BF92CF92DF92EF92FF920F931F93DF93B0
:10253000CF93CDB7DEB72C970FB6F894DEBF0FBEA2
:10254000CDBF59016A010E94A64069837A838B83BB
:102550009C83C601B5010E94A6406D837E838F8354
:102560009887C801B7010E94A64069877A878B8740
:102570009C878E010F5F1F4FEE24F80160817181EF
:102580008281938121E73CEA4BE85EE30E946A4244
:102590009B01AC01F80121933193419351938F0139
:1025A00020E030E040E857E40E946A420E94734015
:1025B000AB01BC018E2D0E945812E394FE2DF33026
:1025C000E1F60E94BC102C960FB6F894DEBF0FBE49
:1025D000CDBFCF91DF911F910F91FF90EF90DF90D2
:1025E000CF90BF90AF9008954F925F926F927F927D
:1025F0008F929F92AF92BF92CF92DF92EF92FF9213
:102600000F931F93982E862E29013A016FE10E94A5
:10261000AC10682D70E06A62892D0E94C910892D66
:10262000B301A2010E941B11892DB801A7010E94CC
:102630001B11892DB601A5010E941B111F910F913D
:10264000FF90EF90DF90CF90BF90AF909F908F90D2
:102650007F906F905F904F9008959F92AF92BF923E
:10266000CF92DF92EF92FF920F931F93DF93CF935E
:1026700000D00F92CDB7DEB71ABA15BA8FEF84BB70
:102680001092650083E08093640010E8A12EB4E806
:10269000BB2E6E010894C11CD11C85B3856085BB1F
:1026A00083E39BE20197F1F785B38A7F85BBECEC6E
:1026B000FCE13197F1F700C00000809165008D7F4B
:1026C00080936500AB9885B3887F85BB99B3998368
:1026D000A89A19B385B3887F826085BB09B3943CFF
:1026E00009F494C0943809F491C015BA80E060E010
:1026F0004CE951E00E94670181E060E042EA51E06C
:102700000E946701143C09F481C0143809F47EC0AA
:1027100015BA80E060E04CE951E00E94670182E078
:1027200060E042EB51E00E946701043C09F46EC096
:10273000043809F46BC015BA80E060E04CE951E060
:102740000E94670183E060E042EC51E029C09E2CCA
:102750009C18892D6DE10E94AC10892D60E070E01D
:102760000E94C910F8018081F70181937F01005018
:102770001F4FF3E200301F0751F78981803C99F029
:10278000803889F085B78F7385BF15BA80E060E027
:1027900042ED51E00E94670181E060E042EA51E0D1
:1027A0000E9467017ACF80E060E048ED51E00E942E
:1027B000670180E098B3976098BB2FEF3FEB46E04E
:1027C000215030404040E1F700C0000098B3987FAE
:1027D00098BB2FEF3FEB46E0215030404040E1F7FF
:1027E00000C000008F5F833029F70E94D8010F904E
:1027F0000F900F90CF91DF911F910F91FF90EF906D
:10280000DF90CF90BF90AF909F900895A5BE82E0DB
:1028100080936D00B0926C00760100E010E297CFDB
:102820004F925F926F927F928F929F92AF92BF92E0
:10283000CF92DF92EF92FF920F931F93CF93DF938C
:1028400004E6802E912C84E00E947600982F80E090
:10285000EC0185E00E94760090E08C2B9D2BB4016A
:102860000E940846882777FD8095982F0E94A640F1
:10287000F62E072F182FE92E462E572E682E792E6A
:1028800063015201E894D7F8C601B50120E030E0B9
:1028900044E353E40E94CF411816ACF2609159050D
:1028A00070915A0580915B0590915C052F2D302F1A
:1028B000412F5E2D0E940440882309F4E5C06F2D4E
:1028C000702F812F9E2D20E030E0A9010E9404404E
:1028D00087FF5DC06091590570915A0580915B0535
:1028E00090915C0520E030E0A9010E94CF411816CC
:1028F0000CF04DC02091590530915A0540915B056F
:1029000050915C055F77C601B5010E948D3F20E0C4
:1029100030E044E353E40E94044087FF15C0A090D8
:102920005D05B0905E05C0905F05D0906005209178
:10293000590530915A0540915B0550915C056F2D0A
:10294000702F812F9E2D1CC0A0905D05B0905E055C
:10295000C0905F05D09060056091590570915A054F
:1029600080915B0590915C052F2D302F412F5E2DBE
:102970000E948C3F9B01AC0160E070E084EB93E42B
:102980000E948C3F9B01AC01C601B50169C0C30127
:10299000B20120E030E0A9010E94CF4118160CF0EE
:1029A00047C06091590570915A0580915B059091DF
:1029B0005C0520E030E0A9010E94044087FF38C098
:1029C0002091590530915A0540915B0550915C0565
:1029D0005F77C601B5010E948D3F20E030E044E3FF
:1029E00053E40E94044087FD23C0E0905D05F09011
:1029F0005E0500915F0510916005209159053091A9
:102A00005A0540915B0550915C05C301B2010E94DB
:102A10008C3F9B01AC0160E070E084EB93E40E948A
:102A20008C3F9B01AC01C801B7010E948C3F1AC0CA
:102A3000E0905D05F0905E0500915F0510916005E6
:102A40002091590530915A0540915B0550915C05E4
:102A5000C301B2010E948C3F9B01AC01C801B701C8
:102A60000E948D3F9B01AC0120935D0530935E0574
:102A700040935F05509360054092590550925A0566
:102A800060925B0570925C05DF91CF911F910F9171
:102A9000FF90EF90DF90CF90BF90AF909F908F907E
:102AA0007F906F905F904F9008952F923F924F923A
:102AB0005F926F927F928F929F92AF92BF92CF92CE
:102AC000DF92EF92FF920F931F93DF93CF93CDB7D7
:102AD000DEB762970FB6F894DEBF0FBECDBF698335
:102AE0007A838B839C832D833E834F835887370162
:102AF000480160E070E084E394E4A60195010E943F
:102B00008C3F162F072FF82EE92E8D819E81AF81E5
:102B1000B8858093660590936705A0936805B09388
:102B2000690589819A81AB81BC818093FC05909372
:102B3000FD05A093FE05B093FF05A0927205B0922B
:102B40007305C0927405D0927505C601B50120E0E9
:102B500030E044E353E40E940440181684F0A801D6
:102B60009701652F742F832F922F20E030E044EBE4
:102B700053E40E948C3F162F072FF82EE92EA80150
:102B80009701652F702F832F9E2D20E030E044EBBE
:102B900052E40E948C3F69877A878B879C87C401A7
:102BA000B30123EF36E64FE55EE30E946A426D878C
:102BB0007E878F87988B80E090E036E9432E512CFA
:102BC00028E6222E21E0322E9A8B898BB2018827AB
:102BD00077FD8095982F0E94A6405B016C01C20191
:102BE00088589F4FB1010E9408462C01C601B501CB
:102BF000D801F7012B2F302F4F2F5E2D0E948C3FD5
:102C000025E33AEF4EE85CE30E946A420E940840E6
:102C10003B014C01C601B501B985AA85AB84DC84B2
:102C20002B2F3A2F4A2D5D2D0E948C3F25E33AEF42
:102C30004EE85CE30E946A420E9408405B016C011E
:102C40006D817E818F819885A40193010E946A42E3
:102C50003B014C0169817A818B819C81A6019501A0
:102C60000E946A429B01AC01C401B3010E948D3FE6
:102C7000BD85AE85DF84A8882B2F3A2F4D2D5A2D88
:102C80000E948C3F2FE632E143E856E40E946A42FC
:102C900023E333E343E250EC0E946A420E94734014
:102CA000AB01BC0189890E945812A989BA89119681
:102CB000BA8BA98BA330B10509F088CF0E94BC1054
:102CC0000E94101462960FB6F894DEBF0FBECDBFFF
:102CD000CF91DF911F910F91FF90EF90DF90CF90F8
:102CE000BF90AF909F908F907F906F905F904F902C
:102CF0003F902F9008952F923F924F925F926F9244
:102D00007F928F929F92AF92BF92CF92DF92EF927B
:102D1000FF920F931F93DF93CF93CDB7DEB72C971E
:102D20000FB6F894DEBF0FBECDBF5B016C01390159
:102D30004A011701280160915D0570915E0580913F
:102D40005F05909160052091610530916205409189
:102D5000630550916405E0905D05F0905E0500917B
:102D60005F0510916005E0926105F09262050093A5
:102D7000630510936405E0905505F09056050091A9
:102D80005705109158050E948C3F9B01AC01C8016A
:102D9000B7010E948C3F9B01AC01209355053093F5
:102DA00056054093570550935805C601B50120E0DC
:102DB00030E0A9010E940440882351F4C401B3010A
:102DC00020E030E0A9010E940440882309F4D2C029
:102DD000C601B50120E030E048EC52E40E940B400F
:102DE00069837A838B839C83C401B30120E030E044
:102DF00048EC52E40E940B406D837E838F8398875A
:102E00006091550570915605809157059091580530
:102E1000A20191010E948C3FF62E072F182FE92E58
:102E200080914D0590914E05A0914F05B0915005B0
:102E300089879A87AB87BC876F2D702F812F9E2D36
:102E400025E33AEF4EE85CE30E946A420E940840A4
:102E50003B014C016F2D702F812F9E2D20E030E023
:102E600044EB52E40E948D3F25E33AEF4EE85CE3E9
:102E70000E946A420E9408405B016C0159814A81AC
:102E80003B812C81652F742F832F922FA4019301F6
:102E90000E946A421B012C015D814E813F81288581
:102EA000652F742F832F922FA60195010E946A42ED
:102EB0009B01AC01C201B1010E948D3F9B01AC019D
:102EC00069857A858B859C850E948D3F9B01AC012D
:102ED00020934D0530934E0540934F055093500578
:102EE0002090510530905205409053055090540564
:102EF0006F2D702F812F9E2D20E030E044EB52E4A7
:102F00000E948C3F25E33AEF4EE85CE30E946A4260
:102F10000E9408407B018C015D814E813F812885A4
:102F2000652F742F832F922FA40193010E946A4270
:102F30005B016C0159814A813B812C81652F742F83
:102F4000832F922FA80197010E946A429B01AC0136
:102F5000C601B5010E948D3F9B01AC01C201B101C8
:102F60000E948D3F9B01AC01EDE4F5E024833583A5
:102F7000468357832C960FB6F894DEBF0FBECDBFA5
:102F8000CF91DF911F910F91FF90EF90DF90CF9045
:102F9000BF90AF909F908F907F906F905F904F9079
:102FA0003F902F9008952F923F924F925F926F9291
:102FB0007F928F929F92AF92BF92CF92DF92EF92C9
:102FC000FF920F931F93DF93CF93CDB7DEB72E976A
:102FD0000FB6F894DEBF0FBECDBF180187019A83EC
:102FE00089837C836B83509541955F4F5E834D83CE
:102FF000309521953F4F38872F83CE0101969A87D0
:10300000898779E0472E512C4C0E5D1E7C01662489
:103010007724CC24DD24D7016D917D917D01882713
:1030200077FD8095982F0E94A6404B015C01E894A3
:10303000B7F8662D772D8C2D9D2DA50194010E944A
:10304000044087FF02C034016501E414F50419F758
:10305000EE24FF24C101AA2797FDA095BA2F8B87E4
:103060009C87AD87BE87A985BA85AD90BD90BA878C
:10307000A9876B857C858D859E850E94A6401B0156
:103080002C01B501882777FD8095982F0E94A640D6
:10309000262D372D4C2D5D2D0E940B40A201910154
:1030A0000E946A429B01AC01F701EE0FFF1FEE0F79
:1030B000FF1FEA5EF94F20833183428353830894D4
:1030C000E11CF11CB4E0EB16F10469F604361105BD
:1030D0002CF40115110509F051C005C00436110585
:1030E00011F00456104091E0E92EF12C662D772D59
:1030F0008C2D9D2D20E030E048EC52E40E946A4285
:10310000A20191010E940B400E94F13F5B016C0102
:10311000970122503040C80117FF03C09095819558
:103120009F4FB7010E940846620F731F882777FDE3
:103130008095982F0E94A6409B01AC01C601B50165
:103140000E948D3F0E947340CB012E960FB6F894DB
:10315000DEBF0FBECDBFCF91DF911F910F91FF90CA
:10316000EF90DF90CF90BF90AF909F908F907F9027
:103170006F905F904F903F902F90089582E0E82EDF
:10318000F12CB4CF2F923F924F925F926F927F9229
:103190008F929F92AF92BF92CF92DF92EF92FF9267
:1031A0000F931F93DF93CF93CDB7DEB72E970FB654
:1031B000F894DEBF0FBECDBF7A8369836536710593
:1031C00014F0645670404B0177FF04C088249924A2
:1031D000861A970AE090F202F090F302A7014F5F7F
:1031E0005F4F9C012E193F0900E010E05A01CC24EA
:1031F000B7FCC094DC2CAB82BC82CD82DE82140191
:10320000442437FC4094542C6C01C818D908D88643
:10321000CF82C901AA2797FDA095BA2F89879A87DF
:10322000AB87BC877E876D873401F7FC34C0AD85E2
:10323000BE85B7FD2DC04801880C991C880C991CCF
:10324000F401EA5EF94FA080B180C280D3806B8127
:103250007C818D819E810E94A6409B01AC01C601AC
:10326000B5010E946A425B016C01C201B1010E947A
:10327000A6409B01AC01C601B5010E940B409B0119
:10328000AC01F401E85DF94F20833183428353831D
:10329000E614F70424F4ED85FE85F7FF13C09801CA
:1032A000220F331F220F331FF901EA5EF94F80818D
:1032B0009181A281B381285D394FF9018083918387
:1032C000A283B383AF80B884AE14BF0494F5498160
:1032D0005A814536510568F14801880C991C880CC3
:1032E000991CF401EA5EF94FA080B180C280D380BE
:1032F00069857A858B859C850E94A6409B01AC01DF
:10330000C601B5010E946A425B016C01C201B101B4
:103310000E94A6409B01AC01C601B5010E940B4072
:103320009B01AC01F401E85DF94F208331834283B6
:1033300053830F5F1F4F0430110509F076CF2E968F
:103340000FB6F894DEBF0FBECDBFCF91DF911F91B6
:103350000F91FF90EF90DF90CF90BF90AF909F9034
:103360008F907F906F905F904F903F902F90089537
:1033700081E090E00A9B02C080E090E090937105AC
:103380008093700581E090E00B9B02C080E090E0AC
:1033900090936D0580936C0581E090E00C9B02C0DA
:1033A00080E090E0909327068093260681E090E0ED
:1033B000849B02C080E090E090936F0580936E053F
:1033C00081E090E0869B02C080E090E09093FB0556
:1033D0008093FA052091630081E090E023FD02C014
:1033E00080E090E0909377058093760520916300CC
:1033F00081E090E024FD02C080E090E090936B05B6
:1034000080936A0508951F920F920FB60F920BB624
:103410000F921124EF92FF920F931F932F933F93DC
:103420004F935F936F937F938F939F93AF93BF93CC
:10343000EF93FF938FEF8DBD80E78CBD6091DC0231
:103440007091DD028091DE029091DF022AE037ED7B
:1034500043EA5CE30E948D3F7B018C017F2D912F1D
:1034600020E030E040E85FE30E94CF41181624F4EA
:10347000EE24FF2400E81FE38E2D9F2DA02FB12FF7
:103480008093DC029093DD02A093DE02B093DF0212
:103490006091F6027091F7028091F8029091F90222
:1034A0002AE037ED43EA5CE30E948D3F7B018C010B
:1034B0007F2D912F20E030E040E85FE30E94CF4174
:1034C000181624F4EE24FF2400E81FE38E2D9F2D10
:1034D000A02FB12F8093F6029093F702A093F802E9
:1034E000B093F9026091E0027091E1028091E202F2
:1034F0009091E3022DEC3CEC4CE45DE30E948D3FA7
:10350000F62EE72E8C01A701652F742F912F20E056
:1035100030E040E85FE30E94CF41181624F4FF2416
:10352000EE2400E81FE3A701852F9E2DA02FB12FC9
:103530008093E0029093E102A093E202B093E30251
:103540000E94B81980917005909171050097B1F0B3
:103550008091DA029091DB02009781F48091E4027D
:103560009091E50201969093E5028093E40281E058
:1035700090E09093DB028093DA0210C08091700596
:1035800090917105009751F48091DA029091DB02DD
:10359000009721F01092DB021092DA0280916C0504
:1035A00090916D05009731F1809110039091110376
:1035B000009701F580911A0390911B030196909357
:1035C0001B0380931A0321E030E030931103209312
:1035D00010038091140690911506FC01EE0FFF1F59
:1035E000EE52FA4F31832083019690931506809313
:1035F000140610C080916C0590916D05009751F4F0
:103600008091100390911103009721F01092110303
:103610001092100380912606909127060097B1F032
:1036200080910C0390910D03009781F480910A031F
:1036300090910B03019690930B0380930A0381E012
:1036400090E090930D0380930C0310C080912606A8
:1036500090912706009751F480910C0390910D03EF
:10366000009721F010920D0310920C0380916E05CB
:1036700090916F050097B1F0809108039091090334
:10368000009781F480911203909113030196909317
:1036900013038093120381E090E0909309038093D9
:1036A000080310C080916E0590916F05009751F44A
:1036B0008091080390910903009721F0109209036B
:1036C000109208038091FA059091FB050097B1F0E4
:1036D0008091F4029091F502009781F48091140397
:1036E000909115030196909315038093140381E044
:1036F00090E09093F5028093F40210C08091FA0557
:103700009091FB05009751F48091F4029091F5029D
:10371000009721F01092F5021092F4028091760544
:1037200090917705009741F180910E0390910F03DE
:10373000009711F5809106039091070301969093ED
:1037400007038093060381E090E090930F0380933A
:103750000E038091140690911506FC01EE0FFF1FD9
:10376000EE52FA4F22E030E03183208301969093AD
:1037700015068093140610C0809176059091770508
:10378000009751F480910E0390910F03009721F060
:1037900010920F0310920E0380916A0590916B05B1
:1037A0000097B1F08091F0029091F102009781F4BE
:1037B00080911C0390911D03019690931D038093AB
:1037C0001C0381E090E09093F1028093F00210C01E
:1037D00080916A0590916B05009751F48091F002F9
:1037E0009091F102009721F01092F1021092F002F4
:1037F0008091F2029091F302009729F00196909344
:10380000F3028093F2028091CA029091CB0200975A
:1038100049F08091CA029091CB0201979093CB021C
:103820008093CA028091160390911703009749F084
:10383000809116039091170301969093170380933C
:1038400016038091040390910503009729F00196D7
:1038500090930503809304038091140690911506BC
:103860008431910524F0109215061092140660918F
:10387000FC057091FD058091FE059091FF0520915A
:103880006605309167054091680550916905E090A3
:103890007205F090730500917405109175050E94F2
:1038A0007B16FF91EF91BF91AF919F918F917F9187
:1038B0006F915F914F913F912F911F910F91FF90C9
:1038C000EF900F900BBE0F900FBE0F901F901895AA
:1038D000AF92BF92CF92DF92EF92FF920F931F931E
:1038E00060E070E0CB019B01AC017B018C015B01CE
:1038F0006C010E9455151F910F91FF90EF90DF9082
:10390000CF90BF90AF900895FC01EA51FD4F8081A8
:1039100090E0681779076CF080910403909105039B
:10392000009759F481E090E090930503809304039D
:1039300004C0109205031092040321E030E080914E
:103940000403909105038330910514F420E030E0E6
:10395000C90108951F93182F81E10E943E01812F14
:103960000E943E0180913C028823E1F30E942B01DA
:10397000882391F31F9108954F925F926F927F92E7
:103980008F929F92AF92BF92CF92DF92EF92FF926F
:103990000F931F93CF93DF938C013B01C1E0D0E0E5
:1039A000CC24DD248FEFA82EB12C88249924EE247A
:1039B000FF2444245524401A510A14C0602F17FDD7
:1039C000642D8C2F0E945B3E90E0C816D90614F43B
:1039D0006C017E018A159B0524F4009711F05C01AF
:1039E0004E0121966C167D064CF7101611060CF050
:1039F0007401C701DF91CF911F910F91FF90EF905C
:103A0000DF90CF90BF90AF909F908F907F906F90FE
:103A10005F904F9008956F927F928F929F92AF9296
:103A2000BF92CF92DF92EF92FF920F931F93D62E09
:103A3000C72EB82EA92E922E832E742E652E6E2D93
:103A40007F2D802F912FD601F5012B2F3A2F4F2F4D
:103A50005E2F0E94CF411816ACF06E2D7F2D802F67
:103A6000912FD401F3012B2F3A2F4F2F5E2F0E945D
:103A7000044087FF03C06401530104C0DE2CCF2C37
:103A8000B02EA12EA6019501652F7C2D832F9A2D96
:103A90001F910F91FF90EF90DF90CF90BF90AF906C
:103AA0009F908F907F906F9008952F923F925F929A
:103AB0006F927F928F929F92AF92BF92CF92DF923E
:103AC000EF92FF920F931F93DF93CF93CDB7DEB7A3
:103AD00028970FB6F894DEBF0FBECDBF582E4B010E
:103AE0005A83498310920503109204031092CB026B
:103AF0001092CA028091CA029091CB02909339062B
:103B00008093380680913806909139069093F3029D
:103B10008093F20260E070E080E090E0DC018B01D5
:103B2000000F111F000F111F9801285D394FF90177
:103B300080839183A283B383208131814281538129
:103B4000F801EA5EF94F20833183428353836F5F2C
:103B50007F4F6430710519F700D000D000D0EDB769
:103B6000FEB7319600E016E0ADB7BEB712961C93D3
:103B70000E9311978CEE91E09383828381EF91E015
:103B8000958384830E945C3FEDB7FEB736960FB6EF
:103B9000F894FEBF0FBEEDBF80E067E0A8010E9471
:103BA00067011092170310921603852D66E60E9496
:103BB0005B3EA82EE0905505F09056050091570504
:103BC00010915805B401882777FD8095982F0E94A1
:103BD000A640A80197010E948D3F0E9473404B01AF
:103BE0008A189108882777FD8095982F0E94A64013
:103BF0005B016C01B401882777FD8095982F0E94A6
:103C0000A6407B018C01C40168E572E00E94084671
:103C1000882777FD8095982F0E94A6402FE832ECE8
:103C200045E75EE30E948D3F9B01AC01C801B701EF
:103C30000E946A429B01AC01C601B5010E948D3F02
:103C40000E9473401B018824992491E0692E712CF5
:103C50003C822B8214018091CA029091CB02009782
:103C6000D1F77092CB026092CA02852D66E60E945F
:103C70005B3EE82EFF24852D67E60E945B3E38C040
:103C80000E94681C852D66E60E945B3EE82E852D0D
:103C900067E60E945B3E20911603309117032115C1
:103CA000310521F4709217036092160320911603D8
:103CB00030911703F1E02F353F071CF00E94681C7C
:103CC00012C1FF24E114F10499F020E030E0A901D1
:103CD0002093F6023093F7024093F8025093F902D2
:103CE0002093DC023093DD024093DE025093DF022A
:103CF000082F10E0E114F10421F40115110509F475
:103D0000BFCF4B815C814115510591F0E41AF50A52
:103D1000B701882777FD8095982F0E94A6402DEC4B
:103D20003CEC4CE45FE30E946A420E9473401B013A
:103D300089819A81009719F04C01801A910AB1018A
:103D4000882777FD8095982F0E94A6407B018C01E3
:103D500060E070E088E492E420E030E048E452EC77
:103D60000E940B1D0E9473401B01B401882777FD40
:103D70008095982F0E94A6407B018C0160E070E046
:103D800080E792E420E030E040E752EC0E940B1D17
:103D90000E9473404B01A0905505B0905605C0900D
:103DA0005705D0905805B401882777FD8095982F46
:103DB0000E94A6402091F6023091F7024091F8024D
:103DC0005091F9020E946A422DEC3CEC4CE45FE316
:103DD0000E946A426D837E838F839887B101882712
:103DE00077FD8095982F0E94A6402091DC023091AB
:103DF000DD024091DE025091DF020E946A427B01A7
:103E00008C016091180370911903882777FD8095C4
:103E1000982F0E94A640A60195010E948D3F5B014C
:103E20006C0160E070E0CB012D813E814F815885AF
:103E30000E9455158091F2029091F302009721F4AF
:103E40007092F3026092F2028091F2029091F3027A
:103E5000A1E08F359A0754F42114310409F0FBCE08
:103E6000C40101968330910508F0F5CE1092050348
:103E70001092040380E090E0DC018093720590933F
:103E80007305A0937405B0937505809172059091A8
:103E90007305A0917405B09175058093FC0590930E
:103EA000FD05A093FE05B093FF058091FC05909160
:103EB000FD05A091FE05B091FF05809366059093E6
:103EC0006705A0936805B0936905609166057091D8
:103ED000670580916805909169050E947340709311
:103EE000F3026093F20228960FB6F894DEBF0FBE7D
:103EF000CDBFCF91DF911F910F91FF90EF90DF9099
:103F0000CF90BF90AF909F908F907F906F905F9079
:103F10003F902F9008952F923F925F926F927F92E1
:103F20008F929F92AF92BF92CF92DF92EF92FF92C9
:103F30000F931F93DF93CF93CDB7DEB760970FB684
:103F4000F894DEBF0FBECDBF582E7A8369835C83A1
:103F50004B833E832D83109205031092040310922D
:103F6000CB021092CA028091CA029091CB02909328
:103F700039068093380680913806909139069093DF
:103F8000F3028093F20260E070E080E090E0DC01F8
:103F90008B01000F111F000F111F9801285D394F71
:103FA000F90180839183A283B3832081318142818F
:103FB0005381F801EA5EF94F2083318342835383B2
:103FC0006F5F7F4F6430710519F700D000D000D0CB
:103FD000EDB7FEB7319600E016E0ADB7BEB712966A
:103FE0001C930E9311978CEE91E09383828385EF5F
:103FF00091E0958384830E945C3FEDB7FEB73696CF
:104000000FB6F894FEBF0FBEEDBF80E067E0A801D9
:104010000E946701109217031092160388249924B6
:1040200080E090E06624772431E0232E312C988BB9
:104030008F878091CA029091CB020097D1F730927E
:10404000CB022092CA02852D66E60E945B3EE82ED6
:10405000FF24852D67E60E945B3E082F10E0B70124
:10406000CF84D8883BC00E94681C852D66E60E94DC
:104070005B3EA82E852D67E60E945B3E20911603CD
:10408000309117032115310521F430921703209246
:1040900016032091160330911703F1E02F353F07E7
:1040A0001CF00E94681C57C16A2D70E061157105F3
:1040B00099F020E030E0A9012093F6023093F70256
:1040C0004093F8025093F9022093DC023093DD0212
:1040D0004093DE025093DF02082F10E06115710556
:1040E00021F40115110509F4BECFD88ACF864B8182
:1040F0005C814115510589F0641B750B882777FD9C
:104100008095982F0E94A6402DEC3CEC4CE45FE398
:104110000E946A420E9473403B0189819A81009704
:1041200091F0E81AF90AB701882777FD8095982F52
:104130000E94A6402AE939E949E15FE30E946A4208
:104140000E9473404B01AD81BE81109721F0A01BEE
:10415000B10BB88BAF87B301882777FD8095982F77
:104160000E94A6407B018C0160E070E080EF91E44A
:1041700020E030E040EF51EC0E940B1D0E947340A4
:104180003B01EF85F889BF01882777FD8095982F3F
:104190000E94A6407B018C0160E070E08CE592E417
:1041A00020E030E04CE552EC0E940B1D0E94734071
:1041B000788B6F87B401882777FD8095982F0E94B0
:1041C000A6407B018C0160E070E088E492E420E08E
:1041D00030E048E452EC0E940B1D0E9473404B01FA
:1041E000E090DC02F090DD020091DE021091DF022F
:1041F000B301882777FD8095982F0E94A640A801DB
:1042000097010E946A422DEC3CEC4CE45FE30E9473
:104210006A426F83788789879A872F853889B901A1
:10422000882777FD8095982F0E94A6402091F6025E
:104230003091F7024091F8025091F9020E946A42CF
:104240002DEC3CEC4CE45FE30E946A426B877C8778
:104250008D879E87B401882777FD8095982F0E94CF
:10426000A640A80197010E946A427B018C016091DF
:10427000180370911903882777FD8095982F0E9465
:10428000A6405B016C016F81788589859A852B85B5
:104290003C854D855E850E9455158091F202909176
:1042A000F302009721F43092F3022092F2028091FF
:1042B000F2029091F30231E08F3593077CF46114A0
:1042C000710409F0B6CE8F859889019683309105E7
:1042D00008F0AFCE8114910409F0ABCE1092050323
:1042E0001092040380E090E0DC01809372059093CB
:1042F0007305A0937405B093750580917205909134
:104300007305A0917405B09175058093FC05909399
:10431000FD05A093FE05B093FF058091FC059091EB
:10432000FD05A091FE05B091FF0580936605909371
:104330006705A0936805B093690560916605709163
:10434000670580916805909169050E94734070939C
:10435000F3026093F20260960FB6F894DEBF0FBED0
:10436000CDBFCF91DF911F910F91FF90EF90DF9024
:10437000CF90BF90AF909F908F907F906F905F9005
:104380003F902F9008952F923F924F925F926F929D
:104390007F928F929F92AF92BF92CF92DF92EF92D5
:1043A000FF920F931F93DF93CF93CDB7DEB72E9776
:1043B0000FB6F894DEBF0FBECDBF5C013B0158873E
:1043C0004F8319011A8309830E9410141092050368
:1043D000109204031092CB021092CA028091CA027A
:1043E0009091CB02909339068093380680913806DD
:1043F000909139069093F3028093F20260E070E0AE
:1044000080E090E0DC019B01220F331F220F331F5D
:10441000F901E85DF94F80839183A283B383E08043
:10442000F180028113812A5E394FF901E082F18225
:10443000028313836F5F7F4F6430710521F700D0D3
:1044400000D000D0EDB7FEB7319600E016E0ADB772
:10445000BEB712961C930E9311978CEE91E0938346
:10446000828388EF91E0958384830E945C3FEDB75F
:10447000FEB736960FB6F894FEBF0FBEEDBF80E0D4
:1044800067E0A8010E94670180915D0590915E053B
:10449000A0915F05B09160058B839C83AD83BE8343
:1044A000C501B30140E050E020E030E08101E98047
:1044B000FA800E94D317A114B10471F16114710440
:1044C00059F1B101882777FD8095982F0E94A64069
:1044D0007B018C0160911606709117068091180679
:1044E0009091190620911A0630911B0640911C06E6
:1044F00050911D060E94DC419B01AC01C801B7012F
:104500000E940B409B01AC015F77C801B7010E947C
:104510006A420E9473401B01C501B3014F81588557
:1045200020E030E08101E980FA800E94D317909367
:10453000390680933806C1010A966AE070E00E944D
:10454000084620E030E0CB01AA2797FDA095BA2FBE
:1045500089879A87AB87BC873E872D878091CA025F
:104560009091CB020097D1F7AD85BE851196BE879D
:10457000AD87E1E0F0E0F093CB02E093CA028091D6
:1045800038069091390669817A810E94C2188D851A
:104590009E858A30910561F480915D0590915E055C
:1045A000A0915F05B09160058B839C83AD83BE8332
:1045B000AF81B885109709F047C0ED85FE85EB30D7
:1045C000F1050CF441C020915D0530915E054091EC
:1045D0005F05509160056B817C818D819E810E9479
:1045E0008C3F662EA72EE82E092F69857A858B854C
:1045F0009C850E94A6409B01AC01662D7A2D8E2DD4
:10460000902F0E946A42E62EF72E082F192FC8011C
:10461000B7019F7720E030E040EF51E40E94CF41A6
:10462000181654F40F2EF0E0EF2EF0E0FF2EF0E01D
:104630000F2FF0E01F2FF02DE0923006F0923106A0
:1046400000933206109333068091F2029091F302A8
:10465000009731F481E090E09093F3028093F202AE
:10466000609028067090290680902A0690902B066C
:1046700020902C0630902D0640902E0650902F064C
:10468000E0903006F090310600913206109133062A
:104690006091180370911903882777FD8095982FF2
:1046A0000E94A6405B016C01C401B301A20191010B
:1046B0000E94551580913806909139062091F2029A
:1046C0003091F302821793070CF048CF1092050344
:1046D0001092040380E090E0DC01809372059093D7
:1046E0007305A0937405B093750580917205909140
:1046F0007305A0917405B09175058093FC059093A6
:10470000FD05A093FE05B093FF058091FC059091F7
:10471000FD05A091FE05B091FF058093660590937D
:104720006705A0936805B09369056091660570916F
:10473000670580916805909169050E9473407093A8
:10474000F3026093F2022E960FB6F894DEBF0FBE0E
:10475000CDBFCF91DF911F910F91FF90EF90DF9030
:10476000CF90BF90AF909F908F907F906F905F9011
:104770004F903F902F9008952F923F924F925F92CB
:104780006F927F928F929F92AF92BF92CF92DF9261
:10479000EF92FF920F931F93DF93CF93CDB7DEB7C6
:1047A00062970FB6F894DEBF0FBECDBF9A87898798
:1047B0007C876B873A0119011C830B83FE86ED868B
:1047C000BA82A98210920503109204031092CB02C0
:1047D0001092CA028091CA029091CB02909339063E
:1047E0008093380680913806909139069093F302B1
:1047F0008093F20260E070E080E090E0DC019B01D9
:10480000220F331F220F331FF901E85DF94F808318
:104810009183A283B383E080F180028113812A5EB9
:10482000394FF901E082F182028313836F5F7F4F7A
:104830006430710521F700D000D000D0EDB7FEB78D
:10484000319600E016E0ADB7BEB712961C930E93FA
:1048500011978CEE91E0938382838DEF91E09583A5
:1048600084830E945C3FEDB7FEB736960FB6F8948E
:10487000FEBF0FBEEDBF80E067E0A8010E946701A8
:1048800080915D0590915E05A0915F05B0916005F6
:104890008D839E83AF83B887C301B10140E050E0B0
:1048A00020E030E08601E980FA800E94D31761148D
:1048B000710471F12114310459F1B601882777FD93
:1048C0008095982F0E94A6407B018C01609116066E
:1048D00070911706809118069091190620911A067A
:1048E00030911B0640911C0650911D060E94DC4130
:1048F0009B01AC01C801B7010E940B409B01AC01B8
:104900005F77C801B7010E946A420E9473406B0141
:10491000C301B1014B815C8120E030E08601E98078
:10492000FA800E94D3179093390680933806C60107
:104930000A966AE070E00E940846CB01AA2797FD1C
:10494000A095BA2F8F87988BA98BBA8B8091CA02BA
:104950009091CB020097D1F7A1E0B0E0B093CB02E9
:10496000A093CA02809138069091390669817A81B4
:104970000E94C218EB81FC81309709F041C0209160
:104980005D0530915E0540915F05509160056D8138
:104990007E818F8198850E948C3F662EA72EE82EFF
:1049A000092F6F85788989899A890E94A6409B0181
:1049B000AC01662D7A2D8E2D902F0E946A42E62E34
:1049C000F72E082F192FC801B7019F7720E030E09C
:1049D00040EF51E40E94CF41181654F40F2EF0E03E
:1049E000EF2EF0E0FF2EF0E00F2FF0E01F2FF02D64
:1049F000E0923006F09231060093320610933306AF
:104A00008091F2029091F302009731F481E090E0FE
:104A10009093F3028093F2028091380690913906C8
:104A20002091F2023091F3028217930774F0A98566
:104A3000BA85109709F05FC08B859C856D857E8552
:104A40000E94841C009709F456C01092050310922E
:104A5000040380E090E0DC0180937205909373057D
:104A6000A0937405B09375058091720590917305BC
:104A7000A0917405B09175058093FC059093FD0598
:104A8000A093FE05B093FF058091FC059091FD0574
:104A9000A091FE05B091FF05809366059093670590
:104AA000A0936805B09369056091660570916705EC
:104AB00080916805909169050E9473407093F3029C
:104AC0006093F20262960FB6F894DEBF0FBECDBFC0
:104AD000CF91DF911F910F91FF90EF90DF90CF90DA
:104AE000BF90AF909F908F907F906F905F904F900E
:104AF0003F902F900895609028067090290680902E
:104B00002A0690902B0620902C0630902D0640907F
:104B10002E0650902F06E0903006F090310600915E
:104B2000320610913306609118037091190388279B
:104B300077FD8095982F0E94A6405B016C01C4010F
:104B4000B301A20191010E94551500CF2F923F920F
:104B50004F925F926F927F928F929F92AF92BF928D
:104B6000CF92DF92EF92FF920F931F93DF93CF9339
:104B7000CDB7DEB72E970FB6F894DEBF0FBECDBF10
:104B80009A8389835B013A013E832D831801FC825D
:104B9000EB8210920503109204031092CB02109244
:104BA000CA028091CA029091CB02909339068093F9
:104BB000380680913806909139069093F3028093DD
:104BC000F20260E070E080E090E0DC019B01220FE7
:104BD000331F220F331FF901E85DF94F8083918362
:104BE000A283B383E080F180028113812A5E394F72
:104BF000F901E082F182028313836F5F7F4F64309B
:104C0000710521F700D000D000D0EDB7FEB7319686
:104C100000E016E0ADB7BEB712961C930E93119745
:104C20008CEE91E09383828384E092E09583848389
:104C30000E945C3FEDB7FEB736960FB6F894FEBF04
:104C40000FBEEDBF80E067E0A8010E946701809180
:104C50005D0590915E05A0915F05B09160058F8321
:104C60009887A987BA87C501B30140E050E020E0EA
:104C700030E08101EB80FC800E94D317A114B104C5
:104C800071F16114710459F1B101882777FD8095A4
:104C9000982F0E94A6407B018C01609116067091AE
:104CA0001706809118069091190620911A063091E6
:104CB0001B0640911C0650911D060E94DC419B0181
:104CC000AC01C801B7010E940B409B01AC015F77AA
:104CD000C801B7010E946A420E9473401B01C501CE
:104CE000B3014D815E8120E030E08101EB80FC80EA
:104CF0000E94D3179093390680933806C1010A9613
:104D00006AE070E00E940846CB01AA2797FDA095B3
:104D1000BA2F8B879C87AD87BE878091CA029091FE
:104D2000CB020097D1F7A1E0B0E0B093CB02A09303
:104D3000CA0280913806909139066B817C810E946D
:104D4000C218ED81FE81309709F041C020915D05C8
:104D500030915E0540915F05509160056F817885C7
:104D600089859A850E948C3F662EA72EE82E092FF2
:104D70006B857C858D859E850E94A6409B01AC013C
:104D8000662D7A2D8E2D902F0E946A42E62EF72EE8
:104D9000082F192FC801B7019F7720E030E040EFBE
:104DA00051E40E94CF41181654F40F2EF0E0EF2E7C
:104DB000F0E0FF2EF0E00F2FF0E01F2FF02DE0923B
:104DC0003006F0923106009332061093330680913C
:104DD000F2029091F302009731F481E090E0909319
:104DE000F3028093F2028091380690913906209167
:104DF000F2023091F302821793070CF040C0109238
:104E000005031092040380E090E0DC0180937205BA
:104E100090937305A0937405B09375058091720506
:104E200090917305A0917405B09175058093FC0570
:104E30009093FD05A093FE05B093FF058091FC05BE
:104E40009091FD05A091FE05B091FF058093660548
:104E500090936705A0936805B09369056091660516
:104E60007091670580916805909169050E94734073
:104E70007093F3026093F20220E030E0E3C0A98176
:104E8000BA81109729F480916C0590916D0514C03A
:104E9000E981FA81E130F10529F48091760590915C
:104EA000770562C089819A818230910509F047C0F7
:104EB00080916E0590916F05009709F498C010924B
:104EC00005031092040380E090E0DC0180937205FA
:104ED00090937305A0937405B09375058091720546
:104EE00090917305A0917405B09175058093FC05B0
:104EF0009093FD05A093FE05B093FF058091FC05FE
:104F00009091FD05A091FE05B091FF058093660587
:104F100090936705A0936805B09369056091660555
:104F20007091670580916805909169050E947340B2
:104F30007093F3026093F20221E030E083C0A98114
:104F4000BA81A330B10561F0E981FA81E430F1055D
:104F500009F04DC080916E0590916F05009739F46E
:104F60008091FA059091FB05009709F440C01092DA
:104F700005031092040380E090E0DC018093720549
:104F800090937305A0937405B09375058091720595
:104F900090917305A0917405B09175058093FC05FF
:104FA0009093FD05A093FE05B093FF058091FC054D
:104FB0009091FD05A091FE05B091FF0580936605D7
:104FC00090936705A0936805B093690560916605A5
:104FD0007091670580916805909169050E94734002
:104FE0007093F3026093F20222E030E02BC06090F5
:104FF00028067090290680902A0690902B06209013
:105000002C0630902D0640902E0650902F06E090F2
:105010003006F0903106009132061091330660910F
:10502000180370911903882777FD8095982F0E94A7
:10503000A6405B016C01C401B301A20191010E9471
:1050400055156BCEC9012E960FB6F894DEBF0FBE74
:10505000CDBFCF91DF911F910F91FF90EF90DF9027
:10506000CF90BF90AF909F908F907F906F905F9008
:105070004F903F902F9008952F923F924F925F92C2
:105080006F927F928F929F92AF92BF92CF92DF9258
:10509000EF92FF920F931F93DF93CF93CDB7DEB7BD
:1050A000AA970FB6F894DEBF0FBECDBF4C017A832E
:1050B00069835C834B8339011C870B87FE82ED82F9
:1050C000B886AF8210920503109204031092CB02AF
:1050D0001092CA028091CA029091CB029093390635
:1050E0008093380680913806909139069093F302A8
:1050F0008093F20220E030E00F2EF0E0EF2EF0E09F
:10510000FF2EF0E00F2FF0E01F2FF02DC901880FC8
:10511000991F880F991FFC01E85DF94FE082F18229
:105120000283138340815181628173818A5E994F2A
:10513000DC014D935D936D937C9313972F5F3F4FED
:105140002430310519F700D000D000D0EDB7FEB7FC
:10515000319600E016E0ADB7BEB712961C930E93E1
:1051600011978CEE91E09383828382E192E09583A4
:1051700084830E945C3FEDB7FEB736960FB6F89475
:10518000FEBF0FBEEDBF80E067E0A8010E9467018F
:1051900028E230E049815A81429FC001439F900D2F
:1051A000529F900D11242091180330911903820F02
:1051B000931F68E671E00E940846843B910524F441
:1051C00011E0212E312C03C022242A94322C80E0BD
:1051D00090E06B817C8140E050E020E030E086018F
:1051E000EF80F8840E94D317909339068093380695
:1051F000C301880F991F880F991F860D971D4BEFCC
:105200005FEF649E9001659E300D749E300D1124F9
:10521000269CB001279C700D369C700D11247A8756
:105220006987D4011896BA8BA98BE981FA81EA5172
:10523000FD4FFC8BEB8BA601662757FD6095762F03
:105240004D8B5E8B6F8B788FD094C194D108D394A3
:10525000A601662757FD6095762F498F5A8F6B8F71
:105260007C8FAC01662757FD6095762F4D8F5E8F42
:105270006F8F78A3B901882777FD8095982F69A350
:105280007AA38BA39CA388279927881999099EA3A1
:105290008DA380913806909139066F8178850E94A0
:1052A000C2188091CA029091CB02009791F7A1E0B9
:1052B000B0E0B093CB02A093CA02E989FA89E13148
:1052C000F10508F049C0C40197FE02C08DA19EA15E
:1052D000FC01EA51FD4F2081293009F492C01814D5
:1052E000190444F06D817E810E94841C009709F4AA
:1052F00088C062C1808190E02D813E818217930732
:105300000CF47FC049815A814815590509F054C1F0
:10531000C0902C06D0902D06E0902E06F0902F061F
:105320006091180370911903882777FD8095982F55
:105330000E94A6404B015C0160E070E0CB01A70138
:1053400096017B018C01650154010E94551551E3C2
:105350005A95F1F7000030C16DE08616910429F4EA
:1053600080916E0590916F0509C07EE087169104CB
:1053700009F047C08091FA059091FB05009709F468
:1053800040C0109205031092040380E090E0DC011D
:105390008093720590937305A0937405B09375057F
:1053A0008091720590917305A0917405B091750577
:1053B0008093FC059093FD05A093FE05B093FF0537
:1053C0008091FC059091FD05A091FE05B091FF052F
:1053D0008093660590936705A0936805B09369056F
:1053E00060916605709167058091680590916905E7
:1053F0000E9473407093F3026093F20281E090E0A8
:1054000018C1AB89BC898C91E82FF0E02B853C85D5
:10541000E21BF30BFE87ED87CF01F7FF03C09095EA
:1054200081959F4F853091052CF16D8D7E8D8F8DEF
:1054300098A10E94A6405B016C0169A17AA18BA191
:105440009CA10E94A6402B013C014D855E85BA01BE
:10545000882777FD8095982F0E94A6407B018C01BC
:10546000C601B501A30192010E940B1D0E94734069
:105470006B0102C0CD84DE846B817C8177FF04C028
:10548000D094C194D108D3947CE08716910449F458
:10549000ED84FE84EE0CFF1CEE0CFF1CCC24DD24FE
:1054A00002C0ED84FE846D897E898F89988D0E946B
:1054B000A6402B013C01698D7A8D8B8D9C8D0E94BD
:1054C000A6406D877E878F87988BC70162E070E06A
:1054D0000E940846882777FD8095982F0E94A64055
:1054E0007B018C01C301B2012D853E854F85588912
:1054F0000E940B1D20912C0630912D0640912E0606
:1055000050912F062FA338A749A75AA70E9473408E
:1055100088279927861B970B829DB001839D700D6C
:10552000929D700D1124882777FD8095982F0E94F9
:10553000A6402B013C01D094C194D108D394898515
:105540009A85C89EB001C99E700DD89E700D112419
:10555000882777FD8095982F0E94A6407B018C01BB
:105560006091180370911903882777FD8095982F13
:105570000E94A6405B016C01C301B2012FA138A5B6
:1055800049A55AA50E9455158091F2029091F30207
:10559000009731F4A1E0B0E0B093F302A093F202DF
:1055A00080913806909139062091F2023091F302F1
:1055B000821793070CF06DCE10920503109204032E
:1055C00080E090E0DC018093720590937305A093D6
:1055D0007405B09375058091720590917305A09143
:1055E0007405B09175058093FC059093FD05A0931B
:1055F000FE05B093FF058091FC059091FD05A091FB
:10560000FE05B091FF058093660590936705A09312
:105610006805B09369056091660570916705809192
:105620006805909169050E9473407093F30260933E
:10563000F202AA960FB6F894DEBF0FBECDBFCF918F
:10564000DF911F910F91FF90EF90DF90CF90BF906F
:10565000AF909F908F907F906F905F904F903F9012
:105660002F9008952F923F924F925F926F927F9268
:105670008F929F92AF92BF92CF92DF92EF92FF9262
:105680000F931F93DF93CF9300D000D000D0CDB7FE
:10569000DEB75C014B013A0119011A8309831092AC
:1056A0000503109204031092CB021092CA0280915B
:1056B000CA029091CB02909339068093380680916C
:1056C0003806909139069093F3028093F20260E0DD
:1056D00070E080E090E0DC019B01220F331F220F7D
:1056E000331FF901E85DF94F80839183A283B3836F
:1056F000E080F18002811381F901EA5EF94FE082D6
:10570000F182028313836F5F7F4F6430710521F74D
:1057100000D000D000D0EDB7FEB7319600E016E023
:10572000ADB7BEB712961C930E9311978CEE91E015
:105730009383828387E192E0958384830E945C3F18
:10574000EDB7FEB736960FB6F894FEBF0FBEEDBFAD
:1057500080E067E0A8010E946701C501B401A301D0
:1057600020E030E08101E980FA800E94D317B10186
:10577000882777FD8095982F0E94A6407B018C0199
:10578000609116067091170680911806909119067F
:1057900020911A0630911B0640911C0650911D065F
:1057A0000E94DC419B01AC01C801B7010E940B4083
:1057B0009B01AC015F77C801B7010E946A420E9459
:1057C00073407B018C01C501B401A30120E030E0EE
:1057D0008701E980FA800E94D3179093390680935D
:1057E000380699248824772466248091CA029091EF
:1057F000CB020097D1F721E030E03093CB02209329
:10580000CA02809138069091390669817A810E9496
:10581000C2186091300670913106809132069091E5
:1058200033062091F2023091F3022115310531F453
:10583000A1E0B0E0B093F302A093F2022091380609
:10584000309139064091F2025091F3022417350746
:105850000CF056C0109205031092040380E090E013
:10586000DC018093720590937305A0937405B09347
:1058700075058091720590917305A0917405B091A2
:1058800075058093FC059093FD05A093FE05B093EC
:10589000FF058091FC059091FD05A091FE05B0915A
:1058A000FF058093660590936705A0936805B09304
:1058B0006905609166057091670580916805909112
:1058C00069050E9473407093F3026093F20226967A
:1058D0000FB6F894DEBF0FBECDBFCF91DF911F9101
:1058E0000F91FF90EF90DF90CF90BF90AF909F907F
:1058F0008F907F906F905F904F903F902F90089582
:10590000905820E030E048EC52E40E940B409B01AC
:10591000AC01D401F3016B2F782D8F2F962D0E94AF
:105920008D3F962E872E782E692E20902806309057
:10593000290640902A0650902B0680912C069091C3
:105940002D06A0912E06B0912F068B839C83AD83EC
:10595000BE83E0903006F09031060091320610913F
:1059600033066091180370911903882777FD80959D
:10597000982F0E94A640D401F3012B2F3A2F4F2FCE
:105980005E2F0E948D3F5B016C01C201B1012B8132
:105990003C814D815E810E94551527CF2F923F9209
:1059A0004F925F926F927F928F929F92AF92BF922F
:1059B000CF92DF92EF92FF920F931F93DF93CF93DB
:1059C000CDB7DEB72A970FB6F894DEBF0FBECDBFB6
:1059D0007C01562E472E1A011A8309831092050363
:1059E000109204031092CB021092CA028091CA0254
:1059F0009091CB02909339068093380680913806B7
:105A0000909139069093F3028093F20260E070E087
:105A100080E090E0DC01A9019B01220F331F220FDF
:105A2000331FF901E85DF94F80839183A283B3832B
:105A3000A080B180C280D3802A5E394FF901A08254
:105A4000B182C282D3826F5F7F4F6430710521F7CC
:105A50006A0100D000D000D0EDB7FEB7319600E06B
:105A600016E0ADB7BEB712961C930E9311978CEE4D
:105A700091E0938382838DE192E0958384830E94F9
:105A80005C3FEDB7FEB736960FB6F894FEBF0FBE7B
:105A9000EDBF80E067E0A8010E946701B701882799
:105AA00077FD8095982F0E94A6402BED3FE049E4BA
:105AB00050E40E946A427B018C01C201692F742D5F
:105AC00077FF03C0709561957F4F882777FD80959C
:105AD000982F0E94A6409B01AC01C801B7010E940B
