:100000000C9455000C9474000C9474000C947400BF
:100010000C9474000C9474000C9474000C94740090
:100020000C9474000C9474000C9474000C94740080
:100030000C9474000C9474000C944E1C0C9474007A
:100040000C9474000C9474000C9466400C9474002E
:100050000C9474000C9474000C9474000C94740050
:100060000C9474000C9474000C9474000C94740040
:100070000C9474000C9474000C940A010C94740099
:100080000C9474000C9474000C94740005A84CCD6E
:10009000B2D44EB93836A9020C50B9918688083CC2
:1000A000A6AAAA2ABE000000803F11241FBECFEFDF
:1000B000D0E1DEBFCDBF12E0A0E0B1E0ECECFFE8A4
:1000C00000E00BBF02C007900D92A430B107D9F732
:1000D00013E0A4E0B2E001C01D92AB35B107E1F737
:1000E0000E942B020C940E410C94000094EA909311
:1000F00074009091740097FFFCCF9AE09093730086
:1001000094E8909374009091740097FFFCCF8093D3
:10011000730084E8809374008091740087FFFCCFA3
:1001200084E98093740084EA809374008091740061
:1001300087FFFCCF8BE08093730084E8809374008A
:100140008091740087FFFCCF84E8809374008091D5
:10015000740087FFFCCF8091730094E99093740042
:10016000089594EA909374009091740097FFFCCFE7
:100170009AE09093730094E89093740090917400C7
:1001800097FFFCCF8093730084E880937400809184
:10019000740087FFFCCF6093730084E88093740041
:1001A0008091740087FFFCCF84E9809374000895E8
:1001B00010929B0088E980939A0086E080939D00CE
:1001C000109298008FE580939900789408951F937A
:1001D0001FEF1093730081E4809370000E947815E4
:1001E0000E9452400E94D8000E9472141FBC85E0F9
:1001F0008EBD1DBD80E78CBD84E087BF78948FE005
:1002000087BB81B3807F81BB84B3806F84BB18BA06
:100210001F9108951F920F920FB60F9211248F9382
:10022000DF93CF930F92CDB7DEB780919C00898387
:1002300080919B00887BE1F381E0809304028981B7
:10024000809305020F90CF91DF918F910F900FBE99
:100250000F901F901895DF93CF930F92CDB7DEB715
:1002600080910502898310920502F894109204028D
:10027000789489810F90CF91DF91089590919B00A0
:1002800095FFFCCF80939C000895CF93DF93E4E724
:10029000F0E094EA9083A1EEB2E01197F1F700004C
:1002A000A3E7B0E09EE09C9394E89083C1EED2E097
:1002B0002197F1F700008C93908381EE92E00197F3
:1002C000F1F7000084E98083DF91CF910895EF92E8
:1002D000FF920F931F93DF93CF9300D0CDB7DEB77C
:1002E000082F162F843070F5643160F58BE1498357
:1002F0005A830E9445018CE40E944501812F0E948F
:100300004501802F0E94450180E791E00197F1F7B8
:1003100000C0E12EFF2449815A81042F152F06C009
:100320000E94450194EC9A95F1F700C0E4E1EE16C5
:10033000F10444F4F80181918F010894E11CF11C4F
:10034000882371F70F900F90CF91DF911F910F913C
:10035000FF90EF9008951F93DF93CF9300D0CDB718
:10036000DEB7182F8430F0F46431E0F48BE12A8397
:1003700069830E9445018CE40E9445016981862FB2
:100380000E944501812F0E94450180E791E001977D
:10039000F1F700C02A81822F0E94450194EC9A95C2
:1003A000F1F700C00F900F90CF91DF911F9108954A
:1003B0008BE10E94450183E40E94450186E696EEAA
:1003C000A0E081509040A040E1F70895EF92FF92A5
:1003D0000F931F93182FF62EE42E842F64E60E94AD
:1003E000B147082F282F30E0205D3F4F442737FDCD
:1003F0004095542F812F6F2D0E94AB018CE9089FEF
:10040000002D11240E0D802F6AE00E94B147E82EC6
:100410006F2D6F5F282F30E0205D3F4F442737FD61
:100420004095542F812F0E94AB016F2D6E5F26EFF8
:10043000E29E202D1124200F30E0205D3F4F442705
:1004400037FD4095542F812F0E94AB011F910F91D2
:10045000FF90EF9008952F923F924F925F926F928C
:100460007F928F929F92AF92BF92CF92DF92EF9244
:10047000FF920F931F93CF93DF930E94E7008EE1CB
:1004800061E00E94B1008EE165E00E94B1008EE162
:1004900064E10E94B1008EE160E10E94B1000E941F
:1004A000FD3F8BE00E94354082E30E94F51E80E014
:1004B00063E10E9417408823D1F32FEF3FE746E125
:1004C000215030404040E1F700C0000080E090E063
:1004D000DC018093760290937702A0937802B09328
:1004E0007902209176023091770240917802509102
:1004F00079022093720230937302409374025093F6
:1005000075022091720230917302409174025091F1
:10051000750220936E0230936F02409370025093E5
:1005200071028093820290938302A0938402B0931D
:1005300085028091820290918302A0918402B09101
:10054000850280937E0290937F02A0938002B093F5
:100550008102C39A4FEF5FE764E041505040604032
:10056000E1F700C00000C3980F2EF0E06F2EF0E01E
:100570007F2EF0E08F2EF0E09F2EF02DBAE54B2E6F
:10058000512CA1E22A2EA3E03A2EB49914C08091F6
:10059000060290910702019790930702809306024A
:1005A000C39A6FEF7FE784E0615070408040E1F7CD
:1005B00000C00000C398B69914C0809106029091C3
:1005C000070201969093070280930602C39A8FEF69
:1005D0009FE7A4E081509040A040E1F700C00000F8
:1005E000C398B59B02C00C9464110E94D801C39AB1
:1005F0002FEF3FE744E0215030404040E1F700C09A
:100600000000C39880910602909107023FEF8D3F52
:10061000930711F40C94DA0E4FEF8E3F94079CF47D
:100620005FEF8B3F950709F4DDC66FEF8C3F9607B0
:1006300014F00C948E0D7FEF8A3F970711F00C9405
:1006400064110C94C00FAFEF8F3F9A0709F4EAC30F
:10065000BFEF8F3F9B070CF463C58330910514F007
:100660000C94641160923C0270923D0280923E02B2
:1006700090923F02609222027092230280922402A2
:100680009092250250925F0240925E0283E090E0D9
:100690006AE770E044E050E024EC30E005E010E070
:1006A000FAEAEF2EF12CEEE1CE2ED12CBEE1AB2EEC
:1006B000B12C0E94333910925F0210925E028CE0DE
:1006C00090E061E070E045E050E023E030E00BE0D6
:1006D00010E0EE24FF24A8E2CA2ED12CF2E3AF2EC4
:1006E000B12C0E94522A8AE090E061E070E045E07F
:1006F00050E025E030E0AA24BB240E94522A81E089
:1007000090E063E270E046EA5FEF2EE130E000E067
:1007100010E00E94882D85E690E063E070E00E9482
:10072000071F90936D0280936C028CE090E061E073
:1007300070E045E050E023E030E00BE010E0E2E361
:10074000AE2EB12C0E94522A8AE090E061E070E067
:1007500044E150E025E030E0BEECAB2EBFEFBB2E15
:100760000E94522A80E090E061EF7FEF40E050E08D
:100770002EE130E008E210E00E940E2450925F0269
:1007800040925E0280E090E060E070E044E050E083
:1007900024EC30E005E010E0AAEAEA2EF12CFEE1BC
:1007A000CF2ED12CEEE1AE2EB12C0E9433396092C7
:1007B0003C0270923D0280923E0290923F02609213
:1007C000220270922302809224029092250250927B
:1007D0005F0240925E0283E090E06AE770E044E0EE
:1007E00050E024EC30E00E94333910925F02109206
:1007F0005E0280E090E06EEF7FEF40E050E02AE0A4
:1008000030E008E710E00E940E2489E190E060E00B
:1008100070E046E450E02EE130E008E210E00E9493
:10082000882DCCEEDFEFD0935F02C0935E0289EE9D
:100830009FEF6AE570E04AE550E029E130E000E032
:1008400010E00E94EC308CE090E066E070E04BEF4E
:100850005FEF23E030E00DE010E0EE24FF24B8E28B
:10086000CB2ED12CAA24BB240E94522A10926302C0
:10087000109262028AE090E066E070E04BEF5FEF7A
:1008800025E030E00E94522A86E090E066E070E0C9
:1008900048E15CEF23E030E0A6E1EA2EF12C0E9473
:1008A000522A809162029091630290936702809332
:1008B000660280910602909107028230910531F420
:1008C000E1E0F0E0F0936702E093660280E090E000
:1008D00061EF7FEF48E250E028E230E00EEC1FEFDE
:1008E000FCE3EF2EF12C0E94283484E190E09093F9
:1008F0005F0280935E028BEF9FEF69E170E046E458
:1009000050E029E130E003E210E00E94882D1092CF
:100910005F0210925E02609276027092770280927D
:100920007802909279028091760290917702A0915C
:100930007802B09179028093720290937302A0932F
:100940007402B09375028091720290917302A0912B
:100950007402B091750280936E0290936F02A0931F
:100960007002B09371026092820270928302809250
:100970008402909285028091820290918302A091DC
:100980008402B091850280937E0290937F02A093AF
:100990008002B09381028CE090E068E070E043E078
:1009A00050E023E030E00FE010E0EE24FF24E8E226
:1009B000CE2ED12CB2E3AB2EB12C0E94522A8AE06B
:1009C00090E068E070E045E050E025E030E0AA24E7
:1009D000BB240E94522A88E090E068E070E048EE74
:1009E00053E025E030E0A9E1EA2EF12C0E94522AE2
:1009F00060917202709173028091740290917502FD
:100A0000C1E0D0E020E030E044E352E40E948443BF
:100A1000181614F0C0E0D0E0D0936502C0936402D1
:100A200080E090E066E170E048ED5FEF2EE130E0BD
:100A300000E010E00E94882D88ED9FEF90935F0208
:100A400080935E0284E190E066EA7FEF4EEC5FEF18
:100A50002EE130E00E94EC3010925F0210925E02B4
:100A600081E090E06CE170E046EA5FEF2EE130E07B
:100A700008ED1FEF0E94882D80916402909165021D
:100A80000097A1F18EE190E090930B0280930A020F
:100A900060923C0270923D0280923E0290923F0230
:100AA0006092220270922302809224029092250288
:100AB00050925F0240925E0283E090E06AE770E04D
:100AC00044E050E024EC30E005E010E0FAEAEF2EDC
:100AD000F12CEEE1CE2ED12CBEE1AB2EB12C0E943A
:100AE000333910925F0210925E0229C060923C027C
:100AF00070923D0280923E0290923F0260922202EA
:100B000070922302809224029092250280E090E06D
:100B100060E070E041E050E025EA30E003E010E002
:100B2000ADE9EA2EF12CFEE1CF2ED12CEEE1AE2E76
:100B3000B12C0E94333910920B0210920A02C0911C
:100B40006C02D0916D0285E690E063E070E00E9457
:100B5000071FC817D90709F07EC06092760270920D
:100B60007702809278029092790280917602909139
:100B70007702A0917802B0917902809372029093EB
:100B80007302A0937402B0937502809172029091E7
:100B90007302A0917402B091750280936E029093DB
:100BA0006F02A0937002B093710260928202709201
:100BB00083028092840290928502809182029091B9
:100BC0008302A0918402B091850280937E0290936B
:100BD0007F02A0938002B09381028CE090E061E0FC
:100BE00070E043E050E023E030E00BE010E0EE2462
:100BF000FF24B8E2CB2ED12CA2E3AA2EB12C0E9466
:100C0000522A40910A0250910B024B5F5F4F8AE0DB
:100C100090E061E070E025E030E0FEECAF2EFFEF09
:100C2000BF2E0E94522A60917202709173028091CD
:100C300074029091750290580E9428429B01AC0169
:100C400080E090E0B90140E050E02EE130E00CE8B7
:100C500010E00E940E24809164029091650200973A
:100C6000D1F160923C0270923D0280923E029092DD
:100C70003F0260922202709223028092240290929C
:100C8000250250925F0240925E0283E090E06AE7A4
:100C900070E044E050E024EC30E005E010E0EAEAE7
:100CA000EE2EF12CBEE1CB2ED12CAEE1AA2EB12C32
:100CB0000E94333910925F0210925E0280E090E051
:100CC0006FEF7FEF40E050E02AE030E008E710E00F
:100CD0000E940E2425C060923C0270923D028092D8
:100CE0003E0290923F026092220270922302809212
:100CF00024029092250280E090E060E070E041E004
:100D000050E025EA30E003E010E0FDE9EF2EF12CA1
:100D1000EEE1CE2ED12CBEE1AB2EB12C0E943339A8
:100D20008091660290916702009709F068C1209156
:100D30006402309165028AE190E0821B930B60E0CF
:100D400070E046E450E02EE130E008E210E00E945E
:100D5000882D89EE9FEF6AE570E04AE550E02EE1CC
:100D600030E000E010E00E94EC302CEE3FEF3093DA
:100D70005F0220935E028CE090E066E070E04DEF51
:100D80005FEF23E030E00CE010E0EE24FF24A8E267
:100D9000CA2ED12CAA24BB240E94522A8AE090E0B9
:100DA00066E070E04DEF5FEF25E030E00E94522AF0
:100DB00086E090E066E070E048E15CEF23E030E040
:100DC000F4E1EF2EF12C0E94522A85E090E06BE0D6
:100DD00070E04FE050E024E130E008E11CEFE8E291
:100DE000EE2EF12CCC24DD240E94153784EF9FEFEA
:100DF00066EA7FEF46EF5FEF2EE130E000E010E0C3
:100E00000E94EC3082EE9FEF90935F0280935E022F
:100E100083EF9FEF60E070E048ED5FEF2EE130E0A0
:100E20000E94882D84E190E090935F0280935E029F
:100E300080910602909107023FEF8F3F930719F4CC
:100E4000E2E3F0E002C0E0E0F0E08CE090E063E09C
:100E500070E04BEF5FEF23E030E002E110E0EE24C2
:100E6000FF24B8E2CB2ED12C5F010E94522A8AE0E7
:100E700090E063E070E04BEF5FEF25E030E0AA2404
:100E8000BB240E94522A8CEF9FEF63E070E048E1A0
:100E90005CEF25E030E0A4E1EA2EF12C0E94522A1A
:100EA00082EF9FEF6AE570E040E050E02EE130E035
:100EB00000E010E00E94EC308FE090E06EEF7FEFFA
:100EC00042E350E02EE130E00E94882D4CEE5FEFCF
:100ED00050935F0240935E028CE090E066E070E029
:100EE0004BEF5FEF23E030E00EE010E0EE24FF2454
:100EF0000E94522A8AE090E066E070E04BEF5FEFDC
:100F000025E030E00E94522A8BEF9FEF66E070E010
:100F100048E15CEF25E030E0F4E1EF2EF12C0E9497
:100F2000522A84EF9FEF66EA7FEF4EE150E02EE118
:100F300030E000E010E00E94EC3060EB7FEF709357
:100F40005F0260935E028CE090E063E070E043E05B
:100F500050E023E030E00EE010E0EE24FF240E9499
:100F6000522A8AE090E063E070E045E050E025E03E
:100F700030E00E94522A8EEF9FEF63E070E048EE6F
:100F800053E025E030E0E4E1EE2EF12C0E94522AFD
:100F90008CE090E066EA7FEF4AE050E02EE130E03E
:100FA00000E010E00E94EC3084E190E090935F025A
:100FB00080935E0282E190E06AE570E046E450E0F2
:100FC00029E130E00E94EC3010925F0210925E0244
:100FD00085E090E066EA7FEF40E050E02EE130E00F
:100FE0000E94EC308AE190E060E070E040E050E088
:100FF0002EE130E008ED1FEF0E940E24CAC180915F
:10100000640290916502009709F458C089E190E06C
:1010100060E070E046E450E02EE130E008E210E0ED
:101020000E94882D8CEE9FEF90935F0280935E026A
:1010300089EE9FEF6AE570E04AE550E02EE130E08E
:1010400000E010E00E94EC308CE090E066E070E0A0
:101050004BEF5FEF23E030E00BE010E0EE24FF24E5
:10106000B8E2CB2ED12CAA24BB240E94522A8AE0BB
:1010700090E066E070E048EF5FEF25E030E00E942E
:10108000522A8CEE9FEF66EA7FEF48ED5FEF2EE18C
:1010900030E000E010E00E94EC308EE190E09093B0
:1010A0005F0280935E0280E090E06BEF7FEF46EF9F
:1010B0005FEF2EE130E00E94882D32C088E290E0A0
:1010C00060E070E04AE550E02EE130E008E210E038
:1010D0000E94882D86EF9FEF6AE570E04AE050E0BD
:1010E00023E230E000E010E00E94EC3084E690E083
:1010F00090935F0280935E0280E090E062E070E097
:1011000040E050E028E230E00E940E248AE090E0C7
:1011100066EA7FEF4AE050E023E230E00E94EC30E4
:1011200084E190E090935F0280935E0280910602DA
:1011300090910702AFEF8E3F9A0719F4E2E3F0E0D7
:1011400002C0E0E0F0E08CE090E065E070E04BEFA2
:101150005FEF23E030E00EE010E0EE24FF24A8E291
:10116000CA2ED12C5F010E94522A8AE090E065E0ED
:1011700070E04BEF5FEF25E030E0AA24BB240E9433
:10118000522A8CEF9FEF65E070E048E15CEF25E0CC
:1011900030E0E4E1EE2EF12C0E94522A82EF9FEF24
:1011A00066EA7FEF48ED5FEF2EE130E000E010E00F
:1011B0000E94EC30CCEEDFEFD0935F02C0935E0272
:1011C00081EF9FEF6DEF7FEF4EEC5FEF2EE130E0B0
:1011D0000E94882D84E190E090935F0280935E02EC
:1011E0008CE090E063E070E04BEF5FEF23E030E0F5
:1011F00002E110E0EE24FF240E94522A8AE090E0EF
:1012000063E070E04BEF5FEF25E030E00E94522A90
:101210008CEF9FEF63E070E048E15CEF25E030E0A9
:10122000B4E1EB2EF12C0E94522A84EF9FEF6AE585
:1012300070E042EE5FEF2EE130E000E010E00E944F
:10124000EC30E0E5F0E0F0935F02E0935E028CE0CA
:1012500090E066E070E045E050E023E030E002E13D
:1012600010E0EE24FF240E94522A8AE090E066E01B
:1012700070E045E050E025E030E00E94522A89EF1E
:101280009FEF66E070E048EE53E025E030E0A4E137
:10129000EA2EF12C0E94522A8EE090E06AE570E07E
:1012A00040E050E02EE130E000E010E00E94EC3041
:1012B00086EF9FEF90935F0280935E0280E090E064
:1012C00066E070E040E050E028E230E00E940E244A
:1012D0008AE090E066EA7FEF40E050E02EE130E007
:1012E0000E94EC3020E530E030935F0220935E02F4
:1012F00085E090E06AE570E04AE050E02EE130E001
:101300000E94EC3010925F0210925E028CE090E03E
:1013100061E070E045E050E023E030E00CE010E0F8
:10132000EE24FF240E94522A8AE090E061E070E0FF
:1013300045E050E025E030E00E94522A81E090E054
:1013400061E070E048EE53E023E030E0F9E1EF2E99
:10135000F12C0E94522A82E090E069E170E04AEBB1
:101360005FEF2EE130E000E010E00E94882D4AEBB4
:101370005FEF50935F0240935E028FE090E06AE57A
:1013800070E04CEE5FEF2EE130E008ED1FEF0E94C1
:10139000EC3060923C0270923D0280923E0290924C
:1013A0003F02609222027092230280922402909265
:1013B000250250925F0240925E0286E090E066E96C
:1013C00070E044E050E024EC30E005E010E0EAEAB0
:1013D000EE2EF12CBEE1CB2ED12CAEE1AA2EB12CFB
:1013E0000E94333960923C0270923D0280923E022C
:1013F00090923F0260922202709223028092240215
:101400009092250250925F0240925E0286E090E048
:1014100066E970E044E050E024EC30E005E010E0E4
:10142000FAEAEF2EF12CEEE1CE2ED12CBEE1AB2E5E
:10143000B12C0E94333910925F0210925E0210921A
:1014400061021092600280E090E064E170E04CEE96
:101450005FEF2EE130E008E210E00E94882D6CEE94
:101460007FEF70935F0260935E02809160029091C3
:1014700061029093690280936802809106029091C4
:1014800007027FEF8B3F970731F481E090E0909364
:1014900069028093680280916802909169020097C6
:1014A00009F43CC385E090E064E170E04EEC5FEF4E
:1014B0002EE130E000E010E00E94882DAAEBBFEFA3
:1014C000B0935F02A0935E028091060290910702A2
:1014D000BFEF8C3F9B0719F408ED1FEF02C000E03F
:1014E00010E08AE090E066EA7FEF4CEE5FEF2EE1DD
:1014F00030E00E94EC3010925F0210925E02809108
:10150000060290910702EFEF8C3F9E0719F4E2E389
:10151000F0E002C0E0E0F0E08CE090E068E070E035
:1015200045E050E023E030E002E110E0EE24FF244B
:10153000A8E2CA2ED12C5F010E94522A8AE090E0D4
:1015400068E070E045E050E025E030E0AA24BB24EC
:101550000E94522A88E090E068E070E044E650E0A3
:1015600023E030E0B9E1EB2EF12C0E94522A2091C9
:101570002E0281E090E02F3110F480E090E0909313
:101580006B0280936A0281E090E069E270E046EAD3
:101590005FEF2EE130E000E010E00E94882D8CE04B
:1015A00090E061E070E045E050E023E030E00BE0E7
:1015B00010E0EE24FF24A8E2CA2ED12CF2E3AF2ED5
:1015C000B12C0E94522A8AE090E061E070E04AE08B
:1015D00050E025E030E0AA24BB240E94522A80E09B
:1015E00090E061E270E046EA5FEF2EE130E000E07B
:1015F00010E00E94882D10925F0210925E0285E634
:1016000090E063E070E00E94071F20916C0230912F
:101610006D028217930739F48FE090E090930B02EC
:1016200080930A0204C010920B0210920A02609288
:10163000760270927702809278029092790280917D
:10164000760290917702A0917802B091790280930E
:10165000720290937302A0937402B093750280910A
:10166000720290917302A0917402B09175028093FE
:101670006E0290936F02A0937002B0937102609219
:1016800082027092830280928402909285028091FD
:10169000820290918302A0918402B091850280938E
:1016A0007E0290937F02A0938002B09381028CE02F
:1016B00090E061E070E045E050E023E030E00BE0D6
:1016C00010E0EE24FF24E8E2CE2ED12CB2E3AB2EC4
:1016D000B12C0E94522A40910A0250910B024B5F9A
:1016E0005F4F8AE090E061E070E025E030E0AEEC32
:1016F000AA2EAFEFBA2E0E94522A20917202309188
:101700007302409174025091750260E070E080EACB
:1017100090E40E9441410E9428429B01AC0180E07C
:1017200090E0B90140E050E02EE130E008E210E046
:101730000E940E2450925F0240925E0280E090E090
:1017400060E070E044E050E024EC30E005E010E0C0
:10175000FAEAEF2EF12CEEE1CE2ED12CBEE1AB2E2B
:10176000B12C0E94333960923C0270923D0280920B
:101770003E0290923F026092220270922302809277
:1017800024029092250250925F0240925E0283E012
:1017900090E06AE770E044E050E024EC30E00E9422
:1017A000333910925F0210925E0280E090E06EEF9B
:1017B0007FEF40E050E02AE030E008E710E00E94D0
:1017C0000E2480916A0290916B02009709F08EC0FE
:1017D0008CE190E060E070E046E450E02EE130E023
:1017E00008E210E00E94882D2CEE3FEF30935F025C
:1017F00020935E0289EE9FEF6AE570E04AE550E0D3
:1018000029E130E000E010E00E94EC308CE090E054
:1018100064E070E04DEF5FEF23E030E002E110E0C4
:10182000EE24FF24A3E2CA2ED12CF5E0AF2EB12C7A
:101830000E94522A8AE090E064E070E04DEF5FEF92
:1018400025E030E0AA24BB240E94522A84E090E0E4
:1018500064E070E048E15CEF23E030E0E9E1EE2E87
:10186000F12C0E94522A80E090E068EE7FEF40E089
:1018700050E023E230E000E010E00E940E248CEE05
:101880009FEF66EA7FEF4EEC5FEF29E130E00E94C8
:10189000EC3084E190E090935F0280935E0280E000
:1018A00090E067EE7FEF40E050E02EE130E00E94F4
:1018B0000E2486EF9FEF6AE570E040E050E02EE1F5
:1018C00030E00E94EC3085E090E060E070E046E4BB
:1018D00050E02EE130E008ED1FEFBCE3EB2EF12CE1
:1018E000A2E8CA2ED12C0E94242F5DC28CE190E088
:1018F00060E070E046E450E02EE130E008E210E005
:101900000E94882D4CEE5FEF50935F0240935E0281
:1019100089EE9FEF6AE570E04AE550E029E130E0AA
:1019200000E010E00E94EC308CE090E066E070E0B7
:101930004DEF5FEF23E030E00EE010E0EE24FF24F7
:10194000F3E2CF2ED12CE5E0AE2EB12C0E94522A2C
:101950008AE090E066E070E04DEF5FEF25E030E078
:10196000AA24BB240E94522A86E090E066E070E040
:1019700048E15CEF23E030E0B4E1EB2EF12C0E9473
:10198000522A85E090E06EE070E042E150E024E110
:1019900030E008E11CEFA3E2EA2EF12CCC24DD2498
:1019A0000E94153785E090E064EB70E040E050E085
:1019B00020E030E000E010E0EE24FF24F3E2AF2E60
:1019C000B12C0E94333960E070E080EA91E448E293
:1019D00050E00E94CA3210925F0210925E028FEFB6
:1019E0009FEF6FE270E04AE550E02EE130E00CE856
:1019F00010E00E94882D80E090E06BE070E04FE006
:101A000050E020E030E00AE010E0E8E2EE2EF12CB9
:101A1000B2E3CB2ED12C0E94153783E090E06DE22B
:101A200070E046EA5FEF2EE130E008ED1FEF0E9424
:101A3000882D8CE090E068E070E045E050E023E025
:101A400030E002E110E0EE24FF24A8E2CA2ED12CFF
:101A5000F2E3AF2EB12C0E94522A8AE090E068E0B7
:101A600070E04AE050E025E030E0AA24BB240E9468
:101A7000522A8FEF9FEF6EE170E04AE550E02EE1D1
:101A800030E000E010E00E94882D10925F0210927A
:101A90005E028CE090E068E070E045E050E023E01A
:101AA00030E00FE010E0E2E3AE2EB12C0E94522AAB
:101AB0008AE090E068E070E04AE050E025E030E045
:101AC000AA24BB240E94522A80E090E063E270E0E6
:101AD0004AE550E02EE130E000E010E00E94882D61
:101AE0008CE090E068E070E045E050E023E030E01A
:101AF0000FE010E0B2E3AB2EB12C0E94522A8AE034
:101B000090E068E070E04AE050E025E030E0AEECC4
:101B1000AA2EAFEFBA2E0E94522A49C160923C020F
:101B200070923D0280923E0290923F0260922202A9
:101B300070922302809224029092250250925F02BA
:101B400040925E0286E090E066E970E044E050E09A
:101B500024EC30E005E010E0FAEAEF2EF12CEEE1A3
:101B6000CE2ED12CBEE1AB2EB12C0E943339109277
:101B70005F0210925E0286EF9FEF60E070E04AE045
:101B800050E02EE130E008E210E00E94882D60EB8A
:101B90007FEF70935F0260935E028CE090E063E001
:101BA00070E045E050E023E030E00EE010E0EE248D
:101BB000FF24A8E2CA2ED12CAA24BB240E94522AB8
:101BC0008AE090E063E070E045E050E025E030E03E
:101BD0000E94522A8EEF9FEF63E070E048EE53E0E0
:101BE00023E030E0F4E1EF2EF12C0E94522A8CE049
:101BF00090E066EA7FEF40E050E023E230E000E072
:101C000010E00E94EC308AE090E090935F028093B5
:101C10005E0282E190E06AE570E040E050E028E298
:101C200030E005E010E00E94EC3080EB9FEF9093F5
:101C30005F0280935E0284E190E066EA7FEF46EF08
:101C40005FEF28E230E000E010E00E94EC301092FC
:101C50005F0210925E0280E090E06AE070E040E097
:101C600050E022E330E00E940E248CE090E068E037
:101C700070E045E050E023E030E000E110E0EE24C9
:101C8000FF24E2E3CE2ED12C0E94522A8AE090E07B
:101C900068E070E045E050E025E030E00E94522A24
:101CA00088E090E068E070E048EE53E023E030E048
:101CB000B9E1EB2EF12C0E94522A82E090E062E220
:101CC00070E046EA5FEF2EE130E000E010E00E94B5
:101CD000882D86EA9FEF90935F0280935E0288E0F2
:101CE00090E066EA7FEF40E050E02EE130E00E94B5
:101CF000EC3010925F0210925E028CE090E068E09F
:101D000070E045E050E023E030E000E110E0EE2438
:101D1000FF24A8E2CA2ED12C0E94522A8AE090E029
:101D200068E070E045E050E025E030E00E94522A93
:101D300088E090E068E070E048EE53E023E030E0B7
:101D4000F9E1EF2EF12C0E94522A80E090E068E148
:101D500070E042EE5FEF2EE130E000E010E00E9424
:101D6000882D82EE9FEF90935F0280935E0284E164
:101D700090E066EA7FEF4AE050E02EE130E00E941A
:101D8000EC30A6E4B0E0B0935F02A0935E028AE07C
:101D900090E06AE570E044E150E02EE130E008EDCB
:101DA0001FEF0E94EC3010925F0210925E020E94C0
:101DB000B31E8AC260923C0270923D0280923E0243
:101DC00090923F026092220270922302809224023B
:101DD0009092250250925F0240925E0286E090E06F
:101DE00066E970E044E050E024EC30E005E010E00B
:101DF000EAEAEE2EF12CBEE1CB2ED12CAEE1AA2EDA
:101E0000B12C0E94333910925F0210925E0281EF72
:101E10009FEF60E070E040E050E023E230E00DE250
:101E200010E00E940E2450925F0240925E0285EE06
:101E30009FEF6AE570E044E150E02EE130E000E021
:101E400010E00E94EC30C4E1D0E0D0935F02C09378
:101E50005E0284E090E06CE070E040E150E024E15C
:101E600030E008E11CEFF3E2EF2EF12CCC24DD246E
:101E70000E94153782EF9FEF6AE570E042E350E081
:101E80002EE130E000E010E00E94EC30ECEEFFEFDD
:101E9000F0935F02E0935E028CE090E066E070E019
:101EA0004DEF5FEF23E030E00EE010E0EE24FF2482
:101EB000E3E2CE2ED12CAA24BB240E94522A8AE02F
:101EC00090E066E070E04DEF5FEF25E030E00E94CB
:101ED000522A8BEF9FEF66E070E048E15CEF25E06F
:101EE00030E0B4E1EB2EF12C0E94522A85EF9FEFF7
:101EF00066EA7FEF40E050E02EE130E000E010E0E5
:101F00000E94EC3083EF9FEF60E070E04EEC5FEFFB
:101F100029E130E00E94882DD0935F02C0935E02D9
:101F20008CE090E063E070E04BEF5FEF23E030E0A7
:101F30000FE010E0EE24FF24A8E2CA2ED12CF5E039
:101F4000AF2EB12C0E94522A8AE090E063E070E04C
:101F50004BEF5FEF25E030E0AA24BB240E94522A19
:101F600083E090E063E070E048E15CEF25E030E082
:101F7000E6E1EE2EF12C0E94522A0E94B31EA0C16F
:101F800060923C0270923D0280923E0290923F022B
:101F90006092220270922302809224029092250283
:101FA00050925F0240925E0286E090E066E970E047
:101FB00044E050E024EC30E005E010E0BAEAEB2E1B
:101FC000F12CAEE1CA2ED12CFEE1AF2EB12C0E9435
:101FD000333910925F0210925E0260E070E08CE88C
:101FE00092EC44E650E00E94CA322AEB3FEF309375
:101FF0005F0220935E0280E090E06AE070E04CEEC9
:102000005FEF2EE130E008E210E00E94882DC6EA82
:10201000DFEFD0935F02C0935E0288E090E066EA53
:102020007FEF40E050E02EE130E000E010E00E9461
:10203000EC3010925F0210925E028CE090E068E05B
:1020400070E045E050E023E030E000E110E0EE24F5
:10205000FF24E2E3CE2ED12CAA24BB240E94522AD4
:102060008AE090E068E070E045E050E025E030E094
:102070000E94522A88E090E068E070E048EE53E069
:1020800023E030E0B9E1EB2EF12C0E94522A82E0ED
:1020900090E062E270E046EA5FEF28E230E000E0C4
:1020A00010E00E94882DD0935F02C0935E0288E00A
:1020B00090E066EA7FEF40E050E028E230E00E94E6
:1020C000EC3010925F0210925E028CE090E068E0CB
:1020D00070E045E050E023E030E000E110E0EE2465
:1020E000FF240E94522A8AE090E068E070E045E018
:1020F00050E025E030E00E94522A88E090E068E05D
:1021000070E048EE53E023E030E0A9E1EA2EF12C44
:102110000E94522A80E090E068E170E042EE5FEFBA
:1021200028E230E000E010E00E94882D82EE9FEF70
:1021300090935F0280935E0284E190E066EA7FEF15
:102140004AE050E023E230E00E94EC3046E450E008
:1021500050935F0240935E028AE090E06AE570E08F
:1021600040E050E023E230E00E94EC306CEE7FEF84
:1021700070935F0260935E0281E090E063E270E042
:102180004AEB5FEF2EE130E00E94882D10925F0253
:1021900010925E028CE090E061E070E043E050E07D
:1021A00023E030E00BE010E0EE24FF24F8E2CF2E35
:1021B000D12CE2E3AE2EB12C0E94522A8AE090E0AC
:1021C00061E070E045E050E025E030E0AA24BB2467
:1021D0000E94522A81E090E061E070E048EE53E016
:1021E00023E030E0B4E1EB2EF12C0E94522A80E093
:1021F00090E06EE170E040EB5FEF2EE130E000E058
:1022000010E00E94882D80EB9FEF90935F028093F7
:102210005E0282E090E06BE070E04FE050E02CE086
:1022200030E008EE13E0A8E2EA2EF12CCC24DD2405
:102230000E94153786E090E06AE570E04AE050E0E1
:102240002EE130E000E010E00E94EC3084E190E00C
:1022500090935F0280935E028CE090E065E070E016
:102260004DEF5FEF23E030E00BE010E0EE24FF24C1
:10227000F8E2CF2ED12C0E94522A8AE090E065E04D
:1022800070E04BEF5FEF25E030E00E94522A8CEFC8
:102290009FEF65E070E048E15CEF25E030E0E4E1CD
:1022A000EE2EF12C0E94522A80E090E061EF7FEF49
:1022B00040E050E028E230E00EEC1FEF0E940E24D8
:1022C000B599FECFB59BFECF809106029091070293
:1022D000009709F43FC040912E0230912D022091C9
:1022E0002C029091340280913302ADB7BEB71E9795
:1022F0000FB6F894BEBF0FBEADBFEDB7FEB73196B7
:10230000CDB7DEB73A82298260E071E073836283E1
:10231000448315823683178220871186928713861D
:10232000848715860E9411418DB79EB70E960FB611
:10233000F8949EBF0FBE8DBF80E060E0A1010E94B7
:10234000670130912F0220913002909131028091EB
:1023500032023EC04091420230914102209140023F
:102360009091480280914702ADB7BEB71E970FB655
:10237000F894BEBF0FBEADBFEDB7FEB73196CDB777
:10238000DEB73A82298260E071E07383628344831E
:102390001582368317822087118692871386848759
:1023A00015860E9411418DB79EB70E960FB6F89410
:1023B0009EBF0FBE8DBF80E060E0A1010E9467015B
:1023C000309143022091440290914502809146024F
:1023D000ADB7BEB71C970FB6F894BEBF0FBEADBF6A
:1023E000EDB7FEB73196CDB7DEB73A82298249E123
:1023F00051E053834283348315822683178290876A
:102400001186828713860E9411416DB77EB7645F83
:102410007F4F0FB6F8947EBF0FBE6DBF81E060E0C6
:10242000A1010E946701809106029091070297FF27
:1024300003C0909581959F4F69E070E00E94BD4771
:1024400090930902809308020E945B168091080213
:1024500066E60E941740E82E8091080267E60E9417
:102460001740082F10910802C0900902812F68E6DA
:102470000E941740ADB7BEB71C970FB6F894BEBF09
:102480000FBEADBFEDB7FEB73196CDB7DEB73A821E
:10249000298222E331E0338322831483C582E682DA
:1024A000178200871186828713860E9411414DB7DB
:1024B0005EB7445F5F4F0FB6F8945EBF0FBE4DBF6F
:1024C00082E060E0A1010E94670120918F023091BB
:1024D00090024091910250919202A0908D02B09092
:1024E0008E02A0914703B091480300911B03109105
:1024F0001C03E0909702F0909802C0908B02D0905D
:102500008C0260917E0270917F0280918002909196
:102510008102CDB7DEB764970FB6F894DEBF0FBE69
:10252000CDBF2196EDB7FEB732822182E5E4F1E01E
:10253000FB83EA833D832C835F834E83B986A88621
:10254000BB87AA871D870C87FF86EE86D98AC88A33
:102550000E9428427B8B6A8B0E9411412DB73EB7A7
:102560002C5E3F4F0FB6F8943EBF0FBE2DBF83E0E9
:1025700060E0A1010E94670100D000D000D0EDB75B
:10258000FEB73196ADB7BEB712963C922E92119718
:10259000CBE5D1E0D383C2838091060290910702FC
:1025A000958384830E941141EDB7FEB736960FB62E
:1025B000F894FEBF0FBEEDBF83E060E1A1010E9471
:1025C00067010C94C50290E0FC01B096FE2FEE2747
:1025D00020812093860220FDFBCF8896B82FAA2762
:1025E0008C9190819093860290FDFBCF089590E0AE
:1025F0008096F82FEE2780818093860280FDFBCFA6
:10260000608380818093860280FDFBCF089580E007
:1026100061E00E94F71282E061E00E94F71281E01F
:1026200061E00E94F7120895A82FB0E0FD01B09676
:10263000FE2FEE2780818093860280FDFBCF989647
:10264000BA2FAA27872F992787FD9A958C93808187
:102650008093860280FDFBCF6C93808180938602FD
:1026600080FDFBCF08951F93CF93DF93182F80E059
:102670006FE10E94F712C1E0D0E002C0CC0FDD1F75
:102680001A95E2F780E0BE010E94141381E06FE129
:102690000E94F71281E0BE010E94141382E06FE1F4
:1026A0000E94F71282E0BE010E94141380E061E0F4
:1026B0000E94F71282E061E00E94F71281E061E07F
:1026C0000E94F712DF91CF911F910895DF92EF9250
:1026D000FF920F931F93D82E7A018B019B015527F0
:1026E00037FD5095452FB9010E9414138D2DB70168
:1026F0000E9414131F910F91FF90EF90DF900895A7
:102700001F93182F60E00E94F7128CEC9CE1019758
:10271000F1F700C00000812F6DE10E94F712812FB8
:1027200060E070E00E9414131F910895AF92BF9271
:10273000CF92DF92EF92FF920F931F93CF93DF938D
:10274000F82E6B01EA018901AA24A3946115710591
:1027500009F4AA24BB24B394209709F4BB24EE24E3
:10276000E3940115110509F4EE248F2D6EE10E940A
:10277000F7126B2D70E0660F771F660F771F8A2D9B
:1027800090E043E0880F991F4A95E1F7682B792B79
:102790008E2D90E0880F991F682B792B8F2D0E942A
:1027A0001413AA2021F08F2DB6010E941413BB2010
:1027B00021F08F2DBE010E941413EE2021F08F2DE9
:1027C000B8010E9414138F2D64E00E94F712DF916C
:1027D000CF911F910F91FF90EF90DF90CF90BF901E
:1027E000AF9008958F929F92AF92BF92CF92DF9257
:1027F000EF92FF920F931F93CF93DF93F82E4B012D
:102800006A01E901AA24A3946115710509F4AA24B7
:10281000BB24B394C114D10409F4BB24EE24E39483
:10282000209709F4EE248F2D6EE10E94F7126A2D95
:1028300070E0A3E0660F771FAA95E1F761608B2D2A
:1028400090E0880F991F880F991F682B792B8E2D88
:1028500090E0880F991F682B792B8F2D0E941413FD
:10286000AA2021F08F2DB4010E941413BB2021F067
:102870008F2DB6010E941413EE2021F08F2DBE0182
:102880000E9414138F2DB8010E9414138F2D64E041
:102890000E94F712DF91CF911F910F91FF90EF905F
:1028A000DF90CF90BF90AF909F908F900895DF9270
:1028B000EF92FF920F931F93D82E7A018B016FE155
:1028C0000E94F7128D2D60E270E00E9414138D2D8E
:1028D000B801A7010E9466131F910F91FF90EF901E
:1028E000DF90089580E060E170E040E050E020E497
:1028F00030E00E94961381E060E170E040E050E03B
:1029000020E430E00E94961382E060E170E040E055
:1029100050E020E430E00E94961380E04FEF5FEF3C
:102920006FEF7FE30E94571481E04FEF5FEF6FEF8F
:102930007FE30E94571482E04FEF5FEF6FEF7FE37A
:102940000E9457140895DF92EF92FF920F931F9306
:10295000DF93CF930F92CDB7DEB7D82E7A018B01DC
:1029600077FF0AC010950095F094E094E11CF11CEB
:10297000011D111D90E001C091E08D2D6FE1998343
:102980000E94F7129981792F7295707F60E06860DC
:1029900078608D2D0E9414138D2DB801A7010E941F
:1029A00066130F90CF91DF911F910F91FF90EF90E1
:1029B000DF900895AF92BF92CF92DF92EF92FF9295
:1029C0000F931F93DF93CF93CDB7DEB72C970FB63E
:1029D000F894DEBF0FBECDBF59016A010E945B4271
:1029E00069837A838B839C83C601B5010E945B4215
:1029F0006D837E838F839887C801B7010E945B42F5
:102A000069877A878B879C878E010F5F1F4FEE2423
:102A1000F801608171818281938121E73CEA4BE872
:102A20005EE30E941F449B01AC01F80121933193A6
:102A3000419351938F0120E030E040E857E40E9439
:102A40001F440E942842AB01BC018E2D0E94A3149A
:102A5000E394FE2DF330E1F60E9407132C960FB697
:102A6000F894DEBF0FBECDBFCF91DF911F910F91C4
:102A7000FF90EF90DF90CF90BF90AF9008954F926E
:102A80005F926F927F928F929F92AF92BF92CF92FE
:102A9000DF92EF92FF920F931F93982E862E2901BB
:102AA0003A016FE10E94F712682D70E06A62892D89
:102AB0000E941413892DB301A2010E946613892D6F
:102AC000B801A7010E946613892DB601A5010E94D5
:102AD00066131F910F91FF90EF90DF90CF90BF9002
:102AE000AF909F908F907F906F905F904F900895E0
:102AF0009F92AF92BF92CF92DF92EF92FF920F938D
:102B00001F93DF93CF9300D00F92CDB7DEB71ABAE1
:102B100015BA8FEF84BB1092650083E08093640048
:102B200010E8A12EB4E8BB2E6E010894C11CD11C84
:102B300085B3856085BB83E39BE20197F1F785B39D
:102B40008A7F85BBECECFCE13197F1F700C0000017
:102B5000809165008D7F80936500AB9885B3887FF9
:102B600085BB99B39983A89A19B385B3887F82608E
:102B700085BB09B3943C09F494C0943809F491C01E
:102B800015BA80E060E044E651E00E94670181E010
:102B900060E04AE651E00E946701143C09F481C0FC
:102BA000143809F47EC015BA80E060E044E651E0D4
:102BB0000E94670182E060E04AE751E00E946701FD
:102BC000043C09F46EC0043809F46BC015BA80E007
:102BD00060E044E651E00E94670183E060E04AE87B
:102BE00051E029C09E2C9C18892D6DE10E94F7129E
:102BF000892D60E070E00E941413F8018081F701D4
:102C000081937F0100501F4FF3E200301F0751F7FF
:102C10008981803C99F0803889F085B78F7385BFB2
:102C200015BA80E060E04AE951E00E94670181E066
:102C300060E04AE651E00E9467017ACF80E060E000
:102C400040EA51E00E94670180E098B3976098BB2A
:102C50002FEF3FEB46E0215030404040E1F700C00D
:102C6000000098B3987F98BB2FEF3FEB46E02150D0
:102C700030404040E1F700C000008F5F833029F70B
:102C80000E94D8010F900F900F90CF91DF911F916C
:102C90000F91FF90EF90DF90CF90BF90AF909F90FB
:102CA0000895A5BE82E080936D00B0926C0076011D
:102CB00000E010E297CF4F925F926F927F928F92D7
:102CC0009F92AF92BF92CF92DF92EF92FF920F93BB
:102CD0001F93CF93DF9304E6802E912C84E00E9413
:102CE0007600982F80E0EC0185E00E94760090E06D
:102CF0008C2B9D2BB4010E94BD47882777FD8095C2
:102D0000982F0E945B42F62E072F182FE92E462E91
:102D1000572E682E792E63015201E894D7F8C60128
:102D2000B50120E030E044E353E40E9484431816E8
:102D3000ACF260917A0270917B0280917C0290915A
:102D40007D022F2D302F412F5E2D0E94B941882307
:102D500009F4E5C06F2D702F812F9E2D20E030E00B
:102D6000A9010E94B94187FF5DC060917A0270910C
:102D70007B0280917C0290917D0220E030E0A901ED
:102D80000E94844318160CF04DC020917A023091B5
:102D90007B0240917C0250917D025F77C601B501B4
:102DA0000E94424120E030E044E353E40E94B941F4
:102DB00087FF15C0A0907E02B0907F02C090800275
:102DC000D090810220917A0230917B0240917C0266
:102DD00050917D026F2D702F812F9E2D1CC0A090D1
:102DE0007E02B0907F02C0908002D09081026091FC
:102DF0007A0270917B0280917C0290917D022F2D4E
:102E0000302F412F5E2D0E9441419B01AC0160E0BB
:102E100070E084EB93E40E9441419B01AC01C60148
:102E2000B50169C0C301B20120E030E0A9010E94F0
:102E3000844318160CF047C060917A0270917B02AF
:102E400080917C0290917D0220E030E0A9010E94F7
:102E5000B94187FF38C020917A0230917B024091BE
:102E60007C0250917D025F77C601B5010E9442410C
:102E700020E030E044E353E40E94B94187FD23C0E1
:102E8000E0907E02F0907F0200918002109181021A
:102E900020917A0230917B0240917C0250917D0218
:102EA000C301B2010E9441419B01AC0160E070E0AE
:102EB00084EB93E40E9441419B01AC01C801B7013E
:102EC0000E9441411AC0E0907E02F0907F02009182
:102ED00080021091810220917A0230917B02409110
:102EE0007C0250917D02C301B2010E9441419B01CD
:102EF000AC01C801B7010E9442419B01AC01209383
:102F00007E0230937F024093800250938102409270
:102F10007A0250927B0260927C0270927D02DF9175
:102F2000CF911F910F91FF90EF90DF90CF90BF90C6
:102F3000AF909F908F907F906F905F904F9008958B
:102F40002F923F924F925F926F927F928F929F92B9
:102F5000AF92BF92CF92DF92EF92FF920F931F93A7
:102F6000DF93CF93CDB7DEB762970FB6F894DEBF8D
:102F70000FBECDBF69837A838B839C832D833E8371
:102F80004F8358873701480160E070E084E394E4A0
:102F9000A60195010E944141162F072FF82EE92E18
:102FA0008D819E81AF81B88580938702909388023E
:102FB000A0938902B0938A0289819A81AB81BC81F6
:102FC00080931D0390931E03A0931F03B0932003CF
:102FD000A0929302B0929402C0929502D09296026F
:102FE000C601B50120E030E044E353E40E94B9415A
:102FF000181684F0A8019701652F742F832F922F44
:1030000020E030E044EB53E40E944141162F072FAB
:10301000F82EE92EA8019701652F702F832F9E2D82
:1030200020E030E044EB52E40E94414169877A8716
:103030008B879C87C401B30123EF36E64FE55EE33F
:103040000E941F446D877E878F87988B80E090E079
:1030500036E9432E512C28E6222E21E0322E9A8B7F
:10306000898BB201882777FD8095982F0E945B425B
:103070005B016C01C20188589F4FB1010E94BD479E
:103080002C01C601B501D801F7012B2F302F4F2F8E
:103090005E2D0E94414125E33AEF4EE85CE30E9439
:1030A0001F440E94BD413B014C01C601B501B985D9
:1030B000AA85AB84DC842B2F3A2F4A2D5D2D0E94EC
:1030C000414125E33AEF4EE85CE30E941F440E9431
:1030D000BD415B016C016D817E818F819885A4016A
:1030E00093010E941F443B014C0169817A818B81CD
:1030F0009C81A60195010E941F449B01AC01C40163
:10310000B3010E944241BD85AE85DF84A8882B2F84
:103110003A2F4D2D5A2D0E9441412FE632E143E8CE
:1031200056E40E941F4423E333E343E250EC0E9441
:103130001F440E942842AB01BC0189890E94A3144C
:10314000A989BA891196BA8BA98BA330B10509F068
:1031500088CF0E9407130E945B1662960FB6F89400
:10316000DEBF0FBECDBFCF91DF911F910F91FF90BA
:10317000EF90DF90CF90BF90AF909F908F907F9017
:103180006F905F904F903F902F9008952F923F92B5
:103190004F925F926F927F928F929F92AF92BF9267
:1031A000CF92DF92EF92FF920F931F93DF93CF9313
:1031B000CDB7DEB72C970FB6F894DEBF0FBECDBFEC
:1031C0005B016C0139014A011701280160917E02FF
:1031D00070917F0280918002909181022091820201
:1031E000309183024091840250918502E0907E02EA
:1031F000F0907F020091800210918102E0928202A1
:10320000F09283020093840210938502E09076028C
:10321000F090770200917802109179020E9441416A
:103220009B01AC01C801B7010E9441419B01AC0167
:10323000209376023093770240937802509379027C
:10324000C601B50120E030E0A9010E94B941882300
:1032500051F4C401B30120E030E0A9010E94B9415A
:10326000882309F4D2C0C601B50120E030E048EC63
:1032700052E40E94C04169837A838B839C83C4019A
:10328000B30120E030E048EC52E40E94C0416D837D
:103290007E838F8398876091760270917702809108
:1032A000780290917902A20191010E944141F62E8B
:1032B000072F182FE92E80916E0290916F02A09136
:1032C0007002B091710289879A87AB87BC876F2D96
:1032D000702F812F9E2D25E33AEF4EE85CE30E948C
:1032E0001F440E94BD413B014C016F2D702F812F67
:1032F0009E2D20E030E044EB52E40E94424125E361
:103300003AEF4EE85CE30E941F440E94BD415B011E
:103310006C0159814A813B812C81652F742F832F49
:10332000922FA40193010E941F441B012C015D8177
:103330004E813F812885652F742F832F922FA60100
:1033400095010E941F449B01AC01C201B1010E9482
:1033500042419B01AC0169857A858B859C850E94E1
:1033600042419B01AC0120936E0230936F02409367
:10337000700250937102209072023090730240905C
:103380007402509075026F2D702F812F9E2D20E0BA
:1033900030E044EB52E40E94414125E33AEF4EE82D
:1033A0005CE30E941F440E94BD417B018C015D8152
:1033B0004E813F812885652F742F832F922FA40182
:1033C00093010E941F445B016C0159814A813B813A
:1033D0002C81652F742F832F922FA80197010E94B3
:1033E0001F449B01AC01C601B5010E9442419B01F3
:1033F000AC01C201B1010E9442419B01AC01EEE669
:10340000F2E024833583468357832C960FB6F894D5
:10341000DEBF0FBECDBFCF91DF911F910F91FF9007
:10342000EF90DF90CF90BF90AF909F908F907F9064
:103430006F905F904F903F902F9008952F923F9202
:103440004F925F926F927F928F929F92AF92BF92B4
:10345000CF92DF92EF92FF920F931F93DF93CF9360
:10346000CDB7DEB72E970FB6F894DEBF0FBECDBF37
:10347000180187019A8389837C836B8350954195DA
:103480005F4F5E834D83309521953F4F38872F8363
:10349000CE0101969A87898779E0472E512C4C0EF0
:1034A0005D1E7C0166247724CC24DD24D7016D9138
:1034B0007D917D01882777FD8095982F0E945B4242
:1034C0004B015C01E894B7F8662D772D8C2D9D2D6E
:1034D000A50194010E94B94187FF02C03401650132
:1034E000E414F50419F7EE24FF24C101AA2797FD7F
:1034F000A095BA2F8B879C87AD87BE87A985BA8593
:10350000AD90BD90BA87A9876B857C858D859E859A
:103510000E945B421B012C01B501882777FD809535
:10352000982F0E945B42262D372D4C2D5D2D0E9439
:10353000C041A20191010E941F449B01AC01F7010F
:10354000EE0FFF1FEE0FFF1FE95CFC4F208331835E
:10355000428353830894E11CF11CB4E0EB16F104A0
:1035600069F6043611052CF40115110509F051C056
:1035700005C00436110511F00456104091E0E92E03
:10358000F12C662D772D8C2D9D2D20E030E048EC20
:1035900052E40E941F44A20191010E94C0410E9476
:1035A000A6415B016C01970122503040C80117FF12
:1035B00003C0909581959F4FB7010E94BD47620F50
:1035C000731F882777FD8095982F0E945B429B018F
:1035D000AC01C601B5010E9442410E942842CB01C4
:1035E0002E960FB6F894DEBF0FBECDBFCF91DF9100
:1035F0001F910F91FF90EF90DF90CF90BF90AF9011
:103600009F908F907F906F905F904F903F902F9002
:10361000089582E0E82EF12CB4CF2F923F924F9282
:103620005F926F927F928F929F92AF92BF92CF9252
:10363000DF92EF92FF920F931F93DF93CF93CDB75B
:10364000DEB72E970FB6F894DEBF0FBECDBF7A83DC
:1036500069836536710514F0645670404B0177FF3D
:1036600004C088249924861A970AE0903802F090C2
:103670003902A7014F5F5F4F9C012E193F0900E0FF
:1036800010E05A01CC24B7FCC094DC2CAB82BC8285
:10369000CD82DE821401442437FC4094542C6C010A
:1036A000C818D908D886CF82C901AA2797FDA09546
:1036B000BA2F89879A87AB87BC877E876D8734014D
:1036C000F7FC34C0AD85BE85B7FD2DC04801880C20
:1036D000991C880C991CF401E95CFC4FA080B18016
:1036E000C280D3806B817C818D819E810E945B42F0
:1036F0009B01AC01C601B5010E941F445B016C0136
:10370000C201B1010E945B429B01AC01C601B5013F
:103710000E94C0419B01AC01F401E75BFC4F208398
:10372000318342835383E614F70424F4ED85FE8548
:10373000F7FF13C09801220F331F220F331FF90127
:10374000E95CFC4F80819181A281B381275B3C4F72
:10375000F90180839183A283B383AF80B884AE14D0
:10376000BF0494F549815A814536510568F14801F5
:10377000880C991C880C991CF401E95CFC4FA08012
:10378000B180C280D38069857A858B859C850E94B3
:103790005B429B01AC01C601B5010E941F445B0165
:1037A0006C01C201B1010E945B429B01AC01C601E8
:1037B000B5010E94C0419B01AC01F401E75BFC4FE5
:1037C00020833183428353830F5F1F4F04301105E1
:1037D00009F076CF2E960FB6F894DEBF0FBECDBFA0
:1037E000CF91DF911F910F91FF90EF90DF90CF90DD
:1037F000BF90AF909F908F907F906F905F904F9011
:103800003F902F90089581E090E00A9B02C080E0F5
:1038100090E0909392028093910281E090E00B9B64
:1038200002C080E090E090938E0280938D0281E050
:1038300090E00C9B02C080E090E09093480380935E
:10384000470381E090E0849B02C080E090E0909389
:10385000900280938F0281E090E0869B02C080E01E
:1038600090E090931C0380931B032091630081E000
:1038700090E023FF02C080E090E090939802809354
:1038800097022091630081E090E024FF02C080E075
:1038900090E090938C0280938B0208951F920F9278
:1038A0000FB60F920BB60F921124EF92FF920F9367
:1038B0001F932F933F934F935F936F937F938F93B8
:1038C0009F93AF93BF93EF93FF938FEF8DBD80E7EF
:1038D0008CBD60912202709123028091240290910C
:1038E00025022AE037ED43EA5CE30E9442417B0176
:1038F0008C017F2D912F20E030E040E85FE30E94B3
:103900008443181624F4EE24FF2400E81FE38E2DD0
:103910009F2DA02FB12F8093220290932302A0937A
:103920002402B093250260913C0270913D02809187
:103930003E0290913F022AE037ED43EA5CE30E94A9
:1039400042417B018C017F2D912F20E030E040E847
:103950005FE30E948443181624F4EE24FF2400E859
:103960001FE38E2D9F2DA02FB12F80933C029093AB
:103970003D02A0933E02B0933F02609126027091F7
:10398000270280912802909129022DEC3CEC4CE416
:103990005DE30E944241F62EE72E8C01A701652FC0
:1039A000742F912F20E030E040E85FE30E948443D1
:1039B000181624F4FF24EE2400E81FE3A701852F46
:1039C0009E2DA02FB12F8093260290932702A093C3
:1039D0002802B09329020E94031C809191029091C9
:1039E00092020097B1F080912002909121020097FD
:1039F00081F480912A0290912B02019690932B02E0
:103A000080932A0281E090E090932102809320022B
:103A100010C08091910290919202009751F4809190
:103A2000200290912102009721F010922102109221
:103A3000200280918D0290918E02009731F1809149
:103A4000560290915702009701F580916002909183
:103A500061020196909361028093600221E030E060
:103A6000309357022093560280913503909136038C
:103A7000FC01EE0FFF1FED50FD4F318320830196B7
:103A8000909336038093350310C080918D029091FE
:103A90008E02009751F48091560290915702009740
:103AA00021F0109257021092560280914703909194
:103AB00048030097B1F08091520290915302009711
:103AC00081F480915002909151020196909351029D
:103AD0008093500281E090E09093530280935202D1
:103AE00010C08091470390914803009751F4809152
:103AF000520290915302009721F0109253021092BB
:103B0000520280918F02909190020097B1F08091C3
:103B10004E0290914F02009781F48091580290914B
:103B200059020196909359028093580281E090E0E7
:103B300090934F0280934E0210C080918F0290911B
:103B40009002009751F480914E0290914F0200979D
:103B500021F010924F0210924E0280911B0390911F
:103B60001C030097B1F080913A0290913B020097BC
:103B700081F480915A0290915B02019690935B02CE
:103B800080935A0281E090E090933B0280933A0246
:103B900010C080911B0390911C03009751F48091F9
:103BA0003A0290913B02009721F010923B02109252
:103BB0003A028091970290919802009741F180918A
:103BC000540290915502009711F580914C0290910A
:103BD0004D02019690934D0280934C0281E090E05B
:103BE000909355028093540280913503909136034F
:103BF000FC01EE0FFF1FED50FD4F22E030E031835E
:103C000020830196909336038093350310C08091F2
:103C1000970290919802009751F4809154029091EC
:103C20005502009721F01092550210925402809193
:103C30008B0290918C020097B1F0809136029091A6
:103C40003702009781F4809162029091630201969D
:103C5000909363028093620281E090E09093370238
:103C60008093360210C080918B0290918C02009755
:103C700051F48091360290913702009721F0109212
:103C800037021092360280913802909139020097E3
:103C900029F00196909339028093380280911002A6
:103CA00090911102009749F08091100290911102B9
:103CB0000197909311028093100280915C02909181
:103CC0005D02009749F080915C0290915D0201963F
:103CD00090935D0280935C0280914A0290914B0226
:103CE000009729F0019690934B0280934A028091AD
:103CF0003503909136038431910524F010923603F8
:103D00001092350360911D0370911E0380911F0373
:103D1000909120032091870230918802409189027E
:103D200050918A02E0909302F090940200919502E3
:103D3000109196020E94C618FF91EF91BF91AF912A
:103D40009F918F917F916F915F914F913F912F91B3
:103D50001F910F91FF90EF900F900BBE0F900FBE31
:103D60000F901F901895AF92BF92CF92DF92EF9273
:103D7000FF920F931F9360E070E0CB019B01AC01B9
:103D80007B018C015B016C010E94A0171F910F91B8
:103D9000FF90EF90DF90CF90BF90AF900895FC011F
:103DA000E45DFD4F808190E0681779076CF08091A9
:103DB0004A0290914B02009759F481E090E0909371
:103DC0004B0280934A0204C010924B0210924A02A6
:103DD00021E030E080914A0290914B0285309105BC
:103DE00014F420E030E0C90108951F93182F81E1F9
:103DF0000E943E01812F0E943E018091040288238F
:103E0000E1F30E942B01882391F31F9108954F92B3
:103E10005F926F927F928F929F92AF92BF92CF925A
:103E2000DF92EF92FF920F931F93CF93DF938C015A
:103E30003B01C1E0D0E0CC24DD248FEFA82EB12CD3
:103E400088249924EE24FF2444245524401A510A3E
:103E500014C0602F17FD642D8C2F0E94174090E036
:103E6000C816D90614F46C017E018A159B0524F44A
:103E7000009711F05C014E0121966C167D064CF7FF
:103E8000101611060CF07401C701DF91CF911F913C
:103E90000F91FF90EF90DF90CF90BF90AF909F90E9
:103EA0008F907F906F905F904F9008956F927F9268
:103EB0008F929F92AF92BF92CF92DF92EF92FF923A
:103EC0000F931F93D62EC72EB82EA92E922E832E77
:103ED000742E652E6E2D7F2D802F912FD601F5012A
:103EE0002B2F3A2F4F2F5E2F0E9484431816ACF0D1
:103EF0006E2D7F2D802F912FD401F3012B2F3A2F80
:103F00004F2F5E2F0E94B94187FF03C06401530108
:103F100004C0DE2CCF2CB02EA12EA6019501652F5A
:103F20007C2D832F9A2D1F910F91FF90EF90DF90A2
:103F3000CF90BF90AF909F908F907F906F9008959B
:103F40002F923F925F926F927F928F929F92AF9249
:103F5000BF92CF92DF92EF92FF920F931F93DF9366
:103F6000CF93CDB7DEB728970FB6F894DEBF0FBE5C
:103F7000CDBF582E4B015A83498310924B021092A9
:103F80004A02109211021092100280911002909138
:103F9000110290935A038093590380915903909191
:103FA0005A03909339028093380260E070E080E019
:103FB00090E0DC018B01000F111F000F111F980111
:103FC000275B3C4FF90180839183A283B3832081D7
:103FD000318142815381F801E95CFC4F20833183B8
:103FE000428353836F5F7F4F6430710519F700D0B0
:103FF00000D000D0EDB7FEB7319601E213E0ADB7C7
:10400000BEB712961C930E93119784EB91E09383A5
:10401000828389EB91E0958384830E941141EDB7FF
:10402000FEB736960FB6F894FEBF0FBEEDBF80E028
:1040300067E0A8010E94670110925D0210925C0285
:10404000852D66E60E941740A82EE0907602F0903B
:1040500077020091780210917902B401882777FDE8
:104060008095982F0E945B42A80197010E944241CF
:104070000E9428424B018A189108882777FD809575
:10408000982F0E945B425B016C01B401882777FD89
:104090008095982F0E945B427B018C01C40168E5EA
:1040A00072E00E94BD47882777FD8095982F0E9477
:1040B0005B422FE832EC45E75EE30E9442419B0100
:1040C000AC01C801B7010E941F449B01AC01C601AD
:1040D000B5010E9442410E9428421B018824992474
:1040E00091E0692E712C3C822B8214018091100288
:1040F000909111020097D1F7709211026092100214
:10410000852D66E60E941740E82EFF24852D67E680
:104110000E94174038C00E94B31E852D66E60E949B
:104120001740E82E852D67E60E94174020915C021B
:1041300030915D022115310521F470925D0260928B
:104140005C0220915C0230915D02F1E02F353F0767
:104150001CF00E94B31E12C1FF24E114F10499F077
:1041600020E030E0A90120933C0230933D024093CF
:104170003E0250933F022093220230932302409349
:10418000240250932502082F10E0E114F10421F4D9
:104190000115110509F4BFCF4B815C814115510513
:1041A00091F0E41AF50AB701882777FD8095982FDA
:1041B0000E945B422DEC3CEC4CE45FE30E941F4408
:1041C0000E9428421B0189819A81009719F04C01B5
:1041D000801A910AB101882777FD8095982F0E9457
:1041E0005B427B018C0160E070E088E492E420E0B7
:1041F00030E048E452EC0E94561F0E9428421B0106
:10420000B401882777FD8095982F0E945B427B013F
:104210008C0160E070E080E792E420E030E040E76D
:1042200052EC0E94561F0E9428424B01A090760239
:10423000B0907702C0907802D0907902B4018827BC
:1042400077FD8095982F0E945B4220913C0230912F
:104250003D0240913E0250913F020E941F442DECCE
:104260003CEC4CE45FE30E941F446D837E838F83AC
:104270009887B101882777FD8095982F0E945B422F
:104280002091220230912302409124025091250274
:104290000E941F447B018C0160915E0270915F025D
:1042A000882777FD8095982F0E945B42A601950193
:1042B0000E9442415B016C0160E070E0CB012D8106
:1042C0003E814F8158850E94A017809138029091BD
:1042D0003902009721F4709239026092380280917D
:1042E000380290913902A1E08F359A0754F42114D5
:1042F000310409F0FBCEC40101968330910508F02A
:10430000F5CE10924B0210924A0280E090E0DC0160
:104310008093930290939402A0939502B093960297
:104320008091930290919402A0919502B09196028F
:1043300080931D0390931E03A0931F03B09320034B
:1043400080911D0390911E03A0911F03B091200343
:104350008093870290938802A0938902B0938A0287
:1043600060918702709188028091890290918A02FF
:104370000E942842709339026093380228960FB643
:10438000F894DEBF0FBECDBFCF91DF911F910F918B
:10439000FF90EF90DF90CF90BF90AF909F908F9065
:1043A0007F906F905F903F902F9008952F923F9253
:1043B0005F926F927F928F929F92AF92BF92CF92B5
:1043C000DF92EF92FF920F931F93DF93CF93CDB7BE
:1043D000DEB760970FB6F894DEBF0FBECDBF582E84
:1043E0007A8369835C834B833E832D8310924B02D7
:1043F00010924A0210921102109210028091100243
:104400009091110290935A0380935903809159031C
:1044100090915A03909339028093380260E070E0E3
:1044200080E090E0DC018B01000F111F000F111FD5
:104430009801275B3C4FF90180839183A283B3836A
:104440002081318142815381F801E95CFC4F208356
:104450003183428353836F5F7F4F6430710519F757
:1044600000D000D000D0EDB7FEB7319601E213E0E6
:10447000ADB7BEB712961C930E93119784EB91E0E3
:10448000938382838DEB91E0958384830E94114115
:10449000EDB7FEB736960FB6F894FEBF0FBEEDBF70
:1044A00080E067E0A8010E94670110925D0210920F
:1044B0005C028824992480E090E06624772431E02F
:1044C000232E312C988B8F878091100290911102AE
:1044D0000097D1F73092110220921002852D66E6E6
:1044E0000E941740E82EFF24852D67E60E941740A2
:1044F000082F10E0B701CF84D8883BC00E94B31EBC
:10450000852D66E60E941740A82E852D67E60E943D
:10451000174020915C0230915D022115310521F494
:1045200030925D0220925C0220915C0230915D022B
:10453000F1E02F353F071CF00E94B31E57C16A2DD2
:1045400070E06115710599F020E030E0A901209339
:104550003C0230933D0240933E0250933F02209331
:104560002202309323024093240250932502082F05
:1045700010E06115710521F40115110509F4BECF94
:10458000D88ACF864B815C814115510589F0641B27
:10459000750B882777FD8095982F0E945B422DEC44
:1045A0003CEC4CE45FE30E941F440E9428423B0124
:1045B00089819A81009791F0E81AF90AB701882752
:1045C00077FD8095982F0E945B422AE939E949E1FD
:1045D0005FE30E941F440E9428424B01AD81BE81CF
:1045E000109721F0A01BB10BB88BAF87B3018827C0
:1045F00077FD8095982F0E945B427B018C0160E0E3
:1046000070E080EF91E420E030E040EF51EC0E9458
:10461000561F0E9428423B01EF85F889BF01882779
:1046200077FD8095982F0E945B427B018C0160E0B2
:1046300070E08CE592E420E030E04CE552EC0E9422
:10464000561F0E942842788B6F87B401882777FD18
:104650008095982F0E945B427B018C0160E070E0A6
:1046600088E492E420E030E048E452EC0E94561FD7
:104670000E9428424B01E0902202F0902302009118
:10468000240210912502B301882777FD8095982F89
:104690000E945B42A80197010E941F442DEC3CEC54
:1046A0004CE45FE30E941F446F83788789879A8771
:1046B0002F853889B901882777FD8095982F0E942A
:1046C0005B4220913C0230913D0240913E0250916C
:1046D0003F020E941F442DEC3CEC4CE45FE30E943F
:1046E0001F446B877C878D879E87B401882777FD61
:1046F0008095982F0E945B42A80197010E941F4459
:104700007B018C0160915E0270915F02882777FDCA
:104710008095982F0E945B425B016C016F817885C8
:1047200089859A852B853C854D855E850E94A017DD
:104730008091380290913902009721F43092390229
:1047400020923802809138029091390231E08F3501
:1047500093077CF46114710409F0B6CE8F859889B3
:1047600001968330910508F0AFCE8114910409F0D1
:10477000ABCE10924B0210924A0280E090E0DC0136
:104780008093930290939402A0939502B093960223
:104790008091930290919402A0919502B09196021B
:1047A00080931D0390931E03A0931F03B0932003D7
:1047B00080911D0390911E03A0911F03B0912003CF
:1047C0008093870290938802A0938902B0938A0213
:1047D00060918702709188028091890290918A028B
:1047E0000E942842709339026093380260960FB697
:1047F000F894DEBF0FBECDBFCF91DF911F910F9117
:10480000FF90EF90DF90CF90BF90AF909F908F90F0
:104810007F906F905F903F902F9008952F923F92DE
:104820004F925F926F927F928F929F92AF92BF92C0
:10483000CF92DF92EF92FF920F931F93DF93CF936C
:10484000CDB7DEB72C970FB6F894DEBF0FBECDBF45
:104850005C013B015C834B8319011A83098310922D
:104860004B0210924A021092110210921002809193
:1048700010029091110290935A03809359038091F2
:10488000590390915A03909339028093380260E063
:1048900070E080E090E0DC018B01000F111F000F41
:1048A000111F9801275B3C4FF90180839183A283FC
:1048B000B3832081318142815381F801E95CFC4F4F
:1048C00020833183428353836F5F7F4F6430710550
:1048D00019F700D000D000D0EDB7FEB7319601E255
:1048E00013E0ADB7BEB712961C930E93119784EBED
:1048F00091E09383828380EC91E0958384830E948E
:104900001141EDB7FEB736960FB6F894FEBF0FBE55
:10491000EDBF80E067E0A8010E94670180917E0200
:1049200090917F02A0918002B09181028D839E833D
:10493000AF83B887C501B30140E050E020E030E02C
:104940008101E980FA800E941E1AA114B10471F15C
:104950006114710459F1B101882777FD8095982F72
:104960000E945B427B018C01609137037091380398
:104970008091390390913A0320913B0330913C039D
:1049800040913D0350913E030E9491439B01AC0135
:10499000C801B7010E94C0419B01AC015F77C8010B
:1049A000B7010E941F440E9428421B01C501B301A8
:1049B0004B815C8120E030E08101E980FA800E9437
:1049C0001E1A90935A0380935903C1010A966AE014
:1049D00070E00E94BD47CB01AA2797FDA095BA2F92
:1049E00089879A87AB87BC878091100290911102CA
:1049F0000097D1F7A1E0B0E0B0931102A0931002AC
:104A00008091590390915A0369817A810E940D1B0C
:104A1000EB81FC81309709F041C020917E023091FA
:104A20007F0240918002509181026D817E818F8151
:104A300098850E944141662EA72EE82E092F698590
:104A40007A858B859C850E945B429B01AC01662D1B
:104A50007A2D8E2D902F0E941F44E62EF72E082FC0
:104A6000192FC801B7019F7720E030E040EF51E4F3
:104A70000E948443181654F40F2EF0E0EF2EF0E05D
:104A8000FF2EF0E00F2FF0E01F2FF02DE0925103EA
:104A9000F092520300935303109354038091380211
:104AA00090913902009731F481E090E090933902BF
:104AB000809338028091590390915A0320913802D3
:104AC00030913902821793070CF056C010924B02B6
:104AD00010924A0280E090E0DC0180939302909370
:104AE0009402A0939502B0939602809193029091C4
:104AF0009402A0919502B091960280931D03909329
:104B00001E03A0931F03B093200380911D03909177
:104B10001E03A0911F03B0912003809387029093FE
:104B20008802A0938902B0938A02609187027091F3
:104B300088028091890290918A020E942842709393
:104B40003902609338022C960FB6F894DEBF0FBE80
:104B5000CDBFCF91DF911F910F91FF90EF90DF902C
:104B6000CF90BF90AF909F908F907F906F905F900D
:104B70004F903F902F9008956090490370904A03A2
:104B800080904B0390904C0320904D0330904E0347
:104B900040904F0350905003E0905103F090520327
:104BA000009153031091540360915E0270915F0273
:104BB000882777FD8095982F0E945B425B016C01EE
:104BC000C401B301A20191010E94A0170DCF2F9241
:104BD0003F924F925F926F927F928F929F92AF928D
:104BE000BF92CF92DF92EF92FF920F931F93DF93CA
:104BF000CF93CDB7DEB762970FB6F894DEBF0FBE86
:104C0000CDBF9A8789877C876B873A0119011C83FE
:104C10000B83FE86ED86BA82A98210924B02109217
:104C20004A0210921102109210028091100290918B
:104C3000110290935A0380935903809159039091E4
:104C40005A03909339028093380260E070E080E06C
:104C500090E0DC019B01220F331F220F331FF9016B
:104C6000E75BFC4F80839183A283B383E080F18074
:104C700002811381295C3C4FF901E082F1820283B9
:104C800013836F5F7F4F6430710521F700D000D030
:104C900000D0EDB7FEB7319601E213E0ADB7BEB775
:104CA00012961C930E93119784EB91E09383828369
:104CB00085EC91E0958384830E941141EDB7FEB7A6
:104CC00036960FB6F894FEBF0FBEEDBF80E067E0EA
:104CD000A8010E94670180917E0290917F02A091BD
:104CE0008002B09181028D839E83AF83B887C30118
:104CF000B10140E050E020E030E08601E980FA8038
:104D00000E941E1A6114710471F12114310459F1C9
:104D1000B601882777FD8095982F0E945B427B0122
:104D20008C01609137037091380380913903909121
:104D30003A0320913B0330913C0340913D03509155
:104D40003E030E9491439B01AC01C801B7010E9440
:104D5000C0419B01AC015F77C801B7010E941F44AD
:104D60000E9428426B01C301B1014B815C8120E0AC
:104D700030E08601E980FA800E941E1A90935A035F
:104D800080935903C6010A966AE070E00E94BD470D
:104D9000CB01AA2797FDA095BA2F8F87988BA98B57
:104DA000BA8B80911002909111020097D1F7A1E087
:104DB000B0E0B0931102A09310028091590390913A
:104DC0005A0369817A810E940D1BEB81FC81309727
:104DD00009F041C020917E0230917F024091800213
:104DE000509181026D817E818F8198850E94414121
:104DF000662EA72EE82E092F6F85788989899A89D2
:104E00000E945B429B01AC01662D7A2D8E2D902F66
:104E10000E941F44E62EF72E082F192FC801B70154
:104E20009F7720E030E040EF51E40E948443181661
:104E300054F40F2EF0E0EF2EF0E0FF2EF0E00F2FF5
:104E4000F0E01F2FF02DE0925103F09252030093F7
:104E500053031093540380913802909139020097C4
:104E600031F481E090E09093390280933802809190
:104E7000590390915A0320913802309139028217D8
:104E8000930774F0A985BA85109709F05FC08B85E8
:104E90009C856D857E850E94CF1E009709F456C0C3
:104EA00010924B0210924A0280E090E0DC01809365
:104EB000930290939402A0939502B09396028091EE
:104EC000930290919402A0919502B09196028093E2
:104ED0001D0390931E03A0931F03B09320038091A2
:104EE0001D0390911E03A0911F03B0912003809396
:104EF000870290938802A0938902B0938A026091FE
:104F00008702709188028091890290918A020E94A2
:104F10002842709339026093380262960FB6F89473
:104F2000DEBF0FBECDBFCF91DF911F910F91FF90DC
:104F3000EF90DF90CF90BF90AF909F908F907F9039
:104F40006F905F904F903F902F900895609049032D
:104F500070904A0380904B0390904C0320904D0337
:104F600030904E0340904F0350905003E090510317
:104F7000F0905203009153031091540360915E022C
:104F800070915F02882777FD8095982F0E945B4281
:104F90005B016C01C401B301A20191010E94A01741
:104FA00000CF2F923F924F925F926F927F928F929B
:104FB0009F92AF92BF92CF92DF92EF92FF920F93A8
:104FC0001F93DF93CF93CDB7DEB72E970FB6F8942C
:104FD000DEBF0FBECDBF9A8389835B013A013E835A
:104FE0002D831801FC82EB8210924B0210924A0230
:104FF00010921102109210028091100290911102F1
:1050000090935A03809359038091590390915A03C6
:10501000909339028093380260E070E080E090E085
:10502000DC019B01220F331F220F331FF901E75BC5
:10503000FC4F80839183A283B383E080F18002815F
:105040001381295C3C4FF901E082F18202831383D2
:105050006F5F7F4F6430710521F700D000D000D022
:10506000EDB7FEB7319601E213E0ADB7BEB71296C9
:105070001C930E93119784EB91E0938382838CECC5
:1050800091E0958384830E941141EDB7FEB7369677
:105090000FB6F894FEBF0FBEEDBF80E067E0A80139
:1050A0000E94670180917E0290917F02A091800210
:1050B000B09181028F839887A987BA87C501B30110
:1050C00040E050E020E030E08101EB80FC800E9475
:1050D0001E1AA114B10471F16114710459F1B101E6
:1050E000882777FD8095982F0E945B427B018C0179
:1050F00060913703709138038091390390913A039E
:1051000020913B0330913C0340913D0350913E037D
:105110000E9491439B01AC01C801B7010E94C041AC
:105120009B01AC015F77C801B7010E941F440E9438
:1051300028421B01C501B3014D815E8120E030E0B2
:105140008101EB80FC800E941E1A90935A03809389
:105150005903C1010A966AE070E00E94BD47CB0185
:10516000AA2797FDA095BA2F8B879C87AD87BE870E
:1051700080911002909111020097D1F7A1E0B0E068
:10518000B0931102A09310028091590390915A0399
:105190006B817C810E940D1BED81FE81309709F0AF
:1051A00041C020917E0230917F0240918002509157
:1051B00081026F81788589859A850E944141662E9A
:1051C000A72EE82E092F6B857C858D859E850E94F4
:1051D0005B429B01AC01662D7A2D8E2D902F0E9493
:1051E0001F44E62EF72E082F192FC801B7019F770D
:1051F00020E030E040EF51E40E948443181654F45C
:105200000F2EF0E0EF2EF0E0FF2EF0E00F2FF0E099
:105210001F2FF02DE0925103F0925203009353039D
:10522000109354038091380290913902009731F421
:1052300081E090E090933902809338028091590385
:1052400090915A03209138023091390282179307C6
:10525000F4F510924B0210924A0280E090E0DC01DB
:105260008093930290939402A0939502B093960238
:105270008091930290919402A0919502B091960230
:1052800080931D0390931E03A0931F03B0932003EC
:1052900080911D0390911E03A0911F03B0912003E4
:1052A0008093870290938802A0938902B0938A0228
:1052B00060918702709188028091890290918A02A0
:1052C0000E9428427093390260933802D2C0A981AB
:1052D000BA81109741F480918D0290918E020097CF
:1052E00009F49BC013C0E981FA81E130F10509F4AA
:1052F0004DC089819A818230910509F08EC08091DC
:105300008D0290918E02009709F440C010924B02DA
:1053100010924A0280E090E0DC0180939302909327
:105320009402A0939502B09396028091930290917B
:105330009402A0919502B091960280931D039093E0
:105340001E03A0931F03B093200380911D0390912F
:105350001E03A0911F03B0912003809387029093B6
:105360008802A0938902B0938A02609187027091AB
:1053700088028091890290918A020E94284270934B
:1053800039026093380221E030E072C080919702C8
:1053900090919802009709F440C010924B0210922D
:1053A0004A0280E090E0DC018093930290939402A3
:1053B000A0939502B09396028091930290919402EB
:1053C000A0919502B091960280931D0390931E03C5
:1053D000A0931F03B093200380911D0390911E039F
:1053E000A0911F03B09120038093870290938802BD
:1053F000A0938902B0938A0260918702709188021B
:105400008091890290918A020E9428427093390209
:105410006093380222E030E02BC060904903709026
:105420004A0380904B0390904C0320904D033090A2
:105430004E0340904F0350905003E0905103F09082
:105440005203009153031091540360915E027091D6
:105450005F02882777FD8095982F0E945B425B0151
:105460006C01C401B301A20191010E94A01780CE7A
:10547000C9012E960FB6F894DEBF0FBECDBFCF91F7
:10548000DF911F910F91FF90EF90DF90CF90BF9031
:10549000AF909F908F907F906F905F904F903F90D4
:1054A0002F9008952F923F924F925F926F927F922A
:1054B0008F929F92AF92BF92CF92DF92EF92FF9224
:1054C0000F931F93DF93CF93CDB7DEB7AA970FB695
:1054D000F894DEBF0FBECDBF4C017A8369835C8335
:1054E0004B8339011C870B87FE82ED82B886AF8221
:1054F00010924B0210924A02109211021092100266
:10550000809110029091110290935A038093590355
:105510008091590390915A039093390280933802F5
:1055200020E030E00F2EF0E0EF2EF0E0FF2EF0E074
:105530000F2FF0E01F2FF02DC901880F991F880F42
:10554000991FFC01E75BFC4FE082F1820283138329
:105550004081518162817381895C9C4FDC014D9354
:105560005D936D937C9313972F5F3F4F24303105EC
:1055700019F700D000D000D0EDB7FEB7319601E2A8
:1055800013E0ADB7BEB712961C930E93119784EB40
:1055900091E0938382838AED91E0958384830E94D6
:1055A0001141EDB7FEB736960FB6F894FEBF0FBEA9
:1055B000EDBF80E067E0A8010E94670128E230E0CB
:1055C00049815A81429FC001439F900D529F900D87
:1055D000112420915E0230915F02820F931F68E6D2
:1055E00071E00E94BD47843B910524F411E0212E17
:1055F000312C03C022242A94322C80E090E06B816D
:105600007C8140E050E020E030E08601EF80F884CB
:105610000E941E1A90935A0380935903C301880F66
:10562000991F880F991F860D971D4BEF5FEF649EA2
:105630009001659E300D749E300D1124269CB001A2
:10564000279C700D369C700D11247A876987D401D0
:105650001896BA8BA98BE981FA81E45DFD4FFC8B2A
:10566000EB8BA601662757FD6095762F4D8B5E8BE1
:105670006F8B788FD094C194D108D394A6016627FC
:1056800057FD6095762F498F5A8F6B8F7C8FAC01B9
:10569000662757FD6095762F4D8F5E8F6F8F78A3AD
:1056A000B901882777FD8095982F69A37AA38BA3EA
:1056B0009CA388279927881999099EA38DA3809177
:1056C000590390915A036F8178850E940D1B809138
:1056D000100290911102009791F7A1E0B0E0B09311
:1056E0001102A0931002E989FA89E131F10508F06D
:1056F00049C0C40197FE02C08DA19EA1FC01E45DDA
:10570000FD4F2081293009F4D0C01814190444F049
:105710006D817E810E94CF1E009709F4C6C0A0C192
:10572000808190E02D813E81821793070CF4BDC0EB
:1057300049815A814815590509F092C1C0904D031D
:10574000D0904E03E0904F03F090500360915E02C2
:1057500070915F02882777FD8095982F0E945B42A9
:105760004B015C0160E070E0CB01A70196017B0179
:105770008C01650154010E94A01751E35A95F1F77D
:1057800000006EC16DE08616910409F08EC0809114
:105790008D0290918E02009709F440C010924B0246
:1057A00010924A0280E090E0DC0180939302909393
:1057B0009402A0939502B0939602809193029091E7
:1057C0009402A0919502B091960280931D0390934C
:1057D0001E03A0931F03B093200380911D0390919B
:1057E0001E03A0911F03B091200380938702909322
:1057F0008802A0938902B0938A0260918702709117
:1058000088028091890290918A020E9428427093B6
:1058100039026093380221E030E060C18091970244
:1058200090919802009709F440C010924B02109298
:105830004A0280E090E0DC0180939302909394020E
:10584000A0939502B0939602809193029091940256
:10585000A0919502B091960280931D0390931E0330
:10586000A0931F03B093200380911D0390911E030A
:10587000A0911F03B0912003809387029093880228
:10588000A0938902B0938A02609187027091880286
:105890008091890290918A020E9428427093390275
:1058A0006093380222E030E019C1AB89BC898C9149
:1058B000E82FF0E02B853C85E21BF30BFE87ED879C
:1058C000CF01F7FF03C0909581959F4F85309105DB
:1058D0002CF16D8D7E8D8F8D98A10E945B425B01B6
:1058E0006C0169A17AA18BA19CA10E945B422B0152
:1058F0003C014D855E85BA01882777FD8095982FFC
:105900000E945B427B018C01C601B501A30192019B
:105910000E94561F0E9428426B0102C0CD84DE8483
:105920006B817C8177FF04C0D094C194D108D3945B
:105930007CE08716910449F4ED84FE84EE0CFF1C94
:10594000EE0CFF1CCC24DD2402C0ED84FE846D89A6
:105950007E898F89988D0E945B422B013C01698D65
:105960007A8D8B8D9C8D0E945B426D877E878F87A1
:10597000988BC70162E070E00E94BD47882777FDE1
:105980008095982F0E945B427B018C01C301B2017C
:105990002D853E854F8558890E94561F20914D03C5
:1059A00030914E0340914F03509150032FA338A7DD
:1059B00049A75AA70E94284288279927861B970B38
:1059C000829DB001839D700D929D700D11248827DA
:1059D00077FD8095982F0E945B422B013C01D0946B
:1059E000C194D108D39489859A85C89EB001C99E77
:1059F000700DD89E700D1124882777FD8095982F03
:105A00000E945B427B018C0160915E0270915F029B
:105A1000882777FD8095982F0E945B425B016C017F
:105A2000C301B2012FA138A549A55AA50E94A0170C
:105A30008091380290913902009731F4A1E0B0E0F2
:105A4000B0933902A09338028091590390915A0380
:105A50002091380230913902821793070CF02FCE33
:105A600010924B0210924A0280E090E0DC01809399
:105A7000930290939402A0939502B0939602809122
:105A8000930290919402A0919502B0919602809316
:105A90001D0390931E03A0931F03B09320038091D6
:105AA0001D0390911E03A0911F03B09120038093CA
:105AB000870290938802A0938902B0938A02609132
:105AC0008702709188028091890290918A020E94D7
:105AD0002842709339026093380201C0C901AA9626
