:100000000C9455000C9474000C9474000C947400BF
:100010000C9474000C9474000C9474000C94740090
:100020000C9474000C9474000C9474000C94740080
:100030000C9474000C9474000C9457300C9474005D
:100040000C9474000C9474000C9491570C947400EC
:100050000C9474000C9474000C9474000C94740050
:100060000C9474000C9474000C9474000C94740040
:100070000C9474000C9474000C940A010C94740099
:100080000C9474000C9474000C94740005A84CCD6E
:10009000B2D44EB93836A9020C50B9918688083CC2
:1000A000A6AAAA2ABE000000803F11241FBECFEFDF
:1000B000D0E1DEBFCDBF12E0A0E0B1E0EEE3FEEBA9
:1000C00000E00BBF02C007900D92A438B107D9F72A
:1000D00018E0A4E8B2E001C01D92A13FB107E1F72A
:1000E0000E94A41D0C9439580C94000094EA90933B
:1000F00074009091740097FFFCCF9AE09093730086
:1001000094E8909374009091740097FFFCCF8093D3
:10011000730084E8809374008091740087FFFCCFA3
:1001200084E98093740084EA809374008091740061
:1001300087FFFCCF8BE08093730084E8809374008A
:100140008091740087FFFCCF84E8809374008091D5
:10015000740087FFFCCF8091730094E99093740042
:10016000089594EA909374009091740097FFFCCFE7
:100170009AE09093730094E89093740090917400C7
:1001800097FFFCCF8093730084E880937400809184
:10019000740087FFFCCF6093730084E88093740041
:1001A0008091740087FFFCCF84E9809374000895E8
:1001B00010929B0088E980939A0086E080939D00CE
:1001C000109298008FE580939900789408951F937A
:1001D0001FEF1093730081E4809370000E948129C7
:1001E0000E947D570E94D8000E947B281FBC85E09A
:1001F0008EBD1DBD80E78CBD84E087BF78948FE005
:1002000087BB81B3807F81BB84B3806F84BB18BA06
:100210001F9108951F920F920FB60F9211248F9382
:10022000DF93CF930F92CDB7DEB780919C00898387
:1002300080919B00887BE1F381E080938402898137
:10024000809385020F90CF91DF918F910F900FBE19
:100250000F901F901895DF93CF930F92CDB7DEB715
:1002600080918502898310928502F894109284020D
:10027000789489810F90CF91DF91089590919B00A0
:1002800095FFFCCF80939C000895CF93DF93E4E724
:10029000F0E094EA9083A1EEB2E01197F1F700004C
:1002A000A3E7B0E09EE09C9394E89083C1EED2E097
:1002B0002197F1F700008C93908381EE92E00197F3
:1002C000F1F7000084E98083DF91CF910895EF92E8
:1002D000FF920F931F93DF93CF9300D0CDB7DEB77C
:1002E000082F162F843070F5643160F58BE1498357
:1002F0005A830E9445018CE40E944501812F0E948F
:100300004501802F0E94450180E791E00197F1F7B8
:1003100000C0E12EFF2449815A81042F152F06C009
:100320000E94450194EC9A95F1F700C0E4E1EE16C5
:10033000F10444F4F80181918F010894E11CF11C4F
:10034000882371F70F900F90CF91DF911F910F913C
:10035000FF90EF9008951F93DF93CF9300D0CDB718
:10036000DEB7182F8430F0F46431E0F48BE12A8397
:1003700069830E9445018CE40E9445016981862FB2
:100380000E944501812F0E94450180E791E001977D
:10039000F1F700C02A81822F0E94450194EC9A95C2
:1003A000F1F700C00F900F90CF91DF911F9108954A
:1003B0008BE10E94450183E40E94450186E696EEAA
:1003C000A0E081509040A040E1F70895EF92FF92A5
:1003D0000F931F93182FF62EE42E842F64E60E94AD
:1003E000EA5E082F282F30E0205D3F4F442737FD7D
:1003F0004095542F812F6F2D0E94AB018CE9089FEF
:10040000002D11240E0D802F6AE00E94EA5EE82E76
:100410006F2D6F5F282F30E0205D3F4F442737FD61
:100420004095542F812F0E94AB016F2D6E5F26EFF8
:10043000E29E202D1124200F30E0205D3F4F442705
:1004400037FD4095542F812F0E94AB011F910F91D2
:10045000FF90EF900895EF92FF920F931F9380E02B
:1004600090E062E070E040E050E020E030E00AE040
:1004700010E0E8E7EE2EF12C0E94FA3B009709F01D
:1004800060C080E090E06DEF7FEF40E050E020E062
:1004900030E00E94FA3B009709F053C080E090E002
:1004A00064E070E040E050E020E030E00E94FA3B81
:1004B000009709F046C080E090E06BEF7FEF40E0EE
:1004C00050E020E030E00E94FA3B0097D1F580E058
:1004D00090E066E070E040E050E020E030E00E9414
:1004E000FA3B009771F580E090E069EF7FEF40E024
:1004F00050E020E030E00E94FA3B009711F580E0E8
:1005000090E068E070E040E050E020E030E00E94E1
:10051000FA3B0097B1F480E090E067EF7FEF40E0B6
:1005200050E020E030E00E94FA3B009751F480E078
:1005300090E06AE070E040E050E020E030E00E94AF
:10054000FA3B1F910F91FF90EF9008956F927F9269
:100550008F929F92AF92BF92CF92DF92EF92FF92D3
:100560000F931F93CF93DF93EC011092DB02109255
:10057000DA0290938D0680938C061092A703109256
:10058000A6030F2EF0E06F2EF0E07F2EF0E08F2E0E
:10059000F0E09F2EF02D60920A0370920B03809280
:1005A0000C0390920D036092F0027092F10280921F
:1005B000F2029092F3028AE590E090932D038093EB
:1005C0002C0380E090E060E070E044E050E022EC3A
:1005D00030E005E010E0E3EAEE2EF12CB2E3CB2EA2
:1005E000D12CAA24BB240E945C5010922D0310929F
:1005F0002C0360920C0870920D0880920E08909265
:100600000F0880910C0890910D08A0910E08B091F0
:100610000F088093080890930908A0930A08B093E4
:100620000B088091080890910908A0910A08B091E0
:100630000B088093040890930508A0930608B093D4
:100640000708609218087092190880921A08909210
:100650001B088091180890911908A0911A08B09170
:100660001B088093140890931508A0931608B09364
:100670001708CE0183709070009709F047C085EB92
:100680009FEF64E170E040E050E022E330E000EAF8
:1006900010E00E94173860920A0370920B03809258
:1006A0000C0390920D036092F0027092F10280921E
:1006B000F2029092F30280E090E060E070E041E0AE
:1006C00050E028EA30E003E010E0A4E8EA2EF12C44
:1006D000F4E1CF2ED12C0E945C508CE090E061E0E0
:1006E00070E045E050E023E030E000E110E0EE246F
:1006F000FF24E8E2CE2ED12CB2E3AB2EB12C0E9427
:10070000903E8AE090E061E070E091C0CE0164E04C
:1007100070E00E94F65E8130910589F481EF9FEFD1
:1007200060E070E040E050E02EE130E008E210E0F0
:100730000E94173880E090E064EF7FEF13C08230B2
:10074000910549F58FE090E060E070E040E050E016
:100750002EE130E008E210E00E94173880E090E0DF
:100760006CE070E040E050E020E030E00EE110E0AE
:10077000A8EDEA2EAFEFFA2E0E94FA3B80E090E05F
:1007800069E470E040E050E028E230E006E910E083
:100790000E94173856C08330910509F054C08BE48D
:1007A00090E064E170E040E050E022E330E000EAF5
:1007B00010E00E94173860920A0370920B03809237
:1007C0000C0390920D036092F0027092F1028092FD
:1007D000F2029092F30280E090E060E070E046E088
:1007E00050E02EE930E008E010E0F6E7EF2EF12CC3
:1007F000EEE1CE2ED12CAA24BB240E945C508CE0CA
:1008000090E068E070E045E050E023E030E004E193
:1008100010E0EE24FF24B8E2CB2ED12CA2E3AA2EC6
:10082000B12C0E94903E8AE090E068E070E04FE2D8
:1008300050E025E030E0FEECAF2EFFEFBF2E0E942F
:10084000903E0E942B02DF91CF911F910F91FF905C
:10085000EF90DF90CF90BF90AF909F908F907F9060
:100860006F9008954F925F926F927F928F929F92B6
:10087000AF92BF92CF92DF92EF92FF920F931F93AE
:10088000CF93DF932C0181E090E09093DB02809383
:10089000DA020F2EF0E06F2EF0E07F2EF0E08F2EC8
:1008A000F0E09F2EF02D60920A0370920B0380926D
:1008B0000C0390920D036092F0027092F10280920C
:1008C000F2029092F302CAE5D0E0D0932D03C093D8
:1008D0002C0380E090E060E070E044E050E022EC27
:1008E00030E005E010E0B3EAEB2EF12CA2E3CA2ED3
:1008F000D12CAA24BB240E945C5060920A037092FF
:100900000B0380920C0390920D036092F0027092A0
:10091000F1028092F2029092F302D0932D03C093E1
:100920002C0380E090E060E070E044E050E022ECD6
:1009300030E00E945C5010922D0310922C035092D4
:100940008D0640928C06F3E06F2E712C640C751CA2
:1009500027E06216710418F0CFEFDFEF02C0C1E0AC
:10096000D0E0C20183709070009709F018C180E058
:1009700090E069E070E04DE050E020E030E000E51C
:1009800010E0E8E2EE2EF12CB2E3CB2ED12C0E9447
:10099000FC4D80E090E069E070E04DE050E020E048
:1009A00030E00AE010E0CC24DD240E949E4B80E081
:1009B00090E069E070E04DE050E020E030E000E5DC
:1009C00010E00E94FC4D37E06316710408F046C049
:1009D00080E090E069E070E04DE050E020E030E041
:1009E00004E110E00E949E4B86EA9FEFC89FA001A1
:1009F000C99F500DD89F500D1124CE0168E270E0C0
:100A00002EE130E008ED1FEF0E94864180E090E08B
:100A100064E670E040E050E020E030E00AE010E002
:100A2000A8E7EA2EF12C0E94FA3B81E090E060E01A
:100A300070E048EE53E02EE130E008E210E00E9462
:100A400062548AE090E060E070E04EE050E02EE119
:100A500030E008ED1FEF0E9462549CC080E090E0FF
:100A600069E070E04DE050E020E030E008E110E0A7
:100A7000F8E2EF2EF12CCC24DD240E949E4B80E086
:100A800090E06AE070E04CEE5FEF23E230E000E0DF
:100A900010E00E9486418CEE9FEF90932D0380938F
:100AA0002C0389E190E06AE570E04EEC5FEF2EE107
:100AB00030E00E94224384E190E090932D038093E4
:100AC0002C0380E090E06BEF7FEF4CEE5FEF2EE1C8
:100AD00030E008ED1FEFE0E5EE2EF12C0E94B1486A
:100AE00080E090E0DC0180930A0390930B03A093D5
:100AF0000C03B0930D038093F0029093F102A09346
:100B0000F202B093F3028AE590E090932D03809374
:100B10002C0380E090E060E070E044E050E022ECE4
:100B200030E005E010E0B3EAEB2EF12CA2E3CA2E90
:100B3000D12CAA24BB240E945C5010922D03109249
:100B40002C0380E090E06CE97FEF40E050E020E093
:100B500030E004E110E0F2E8EF2EF12C0E94FA3BC5
:100B600081E090E060E070E048EE53E02EE130E09C
:100B700008E210E00E9462548AE090E060E070E0D9
:100B80004EE050E02EE130E008ED1FEF0E9462548D
:100B90000E94BC321092A7031092A603C1C0C201EA
:100BA00064E070E00E94F65E3C0181E0681671042A
:100BB00009F05AC080E090E069E070E04DE050E05C
:100BC00020E030E000E510E0E8E2EE2EF12CB2E3A8
:100BD000CB2ED12C0E94FC4D80E090E06AE070E0CA
:100BE0004EE050E020E030E00AE010E0CC24DD24CC
:100BF0000E949E4B80E090E069E070E04DE050E0A4
:100C000020E030E000E510E00E94FC4D86EA9FEF16
:100C1000C89FB001C99F700DD89F700D11248DE041
:100C200090E040E050E028E230E000E010E00E9478
:100C30002243BE01A3E0660F771FAA95E1F780E08B
:100C400090E040E050E020E030E004E110E0F2EE1F
:100C5000EF2EFFEFFF2E0E94FA3B7092A7036092E7
:100C6000A6030E94BC325CC022E06216710431F51A
:100C700080E090E069E070E04DE050E020E030E09E
:100C800004E610E0E8E2EE2EF12CB2E3CB2ED12CFC
:100C90000E94FC4D86EA9FEFC89FB001C99F700D6E
:100CA000D89F700D11248DE090E040E050E02EE1DF
:100CB00030E000E010E00E94224318C033E06316E9
:100CC000710471F584E190E09C01C29FC001C39F53
:100CD000900DD29F900D11246AE070E040E050E04A
:100CE0002EE130E008E210E00E941738BE01A3E0D8
:100CF000660F771FAA95E1F780E090E040E050E0B2
:100D000020E030E004E110E0F2EEEF2EFFEFFF2EE6
:100D10000E94FA3B81E090E09093A7038093A603A2
:100D2000DF91CF911F910F91FF90EF90DF90CF90C7
:100D3000BF90AF909F908F907F906F905F904F90FB
:100D40000895EF92FF920F931F93CF93DF938C013F
:100D5000EB01862F7E019F2D6FEF7FEF40E150E08A
:100D60000E943C58C80103968730910520F0C801C5
:100D7000049799838883C80183709070009721F04D
:100D8000C80101979D838C830C30110524F4C801A0
:100D9000049699878887C80164E070E00E94F65E37
:100DA0008330910521F0C80101969D878C87888149
:100DB000998197FD08C08C819D8197FD04C0C80171
:100DC00005979B838A838885998597FD08C08C81C8
:100DD0009D8197FD04C0C80103969F838E838885FB
:100DE000998597FD08C08C859D8597FD04C0C80135
:100DF00005969B878A878881998197FD08C08C8595
:100E00009D8597FD04C0035010401F870E87DF911A
:100E1000CF911F910F91FF90EF9008950F931F9323
:100E2000CF93DF93EC018B01CB016FEF7FEF40E1BC
:100E300050E00E943C58CE0103968730910530F077
:100E40009E0124503040F801318320839E0123709D
:100E500030702115310531F09E0121503040F801EC
:100E6000338322838730910528F4CE010496F8015C
:100E700095838483CE0164E070E00E94F65E833047
:100E8000910521F02196F801D783C683DF91CF9198
:100E90001F910F910895861B970B97FF03C09095A4
:100EA00081959F4F8430910531F08130910531F467
:100EB00021E030E005C020E030E002C022E030E078
:100EC000C9010895262F372FF90120E030E0419124
:100ED000519157FD09C0DC01A20FB31F6D917C91A8
:100EE00011974617570741F42E5F3F4F20313105C8
:100EF00071F721E030E002C020E030E0C901089540
:100F00004F925F926F927F928F929F92AF92BF9219
:100F1000CF92DF92EF92FF920F931F93CF93DF93C5
:100F20003C016B01EA0179018091B8079091B90702
:100F3000481759070CF07CC080918A0690918B0667
:100F4000009709F075C0FA01EE0FFF1FE25BF94F41
:100F5000D182C082C90168EA77E00E9462070097E7
:100F6000A1F0D093B907C093B807A0EDB5E0EEE4C7
:100F7000F6E08CE301900D928150E1F781E090E082
:100F800090938B0680938A0653C08601000F111F31
:100F90000E0D1F1DC60143E0880F991F4A95E1F70A
:100FA00034ECA32E37E0B32EA80EB91E2CEC422E43
:100FB00027E0522E480E591E4E010894811C911CA8
:100FC000F501619171915F0177FD2FC0661677067B
:100FD00061F1F8018081918190935B0380935A03C2
:100FE000EB01CC0FDD1FCE0DDF1D88819981918330
:100FF000808380915A0390915B0399838883C60113
:10100000A40197010E948007F8018081918190934B
:101010005B0380935A0388819981918380838091B7
:101020005A0390915B0399838883A414B50441F615
:10103000DF91CF911F910F91FF90EF90DF90CF90B4
:10104000BF90AF909F908F907F906F905F904F90E8
:1010500008952F923F924F925F926F927F928F925C
:101060009F92AF92BF92CF92DF92EF92FF920F9337
:101070001F93DF93CF9300D000D0CDB7DEB79C8312
:101080008B832B016A014901570180914C06909195
:101090004D06081719070CF09FC0F801EE0FFF1F4F
:1010A000E257F94F518340834815590571F4109365
:1010B0004D0600934C06ACE6B3E0EEE8F6E08AE1BC
:1010C00001900D928150E1F787C0FA01EE0FFF1FEA
:1010D000E057FA4F81E090E0918380839CEB692E8A
:1010E00091E0792E9A0183E0220F331F8A95E1F770
:1010F0003A83298318010894211C311CD3018D9156
:101100009D913D01E981FA81E80FF91FEE0FFF1F64
:10111000E855F94F40815181EB81FC81309739F4DA
:10112000009751F18430910509F049C025C02B8109
:101130003C812130310539F482309105E9F0863067
:101140009105E9F519C0AB81BC81A230B10519F454
:1011500080FF35C011C0EB81FC81E330F10561F403
:101160004815590549F0FA01EE0FFF1FEA0DFB1D66
:1011700080819181009719F557FD21C0CA01880F20
:10118000991FFC01E057FA4F20813181211531056B
:10119000B1F48A0D9B1DDC018D919C9111978430D7
:1011A000910569F04114510411F0009741F48B81CD
:1011B0009C81B2019401810175010E942908BCEC57
:1011C0006B16B1E07B0609F099CFF601EE0FFF1F19
:1011D000E057FA4F118210820F900F900F900F90EE
:1011E000CF91DF911F910F91FF90EF90DF90CF9003
:1011F000BF90AF909F908F907F906F905F904F9037
:101200003F902F900895EF92FF920F931F93CF93EB
:10121000DF937801ECE0F0E0F0934D06E0934C06AC
:10122000A0E2E0E9F5E0EF011992AA95E9F700E004
:1012300010E00E94290821E030E080914C06909156
:101240004D068C30910511F420E030E0C901DF91AA
:10125000CF911F910F91FF90EF9008952F923F92A1
:101260004F925F926F927F928F929F92AF92BF92B6
:10127000CF92DF92EF92FF920F931F93DF93CF9362
:10128000CDB7DEB728970FB6F894DEBF0FBECDBF3F
:101290004C011B014B835C833E832D83CB0164E0B7
:1012A00070E00E94F65E3B012C015C01A60EB71EA9
:1012B000B7FE04C0B094A194B108B3946301C418FC
:1012C000D508D7FE04C0D094C194D108D3943B81F3
:1012D0002C81832F922F9A83898380E090E0EE24E3
:1012E000FF2498878F838114910449F48F81988516
:1012F000837090708415950509F052C02DC081E06F
:101300008816910459F48F819885959587959595C0
:1013100087958615970509F043C01EC092E089168F
:101320009104D1F42F8138853595279535952795EA
:101330008F81988583709070AC01420F531F4A15BE
:101340005B0551F0281B390B37FF03C03095219501
:101350003F4F2C153D0521F5AF81B885A215B3058A
:10136000F9F0E981FA81808191810097C9F4C40183
:1013700060E070E0A1019D010B811C810E940309C6
:10138000009771F0F701EE0FFF1F8D819E81E80F2E
:10139000F91FAF81B885B183A0830894E11CF11CCB
:1013A000EF81F8853196F887EF8389819A810296DB
:1013B0009A838983E031F10509F095CFC70128961A
:1013C0000FB6F894DEBF0FBECDBFCF91DF911F9156
:1013D0000F91FF90EF90DF90CF90BF90AF909F90D4
:1013E0008F907F906F905F904F903F902F900895D7
:1013F000FA01A3E0EE0FFF1FAA95E1F7E05FF94FB6
:1014000021E030E007C0419151914617570741F064
:101410002F5F3F4F28173907B4F320E030E002C0B8
:1014200021E030E0C9010895FA01B3E0EE0FFF1F9B
:10143000BA95E1F7EC5CFC4F21E030E007C0419148
:1014400051914617570741F02F5F3F4F2817390733
:10145000B4F320E030E002C021E030E0C90108959B
:101460002F923F924F925F926F927F928F929F92B4
:10147000AF92BF92CF92DF92EF92FF920F931F93A2
:10148000DF93CF93CDB7DEB76C970FB6F894DEBF7E
:101490000FBECDBF6F8B788FA0EBB5E0242F352F1B
:1014A000F90120E201900D922150E1F7BC0103E027
:1014B000660F771F0A95E1F79B0122573C4F68574B
:1014C0007C4F6C010894C11CD11CF901B291A2910E
:1014D0009F01AA0FBB1FA055BA4F4D915C91119768
:1014E00000851185000F111F00551A4FF801E0808B
:1014F000F1801196FC92EE925183408326173707B4
:1015000021F750935B0340935A0321E030E03A8384
:1015100029839E01295F3F4F3A8F298FDC01AA0F53
:10152000BB1FAA0FBB1FB88BAF87F601EE0FFF1FC3
:10153000EE0FFF1FFA8BE98B9E01235F3F4F3C8F1D
:101540002B8FFEC081E090E09C838B83EDC06814FC
:10155000790409F4E4C0A1E0B0E0BE83AD83D8C053
:10156000A814B90409F4CFC0A614B70409F4CBC079
:10157000E98DFA8D26E011922A95E9F7CE010196C0
:101580009C8B8B8BDE011796BE8BAD8B2D019E87BE
:101590008D87CC24DD24AD85BE85ED90FD90BE8782
:1015A000AD878F8598898E0D9F1D880F991FFC012F
:1015B000E25FF94F76E8272E73E0372E280E391EAA
:1015C000D1014D915C9129893A89E20EF31EEE0C0E
:1015D000FF1C86E893E0E80EF91ED7012D913C919F
:1015E0008081918161E070E000EB15E00E940309C9
:1015F000009749F480915A0390915B036B897C8931
:101600004D895E8944C0F7012081318137FD32C0A8
:10161000E1E0F0E0D201ED93FC93D101ED91FC917A
:10162000EE0FFF1FE055FA4F8081918190935B038D
:1016300080935A03D901AA0FBB1FA055BA4F2D9111
:101640003C9111973183208311969C938E93B2E045
:10165000CB16D10479F43F89288D832F922FDC019A
:10166000FE01319686E001900D928150E1F721E074
:1016700030E06FC00894C11CD11CE2E0F0E04E0ED7
:101680005F1EF3E0CF16D10409F085CFB3CFDA01A6
:101690002D913D91AD012115310551F1DB01ED9108
:1016A000FC91AF85B889AE0FBF1FAA0FBB1FAA5709
:1016B000BC4F0D90BC91A02DAA0FBB1FA055BA4FD7
:1016C0008D919C91119729893A89E20FF31FEE0FB2
:1016D000FF1FEA57FC4F0190F081E02DEE0FFF1F36
:1016E000E055FA4F208131812D933C939183808383
:1016F0006E5F7F4FAB8DBC8D4A175B0741F69093B1
:101700005B0380935A030894A11CB11CBE82AD8276
:10171000AD80BE80B4E0AB16B1040CF421CF0894C8
:10172000811C911C9C828B828B809C80E4E08E16B5
:1017300091040CF40CCF0894611C711C7A826982AC
:1017400069807A80F4E06F1671040CF4FBCE20E01F
:1017500030E0C9016C960FB6F894DEBF0FBECDBF66
:10176000CF91DF911F910F91FF90EF90DF90CF907D
:10177000BF90AF909F908F907F906F905F904F90B1
:101780003F902F9008952F923F924F925F926F92C9
:101790007F928F929F92AF92BF92CF92DF92EF9201
:1017A000FF920F931F93DF93CF93CDB7DEB76E9762
:1017B0000FB6F894DEBF0FBECDBF8C013B015A833C
:1017C00049837B01EE0CFF1CE60EF71EEE0CFF1C9E
:1017D0002EE236E0E20EF31E6A018091C20790917C
:1017E000C307861597050CF4F8C180918A0690917D
:1017F0008B06009709F0F1C101151105B9F4C30179
:10180000B701A6010E94300A009709F0DDC1E5C1C9
:101810000894611C711C7092C3076092C20781E03A
:1018200090E090938B0680938A06D7C18091C2077F
:101830009091C3076816790609F4CFC146E050E0DD
:10184000E40EF51E0115110531F40894611C711C9C
:1018500001E010E0C2CF9301220F331F220F331F8C
:10186000200F311F220F331FF901EA57FC4F408030
:1018700051806801CC0CDD1CC00ED11E43E0CC0CA5
:10188000DD1C4A95E1F740E650E0649EC001659E8C
:10189000900D749E900D1124C80ED91E80EB93E01C
:1018A000C80ED91ED201A370B070BE83AD83F20101
:1018B000F595E795F595E795FC87EB87EA0FFB1F14
:1018C000FE87ED871201220C331C49815A81240EB8
:1018D000351EC801019664E070E00E94F65E8D8BB3
:1018E0009E8BEE24FF2481E090E09A878987D901BE
:1018F000A25FB94FBA8BA98BDC8ACB8A43010894CB
:10190000811C911C880C991C880C991C800E911EBE
:10191000880C991CE6E8F3E08E0E9F1EA9014E5C30
:101920005C4F5C834B8353010894A108B108AA0C57
:10193000BB1CAA0CBB1CA00EB11EAA0CBB1C8EE0CB
:1019400096E0A80EB91E9A8E898EBC8EAB8E56017B
:101950006801830131C1C601B701A8010E94F809DD
:10196000009709F022C1F201EE0FFF1FE655FD4F6F
:10197000808191818C159D0581F4E114F10409F0B9
:1019800014C18FEF9FEFAB89BC8911969C938E9306
:10199000E989FA899183808309C0C701B20149812D
:1019A0005A8195010E942E099A8789870115110590
:1019B00049F0AB8DBC8D8D919C9111978E159F0533
:1019C00009F4F3C0E989FA89F182E0822B893C8924
:1019D000388B2F87882499246B847C844D815E8189
:1019E000641A750A8827992786199709988F8F8B0B
:1019F000440F551F445A5C4F58874F83CAC0AF8568
:101A0000B8898D919D91B88BAF87E98DFA8D9183BF
:101A100080839C01220F331F49815A81240F351F77
:101A20003E8F2D8FD9012D913C91119721153105B4
:101A300009F0ACC02FEF3FEFEB81FC8131832083B5
:101A400031E0E316F10409F471C097FD6FC048E07E
:101A5000441651040CF46AC08C3091050CF066C039
:101A6000E114F10441F4AF81B8858D919C911197F7
:101A70009183808351C0B2E0EB16F10409F04CC0B1
:101A80009C01359527953595279583709070280F83
:101A9000391FED85FE85E217F307D1F4ECE5F3E09D
:101AA00082E090E04D8D5E8D2D853E8582179307F7
:101AB00039F420813181AB81BC8111963C932E9306
:101AC000019632968630910579F75E8F4D8F24C04E
:101AD000ECE5F3E082E090E06D8D7E8DAC0197FF48
:101AE00004C044275527481B590B930177FE02C0B9
:101AF0002F89388D4217530739F420813181AB810A
:101B0000BC8111963C932E9301973296BFEF8E3F86
:101B10009B0721F77E8F6D8FEB81FC816081718146
:101B2000C601A8010E94140A009781F5D1018D9188
:101B30009C91119790935B0380935A03ED8DFE8DDA
:101B4000808191818D939C9380915A0390915B0346
:101B5000918380838D899E89B80149815A810E9431
:101B6000C30BD1018D919C91119790935B0380934E
:101B70005A03ED8DFE8D8081918111969C938E93F9
:101B800080915A0390915B03918380830894811C18
:101B9000911C29853A85821693063CF480918A0629
:101BA00090918B06009709F42ACF0894E11CF11C50
:101BB00033E0E316F10489F080918A0690918B0658
:101BC000009709F4C8CE09C0C6016AEA72E00E9413
:101BD0006207009709F42ACE1BCE6E960FB6F894D2
:101BE000DEBF0FBECDBFCF91DF911F910F91FF9050
:101BF000EF90DF90CF90BF90AF909F908F907F90AD
:101C00006F905F904F903F902F900895FC01A4E05B
:101C1000EE0FFF1FAA95E1F7E855F94F20E030E0FD
:101C2000819191918617970739F02F5F3F4F2830A8
:101C30003105B1F72FEF3FEFC9010895FC01B3E083
:101C4000EE0FFF1FBA95E1F7EC53F84F20E030E0BC
:101C5000819191918617970711F4C90108952F5F1B
:101C60003F4F24303105A1F70895EF92FF920F9373
:101C70001F93CF93DF938C010E94642A6091140814
:101C800070911508809116089091170890580E943D
:101C90006159CB0168E671E00E94F65EEC0197FFA6
:101CA00002C0C859DE4FC53BD1052CF00115110506
:101CB00011F408E611E00E94D8018DB79EB708978D
:101CC0000FB6F8949EBF0FBE8DBFEDB7FEB731962D
:101CD00087EBE82E88E0F82EADB7BEB71296FC92DF
:101CE000EE92119780E091E093838283D583C48341
:101CF000178306830E944A588DB79EB708960FB681
:101D0000F8949EBF0FBE8DBF81E060E0A7010E94E6
:101D100067010C1B1D0BC8014D968B33910510F00C
:101D200000E010E0C801DF91CF911F910F91FF906B
:101D3000EF900895EF92FF920F931F93CF93DF934D
:101D40007C019B01E091A603F091A7032E1B3F0BA2
:101D5000C90137FF04C088279927821B930B853060
:101D6000910544F0121613061CF42850304002C0AE
:101D7000285F3F4FC90137FF04C088279927821B7E
:101D8000930B843091050CF47EC037FF3DC0CF012A
:101D90000796C4E0D0E0BE010E94F65E870153E0E2
:101DA000000F111F5A95E1F7800F911F880F991F9F
:101DB0008855994FDC018D919C91119797FF63C0D5
:101DC000CF010696BE010E94F65E800F911F880F1C
:101DD000991F8855994FDC018D919C91119797FF20
:101DE00052C0CF010596BE010E94F65E800F911F82
:101DF000880F991F8855994FDC018D919C911197FF
:101E000097FF41C0285F3F4F12161306E4F5CF013C
:101E10000196C4E0D0E0BE010E94F65E870173E047
:101E2000000F111F7A95E1F7800F911F880F991FFE
:101E30008855994FDC018D919C91119797FF23C094
:101E4000CF010296BE010E94F65E800F911F880F9F
:101E5000991F8855994FDC018D919C91119797FF9F
:101E600012C0CF010396BE010E94F65E800F911F43
:101E7000880F991F8855994FFC018081918197FFA8
:101E800002C0285030408DE290E0289FA001299F99
:101E9000500D389F500D1124CA01DF91CF911F9131
:101EA0000F91FF90EF900895FC012091A6033091CF
:101EB000A703621B730BCB0177FF04C08827992708
:101EC000861B970B8330910529F4CB016DEF7FEFD3
:101ED0000E94F65ECB0177FF04C088279927861BF6
:101EE000970B82309105C9F4C901019664E070E056
:101EF0000E94F65EEE0FFF1FEE0FFF1FE80FF91FA7
:101F0000EE0FFF1FEC53F84F8081918197FD03C0C6
:101F100062E070E002C06EEF7FEF8AE590E0689FBC
:101F20009001699F300D789F300D1124C9010895EB
:101F3000AF92BF92CF92DF92EF92FF920F931F93D7
:101F4000CF93DF93EC018FEF9FEF9093DB028093B1
:101F5000DA02CE0103968730910570F5D7FD3FC0B8
:101F60004091A6035091A7032AE530E0429FC001AB
:101F7000439F900D529F900D112490932D038093B9
:101F80002C03CE0160E070E00E94540FAC0180E0B1
:101F900090E06BEF7FEF24E130E002E810E0F4E640
:101FA000EF2EF12C0E94B14810922D0310922C03B9
:101FB000209709F0E6C09BC0D7FD11C0CE0160E0BC
:101FC00070E00E94540FAC0180E090E060E070E0AF
:101FD00022E830E008E710E00E941738D2C080E025
:101FE00090E0DC0180930A0390930B03A0930C0311
:101FF000B0930D038093F0029093F102A093F2024C
:10200000B093F3028AE590E090932D0380932C0324
:1020100080E090E060E070E044E050E022EC30E0EE
:1020200005E010E0E3EAEE2EF12CB2E3CB2ED12C4A
:10203000AA24BB240E945C5010922D0310922C0302
:1020400080E090E060E270E046EA5FEF2EE130E091
:102050000CE810E00E94864180E090E069E070E0CA
:102060004DE050E020E030E008EE13E0A8E2EA2E78
:10207000F12C0E94FC4D80E090E069E070E04DE0C2
:1020800050E020E030E00EE010E0CC24DD240E949F
:102090009E4B80E090E069E070E04DE050E020E091
:1020A00030E003E410E00E949E4B85E090E06AE59A
:1020B00070E04AE050E02EE130E000E010E00E94E5
:1020C000224380EB9FEF90932D0380932C038CE0B1
:1020D00090E063E070E045E050E023E030E00EE0A7
:1020E00010E0EE24FF24F8E2CF2ED12CB3C18CE017
:1020F00090E061E070E045E050E023E030E007E18F
:1021000010E0EE24FF24E2E3CE2ED12CBCE3AB2E74
:10211000B12C0E94903E8AE090E061E070E040E3E4
:1021200050E025E030E0AA24BB240E94903E89E1E3
:1021300090E066EA7FEF46EF5FEF2DE230E000E0EF
:1021400010E00E94224380E590E090932D0380935D
:102150002C038CE090E066E070E045E050E023E086
:1021600030E002E110E0A8E2CA2ED12C0E94903E9D
:102170008AE090E066E070E045E050E025E030E085
:1021800080C0C130D10509F586EA9FEF90932D03F9
:1021900080932C0386E190E066EA7FEF40E050E018
:1021A0002EE130E008E210E00E94224310922D035D
:1021B00010922C0380E090E06CE070E040E150E091
:1021C00020E030E002E310E032C0CE01049782301C
:1021D000910508F073C0C430D10519F48AE590E088
:1021E00002C086EA9FEF90932D0380932C03C430A6
:1021F000D10519F46AE570E002C066EA7FEF86E176
:1022000090E040E050E02EE130E008E210E00E9473
:10221000224310922D0310922C0380E090E069E09D
:1022200070E04DE050E020E030E00AE510E0F8E238
:10223000EF2EF12CCC24DD240E949E4B85E090E013
:1022400066EA7FEF46EF5FEF2EE130E000E010E05E
:102250000E94224380E590E090932D0380932C030D
:102260008CE090E066E070E045E050E023E030E094
:1022700002E110E0EE24FF24E8E2CE2ED12CAA24C5
:10228000BB240E94903E8DE090E066E070E048EE56
:1022900053E025E030E00E94903E8AE090E066E066
:1022A00070E04AE050E025E030E00E94903E80E09F
:1022B00090E06DE070E04AE050E0E8C0C330D10546
:1022C00009F04AC08CE090E068E070E045E050E042
:1022D00023E030E000E210E0EE24FF24B2E3CB2E56
:1022E000D12CACE3AA2EB12C0E94903E8AE090E063
:1022F00068E070E040E350E025E030E0AA24BB2431
:102300000E94903E89E190E06AE570E04AE050E08A
:102310002DE230E000E010E00E94224380EB9FEFCE
:1023200090932D0380932C038CE090E063E070E0A9
:1023300045E050E023E030E00EE010E0F8E2CF2E80
:10234000D12C0E94903E8AE090E063E070E045E08E
:1023500050E025E030E07EC0C230D10509F58AE5C5
:1023600090E090932D0380932C0386E190E06AE542
:1023700070E040E050E02EE130E008E210E00E9422
:10238000224310922D0310922C0380E090E069E02C
:1023900070E04DE050E020E030E002E310E030C0BB
:1023A000C630D1050CF47BC0C630D10519F48AE5DE
:1023B00090E002C086EA9FEF90932D0380932C0358
:1023C000C630D10519F46AE570E002C066EA7FEF15
:1023D00086E190E040E050E02EE130E008E210E0DD
:1023E0000E94224310922D0310922C0380E090E073
:1023F00069E070E04DE050E020E030E00AE510E0F8
:10240000E8E2EE2EF12CCC24DD240E949E4B85E0E8
:1024100090E06AE570E04AE050E02EE130E000E054
:1024200010E00E94224380EB9FEF90932D03809356
:102430002C038CE090E063E070E045E050E023E0A6
:1024400030E00EE010E0EE24FF24B8E2CB2ED12CD9
:10245000AA24BB240E94903E8DE090E063E070E0EF
:1024600048EE53E025E030E00E94903E8AE090E0A4
:1024700063E070E04FE050E025E030E00E94903EE5
:1024800080E090E06DE070E046EF5FEF28E230E042
:102490000EEC1FEFA4E1EA2EF12C0E94B14880E07F
:1024A00090E0DC0180930A0390930B03A0930C034C
:1024B000B0930D038093F0029093F102A093F20287
:1024C000B093F3028AE590E090932D0380932C0360
:1024D00080E090E060E070E044E050E022EC30E02A
:1024E00005E010E0F3EAEF2EF12CE2E3CE2ED12C42
:1024F000AA24BB240E945C5010922D0310922C033E
:10250000DF91CF911F910F91FF90EF90DF90CF90CF
:10251000BF90AF900895CF92DF92EF92FF920F930A
:102520001F93DF93CF93CDB7DEB760970FB6F894C4
:10253000DEBF0FBECDBF6C01DE011196E4EDF1E010
:1025400080E101900D928150E1F70091A603109176
:10255000A703C80162E070E00E94F65E53E0880FB6
:10256000991F5A95E1F7FE013196E80FF91F24E013
:1025700030E048E0E42EF12C93E0CC0CDD1C9A9581
:10258000E1F781919191800F911FB7010E94F65E52
:10259000AC01D601A80FB91FAA0FBB1FA855B94F90
:1025A0008D919C91119797FD02C0CA0103C02150E3
:1025B000304039F760960FB6F894DEBF0FBECDBF3E
:1025C000CF91DF911F910F91FF90EF90DF90CF900F
:1025D00008954F925F926F927F928F929F92AF92E7
:1025E000BF92CF92DF92EF92FF920F931F93DF93F0
:1025F000CF9300D0CDB7DEB76C013B017A01590112
:102600000E94D8012DB73EB72A5030400FB6F8943B
:102610003EBF0FBE2DBFEDB7FEB7319607EB18E0FA
:10262000ADB7BEB712961C930E9311978FE091E051
:1026300093838283D582C482F782E682B186A086A4
:102640000E944A58EDB7FEB73A960FB6F894FEBF0F
:102650000FBEEDBF81E061E0A8010E946701C701E4
:10266000B5010E94060E2C0162E070E00E94F65E49
:102670004C018091A6039091A7038415950509F458
:1026800040C0C701B2010E949A0EAC0189835A83EF
:102690000E94BC3249815A81C114D10439F080E0D2
:1026A00090E060E070E02CE330E006C080E090E075
:1026B00060E070E026E930E002E810E00E941738A0
:1026C0008DE290E09C01429EC001439E900D529E7F
:1026D000900D11240E94350EDC01BD01882777FD85
:1026E0008095982F0E94945944E150E00E945147F0
:1026F0005092A7034092A6038114910411F40E9402
:102700002B026114710409F46EC081149104E1F587
:1027100080E090E0DC018093080890930908A09382
:102720000A08B0930B088AE090E060E070E04AE1AC
:1027300050E02EE130E00CE810E00E94625480E0AE
:1027400090E067EE7FEF40E050E02EE130E00E9445
:1027500017388DE290E0FC014E9EC0014F9E900D17
:102760005E9E900D11240E94350E9C01B9018827B0
:1027700077FD8095982F0E94945944E150E00E9483
:1027800051470E942B0250C180E090E060E370E06E
:1027900040E050E028E230E006E910E00E941738FF
:1027A00080E090E060ED7FEF40E050E028E230E034
:1027B0000E9417388DE290E0DC014A9EC0014B9EDA
:1027C000900D5A9E900D11240E94350EFC01BF0100
:1027D000882777FD8095982F0E94945944E150E016
:1027E0000E94514721C16091A6037091A703C501C2
:1027F0000E948B126C014816590609F4CBC0811453
:102800009104F9F48AE090E060E070E049E150E082
:102810002EE130E008E210E00E946254C701B601E8
:102820000E949A0EAC0180E090E069E170E02EE138
:1028300030E008ED1FEFE4E6EE2EF12C0E94B148E7
:102840008AC0C701B6010E949A0E7C01F7FE04C03F
:10285000882799278E199F098B3591050CF45DC047
:102860001E141F042CF4B3ED8B2EBFEF9B2E03C060
:10287000ADE28A2E912C8E0C9F1C80E090E06AE2E3
:1028800070E040E050E02EE130E00CE810E00E9403
:102890001738181419041CF486EA9FEF02C08AE561
:1028A00090E090932D0380932C03181419041CF0CE
:1028B00043ED5FEF02C04DE250E08CEE9FEFBA01B6
:1028C0002FE030E00DE710E00E94224310922D032C
:1028D00010922C03181419041CF468EE73E002C063
:1028E00068E17CEF80E090E040E050E020E030E004
:1028F00004E110E0F2E8EF2EF12C0E94FA3B80E0B8
:1029000090E069E170E0A4012EE130E00CE810E015
:102910000E9486410E942B021EC080E090E063E28C
:1029200070E040E050E02EE130E008E210E00E946C
:10293000173880E090E063E270E0A7012EE130E01C
:1029400008ED1FEFE4E6EE2EF12C0E94B148109244
:102950002D0310922C038DE290E09C01C29EC001D9
:10296000C39E900DD29E900D11240E94350EDC0165
:10297000BD01882777FD8095982F0E94945944E1E6
:1029800050E00E9451470E942B02D092A703C092B0
:10299000A60346C0F501EE0FFF1FE655FD4F8081EF
:1029A0009181009759F08AE090E060E070E042E3A6
:1029B00050E02EE130E00CE810E016C081E090E03D
:1029C00060E070E048EE53E02EE130E008E210E015
:1029D0000E9462548AE090E060E070E04EE050E0D7
:1029E0002EE130E008ED1FEF0E9462548DE290E08E
:1029F000FC014E9EC0014F9E900D5E9E900D1124D5
:102A00000E94350E9C01B901882777FD8095982F8B
:102A10000E94945944E150E00E9451470E942B02C9
:102A2000B0928D06A0928C060F900F90CF91DF91FF
:102A30001F910F91FF90EF90DF90CF90BF90AF90DC
:102A40009F908F907F906F905F904F900895CF925E
:102A5000DF92EF92FF920F931F93DF93CF93CDB747
:102A6000DEB728970FB6F894DEBF0FBECDBFDE01EC
:102A70001196ECECF1E028E001900D922150E1F785
:102A80000091A6031091A703FE01319629E0E22EE2
:102A9000F12CEC0EFD1E24E030E06C01CC0CDD1CB2
:102AA000CC0CDD1C81919191800F911FB9010E9486
:102AB000F65EAC01D601A80FB91FAA0FBB1FAC531D
:102AC000B84F8D919C91119797FD02C0CA0103C028
:102AD000EE15FF0539F728960FB6F894DEBF0FBE46
:102AE000CDBFCF91DF911F910F91FF90EF90DF90BD
:102AF000CF9008956F927F928F929F92AF92BF92E4
:102B0000CF92DF92EF92FF920F931F93CF93DF93B9
:102B10006C014B013A01590178010E94D8018DB72F
:102B20009EB708970FB6F8949EBF0FBE8DBFEDB746
:102B3000FEB73196C7EBD8E0ADB7BEB71296DC93BF
:102B4000CE9311978EE191E093838283B582A48224
:102B5000178306830E944A58EDB7FEB738960FB622
:102B6000F894FEBF0FBEEDBF81E061E0AE010E94B0
:102B700067018091860290918702009731F00E9450
:102B8000BC32B59BFECFB599FECFC401B301A50100
:102B900097010AE812E00E9403090CE613E0C0E086
:102BA000D0E059EE852E52E1952E15C0C114D10406
:102BB00031F0019761E070E0C817D90711F060E0CB
:102BC00070E0D8014D915D918D0121962D913C9140
:102BD000C601F401099580914C0690914D06C817E5
:102BE000D90724F3C114D104C1F0D501AA0FBB1F2A
:102BF000A657BD4F8D919C91119790935B03809345
:102C00005A03F701EE0FFF1FE657FD4F2081318178
:102C100011963C932E9391838083DF91CF911F91E6
:102C20000F91FF90EF90DF90CF90BF90AF909F906B
:102C30008F907F906F900895AF92BF92CF92DF9266
:102C4000EF92FF920F931F93CF93DF930E94D801CF
:102C500087EB98E06DE271E00E94435881E061E00B
:102C600047EB58E00E9467018091860290918702AD
:102C7000009731F00E94BC32B59BFECFB599FECFD4
:102C80008091860290918702009731F00E94BC32B9
:102C9000B59BFECFB599FECF0E94D8018DB79EB7E8
:102CA00008970FB6F8949EBF0FBE8DBFEDB7FEB765
:102CB0003196C7EBD8E0ADB7BEB71296DC93CE9392
:102CC000119785E391E09383828380918C069091A4
:102CD0008D06958384838091A6039091A7039783A3
:102CE00086830E944A58EDB7FEB738960FB6F8941F
:102CF000FEBF0FBEEDBF81E061E0AE010E94670143
:102D000002EAC02E02E0D02E1CE0E12EF12CCFEF23
:102D1000DFEFBAE0AB2EB12CD6018D919D916D0104
:102D20000097F9F440918C0650918D0683E090E075
:102D300060E070E097010AE812E00E940309009742
:102D400081F0BFEFCF3FDB0739F080914C069091C7
:102D50004D06A816B9062CF0A0904C06B0904D0672
:102D6000E7010894E11CF11CE0E1EE16F104A1F684
:102D700020918C0630918D0680E090E063E070E059
:102D800040E050E08E010E947A150E94BC32CC30A7
:102D9000D10509F08CC080918C0690918D0660E081
:102DA00070E00E949A0EAC014451504080E090E0E7
:102DB00060E070E022E830E008E710E00E94173899
:102DC00010922D0310922C030E94BC3280E090E000
:102DD0000E94350EAC014451504080E090E060E02C
:102DE00070E02AE030E00E9417388CEE9FEF90935D
:102DF0002D0380932C038CE090E064E070E04BEFB7
:102E00005FEF23E030E002E110E0EE24FF24A2E3D4
:102E1000CA2ED12CFCE3AF2EB12C0E94903E8AE04A
:102E200090E064E070E04DED5FEF25E030E0AA2433
:102E3000BB240E94903E82EE9FEF6AE570E04AE07C
:102E400050E02DE230E000E010E00E94224380E5F7
:102E500090E090932D0380932C038CE090E066E04B
:102E600070E045E050E023E030E002E110E0E8E20D
:102E7000CE2ED12C0E94903E8DE090E066E070E076
:102E800048EE53E025E030E00E94903E8AE090E07A
:102E900066E070E04FE050E025E030E00E94903EB8
:102EA00080E090E06AE070E04AE050E021C1CD307F
:102EB000D10579F580918C0690918D0660E070E0E7
:102EC0000E949A0EAC0180E090E060E070E022E8A1
:102ED00030E008E710E00E94173810922D0310929E
:102EE0002C030E94BC3280E090E00E94350EAC01C1
:102EF00080E090E060E070E02AE030E00E94173867
:102F00008CEE9FEF90932D0380932C0386E190E04D
:102F100032C080918C0690918D06CE30D10509F09B
:102F200060C060E070E00E949A0EAC0180E090E02A
:102F300060E070E022E830E008E710E00E94173817
:102F400010922D0310922C030E94BC3280E090E07E
:102F50000E94350EAC0180E090E060E070E02AE075
:102F600030E00E9417388CEE9FEF90932D038093F2
:102F70002C038AEE9FEF68EB7FEF40E050E022E306
:102F800030E000EA10E00E94173880E090E0DC01B9
:102F900080930A0390930B03A0930C03B0930D034B
:102FA0008093F0029093F102A093F202B093F302A7
:102FB0008AE590E090932D0380932C0380E090E0CD
:102FC00060E070E044E050E022EC30E005E010E02A
:102FD000B3EAEB2EF12CA2E3CA2ED12CAA24BB24F7
:102FE000B9C060E070E00E949A0EAC014C5E5F4F89
:102FF00080E090E060E070E022E830E008E710E078
:103000000E94173810922D0310922C030E94BC329C
:1030100080E090E00E94350EAC014C5E5F4F80E096
:1030200090E060E070E02AE030E00E94173884E130
:1030300090E090932D0380932C038CE090E065E06A
:1030400070E04BEF5FEF23E030E00EE010E0EE24A5
:10305000FF24F2E3CF2ED12CECE3AE2EB12C0E9454
:10306000903E8AE090E065E070E04DED5FEF25E096
:1030700030E0AA24BB240E94903E82EE9FEF66EAD5
:103080007FEF46EF5FEF2DE230E000E010E00E94BE
:10309000224380EB9FEF90932D0380932C038CE0D1
:1030A00090E063E070E045E050E023E030E00EE0C7
:1030B00010E0B8E2CB2ED12C0E94903E8DE090E043
:1030C00063E070E048EE53E025E030E00E94903E7F
:1030D0008AE090E063E070E041E150E023E030E01E
:1030E0000E94903E80E090E06AE070E046EF5FEF83
:1030F00028E230E00EEC1FEFAEE1EA2EF12C0E9448
:10310000B14880E090E0DC0180930A0390930B03C8
:10311000A0930C03B0930D038093F0029093F102FF
:10312000A093F202B093F3028AE590E090932D030E
:1031300080932C0380E090E060E070E044E050E099
:1031400022EC30E005E010E0F3EAEF2EF12CE2E3B0
:10315000CE2ED12C0E945C5010922D0310922C0385
:103160008FEF9FEF9093DB028093DA02DF91CF9194
:103170001F910F91FF90EF90DF90CF90BF90AF9095
:1031800008956F927F928F929F92AF92BF92CF924B
:10319000DF92EF92FF920F931F93CF93DF935C0127
:1031A000EB010E941E0E7C018091A6039091A70363
:1031B0008E159F05A9F0C501B7010E94540FAC01FF
:1031C00080E090E060E070E026E930E002E810E0A6
:1031D0000E9417380E942B02F092A703E092A603E8
:1031E000FE01EE0FFF1FE653FD4F808191811816FF
:1031F00019060CF079C00BE2602E02E0702EF3018C
:1032000009958AE090E060E070E044E150E02EE152
:1032100030E008E210E00E9462548091A603909191
:10322000A703029614E0812E912CB4010E94F65E51
:10323000BC01CE010E94540FAC0180E090E069E136
:1032400070E02EE130E008ED1FEFB0E5EB2EF12C41
:10325000A2E8CA2ED12C0E9426458091A603909107
:10326000A7030296B4010E94F65E2AE530E0AC01A5
:10327000429FC001439F900D529F900D11240E94C8
:10328000350E9C01B901882777FD8095982F0E9403
:10329000945944E150E00E945147F30109958AE0B6
:1032A00090E060E070E046E150E02EE130E00CE8B4
:1032B00010E00E94625480E090E06AEE7FEF40E010
:1032C00050E02EE130E00E941738F301099580911B
:1032D000A6039091A7030296B4010E94F65E909314
:1032E000A7038093A60347C0CE010E9427154C0177
:1032F000E816F90641F18AE090E060E070E04FE006
:1033000050E02EE130E008E210E00E946254C50176
:10331000B4010E94540FAC0180E090E06EE170E0D7
:103320002EE130E008ED1FEFF6E9EF2EF12CE2E898
:10333000CE2ED12C0E9426450E942B029092A703EC
:103340008092A60318C081E090E060E070E048EE53
:1033500053E028E230E002E310E00E9462548AE089
:1033600090E060E070E04EE050E028E230E00EECEB
:103370001FEF0E946254D501AA0FBB1FA653BD4F79
:103380008D919C91119790935B0380935A03FE015A
:10339000EE0FFF1FE653FD4F2081318111963C93C4
:1033A0002E9391838083D0938D06C0938C06DF91FA
:1033B000CF911F910F91FF90EF90DF90CF90BF9032
:1033C000AF909F908F907F906F9008956F927F92B3
:1033D0008F929F92AF92BF92CF92DF92EF92FF9225
:1033E0000F931F93DF93CF9300D000D0CDB7DEB7FC
:1033F0008C017B0119821A821B821C8288EA97E069
:103400006FEF7FEF40E150E00E943C58AE2DBF2DA2
:1034100040E050E020E030E04E010894811C911C17
:1034200073E0000F111F7A95E1F70E5F1F4F62E303
:10343000C62E63E0D62EC00ED11E9EE0A92E96E0C9
:10344000B92EA00EB11E8D919D91181619064CF043
:10345000FA01EE0FFF1FE80DF91D318320834F5F46
:103460005F4F8601B50181E090E0F80161907190B5
:103470008F0177FC07C0F301EE0FFF1FE855F84FEF
:1034800091838083FB0161907190BF0177FC07C03D
:10349000F301EE0FFF1FE055F84F918380830196F3
:1034A0008430910511F72F5F3F4F2830310559F6D1
:1034B00000E010E00DC020914C0630914D0637C061
:1034C0000F5F1F4F0931110519F42FEF3FEF2FC088
:1034D00010928B0610928A061093B9070093B807D2
:1034E00069817A818FEF9FEF40E050E097010E9461
:1034F000800780918A0690918B060097E1F61092E2
:103500008B0610928A061093B9070093B8076B8157
:103510007C818FEF9FEF40E050E097010E94800791
:1035200080918A0690918B06009751F2C4CFC90111
:103530000F900F900F900F90CF91DF911F910F91EF
:10354000FF90EF90DF90CF90BF90AF909F908F90C3
:103550007F906F900895EF92FF920F931F93CF93F8
:10356000DF937C01EB010E94BC3285E690E063E0D2
:1035700070E00E941033009709F461C003E010E08E
:1035800080E062E10E9442578823D1F30E94BC553B
:1035900080E063E10E9442578823D1F380E090E00D
:1035A000FC01EE0FFF1F9C0163E0220F331F6A95A1
:1035B000E1F7E20FF31FE15DF74F20813181211523
:1035C0003105A1F1228133812E193F0937FF03C054
:1035D000309521953F4F2931310544F5FC01EE0F1F
:1035E000FF1F9C0143E0220F331F4A95E1F7E20FD2
:1035F000F31FE15DF74F248135812C1B3D0B37FF15
:1036000003C0309521953F4F2F3031057CF4FC01EC
:10361000EE0FFF1FA3E0880F991FAA95E1F7E80FAF
:10362000F91FE15DF74F208131810BC00196893090
:10363000910509F0B5CF0150104009F0A1CF20E06D
:1036400030E0C901DF91CF911F910F91FF90EF9072
:1036500008954F925F926F927F928F929F92AF9256
:10366000BF92CF92DF92EF92FF920F931F93CF936F
:10367000DF932C0181E090E09093DB028093DA02EB
:103680008FEF9FEF90938D0680938C060F2EF0E0C6
:103690006F2EF0E07F2EF0E08F2EF0E09F2EF02DC9
:1036A00060920A0370920B0380920C0390920D03B8
:1036B0006092F0027092F1028092F2029092F30214
:1036C000CAE5D0E0D0932D03C0932C0380E090E0B6
:1036D00060E070E044E050E022EC30E005E010E013
:1036E000F3EAEF2EF12CE2E3CE2ED12CAA24BB2458
:1036F0000E945C5010922D0310922C0380E090E009
:1037000068EE73E040E050E020E030E002E310E0DB
:10371000BCE3EB2EF12C0E94FA3BD0932D03C09317
:103720002C0386E190E066EA7FEF44E150E02DE271
:1037300030E000E010E00E94224384E190E09093AA
:103740002D0380932C0384E090E06BE070E04FE069
:1037500050E020E030E00AEB1FEFA2E3EA2EF12C6C
:10376000CC24DD240E949E4B84E090E06BE070E06E
:103770004FE050E024E130E008E11CEF0E949E4B56
:1037800080E090E064EF7FEF4CEE5FEF22E330E00B
:1037900004EC1FEFF4E1EF2EF12C0E94B14860928F
:1037A0000A0370920B0380920C0390920D036092B7
:1037B000F0027092F1028092F2029092F302D093A2
:1037C0002D03C0932C0380E090E060E070E044E0C3
:1037D00050E022EC30E005E010E0E3EAEE2EF12CC0
:1037E000B2E3CB2ED12C0E945C5010922D0310928C
:1037F0002C030E94BC324114510451F082ED90E040
:103800006CE570E00E94AB1A9093D1028093D002D5
:103810008FEF9FEF6AE270E046E450E02EE130E087
:103820000CE810E00E9486418CEE9FEF90932D03F0
:1038300080932C0385E090E069E070E04DE050E07B
:1038400024E130E008E11CEFA8E2EA2EF12CF2E3DB
:10385000CF2ED12C0E949E4B80E090E066EF7FEF50
:1038600044E150E028E230E00EEC1FEF0E94864178
:103870000F2EF0E06F2EF0E07F2EF0E08F2EF0E0C4
:103880009F2EF02D60920A0370920B0380920C031E
:1038900090920D036092F0027092F1028092F20217
:1038A0009092F302CAE5D0E0D0932D03C0932C038D
:1038B00080E090E060E070E044E050E022EC30E036
:1038C00005E010E0E3EAEE2EF12CAA24BB240E94CE
:1038D0005C5010922D0310922C034114510409F4F2
:1038E0009EC060E070E080E291EC44E150E00E9414
:1038F00051478BE790E06FE070E00E94AB1A909325
:10390000CB028093CA028CE890E069E270E00E94EA
:10391000AB1A9093CD028093CC0280EC90E065E6E8
:1039200070E00E94AB1A9093CF028093CE0260E0C9
:1039300070E080EA91E444E150E00E94514782E85F
:1039400090E06DE070E00E94AB1A9093D3028093F8
:10395000D2028FE790E069E270E00E94AB1A909388
:10396000D5028093D4028BE590E06AE670E00E9475
:10397000AB1A9093D7028093D60260E070E080E2A9
:1039800091EC44E150E00E9451470E94BC3280E03B
:1039900090E062E070E040E050E02AE030E008E7CC
:1039A00010E00E94173860920A0370920B03809215
:1039B0000C0390920D036092F0027092F1028092DB
:1039C000F2029092F302D0932D03C0932C0380E077
:1039D00090E060E070E044E050E022EC30E005E090
:1039E00010E00E945C5010922D0310922C038CE08A
:1039F00090E09093D9028093D802EAECF2E0219112
:103A000031918091D8029091D902821B930B9093AF
:103A1000D9028093D80282E0E83DF80781F70E943E
:103A2000D801ADB7BEB71C970FB6F894BEBF0FBE96
:103A3000ADBFEDB7FEB73196C7EBD8E01296DC9379
:103A4000CE9311970FE311E0138302838091CA0292
:103A50009091CB02958384838091CC029091CD028A
:103A6000978386838091CE029091CF029187808741
:103A70008091D0029091D102938782870E944A5808
:103A80008DB79EB70C960FB6F8949EBF0FBE8DBF34
:103A900080E060E0AE010E946701ADB7BEB71C9741
:103AA0000FB6F894BEBF0FBEADBFEDB7FEB73196EF
:103AB0001296DC93CE931197138302838091D202E6
:103AC0009091D302958384838091D4029091D50202
:103AD000978386838091D6029091D70291878087C1
:103AE0008091D8029091D902938782870E944A5888
:103AF0008DB79EB70C960FB6F8949EBF0FBE8DBFC4
:103B000081E060E0AE010E946701809186029091A1
:103B10008702009731F00E94BC32B59BFECFB59969
:103B2000FECF0E94BC32DF91CF911F910F91FF9089
:103B3000EF90DF90CF90BF90AF909F908F907F904D
:103B40006F905F904F9008952F923F924F925F92A7
:103B50006F927F928F929F92AF92BF92CF92DF929D
:103B6000EF92FF920F931F93DF93CF9300D0CDB7C7
:103B7000DEB70E94E7008EE161E00E94B1008EE1B5
:103B800065E00E94B1008EE164E10E94B1008EE127
:103B900060E10E94B1000E9428578BE00E946057AC
:103BA00084E10E94FE3280E063E10E944257882354
:103BB000D1F30FEF1FE726E1015010402040E1F75D
:103BC00000C0000080E090E0DC0180930C0890933E
:103BD0000D08A0930E08B0930F0820910C083091A7
:103BE0000D0840910E0850910F082093080830935B
:103BF000090840930A0850930B0820910808309157
:103C0000090840910A0850910B082093040830934A
:103C1000050840930608509307088093180890936E
:103C20001908A0931A08B0931B0880911808909166
:103C30001908A0911A08B0911B088093140890935A
:103C40001508A0931608B0931708C39A2FEF3FE703
:103C500044E0215030404040E1F700C00000C398EC
:103C6000B49914C080918602909187020197909335
:103C7000870280938602C39A4FEF5FE764E041506A
:103C800050406040E1F700C00000C398B69914C0EE
:103C9000809186029091870201969093870280938B
:103CA0008602C39A6FEF7FE784E0615070408040E6
:103CB000E1F700C00000C398B599D4C60E94D801AE
:103CC000C39A8FEF9FE7A4E081509040A040E1F7B6
:103CD00000C00000C398809186029091870297FDF2
:103CE000C1C6823091052CF08230910509F0BAC628
:103CF0000CC20F2EF0E06F2EF0E07F2EF0E08F2E42
:103D0000F0E09F2EF02D60920A0370920B038092D8
:103D10000C0390920D036092F0027092F102809277
:103D2000F2029092F302AAE54A2E512C50922D03F2
:103D300040922C0380E090E060E070E044E050E0CE
:103D400022EC30E005E010E0F3EAEF2EF12CE2E3A4
:103D5000CE2ED12CAA24BB240E945C5010922D039D
:103D600010922C030E94BC3260920C0870920D08D5
:103D700080920E0890920F0880910C0890910D0887
:103D8000A0910E08B0910F0880930808909309083D
:103D9000A0930A08B0930B08809108089091090835
:103DA000A0910A08B0910B0880930408909305082D
:103DB000A0930608B093070860921808709219083B
:103DC00080921A0890921B08809118089091190807
:103DD000A0911A08B0911B088093140890931508BD
:103DE000A0931608B093170888E290E06DE470E0A5
:103DF0000E94AB1A9093A5028093A4028EEC90E0EF
:103E00006DE470E00E94AB1A9093A7028093A60223
:103E100060E070E080E292EC4CE350E00E94514799
:103E20000E94BC328BE890E067E270E00E94AB1A1F
:103E30009093A9028093A80260E070E080EA92E487
:103E40004CE350E00E94514788E290E090932D03AC
:103E500080932C030E94BC3285E690E062E370E020
:103E60000E94AB1A9093A3028093A20285EB9FEF6E
:103E70006AE070E048ED5FEF22E330E000EA10E036
:103E80000E94864110922D0310922C0360920A0327
:103E900070920B0380920C0390920D036092F002DB
:103EA0007092F1028092F2029092F30280E090E030
:103EB00060E070E041E050E028EA30E003E010E02C
:103EC000B4E8EB2EF12CA4E1CA2ED12C0E945C5058
:103ED0000E94BC3250922D0340922C038EE190E060
:103EE0006AE570E040E050E02DE230E007E310E0EA
:103EF0000E94224310922D0310922C0380E090E048
:103F00006EE070E042E150E020E030E00CE310E0D1
:103F1000F2E3EF2EF12CCC24DD240E949E4B80E0B6
:103F200090E06EE070E042E150E020E030E002E33B
:103F300010E00E949E4B8FEF9FEF9093BB01809308
:103F4000BA018091DC029091DD028130910519F473
:103F500088E090E009C08091DC029091DD0282301F
:103F6000910531F489E090E09093BB018093BA0110
:103F700080E090E060E070E048EE53E020E030E068
:103F800002E310E0EE24FF240E94FA3B8EE090E072
:103F90006AE570E040E050E028E230E000E010E048
:103FA0000E9422438BEF9FEF60E070E040E050E022
:103FB00028E230E00EEC1FEF0E9417380F2EF0E0E1
:103FC0006F2EF0E07F2EF0E08F2EF0E09F2EF02D90
:103FD00060920A0370920B0380920C0390920D037F
:103FE0006092F0027092F1028092F2029092F302DB
:103FF00080E090E060E070E041E050E028EA30E0EE
:1040000003E010E0E4E8EE2EF12CBEE1CB2ED12C43
:10401000AA24BB240E945C500E94BC3280E090E045
:1040200064E670E040E050E020E030E00AE010E0BC
:10403000A8E7EA2EF12C0E94FA3B0E94BC328CE7E2
:1040400090E068E870E00E94AB1A9093AB02809316
:10405000AA0280E090E060E070E046EA5FEF22E8CC
:1040600030E008E710E00E94173860920A0370926F
:104070000B0380920C0390920D036092F0027092F9
:10408000F1028092F2029092F3028AE590E090931E
:104090002D0380932C0380E090E060E070E044E02A
:1040A00050E022EC30E005E010E0F3EAEF2EF12CD6
:1040B000E2E3CE2ED12C0E945C5010922D03109280
:1040C0002C030E94BC320E942B020E94BC328CE75F
:1040D00090E068E870E00E94AB1A9093B50280937C
:1040E000B40280E890E065E370E00E94AB1A909320
:1040F000B7028093B60283E890E069E170E00E9425
:10410000AB1A9093B9028093B8028EEC9FEF60E0F7
:1041100070E040E050E028E230E006E910E00E9464
:10412000173880E090E0DC0180930A0390930B0342
:10413000A0930C03B0930D038093F0029093F102CF
:10414000A093F202B093F302BAE58B2E912C9092D9
:104150002D0380922C0382E090E066ED70E044E055
:1041600050E022EC30E005E010E0A3EAEA2EF12C6A
:10417000F2E3CF2ED12CEEE1AE2EB12C0E945C509A
:1041800010922D0310922C0380E090E064E670E022
:1041900040E050E020E030E00AE010E0B8E7EB2E2D
:1041A000F12C0E94FA3B0E94BC328CE790E068E858
:1041B00070E00E94AB1A9093AD028093AC0280E84D
:1041C00090E065E370E00E94AB1A9093AF02809399
:1041D000AE0283E890E069E170E00E94AB1A909330
:1041E000B1028093B00290922D0380922C0380E163
:1041F00090E06AE570E040E050E028E230E002E361
:1042000010E00E94224310922D0310922C038CE0A8
:1042100090E061E070E045E050E023E030E00EE146
:1042200010E0EE24FF24AA24BB240E94903E8AE0E2
:1042300090E061E070E048E250E025E030E00E946C
:10424000903E8DE090E061E070E048EE53E025E0C4
:1042500030E00E94903E87E290E066EA7FEF46E41D
:1042600050E02DE230E000E010E00E9422438CEEAE
:104270009FEF90932D0380932C0380E090E06CEEF1
:104280007FEF40E050E022E330E00E94173885E005
:1042900090E06EE070E042E150E020E030E004ECBD
:1042A0001FEFA2E3EA2EF12CCC24DD240E949E4BCA
:1042B0008091DC029091DD028130910549F480917A
:1042C000BA019091BB0197FF03C08AE090E00FC054
:1042D0008091DC029091DD028230910561F4809141
:1042E000BA019091BB0197FF06C08BE090E09093DC
:1042F000BB018093BA0185E090E06EE070E042E19E
:1043000050E020E030E002EC1FEFF2E3EF2EF12C62
:10431000CC24DD240E949E4B8BEE9FEF66EA7FEF5C
:1043200046EF5FEF2DE230E000E010E00E94224314
:104330008CE390E090932D0380932C038CE090E02D
:1043400064E070E04BEF5FEF23E030E00EE010E060
:10435000EE24FF24E8E2CE2ED12CAA24BB240E9416
:10436000903E8DE090E064E070E048E15CEF23E097
:1043700030E0B4E1EB2EF12C0E94903E8AE090E018
:1043800064E070E047EF5FEF25E030E0EE24FF24CB
:104390000E94903E80E090E066EF7FEF4EE150E0BB
:1043A00028E230E00EEC1FEFA8E2EA2EF12C0E948A
:1043B000B14880E090E0DC0180930A0390930B0306
:1043C000A0930C03B0930D038093F0029093F1023D
:1043D000A093F202B093F3028AE590E090932D034C
:1043E00080932C0380E090E060E070E044E050E0D7
:1043F00022EC30E005E010E0F3EAEF2EF12CE2E3EE
:10440000CE2ED12C0E945C5010922D0310922C03C2
:104410000E94BC32E091BA01F091BB01EE0FFF1F88
:10442000E657FD4F84E090E09183808386E090E042
:104430009093B3028093B202EAEAF2E080E090E067
:104440008430910561F02091B2023091B302408135
:104450005181241B350B3093B3022093B202019695
:1044600032968830910561F70E94D801ADB7BEB78A
:104470001C970FB6F894BEBF0FBEADBFEDB7FEB729
:10448000319687EB882E88E0982E12969C928E9219
:1044900011970FE311E0138302838091AA02909198
:1044A000AB02958384838091AC029091AD02978397
:1044B00086838091AE029091AF0291878087809130
:1044C000B0029091B102938782870E944A582DB71B
:1044D0003EB7245F3F4F0FB6F8943EBF0FBE2DBFCF
:1044E00080E060E0A4010E9467014DB75EB74C50C8
:1044F00050400FB6F8945EBF0FBE4DBFEDB7FEB78C
:104500003196ADB7BEB712969C928E9211971383D7
:1045100002838091B2029091B3029583848380914B
:10452000B4029091B502978386838091B6029091F0
:10453000B702918780878091B8029091B9029387E2
:1045400082870E944A58EDB7FEB73C960FB6F894A2
:10455000FEBF0FBEEDBF81E060E0A4010E946701D5
:104560008091860290918702009731F00E94BC32C0
:10457000B59BFECFB599FECF0E94D8010DB71EB7EF
:104580000C5010400FB6F8941EBF0FBE0DBFEDB714
:10459000FEB7319607EB802E08E0902EADB7BEB780
:1045A00012969C928E9211970FE311E0138302836F
:1045B00080919A0290919B029583848380919C02C2
:1045C00090919D029783868380919E0290919F0295
:1045D000918780878091A0029091A1029387828722
:1045E0000E944A582DB73EB7245F3F4F0FB6F8944C
:1045F0003EBF0FBE2DBF80E060E0A4010E946701B6
:104600004DB75EB74C5050400FB6F8945EBF0FBE2A
:104610004DBFEDB7FEB73196ADB7BEB712969C92BF
:104620008E921197138302838091A2029091A3022C
:10463000958384838091A4029091A50297838683B9
:104640008091A6029091A702918780878091A8020D
:104650009091A902938782870E944A58EDB7FEB7CE
:104660003C960FB6F894FEBF0FBEEDBF81E060E050
:10467000A4010E94670180918602909187020097B1
:1046800031F00E94BC32B59BFECFB599FECF81E0E0
:1046900090E00E94291B80918602909187020097EA
:1046A00059F418EAE12E16E0F12EBAE8CB2EB2E06A
:1046B000DB2E00E010E007C00E94BC32B59BFECFAD
:1046C000B599FECFEECFC801B7010E94A106D60171
:1046D000ED91FD916D01EE0FFF1FEA57FC4F118325
:1046E00000830F5F1F4FE0E1F0E0EE0EFF1E003190
:1046F000110549F7F4ECEF2EF7E0FF2E00E010E093
:10470000C801B7010E940E070F5F1F4FE8E08E2E11
:10471000912CE80CF91C0830110591F7E090BA01D2
:104720000091BB01AAE9B2E020E030E088E090E02F
:104730004FEF5FEF6D917D91FC01E370F07064309D
:10474000710549F4EE0FFF1FE45AFC4F518340837B
:10475000E82E092F0FC0EE0FFF1FE45AFC4F3183E4
:104760002083F901EE0FFF1FE855FC4F91838083F2
:104770002F5F3F4F01968C309105E1F6E092BA0130
:104780000093BB010E94BC3201E010E01093C3070C
:104790000093C20781E090E060E070E04AE852E0F8
:1047A0000E94C30B80918A0690918B06009729F492
:1047B0000F5F1F4F0530110549F70E94BC32C39AA5
:1047C0000FEF1FEF2CE2015010402040E1F700C036
:1047D0000000C398EE24FF242CC188EA97E06FEF15
:1047E0007FEF40E150E00E943C58C70173E0880F22
:1047F000991F7A95E1F70296DC01AE5CBC4F9C01F3
:10480000225F394F81E090E0ED91FD91F7FD0DC001
:10481000EE0FFF1FE855FC4F0190F081E02DEE0FE9
:10482000FF1FE855F84F91838083F9014191519121
:104830009F0157FD07C0FA01EE0FFF1FE055F84F2B
:1048400091838083019684309105F1F6C7016AEC6B
:1048500072E00E94E6198091B8079091B90700971D
:1048600009F461C08091DA029091DB02FFEF8F3F83
:104870009F0721F480E090E00E94291B0E94D8014C
:1048800000D000D000D0EDB7FEB7319627EB822ED6
:1048900028E0922EADB7BEB712969C928E921197D9
:1048A0000BE411E0138302838091D0059091D10530
:1048B000958384830E944A582DB73EB72A5F3F4FA5
:1048C0000FB6F8943EBF0FBE2DBF81E061E0A4019A
:1048D0000E9467018091860290918702009731F0D3
:1048E0000E94BC32B59BFECFB599FECF8091D0051A
:1048F0009091D1050E94320400ED15E0CC24DD2416
:104900000BC0D8018D919D918D010894C11CD11CC3
:104910006D917C910E94C1188091B8079091B90760
:10492000C816D90674F38091DA029091DB028130C7
:10493000910531F480918C0690918D060E94980F1C
:104940006701CC0CDD1CCE0CDF1CCC0CDD1CEEE2B8
:10495000F6E0CE0EDF1EAA24BB244701880C991C6A
:10496000880C991C9A82898227010894411C511C49
:10497000440C551C440C551CD6016D907D906D0166
:10498000E981FA81E60DF71DEE0FFF1FEA57FC4F94
:1049900080809180F201E60DF71DEE0FFF1FEA57B0
:1049A000FC4F20803180A114B104A9F4E114F1047A
:1049B00011F4C40109C0E2EAF2E08CE090E0219138
:1049C00031912115310519F40E94A60204C0019607
:1049D00080319105A1F70E94D80120918C06309179
:1049E0008D0680E090E063E070E040E050E08401FC
:1049F0000E947A15E981FA81E60DF71DEE0FFF1F7F
:104A0000E25FF94F6081718181E090E041E050E028
:104A1000940181010E947A150894A11CB11CB3E095
:104A2000AB16B10409F0A8CF0894E11CF11C0E9458
:104A30001C168091C2079091C307E816F9060CF482
:104A4000CCCE0E94BC32C39A0FEF1FEF2CE2015074
:104A500010402040E1F700C00000C398B599FECF98
:104A6000B59BFECF8091860290918702009709F452
:104A700047C04091FC023091FB022091FA029091D4
:104A80000203809101036DB77EB76E5070400FB680
:104A9000F8947EBF0FBE6DBFEDB7FEB7319667EBE2
:104AA000862E68E0962EADB7BEB712969C928E9277
:104AB000119709E511E0138302834483158236833D
:104AC00017822087118692871386848715860E9415
:104AD0004A582DB73EB7225F3F4F0FB6F8943EBFFE
:104AE0000FBE2DBF80E060E0A4010E9467013091FD
:104AF000FD022091FE029091FF028091000346C0CA
:104B00004091100330910F0320910E0390911603F2
:104B1000809115036DB77EB76E5070400FB6F89454
:104B20007EBF0FBE6DBFEDB7FEB7319657EB852E3A
:104B300058E0952EADB7BEB712969C928E92119703
:104B400009E511E0138302834483158236831782BB
:104B50002087118692871386848715860E944A587B
:104B60002DB73EB7225F3F4F0FB6F8943EBF0FBE42
:104B70002DBF80E060E0A4010E9467013091110325
:104B80002091120390911303809114034DB75EB7E7
:104B90004C5050400FB6F8945EBF0FBE4DBFEDB7FE
:104BA000FEB73196ADB7BEB712969C928E92119712
:104BB00002E7802E01E0902E938282823483158258
:104BC0002683178290871186828713860E944A580F
:104BD0000DB71EB7045F1F4F0FB6F8941EBF0FBE70
:104BE0000DBF81E060E047EB58E00E9467018091D3
:104BF00086029091870297FF03C0909581959F4F01
:104C000069E070E00E94F65E9093890280938802CA
:104C10000E94642A8091880266E60E944257C82E4C
:104C20008091880267E60E944257E82E0091880230
:104C3000A0908902802F68E60E9442572DB73EB7A8
:104C40002C5030400FB6F8943EBF0FBE2DBFEDB7CD
:104C5000FEB7319617EB812E18E0912EADB7BEB797
:104C600012969C928E9211972AE831E03383228328
:104C70000483A582C6821782E08611868287138606
:104C80000E944A584DB75EB7445F5F4F0FB6F89425
:104C90005EBF0FBE4DBF82E060E0A4010E946701CD
:104CA000E0912508F09126084091270850912808A6
:104CB00020912308309124086090DD087090DE0870
:104CC000E090B108F090B208C0902D08D0902E0866
:104CD000A0902108B09022086091140870911508E6
:104CE0008091160890911708ADB7BEB754970FB6CC
:104CF000F894BEBF0FBEADBF0DB71EB70F5F1F4FFD
:104D000012969C928E921197BDE98B2EB1E09B2E4C
:104D1000D80113969C928E9212971596FC93EE935F
:104D2000149717965C934E93169719963C932E936F
:104D300018971B967C926E921A971D96FC92EE9293
:104D40001C971F96DC92CE921E975196BC92AE9203
:104D500050970E946159D80153967C936E93529755
:104D60000E944A58EDB7FEB774960FB6F894FEBF8E
:104D70000FBEEDBF83E060E047EB58E00E946701A3
:104D800000D000D000D0EDB7FEB73196A7EB8A2E49
:104D9000A8E09A2EADB7BEB712969C928E9211974C
:104DA00003EB11E0138302838091860290918702C6
:104DB000958384830E944A582DB73EB72A5F3F4FA0
:104DC0000FB6F8943EBF0FBE2DBF83E060E1A40193
:104DD0000E9467010C94301E90E0FC01B096FE2FFB
:104DE000EE27208120931C0820FDFBCF8896B82F4A
:104DF000AA278C91908190931C0890FDFBCF089579
:104E000090E08096F82FEE27808180931C0880FD2B
:104E1000FBCF6083808180931C0880FDFBCF0895C9
:104E200080E061E00E94002782E061E00E940027AC
:104E300081E061E00E9400270895A82FB0E0FD0105
:104E4000B096FE2FEE27808180931C0880FDFBCF5B
:104E50009896BA2FAA27872F992787FD9A958C9322
:104E6000808180931C0880FDFBCF6C9380818093B0
:104E70001C0880FDFBCF08951F93CF93DF93182F5D
:104E800080E06FE10E940027C1E0D0E002C0CC0FBB
:104E9000DD1F1A95E2F780E0BE010E941D2781E028
:104EA0006FE10E94002781E0BE010E941D2782E081
:104EB0006FE10E94002782E0BE010E941D2780E072
:104EC00061E00E94002782E061E00E94002781E00B
:104ED00061E00E940027DF91CF911F910895DF923A
:104EE000EF92FF920F931F93D82E7A018B019B01B3
:104EF000552737FD5095452FB9010E941D278D2D4F
:104F0000B7010E941D271F910F91FF90EF90DF9036
:104F100008951F93182F60E00E9400278CEC9CE1FD
:104F20000197F1F700C00000812F6DE10E9400277A
:104F3000812F60E070E00E941D271F910895AF92BD
:104F4000BF92CF92DF92EF92FF920F931F93CF9376
:104F5000DF93F82E6B01EA018901AA24A39461155D
:104F6000710509F4AA24BB24B394209709F4BB2447
:104F7000EE24E3940115110509F4EE248F2D6EE162
:104F80000E9400276B2D70E0660F771F660F771F5A
:104F90008A2D90E043E0880F991F4A95E1F7682B2E
:104FA000792B8E2D90E0880F991F682B792B8F2DF0
:104FB0000E941D27AA2021F08F2DB6010E941D27D7
:104FC000BB2021F08F2DBE010E941D27EE2021F075
:104FD0008F2DB8010E941D278F2D64E00E940027AD
:104FE000DF91CF911F910F91FF90EF90DF90CF90C5
:104FF000BF90AF9008958F929F92AF92BF92CF9241
:10500000DF92EF92FF920F931F93CF93DF93F82ECF
:105010004B016A01E901AA24A3946115710509F401
:10502000AA24BB24B394C114D10409F4BB24EE24F4
:10503000E394209709F4EE248F2D6EE10E9400275F
:105040006A2D70E0A3E0660F771FAA95E1F7616013
:105050008B2D90E0880F991F880F991F682B792B53
:105060008E2D90E0880F991F682B792B8F2D0E9431
:105070001D27AA2021F08F2DB4010E941D27BB20DF
:1050800021F08F2DB6010E941D27EE2021F08F2DDB
:10509000BE010E941D278F2DB8010E941D278F2D54
:1050A00064E00E940027DF91CF911F910F91FF9044
:1050B000EF90DF90CF90BF90AF909F908F9008952A
:1050C000DF92EF92FF920F931F93D82E7A018B01FC
:1050D0006FE10E9400278D2D60E270E00E941D2785
:1050E0008D2DB801A7010E946F271F910F91FF908E
:1050F000EF90DF90089580E060E170E040E050E0E4
:1051000020E430E00E949F2781E060E170E040E011
:1051100050E020E430E00E949F2782E060E170E0F0
:1051200040E050E020E430E00E949F2780E04FEF15
:105130005FEF6FEF7FE30E94602881E04FEF5FEF4A
:105140006FEF7FE30E94602882E04FEF5FEF6FEF29
:105150007FE30E9460280895DF92EF92FF920F9301
:105160001F93DF93CF930F92CDB7DEB7D82E7A017E
:105170008B0177FF0AC010950095F094E094E11C34
:10518000F11C011D111D90E001C091E08D2D6FE11A
:1051900099830E9400279981792F7295707F60E032
:1051A000686078608D2D0E941D278D2DB801A701A4
:1051B0000E946F270F90CF91DF911F910F91FF9069
:1051C000EF90DF900895AF92BF92CF92DF92EF926F
:1051D000FF920F931F93DF93CF93CDB7DEB72C973A
:1051E0000FB6F894DEBF0FBECDBF59016A010E9411
:1051F000945969837A838B839C83C601B5010E948D
:1052000094596D837E838F839887C801B7010E946C
:10521000945969877A878B879C878E010F5F1F4F10
:10522000EE24F801608171818281938121E73CEA5B
:105230004BE85EE30E94585B9B01AC01F8012193AF
:105240003193419351938F0120E030E040E857E4DF
:105250000E94585B0E946159AB01BC018E2D0E94D7
:10526000AC28E394FE2DF330E1F60E9410272C9633
:105270000FB6F894DEBF0FBECDBFCF91DF911F9167
:105280000F91FF90EF90DF90CF90BF90AF90089577
:105290004F925F926F927F928F929F92AF92BF9246
:1052A000CF92DF92EF92FF920F931F93982E862E4C
:1052B00029013A016FE10E940027682D70E06A62BF
:1052C000892D0E941D27892DB301A2010E946F27FD
:1052D000892DB801A7010E946F27892DB601A5016C
:1052E0000E946F271F910F91FF90EF90DF90CF905A
:1052F000BF90AF909F908F907F906F905F904F90F6
:1053000008959F92AF92BF92CF92DF92EF92FF9259
:105310000F931F93DF93CF9300D00F92CDB7DEB7DB
:105320001ABA15BA8FEF84BB1092650083E08093A0
:10533000640010E8A12EB4E8BB2E6E010894C11CD5
:10534000D11C85B3856085BB83E39BE20197F1F7B0
:1053500085B38A7F85BBECECFCE13197F1F700C0A7
:105360000000809165008D7F80936500AB9885B3C8
:10537000887F85BB99B39983A89A19B385B3887F31
:10538000826085BB09B3943C09F494C0943809F455
:1053900091C015BA80E060E044EE51E00E946701E0
:1053A00081E060E04AEE51E00E946701143C09F49C
:1053B00081C0143809F47EC015BA80E060E044EE84
:1053C00051E00E94670182E060E04AEF51E00E94F4
:1053D0006701043C09F46EC0043809F46BC015BAC7
:1053E00080E060E044EE51E00E94670183E060E00D
:1053F0004AE052E029C09E2C9C18892D6DE10E9444
:105400000027892D60E070E00E941D27F80180814F
:10541000F70181937F0100501F4FF3E200301F0717
:1054200051F78981803C99F0803889F085B78F7376
:1054300085BF15BA80E060E04AE152E00E94670152
:1054400081E060E04AEE51E00E9467017ACF80E09F
:1054500060E040E252E00E94670180E098B397600C
:1054600098BB2FEF3FEB46E0215030404040E1F742
:1054700000C0000098B3987F98BB2FEF3FEB46E049
:10548000215030404040E1F700C000008F5F833082
:1054900029F70E94D8010F900F900F90CF91DF91C4
:1054A0001F910F91FF90EF90DF90CF90BF90AF9042
:1054B0009F900895A5BE82E080936D00B0926C002D
:1054C000760100E010E297CF4F925F926F927F9249
:1054D0008F929F92AF92BF92CF92DF92EF92FF9204
:1054E0000F931F93CF93DF9304E6802E912C84E0DB
:1054F0000E947600982F80E0EC0185E00E94760003
:1055000090E08C2B9D2BB4010E94F65E882777FDDE
:105510008095982F0E949459F62E072F182FE92E68
:10552000462E572E682E792E63015201E894D7F843
:10553000C601B50120E030E044E353E40E94BD5AC7
:105540001816ACF260911008709111088091120841
:10555000909113082F2D302F412F5E2D0E94F2586D
:10556000882309F4E5C06F2D702F812F9E2D20E038
:1055700030E0A9010E94F25887FF5DC060911008D9
:1055800070911108809112089091130820E030E08A
:10559000A9010E94BD5A18160CF04DC020911008A8
:1055A0003091110840911208509113085F77C6019D
:1055B000B5010E947B5820E030E044E353E40E94B0
:1055C000F25887FF15C0A0901408B0901508C0903D
:1055D0001608D090170820911008309111084091BA
:1055E0001208509113086F2D702F812F9E2D1CC013
:1055F000A0901408B0901508C0901608D090170815
:105600006091100870911108809112089091130810
:105610002F2D302F412F5E2D0E947A589B01AC0117
:1056200060E070E084EB93E40E947A589B01AC0147
:10563000C601B50169C0C301B20120E030E0A90193
:105640000E94BD5A18160CF047C060911008709166
:105650001108809112089091130820E030E0A90110
:105660000E94F25887FF38C020911008309111082D
:1056700040911208509113085F77C601B5010E944E
:105680007B5820E030E044E353E40E94F25887FD69
:1056900023C0E0901408F0901508009116081091AE
:1056A000170820911008309111084091120850916C
:1056B0001308C301B2010E947A589B01AC0160E05B
:1056C00070E084EB93E40E947A589B01AC01C8011E
:1056D000B7010E947A581AC0E0901408F09015089B
:1056E00000911608109117082091100830911108A8
:1056F0004091120850911308C301B2010E947A58D8
:105700009B01AC01C801B7010E947B589B01AC0111
:1057100020931408309315084093160850931708E7
:10572000409210085092110860921208709213086B
:10573000DF91CF911F910F91FF90EF90DF90CF906D
:10574000BF90AF909F908F907F906F905F904F90A1
:1057500008952F923F924F925F926F927F928F9215
:105760009F92AF92BF92CF92DF92EF92FF920F93F0
:105770001F93DF93CF93CDB7DEB762970FB6F89440
:10578000DEBF0FBECDBF69837A838B839C832D835D
:105790003E834F8358873701480160E070E084E31F
:1057A00094E4A60195010E947A58162F072FF82E2F
:1057B000E92E8D819E81AF81B88580931D089093DD
:1057C0001E08A0931F08B093200889819A81AB819D
:1057D000BC818093B3089093B408A093B508B093AC
:1057E000B608A0922908B0922A08C0922B08D0923D
:1057F0002C08C601B50120E030E044E353E40E94E8
:10580000F258181684F0A8019701652F742F832F82
:10581000922F20E030E044EB53E40E947A58162F98
:10582000072FF82EE92EA8019701652F702F832FDF
:105830009E2D20E030E044EB52E40E947A586987C4
:105840007A878B879C87C401B30123EF36E64FE547
:105850005EE30E94585B6D877E878F87988B80E020
:1058600090E036E9432E512C28E6222E21E0322EFC
:105870009A8B898BB201882777FD8095982F0E949B
:1058800094595B016C01C20188589F4FB1010E947D
:10589000F65E2C01C601B501D801F7012B2F302F80
:1058A0004F2F5E2D0E947A5825E33AEF4EE85CE3D5
:1058B0000E94585B0E94F6583B014C01C601B5019D
:1058C000B985AA85AB84DC842B2F3A2F4A2D5D2D18
:1058D0000E947A5825E33AEF4EE85CE30E94585B59
:1058E0000E94F6585B016C016D817E818F819885E5
:1058F000A40193010E94585B3B014C0169817A81AC
:105900008B819C81A60195010E94585B9B01AC0193
:10591000C401B3010E947B58BD85AE85DF84A88891
:105920002B2F3A2F4D2D5A2D0E947A582FE632E117
:1059300043E856E40E94585B23E333E343E250EC30
:105940000E94585B0E946159AB01BC0189890E9489
:10595000AC28A989BA891196BA8BA98BA330B10555
:1059600009F088CF0E9410270E94642A62960FB621
:10597000F894DEBF0FBECDBFCF91DF911F910F9185
:10598000FF90EF90DF90CF90BF90AF909F908F905F
:105990007F906F905F904F903F902F9008952F923F
:1059A0003F924F925F926F927F928F929F92AF92AF
:1059B000BF92CF92DF92EF92FF920F931F93DF93EC
:1059C000CF93CDB7DEB72C970FB6F894DEBF0FBEDE
:1059D000CDBF5B016C0139014A01170128016091BB
:1059E000140870911508809116089091170820915D
:1059F00018083091190840911A0850911B08E0903E
:105A00001408F09015080091160810911708E092FC
:105A10001808F092190800931A0810931B08E090D8
:105A20000C08F0900D0800910E0810910F080E94CC
:105A30007A589B01AC01C801B7010E947A589B01BA
:105A4000AC0120930C0830930D0840930E0850933E
:105A50000F08C601B50120E030E0A9010E94F2580C
:105A6000882351F4C401B30120E030E0A9010E9471
:105A7000F258882309F4D2C0C601B50120E030E015
:105A800048EC52E40E94F95869837A838B839C83A3
:105A9000C401B30120E030E048EC52E40E94F95820
:105AA0006D837E838F83988760910C0870910D08B9
:105AB00080910E0890910F08A20191010E947A58DE
:105AC000F62E072F182FE92E8091040890910508D3
:105AD000A0910608B091070889879A87AB87BC8791
