:100000000C9455000C9474000C9474000C947400BF
:100010000C9474000C9474000C9474000C94740090
:100020000C9474000C9474000C9474000C94740080
:100030000C9474000C9474000C940F170C947400BE
:100040000C9474000C9474000C9453300C94740051
:100050000C9474000C9474000C9474000C94740050
:100060000C9474000C9474000C9474000C94740040
:100070000C9474000C9474000C940A010C94740099
:100080000C9474000C9474000C94740005A84CCD6E
:10009000B2D44EB93836A9020C50B9918688083CC2
:1000A000A6AAAA2ABE000000803F11241FBECFEFDF
:1000B000D0E1DEBFCDBF11E0A0E0B1E0ECE9FFE6AA
:1000C00000E00BBF02C007900D92A83FB107D9F71F
:1000D00013E0A8EFB1E001C01D92AF33B107E1F723
:1000E0000E942B020C94F6300C94000094EA90933A
:1000F00074009091740097FFFCCF9AE09093730086
:1001000094E8909374009091740097FFFCCF8093D3
:10011000730084E8809374008091740087FFFCCFA3
:1001200084E98093740084EA809374008091740061
:1001300087FFFCCF8BE08093730084E8809374008A
:100140008091740087FFFCCF84E8809374008091D5
:10015000740087FFFCCF8091730094E99093740042
:10016000089594EA909374009091740097FFFCCFE7
:100170009AE09093730094E89093740090917400C7
:1001800097FFFCCF8093730084E880937400809184
:10019000740087FFFCCF6093730084E88093740041
:1001A0008091740087FFFCCF84E9809374000895E8
:1001B00010929B0088E980939A0086E080939D00CE
:1001C000109298008FE580939900789408951F937A
:1001D0001FEF1093730081E4809370000E94A808C1
:1001E0000E943F300E94D8000E94A2071FBC85E0F9
:1001F0008EBD1DBD80E78CBD84E087BF78948FE005
:1002000087BB81B3807F81BB84B3806F84BB18BA06
:100210001F9108951F920F920FB60F9211248F9382
:10022000DF93CF930F92CDB7DEB780919C00898387
:1002300080919B00887BE1F381E08093F8018981C4
:100240008093F9010F90CF91DF918F910F900FBEA6
:100250000F901F901895DF93CF930F92CDB7DEB715
:100260008091F90189831092F901F8941092F801B4
:10027000789489810F90CF91DF91089590919B00A0
:1002800095FFFCCF80939C000895CF93DF93E4E724
:10029000F0E094EA9083A1EEB2E01197F1F700004C
:1002A000A3E7B0E09EE09C9394E89083C1EED2E097
:1002B0002197F1F700008C93908381EE92E00197F3
:1002C000F1F7000084E98083DF91CF910895EF92E8
:1002D000FF920F931F93DF93CF9300D0CDB7DEB77C
:1002E000082F162F843070F5643160F58BE1498357
:1002F0005A830E9445018CE40E944501812F0E948F
:100300004501802F0E94450180E791E00197F1F7B8
:1003100000C0E12EFF2449815A81042F152F06C009
:100320000E94450194EC9A95F1F700C0E4E1EE16C5
:10033000F10444F4F80181918F010894E11CF11C4F
:10034000882371F70F900F90CF91DF911F910F913C
:10035000FF90EF9008951F93DF93CF9300D0CDB718
:10036000DEB7182F8430F0F46431E0F48BE12A8397
:1003700069830E9445018CE40E9445016981862FB2
:100380000E944501812F0E94450180E791E001977D
:10039000F1F700C02A81822F0E94450194EC9A95C2
:1003A000F1F700C00F900F90CF91DF911F9108954A
:1003B0008BE10E94450183E40E94450186E696EEAA
:1003C000A0E081509040A040E1F70895EF92FF92A5
:1003D0000F931F93182FF62EE42E842F64E60E94AD
:1003E0009937082F282F30E0205D3F4F442737FDF5
:1003F0004095542F812F6F2D0E94AB018CE9089FEF
:10040000002D11240E0D802F6AE00E949937E82EEE
:100410006F2D6F5F282F30E0205D3F4F442737FD61
:100420004095542F812F0E94AB016F2D6E5F26EFF8
:10043000E29E202D1124200F30E0205D3F4F442705
:1004400037FD4095542F812F0E94AB011F910F91D2
:10045000FF90EF9008952F923F924F925F926F928C
:100460007F928F929F92AF92BF92CF92DF92EF9244
:10047000FF920F931F93DF93CF9300D000D000D053
:10048000CDB7DEB71A8219820E94E7008EE161E0E3
:100490000E94B1008EE165E00E94B1008EE164E14E
:1004A0000E94B1008EE160E10E94B1000E94EA2F3B
:1004B0008DE00E94223080E50E94B21680E063E168
:1004C0000E9404308823D1F3C39A0FEF1FE724E082
:1004D000015010402040E1F700C0000088B3807F49
:1004E00088BB80E090E0DC01809364029093650219
:1004F000A0936602B09367028091640290916502B6
:10050000A0916602B09167028093600290936102AD
:10051000A0936202B09363028091600290916102A5
:10052000A0916202B09163028093580290935902A5
:10053000A0935A02B0935B028091580290915902A5
:10054000A0915A02B0915B0280935402909355029D
:10055000A0935602B0935702809154029091550295
:10056000A0915602B091570280935002909351028D
:10057000A0935202B093530285E0A82E83E0B82ED8
:1005800000E0602E01E0702E19E1412E11E0512EA5
:10059000B9E02B2E312CB49916C08091FA019091BC
:1005A000FB0101979093FB018093FA01C39A2FEF0F
:1005B0003FE744E0215030404040E1F700C00000F8
:1005C00088B3807F88BBB69916C08091FA0190915C
:1005D000FB0101969093FB018093FA01C39A4FEFC0
:1005E0005FE764E0415050406040E1F700C0000028
:1005F00088B3807F88BBB5993DC00E94D801C39A5B
:100600006FEF7FE784E0615070408040E1F700C009
:10061000000088B3807F88BB8091FA019091FB0134
:100620008230910538F580E090E06CE070E040E1C8
:1006300050E020E030E002E310E0A2E3EA2EF12CEB
:10064000FCE3CF2ED12C0E947B2B80E090E068E26F
:1006500070E046EA5FEF28E230E00EEC1FEFE4E6E0
:10066000EE2EF12C0E9439240E947619B59BFECF04
:10067000B599FECF8091FA019091FB01009709F4A2
:100680003FC040911A0230911902209118029091B6
:10069000200280911F02ADB7BEB71E970FB6F89427
:1006A000BEBF0FBEADBFEDB7FEB731961296BC927E
:1006B000AE921197738262824483158236831782C9
:1006C0002087118692871386848715860E94F930C9
:1006D000EDB7FEB73E960FB6F894FEBF0FBEEDBF66
:1006E00080E090E060E070E0A5010E946701309139
:1006F0001B0220911C0290911D0280911E0241C09C
:1007000040912E0230912D0220912C0290913402C2
:10071000809133020DB71EB70E5010400FB6F894FB
:100720001EBF0FBE0DBFEDB7FEB73196ADB7BEB75A
:100730001296BC92AE9211977382628244831582A4
:1007400036831782208711869287138684871586C1
:100750000E94F930EDB7FEB73E960FB6F894FEBF93
:100760000FBEEDBF80E090E060E070E0A5010E9468
:10077000670130912F0220913002909131028091D7
:1007800032020DB71EB70C5010400FB6F8941EBFC2
:100790000FBE0DBFEDB7FEB73196ADB7BEB712961F
:1007A000BC92AE9211975382428234831582268383
:1007B000178290871186828713860E94F930EDB7E1
:1007C000FEB73C960FB6F894FEBF0FBEEDBF81E0BA
:1007D00090E060E070E0A5010E9467018091FA015D
:1007E0009091FB0197FF03C0909581959F4FB101B8
:1007F0000E94A5378093FC019093FD0166E60E945C
:100800000430C82E8091FC0167E60E940430E82E77
:100810000091FC018090FD01802F68E60E94043069
:100820002DB73EB72C5030400FB6F8943EBF0FBEE8
:100830002DBFEDB7FEB73196ADB7BEB71296BC92DD
:10084000AE92119721E331E03383228304838582C2
:10085000C6821782E0861186828713860E94F9304D
:100860004DB75EB7445F5F4F0FB6F8945EBF0FBEE3
:100870004DBF82E090E060E070E0A5010E9467015A
:100880002091710230917202609173027091740232
:100890007C836B8380916F02909170029E838D8325
:1008A000A0912B03B0912C03E090FD02F090FE028A
:1008B000C0907902D0907A0280906D0290906E0282
:1008C0006091600270916102809162029091630276
:1008D000EDB7FEB774970FB6F894FEBF0FBEEDBF2D
:1008E0000DB71EB70F5F1F4FB282A18245E451E0E2
:1008F000F80153834283358324832B813C813783E2
:1009000026834D815E8151874087B387A287F58614
:10091000E486D786C686918A808A0E941032D801E2
:1009200053967C936E9352970E94F930EDB7FEB7C1
:1009300074960FB6F894FEBF0FBEEDBF83E090E053
:1009400060E070E0A5010E94670100D000D000D0F7
:10095000EDB7FEB73196ADB7BEB71296BC92AE9268
:1009600011970CE511E0138302838091FA019091B5
:10097000FB01958384830E94F9302DB73EB72A5F2F
:100980003F4F0FB6F8943EBF0FBE2DBF83E090E0FF
:1009900060E170E0A5010E946701FDCD4F925F927A
:1009A0006F927F928F929F92AF92BF92CF92DF927F
:1009B000EF92FF920F931F93CF93DF9384E6882EDD
:1009C000912C84E00E947600982F80E0EC0185E075
:1009D0000E94760090E08C2B9D2BB4010E94A537DD
:1009E000882777FD8095982F0E944332F62E072F97
:1009F000182FE92E462E572E682E792E63015201AC
:100A0000E894D7F8C601B50120E030E044E353E4B0
:100A10000E946C331816ACF220915C0230915D029A
:100A200040915E0250915F026F2D702F812F9E2D9D
:100A30000E94A131882309F4E5C06F2D702F812F0A
:100A40009E2D20E030E0A9010E94A13187FF5DC00A
:100A500060915C0270915D0280915E0290915F02F4
:100A600020E030E0A9010E946C3318160CF04DC054
:100A700020915C0230915D0240915E0250915F02D4
:100A80005F77C601B5010E942A3120E030E044E3DF
:100A900053E40E94A13187FF15C0A0906002B0907E
:100AA0006102C0906202D090630220915C0230919A
:100AB0005D0240915E0250915F026F2D702F812F79
:100AC0009E2D1CC0A0906002B0906102C090620296
:100AD000D090630260915C0270915D0280915E0231
:100AE00090915F022F2D302F412F5E2D0E942931D2
:100AF0009B01AC0160E070E883EB93E40E94293134
:100B00009B01AC01C601B50169C0C301B20120E07F
:100B100030E0A9010E946C3318160CF047C06091B8
:100B20005C0270915D0280915E0290915F0220E014
:100B300030E0A9010E94A13187FF38C020915C02FA
:100B400030915D0240915E0250915F025F77C60175
:100B5000B5010E942A3120E030E044E353E40E94D2
:100B6000A13187FD23C0E0906002F0906102009106
:100B700062021091630220915C0230915D0240910B
:100B80005E0250915F02C301B2010E9429319B01B4
:100B9000AC0160E070E883EB93E40E9429319B0193
:100BA000AC01C801B7010E9429311AC0E09060026F
:100BB000F0906102009162021091630220915C0248
:100BC00030915D0240915E0250915F02C301B2011B
:100BD0000E9429319B01AC01C801B7010E942A3152
:100BE0009B01AC012093600230936102409362024A
:100BF0005093630240925C0250925D0260925E02EA
:100C000070925F02DF91CF911F910F91FF90EF9053
:100C1000DF90CF90BF90AF909F908F907F906F901C
:100C20005F904F90089590E0FC01B096FE2FEE2764
:100C300020812093680220FDFBCF8896B82FAA2739
:100C40008C9190819093680290FDFBCF089590E085
:100C50008096F82FEE2780818093680280FDFBCF7D
:100C6000608380818093680280FDFBCF089580E0DF
:100C700061E00E94270682E061E00E94270681E091
:100C800061E00E9427060895A82FB0E0FD01B0960C
:100C9000FE2FEE2780818093680280FDFBCF98961F
:100CA000BA2FAA27872F992787FD9A958C93808141
:100CB0008093680280FDFBCF6C93808180936802F3
:100CC00080FDFBCF08951F93CF93DF93182F80E013
:100CD0006FE10E942706C1E0D0E002C0CC0FDD1F0B
:100CE0001A95E2F780E0BE010E94440681E06FE1C0
:100CF0000E94270681E0BE010E94440682E06FE167
:100D00000E94270682E0BE010E94440680E061E066
:100D10000E94270682E061E00E94270681E061E0F0
:100D20000E942706DF91CF911F910895DF92EF92E5
:100D3000FF920F931F93D82E7A018B019B015527A9
:100D400037FD5095452FB9010E9444068D2DB701FE
:100D50000E9444061F910F91FF90EF90DF9008953D
:100D60001F93182F60E00E9427068CEC9CE10197EE
:100D7000F1F700C00000812F6DE10E942706812F4E
:100D800060E070E00E9444061F910895AF92BF9208
:100D9000CF92DF92EF92FF920F931F93CF93DF9347
:100DA000F82E6B01EA018901AA24A394611571054B
:100DB00009F4AA24BB24B394209709F4BB24EE249D
:100DC000E3940115110509F4EE248F2D6EE10E94C4
:100DD00027066B2D70E0660F771F660F771F8A2D31
:100DE00090E043E0880F991F4A95E1F7682B792B33
:100DF0008E2D90E0880F991F682B792B8F2D0E94E4
:100E00004406AA2021F08F2DB6010E944406BB2083
:100E100021F08F2DBE010E944406EE2021F08F2D7F
:100E2000B8010E9444068F2D64E00E942706DF91DE
:100E3000CF911F910F91FF90EF90DF90CF90BF90D7
:100E4000AF9008958F929F92AF92BF92CF92DF9210
:100E5000EF92FF920F931F93CF93DF93F82E4B01E6
:100E60006A01E901AA24A3946115710509F4AA2471
:100E7000BB24B394C114D10409F4BB24EE24E3943D
:100E8000209709F4EE248F2D6EE10E9427066A2D2B
:100E900070E0A3E0660F771FAA95E1F761608B2DE4
:100EA00090E0880F991F880F991F682B792B8E2D42
:100EB00090E0880F991F682B792B8F2D0E94440694
:100EC000AA2021F08F2DB4010E944406BB2021F0FE
:100ED0008F2DB6010E944406EE2021F08F2DBE0119
:100EE0000E9444068F2DB8010E9444068F2D64E0B5
:100EF0000E942706DF91CF911F910F91FF90EF90F5
:100F0000DF90CF90BF90AF909F908F900895DF9229
:100F1000EF92FF920F931F93D82E7A018B016FE10E
:100F20000E9427068D2D60E270E00E9444068D2D00
:100F3000B801A7010E9496061F910F91FF90EF90B4
:100F4000DF90089580E060E170E040E050E020E450
:100F500030E00E94C60681E060E170E040E050E0D1
:100F600020E430E00E94C60682E060E170E040E0EC
:100F700050E020E430E00E94C60680E04FEF5FEFD3
:100F80006FEF7FE30E94870781E04FEF5FEF6FEF26
:100F90007FE30E94870782E04FEF5FEF6FEF7FE311
:100FA0000E9487070895DF92EF92FF920F931F939D
:100FB000DF93CF930F92CDB7DEB7D82E7A018B0196
:100FC00077FF0AC010950095F094E094E11CF11CA5
:100FD000011D111D90E001C091E08D2D6FE19983FD
:100FE0000E9427069981792F7295707F60E0686072
:100FF00078608D2D0E9444068D2DB801A7010E94B6
:1010000096060F90CF91DF911F910F91FF90EF9077
:10101000DF900895AF92BF92CF92DF92EF92FF924E
:101020000F931F93DF93CF93CDB7DEB72C970FB6F7
:10103000F894DEBF0FBECDBF59016A010E94433252
:1010400069837A838B839C83C601B5010E944332F6
:101050006D837E838F839887C801B7010E944332D6
:1010600069877A878B879C878E010F5F1F4FEE24DD
:10107000F801608171818281938121E73CEA4BE82C
:101080005EE30E9407349B01AC01F8012193319388
:10109000419351938F0120E030E040E857E40E94F3
:1010A00007340E941032AB01BC018E2D0E94D30781
:1010B000E394FE2DF330E1F60E9437062C960FB62E
:1010C000F894DEBF0FBECDBFCF91DF911F910F917E
:1010D000FF90EF90DF90CF90BF90AF9008954F9228
:1010E0005F926F927F928F929F92AF92BF92CF92B8
:1010F000DF92EF92FF920F931F93982E862E290175
:101100003A016FE10E942706682D70E06A62892D1E
:101110000E944406892DB301A2010E949606892DE2
:10112000B801A7010E949606892DB601A5010E946B
:1011300096061F910F91FF90EF90DF90CF90BF9098
:10114000AF909F908F907F906F905F904F90089599
:101150008F929F92AF92BF92CF92DF92EF92FF92C7
:101160000F931F93DF93CF9300D00F92CDB7DEB7CD
:101170001ABA15BA8FEF84BB1092650083E0809392
:10118000640000E8A02E12E0B12EB4E89B2E6E01A0
:101190000894C11CD11C85B3856085BB83E39BE2A9
:1011A0000197F1F785B38A7F85BBECECFCE13197C1
:1011B000F1F700C00000809165008D7F809365008D
:1011C000AB9885B3887F85BB99B39983A89A19B3E7
:1011D00085B3887F826085BB09B3943C09F4A7C0BE
:1011E000943809F4A4C015BA80E090E060E070E0A3
:1011F00043E651E00E94670181E090E060E070E02A
:1012000049E651E00E946701143C09F490C014388B
:1012100009F48DC015BA80E090E060E070E043E62C
:1012200051E00E94670182E090E060E070E049E7F1
:1012300051E00E946701043C09F479C0043809F4C4
:1012400076C015BA80E090E060E070E043E651E0DF
:101250000E94670183E090E060E070E049E851E0BF
:101260002DC08E2C8C18882D6DE10E942706882DAC
:1012700060E070E00E944406F8018081F7018193EC
:101280007F0100501F4FF3E200301F0751F78981A3
:10129000803CB9F08038A9F085B78F7385BF15BA47
:1012A00080E090E060E070E049E951E00E94670171
:1012B00081E090E060E070E049E651E00E94670163
:1012C0006ACF80E090E060E070E04FE951E00E947A
:1012D000670180E098B3976098BB2FEF3FEB46E043
:1012E000215030404040E1F700C0000098B3987FA3
:1012F00098BB2FEF3FEB46E0215030404040E1F7F4
:1013000000C000008F5F833029F70E94D8010F9042
:101310000F900F90CF91DF911F910F91FF90EF9061
:10132000DF90CF90BF90AF909F908F900895A5BE13
:10133000B0926D0090926C00760100E010E291CFC7
:101340002F923F924F925F926F927F928F929F92D5
:10135000AF92BF92CF92DF92EF92FF920F931F93C3
:10136000DF93CF93CDB7DEB762970FB6F894DEBFA9
:101370000FBECDBF69837A838B839C832D833E838D
:101380004F8358873701480160E070E084E394E4BC
:10139000A60195010E942931162F072FF82EE92E5C
:1013A0008D819E81AF81B8858093690290936A0296
:1013B000A0936B02B0936C0289819A81AB81BC814E
:1013C0008093FF0290930003A0930103B093020364
:1013D000A0927502B0927602C0927702D092780203
:1013E000C601B50120E030E044E353E40E94A1319E
:1013F000181684F0A8019701652F742F832F922F60
:1014000020E030E044EB53E40E942931162F072FEF
:10141000F82EE92EA8019701652F702F832F9E2D9E
:1014200020E030E044EB52E40E94293169877A875A
:101430008B879C87C401B30123EF36E64FE55EE35B
:101440000E9407346D877E878F87988B80E090E0BD
:1014500036E9432E512C28E6222E21E0322E9A8B9B
:10146000898BB201882777FD8095982F0E9443329F
:101470005B016C01C20188589F4FB1010E94A537E2
:101480002C01C601B501D801F7012B2F302F4F2FAA
:101490005E2D0E94293125E33AEF4EE85CE30E947D
:1014A00007340E94A5313B014C01C601B501B98545
:1014B000AA85AB84DC842B2F3A2F4A2D5D2D0E9408
:1014C000293125E33AEF4EE85CE30E9407340E949D
:1014D000A5315B016C016D817E818F819885A401AE
:1014E00093010E9407343B014C0169817A818B8111
:1014F0009C81A60195010E9407349B01AC01C401A7
:10150000B3010E942A31BD85AE85DF84A8882B2FC8
:101510003A2F4D2D5A2D0E94293123E333E343E224
:1015200050EC0E9407342FE632E143E856E40E9473
:1015300007340E941032AB01BC0189890E94D30795
:10154000A989BA891196BA8BA98BA330B10509F084
:1015500088CF0E9437060E94CE0462960FB6F89498
:10156000DEBF0FBECDBFCF91DF911F910F91FF90D6
:10157000EF90DF90CF90BF90AF909F908F907F9033
:101580006F905F904F903F902F9008952F923F92D1
:101590004F925F926F927F928F929F92AF92BF9283
:1015A000CF92DF92EF92FF920F931F93DF93CF932F
:1015B000CDB7DEB728970FB6F894DEBF0FBECDBF0C
:1015C0005B016C0139014A01170128016091600239
:1015D0007091610280916202909163022091640295
:1015E000309165024091660250916702E090580286
:1015F000F090590200915A0210915B020E94293129
:101600009B01AC01C801B7010E9429319B01AC01CB
:10161000209358023093590240935A0250935B0230
:101620008091600290916102A0916202B091630288
:101630008093640290936502A0936602B093670260
:10164000C601B50120E030E0A9010E94A131882344
:1016500051F4C401B30120E030E0A9010E94A1319E
:10166000882309F4C2C0C601B50120E030E048EC8F
:1016700052E40E94A83169837A838B839C83C401DE
:10168000B30120E030E048EC52E40E94A831662E1D
:10169000972E882E792E6091580270915902809170
:1016A0005A0290915B02A20191010E942931F62E0B
:1016B000072F182FE92E8091500290915102A0918E
:1016C0005202B09153028D839E83AF83B8876F2DF2
:1016D000702F812F9E2D25E33AEF4EE85CE30E94A8
:1016E00007340E94A5315B016C0159814A813B811D
:1016F0002C81652F742F832F922FA60195010E94B4
:1017000007341B012C016F2D702F812F9E2D20E09F
:1017100030E044EB52E40E942A3125E33AEF4EE8F0
:101720005CE30E9407349B01AC01662D792D882D66
:10173000972D0E9407349B01AC01C201B1010E94A8
:101740002A319B01AC016D817E818F8198850E9439
:101750002A319B01AC0120935002309351024093F7
:101760005202509353022090540230905502409000
:10177000560250905702662D792D882D972DA6017F
:1017800095010E9407345B016C016F2D702F812F32
:101790009E2D20E030E044EB52E40E94293125E305
:1017A0003AEF4EE85CE30E9407349B01AC01B9813B
:1017B000AA811B810C816B2F7A2F812F902F0E9481
:1017C00007349B01AC01C601B5010E942A319B017F
:1017D000AC01C201B1010E942A319B01AC01E0E5DC
:1017E000F2E0248335834683578328960FB6F89416
:1017F000DEBF0FBECDBFCF91DF911F910F91FF9044
:10180000EF90DF90CF90BF90AF909F908F907F90A0
:101810006F905F904F903F902F9008952F923F923E
:101820004F925F926F927F928F929F92AF92BF92F0
:10183000CF92DF92EF92FF920F931F93DF93CF939C
:10184000CDB7DEB762970FB6F894DEBF0FBECDBF3F
:101850001A87098787019A8389837C836B835095D4
:1018600041955F4F5E834D83309521953F4F38877B
:101870002F83043611052CF4E114F10409F0CCC0D7
:1018800005C00436110511F00456104021E0E22E87
:10189000F12C1E010894211C311CCE0109969A8B53
:1018A000898B6101BB24AA2499248824D6016D91D7
:1018B0007D916D01882777FD8095982F0E94433296
:1018C0002B013C01E89477F8A5019401652F7A2D4E
:1018D000832F982DA30192010E94A13187FF04C09C
:1018E000B42CA52C962C872CE989FA89CE16DF0614
:1018F000E9F6CC24DD2489859A85AA2797FDA09551
:10190000BA2F8D879E87AF87B88B27017801D101C9
:101910000D911D911D016D857E858F8598890E9491
:10192000433269877A878B879C87B801882777FD40
:101930008095982F0E944332D501F4012B2F3A2D28
:101940004F2F582D0E94A83129853A854B855C85FB
:101950000E9407349B01AC01F601EE0FFF1FEE0F52
:10196000FF1FE55EFC4F208331834283538308943D
:10197000C11CD11CB4E0CB16D10449F68701720119
:10198000A5019401652F7A2D832F982D29853A85FD
:101990004B855C850E94A83120E030E048EC52E4A1
:1019A0000E9407340E948E315B016C01920122502B
:1019B0003040C80117FF03C0909581959F4FB70134
:1019C0000E94A537620F731F882777FD8095982F97
:1019D0000E9443329B01AC01C601B5010E942A312D
:1019E0000E941032CB0162960FB6F894DEBF0FBE94
:1019F000CDBFCF91DF911F910F91FF90EF90DF90BE
:101A0000CF90BF90AF909F908F907F906F905F909E
:101A10004F903F902F90089582E0E82EF12C39CF1F
:101A20002F923F924F925F926F927F928F929F92EE
:101A3000AF92BF92CF92DF92EF92FF920F931F93DC
:101A4000DF93CF93CDB7DEB72E970FB6F894DEBFF6
:101A50000FBECDBF7A8369836536710514F0645675
:101A600070404B0177FF04C088249924861A970A96
:101A7000E0902402F0902502A7014F5F5F4F9C0188
:101A80002E193F0900E010E05A01CC24B7FCC094A5
:101A9000DC2CAB82BC82CD82DE821401442437FC74
:101AA0004094542C6C01C818D908D886CF82C9013B
:101AB000AA2797FDA095BA2F89879A87AB87BC87FD
:101AC0007E876D873401F7FC34C0AD85BE85B7FDD8
:101AD0002DC04801880C991C880C991CF401E55E06
:101AE000FC4FA080B180C280D3806B817C818D81CE
:101AF0009E810E9443329B01AC01C601B5010E9448
:101B000007345B016C01C201B1010E9443329B01A9
:101B1000AC01C601B5010E94A8319B01AC01F401E2
:101B2000E35DFC4F2083318342835383E614F70443
:101B300024F4ED85FE85F7FF13C09801220F331FB3
:101B4000220F331FF901E55EFC4F80819181A28154
:101B5000B381235D3C4FF90180839183A283B383DA
:101B6000AF80B884AE14BF0494F549815A814536DC
:101B7000510568F14801880C991C880C991CF401E6
:101B8000E55EFC4FA080B180C280D38069857A85F4
:101B90008B859C850E9443329B01AC01C601B50137
:101BA0000E9407345B016C01C201B1010E94433203
:101BB0009B01AC01C601B5010E94A8319B01AC019B
:101BC000F401E35DFC4F20833183428353830F5F35
:101BD0001F4F0430110509F076CF2E960FB6F894FA
:101BE000DEBF0FBECDBFCF91DF911F910F91FF9050
:101BF000EF90DF90CF90BF90AF909F908F907F90AD
:101C00006F905F904F903F902F9008952F923F924A
:101C10004F925F926F927F928F929F92AF92BF92FC
:101C2000CF92DF92EF92FF920F931F93DF93CF93A8
:101C3000CDB7DEB72C970FB6F894DEBF0FBECDBF81
:101C40005C013B015C834B8369011A8309838091AA
:101C5000600290916102A0916202B09163028D8353
:101C60009E83AF83B887109237021092360210928B
:101C70000403109203038091030390910403909353
:101C80003E0380933D0380913D0390913E039093EA
:101C900025028093240260E070E080E090E0DC01A7
:101CA0008B01000F111F000F111F9801235D3C4F86
:101CB000F90180839183A283B383208131814281A2
:101CC0005381F801E55EFC4F2083318342835383C7
:101CD0006F5F7F4F6430710519F700D000D000D0DE
:101CE000EDB7FEB7319605E013E0ADB7BEB712967B
:101CF0001C930E93119783EB91E09383828388EB7F
:101D000091E0958384830E94F930EDB7FEB7369653
:101D10000FB6F894FEBF0FBEEDBF80E090E067E025
:101D200070E0A8010E946701C501B30140E050E0E6
:101D300020E030E08601E980FA800E940E0CB601B6
:101D4000882777FD8095982F0E9443327B018C0174
:101D500060911B0370911C0380911D0390911E03E1
:101D600020911F03309120034091210350912203C1
:101D70000E9479339B01AC01C801B7010E94A831D0
:101D80009B01AC015F77C801B7010E9407340E9434
:101D900010327B018C016B01C501B3014B815C8169
:101DA00020E030E08701E980FA800E940E0C9093D9
:101DB0003E0380933D03C6010A966AE070E00E94EC
:101DC000A537CB01AA2797FDA095BA2F89879A87B7
:101DD000AB87BC8780913D0390913E0369817A81F6
:101DE0000E94100D8091030390910403009791F7D6
:101DF000A1E0B0E0B0930403A0930303EB81FC8166
:101E0000309709F041C02091600230916102409109
:101E10006202509163026D817E818F8198850E945C
:101E20002931662EA72EC82EE92E69857A858B85E5
:101E30009C850E9443329B01AC01662D7A2D8C2D2E
:101E40009E2D0E940734E62EF72E082F192FC80169
:101E5000B7019F7720E030E040EF51E40E946C33FF
:101E6000181654F40F2EF0E0EF2EF0E0FF2EF0E005
:101E70000F2FF0E01F2FF02DE0923503F092360384
:101E80000093370310933803809124029091250228
:101E9000009731F481E090E0909325028093240232
:101EA00080913D0390913E032091240230912502C0
:101EB000821793070CF056C080E090E0DC0180931D
:101EC000750290937602A0937702B0937802809186
:101ED000750290917602A0917702B091780280937A
:101EE000FF0290930003A0930103B093020380913B
:101EF000FF0290910003A0910103B091020380932F
:101F0000690290936A02A0936B02B0936C02609195
:101F1000690270916A0280916B0290916C020E943A
:101F200010327093370260933602709325026093EB
:101F300024022C960FB6F894DEBF0FBECDBFCF9112
:101F4000DF911F910F91FF90EF90DF90CF90BF90A6
:101F5000AF909F908F907F906F905F904F903F9049
:101F60002F90089560902D0370902E0380902F0382
:101F7000909030032090310330903203409033032F
:101F800050903403E0903503F0903603009137030E
:101F90001091380360914A0270914B02882777FDB7
:101FA0008095982F0E9443325B016C01C401B301FC
:101FB000A20191010E94A0090DCF2F923F924F9252
:101FC0005F926F927F928F929F92AF92BF92CF92C9
:101FD000DF92EF92FF920F931F93DF93CF9300D086
:101FE00000D000D0CDB7DEB74C013B011A0159013A
:101FF0001A8309838091600290916102A09162022C
:10200000B0916302109237021092360210920403CC
:1020100010920303809103039091040390933E0375
:1020200080933D0380913D0390913E039093250260
:102030008093240260E070E080E090E0DC019B018E
:10204000220F331F220F331FF901E35DFC4F808302
:102050009183A283B383E080F18002811381F9012F
:10206000E55EFC4FE082F182028313836F5F7F4F56
:102070006430710521F700D000D000D0EDB7FEB775
:10208000319605E013E0ADB7BEB712961C930E93E0
:10209000119783EB91E0938382838DEB91E095839D
:1020A00084830E94F930EDB7FEB736960FB6F894E8
:1020B000FEBF0FBEEDBF80E090E067E070E0A801DA
:1020C0000E946701C401B301A10120E030E0850155
:1020D000E980FA800E940E0CB501882777FD809573
:1020E000982F0E9443327B018C0160911B037091F9
:1020F0001C0380911D0390911E0320911F033091BA
:10210000200340912103509122030E9479339B01C7
:10211000AC01C801B7010E94A8319B01AC015F77F7
:10212000C801B7010E9407340E9410327B018C0164
:10213000C401B301A10120E030E08701E980FA8009
:102140000E940E0C90933E0380933D0399248824B3
:102150007724662480910303909104030097D1F7BC
:1021600080913D0390913E0369817A810E94100D18
:1021700021E030E0309304032093030360913503A2
:102180007091360380913703909138032091240297
:10219000309125022115310531F4A1E0B0E0B09372
:1021A0002502A093240220913D0330913E034091EB
:1021B000240250912502241735070CF056C080E008
:1021C00090E0DC018093750290937602A0937702F1
:1021D000B09378028091750290917602A091770277
:1021E000B09178028093FF0290930003A0930103C3
:1021F000B09302038091FF0290910003A09101032C
:10220000B09102038093690290936A02A0936B02DB
:10221000B0936C026091690270916A0280916B02C6
:1022200090916C020E9410327093370260933602D4
:10223000709325026093240226960FB6F894DEBFB1
:102240000FBECDBFCF91DF911F910F91FF90EF9007
:10225000DF90CF90BF90AF909F908F907F906F90C6
:102260005F904F903F902F900895905820E030E07D
:1022700048EC52E40E94A8319B01AC01D401F30167
:102280006B2F782D8F2F962D0E942A31962E872E18
:10229000782E692E20902D0330902E0340902F032E
:1022A000509030038091310390913203A091330319
:1022B000B09134038B839C83AD83BE83E090350360
:1022C000F0903603009137031091380360914A0271
:1022D00070914B02882777FD8095982F0E9443329A
:1022E000D401F3012B2F3A2F4F2F5E2F0E942A315A
:1022F0005B016C01C201B1012B813C814D815E818A
:102300000E94A00927CF2F923F924F925F926F9227
:102310007F928F929F92AF92BF92CF92DF92EF9275
:10232000FF920F931F93DF93CF9300D000D000D084
:10233000CDB7DEB7FC01D62E972E1A0159011A83AC
:1023400009838091600290916102A0916202B09134
:102350006302262F372F37FF03C0309521953F4F5B
:102360002E9FC0012F9F900D3E9F900D112464EB76
:1023700070E00E94A537882777FD8095982F0E94EE
:1023800043322BED3FE049E450E40E940734E62E4F
:10239000872E782E692E10923702109236021092F4
:1023A000040310920303809103039091040390931C
:1023B0003E0380933D0380913D0390913E039093B3
:1023C00025028093240260E070E080E090E0DC0170
:1023D000472D562D9B01220F331F220F331FF9016A
:1023E000E35DFC4F80839183A283B383408051805F
:1023F00062807380255E3C4FF90140825182628287
:1024000073826F5F7F4F6430710521F7742E652EE4
:1024100000D000D000D0EDB7FEB7319605E013E054
:10242000ADB7BEB712961C930E93119783EB91E054
:102430009383828383EC91E0958384830E94F930B7
:10244000EDB7FEB736960FB6F894FEBF0FBEEDBFE0
:1024500080E090E067E070E0A8010E9467019301CE
:102460006E2D782D832F922F0E9410322B013C016C
:1024700080E090E0B2014D2D592D91018501E98058
:10248000FA800E940E0CB501882777FD8095982F61
:102490000E9443327B018C0120911F033091200365
:1024A00040912103509122030E94A8319B01AC016D
:1024B0005F77C801B7010E9407340E9410327B0188
:1024C0008C0180E090E0B2014D2D592D91018701E2
:1024D000E980FA800E940E0C90933E0380933D03A6
:1024E00099244424332422248824772466245524E0
:1024F00080913D0390913E0369817A810E94100D85
:102500008091030390910403009791F721E030E05C
:1025100030930403209303036091350370913603D5
:102520008091370390913803E0903903F0903A039B
:1025300000913B0310913C0320912402309125022D
:102540002115310531F4A1E0B0E0B0932502A0934C
:10255000240220913D0330913E034091240250918A
:102560002502241735070CF056C080E090E0DC010E
:102570008093750290937602A0937702B0937802CD
:102580008091750290917602A0917702B0917802C5
:102590008093FF0290930003A0930103B093020382
:1025A0008091FF0290910003A0910103B09102037A
:1025B0008093690290936A02A0936B02B0936C02BD
:1025C0006091690270916A0280916B0290916C0235
:1025D0000E94103270933702609336027093250286
:1025E0006093240226960FB6F894DEBF0FBECDBFCF
:1025F000CF91DF911F910F91FF90EF90DF90CF90DF
:10260000BF90AF909F908F907F906F905F904F9012
:102610003F902F90089520E030E048EC52E40E9473
:10262000A8319B01AC01682D772D862D952D0E9438
:102630002A31862E772E682E592EC801B701905860
:1026400020E030E048EC52E40E94A8319B01AC014C
:10265000F101692D742D8F2F922D0E942A31962E13
:10266000472E382E292E8091310390913203A0916C
:102670003303B09134038B839C83AD83BE83E0909E
:102680003903F0903A0300913B0310913C036091B1
:102690004A0270914B02882777FD8095982F0E94FF
:1026A0004332282D372D462D552D0E942A31F10118
:1026B000292D342D4F2F5E2F0E942A315B016C0192
:1026C00060E070E0CB012B813C814D815E810E94F6
:1026D000A0090ECF2F923F924F925F926F927F92FE
:1026E0008F929F92AF92BF92CF92DF92EF92FF9222
:1026F0000F931F93DF93CF93CDB7DEB72E970FB60F
:10270000F894DEBF0FBECDBF9A8389835B013A0187
:102710003E832D836801FC82EB8280916002909160
:102720006102A0916202B09163028F839887A987AA
:10273000BA87109237021092360210920403109258
:102740000303809103039091040390933E038093CD
:102750003D0380913D0390913E0390932502809329
:10276000240260E070E080E090E0DC019B01220F39
:10277000331F220F331FF901E35DFC4F80839183E8
:10278000A283B383E080F18002811381255E3C4FF8
:10279000F901E082F182028313836F5F7F4F64301F
:1027A000710521F700D000D000D0EDB7FEB731960B
:1027B00005E013E0ADB7BEB712961C930E931197C8
:1027C00083EB91E09383828386EC91E0958384830D
:1027D0000E94F930EDB7FEB736960FB6F894FEBFFB
:1027E0000FBEEDBF80E090E067E070E0A8010E94BE
:1027F0006701C501B30140E050E020E030E0860110
:10280000EB80FC800E940E0CB601882777FD809536
:10281000982F0E9443327B018C0160911B037091C1
:102820001C0380911D0390911E0320911F03309182
:10283000200340912103509122030E9479339B0190
:10284000AC01C801B7010E94A8319B01AC015F77C0
:10285000C801B7010E9407340E9410327B018C012D
:102860006B01C501B3014D815E8120E030E087013D
:10287000EB80FC800E940E0C90933E0380933D03FE
:10288000C6010A966AE070E00E94A537CB01AA272C
:1028900097FDA095BA2F8B879C87AD87BE878091C7
:1028A0003D0390913E036B817C810E94100D8091CD
:1028B000030390910403009791F7A1E0B0E0B09377
:1028C0000403A0930303ED81FE81309709F041C01A
:1028D0002091600230916102409162025091630246
:1028E0006F81788589859A850E942931662EA72E69
:1028F000C82EE92E6B857C858D859E850E9443328E
:102900009B01AC01662D7A2D8C2D9E2D0E940734E3
:10291000E62EF72E082F192FC801B7019F7720E068
:1029200030E040EF51E40E946C33181654F40F2E3F
:10293000F0E0EF2EF0E0FF2EF0E00F2FF0E01F2F81
:10294000F02DE0923503F092360300933703109395
:1029500038038091240290912502009731F481E0A0
:1029600090E0909325028093240280913D03909102
:102970003E03209124023091250282179307F4F53B
:1029800080E090E0DC018093750290937602A09342
:102990007702B09378028091750290917602A091AF
:1029A0007702B09178028093FF0290930003A09386
:1029B0000103B09302038091FF0290910003A09164
:1029C0000103B09102038093690290936A02A0937D
:1029D0006B02B0936C026091690270916A028091FF
:1029E0006B0290916C020E941032709337026093D8
:1029F00036027093250260932402D2C0A981BA8165
:102A0000109741F480916F0290917002009709F441
:102A10009BC013C0E981FA81E130F10509F44DC092
:102A200089819A818230910509F08EC080916F0270
:102A300090917002009709F440C080E090E0DC01C2
:102A40008093750290937602A0937702B0937802F8
:102A50008091750290917602A0917702B0917802F0
:102A60008093FF0290930003A0930103B0930203AD
:102A70008091FF0290910003A0910103B0910203A5
:102A80008093690290936A02A0936B02B0936C02E8
:102A90006091690270916A0280916B0290916C0260
:102AA0000E941032709337026093360270932502B1
:102AB0006093240221E030E072C08091790290910D
:102AC0007A02009709F440C080E090E0DC01809336
:102AD000750290937602A0937702B093780280916A
:102AE000750290917602A0917702B091780280935E
:102AF000FF0290930003A0930103B093020380911F
:102B0000FF0290910003A0910103B0910203809312
:102B1000690290936A02A0936B02B0936C02609179
:102B2000690270916A0280916B0290916C020E941E
:102B300010327093370260933602709325026093CF
:102B4000240222E030E02BC060902D0370902E0311
:102B500080902F0390903003209031033090320307
:102B60004090330350903403E0903503F0903603E7
:102B7000009137031091380360914A0270914B0223
:102B8000882777FD8095982F0E9443325B016C0166
:102B9000C401B301A20191010E94A00980CEC90124
:102BA0002E960FB6F894DEBF0FBECDBFCF91DF914A
:102BB0001F910F91FF90EF90DF90CF90BF90AF905B
:102BC0009F908F907F906F905F904F903F902F904D
:102BD0000895CF93DF938091600290916102A0915C
:102BE0006202B09163021092370210923602109284
:102BF00004031092030380910303909104039093C4
:102C00003E0380933D0380913D0390913E0390935A
:102C100025028093240260E070E080E090E0DC0117
:102C2000FB01EE0FFF1FEE0FFF1FEF01C35DDC4F37
:102C300088839983AA83BB83288139814A815B81F8
:102C4000E55EFC4F20833183428353836F5F7F4F68
:102C50006430710529F700D000D000D0EDB7FEB781
:102C60003196C5E0D3E0ADB7BEB71296DC93CE93F4
:102C7000119783EB91E09383828384ED91E09583B8
:102C800084830E94F9308DB79EB706960FB6F894EC
:102C90009EBF0FBE8DBF80E090E067E070E0AE01A8
:102CA0000E9467018DEC9CECACECBDE380931202BA
:102CB00090931302A0931402B09315028091030322
:102CC000909104030097D1F781E090E09093040382
:102CD000809303038091600290916102A09162024F
:102CE000B091630280E090E0DC01809375029093E4
:102CF0007602A0937702B09378028091750290914A
:102D00007602A0917702B09178028093FF029093AF
:102D10000003A0930103B09302038091FF029091FE
:102D20000003A0910103B091020380936902909384
:102D30006A02A0936B02B0936C0260916902709179
:102D40006A0280916B0290916C020E941032709323
:102D50003702609336027093250260932402DF915C
:102D6000CF9108951F93182F81E10E943E01812F7A
:102D70000E943E018091F8018823E1F30E942B011B
:102D8000882391F31F91089581E090E00A9B02C08F
:102D900080E090E0909374028093730281E090E071
:102DA0000B9B02C080E090E09093700280936F02D2
:102DB00081E090E00C9B02C080E090E090932C03B7
:102DC00080932B0381E090E0849B02C080E090E040
:102DD000909372028093710281E090E0869B02C022
:102DE00080E090E09093FE028093FD0220916300CA
:102DF00081E090E023FF02C080E090E090937A02AF
:102E0000809379022091630081E090E024FF02C06A
:102E100080E090E090936E0280936D0208951F927F
:102E20000F920FB60F920BB60F921124EF92FF92F2
:102E30000F931F932F933F934F935F936F937F93C2
:102E40008F939F93AF93BF93EF93FF938FEF8DBDBE
:102E500080E78CBD60910E0270910F02809110028C
:102E6000909111022AE037ED43EA5CE30E942A3197
:102E70007B018C017F2D912F20E030E040E85FE363
:102E80000E946C3387FD04C0EE24FF2400E81FE39A
:102E90008E2D9F2DA02FB12F80930E0290930F02A5
:102EA000A0931002B0931102609128027091290240
:102EB00080912A0290912B022AE037ED43EA5CE3ED
:102EC0000E942A317B018C017F2D912F20E030E080
:102ED00040E85FE30E946C3387FD04C0EE24FF24CA
:102EE00000E81FE38E2D9F2DA02FB12F8093280285
:102EF00090932902A0932A02B0932B0260911202B0
:102F00007091130280911402909115022DEC3CEC0B
:102F10004CE45DE30E942A31F62EE72E8C01A701D6
:102F2000652F742F912F20E030E040E85FE30E948E
:102F30006C3387FD04C0FF24EE2400E81FE3A701E3
:102F4000852F9E2DA02FB12F8093120290931302F4
:102F5000A0931402B09315020E94C41680917302CC
:102F6000909174020097B1F080910C0290910D0243
:102F7000009781F481E090E090930D0280930C0221
:102F800080911602909117020196909317028093F8
:102F9000160210C08091730290917402009751F450
:102FA00080910C0290910D02009721F010920D0279
:102FB00010920C0280916F0290917002009741F183
:102FC0008091420290914302009711F582E090E0D7
:102FD000909343028093420280914C0290914D0263
:102FE000019690934D0280934C0280911903909129
:102FF0001A03FC01EE0FFF1FEB52FD4F21E030E002
:1030000031832083019690931A038093190310C093
:1030100080916F0290917002009751F4809142026A
:1030200090914302009721F01092430210924202C5
:1030300080912B0390912C030097B1F080913E0278
:1030400090913F02009781F483E090E090933F02DB
:1030500080933E0280913C0290913D0201969093B4
:103060003D0280933C0210C080912B0390912C0371
:10307000009751F480913E0290913F02009721F019
:1030800010923F0210923E02809171029091720262
:103090000097B1F080913A0290913B02009781F441
:1030A00084E090E090933B0280933A028091440246
:1030B000909145020196909345028093440210C07E
:1030C0008091710290917202009751F480913A02BE
:1030D00090913B02009721F010923B0210923A022D
:1030E0008091FD029091FE020097B1F0809126023E
:1030F00090912702009781F485E090E09093270259
:103100008093260280914602909147020196909307
:1031100047028093460210C08091FD029091FE020A
:10312000009751F48091260290912702009721F098
:1031300010922702109226028091790290917A02D1
:10314000009741F18091400290914102009711F562
:1031500081E090E090934102809340028091380298
:1031600090913902019690933902809338028091B0
:10317000190390911A03FC01EE0FFF1FEB52FD4F54
:1031800022E030E031832083019690931A038093EC
:10319000190310C08091790290917A02009751F43E
:1031A0008091400290914102009721F010924102DB
:1031B0001092400280916D0290916E020097B1F0E2
:1031C0008091220290912302009781F482E090E0A6
:1031D000909323028093220280914E0290914F029D
:1031E000019690934F0280934E0210C080916D0221
:1031F00090916E02009751F48091220290912302E7
:10320000009721F01092230210922202809148022E
:1032100090914902009749F08091480290914902AB
:1032200001969093490280934802809124029091E4
:103230002502009729F0019690932502809324029D
:103240008091030390910403009749F08091030358
:10325000909104030197909304038093030380915A
:10326000360290913702009729F001969093370229
:10327000809336028091190390911A03843191054D
:1032800024F010921A03109219036091FF027091BA
:103290000003809101039091020320916902309113
:1032A0006A0240916B0250916C02E0907502F090BE
:1032B000760200917702109178020E94C60AFF916F
:1032C000EF91BF91AF919F918F917F916F915F919E
:1032D0004F913F912F911F910F91FF90EF900F9081
:1032E0000BBE0F900FBE0F901F901895AF92BF921C
:1032F000CF92DF92EF92FF920F931F9360E070E006
:10330000CB019B01AC017B018C015B016C010E9434
:10331000A0091F910F91FF90EF90DF90CF90BF9089
:10332000AF9008958091730290917402009769F4B0
:1033300080916F0290917002009739F480912B0375
:1033400090912C03009709F47AC0809173029091B8
:1033500074028130910569F480916F02909170023E
:10336000009739F480912B0390912C03009709F476
:1033700069C080917302909174028130910571F45B
:1033800080916F02909170028130910539F48091A3
:103390002B0390912C03009709F457C0809173027E
:1033A00090917402009771F480916F029091700275
:1033B0008130910539F480912B0390912C03009773
:1033C00009F446C08091730290917402009771F4E1
:1033D00080916F02909170028130910539F4809153
:1033E0002B0390912C0381309105A9F180917302F8
:1033F00090917402009769F480916F02909170022D
:10340000009739F480912B0390912C038130910522
:1034100029F180917302909174028130910571F4C9
:1034200080916F02909170028130910539F4809102
:103430002B0390912C038130910599F0089520E0A1
:1034400030E011C021E030E00EC022E030E00BC0DF
:1034500023E030E008C024E030E005C025E030E0A3
:1034600002C02AE030E0C9010895DF93CF93CDB7C1
:10347000DEB766970FB6F894DEBF0FBECDBFFE0174
:10348000319626E1DF011D922A95E9F724E630E026
:103490003C832B8322E330E03E832D832EEC3FEFF1
:1034A0003A8729872CE93FEF3C872B87DC01AA0F5D
:1034B000BB1FAE0FBF1F6D917C91882777FD809554
:1034C000982F0E94433220E030E040E85EE30E9403
:1034D00007340E941032CB0166960FB6F894DEBF17
:1034E0000FBECDBFCF91DF9108952F923F924F92A3
:1034F0005F926F927F928F929F92AF92BF92CF9284
:10350000DF92EF92FF920F931F93CF93DF931C01F3
:103510005A01790128018091600290916102A09185
:103520006202B0916302109237021092360210923A
:10353000040310920303809103039091040390937A
:103540003E0380933D0380913D0390913E03909311
:1035500025028093240260E070E080E090E0DC01CE
:10356000FB01EE0FFF1FEE0FFF1FEF01C35DDC4FEE
:1035700088839983AA83BB83288139814A815B81AF
:10358000E55EFC4F20833183428353836F5F7F4F1F
:103590006430710529F700D000D000D0EDB7FEB738
:1035A0003196C5E0D3E0ADB7BEB71296DC93CE93AB
:1035B000119783EB91E09383828387ED91E095836C
:1035C00084830E94F9308DB79EB706960FB6F894A3
:1035D0009EBF0FBE8DBF80E090E067E070E0AE015F
:1035E0000E94670180E090E0B50140E050E020E0FB
:1035F00030E0870172010E940E0C90933E0380938D
:103600003D03C1E0D0E080913D0390913E03B201C3
:103610000E94100D8091030390910403009799F785
:10362000D0930403C09303030E9492197C019BE092
:10363000E916F10499F0C7010E94351AAAE0EA16CA
:10364000F10429F4B1E02B16310451F420C0E11447
:10365000F10431F42114310419F419C080E090E030
:1036600020912402309125022115310521F4D093B7
:103670002502C093240220913D0330913E034091E6
:10368000240250912502241735070CF050C080E029
:1036900090E0DC018093750290937602A09377020C
:1036A000B09378028091750290917602A091770292
:1036B000B09178028093FF0290930003A0930103DE
:1036C000B09302038091FF0290910003A091010347
:1036D000B09102038093690290936A02A0936B02F7
:1036E000B0936C026091690270916A0280916B02E2
:1036F00090916C020E9410327093370260933602F0
:103700007093250260932402DF91CF911F910F9156
:10371000FF90EF90DF90CF90BF90AF909F908F90F1
:103720007F906F905F904F903F902F9008956090A2
:1037300031037090320380903303909034036627F6
:103740007727681B790B882777FD8095982F0E9433
:1037500043327B018C0160914A0270914B028827B1
:1037600077FD8095982F0E9443325B016C0160E0E9
:1037700070E0CB01A40193010E94A00944CF6F9295
:103780007F928F929F92AF92BF92CF92DF92EF92F1
:10379000FF920F931F93D62EC72EB82EA92E922ECE
:1037A000832E742E652EA6019501652F742F832F0D
:1037B000922F2E2D3F2D402F512F0E94A13187FD9A
:1037C00015C0A4019301652F742F832F922F2E2DE6
:1037D0003F2D402F512F0E946C3318161CF46401AA
:1037E000530104C0DE2CCF2CB02EA12EA6019501D2
:1037F000652F7C2D832F9A2D1F910F91FF90EF90B5
:10380000DF90CF90BF90AF909F908F907F906F9000
:1038100008952F923F924F925F926F927F928F9274
:103820009F92AF92BF92CF92DF92EF92FF920F934F
:103830001F93DF93CF93CDB7DEB7C254D0400FB6FE
:10384000F894DEBF0FBECDBF9A878987788B6F87CC
:103850001A0138872F832801F88EEF8ABA82A9824D
:1038600020916002309161024091620250916302A6
:103870002B8F3C8F4D8F5E8F109237021092360245
:1038800010920403109203038091030390910403A8
:1038900090933E0380933D0380913D0390913E03BE
:1038A000909325028093240260E070E080E090E035
:1038B000DC019B01220F331F220F331FF901E35D4F
:1038C000FC4F80839183A283B383E080F1800281E7
:1038D0001381255E3C4FF901E082F182028313835C
:1038E0006F5F7F4F6430710521F700D000D000D0AA
:1038F000EDB7FEB7319605E013E0ADB7BEB712964F
:103900001C930E93119783EB91E09383828380EE57
:1039100091E0958384830E94F930EDB7FEB7369627
:103920000FB6F894FEBF0FBEEDBF80E090E067E0F9
:1039300070E0A8010E9467018F8198850A97B601FF
:103940000E94A537882777FD8095982F0E944332E3
:103950006FA378A789A79AA78F8598890A97698105
:103960007A810E94A537882777FD8095982F0E943D
:1039700043326BA77CA78DA79EA7B201620D731D72
:103980002114310441F04114510429F0CB0162E0CB
:1039900070E00E94A53728E230E049855A85429FB1
:1039A000C001439F900D529F900D11249C012856F9
:1039B0003140F90137FF04C0EE27FF27E21BF30B6C
:1039C000AC0197FF04C044275527481B590BE41747
:1039D000F5070CF4C90140914A0250914B02E8E20C
:1039E000F0E06E9F90016F9F300D7E9F300D11248F
:1039F000240F351F253B31052CF461E070E07C83FA
:103A00006B8304C0AFEFBFEFBC83AB83840F951F04
:103A1000875A9F4F833B910528F0E1E0F0E0FA8B55
:103A2000E98B04C04FEF5FEF5A8B498B253B310583
:103A30005CF06B817C818FEF6F3F780781F4A1E0B0
:103A4000B0E0BE83AD8314C0EB81FC812FEFEF3F6C
:103A5000F20751F44FEF5FEF5E834D8309C06FEFC4
:103A60007FEF7E836D8304C081E090E09E838D8331
:103A7000109249021092480289819A810A962AE09E
:103A800030E0B9010E94A5377CA36BA3C6010A965A
:103A9000B9010E94A5377EA36DA3662477248824EC
:103AA00099249601442737FD4095542F2FA738AB12
:103AB00049AB5AABD094C194D108D394A6016627E0
:103AC00057FD6095762F4BAB5CAB6DAB7EAB6981E0
:103AD0007A81882777FD8095982F6FAB78AF89AF73
:103AE0009AAF89819A81909581959F4F9C01442737
:103AF00037FD4095542F2BAF3CAF4DAF5EAF49859E
:103B00005A85445D5D4F5A874987B101645D7D4F99
:103B10007A8F698FC201845D9D4F21969FAF8EAFD2
:103B2000219780910303909104030097D1F7A1E0BE
:103B3000B0E0B0930403A0930303EF81F8853097BE
:103B400011F1A98DBA8D8C9190E08E1B9F0BEB81AA
:103B5000FC81E89FB001E99F700DF89F700D112462
:103B6000882777FD8095982F0E944332BFA1A8A592
:103B700009A5EAA42B2F3A2F402F5E2D0E94A831D1
:103B80000E9410324B012F89388D2115310579F1B2
:103B9000A98DBA8D8C912196EEADFFAD2197208134
:103BA00090E04F815885841B950B6F89788D860F27
:103BB000971F821B9109AD81BE81A89FB001A99F6B
:103BC000700DB89F700D1124882777FD8095982F70
:103BD0000E9443322AE939E949E95FE30E94073448
:103BE0000E94103223967FAF6EAF239747C020917B
:103BF00060023091610240916202509163026B8DCC
:103C00007C8D8D8D9E8D0E9429310E941032E9811C
:103C1000FA81309771F04BA15CA1469F9001479FBC
:103C2000300D569F300D112423963FAF2EAF2397B2
:103C30000DC0ADA1BEA1A69FC001A79F900DB69FCC
:103C4000900D112423969FAF8EAF23972396EEAD50
:103C5000FFAD2397BF01882777FD8095982F0E949D
:103C600043329F7720E030E040EF51E40E946C3314
:103C7000181624F423961FAE1EAE23972F8538897D
:103C80002115310511F1A985BA858C9190E0821B2F
:103C9000930BE989FA89E89FB001E99F700DF89FBD
:103CA000700D1124882777FD8095982F0E9443324C
:103CB000BBA5ACA50DA5EEA42B2F3A2F402F5E2D52
:103CC0000E94A8310E9410323B016FA578A989A9F2
:103CD0009AA90E9443326B877C878D879E876BA948
:103CE0007CA98DA99EA90E9443326B8B7C8B8D8B06
:103CF0009E8BB401882777FD8095982F0E944332D0
:103D00007B018C016B857C858D859E852B893C890B
:103D10004D895E890E94BF1B6F8F78A389A39AA3E8
:103D20006FA978AD89AD9AAD0E9443325B016C01F9
:103D30006BAD7CAD8DAD9EAD0E9443321B012C015D
:103D4000B301882777FD8095982F0E9443327B012D
:103D50008C01C601B501A20191010E94BF1B5B014C
:103D60006C0123962EAD3FAD2397B901882777FDCF
:103D70008095982F0E9443327B018C016B857C8556
:103D80008D859E852B893C894D895E890E94BF1B4C
:103D90007B018C018091240290912502009731F4DF
:103DA00041E050E050932502409324028091240288
:103DB0009091250251E0853F9507ECF46F8D78A135
:103DC00089A19AA10E9410324B01C601B5010E943F
:103DD00010323B01C801B7010E9410326B018114FF
:103DE000910409F05FC06114710409F05BC06115B2
:103DF000710509F057C080E090E0DC018093750206
:103E000090937602A0937702B09378028091750226
:103E100090917602A0917702B09178028093FF0290
:103E200090930003A0930103B09302038091FF02DB
:103E300090910003A0910103B09102038093690265
:103E400090936A02A0936B02B0936C026091690236
:103E500070916A0280916B0290916C020E94103204
:103E600070933702609336027093250260932402A8
:103E7000CE5BDF4F0FB6F894DEBF0FBECDBFCF9144
:103E8000DF911F910F91FF90EF90DF90CF90BF9047
:103E9000AF909F908F907F906F905F904F903F90EA
:103EA0002F900895E0900E02F0900F020091100202
:103EB00010911102B401882777FD8095982F0E94F8
:103EC0004332A80197010E9407346B877C878D8756
:103ED0009E87B301882777FD8095982F0E944332F3
:103EE000209128023091290240912A0250912B0200
:103EF0000E9407341B012C01B601882777FD8095AD
:103F0000982F0E944332A80197010E9407347B0139
:103F10008C0160914A0270914B02882777FD809551
:103F2000982F0E9443325B016C016B857C858D85E7
:103F30009E85A20191010E94A009F3CD2F923F928C
:103F40004F925F927F928F929F92AF92BF92CF9249
:103F5000DF92EF92FF920F931F93DF93CF93CDB732
:103F6000DEB728970FB6F894DEBF0FBECDBF782E10
:103F70005B015A8349838091600290916102A09114
:103F80006202B091630210923702109236021092D0
:103F90000403109203038091030390910403909310
:103FA0003E0380933D0380913D0390913E039093A7
:103FB00025028093240260E070E080E090E0DC0164
:103FC0008B01000F111F000F111F9801235D3C4F43
:103FD000F90180839183A283B3832081318142815F
:103FE0005381F801E55EFC4F208331834283538384
:103FF0006F5F7F4F6430710519F700D000D000D09B
:10400000EDB7FEB7319605E013E0ADB7BEB7129637
:104010001C930E93119783EB91E09383828383EE3D
:1040200091E0958384830E94F930EDB7FEB7369610
:104030000FB6F894FEBF0FBEEDBF80E090E067E0E2
:1040400070E0A8010E946701872D66E60E94043097
:10405000882EE0905802F090590200915A02109177
:104060005B02B501882777FD8095982F0E94433227
:10407000A80197010E942A310E9410329B01281941
:1040800031094901882777FD8095982F0E94433296
:104090005B016C01B401882777FD8095982F0E9401
:1040A00043327B018C01C40168E572E00E94A537B0
:1040B000882777FD8095982F0E9443322FE832ECB5
:1040C00045E75EE30E942A319B01AC01C801B701BC
:1040D0000E9407349B01AC01C601B5010E942A3140
:1040E0000E9410321B01109249021092480288244B
:1040F000992481E0482E512C3C822B82140180911E
:104100000303909104030097D1F750920403409267
:104110000303872D66E60E940430E82EFF24872DD6
:1041200067E60E94043038C00E947619872D66E643
:104130000E940430E82E872D67E60E94043020910B
:104140004802309149022115310521F4509249026B
:1041500040924802209148023091490241E02F35B7
:1041600034071CF00E9476191BC1FF24E114F104EE
:1041700099F020E030E0A901209328023093290231
:1041800040932A0250932B0220930E0230930F0289
:104190004093100250931102082F10E0E114F10433
:1041A00021F40115110509F4BFCF4B815C81411544
:1041B000510591F0E41AF50AB701882777FD80953B
:1041C000982F0E9443322DEC3CEC4CE45FE30E94BC
:1041D00007340E9410321B0189819A81009719F0DF
:1041E0004C01801A910AB101882777FD8095982F9C
:1041F0000E9443327B018C0160E070E088E492E42D
:1042000020E030E048E452EC0E94BF1B5B016C01EF
:10421000B401882777FD8095982F0E9443327B0157
:104220008C0160E070E080E792E420E030E040E75D
:1042300052EC0E94BF1B7B018C0180912402909163
:104240002502009721F45092250240922402809189
:10425000240290912502A1E08F359A079CF4C601B3
:10426000B5010E9410321B01C801B7010E94103233
:104270004B012114310409F043C0CB010196833076
:104280009105F0F580E090E0DC0180937502909359
:104290007602A0937702B093780280917502909194
:1042A0007602A0917702B09178028093FF029093FA
:1042B0000003A0930103B09302038091FF02909149
:1042C0000003A0910103B0910203809369029093CF
:1042D0006A02A0936B02B0936C02609169027091C4
:1042E0006A0280916B0290916C020E94103270936E
:1042F000370260933602709325026093240250C007
:10430000A0905802B0905902C0905A02D0905B021F
:10431000B401882777FD8095982F0E944332209121
:1043200028023091290240912A0250912B020E94CA
:1043300007342DEC3CEC4CE45FE30E9407346D83C2
:104340007E838F839887B101882777FD8095982F8A
:104350000E94433220910E0230910F0240911002D0
:10436000509111020E9407347B018C0160914A0236
:1043700070914B02882777FD8095982F0E944332D9
:10438000A60195010E942A315B016C0160E070E09A
:10439000CB012D813E814F8158850E94A009AFCE6F
:1043A00028960FB6F894DEBF0FBECDBFCF91DF9138
:1043B0001F910F91FF90EF90DF90CF90BF90AF9043
:1043C0009F908F907F905F904F903F902F90089597
:1043D0002F923F924F925F926F927F928F929F9215
:1043E000AF92BF92CF92DF92EF92FF920F931F9303
:1043F000DF93CF93CDB7DEB72D970FB6F894DEBF1E
:104400000FBECDBF89837B836A835D834C833F83EB
:104410002E838091600290916102A0916202B0911E
:104420006302109237021092360210920403109227
:104430000303809103039091040390933E038093C0
:104440003D0380913D0390913E039093250280931C
:10445000240260E070E080E090E0DC018B01000F5E
:10446000111F000F111F9801235D3C4FF90180833C
:104470009183A283B3832081318142815381F801EA
:10448000E55EFC4F20833183428353836F5F7F4F10
:104490006430710519F700D000D000D0EDB7FEB739
:1044A000319605E013E0ADB7BEB712961C930E939C
:1044B000119783EB91E09383828387EE91E095835C
:1044C00084830E94F930EDB7FEB736960FB6F894A4
:1044D000FEBF0FBEEDBF80E090E067E070E0A80196
:1044E0000E946701109249021092480266247724C4
:1044F00080E090E0882499249D878C878091030335
:10450000909104030097D1F721E030E03093040349
:1045100020930303898166E60E940430E82EFF247D
:10452000898167E60E940430082F10E0B701CC842F
:10453000DD84A9803DC00E9476198A2D66E60E941E
:104540000430282E8A2D67E60E940430209148020C
:10455000309149022115310531F441E050E050938A
:10456000490240934802209148023091490251E0AB
:104570002F3535071CF00E94761962C1622D70E05C
:104580006115710599F020E030E0A901209328021F
:104590003093290240932A0250932B0220930E025B
:1045A00030930F024093100250931102082F10E035
:1045B0006115710521F40115110509F4BCCFDD86E3
:1045C000CC864C815D814115510589F0641B750BCA
:1045D000882777FD8095982F0E9443322DEC3CEC84
:1045E0004CE45FE30E9407340E9410324B018E813D
:1045F0009F81009721F0801B910B9D878C87AA815A
:10460000BB81109791F0EA1AFB0AB701882777FD62
:104610008095982F0E9443322AE939E949E15FE306
:104620000E9407340E9410323B01B401882777FDB5
:104630008095982F0E9443327B018C0160E070E0EE
:1046400080EF91E420E030E040EF51EC0E94BF1B8E
:104650001B012C01EC85FD85BF01882777FD809526
:10466000982F0E9443327B018C0160E070E08CE562
:1046700092E420E030E04CE552EC0E94BF1B5B016D
:104680006C01B301882777FD8095982F0E944332F3
:104690007B018C0160E070E088E492E420E030E08F
:1046A00048E452EC0E94BF1B7B018C0180912402E4
:1046B00090912502009731F421E030E030932502FB
:1046C00020932402809124029091250231E08F35BD
:1046D0009307F4F4C201B1010E9410324B01C601EC
:1046E000B5010E9410327D876C87C801B7010E9416
:1046F00010323B018114910409F048C08C859D85DE
:1047000001968330910508F041C061147104F1F500
:1047100080E090E0DC018093750290937602A09394
:104720007702B09378028091750290917602A09101
:104730007702B09178028093FF0290930003A093D8
:104740000103B09302038091FF0290910003A091B6
:104750000103B09102038093690290936A02A093CF
:104760006B02B0936C026091690270916A02809151
:104770006B0290916C020E9410327093370260932A
:10478000360270932502609324025AC0E0900E0214
:10479000F0900F020091100210911102B4018827CD
:1047A00077FD8095982F0E944332A80197010E94BF
:1047B00007342DEC3CEC4CE45FE30E94073468873F
:1047C00079878A879B874C855D85BA01882777FD25
:1047D0008095982F0E94433220912802309129021F
:1047E00040912A0250912B020E9407342DEC3CECA0
:1047F0004CE45FE30E9407341B012C01B3018827BE
:1048000077FD8095982F0E944332A80197010E945E
:1048100007347B018C0160914A0270914B0288271A
:1048200077FD8095982F0E9443325B016C0168856B
:1048300079858A859B85A20191010E94A0095ECE9F
:104840002D960FB6F894DEBF0FBECDBFCF91DF918E
:104850001F910F91FF90EF90DF90CF90BF90AF909E
:104860009F908F907F906F905F904F903F902F9090
:1048700008952F923F924F925F926F927F928F9204
:104880009F92AF92BF92CF92DF92EF92FF920F93DF
:104890001F93DF93CF93CDB7DEB766970FB6F8942B
:1048A000DEBF0FBECDBF5C013B014A01690128019B
:1048B000F886EF828091600290916102A09162027D
:1048C000B09163028B839C83AD83BE8310923702C9
:1048D0001092360210920403109203038091030396
:1048E0009091040390933E0380933D0380913D0398
:1048F00090913E03909325028093240220E030E0C3
:104900000F2EF0E0EF2EF0E0FF2EF0E00F2FF0E0A2
:104910001F2FF02DAF81B885C901880F991F880F0F
:10492000991FFC01E35DFC4FE082F1820283138357
:104930004081518162817381FC01E55EFC4F4083BF
:104940005183628373832F5F3F4F2430310521F7FA
:10495000B887AF8300D000D000D0EDB7FEB7319656
:1049600005E013E0ADB7BEB712961C930E931197F6
:1049700083EB91E0938382838AEE91E09583848335
:104980000E94F930EDB7FEB736960FB6F894FEBF29
:104990000FBEEDBF80E090E067E070E0A8010E94EC
:1049A0006701EF80F884E114F10409F456C08DEC3E
:1049B0009CECACECBDE38093120290931302A093A5
:1049C0001402B09315029701223031050CF445C052
:1049D000C501B30140E050E020E030E08601720103
:1049E0000E940E0CB601882777FD8095982F0E94B3
:1049F00043327B018C0160911B0370911C038091F9
:104A00001D0390911E0320911F03309120034091BC
:104A10002103509122030E9479339B01AC01C8010C
:104A2000B7010E94A8319B01AC015F77C801B701B3
:104A30000E9407340E9410327B018C01C501B30132
:104A400040E050E020E030E0870172010E940E0C4F
:104A500090933E0380933D0355C0C501B301A4016B
:104A600020E030E0860172010E940E0CB60188271A
:104A700077FD8095982F0E9443327B018C016091D5
:104A80001B0370911C0380911D0390911E032091C4
:104A90001F033091200340912103509122030E9473
:104AA00079339B01AC01C801B7010E94A8319B0179
:104AB000AC015F77C801B7010E9407340E94103231
:104AC0007B018C01C501B301A40120E030E0870126
:104AD00072010E940E0C90933E0380933D036091FF
:104AE00023037091240380912503909126030E9453
:104AF0001032462F572F57FF03C0509541955F4FF7
:104B000058874F833324222419821A82C401AA278A
:104B100097FDA095BA2F8B879C87AD87BE878F8125
:104B20009885AA2797FDA095BA2F8F87988BA98B78
:104B3000BA8B2F813885309521953F4FC901AA271F
:104B400097FDA095BA2F8B8B9C8BAD8BBE8B8091E4
:104B50003D0390913E03B2010E94100D809103032A
:104B600090910403009799F7A1E0B0E0B09304039B
:104B7000A093030320916002309161024091620290
:104B8000509163026B817C818D819E810E942931CD
:104B90007B018C016B857C858D859E850E944332CF
:104BA0009B01AC01C801B7010E94293120E030E02F
:104BB00040EA50E40E940734D62EC72EB82EA92E04
:104BC0006F85788989899A890E9443327B018C019B
:104BD0006B897C898D899E890E9443329B01AC013F
:104BE000C801B701D601F501EB2EFA2E0F2F1E2FAB
:104BF0000E94BF1B209112023091130240911402B7
:104C0000509115020E9407349B01AC01209335039B
:104C10003093360340933703509338036091350344
:104C200070913603809137039091380320912402CC
:104C3000309125022115310531F4E1E0F0E0F093E7
:104C40002502E093240220913D0330913E034091E0
:104C5000240250912502241735070CF056C080E03D
:104C600090E0DC018093750290937602A093770226
:104C7000B09378028091750290917602A0917702AC
:104C8000B09178028093FF0290930003A0930103F8
:104C9000B09302038091FF0290910003A091010361
:104CA000B09102038093690290936A02A0936B0211
:104CB000B0936C026091690270916A0280916B02FC
:104CC00090916C020E94103270933702609336020A
:104CD000709325026093240266960FB6F894DEBFA7
:104CE0000FBECDBFCF91DF911F910F91FF90EF903D
:104CF000DF90CF90BF90AF909F908F907F906F90FC
:104D00005F904F903F902F900895905820E030E0B2
:104D100048EC52E40E94A8319B01AC01D101098109
:104D2000EA806B2F722D802F9E2D0E942A31362E05
:104D3000272E89839A8360902D0370902E03809094
:104D40002F03909030038091310390913203A09112
:104D50003303B09134038F839887A987BA87E09093
:104D60003503F090360300913703109138036091BA
:104D70004A0270914B02882777FD8095982F0E94F8
:104D80004332D101D980CA802B2F3A2F4D2D5C2D73
:104D90000E942A315B016C01C401B3012F81388567
:104DA00049855A850E94A009D2CEAF92BF92CF9278
:104DB000DF92EF92FF920F931F93DF93CF93CDB7C4
:104DC000DEB7C059D1400FB6F894DEBF0FBECDBFDD
:104DD00080E090E0FC01EE0FFF1F9C0143E0220FFA
:104DE000331F4A95E1F7E20FF31FE558FD4F11829B
:104DF0001082138212821582148217821682118603
:104E0000108601968930910529F71092F80102E386
:104E100010E010930403009303031092F80107C0FD
:104E20008091030390910403009709F417C18091C6
:104E3000F8018823A9F30E942B01863551F71092BF
:104E4000F8018091F8018823E1F30E942B01A82E3C
:104E5000BB2480ED9FEFA80EB91E750184E0EE0C17
:104E6000FF1C8A95E1F7EA18FB086E010894C11C43
:104E7000D11C00E010E010C01092F8018091F80100
:104E80008823E1F30E942B0190E0C097F601819303
:104E900091936F010F5F1F4F0E151F056CF3FE01FD
:104EA000319680E090E044E650E094C02281338166
:104EB000DC01AA0FBB1FBC0113E0660F771F1A9518
:104EC000E1F7A60FB71FA558BD4F11963C932E933F
:104ED00066817781649F9001659F300D749F300DCE
:104EE0001124608571858B01000F111F660F771FDC
:104EF000660F771F660F771F060F171F200F311FD2
:104F000062857385260F371F13963C932E93129755
:104F100064857585649F9001659F300D749F300D89
:104F20001124668577858B01000F111F660F771F8F
:104F3000660F771F660F771F060F171F200F311F91
:104F400060897189260F371F15963C932E9314970D
:104F500062897389649F9001659F300D749F300D45
:104F60001124648975898B01000F111F660F771F4B
:104F7000660F771F660F771F060F171F200F311F51
:104F800066897789260F371F17963C932E931697BD
:104F9000608D718D649F9001659F300D749F300D01
:104FA0001124628D738D8B01000F111F660F771F07
:104FB000660F771F660F771F060F171F200F311F11
:104FC000648D758D260F371F19963C932E93189775
:104FD00001967E968A159B050CF468CF80E090E0E0
:104FE000DC018093750290937602A0937702B093D0
:104FF00078028091750290917602A0917702B0912B
:1050000078028093FF0290930003A0930103B09372
:1050100002038091FF0290910003A0910103B091DF
:1050200002038093690290936A02A0936B02B0938B
:105030006C026091690270916A0280916B0290919A
:105040006C020E94103270933702609336027093A4
:1050500025026093240221E030E002C020E030E02D
:10506000C901C057DE4F0FB6F894DEBF0FBECDBFEB
:10507000CF91DF911F910F91FF90EF90DF90CF9034
:10508000BF90AF900895FC01E85EFD4F808190E0F5
:10509000681779076CF0809136029091370200977B
:1050A00059F481E090E0909337028093360204C077
:1050B000109237021092360221E030E080913602E1
:1050C000909137028330910514F420E030E0C9015B
:1050D00008952F923F924F925F926F927F928F929C
:1050E0009F92AF92BF92CF92DF92EF92FF920F9377
:1050F0001F93DF93CF93CDB7DEB7A8970FB6F89481
:10510000DEBF0FBECDBF4C012B015A83498339014D
:105110001A870987FC82EB82BE82AD828091600291
:1051200090916102A0916202B091630210923702E5
:10513000109236021092040310920303809103032D
:105140009091040390933E0380933D0380913D032F
:1051500090913E03909325028093240220E030E05A
:105160000F2EF0E0EF2EF0E0FF2EF0E00F2FF0E03A
:105170001F2FF02DC901880F991F880F991FFC015F
:10518000E35DFC4FE082F182028313834081518111
:1051900062817381FC01E55EFC4F40835183628331
:1051A00073832F5F3F4F2430310521F700D000D0AB
:1051B00000D0EDB7FEB7319605E013E0ADB7BEB74E
:1051C00012961C930E93119783EB91E09383828345
:1051D0008DEE91E0958384830E94F930EDB7FEB7A0
:1051E00036960FB6F894FEBF0FBEEDBF80E090E09C
:1051F00067E070E0A8010E94670180E090E06981AB
:105200007A8140E050E020E030E08601ED80FE80D1
:105210000E940E0C90933E0380933D0328E230E001
:10522000429EC001439E900D529E900D11242091EC
:105230004A0230914B02820F931F68E671E00E9490
:10524000A537843B910524F4E1E02E2E312C03C0D8
:1052500022242A94322CC301880F991F880F991F8A
:10526000860D971D4BEF5FEF649E9001659E300D9C
:10527000749E300D1124269CA001279C500D369C55
:10528000500D112458874F83B401685F7F4F788B8E
:105290006F87D201A85EBD4FBA8BA98BA601662786
:1052A00057FD6095762F4B8B5C8B6D8B7E8BD094EE
:1052B000C194D108D394A601662757FD6095762F37
:1052C0004F8B588F698F7A8FAC01662757FD609599
:1052D000762F4B8F5C8F6D8F7E8FB901882777FD7E
:1052E0008095982F6F8F78A389A39AA388279927F1
:1052F000881999099CA38BA380913D0390913E034B
:105300006D817E810E94100D8091030390910403B2
:10531000009791F7A1E0B0E0B0930403A0930303DA
:10532000EF85F889E131F105E8F4C40197FE02C088
:105330008BA19CA1FC01E85EFD4F2081293091F0FA
:10534000181419043CF06B817C810E94432800975B
:1053500049F02EC1808190E02B813C818217930718
:105360000CF026C1A989BA898C91E82FF0E0298533
:105370003A85E21BF30BFC87EB87CF01F7FF03C0F5
:10538000909581959F4F853091052CF16B8D7C8D8B
:105390008D8D9E8D0E9443325B016C016F8D78A1D3
:1053A00089A19AA10E9443322B013C014B855C8567
:1053B000BA01882777FD8095982F0E9443327B01A0
:1053C0008C01C601B501A30192010E94BF1B0E947E
:1053D00010326B0102C0CB84DC8469817A8177FF53
:1053E00004C0D094C194D108D3947CE08716910472
:1053F00049F4EB84FC84EE0CFF1CEE0CFF1CCC2467
:10540000DD2402C0EB84FC846B897C898D899E89B4
:105410000E9443322B013C016F89788D898D9A8DD2
:105420000E9443326B877C878D879E87C70162E02D
:1054300070E00E94A537882777FD8095982F0E94FD
:1054400043327B018C01C301B2012B853C854D8524
:105450005E850E94BF1BADE08A16910409F090C0E2
:1054600020916F02309170022115310509F440C07E
:1054700080E090E0DC018093750290937602A09327
:105480007702B09378028091750290917602A09194
:105490007702B09178028093FF0290930003A0936B
:1054A0000103B09302038091FF0290910003A09149
:1054B0000103B09102038093690290936A02A09362
:1054C0006B02B0936C026091690270916A028091E4
:1054D0006B0290916C020E941032709337026093BD
:1054E0003602709325026093240221E030E0E9C087
:1054F0002091790230917A022115310509F440C0DA
:1055000080E090E0DC018093750290937602A09396
:105510007702B09378028091750290917602A09103
:105520007702B09178028093FF0290930003A093DA
:105530000103B09302038091FF0290910003A091B8
:105540000103B09102038093690290936A02A093D1
:105550006B02B0936C026091690270916A02809153
:105560006B0290916C020E9410327093370260932C
:105570003602709325026093240222E030E0A1C03D
:1055800020912402309125022115310531F4E1E00A
:10559000F0E0F0932502E093240220913D03309146
:1055A0003E03409124025091250224173507F4F55B
:1055B00080E090E0DC018093750290937602A093E6
:1055C0007702B09378028091750290917602A09153
:1055D0007702B09178028093FF0290930003A0932A
:1055E0000103B09302038091FF0290910003A09108
:1055F0000103B09102038093690290936A02A09321
:105600006B02B0936C026091690270916A028091A2
:105610006B0290916C020E9410327093370260937B
:10562000360270932502609324024CC0209131030E
:105630003091320340913303509134032DA33EA3A4
:105640004FA358A70E94103288279927861B970BD3
:10565000829DB001839D700D929D700D112488274D
:1056600077FD8095982F0E9443322B013C01D09406
:10567000C194D108D3948F819885C89EB001C99EEA
:10568000700DD89E700D1124882777FD8095982F76
:105690000E9443327B018C0160914A0270914B025F
:1056A000882777FD8095982F0E9443325B016C011B
:1056B000C301B2012DA13EA14FA158A50E94A0098E
:1056C0001BCEC901A8960FB6F894DEBF0FBECDBFA2
:1056D000CF91DF911F910F91FF90EF90DF90CF90CE
:1056E000BF90AF909F908F907F906F905F904F9002
:1056F0003F902F9008952F923F924F925F926F921A
:105700007F928F929F92AF92BF92CF92DF92EF9251
:10571000FF920F931F93DF93CF93CDB7DEB76897B8
:105720000FB6F894DEBF0FBECDBF9A8389837E8308
:105730006D8358874F833C8B2B8B5701DA86C98644
:105740008091600290916102A0916202B091630227
:105750008F87988BA98BBA8B1092370210923602E2
:1057600010920403109203038091030390910403A9
:1057700090933E0380933D0380913D0390913E03BF
:10578000909325028093240260E070E080E090E036
:10579000DC019B01220F331F220F331FF901E35D50
:1057A000FC4F80839183A283B38360807180828069
:1057B0009380255E3C4FF9016082718282829382E0
:1057C0006F5F7F4F6430710521F700D000D000D0AB
:1057D000EDB7FEB73196A5E0EA2EA3E0FA2EADB7FD
:1057E000BEB71296FC92EE92119783EB91E09383F1
:1057F000828382EF91E0958384830E94F930EDB734
:10580000FEB736960FB6F894FEBF0FBEEDBF80E030
:1058100090E067E070E0A7010E94670189819A81AA
:10582000019629E030E0B9010E94A5373C01898149
:105830009A810896B9010E94A5371C0117FD05C081
:1058400021E030E03C832B8304C08FEF9FEF9C83EB
:105850008B8380E090E0B80140E050E020E030E051
:105860008501E984FA840E940E0C90933E03809394
:105870003D03C5010A966AE070E00E94A537CB019E
:10588000AA2797FDA095BA2F8D8B9E8BAF8BB88FD3
:10589000D301A85EBD4FBC87AB87F101E85EFD4F29
:1058A000FE87ED8780913D0390913E0369857A855F
:1058B0000E94100D8091030390910403009791F7CB
:1058C00021E030E030930403209303032091600231
:1058D0003091610240916202509163026F85788934
:1058E00089899A890E942931662EA72EE82E092FD0
:1058F0006D897E898F89988D0E9443329B01AC010E
:10590000662D7A2D8E2D902F0E940734E62EF72ECD
:10591000082F192FC801B7019F7720E030E040EF32
:1059200051E40E946C33181654F40F2EF0E0EF2E61
:10593000F0E0FF2EF0E00F2FF0E01F2FF02DAB85F1
:10594000BC858C9190E0ED81FE818E179F07CCF491
:105950006C9170E06E1B7F0B882777FD8095982FE8
:105960000E94433220E030E040E650E40E940734D9
:1059700020E030E0A9010E942A310E9410325B0130
:1059800002C0AA24BB24AD85BE858C9190E0EF8136
:10599000F8858E179F072CF56C90B501882777FD49
:1059A0008095982F0E9443325B016C01662D70E058
:1059B0002F813885621B730B882777FD8095982F80
:1059C0000E94433220E030E040E650EC0E94073471
:1059D0009B01AC01C601B5010E942A310E94103220
:1059E0005B018B899C89009751F06091480270910E
:1059F000490289819A810E9443280097C1F48091CD
:105A0000240290912502009731F4A1E0B0E0B09318
:105A10002502A093240280913D0390913E032091A2
:105A2000240230912502821793070CF056C080E0C3
:105A300090E0DC018093750290937602A093770248
:105A4000B09378028091750290917602A0917702CE
:105A5000B09178028093FF0290930003A09301031A
:105A6000B09302038091FF0290910003A091010383
:105A7000B09102038093690290936A02A0936B0233
:105A8000B0936C026091690270916A0280916B021E
:105A900090916C020E94103270933702609336022C
:105AA000709325026093240268960FB6F894DEBFC7
:105AB0000FBECDBFCF91DF911F910F91FF90EF905F
:105AC000DF90CF90BF90AF909F908F907F906F901E
:105AD0005F904F903F902F90089520903103309029
