:100000000C9455000C9474000C9474000C947400BF
:100010000C9474000C9474000C9474000C94740090
:100020000C9474000C9474000C9474000C94740080
:100030000C9474000C9474000C94271B0C947400A2
:100040000C9474000C9474000C943F3F0C94740056
:100050000C9474000C9474000C9474000C94740050
:100060000C9474000C9474000C9474000C94740040
:100070000C9474000C9474000C940A010C94740099
:100080000C9474000C9474000C94740005A84CCD6E
:10009000B2D44EB93836A9020C50B9918688083CC2
:1000A000A6AAAA2ABE000000803F11241FBECFEFDF
:1000B000D0E1DEBFCDBF12E0A0E0B1E0EEE9FDE8A7
:1000C00000E00BBF02C007900D92A633B107D9F72D
:1000D00014E0A6E3B2E001C01D92A33DB107E1F731
:1000E0000E946D040C94E73F0C94000094EA9093F6
:1000F00074009091740097FFFCCF9AE09093730086
:1001000094E8909374009091740097FFFCCF8093D3
:10011000730084E8809374008091740087FFFCCFA3
:1001200084E98093740084EA809374008091740061
:1001300087FFFCCF8BE08093730084E8809374008A
:100140008091740087FFFCCF84E8809374008091D5
:10015000740087FFFCCF8091730094E99093740042
:10016000089594EA909374009091740097FFFCCFE7
:100170009AE09093730094E89093740090917400C7
:1001800097FFFCCF8093730084E880937400809184
:10019000740087FFFCCF6093730084E88093740041
:1001A0008091740087FFFCCF84E9809374000895E8
:1001B00010929B0088E980939A0086E080939D00CE
:1001C000109298008FE580939900789408951F937A
:1001D0001FEF1093730081E4809370000E9451140C
:1001E0000E942B3F0E94D8000E944B131FBC85E049
:1001F0008EBD1DBD80E78CBD84E087BF78948FE005
:1002000087BB81B3807F81BB84B3806F84BB18BA06
:100210001F9108951F920F920FB60F9211248F9382
:10022000DF93CF930F92CDB7DEB780919C00898387
:1002300080919B00887BE1F381E080933602898185
:10024000809337020F90CF91DF918F910F900FBE67
:100250000F901F901895DF93CF930F92CDB7DEB715
:1002600080913702898310923702F89410923602F7
:10027000789489810F90CF91DF91089590919B00A0
:1002800095FFFCCF80939C000895CF93DF93E4E724
:10029000F0E094EA9083A1EEB2E01197F1F700004C
:1002A000A3E7B0E09EE09C9394E89083C1EED2E097
:1002B0002197F1F700008C93908381EE92E00197F3
:1002C000F1F7000084E98083DF91CF910895EF92E8
:1002D000FF920F931F93DF93CF9300D0CDB7DEB77C
:1002E000082F162F843070F5643160F58BE1498357
:1002F0005A830E9445018CE40E944501812F0E948F
:100300004501802F0E94450180E791E00197F1F7B8
:1003100000C0E12EFF2449815A81042F152F06C009
:100320000E94450194EC9A95F1F700C0E4E1EE16C5
:10033000F10444F4F80181918F010894E11CF11C4F
:10034000882371F70F900F90CF91DF911F910F913C
:10035000FF90EF9008951F93DF93CF9300D0CDB718
:10036000DEB7182F8430F0F46431E0F48BE12A8397
:1003700069830E9445018CE40E9445016981862FB2
:100380000E944501812F0E94450180E791E001977D
:10039000F1F700C02A81822F0E94450194EC9A95C2
:1003A000F1F700C00F900F90CF91DF911F9108954A
:1003B0008BE10E94450183E40E94450186E696EEAA
:1003C000A0E081509040A040E1F70895EF92FF92A5
:1003D0000F931F93182FF62EE42E842F64E60E94AD
:1003E0009A46082F282F30E0205D3F4F442737FDE5
:1003F0004095542F812F6F2D0E94AB018CE9089FEF
:10040000002D11240E0D802F6AE00E949A46E82EDE
:100410006F2D6F5F282F30E0205D3F4F442737FD61
:100420004095542F812F0E94AB016F2D6E5F26EFF8
:10043000E29E202D1124200F30E0205D3F4F442705
:1004400037FD4095542F812F0E94AB011F910F91D2
:10045000FF90EF900895EF92FF920F931F9380E02B
:1004600090E062E070E040E050E020E030E00AE040
:1004700010E0E8E7EE2EF12C0E94AA2680E090E042
:100480006CEF7FEF40E050E020E030E00E94AA26D1
:1004900080E090E066E070E040E050E020E030E096
:1004A0000E94AA2680E090E068EF7FEF40E050E0F5
:1004B00020E030E00E94AA2680E090E06AE070E050
:1004C00040E050E020E030E00E94AA2680E090E08A
:1004D00064EF7FEF40E050E020E030E00E94AA2689
:1004E00080E090E06EE070E040E050E020E030E03E
:1004F0000E94AA261F910F91FF90EF9008950F93ED
:100500001F93CF93DF93EC018B01CB016FEF7FEF54
:1005100048E050E00E94F33FC330D1052CF0CE01FB
:100520000397F80191838083CE0163E070E00E941D
:10053000A6461816190634F49E0121503040F801E1
:1005400033832283C630D10534F49E012D5F3F4FA3
:10055000F801358324838230910521F02196F8013A
:10056000D783C683DF91CF911F910F910895EEE657
:10057000F3E0A6E5B2E0219131918D919D9128178C
:10058000390739F483E0E038F807A9F721E030E0D3
:1005900002C020E030E0C90108954F925F926F924F
:1005A0007F928F929F92AF92BF92CF92DF92EF9203
:1005B000FF920F931F93CF93DF932C017B01EA01EE
:1005C00069018091800390918103481759070CF0CD
:1005D0007EC08091680290916902009709F077C00F
:1005E00002E813E0FA01EE0FFF1FE00FF11FF182A6
:1005F000E0820E94B7020097B9F04AE053E09E0102
:100600002F5F3F4F220F331FCA01B801A9010E947B
:10061000EA3FD0938103C093800381E090E0909300
:1006200069028093680253C08701000F111F0C0DEF
:100630001D1DC70133E0880F991F3A95E1F72AE69F
:10064000A22E22E0B22EA80EB91EB2E76B2EB2E0A7
:100650007B2E680E791E4E010894811C911CF501B9
:10066000619171915F0177FD2FC06415750561F18E
:10067000F801808191819093430280934202EB01C3
:10068000CC0FDD1FCC0DDD1D888199819183808386
:10069000809142029091430299838883C701A4010B
:1006A00096010E94CD02F8018081918190934302CE
:1006B0008093420288819981918380838091420254
:1006C0009091430299838883A614B70441F6DF9181
:1006D000CF911F910F91FF90EF90DF90CF90BF903F
:1006E000AF909F908F907F906F905F904F90089504
:1006F0002F923F924F925F926F927F928F929F9232
:10070000AF92BF92CF92DF92EF92FF920F931F931F
:10071000CF93DF931C016B0105E010E0A3E0AA2E4C
:10072000B12CF9E9EF2EF4E0FF2EE0E04E2EE1E0EF
:100730005E2EB0923F02A0923E0280E062E10E94F3
:10074000F03E8823D1F30E946A3D80E063E10E947D
:10075000F03E8823D1F3C0E0D0E0FE01EE0FFF1F92
:10076000CE0163E0880F991F6A95E1F7E80FF91F42
:10077000EF5EFB4F80819181009709F48FC00E944A
:10078000D80180913E0266E60E94F03E782E80916C
:100790003E0267E60E94F03E882E90903E026090F6
:1007A0003F02892D68E60E94F03E2DB73EB72C50DF
:1007B00030400FB6F8943EBF0FBE2DBFEDB7FEB769
:1007C0003196ADB7BEB71296FC92EE921197538256
:1007D0004282948265827682178280861186828721
:1007E00013860E94FA3F2DB73EB7245F3F4F0FB6E6
:1007F000F8943EBF0FBE2DBF82E060E0A7010E94CB
:10080000670180913C0290913D02009731F00E9477
:100810008C1DB59BFECFB599FECFFE01EE0FFF1FDD
:10082000CE0143E0880F991F4A95E1F7E80FF91FC1
:10083000EF5EFB4F828193818219930997FF03C07A
:10084000909581959F4F8431910544F5FE01EE0FFF
:10085000FF1FCE0123E0880F991F2A95E1F7E80FCB
:10086000F91FEF5EFB4F848195818C199D0997FFDD
:1008700003C0909581959F4F843191057CF4FE01D2
:10088000EE0FFF1FA3E0CC0FDD1FAA95E1F7EC0FE1
:10089000FD1FEF5EFB4F208131810BC02196C930D7
:1008A000D10509F05ACF0150104009F042CF20E0A5
:1008B00030E0C901DF91CF911F910F91FF90EF9030
:1008C000DF90CF90BF90AF909F908F907F906F9070
:1008D0005F904F903F902F9008952F923F924F92AC
:1008E0005F926F927F928F929F92AF92BF92CF92C0
:1008F000DF92EF92FF920F931F93CF93DF930E94AB
:10090000E7008EE161E00E94B1008EE165E00E94A7
:10091000B1008EE164E10E94B1008EE160E10E94CD
:10092000B1000E94D63E8BE00E940E3F82E30E94FF
:10093000CE1D80E063E10E94F03E8823D1F30FEFEB
:100940001FE726E1015010402040E1F700C0000001
:1009500080E090E0DC018093EE039093EF03A0939E
:10096000F003B093F1032091EE033091EF03409137
:10097000F0035091F1032093EA033093EB0340938B
:10098000EC035093ED032091EA033091EB03409187
:10099000EC035091ED032093E6033093E70340937B
:1009A000E8035093E9038093FA039093FB03A09329
:1009B000FC03B093FD038091FA039091FB03A09197
:1009C000FC03B091FD038093F6039093F703A0938B
:1009D000F803B093F903C39A2FEF3FE744E02150A7
:1009E00030404040E1F700C00000C3980F2EF0E017
:1009F0006F2EF0E07F2EF0E08F2EF0E09F2EF02D96
:100A0000C9E9D4E0B49914C080913C0290913D02B0
:100A1000019790933D0280933C02C39A4FEF5FE7AA
:100A200064E0415050406040E1F700C00000C398CE
:100A3000B69914C080913C0290913D02019690932A
:100A40003D0280933C02C39A6FEF7FE784E06150E0
:100A500070408040E1F700C00000C398B599C5C65A
:100A60000E94D801C39A8FEF9FE7A4E08150904085
:100A7000A040E1F700C00000C39880913C02909133
:100A80003D0297FDB2C68230910534F00397833062
:100A9000910508F0AAC6D0C210920703109206036F
:100AA00005E010E00DC085E690E063E070E00E9494
:100AB000E01D90930703809306030150104031F02E
:100AC0008091060390910703009769F380910603D4
:100AD00090910703009709F4EEC060E070E080E7B2
:100AE00091E444E150E00E94A3318FE090E09093C4
:100AF0000103809300038CE090E065E070E04BEF31
:100B00005FEF23E030E00BE010E0EE24FF24A8E2EA
:100B1000CA2ED12CF2E3AF2EB12C0E94F32A8AE028
:100B200090E065E070E04BEF5FEF25E030E0AA2455
:100B3000BB240E94F32A85E090E065E070E048E184
:100B40005CEF23E030E00E94F32A80E090E062EE68
:100B50007FEF40E050E028E230E000E010E00E944B
:100B6000E72286EF9FEF6AE570E040E050E023E285
:100B700030E00E94C52F84E190E060E070E04CE33B
:100B800050E02EE130E00E94292EA1EFBFEFB0939C
:100B90000103A093000385E090E06BE070E041E189
:100BA00050E028E230E008E11CEFE8E2EE2EF12C04
:100BB000CC24DD240E94EE358CE090E064E070E00F
:100BC0004BEF5FEF23E030E00BE010E0EE24FF247A
:100BD000B8E2CB2ED12C0E94F32A8AE090E064E0A8
:100BE00070E04BEF5FEF25E030E00E94F32A8BEFDF
:100BF0009FEF64E070E048E15CEF25E030E0A4E1C5
:100C0000EA2EF12C0E94F32A80E090E066EF7FEF5D
:100C10004FE050E028E230E00EEC1FEFFEE1EF2E57
:100C2000F12C0E9401336092DE027092DF0280920A
:100C3000E0029092E1026092C4027092C50280923A
:100C4000C6029092C702EAE5F0E0F0930103E09358
:100C5000000383E090E06AE770E044E050E024ECB9
:100C600030E005E010E0EAEAEE2EF12CBEE1CB2EFA
:100C7000D12CAEE1AA2EB12C0E940C3810920103A7
:100C80001092000380E090E06CE070E040E150E002
:100C900020E030E00FE410E0F8E2EF2EF12CE2E388
:100CA000CE2ED12C0E94EE3581E090E0909341024F
:100CB0008093400240C08CE090E061E070E045E04D
:100CC00050E023E030E00BE010E0EE24FF24B8E237
:100CD000CB2ED12CA2E3AA2EB12C0E94F32A8AE0BB
:100CE00090E061E070E045E050E025E030E0AA24CB
:100CF000BB240E94F32A81E090E061E070E048EEBE
:100D000053E023E030E0F4E1EF2EF12C0E94F32ACF
:100D100082E090E066E270E046EA5FEF28E230E0D1
:100D20000EEC1FEFE0E5EE2EF12C0E940133109245
:100D300041021092400204E1402E512C11E0212E7C
:100D4000312CCC24CA94DC2CD0928201C092810137
:100D50008091CF02803138F002E010E010938201E0
:100D60000093810111C08091D0028B3028F0309225
:100D700082012092810108C08091D102853120F04A
:100D800010928201109281010E94D80100D000D0FF
:100D900000D0EDB7FEB73196ADB7BEB71296DC9373
:100DA000CE931197B3E1CB2EB1E0DB2ED382C2827A
:100DB0008091810190918201958384830E94FA3F02
:100DC0000DB71EB70A5F1F4F0FB6F8941EBF0FBEB8
:100DD0000DBF81E061E0AE010E94670120918101B9
:100DE00030918201809140029091410237FD10C004
:100DF000009709F48AC080E090E06AE070E040E08B
:100E000050E028E230E00EEC1FEF0E94E7227DC0A8
:100E1000009719F4E2E3F0E002C0E0E0F0E08CE0DB
:100E200090E061E070E045E050E023E030E00CE06D
:100E300010E0EE24FF24A8E2CA2ED12C5F010E940C
:100E4000F32A8AE090E061E070E04EE150E025E0B6
:100E500030E0AA24BB240E94F32A82E090E061E201
:100E600070E046EA5FEF23E230E003ED1FEF0E94FF
:100E7000292E6092DE027092DF028092E002909250
:100E8000E1026092C4027092C5028092C602909202
:100E9000C7022AE530E0309301032093000383E08A
:100EA00090E06AE770E044E050E024EC30E005E0D8
:100EB00010E0BAEAEB2EF12CAEE1CA2ED12CFEE105
:100EC000AF2EB12C0E940C38109201031092000337
:100ED00080E090E06CE070E040E150E020E030E045
:100EE0000FE410E0E8E2EE2EF12CB2E3CB2ED12C91
:100EF0000E94EE353092410220924002089441084F
:100F000051084114510409F01CCF80E090E066EFD5
:100F10007FEF4FE050E02EE130E008E210E00E9469
:100F2000292E8FE090E0909301038093000384E0EA
:100F300090E06BE070E041E150E028E230E008E151
:100F40001CEFA8E2EA2EF12CCC24DD240E94EE3521
:100F50008CE090E063E070E04BEF5FEF23E030E087
:100F600001E110E0EE24FF24F8E2CF2ED12CAA24D8
:100F7000BB240E94F32A8AE090E063E070E04BEF2C
:100F80005FEF25E030E00E94F32A8CEF9FEF63E0F3
:100F900070E048E15CEF25E030E0E4E1EE2EF12C7A
:100FA0000E94F32A80E090E066EF7FEF41EF5FEF71
:100FB00028E230E00EEC1FEFBEE1EB2EF12C0E9498
:100FC00001336092DE027092DF028092E002909222
:100FD000E1026092C4027092C5028092C6029092B1
:100FE000C7024AE550E0509301034093000383E0B9
:100FF00090E06AE770E044E050E024EC30E005E087
:1010000010E0AAEAEA2EF12CFEE1CF2ED12CEEE17F
:10101000AE2EB12C0E940C381092010310920003E6
:1010200080913C0290913D02009731F00E948C1D0E
:10103000B59BFECFB599FECF80913C0290913D02C9
:101040008330910529F4109282011092810113C01E
:101050008430910539F481E090E09093820180938F
:10106000810109C08530910531F462E070E0709330
:101070008201609381016092DE027092DF028092B1
:10108000E0029092E1026092C4027092C5028092E6
:10109000C6029092C7028AE590E090930103809384
:1010A000000383E090E06AE770E044E050E024EC65
:1010B00030E005E010E0BAEAEB2EF12CAEE1CA2EEA
:1010C000D12CFEE1AF2EB12C0E940C3810920103FE
:1010D0001092000380E090E069E170E046EF5FEF7E
:1010E0002EE130E00CE810E0E4E1EE2EF12C0E945D
:1010F000013386EF9FEF909301038093000380E01C
:1011000090E060E070E00E94780390934502809345
:10111000440280E090E060E070E00E9478039093E9
:1011200045028093440280E090E060E270E040EB92
:101130005FEF2EE130E0B4E6EB2EF12C0E9401339C
:101140006092DE027092DF028092E0029092E102F1
:101150006092C4027092C5028092C6029092C70249
:10116000AAE5B0E0B0930103A093000380E090E013
:1011700060E070E044E050E024EC30E005E010E096
:10118000AAEAEA2EF12C0E940C3810920103109268
:10119000000380E090E068E270E042E350E02EE17E
:1011A00030E00CE810E0F0E5EF2EF12C0E94013366
:1011B00080E090E060E070E00E9478039093470246
:1011C0008093460260E070E080E291EC44E150E000
:1011D0000E94A33180E090E060E070E00E9478031C
:1011E000909349028093480280E090E060E070E0D4
:1011F0000E94780390934D0280934C0260E070E06F
:1012000080EA91EC48E250E00E94A33180E090E057
:1012100060E070E00E94780390934F0280934E024A
:1012200060E070E080E292EC4CE350E00E94A33179
:1012300080E090E060E070E00E94780390935302B9
:101240008093520280E090E060E070E00E947803BA
:101250009093550280935402ECEEFFEFF09301035C
:10126000E093000380E090E066E470E040E050E04E
:1012700028E230E002E310E00E94E72281E090E003
:101280006AE270E04AEB5FEF23E230E003ED1FEF2C
:10129000E4E6EE2EF12C0E9401331092010310922D
:1012A00000036092DE027092DF028092E002909270
:1012B000E1026092C4027092C5028092C6029092CE
:1012C000C70280E090E060E070E041E050E025EA95
:1012D00030E003E010E0BDE9EB2EF12C0E940C3869
:1012E0008CE090E061E070E045E050E023E030E029
:1012F0000EE010E0EE24FF24A8E2AA2EB12C0E94FA
:10130000F32A8AE090E061E070E04AE050E025E0F6
:1013100030E0F8EDAF2EFFEFBF2E0E94F32A80E001
:1013200090E060E070E00E94780390936702809301
:10133000660280E090E060E070E00E9478039093A5
:1013400065028093640280E090E060E070E00E94BB
:10135000780390936302809362028091810190915F
:1013600082018230910551F080E090E060E070E011
:101370000E947803909361028093600280918101C2
:10138000909182010097D9F480E090E06EE170E0E6
:1013900040E050E02EE130E00CE810E00E94E7224F
:1013A00080E090E060E070E00E94780390935F023C
:1013B00080935E0280E090E066E470E052C081308D
:1013C000910509F580E090E066E470E040E050E0CF
:1013D00028E230E006E910E00E94E72280E090E099
:1013E00060E070E00E94780390935D0280935C025D
:1013F00080E090E06EE170E040E050E02EE130E00F
:101400000CE810E034C080E090E06EE170E040E075
:1014100050E02EE130E00CE810E00E94E72280E08E
:1014200090E060E070E00E94780390935F02809308
:101430005E0280E090E06EE170E040E050E02EE17E
:1014400030E00E94E72280E090E060E070E00E94DF
:10145000780390935D0280935C0280E090E068E204
:1014600070E040E050E028E230E006E910E00E9441
:10147000E72280E090E060E070E00E9478039093C3
:101480005B0280935A0280E090E060E070E00E948E
:101490007803909359028093580280E090E060E0D6
:1014A00070E00E947803909357028093560280E088
:1014B00090E066EF7FEF42EE5FEF2EE130E00CE868
:1014C00010E0ECE3EE2EF12C0E940133B1EFCB2EB5
:1014D000BFEFDB2ED0920103C092000380E090E0CA
:1014E00060E070E00E94780390934502809344028C
:1014F00080E090E06EE170E040E050E028E230E013
:1015000002E310E00E94E72283E090E063E270E0F3
:1015100045EB5FEF23E230E003ED1FEF0E94292E41
:101520006092DE027092DF028092E0029092E1020D
:101530006092C4027092C5028092C6029092C70265
:101540000AE510E0109301030093000383E090E0AC
:101550006AE770E044E050E024EC30E005E010E0A1
:10156000AAEAEA2EF12CFEE1CF2ED12CEEE1AE2E2E
:10157000B12C0E940C3810920103109200030E94BB
:10158000D80160913802709139029B012F5F3F4F63
:10159000CB0102964DB75EB7405150400FB6F8945C
:1015A0005EBF0FBE4DBFEDB7FEB73196ADB7BEB74C
:1015B0001296DC93CE931197BEE1CB2EB1E0DB2ED9
:1015C000D382C282660F771FDB01AC5BBD4F4D91AA
:1015D0005C9155834483220F331FD901AC5BBD4F0F
:1015E0004D915C9157834683880F991FDC01AC5B5A
:1015F000BD4F4D915C91518740876A5A7D4FDB0109
:101600004D915C91538742872A5A3D4FD9012D91C4
:101610003C91358724878A5A9D4FDC018D919C919E
:10162000978786870E94FA3FEDB7FEB770960FB690
:10163000F894FEBF0FBEEDBF81E061E0AE010E94F5
:1016400067018091380290913902BC016D5F7F4F34
:1016500070933902609338029C012C5F3F4F0596CE
:101660000DB71EB7005110400FB6F8941EBF0FBE45
:101670000DBFEDB7FEB73196ADB7BEB71296DC938E
:10168000CE931197D382C282660F771FDB01AC5BCA
:10169000BD4F4D915C9155834483220F331FD90177
:1016A000AC5BBD4F4D915C9157834683880F991F6A
:1016B000DC01AC5BBD4F4D915C91518740876A5A0C
:1016C0007D4FDB014D915C91538742872A5A3D4FF4
:1016D000D9012D913C91358724878A5A9D4FDC0191
:1016E0008D919C91978786870E94FA3FEDB7FEB750
:1016F00070960FB6F894FEBF0FBEEDBF82E061E0BA
:10170000AE010E9467018091380290913902BC01BC
:101710006D5F7F4F70933902609338029C012C5F9C
:101720003F4F05960DB71EB7005110400FB6F89405
:101730001EBF0FBE0DBFEDB7FEB73196ADB7BEB73A
:101740001296DC93CE931197D382C282660F771FD5
:10175000DB01AC5BBD4F4D915C9155834483220FFF
:10176000331FD901AC5BBD4F4D915C9157834683CC
:10177000880F991FDC01AC5BBD4F4D915C91518787
:1017800040876A5A7D4FDB014D915C9153874287B8
:101790002A5A3D4FD9012D913C91358724878A5A89
:1017A0009D4FDC018D919C91978786870E94FA3F1F
:1017B000EDB7FEB770960FB6F894FEBF0FBEEDBF43
:1017C00083E061E0AE010E94670180913C0290914C
:1017D0003D02009731F00E948C1DB59BFECFB5995C
:1017E000FECFB599FECFB59BFECF80913C02909184
:1017F0003D02009709F445C04091D0023091CF02DC
:101800002091CE029091D6028091D5020DB71EB7DD
:101810000E5010400FB6F8941EBF0FBE0DBFEDB7AF
:10182000FEB73196ADB7BEB71296DC93CE93119743
:1018300002E3C02E01E0D02ED382C28244831582FF
:1018400036831782208711869287138684871586B0
:101850000E94FA3F0DB71EB7025F1F4F0FB6F894F4
:101860001EBF0FBE0DBF80E060E0AE010E946701A9
:101870003091D1022091D2029091D3028091D40272
:1018800044C04091E4023091E3022091E202909141
:10189000EA028091E9026DB77EB76E5070400FB6D4
:1018A000F8947EBF0FBE6DBFEDB7FEB73196ADB7F2
:1018B000BEB71296DC93CE93119712E3C12E11E0BE
:1018C000D12ED382C2824483158236831782208729
:1018D000118692871386848715860E94FA3F0DB77A
:1018E0001EB7025F1F4F0FB6F8941EBF0FBE0DBF8D
:1018F00080E060E0AE010E9467013091E502209136
:10190000E6029091E7028091E8024DB75EB74C5035
:1019100050400FB6F8945EBF0FBE4DBFEDB7FEB797
:101920003196ADB7BEB71296DC93CE931197BBE458
:10193000CB2EB1E0DB2ED382C28234831582268384
:10194000178290871186828713860E94FA3F0DB70F
:101950001EB7045F1F4F0FB6F8941EBF0FBE0DBF1A
:1019600081E060E0AE010E94670180913C029091AD
:101970003D0297FF03C0909581959F4F69E070E00D
:101980000E94A64690933F0280933E020E94341527
:1019900080913E0266E60E94F03E482E80913E0213
:1019A00067E60E94F03EE82E00913E0220903F0242
:1019B000802F68E60E94F03E2DB73EB72C50304095
:1019C0000FB6F8943EBF0FBE2DBFEDB7FEB73196F0
:1019D000ADB7BEB71296DC93CE931197A0E0CA2E96
:1019E000A1E0DA2ED382C282048325824682178246
:1019F000E0861186828713860E94FA3F0DB71EB7D4
:101A0000045F1F4F0FB6F8941EBF0FBE0DBF82E0DC
:101A100060E0AE010E946701209107043091080444
:101A20004091090450910A04A0900504B090060466
:101A3000A091BF04B091C004E0909304F09094048E
:101A400040900F0450901004209003043090040440
:101A50006091F6037091F7038091F8039091F90378
:101A6000EDB7FEB774970FB6F894FEBF0FBEEDBF8B
:101A70000DB71EB70F5F1F4FD283C183E4E6CE2E92
:101A8000E1E0DE2EF801D382C282358324835783BE
:101A90004683B186A086B387A287F586E4865786FB
:101AA0004686318A208A0E941141D80153967C9340
:101AB0006E9352970E94FA3FEDB7FEB774960FB639
:101AC000F894FEBF0FBEEDBF83E060E0AE010E9460
:101AD000670100D000D000D0EDB7FEB73196ADB7AA
:101AE000BEB71296DC93CE931197BAE7CB2EB1E036
:101AF000DB2ED382C28280913C0290913D0295837D
:101B000084830E94FA3F0DB71EB70A5F1F4F0FB6BE
:101B1000F8941EBF0FBE0DBF83E060E1AE010E94CE
:101B200067010C9402058F929F92AF92BF92CF9261
:101B3000DF92EF92FF920F931F93CF93DF9380E09A
:101B400090E0DC018093DE029093DF02A093E0023C
:101B5000B093E1028093C4029093C502A093C602A1
:101B6000B093C7028AE590E090930103809300034D
:101B700083E090E06AE770E044E050E024EC30E07D
:101B800005E010E0FAEAEF2EF12CEEE1CE2ED12C9A
:101B9000BEE1AB2EB12C0E940C38109201031092C2
:101BA000000380E090E063E270E04CEE5FEF2EE136
:101BB00030E008E210E00E94292E109207031092F4
:101BC0000603C5E0D0E00CC085E690E063E070E07D
:101BD0000E94E01D9093070380930603219731F044
:101BE0008091060390910703009771F3809106039B
:101BF00090910703009721F488248A94982C03C0BD
:101C0000A2E08A2E912C81E090E06AE270E04AEB3B
:101C10005FEF2EE130E000E010E00E94292E8CE022
:101C200090E061E070E045E050E023E030E00CE05F
:101C300010E0EE24FF24F8E2CF2ED12CE2E3AE2E0A
:101C4000B12C0E94F32A8AE090E061E070E045E068
:101C500050E025E030E0AA24BB240E94F32A81E072
:101C600090E061E070E048EE53E023E030E0B4E162
:101C7000EB2EF12C0E94F32A80910603909107032A
:101C8000009771F01DC085E690E063E070E00E946F
:101C9000E01D9093070380930603219719F408C071
:101CA000C5E0D0E08091060390910703009759F3B7
:101CB0008091060390910703009711F088249924DE
:101CC00080910603909107030097A9F580E090E0CA
:101CD00065E170E04AEB5FEF28E230E00EEC1FEFC9
:101CE000AAE5EA2EF12C0E9401338AEB9FEF909334
:101CF000010380930003C5E0D0E00CC085E690E0CE
:101D000063E070E00E94E01D909307038093060358
:101D1000219731F08091060390910703009771F3AA
:101D20008091060390910703009709F01DC2F1E02E
:101D30008F2E912C8AC08114910409F086C080E016
:101D400090E06BE070E04FE050E020E030E00DE22A
:101D500010E0E8E2EE2EF12CCC24DD240E94EE35DA
:101D60008CE090E061E070E045E050E023E030E09E
:101D70000CE010E0EE24FF24B8E2CB2ED12CAA24F4
:101D8000BB240E94F32A8AE090E061E070E045E025
:101D900050E025E030E00E94F32A81E090E061E02D
:101DA00070E048EE53E023E030E0A4E1EA2EF12CAD
:101DB0000E94F32A82E090E06AE270E046EA5FEF78
:101DC0002EE130E000E010E00E94292E8CE090E04F
:101DD00061E070E045E050E023E030E00CE010E02E
:101DE000EE24FF24F2E3AF2EB12C0E94F32A8AE006
:101DF00090E061E070E043E250E025E030E0AA24AA
:101E0000BB240E94F32A82E090E060E270E046EAA0
:101E10005FEF2EE130E000E010E00E94292E8CE020
:101E200090E061E070E045E050E023E030E00CE05D
:101E300010E0E2E3AE2EB12C0E94F32A8AE090E09B
:101E400061E070E044E650E03EC181E08816910414
:101E500009F0CDC060E070E08CE093E444E650E02F
:101E60000E94A33186E490E09093010380930003E5
:101E70008EEF9FEF62E170E044E150E02EE130E050
:101E800008E210E00E94292E109201031092000334
:101E90008CE090E068E070E045E050E023E030E066
:101EA00000E110E0EE24FF24B8E2CB2ED12CAA24CE
:101EB000BB240E94F32A8AE090E068E070E045E0ED
:101EC00050E025E030E00E94F32A88E090E068E0EE
:101ED00070E048EE53E023E030E0A9E1EA2EF12C77
:101EE0000E94F32A82E090E069E270E046EA5FEF48
:101EF00023E230E000E010E00E94292E8CE090E028
:101F000061E070E045E050E023E030E00CE010E0FC
:101F1000EE24FF24F2E3CF2ED12CECE3AE2EB12C35
:101F20000E94F32A8AE090E061E070E04EE150E028
:101F300025E030E0AA24BB240E94F32A82E090E04E
:101F400060E270E046EA5FEF23E230E000E010E09C
:101F50000E94292E8CE090E061E070E045E050E0C6
:101F600023E030E00CE010E0BCE3AB2EB12C0E948B
:101F7000F32A8AE090E061E070E04EE650E025E070
:101F800030E0AA24BB240E94F32A82E090E062E2BF
:101F900070E046EA5FEF2DE230E000E010E00E94E2
:101FA000292E8CE090E061E070E045E050E023E015
:101FB00030E00CE010E0ACE3AA2EB12C0E94F32A32
:101FC0008AE090E061E070E044E650E025E030E037
:101FD000AA24BB240E94F32A82E090E060E270E031
:101FE00046EA5FEF2DE230E009EC1FEF7CC082E0B3
:101FF0008816910459F482E090E067E270E046EAC6
:102000005FEF2EE130E000E010E00AC080E090E0F9
:1020100062E170E04CEE5FEF29E130E00EE110E0AC
:102020000E94292E10920103109200038CE090E090
:1020300061E070E045E050E023E030E00CE010E0CB
:10204000EE24FF24F8E2CF2ED12CAA24BB240E9438
:10205000F32A8AE090E061E070E045E050E025E09E
:1020600030E00E94F32A81E090E061E070E048EE09
:1020700053E023E030E0E4E1EE2EF12C0E94F32A5D
:1020800082E090E065E270E046EA5FEF2EE130E04A
:1020900000E010E00E94292E8CE090E061E070E00A
:1020A00045E050E023E030E00CE010E0EE24FF24B7
:1020B000B2E3AB2EB12C0E94F32A8AE090E061E0FB
:1020C00070E04EE150E025E030E0AA24BB240E94FD
:1020D000F32A82E090E060E270E046EA5FEF2EE1F2
:1020E00030E008ED1FEF0E94292E80E090E0DC0137
:1020F0008093DE029093DF02A093E002B093E102AE
:102100008093C4029093C502A093C602B093C70205
:102110008AE590E0909301038093000383E090E0D0
:102120006AE770E044E050E024EC30E005E010E0C5
:10213000AAEAEA2EF12CFEE1CF2ED12CEEE1AE2E52
:10214000B12C0E940C381092010310920003DF9111
:10215000CF911F910F91FF90EF90DF90CF90BF90A4
:10216000AF909F908F900895B3E08B2E912C6DCE01
:10217000FC01A3E0EE0FFF1FAA95E1F7E659FD4F22
:1021800020E030E0819191918617970711F4C90101
:1021900008952F5F3F4F24303105A1F70895681B44
:1021A000790BCB0177FF04C088279927861B970BF3
:1021B0008330910529F4CB016DEF7FEF0E94A64695
:1021C0008AE590E0689F9001699F300D789F300DFF
:1021D0001124C9010895CF92DF92EF92FF920F93DD
:1021E0001F93CF93DF930E94B8107C0180913A0235
:1021F00090913B028E159F0571F0B7010E94B810B7
:10220000AC0180E090E060E070E02CE330E002E8B8
:1022100010E00E94E722CBE2D2E0FE010995F092A5
:102220003B02E0923A0282E090E060E070E048EE2B
:1022300053E028E230E002E310E00E941A3C80E024
:1022400090E068E170E04CE45FEF28E230E00EECF3
:102250001FEFECE3EE2EF12CB2E8CB2ED12C0E9436
:102260002B29FE01099580E090E0DC018093EE03CC
:102270009093EF03A093F003B093F1032091EE034A
:102280003091EF034091F0035091F1032093EA0362
:102290003093EB034093EC035093ED032091EA035A
:1022A0003091EB034091EC035091ED032093E60352
:1022B0003093E7034093E8035093E9038093FA03D4
:1022C0009093FB03A093FC03B093FD038091FA036A
:1022D0009091FB03A091FC03B091FD038093F60362
:1022E0009093F703A093F803B093F90382E090E092
:1022F00060E070E048EE53E02EE130E008E210E0EC
:102300000E941A3C80E090E061E070E040E050E024
:102310002EE130E008ED1FEF0E94E7226091EA0312
:102320007091EB038091EC039091ED0390580E9423
:1023300011419B01AC0180E090E0B90140E050E028
:102340002EE130E00CE810E00E94E72280913A0292
:1023500090913B02029664E070E00E94A646909342
:102360003B0280933A02DF91CF911F910F91FF9032
:10237000EF90DF90CF90089590E0FC01B096FE2F93
:10238000EE2720812093FE0320FDFBCF8896B82FF7
:10239000AA278C9190819093FE0390FDFBCF089526
:1023A00090E08096F82FEE2780818093FE0380FDD9
:1023B000FBCF608380818093FE0380FDFBCF089577
:1023C00080E061E00E94D01182E061E00E94D011C3
:1023D00081E061E00E94D0110895A82FB0E0FD01D6
:1023E000B096FE2FEE2780818093FE0380FDFBCF09
:1023F0009896BA2FAA27872F992787FD9A958C93AD
:1024000080818093FE0380FDFBCF6C93808180935D
:10241000FE0380FDFBCF08951F93CF93DF93182F0A
:1024200080E06FE10E94D011C1E0D0E002C0CC0F8B
:10243000DD1F1A95E2F780E0BE010E94ED1181E0F8
:102440006FE10E94D01181E0BE010E94ED1182E097
:102450006FE10E94D01182E0BE010E94ED1180E088
:1024600061E00E94D01182E061E00E94D01181E021
:1024700061E00E94D011DF91CF911F910895DF920A
:10248000EF92FF920F931F93D82E7A018B019B013D
:10249000552737FD5095452FB9010E94ED118D2D1F
:1024A000B7010E94ED111F910F91FF90EF90DF9007
:1024B00008951F93182F60E00E94D0118CEC9CE1CE
:1024C0000197F1F700C00000812F6DE10E94D0114B
:1024D000812F60E070E00E94ED111F910895AF928E
:1024E000BF92CF92DF92EF92FF920F931F93CF9301
:1024F000DF93F82E6B01EA018901AA24A3946115E8
:10250000710509F4AA24BB24B394209709F4BB24D1
:10251000EE24E3940115110509F4EE248F2D6EE1EC
:102520000E94D0116B2D70E0660F771F660F771F2A
:102530008A2D90E043E0880F991F4A95E1F7682BB8
:10254000792B8E2D90E0880F991F682B792B8F2D7A
:102550000E94ED11AA2021F08F2DB6010E94ED11ED
:10256000BB2021F08F2DBE010E94ED11EE2021F045
:102570008F2DB8010E94ED118F2D64E00E94D011C3
:10258000DF91CF911F910F91FF90EF90DF90CF904F
:10259000BF90AF9008958F929F92AF92BF92CF92CB
:1025A000DF92EF92FF920F931F93CF93DF93F82E5A
:1025B0004B016A01E901AA24A3946115710509F48C
:1025C000AA24BB24B394C114D10409F4BB24EE247F
:1025D000E394209709F4EE248F2D6EE10E94D01130
:1025E0006A2D70E0A3E0660F771FAA95E1F761609E
:1025F0008B2D90E0880F991F880F991F682B792BDE
:102600008E2D90E0880F991F682B792B8F2D0E94BB
:10261000ED11AA2021F08F2DB4010E94ED11BB20F5
:1026200021F08F2DB6010E94ED11EE2021F08F2DAB
:10263000BE010E94ED118F2DB8010E94ED118F2D6A
:1026400064E00E94D011DF91CF911F910F91FF9014
:10265000EF90DF90CF90BF90AF909F908F900895B4
:10266000DF92EF92FF920F931F93D82E7A018B0186
:102670006FE10E94D0118D2D60E270E00E94ED119B
:102680008D2DB801A7010E943F121F910F91FF905D
:10269000EF90DF90089580E060E170E040E050E06E
:1026A00020E430E00E946F1281E060E170E040E0E1
:1026B00050E020E430E00E946F1282E060E170E0C0
:1026C00040E050E020E430E00E946F1280E04FEFE5
:1026D0005FEF6FEF7FE30E94301381E04FEF5FEF1A
:1026E0006FEF7FE30E94301382E04FEF5FEF6FEFF9
:1026F0007FE30E9430130895DF92EF92FF920F93D1
:102700001F93DF93CF930F92CDB7DEB7D82E7A0108
:102710008B0177FF0AC010950095F094E094E11CBE
:10272000F11C011D111D90E001C091E08D2D6FE1A4
:1027300099830E94D0119981792F7295707F60E002
:10274000686078608D2D0E94ED118D2DB801A70174
:102750000E943F120F90CF91DF911F910F91FF9038
:10276000EF90DF900895AF92BF92CF92DF92EF92F9
:10277000FF920F931F93DF93CF93CDB7DEB72C97C4
:102780000FB6F894DEBF0FBECDBF59016A010E949B
:10279000444169837A838B839C83C601B5010E947F
:1027A00044416D837E838F839887C801B7010E945F
:1027B000444169877A878B879C878E010F5F1F4F03
:1027C000EE24F801608171818281938121E73CEAE6
:1027D0004BE85EE30E9408439B01AC01F8012193A2
:1027E0003193419351938F0120E030E040E857E46A
:1027F0000E9408430E941141AB01BC018E2D0E9432
:102800007C13E394FE2DF330E1F60E94E0112C9648
:102810000FB6F894DEBF0FBECDBFCF91DF911F91F1
:102820000F91FF90EF90DF90CF90BF90AF90089501
:102830004F925F926F927F928F929F92AF92BF92D0
:10284000CF92DF92EF92FF920F931F93982E862ED6
:1028500029013A016FE10E94D011682D70E06A628F
:10286000892D0E94ED11892DB301A2010E943F1212
:10287000892DB801A7010E943F12892DB601A5013B
:102880000E943F121F910F91FF90EF90DF90CF9029
:10289000BF90AF909F908F907F906F905F904F9080
:1028A00008959F92AF92BF92CF92DF92EF92FF92E4
:1028B0000F931F93DF93CF9300D00F92CDB7DEB766
:1028C0001ABA15BA8FEF84BB1092650083E080932B
:1028D000640010E8A12EB4E8BB2E6E010894C11C60
:1028E000D11C85B3856085BB83E39BE20197F1F73B
:1028F00085B38A7F85BBECECFCE13197F1F700C032
:102900000000809165008D7F80936500AB9885B352
:10291000887F85BB99B39983A89A19B385B3887FBB
:10292000826085BB09B3943C09F494C0943809F4DF
:1029300091C015BA80E060E045E951E00E9467016E
:1029400081E060E04BE951E00E946701143C09F42A
:1029500081C0143809F47EC015BA80E060E045E912
:1029600051E00E94670182E060E04BEA51E00E9482
:102970006701043C09F46EC0043809F46BC015BA51
:1029800080E060E045E951E00E94670183E060E09B
:102990004BEB51E029C09E2C9C18892D6DE10E94C3
:1029A000D011892D60E070E00E94ED11F801808166
:1029B000F70181937F0100501F4FF3E200301F07A2
:1029C00051F78981803C99F0803889F085B78F7301
:1029D00085BF15BA80E060E04BEC51E00E946701D2
:1029E00081E060E04BE951E00E9467017ACF80E02E
:1029F00060E041ED51E00E94670180E098B397608C
:102A000098BB2FEF3FEB46E0215030404040E1F7CC
:102A100000C0000098B3987F98BB2FEF3FEB46E0D3
:102A2000215030404040E1F700C000008F5F83300C
:102A300029F70E94D8010F900F900F90CF91DF914E
:102A40001F910F91FF90EF90DF90CF90BF90AF90CC
:102A50009F900895A5BE82E080936D00B0926C00B7
:102A6000760100E010E297CF4F925F926F927F92D3
:102A70008F929F92AF92BF92CF92DF92EF92FF928E
:102A80000F931F93CF93DF9304E6802E912C84E065
:102A90000E947600982F80E0EC0185E00E9476008D
:102AA00090E08C2B9D2BB4010E94A646882777FDD1
:102AB0008095982F0E944441F62E072F182FE92E5B
:102AC000462E572E682E792E63015201E894D7F8CE
:102AD000C601B50120E030E044E353E40E946D42BA
:102AE0001816ACF26091F2037091F3038091F40335
:102AF0009091F5032F2D302F412F5E2D0E94A24083
:102B0000882309F4E5C06F2D702F812F9E2D20E0C2
:102B100030E0A9010E94A24087FF5DC06091F203EE
:102B20007091F3038091F4039091F50320E030E07D
:102B3000A9010E946D4218160CF04DC02091F203BD
:102B40003091F3034091F4035091F5035F77C60190
:102B5000B5010E942B4020E030E044E353E40E94A2
:102B6000A24087FF15C0A090F603B090F703C09075
:102B7000F803D090F9032091F2033091F3034091D0
:102B8000F4035091F5036F2D702F812F9E2D1CC0E3
:102B9000A090F603B090F703C090F803D090F9032B
:102BA0006091F2037091F3038091F4039091F50327
:102BB0002F2D302F412F5E2D0E942A409B01AC010A
:102BC00060E070E084EB93E40E942A409B01AC013A
:102BD000C601B50169C0C301B20120E030E0A9011E
:102BE0000E946D4218160CF047C06091F20370917C
:102BF000F3038091F4039091F50320E030E0A90104
:102C00000E94A24087FF38C02091F2033091F30365
:102C10004091F4035091F5035F77C601B5010E941E
:102C20002B4020E030E044E353E40E94A24087FDC3
:102C300023C0E090F603F090F7030091F8031091A1
:102C4000F9032091F2033091F3034091F403509182
:102C5000F503C301B2010E942A409B01AC0160E070
:102C600070E084EB93E40E942A409B01AC01C80110
:102C7000B7010E942A401AC0E090F603F090F703D3
:102C80000091F8031091F9032091F2033091F303BE
:102C90004091F4035091F503C301B2010E942A4010
:102CA0009B01AC01C801B7010E942B409B01AC0104
:102CB0002093F6033093F7034093F8035093F903FE
:102CC0004092F2035092F3036092F4037092F50382
:102CD000DF91CF911F910F91FF90EF90DF90CF90F8
:102CE000BF90AF909F908F907F906F905F904F902C
:102CF00008952F923F924F925F926F927F928F92A0
:102D00009F92AF92BF92CF92DF92EF92FF920F937A
:102D10001F93DF93CF93CDB7DEB762970FB6F894CA
:102D2000DEBF0FBECDBF69837A838B839C832D83E7
:102D30003E834F8358873701480160E070E084E3A9
:102D400094E4A60195010E942A40162F072FF82E21
:102D5000E92E8D819E81AF81B8858093FF0390938A
:102D60000004A0930104B093020489819A81AB818D
:102D7000BC818093950490939604A0939704B0939C
:102D80009804A0920B04B0920C04C0920D04D0924F
:102D90000E04C601B50120E030E044E353E40E9494
:102DA000A240181684F0A8019701652F742F832F75
:102DB000922F20E030E044EB53E40E942A40162F8B
:102DC000072FF82EE92EA8019701652F702F832F6A
:102DD0009E2D20E030E044EB52E40E942A406987B7
:102DE0007A878B879C87C401B30123EF36E64FE5D2
:102DF0005EE30E9408436D877E878F87988B80E013
:102E000090E036E9432E512C28E6222E21E0322E86
:102E10009A8B898BB201882777FD8095982F0E9425
:102E200044415B016C01C20188589F4FB1010E946F
:102E3000A6462C01C601B501D801F7012B2F302F72
:102E40004F2F5E2D0E942A4025E33AEF4EE85CE3C7
:102E50000E9408430E94A6403B014C01C601B501F7
:102E6000B985AA85AB84DC842B2F3A2F4A2D5D2DA2
:102E70000E942A4025E33AEF4EE85CE30E940843B3
:102E80000E94A6405B016C016D817E818F819885D7
:102E9000A40193010E9408433B014C0169817A819E
:102EA0008B819C81A60195010E9408439B01AC0186
:102EB000C401B3010E942B40BD85AE85DF84A88884
:102EC0002B2F3A2F4D2D5A2D0E942A402FE632E10A
:102ED00043E856E40E94084323E333E343E250EC23
:102EE0000E9408430E941141AB01BC0189890E94E4
:102EF0007C13A989BA891196BA8BA98BA330B10525
:102F000009F088CF0E94E0110E94341562960FB636
:102F1000F894DEBF0FBECDBFCF91DF911F910F910F
:102F2000FF90EF90DF90CF90BF90AF909F908F90E9
:102F30007F906F905F904F903F902F9008952F92C9
:102F40003F924F925F926F927F928F929F92AF9239
:102F5000BF92CF92DF92EF92FF920F931F93DF9376
:102F6000CF93CDB7DEB72C970FB6F894DEBF0FBE68
:102F7000CDBF5B016C0139014A0117012801609145
:102F8000F6037091F7038091F8039091F903209173
:102F9000FA033091FB034091FC035091FD03E09054
:102FA000F603F090F7030091F8031091F903E09213
:102FB000FA03F092FB030093FC031093FD03E090EF
:102FC000EE03F090EF030091F0031091F1030E94E3
:102FD0002A409B01AC01C801B7010E942A409B0115
:102FE000AC012093EE033093EF034093F003509332
:102FF000F103C601B50120E030E0A9010E94A24022
:10300000882351F4C401B30120E030E0A9010E94FB
:10301000A240882309F4D2C0C601B50120E030E007
:1030200048EC52E40E94A94069837A838B839C8395
:10303000C401B30120E030E048EC52E40E94A94012
:103040006D837E838F8398876091EE037091EF0389
:103050008091F0039091F103A20191010E942A4016
:10306000F62E072F182FE92E8091E6039091E703A3
:10307000A091E803B091E90389879A87AB87BC8761
:103080006F2D702F812F9E2D25E33AEF4EE85CE3E4
:103090000E9408430E94A6403B014C016F2D702FF7
:1030A000812F9E2D20E030E044EB52E40E942B4023
:1030B00025E33AEF4EE85CE30E9408430E94A640F5
:1030C0005B016C0159814A813B812C81652F742FF2
:1030D000832F922FA40193010E9408431B012C010E
:1030E0005D814E813F812885652F742F832F922F1C
:1030F000A60195010E9408439B01AC01C201B101E8
:103100000E942B409B01AC0169857A858B859C854B
:103110000E942B409B01AC012093E6033093E70310
:103120004093E8035093E9032090EA033090EB03C7
:103130004090EC035090ED036F2D702F812F9E2D4A
:1031400020E030E044EB52E40E942A4025E33AEFCD
:103150004EE85CE30E9408430E94A6407B018C017C
:103160005D814E813F812885652F742F832F922F9B
:10317000A40193010E9408435B016C0159814A81BB
:103180003B812C81652F742F832F922FA8019701EB
:103190000E9408439B01AC01C601B5010E942B406F
:1031A0009B01AC01C201B1010E942B409B01AC010B
:1031B000E6EEF3E024833583468357832C960FB6DF
:1031C000F894DEBF0FBECDBFCF91DF911F910F915D
:1031D000FF90EF90DF90CF90BF90AF909F908F9037
:1031E0007F906F905F904F903F902F9008952F9217
:1031F0003F924F925F926F927F928F929F92AF9287
:10320000BF92CF92DF92EF92FF920F931F93DF93C3
:10321000CF93CDB7DEB72E970FB6F894DEBF0FBEB3
:10322000CDBF180187019A8389837C836B83509576
:1032300041955F4F5E834D83309521953F4F388791
:103240002F83CE0101969A87898779E0472E512CEA
:103250004C0E5D1E7C0166247724CC24DD24D7012E
:103260006D917D917D01882777FD8095982F0E9433
:1032700044414B015C01E894B7F8662D772D8C2D05
:103280009D2DA50194010E94A24087FF02C0340138
:103290006501E414F50419F7EE24FF24C101AA27FF
:1032A00097FDA095BA2F8B879C87AD87BE87A98590
:1032B000BA85AD90BD90BA87A9876B857C858D85D1
:1032C0009E850E9444411B012C01B501882777FD92
:1032D0008095982F0E944441262D372D4C2D5D2D31
:1032E0000E94A940A20191010E9408439B01AC01E8
:1032F000F701EE0FFF1FEE0FFF1FE155FB4F20837D
:103300003183428353830894E11CF11CB4E0EB1633
:10331000F10469F6043611052CF40115110509F0C4
:1033200051C005C00436110511F00456104091E05B
:10333000E92EF12C662D772D8C2D9D2D20E030E08F
:1033400048EC52E40E940843A20191010E94A94066
:103350000E948F405B016C01970122503040C801F0
:1033600017FF03C0909581959F4FB7010E94A64615
:10337000620F731F882777FD8095982F0E94444124
:103380009B01AC01C601B5010E942B400E94114176
:10339000CB012E960FB6F894DEBF0FBECDBFCF91F6
:1033A000DF911F910F91FF90EF90DF90CF90BF9032
:1033B000AF909F908F907F906F905F904F903F90D5
:1033C0002F90089582E0E82EF12CB4CF2F923F92F7
:1033D0004F925F926F927F928F929F92AF92BF9225
:1033E000CF92DF92EF92FF920F931F93DF93CF93D1
:1033F000CDB7DEB72E970FB6F894DEBF0FBECDBFA8
:103400007A8369836536710514F0645670404B0108
:1034100077FF04C088249924861A970AE090DA027C
:10342000F090DB02A7014F5F5F4F9C012E193F090F
:1034300000E010E05A01CC24B7FCC094DC2CAB8235
:10344000BC82CD82DE821401442437FC4094542C8B
:103450006C01C818D908D886CF82C901AA2797FD60
:10346000A095BA2F89879A87AB87BC877E876D879F
:103470003401F7FC34C0AD85BE85B7FD2DC04801D1
:10348000880C991C880C991CF401E155FB4FA08015
:10349000B180C280D3806B817C818D819E810E94AE
:1034A00044419B01AC01C601B5010E9408435B0188
:1034B0006C01C201B1010E9444419B01AC01C601F3
:1034C000B5010E94A9409B01AC01F401EF53FB4FF1
:1034D0002083318342835383E614F70424F4ED857B
:1034E000FE85F7FF13C09801220F331F220F331FF1
:1034F000F901E155FB4F80819181A281B3812F5366
:103500003B4FF90180839183A283B383AF80B8845A
:10351000AE14BF0494F549815A814536510568F1CE
:103520004801880C991C880C991CF401E155FB4F4B
:10353000A080B180C280D38069857A858B859C8587
:103540000E9444419B01AC01C601B5010E940843A1
:103550005B016C01C201B1010E9444419B01AC01BD
:10356000C601B5010E94A9409B01AC01F401EF53D3
:10357000FB4F20833183428353830F5F1F4F0430FF
:10358000110509F076CF2E960FB6F894DEBF0FBE68
:10359000CDBFCF91DF911F910F91FF90EF90DF9002
:1035A000CF90BF90AF909F908F907F906F905F90E3
:1035B0004F903F902F90089581E090E00A9B02C0C9
:1035C00080E090E090930A048093090481E090E009
:1035D0000B9B02C080E090E090930604809305046A
:1035E00081E090E00C9B02C080E090E09093C004EA
:1035F0008093BF0481E090E0849B02C080E090E073
:10360000909308048093070481E090E0869B02C0B9
:1036100080E090E090939404809393042091630061
:1036200081E090E023FF02C080E090E090931004DE
:1036300080930F042091630081E090E024FF02C09A
:1036400080E090E0909304048093030408951F9217
:103650000F920FB60F920BB60F921124EF92FF92BA
:103660000F931F932F933F934F935F936F937F938A
:103670008F939F93AF93BF93EF93FF938FEF8DBD86
:1036800080E78CBD6091C4027091C5028091C60232
:103690009091C7022AE037ED43EA5CE30E942B4099
:1036A0007B018C017F2D912F20E030E040E85FE32B
:1036B0000E946D42181624F4EE24FF2400E81FE354
:1036C0008E2D9F2DA02FB12F8093C4029093C50201
:1036D000A093C602B093C7026091DE027091DF0230
:1036E0008091E0029091E1022AE037ED43EA5CE349
:1036F0000E942B407B018C017F2D912F20E030E038
:1037000040E85FE30E946D42181624F4EE24FF2483
:1037100000E81FE38E2D9F2DA02FB12F8093DE0296
:103720009093DF02A093E002B093E1026091C8029F
:103730007091C9028091CA029091CB022DEC3CECB1
:103740004CE45DE30E942B40F62EE72E8C01A7018E
:10375000652F742F912F20E030E040E85FE30E9456
:103760006D42181624F4FF24EE2400E81FE3A7019D
:10377000852F9E2DA02FB12F8093C8029093C90250
:10378000A093CA02B093CB020E94DC1A8091090474
:1037900090910A040097B1F08091C2029091C30207
:1037A000009781F48091CC029091CD020196909384
:1037B000CD028093CC0281E090E09093C30280938D
:1037C000C20210C08091090490910A04009751F43C
:1037D0008091C2029091C302009721F01092C3021F
:1037E0001092C2028091050490910604009731F175
:1037F0008091F8029091F902009701F580910203FF
:10380000909103030196909303038093020321E0B8
:1038100030E03093F9022093F8028091AD0490914A
:10382000AE04FC01EE0FFF1FE559FB4F31832083EF
:1038300001969093AE048093AD0410C0809105046E
:1038400090910604009751F48091F8029091F9024A
:10385000009721F01092F9021092F8028091BF04B3
:103860009091C0040097B1F08091F4029091F5021C
:10387000009781F48091F2029091F3020196909367
:10388000F3028093F20281E090E09093F50280933E
:10389000F40210C08091BF049091C004009751F4CD
:1038A0008091F4029091F502009721F01092F502B8
:1038B0001092F40280910704909108040097B1F0EF
:1038C0008091F0029091F102009781F48091FA02C8
:1038D0009091FB0201969093FB028093FA0281E0A3
:1038E00090E09093F1028093F00210C08091070461
:1038F00090910804009751F48091F0029091F102A8
:10390000009721F01092F1021092F002809193043E
:10391000909194040097B1F08091DC029091DD02C7
:10392000009781F48091FC029091FD0201969093A2
:10393000FD028093FC0281E090E09093DD02809391
:10394000DC0210C08091930490919404009751F48C
:103950008091DC029091DD02009721F01092DD024F
:103960001092DC0280910F0490911004009741F1B5
:103970008091F6029091F702009711F58091EE0286
:103980009091EF0201969093EF028093EE0281E016
:1039900090E09093F7028093F6028091AD049091AD
:1039A000AE04FC01EE0FFF1FE559FB4F22E030E0B3
:1039B0003183208301969093AE048093AD0410C0B0
:1039C00080910F0490911004009751F48091F602B9
:1039D0009091F702009721F01092F7021092F602F0
:1039E00080910304909104040097B1F08091D80273
:1039F0009091D902009781F480910403909105037E
:103A00000196909305038093040381E090E09093E6
:103A1000D9028093D80210C08091030490910404CD
:103A2000009751F48091D8029091D902009721F02B
:103A30001092D9021092D8028091DA029091DB02A2
:103A4000009729F001969093DB028093DA0280912F
:103A5000B2029091B302009749F08091B202909126
:103A6000B30201979093B3028093B2028091FE0259
:103A70009091FF02009749F08091FE029091FF0221
:103A800001969093FF028093FE028091EC02909148
:103A9000ED02009729F001969093ED028093EC02DD
:103AA0008091AD049091AE048431910524F0109280
:103AB000AE041092AD0460919504709196048091CB
:103AC0009704909198042091FF0330910004409155
:103AD000010450910204E0900B04F0900C0400915A
:103AE0000D0410910E040E949F17FF91EF91BF915A
:103AF000AF919F918F917F916F915F914F913F9186
:103B00002F911F910F91FF90EF900F900BBE0F9090
:103B10000FBE0F901F901895AF92BF92CF92DF9279
:103B2000EF92FF920F931F9360E070E0CB019B0137
:103B3000AC017B018C015B016C010E9479161F9125
:103B40000F91FF90EF90DF90CF90BF90AF900895CE
:103B5000FC01E253FD4F808190E0681779076CF01B
:103B60008091EC029091ED02009759F481E090E091
:103B70009093ED028093EC0204C01092ED0210923B
:103B8000EC0221E030E08091EC029091ED02833074
:103B9000910514F420E030E0C90108951F93182F17
:103BA00081E10E943E01812F0E943E0180913602F8
:103BB0008823E1F30E942B01882391F31F9108953C
:103BC0004F925F926F927F928F929F92AF92BF922D
:103BD000CF92DF92EF92FF920F931F93CF93DF93D9
:103BE0008C013B01C1E0D0E0CC24DD248FEFA82E76
:103BF000B12C88249924EE24FF2444245524401A0F
:103C0000510A14C0602F17FD642D8C2F0E94F03EC6
:103C100090E0C816D90614F46C017E018A159B0544
:103C200024F4009711F05C014E0121966C167D067C
:103C30004CF7101611060CF07401C701DF91CF91FB
:103C40001F910F91FF90EF90DF90CF90BF90AF90BA
:103C50009F908F907F906F905F904F9008956F929C
:103C60007F928F929F92AF92BF92CF92DF92EF920C
:103C7000FF920F931F93D62EC72EB82EA92E922EE9
:103C8000832E742E652E6E2D7F2D802F912FD601C1
:103C9000F5012B2F3A2F4F2F5E2F0E946D421816E1
:103CA000ACF06E2D7F2D802F912FD401F3012B2F9F
:103CB0003A2F4F2F5E2F0E94A24087FF03C064015E
:103CC000530104C0DE2CCF2CB02EA12EA6019501ED
:103CD000652F7C2D832F9A2D1F910F91FF90EF90D0
:103CE000DF90CF90BF90AF909F908F907F906F901C
:103CF00008952F923F925F926F927F928F929F9240
:103D0000AF92BF92CF92DF92EF92FF920F931F93E9
:103D1000DF93CF93CDB7DEB728970FB6F894DEBF09
:103D20000FBECDBF582E4B015A8349831092ED022E
:103D30001092EC021092B3021092B2028091B20281
:103D40009091B3029093D2048093D1048091D104D6
:103D50009091D2049093DB028093DA0260E070E0ED
:103D600080E090E0DC018B01000F111F000F111F9C
:103D700098012F533B4FF90180839183A283B38332
:103D80002081318142815381F801E155FB4F20832D
:103D90003183428353836F5F7F4F6430710519F71E
:103DA00000D000D000D0EDB7FEB7319609E914E09D
:103DB000ADB7BEB712961C930E93119785EE91E0A6
:103DC000938382838AEE91E0958384830E94FA3FF5
:103DD000EDB7FEB736960FB6F894FEBF0FBEEDBF37
:103DE00080E067E0A8010E9467011092FF02109234
:103DF000FE02852D66E60E94F03EA82EE090EE03BE
:103E0000F090EF030091F0031091F103B4018827C3
:103E100077FD8095982F0E944441A80197010E9448
:103E20002B400E9411414B018A189108882777FD89
:103E30008095982F0E9444415B016C01B401882752
:103E400077FD8095982F0E9444417B018C01C4012D
:103E500068E572E00E94A646882777FD8095982F36
:103E60000E9444412FE832EC45E75EE30E942B407C
:103E70009B01AC01C801B7010E9408439B01AC0142
:103E8000C601B5010E942B400E9411411B018824EC
:103E9000992491E0692E712C3C822B82140180912F
:103EA000B2029091B3020097D1F77092B302609280
:103EB000B202852D66E60E94F03EE82EFF24852D95
:103EC00067E60E94F03E38C00E948C1D852D66E694
:103ED0000E94F03EE82E852D67E60E94F03E20917C
:103EE000FE023091FF022115310521F47092FF028C
:103EF0006092FE022091FE023091FF02F1E02F3528
:103F00003F071CF00E948C1D12C1FF24E114F10434
:103F100099F020E030E0A9012093DE023093DF0227
:103F20004093E0025093E1022093C4023093C50213
:103F30004093C6025093C702082F10E0E114F10429
:103F400021F40115110509F4BFCF4B815C814115A6
:103F5000510591F0E41AF50AB701882777FD80959D
:103F6000982F0E9444412DEC3CEC4CE45FE30E940E
:103F700008430E9411411B0189819A81009719F021
:103F80004C01801A910AB101882777FD8095982FFE
:103F90000E9444417B018C0160E070E088E492E47F
:103FA00020E030E048E452EC0E942F1E0E941141B4
:103FB0001B01B401882777FD8095982F0E9444410A
:103FC0007B018C0160E070E080E792E420E030E06B
:103FD00040E752EC0E942F1E0E9411414B01A0901D
:103FE000EE03B090EF03C090F003D090F103B40162
:103FF000882777FD8095982F0E9444412091DE020A
:104000003091DF024091E0025091E1020E940843AA
:104010002DEC3CEC4CE45FE30E9408436D837E830F
:104020008F839887B101882777FD8095982F0E940C
:1040300044412091C4023091C5024091C602509182
:10404000C7020E9408437B018C01609100037091BC
:104050000103882777FD8095982F0E944441A6018F
:1040600095010E942B405B016C0160E070E0CB0188
:104070002D813E814F8158850E9479168091DA0208
:104080009091DB02009721F47092DB026092DA02D9
:104090008091DA029091DB02A1E08F359A0754F407
:1040A0002114310409F0FBCEC4010196833091053F
:1040B00008F0F5CE1092ED021092EC0280E090E054
:1040C000DC0180930B0490930C04A0930D04B09337
:1040D0000E0480910B0490910C04A0910D04B091FA
:1040E0000E048093950490939604A0939704B09344
:1040F00098048091950490919604A0919704B091B2
:1041000098048093FF0390930004A0930104B0935C
:1041100002046091FF03709100048091010490916A
:1041200002040E9411417093DB026093DA02289628
:104130000FB6F894DEBF0FBECDBFCF91DF911F91B8
:104140000F91FF90EF90DF90CF90BF90AF909F9036
:104150008F907F906F905F903F902F9008952F9257
:104160003F925F926F927F928F929F92AF92BF9297
:10417000CF92DF92EF92FF920F931F93DF93CF9333
:10418000CDB7DEB760970FB6F894DEBF0FBECDBFD8
:10419000582E7A8369835C834B833E832D831092F0
:1041A000ED021092EC021092B3021092B2028091D2
:1041B000B2029091B3029093D2048093D104809183
:1041C000D1049091D2049093DB028093DA0260E0F4
:1041D00070E080E090E0DC018B01000F111F000F08
:1041E000111F98012F533B4FF90180839183A283C4
:1041F000B3832081318142815381F801E155FB4F26
:1042000020833183428353836F5F7F4F6430710516
:1042100019F700D000D000D0EDB7FEB7319609E90C
:1042200014E0ADB7BEB712961C930E93119785EEAE
:1042300091E0938382838EEE91E0958384830E9444
:10424000FA3FEDB7FEB736960FB6F894FEBF0FBE35
:10425000EDBF80E067E0A8010E9467011092FF02B5
:104260001092FE028824992480E090E0662477244E
:1042700031E0232E312C988B8F878091B202909160
:10428000B3020097D1F73092B3022092B202852D8B
:1042900066E60E94F03EE82EFF24852D67E60E9428
:1042A000F03E082F10E0B701CF84D8883BC00E94B1
:1042B0008C1D852D66E60E94F03EA82E852D67E6B2
:1042C0000E94F03E2091FE023091FF02211531053F
:1042D00021F43092FF022092FE022091FE023091E2
:1042E000FF02F1E02F353F071CF00E948C1D57C1E3
:1042F0006A2D70E06115710599F020E030E0A901A8
:104300002093DE023093DF024093E0025093E102FB
:104310002093C4023093C5024093C6025093C70253
:10432000082F10E06115710521F40115110509F43C
:10433000BECFD88ACF864B815C814115510589F06B
:10434000641B750B882777FD8095982F0E94444148
:104350002DEC3CEC4CE45FE30E9408430E941141C9
:104360003B0189819A81009791F0E81AF90AB70117
:10437000882777FD8095982F0E9444412AE939E9E2
:1043800049E15FE30E9408430E9411414B01AD8166
:10439000BE81109721F0A01BB10BB88BAF87B30182
:1043A000882777FD8095982F0E9444417B018C01DE
:1043B00060E070E080EF91E420E030E040EF51EC0D
:1043C0000E942F1E0E9411413B01EF85F889BF0119
:1043D000882777FD8095982F0E9444417B018C01AE
:1043E00060E070E08CE592E420E030E04CE552ECD7
:1043F0000E942F1E0E941141788B6F87B40188277D
:1044000077FD8095982F0E9444417B018C0160E0EC
:1044100070E088E492E420E030E048E452EC0E944E
:104420002F1E0E9411414B01E090C402F090C50282
:104430000091C6021091C702B301882777FD8095CD
:10444000982F0E944441A80197010E9408432DEC37
:104450003CEC4CE45FE30E9408436F8378878987D4
:104460009A872F853889B901882777FD8095982FFD
:104470000E9444412091DE023091DF024091E0022F
:104480005091E1020E9408432DEC3CEC4CE45FE3C8
:104490000E9408436B877C878D879E87B40188279D
:1044A00077FD8095982F0E944441A80197010E94B2
:1044B00008437B018C016091000370910103882700
:1044C00077FD8095982F0E9444415B016C016F81BC
:1044D000788589859A852B853C854D855E850E94EA
:1044E00079168091DA029091DB02009721F43092E4
:1044F000DB022092DA028091DA029091DB0231E055
:104500008F3593077CF46114710409F0B6CE8F8562
:10451000988901968330910508F0AFCE81149104FB
:1045200009F0ABCE1092ED021092EC0280E090E028
:10453000DC0180930B0490930C04A0930D04B093C2
:104540000E0480910B0490910C04A0910D04B09185
:104550000E048093950490939604A0939704B093CF
:1045600098048091950490919604A0919704B0913D
:1045700098048093FF0390930004A0930104B093E8
:1045800002046091FF0370910004809101049091F6
:1045900002040E9411417093DB026093DA0260967C
:1045A0000FB6F894DEBF0FBECDBFCF91DF911F9144
:1045B0000F91FF90EF90DF90CF90BF90AF909F90C2
:1045C0008F907F906F905F903F902F9008952F92E3
:1045D0003F924F925F926F927F928F929F92AF9293
:1045E000BF92CF92DF92EF92FF920F931F93DF93D0
:1045F000CF93CDB7DEB72C970FB6F894DEBF0FBEC2
:10460000CDBF5C013B015C834B8319011A83098395
:104610001092ED021092EC021092B3021092B202CC
:104620008091B2029091B3029093D2048093D1040E
:104630008091D1049091D2049093DB028093DA02AE
:1046400060E070E080E090E0DC018B01000F111F62
:10465000000F111F98012F533B4FF9018083918365
:10466000A283B3832081318142815381F801E155D6
:10467000FB4F20833183428353836F5F7F4F6430CE
:10468000710519F700D000D000D0EDB7FEB7319614
:1046900009E914E0ADB7BEB712961C930E931197BB
:1046A00085EE91E09383828381EF91E0958384830B
:1046B0000E94FA3FEDB7FEB736960FB6F894FEBFEC
:1046C0000FBEEDBF80E067E0A8010E946701809106
:1046D000F6039091F703A091F803B091F9038D834D
:1046E0009E83AF83B887C501B30140E050E020E06E
:1046F00030E08101E980FA800E94F718A114B1042A
:1047000071F16114710459F1B101882777FD809529
:10471000982F0E9444417B018C016091AF047091FD
:10472000B0048091B1049091B2042091B30430910F
:10473000B4044091B5045091B6040E947A429B01A2
:10474000AC01C801B7010E94A9409B01AC015F7791
:10475000C801B7010E9408430E9411411B01C50115
:10476000B3014B815C8120E030E08101E980FA8077
:104770000E94F7189093D2048093D104C1010A9645
:104780006AE070E00E94A646CB01AA2797FDA0959B
:10479000BA2F89879A87AB87BC878091B2029091A4
:1047A000B3020097D1F7A1E0B0E0B093B302A093B9
:1047B000B2028091D1049091D20469817A810E94E1
:1047C000E619EB81FC81309709F041C02091F60396
:1047D0003091F7034091F8035091F9036D817E8188
:1047E0008F8198850E942A40662EA72EE82E092FD9
:1047F00069857A858B859C850E9444419B01AC012B
:10480000662D7A2D8E2D902F0E940843E62EF72ECE
:10481000082F192FC801B7019F7720E030E040EF43
:1048200051E40E946D42181654F40F2EF0E0EF2E62
:10483000F0E0FF2EF0E00F2FF0E01F2FF02DE092C0
:10484000C904F092CA040093CB041093CC04809165
:10485000DA029091DB02009731F481E090E09093CE
:10486000DB028093DA028091D1049091D2042091EE
:10487000DA023091DB02821793070CF056C01092D7
:10488000ED021092EC0280E090E0DC0180930B04DA
:1048900090930C04A0930D04B0930E0480910B042C
:1048A00090910C04A0910D04B0910E048093950496
:1048B00090939604A0939704B093980480919504E4
:1048C00090919604A0919704B09198048093FF036F
:1048D00090930004A0930104B09302046091FF033D
:1048E0007091000480910104909102040E94114192
:1048F0007093DB026093DA022C960FB6F894DEBF59
:104900000FBECDBFCF91DF911F910F91FF90EF9020
:10491000DF90CF90BF90AF909F908F907F906F90DF
:104920005F904F903F902F9008956090C1047090D9
:10493000C2048090C3049090C4042090C5043090B9
:10494000C6044090C7045090C804E090C904F09099
:10495000CA040091CB041091CC04609100037091C3
:104960000103882777FD8095982F0E9444415B01C1
:104970006C01C401B301A20191010E9479160DCF0F
:104980002F923F924F925F926F927F928F929F925F
:10499000AF92BF92CF92DF92EF92FF920F931F934D
:1049A000DF93CF93CDB7DEB762970FB6F894DEBF33
:1049B0000FBECDBF9A8789877C876B873A01190123
:1049C0001C830B83FE86ED86BA82A9821092ED02CB
:1049D0001092EC021092B3021092B2028091B202D5
:1049E0009091B3029093D2048093D1048091D1042A
:1049F0009091D2049093DB028093DA0260E070E041
:104A000080E090E0DC019B01220F331F220F331F57
:104A1000F901EF53FB4F80839183A283B383E0803E
:104A2000F1800281138121553B4FF901E082F1822F
:104A3000028313836F5F7F4F6430710521F700D0CD
:104A400000D000D0EDB7FEB7319609E914E0ADB75C
:104A5000BEB712961C930E93119785EE91E0938347
:104A6000828386EF91E0958384830E94FA3FEDB7BD
:104A7000FEB736960FB6F894FEBF0FBEEDBF80E0CE
:104A800067E0A8010E9467018091F6039091F70307
:104A9000A091F803B091F9038D839E83AF83B8870B
:104AA000C301B10140E050E020E030E08601E98040
:104AB000FA800E94F7186114710471F12114310415
:104AC00059F1B601882777FD8095982F0E944441BF
:104AD0007B018C016091AF047091B0048091B104AE
:104AE0009091B2042091B3043091B4044091B50484
:104AF0005091B6040E947A429B01AC01C801B701F3
:104B00000E94A9409B01AC015F77C801B7010E94D8
:104B100008430E9411416B01C301B1014B815C81CB
:104B200020E030E08601E980FA800E94F718909337
:104B3000D2048093D104C6010A966AE070E00E9414
:104B4000A646CB01AA2797FDA095BA2F8F87988BF1
:104B5000A98BBA8B8091B2029091B3020097D1F7E2
:104B6000A1E0B0E0B093B302A093B2028091D1046F
:104B70009091D20469817A810E94E619EB81FC81CF
:104B8000309709F041C02091F6033091F70340912E
:104B9000F8035091F9036D817E818F8198850E9481
:104BA0002A40662EA72EE82E092F6F8578898989DD
:104BB0009A890E9444419B01AC01662D7A2D8E2D6D
:104BC000902F0E940843E62EF72E082F192FC801B8
:104BD000B7019F7720E030E040EF51E40E946D4242
:104BE000181654F40F2EF0E0EF2EF0E0FF2EF0E058
:104BF0000F2FF0E01F2FF02DE092C904F092CA04AD
:104C00000093CB041093CC048091DA029091DB02E4
:104C1000009731F481E090E09093DB028093DA0218
:104C20008091D1049091D2042091DA023091DB027C
:104C30008217930774F0A985BA85109709F05FC0B1
:104C40008B859C856D857E850E94A81D009709F443
:104C500056C01092ED021092EC0280E090E0DC0170
:104C600080930B0490930C04A0930D04B0930E0456
:104C700080910B0490910C04A0910D04B0910E044E
:104C80008093950490939604A0939704B09398040E
:104C90008091950490919604A0919704B091980406
:104CA0008093FF0390930004A0930104B093020447
:104CB0006091FF03709100048091010490910204BF
:104CC0000E9411417093DB026093DA0262960FB684
:104CD000F894DEBF0FBECDBFCF91DF911F910F9132
:104CE000FF90EF90DF90CF90BF90AF909F908F900C
:104CF0007F906F905F904F903F902F9008956090BD
:104D0000C1047090C2048090C3049090C4042090A9
:104D1000C5043090C6044090C7045090C804E09089
:104D2000C904F090CA040091CB041091CC046091A6
:104D3000000370910103882777FD8095982F0E94CA
:104D400044415B016C01C401B301A20191010E94C5
:104D5000791600CF2F923F924F925F926F927F927F
:104D60008F929F92AF92BF92CF92DF92EF92FF927B
:104D70000F931F93DF93CF93CDB7DEB72E970FB668
:104D8000F894DEBF0FBECDBF9A8389835B013A01E1
:104D90003E832D831801FC82EB821092ED0210926B
:104DA000EC021092B3021092B2028091B202909182
:104DB000B3029093D2048093D1048091D104909156
:104DC000D2049093DB028093DA0260E070E080E02E
:104DD00090E0DC019B01220F331F220F331FF901EA
:104DE000EF53FB4F80839183A283B383E080F180F4
:104DF0000281138121553B4FF901E082F182028348
:104E000013836F5F7F4F6430710521F700D000D0AE
:104E100000D0EDB7FEB7319609E914E0ADB7BEB7E3
:104E200012961C930E93119785EE91E093838283E3
:104E30008DEF91E0958384830E94FA3FEDB7FEB732
:104E400036960FB6F894FEBF0FBEEDBF80E067E068
:104E5000A8010E9467018091F6039091F703A09149
:104E6000F803B091F9038F839887A987BA87C501A2
:104E7000B30140E050E020E030E08101EB80FC80B5
:104E80000E94F718A114B10471F16114710459F171
:104E9000B101882777FD8095982F0E9444417B01BE
:104EA0008C016091AF047091B0048091B104909135
:104EB000B2042091B3043091B4044091B5045091F0
:104EC000B6040E947A429B01AC01C801B7010E945E
:104ED000A9409B01AC015F77C801B7010E9408435C
:104EE0000E9411411B01C501B3014D815E8120E08B
:104EF00030E08101EB80FC800E94F7189093D2048F
:104F00008093D104C1010A966AE070E00E94A6462F
:104F1000CB01AA2797FDA095BA2F8B879C87AD87D9
:104F2000BE878091B2029091B3020097D1F7A1E0C1
:104F3000B0E0B093B302A093B2028091D1049091FB
:104F4000D2046B817C810E94E619ED81FE8130974D
:104F500009F041C02091F6033091F7034091F80326
:104F60005091F9036F81788589859A850E942A403E
:104F7000662EA72EE82E092F6B857C858D859E8554
:104F80000E9444419B01AC01662D7A2D8E2D902FFD
:104F90000E940843E62EF72E082F192FC801B701EB
:104FA0009F7720E030E040EF51E40E946D421816F8
:104FB00054F40F2EF0E0EF2EF0E0FF2EF0E00F2F74
:104FC000F0E01F2FF02DE092C904F092CA04009384
:104FD000CB041093CC048091DA029091DB0200970D
:104FE00031F481E090E09093DB028093DA028091CB
:104FF000D1049091D2042091DA023091DB02821721
:105000009307F4F51092ED021092EC0280E090E02C
:10501000DC0180930B0490930C04A0930D04B093D7
:105020000E0480910B0490910C04A0910D04B0919A
:105030000E048093950490939604A0939704B093E4
:1050400098048091950490919604A0919704B09152
:1050500098048093FF0390930004A0930104B093FD
:1050600002046091FF03709100048091010490910B
:1050700002040E9411417093DB026093DA02D2C0F5
:10508000A981BA81109741F480910504909106049A
:10509000009709F49BC013C0E981FA81E130F10562
:1050A00009F44DC089819A818230910509F08EC042
:1050B0008091050490910604009709F440C0109275
:1050C000ED021092EC0280E090E0DC0180930B0492
:1050D00090930C04A0930D04B0930E0480910B04E4
:1050E00090910C04A0910D04B0910E04809395044E
:1050F00090939604A0939704B0939804809195049C
:1051000090919604A0919704B09198048093FF0326
:1051100090930004A0930104B09302046091FF03F4
:105120007091000480910104909102040E94114149
:105130007093DB026093DA0221E030E072C080916C
:105140000F0490911004009709F440C01092ED02F2
:105150001092EC0280E090E0DC0180930B049093CD
:105160000C04A0930D04B0930E0480910B04909155
:105170000C04A0910D04B0910E04809395049093BB
:105180009604A0939704B09398048091950490910D
:105190009604A0919704B09198048093FF03909394
:1051A0000004A0930104B09302046091FF03709186
:1051B000000480910104909102040E9411417093B7
:1051C000DB026093DA0222E030E02BC06090C10481
:1051D0007090C2048090C3049090C4042090C504D1
:1051E0003090C6044090C7045090C804E090C904B1
:1051F000F090CA040091CB041091CC04609100039C
:1052000070910103882777FD8095982F0E94444173
:105210005B016C01C401B301A20191010E947916E6
:1052200080CEC9012E960FB6F894DEBF0FBECDBF5B
:10523000CF91DF911F910F91FF90EF90DF90CF9072
:10524000BF90AF909F908F907F906F905F904F90A6
:105250003F902F9008952F923F924F925F926F92BE
:105260007F928F929F92AF92BF92CF92DF92EF92F6
:10527000FF920F931F93DF93CF93CDB7DEB72E9797
:105280000FB6F894DEBF0FBECDBF3C011B015A0123
:1052900049011A8309838701DC82CB821092ED02D7
:1052A0001092EC021092B3021092B2028091B202FC
:1052B0009091B3029093D2048093D1048091D10451
:1052C0009091D2049093DB028093DA0260E070E068
:1052D00080E090E0DC019B01220F331F220F331F7F
:1052E000F901EF53FB4F80839183A283B383C08086
:1052F000D180E280F380F901E155FB4FC082D18279
:10530000E282F3826F5F7F4F6430710521F700D036
:1053100000D000D0EDB7FEB73196B9E9EB2EB4E07E
:10532000FB2EADB7BEB71296FC92EE92119785EEAA
:1053300091E0938382838BE092E0958384830E9443
:10534000FA3FEDB7FEB736960FB6F894FEBF0FBE24
:10535000EDBF80E067E0A7010E94670180E090E078
:1053600060E070E0A50120E030E0EB80FC800E946E
:10537000F7182C01A090B704B090B804C090B904FD
:10538000D090BA04C301B10140E050E020E030E029
:105390008401E980FA800E94F7189C018091AF0493
:1053A0009091B004A091B104B091B2048091B30483
:1053B0009091B404A091B504B091B604EFEAF4E082
:1053C000A086B186C286D386992488247724662451
:1053D000A1E02A2E312C3E872D878091B202909138
:1053E000B3020097D1F73092B3022092B202C20109
:1053F0006B817C810E94E619E090C904F090CA0498
:105400000091CB041091CC048D859E8569817A81B1
:105410000E94E6198091DA029091DB02009721F454
:105420003092DB022092DA022091DA023091DB0224
:105430008D859E8582179307DCF480E090E0DC0187
:105440008093C5049093C604A093C704B093C80486
:105450008091C5049091C604A091C704B091C8047E
:105460008093C1049093C204A093C304B093C40476
:105470004216530654F40F2EF0E0EF2EF0E0FF2E0C
:10548000F0E00F2FF0E01F2FF02DAD85BE85A217A5
:10549000B3070CF05AC0421653060CF056C01092D7
:1054A000ED021092EC0280E090E0DC0180930B04AE
:1054B00090930C04A0930D04B0930E0480910B0400
:1054C00090910C04A0910D04B0910E04809395046A
:1054D00090939604A0939704B093980480919504B8
:1054E00090919604A0919704B09198048093FF0343
:1054F00090930004A0930104B09302046091FF0311
:105500007091000480910104909102040E94114165
:105510007093DB026093DA022E960FB6F894DEBF2A
:105520000FBECDBFCF91DF911F910F91FF90EF90F4
:10553000DF90CF90BF90AF909F908F907F906F90B3
:105540005F904F903F902F900895C801B7019058F9
:1055500020E030E048EC52E40E94A9409B01AC01FD
:10556000D401F3016B2F782D8F2F962D0E942B40A5
:10557000962E872E782E692E8091C1049091C204B8
:10558000A091C304B091C4048D839E83AF83B88778
:105590008091C5049091C604A091C704B091C8043D
:1055A00089879A87AB87BC8760910003709101035C
:1055B000882777FD8095982F0E944441D401F301FC
:1055C0002B2F3A2F4F2F5E2F0E942B405B016C0137
:1055D0006D817E818F81988529853A854B855C8593
:1055E0000E947916FACE2F923F924F925F926F925D
:1055F0007F928F929F92AF92BF92CF92DF92EF9263
:10560000FF920F931F93DF93CF93CDB7DEB7AA9787
:105610000FB6F894DEBF0FBECDBF4C017A8369830D
:105620005C834B8339011C870B87FE82ED82B88631
:10563000AF821092ED021092EC021092B30210921F
:10564000B2028091B2029091B3029093D2048093FF
:10565000D1048091D1049091D2049093DB02809385
:10566000DA0220E030E00F2EF0E0EF2EF0E0FF2E27
:10567000F0E00F2FF0E01F2FF02DC901880F991FC8
:10568000880F991FFC01EF53FB4FE082F1820283E8
:105690001383408151816281738181559B4FDC016D
:1056A0004D935D936D937C9313972F5F3F4F243001
:1056B000310519F700D000D000D0EDB7FEB7319614
:1056C00009E914E0ADB7BEB712961C930E9311977B
:1056D00085EE91E0938382838FE092E095838483CB
:1056E0000E94FA3FEDB7FEB736960FB6F894FEBFAC
:1056F0000FBEEDBF80E067E0A8010E94670128E2CD
:1057000030E049815A81429FC001439F900D529FD2
:10571000900D11242091000330910103820F931FFB
:1057200068E671E00E94A646843B910524F471E08E
:10573000272E312C03C022242A94322C80E090E0C2
:105740006B817C8140E050E020E030E08601EF801A
:10575000F8840E94F7189093D2048093D104C30177
:10576000880F991F880F991F860D971D4BEF5FEFCC
:10577000649E9001659E300D749E300D1124269C10
:10578000B001279C700D369C700D11247A876987B3
:10579000D4011896BA8BA98BE981FA81E253FD4FA7
:1057A000FC8BEB8BA601662757FD6095762F4D8B02
:1057B0005E8B6F8B788FD094C194D108D394A6015F
:1057C000662757FD6095762F498F5A8F6B8F7C8F98
:1057D000AC01662757FD6095762F4D8F5E8F6F8FDA
:1057E00078A3B901882777FD8095982F69A37AA3BC
:1057F0008BA39CA388279927881999099EA38DA319
:105800008091D1049091D2046F8178850E94E6192D
:105810008091B2029091B302009791F7A1E0B0E0BD
:10582000B093B302A093B202E989FA89E131F1059C
:1058300008F049C0C40197FE02C08DA19EA1FC01E1
:10584000E253FD4F2081293009F4D0C01814190407
:1058500044F06D817E810E94A81D009709F4C6C0A6
:10586000A0C1808190E02D813E81821793070CF4C6
:10587000BDC049815A814815590509F092C1C090AF
:10588000C504D090C604E090C704F090C8046091AD
:10589000000370910103882777FD8095982F0E945F
:1058A00044414B015C0160E070E0CB01A70196012F
:1058B0007B018C01650154010E94791651E35A95D0
:1058C000F1F700006EC16DE08616910409F08EC0FC
:1058D0008091050490910604009709F440C010924D
:1058E000ED021092EC0280E090E0DC0180930B046A
:1058F00090930C04A0930D04B0930E0480910B04BC
:1059000090910C04A0910D04B0910E048093950425
:1059100090939604A0939704B09398048091950473
:1059200090919604A0919704B09198048093FF03FE
:1059300090930004A0930104B09302046091FF03CC
:105940007091000480910104909102040E94114121
:105950007093DB026093DA0221E030E060C1809155
:105960000F0490911004009709F440C01092ED02CA
:105970001092EC0280E090E0DC0180930B049093A5
:105980000C04A0930D04B0930E0480910B0490912D
:105990000C04A0910D04B0910E0480939504909393
:1059A0009604A0939704B0939804809195049091E5
:1059B0009604A0919704B09198048093FF0390936C
:1059C0000004A0930104B09302046091FF0370915E
:1059D000000480910104909102040E94114170938F
:1059E000DB026093DA0222E030E019C1AB89BC89A6
:1059F0008C91E82FF0E02B853C85E21BF30BFE87B2
:105A0000ED87CF01F7FF03C0909581959F4F8530BB
:105A100091052CF16D8D7E8D8F8D98A10E94444152
:105A20005B016C0169A17AA18BA19CA10E944441F8
:105A30002B013C014D855E85BA01882777FD809555
:105A4000982F0E9444417B018C01C601B501A3013E
:105A500092010E942F1E0E9411416B0102C0CD8451
:105A6000DE846B817C8177FF04C0D094C194D1081F
:105A7000D3947CE08716910449F4ED84FE84EE0C07
:105A8000FF1CEE0CFF1CCC24DD2402C0ED84FE8440
:105A90006D897E898F89988D0E9444412B013C013C
:105AA000698D7A8D8B8D9C8D0E9444416D877E8798
:105AB0008F87988BC70162E070E00E94A646882716
:105AC00077FD8095982F0E9444417B018C01C30192
:105AD000B2012D853E854F8558890E942F1E209149
