:100000000C9455000C9474000C9474000C947400BF
:100010000C9474000C9474000C9474000C94740090
:100020000C9474000C9474000C9474000C94740080
:100030000C9474000C9474000C942C170C947400A1
:100040000C9474000C9474000C94973B0C94740002
:100050000C9474000C9474000C9474000C94740050
:100060000C9474000C9474000C9474000C94740040
:100070000C9474000C9474000C940A010C94740099
:100080000C9474000C9474000C94740005A84CCD6E
:10009000B2D44EB93836A9020C50B9918688083CC2
:1000A000A6AAAA2ABE000000803F11241FBECFEFDF
:1000B000D0E1DEBFCDBF12E0A0E0B1E0ECE3F6E8B6
:1000C00000E00BBF02C007900D92A033B107D9F733
:1000D00016E0A0E3B2E001C01D92A133B107E1F741
:1000E0000E9426090C943F3C0C94000094EA9093E3
:1000F00074009091740097FFFCCF9AE09093730086
:1001000094E8909374009091740097FFFCCF8093D3
:10011000730084E8809374008091740087FFFCCFA3
:1001200084E98093740084EA809374008091740061
:1001300087FFFCCF8BE08093730084E8809374008A
:100140008091740087FFFCCF84E8809374008091D5
:10015000740087FFFCCF8091730094E99093740042
:10016000089594EA909374009091740097FFFCCFE7
:100170009AE09093730094E89093740090917400C7
:1001800097FFFCCF8093730084E880937400809184
:10019000740087FFFCCF6093730084E88093740041
:1001A0008091740087FFFCCF84E9809374000895E8
:1001B00010929B0088E980939A0086E080939D00CE
:1001C000109298008FE580939900789408951F937A
:1001D0001FEF1093730081E4809370000E9456100B
:1001E0000E94833B0E94D8000E94500F1FBC85E0F4
:1001F0008EBD1DBD80E78CBD84E087BF78948FE005
:1002000087BB81B3807F81BB84B3806F84BB18BA06
:100210001F9108951F920F920FB60F9211248F9382
:10022000DF93CF930F92CDB7DEB780919C00898387
:1002300080919B00887BE1F381E08093300289818B
:10024000809331020F90CF91DF918F910F900FBE6D
:100250000F901F901895DF93CF930F92CDB7DEB715
:1002600080913102898310923102F8941092300209
:10027000789489810F90CF91DF91089590919B00A0
:1002800095FFFCCF80939C000895CF93DF93E4E724
:10029000F0E094EA9083A1EEB2E01197F1F700004C
:1002A000A3E7B0E09EE09C9394E89083C1EED2E097
:1002B0002197F1F700008C93908381EE92E00197F3
:1002C000F1F7000084E98083DF91CF910895EF92E8
:1002D000FF920F931F93DF93CF9300D0CDB7DEB77C
:1002E000082F162F843070F5643160F58BE1498357
:1002F0005A830E9445018CE40E944501812F0E948F
:100300004501802F0E94450180E791E00197F1F7B8
:1003100000C0E12EFF2449815A81042F152F06C009
:100320000E94450194EC9A95F1F700C0E4E1EE16C5
:10033000F10444F4F80181918F010894E11CF11C4F
:10034000882371F70F900F90CF91DF911F910F913C
:10035000FF90EF9008951F93DF93CF9300D0CDB718
:10036000DEB7182F8430F0F46431E0F48BE12A8397
:1003700069830E9445018CE40E9445016981862FB2
:100380000E944501812F0E94450180E791E001977D
:10039000F1F700C02A81822F0E94450194EC9A95C2
:1003A000F1F700C00F900F90CF91DF911F9108954A
:1003B0008BE10E94450183E40E94450186E696EEAA
:1003C000A0E081509040A040E1F70895EF92FF92A5
:1003D0000F931F93182FF62EE42E842F64E60E94AD
:1003E000E942082F282F30E0205D3F4F442737FD9A
:1003F0004095542F812F6F2D0E94AB018CE9089FEF
:10040000002D11240E0D802F6AE00E94E942E82E93
:100410006F2D6F5F282F30E0205D3F4F442737FD61
:100420004095542F812F0E94AB016F2D6E5F26EFF8
:10043000E29E202D1124200F30E0205D3F4F442705
:1004400037FD4095542F812F0E94AB011F910F91D2
:10045000FF90EF900895EF92FF920F931F93CF9329
:10046000DF93C1E0D0E0C0FF03C082E090E002C0B3
:100470008EEF9FEF8C9FB0018D9F700D9C9F700D34
:10048000112480E090E040E050E020E030E00AE01D
:1004900010E0E8E7EE2EF12C0E94AF22009721F445
:1004A0002196CA30D105F9F6DF91CF911F910F91B6
:1004B000FF90EF9008950F931F93CF93DF93EC017C
:1004C0008B01CB016FEF7FEF48E050E00E94423C90
:1004D000C730D1052CF0CE010797F80191838083B6
:1004E000CE0167E070E00E94F5421816190634F458
:1004F0009E0121503040F80133832283C531D1055C
:1005000034F49E01295F3F4FF80135832483863000
:10051000910521F02196F801D783C683DF91CF9111
:100520001F910F910895AF92BF92CF92DF92EF92F9
:10053000FF920F931F93CF93DF93EC017B01809188
:100540000A0590910B05481759070CF05CC0FA0199
:10055000EE0FFF1FE45FFA4FD183C083C617D707A2
:1005600071F4A2EDB4E0ECE0F5E088E301900D92C7
:100570008150E1F750930B0540930A0544C0FE01FA
:10058000EE0FFF1FE054FC4F81E090E091838083E9
:100590008E0183E0000F111F8A95E1F700521D4F75
:1005A000B4E0CB2ED12C5A010894A11CB11CF80147
:1005B000819191918F0197FD1AC09C01220F331FE9
:1005C000F901E054FC4F408151814115510579F406
:1005D0008E159F0541F028553D4FF901208131814D
:1005E0002115310521F4B701A5010E949302089459
:1005F000C108D108C114D104D1F6CC0FDD1FC054FD
:10060000DC4F19821882DF91CF911F910F91FF90DB
:10061000EF90DF90CF90BF90AF900895FC0133E052
:10062000EE0FFF1F3A95E1F7E052FD4F20E030E07A
:10063000819191918617970711F4C90108952F5F51
:100640003F4F24303105A1F70895681B790BCB018A
:1006500077FF04C088279927861B970B8330910565
:1006600029F4CB016DEF7FEF0E94F54262307105F6
:1006700019F480919C0406C08FEF6E3F780739F41F
:100680008091A104893118F4709561957F4F8AE5B6
:1006900090E0689F9001699F300D789F300D112484
:1006A000C90108954F925F926F927F928F929F92AD
:1006B000AF92BF92CF92DF92EF92FF920F931F9370
:1006C000CF93DF932CE030E030930B0520930A05A5
:1006D00040E050E00E9493020E942B02B2ED8B2E6C
:1006E000B4E09B2ECC24DD24C1E0D0E0A2E34A2E6E
:1006F000512C9AC0F401819191914F0136010894D7
:10070000611C711C00811181B8010E940E037C01E3
:100710006A147B040CF087C0F40162817381C80104
:100720000E940E035C0197FD7EC080916C04909145
:100730006D048E159F0571F0B7010E942503AC0171
:1007400080E090E060E070E02CE330E002E810E050
:100750000E94EC1EF0926D04E0926C04EA14FB041B
:1007600089F5C49D8001C59D100DD49D100D1124E7
:1007700081E090E060E070E048EE53E028E230E095
:100780000E94853880910A0590910B050297C1E07F
:10079000D0E0C816D90614F4C0E0D0E08EEC9FEF8C
:1007A000C89F8001C99F100DD89F100D11248AE0A9
:1007B00090E060E070E04CE050E028E230E00E9421
:1007C000853831C0C49D8001C59D100DD49D100D8C
:1007D00011248AE090E060E070E04AE050E028E216
:1007E00030E00E94853880916C0490916D04B501D1
:1007F0000E942503AC0180E090E068E270E028E20E
:1008000030E00EEC1FEFF4E6EF2EF12CE8E7CE2EF1
:10081000D12C0E94022A0E942B02B0926D04A09259
:100820006C04C1E0D0E06301A0900A05B0900B0514
:10083000CA14DB040CF45ECF0E942B0280E090E02F
:10084000DC0180934C0590934D05A0934E05B09329
:100850004F0520914C0530914D0540914E0550912A
:100860004F05209348053093490540934A0550931E
:100870004B05209148053091490540914A0550911A
:100880004B0520934405309345054093460550930E
:1008900047058093580590935905A0935A05B09346
:1008A0005B058091580590915905A0915A05B0912A
:1008B0005B058093540590935505A0935605B0931E
:1008C00057058AE090E060E070E04AE150E02EE1F8
:1008D00030E00CE810E00E94853880E090E066EEA1
:1008E0007FEF40E050E02EE130E00E94EC1EE0910E
:1008F0000A05F0910B05EE0FFF1FE053FB4F8081BF
:10090000918190936B0480936A04DF91CF911F9142
:100910000F91FF90EF90DF90CF90BF90AF909F909E
:100920008F907F906F905F904F9008952F923F929D
:100930004F925F926F927F928F929F92AF92BF92EF
:10094000CF92DF92EF92FF920F931F93CF93DF939B
:10095000EC011B010E942B028CE090E090930B05B0
:1009600080930A05CE01B10140E050E00E9493025D
:1009700002ED802E04E0902ECC24DD24C1E0D0E0F6
:1009800012E3412E512C9AC0F401819191914F01B3
:1009900036010894611C711C00811181B8010E940C
:1009A0000E037C016A147B040CF087C0F4016281A1
:1009B0007381C8010E940E035C0197FD7EC0809187
:1009C0006C0490916D048E159F0571F0B7010E9423
:1009D0002503AC0180E090E060E070E02CE330E0C3
:1009E00002E810E00E94EC1EF0926D04E0926C04AC
:1009F000EA14FB0489F5C49D8001C59D100DD49DAA
:100A0000100D112481E090E060E070E048EE53E0CA
:100A100028E230E00E94853880910A0590910B050C
:100A20000297C1E0D0E0C816D90614F4C0E0D0E0C7
:100A30008EEC9FEFC89F8001C99F100DD89F100DAD
:100A400011248AE090E060E070E04CE050E028E2A1
:100A500030E00E94853831C0C49D8001C59D100DD5
:100A6000D49D100D11248AE090E060E070E04AE02F
:100A700050E028E230E00E94853880916C0490912B
:100A80006D04B5010E942503AC0180E090E068E2AE
:100A900070E028E230E00EEC1FEFB4E6EB2EF12C14
:100AA000A8E7CA2ED12C0E94022A0E942B02B092E3
:100AB0006D04A0926C04C1E0D0E06301A0900A052F
:100AC000B0900B05CA14DB040CF45ECF0E942B021D
:100AD0008AE090E060E070E04FE050E02EE130E02E
:100AE00008E210E00E94853820916C0430916D047A
:100AF000C9010296C4E0D0E0BE010E94F542BC01EB
:100B0000C9010E942503AC0180E090E063E270E03F
:100B10002EE130E008ED1FEFFCE3EF2EF12CE2E8D0
:100B2000CE2ED12C0E94022A0E942B0280916C04AE
:100B300090916D040296BE010E94F54290936D045F
:100B400080936C0430926B0420926A04DF91CF9101
:100B50001F910F91FF90EF90DF90CF90BF90AF90DB
:100B60009F908F907F906F905F904F903F902F90CD
:100B700008950F931F93CF93DF93FC01EE0FFF1F98
:100B8000E05DFB4F21E030E031832083EC0153E056
:100B9000CC0FDD1F5A95E1F7C052DD4F04E010E0A5
:100BA0008991999197FD1FC09C01220F331FF90174
:100BB000E05DFB4F4081518141155105A1F4F901E0
:100BC000E855FD4F408151814115510561F4285090
:100BD0003C4FF901208131812115310551F00E94EE
:100BE000B905009731F001501040D1F621E030E016
:100BF00002C020E030E0C901DF91CF911F910F9139
:100C00000895A0E7B2E0E8EAF2E08D919D910097A7
:100C100029F0208131818217930741F4329682E0D6
:100C2000A83AB80791F721E030E002C020E030E0B8
:100C3000C90108951F939C01CB01152F63E070E05B
:100C40000E94F542F901EE0FFF1FE20FF31FE80FBC
:100C5000F91FCB0153E0880F991F5A95E1F7861BC6
:100C6000970BE80FF91F842F912FDC0180E090E0B3
:100C70009C01217030702E0F3F1FBC017595679548
:100C8000AB0113E0440F551F1A95E1F7461B570BB4
:100C9000240F351F2D933D9301968430910541F724
:100CA0001F910895EF92FF920F931F93CF93DF93BD
:100CB0007C018B010E949119C2E0D0E080E062E1EA
:100CC0000E94483B8823D1F30E94C23980E063E14F
:100CD0000E94483B8823D1F380E090E0FC01EE0FB6
:100CE000FF1F9C0163E0220F331F6A95E1F7E20FBB
:100CF000F31FE159FA4F2081318121153105C9F1E6
:100D0000228133812E193F0937FF03C03095219589
:100D10003F4F293131056CF5FC01EE0FFF1F9C019F
:100D200043E0220F331F4A95E1F7E20FF31FE15929
:100D3000FA4F24813581201B310B37FF03C03095DA
:100D400021953F4F2E313105A4F4FC01EE0FFF1F1A
:100D5000B3E0880F991FBA95E1F7E80FF91FE15941
:100D6000FA4F868197818832910574F02081318114
:100D70000DC001968930910509F0B0CF219709F097
:100D80009DCF20E030E002C02FEF3FEFC901DF919F
:100D9000CF911F910F91FF90EF9008952F923F9266
:100DA0004F925F926F927F928F929F92AF92BF927B
:100DB000CF92DF92EF92FF920F931F93CF93DF9327
:100DC0002C014B01EA012DB73EB7285030400FB639
:100DD000F8943EBF0FBE2DBFEDB7FEB7319607EFBB
:100DE00015E0ADB7BEB712961C930E93119780E035
:100DF00091E09383828355824482778366830E9445
:100E0000493CEDB7FEB738960FB6F894FEBF0FBE5B
:100E1000EDBF81E068E0A8010E94670100D000D02A
:100E200000D0EDB7FEB73196ADB7BEB712961C93A2
:100E30000E93119789E091E093838283D583C483D5
:100E40000E94493CEDB7FEB736960FB6F894FEBF48
:100E50000FBEEDBF82E068E0A8010E946701F401C7
:100E6000EE0FFF1FE850FC4F81E090E091838083FC
:100E7000340153E0660C771C5A95E1F740EEE42EFE
:100E800042E0F42E6E0C7F1CCC24DD24302E212E6B
:100E90000DC1D301AD90BD903D01B7FC00C1F5017E
:100EA000EE0FFF1FE850FC4F80819181009709F001
:100EB000F6C0CC16DD0679F0CE01B6010E942503FE
:100EC000AC0180E090E060E070E022E830E008E70C
:100ED00010E00E94EC1E85E690E063E070E00E9466
:100EE000E519009769F083E990E06BE970E00E94F2
:100EF0005206F501EE0FFF1FE855FD4F91838083E9
:100F0000E501CC0FDD1FFE01E855FD4F8081918189
:100F1000009709F44BC00E94D801C850DC4F81E013
:100F200090E099838883EE24FF24AA24BB2436C052
:100F30008991999100D000D000D0EDB7FEB73196DD
:100F4000ADB7BEB711963C92119712962C922DE038
:100F500031E033832283958384830E94493C8DB79B
:100F60009EB706960FB6F8949EBF0FBE8DBF8A2D12
:100F7000602F432D522D0E9467010F5F1F4F0730D6
:100F80001105B1F60894A11CB11CA7E0B0E0EA0E6F
:100F9000FB1EB4E0AB16B10409F480C0E701CC0F2E
:100FA000DD1FC855DD4F00E010E0C2CFB501660F70
:100FB000771F660F771FFB01EC0DFD1DEE0FFF1F66
:100FC000E052FD4F8081918197FF46C080E090E024
:100FD000EC01C370D070FB01EC0FFD1FEE0FFF1F83
:100FE000E052FD4F2081318137FD10C0AC014D5FD3
:100FF0005F4F4730510578F4F901EE0FFF1FE850BD
:10100000FC4F208131812115310529F0019688306E
:101010009105F1F63BC00E942B028AE090E060E06F
:1010200070E04FE050E028E230E002E310E00E9480
:101030008538C601BE010E942503AC0180E090E026
:1010400063E270E028E230E00EEC1FEFE4E6EE2E03
:10105000F12C0E946C2F1BC00E942B0281E090E0BB
:1010600060E070E048EE53E022E330E00CE310E093
:101070000E9485388AE090E060E070E04DE050E04A
:1010800022E330E004EC1FEF0E948538E601C40142
:10109000B501AE010E94CE06EC0101C0E601089444
:1010A000C11CD11CE4E0CE16D10439F08091680453
:1010B00090916904009709F4ECCE88E3E0E3F4E052
:1010C000DF011D928A95E9F7809168049091690487
:1010D000009729F4C4010E94B9050097B1F08091EE
:1010E000680490916904009709F09CC081E090E049
:1010F000909369048093680490926B0480926A04D0
:10110000D0936D04C0936C048DC0C401B2010E94E1
:101110000E036C018C179D0781F0CE01B6010E9471
:101120002503AC0180E090E060E070E022E830E070
:1011300008E710E00E94EC1EE601440C551C440C2C
:10114000551CF201EC0FFD1FEE0FFF1FE052FD4F8B
:101150008081918197FF4CC080E090E013E0A12E48
:10116000B12CA822B922F201EA0DFB1DEE0FFF1FE0
:10117000E052FD4F0190F081E02DF7FD0FC09C0182
:101180002D5F3F4F2730310570F4EE0FFF1FE85001
:10119000FC4F208131812115310529F001968830DD
:1011A0009105E1F63FC00E942B028AE090E060E0EA
:1011B00070E04FE050E028E230E002E310E00E94EF
:1011C0008538CE01B5010E942503AC0180E090E096
:1011D00063E270E028E230E00EEC1FEFF2E8EF2E61
:1011E000F12CE8E7CE2ED12C0E94022AE5011AC08C
:1011F0000E942B0281E090E060E070E048EE53E056
:1012000022E330E00CE310E00E9485388AE090E0B1
:1012100060E070E04DE050E022E330E004EC1FEFCE
:101220000E948538CE01DF91CF911F910F91FF90E1
:10123000EF90DF90CF90BF90AF909F908F907F9076
:101240006F905F904F903F902F9008952F923F9214
:101250004F925F926F927F928F929F92AF92BF92C6
:10126000CF92DF92EF92FF920F931F93CF93DF9372
:101270000E94E7008EE161E00E94B1008EE165E02E
:101280000E94B1008EE164E10E94B1008EE160E154
:101290000E94B1000E942E3B8BE00E94663B82E3DD
:1012A0000E94D31980E063E10E94483B8823D1F378
:1012B0002FEF3FE746E1215030404040E1F700C0CA
:1012C000000080E090E0DC0180934C0590934D0598
:1012D000A0934E05B0934F0520914C0530914D05DC
:1012E00040914E0550914F05209348053093490594
:1012F00040934A0550934B0520914805309149058C
:1013000040914A0550914B05209344053093450583
:10131000409346055093470580935805909359058F
:10132000A0935A05B0935B0580915805909159059B
:10133000A0915A05B0915B05809354059093550593
:10134000A0935605B0935705C39A8FEF9FE7A4E08B
:1013500081509040A040E1F700C00000C398C7EF63
:10136000D5E0B49914C08091340290913502019770
:101370009093350280933402C39A2FEF3FE744E005
:10138000215030404040E1F700C00000C398B699BA
:1013900014C08091340290913502019690933502E9
:1013A00080933402C39A8FEF9FE7A4E0815090406E
:1013B000A040E1F700C00000C398B5995CC20E944C
:1013C000D801C39A2FEF3FE744E02150304040401E
:1013D000E1F700C00000C39880913402909135027B
:1013E0008230910508F047C2F0EEEF2EF2E0FF2EBA
:1013F00000E010E0C801B7010E945B020F5F1F4FC1
:1014000048E050E0E40EF51E0C31110599F780E03C
:1014100090E06CE97FEF40E050E020E030E004E154
:1014200010E0E2E8EE2EF12C0E94AF2281E090E085
:1014300060E070E048EE53E028E230E002E310E0C4
:101440000E9485388AE090E060E070E04DE050E076
:1014500028E230E00EEC1FEF0E9485380E949119BF
:101460000E94D8018FEF9FEF67E070E043E050E00B
:101470000E94CE06C39A8FEF9FE7A4E08150904070
:10148000A040E1F700C00000C3980E94D80100D03E
:1014900000D0ADB7BEB71296DC93CE931197809172
:1014A0006C0490916D0414969C938E9313970E94F4
:1014B000493C0F900F900F900F9080E191E0609168
:1014C0006A04AE010E946701809134029091350256
:1014D000009759F42CE7C22E21E0D22E9EE6E92E89
:1014E00094E0F92E00E010E007C00E949119B59B2E
:1014F000FECFB599FECFEECFF601619171916F01EC
:10150000C801A7010E941A06D80183E0AA0FBB1FD9
:101510008A95E1F79D0122593B4FBD0160587E4FEE
:1015200084E090E0D901ED91FD919D01DB014D91A9
:101530005D91BD01EE0FFF1FE059FD4F51834083C8
:10154000019781F70F5F1F4FE8E0F0E0EE0EFF1EFE
:101550000230110589F6109269041092680439C1AD
:10156000F601EE0FFF1FE259FB4FE080F1804701CB
:10157000880C991C840108551D4FD8018D919C91B0
:10158000119760E7462E62E0562E480C591CF20176
:10159000208131818217930709F40AC197FD08C1A0
:1015A0002CE030E030930B0520930A0580916A040B
:1015B00090916B04B60140E050E00E94930280914C
:1015C0000A0590910B058C30910509F4F1C0D80102
:1015D0008D919C911197009709F0D2C058EA652E21
:1015E00052E0752E40E7A42E42E0B42E00E010E059
:1015F00014014201F301819191913F0197FD60C077
:10160000D5012D913C9111972817390709F458C03D
:10161000F401208131812817390709F051C02CE0ED
:1016200030E030930B0520930A05C801B70140E074
:1016300050E00E949302E0910A05F0910B05EC3016
:10164000F105F1F1EE0FFF1FE053FB4F4080518099
:101650004CE050E050930B0540930A0580916A04DA
:1016600090916B04B80140E050E00E949302809199
:101670000A0590910B058C30910511F180916A0457
:1016800090916B04B8010E94960480916A04909135
:101690006B04B7010E945203D101A855BD4FF80158
:1016A000EE0FFF1FE855FD4F8081918111969C93AD
:1016B0008E931182108250926B0440926A0472C021
:1016C0000F5F1F4F82E090E0A80EB91E0C3111058C
:1016D00009F090CF67C0D2018D919D912D010097A7
:1016E00009F040C0A114B10451F4F301208131810B
:1016F000D4018D919C9111972817390799F5ECE049
:10170000F0E0F0930B05E0930A05C701B80140E053
:1017100050E00E94930280910A0590910B058C3055
:10172000910501F180916A0490916B04B7010E94C8
:10173000960480916A0490916B04B8010E94520350
:10174000F801EE0FFF1FE855FD4FD3018D919C91DD
:1017500011979183808311961C921E9282E0A82E8D
:10176000B12C0AC00F5F1F4FE2E0F0E08E0E9F1E0B
:101770000C31110509F0AFCFA114B10429F012C04A
:10178000AA24BB24380103C001E0A02EB12C18EA22
:10179000412E12E0512EB0E78B2EB2E09B2E00E0DE
:1017A00010E099CF0E940106909369048093680429
:1017B0000894C11CD11CF8E0CF16D10419F409C05B
:1017C000CC24DD248091680490916904009709F489
:1017D000C7CE8091680490916904009789F30E94B4
:1017E0009119C39A2FEF3FE744E021503040404029
:1017F000E1F700C00000C3980E94D801A8EAEA2ED1
:10180000A2E0FA2E00E010E0F7E0CF2ED12CD701B5
:101810008D919D917D0100D000D000D0EDB7FEB735
:101820003196ADB7BEB71296DC93CE9311972DE0EB
:1018300031E033832283958384830E94493C4DB7F2
:101840005EB74A5F5F4F0FB6F8945EBF0FBE4DBFE5
:10185000C801B6010E94F542262F682F822FAE01E3
:101860000E9467010F5F1F4F0C31110581F6B5997A
:10187000FECFB59BFECF20913402309135028BE133
:1018800091E004E311E021153105E9F160919C0438
:1018900050919B0440919A043091A2042091A1049C
:1018A000ADB7BEB71E970FB6F894BEBF0FBEADBFA3
:1018B000EDB7FEB731961296DC93CE9311979383D2
:1018C000828364831582568317824087118632870C
:1018D0001386248715860E94493CEDB7FEB73E96D5
:1018E0000FB6F894FEBF0FBEEDBF80E060E0AE0122
:1018F0000E94670130919D0420919E0490919F0465
:101900008091A0043CC06091B0045091AF0440911C
:10191000AE043091B6042091B504ADB7BEB71E97A2
:101920000FB6F894BEBF0FBEADBFEDB7FEB7319690
:101930001296DC93CE9311979383828364831582EE
:10194000568317824087118632871386248715862F
:101950000E94493CEDB7FEB73E960FB6F894FEBF25
:101960000FBEEDBF80E060E0AE010E9467013091E4
:10197000B1042091B2049091B3048091B4044DB7A6
:101980005EB74C5050400FB6F8945EBF0FBE4DBFCF
:10199000EDB7FEB73196ADB7BEB71296DC93CE93D6
:1019A00011971383028334831582268317829087CD
:1019B0001186828713860E94493CEDB7FEB73C969C
:1019C0000FB6F894FEBF0FBEEDBF81E060E0AE0140
:1019D0000E946701809134029091350297FF03C005
:1019E000909581959F4F69E070E00E94F542909339
:1019F0003702809336020E9439118091360266E6E2
:101A00000E94483BC82E8091360267E60E94483B00
:101A1000E82E00913602A0903702802F68E60E94DF
:101A2000483B2DB73EB72C5030400FB6F8943EBF20
:101A30000FBE2DBFEDB7FEB73196ADB7BEB712964C
:101A4000DC93CE9311972CE431E03383228304831B
:101A5000A582C6821782E0861186828713860E943D
:101A6000493CEDB7FEB73C960FB6F894FEBF0FBEEB
:101A7000EDBF82E060E0AE010E9467014091650524
:101A8000509166052091670530916805A091630526
:101A9000B0916405E0901D06F0901E06C090F1051F
:101AA000D090F205A0906D05B0906E058090610514
:101AB000909062056091540570915505809156058E
:101AC00090915705EDB7FEB774970FB6F894FEBF27
:101AD0000FBEEDBF0DB71EB70F5F1F4FD283C1837F
:101AE000EFE56E2EE1E07E2EF8017382628255836F
:101AF000448337832683B187A087F386E286D58621
:101B0000C486B786A686918A808A0E94603DD801E5
:101B100053967C936E9352970E94493CEDB7FEB763
:101B200074960FB6F894FEBF0FBEEDBF83E060E081
:101B3000AE010E94670100D000D000D0EDB7FEB723
:101B40003196ADB7BEB71296DC93CE93119785E769
:101B500091E0938382838091340290913502958342
:101B600084830E94493CEDB7FEB736960FB6F894D1
:101B7000FEBF0FBEEDBF83E060E1AE010E946701D2
:101B8000F0CB90E0FC01B096FE2FEE272081209351
:101B90005C0520FDFBCF8896B82FAA278C919081F9
:101BA00090935C0590FDFBCF089590E08096F82F10
:101BB000EE27808180935C0580FDFBCF6083808170
:101BC00080935C0580FDFBCF089580E061E00E947A
:101BD000D50D82E061E00E94D50D81E061E00E94B8
:101BE000D50D0895A82FB0E0FD01B096FE2FEE2789
:101BF000808180935C0580FDFBCF9896BA2FAA2741
:101C0000872F992787FD9A958C93808180935C0517
:101C100080FDFBCF6C93808180935C0580FDFBCFC2
:101C200008951F93CF93DF93182F80E06FE10E94F8
:101C3000D50DC1E0D0E002C0CC0FDD1F1A95E2F750
:101C400080E0BE010E94F20D81E06FE10E94D50D9F
:101C500081E0BE010E94F20D82E06FE10E94D50D8D
:101C600082E0BE010E94F20D80E061E00E94D50D8D
:101C700082E061E00E94D50D81E061E00E94D50D17
:101C8000DF91CF911F910895DF92EF92FF920F9312
:101C90001F93D82E7A018B019B01552737FD509554
:101CA000452FB9010E94F20D8D2DB7010E94F20D52
:101CB0001F910F91FF90EF90DF9008951F93182FC1
:101CC00060E00E94D50D8CEC9CE10197F1F700C01B
:101CD0000000812F6DE10E94D50D812F60E070E042
:101CE0000E94F20D1F910895AF92BF92CF92DF92A2
:101CF000EF92FF920F931F93CF93DF93F82E6B0118
:101D0000EA018901AA24A3946115710509F4AA24A2
:101D1000BB24B394209709F4BB24EE24E39401156B
:101D2000110509F4EE248F2D6EE10E94D50D6B2D67
:101D300070E0660F771F660F771F8A2D90E043E0F3
:101D4000880F991F4A95E1F7682B792B8E2D90E02B
:101D5000880F991F682B792B8F2D0E94F20DAA20D6
:101D600021F08F2DB6010E94F20DBB2021F08F2DA6
:101D7000BE010E94F20DEE2021F08F2DB8010E94CD
:101D8000F20D8F2D64E00E94D50DDF91CF911F9150
:101D90000F91FF90EF90DF90CF90BF90AF9008959C
:101DA0008F929F92AF92BF92CF92DF92EF92FF926B
:101DB0000F931F93CF93DF93F82E4B016A01E90134
:101DC000AA24A3946115710509F4AA24BB24B39431
:101DD000C114D10409F4BB24EE24E394209709F440
:101DE000EE248F2D6EE10E94D50D6A2D70E0A3E0E8
:101DF000660F771FAA95E1F761608B2D90E0880F41
:101E0000991F880F991F682B792B8E2D90E0880FD2
:101E1000991F682B792B8F2D0E94F20DAA2021F09B
:101E20008F2DB4010E94F20DBB2021F08F2DB60141
:101E30000E94F20DEE2021F08F2DBE010E94F20DC6
:101E40008F2DB8010E94F20D8F2D64E00E94D50DF8
:101E5000DF91CF911F910F91FF90EF90DF90CF9086
:101E6000BF90AF909F908F900895DF92EF92FF9276
:101E70000F931F93D82E7A018B016FE10E94D50D2D
:101E80008D2D60E270E00E94F20D8D2DB801A7014A
:101E90000E94440E1F910F91FF90EF90DF900895E4
:101EA00080E060E170E040E050E020E430E00E943B
:101EB000740E81E060E170E040E050E020E430E04A
:101EC0000E94740E82E060E170E040E050E020E4A7
:101ED00030E00E94740E80E04FEF5FEF6FEF7FE322
:101EE0000E94350F81E04FEF5FEF6FEF7FE30E94BD
:101EF000350F82E04FEF5FEF6FEF7FE30E94350F0A
:101F00000895DF92EF92FF920F931F93DF93CF9389
:101F10000F92CDB7DEB7D82E7A018B0177FF0AC0BA
:101F200010950095F094E094E11CF11C011D111D29
:101F300090E001C091E08D2D6FE199830E94D50D55
:101F40009981792F7295707F60E0686078608D2D3F
:101F50000E94F20D8D2DB801A7010E94440E0F9032
:101F6000CF91DF911F910F91FF90EF90DF90089537
:101F7000AF92BF92CF92DF92EF92FF920F931F9397
:101F8000DF93CF93CDB7DEB72C970FB6F894DEBFB3
:101F90000FBECDBF59016A010E94933D69837A83C8
:101FA0008B839C83C601B5010E94933D6D837E8324
:101FB0008F839887C801B7010E94933D69877A870C
:101FC0008B879C878E010F5F1F4FEE24F801608185
:101FD00071818281938121E73CEA4BE85EE30E94B4
:101FE000573F9B01AC01F8012193319341935193E9
:101FF0008F0120E030E040E857E40E94573F0E9404
:10200000603DAB01BC018E2D0E94810FE394FE2D3B
:10201000F330E1F60E94E50D2C960FB6F894DEBF82
:102020000FBECDBFCF91DF911F910F91FF90EF9029
:10203000DF90CF90BF90AF9008954F925F926F92D4
:102040007F928F929F92AF92BF92CF92DF92EF9248
:10205000FF920F931F93982E862E29013A016FE16C
:102060000E94D50D682D70E06A62892D0E94F20DE4
:10207000892DB301A2010E94440E892DB801A70148
:102080000E94440E892DB601A5010E94440E1F91A5
:102090000F91FF90EF90DF90CF90BF90AF909F9007
:1020A0008F907F906F905F904F9008959F92AF9226
:1020B000BF92CF92DF92EF92FF920F931F93DF9325
:1020C000CF9300D00F92CDB7DEB71ABA15BA8FEF03
:1020D00084BB1092650083E08093640010E8A12E19
:1020E000B4E8BB2E6E010894C11CD11C85B3856079
:1020F00085BB83E39BE20197F1F785B38A7F85BBBC
:10210000ECECFCE13197F1F700C000008091650034
:102110008D7F80936500AB9885B3887F85BB99B32D
:102120009983A89A19B385B3887F826085BB09B368
:10213000943C09F494C0943809F491C015BA80E035
:1021400060E040E951E00E94670181E060E046E91B
:1021500051E00E946701143C09F481C0143809F46D
:102160007EC015BA80E060E040E951E00E9467015E
:1021700082E060E046EA51E00E946701043C09F415
:102180006EC0043809F46BC015BA80E060E040E925
:1021900051E00E94670183E060E046EB51E029C016
:1021A0009E2C9C18892D6DE10E94D50D892D60E033
:1021B00070E00E94F20DF8018081F70181937F01A8
:1021C00000501F4FF3E200301F0751F78981803C18
:1021D00099F0803889F085B78F7385BF15BA80E094
:1021E00060E046EC51E00E94670181E060E046E972
:1021F00051E00E9467017ACF80E060E04CEC51E052
:102200000E94670180E098B3976098BB2FEF3FEB87
:1022100046E0215030404040E1F700C0000098B354
:10222000987F98BB2FEF3FEB46E021503040404075
:10223000E1F700C000008F5F833029F70E94D801CA
:102240000F900F900F90CF91DF911F910F91FF9002
:10225000EF90DF90CF90BF90AF909F900895A5BE74
:1022600082E080936D00B0926C00760100E010E295
:1022700097CF4F925F926F927F928F929F92AF9281
:10228000BF92CF92DF92EF92FF920F931F93CF9363
:10229000DF9304E6802E912C84E00E947600982F34
:1022A00080E0EC0185E00E94760090E08C2B9D2B75
:1022B000B4010E94F542882777FD8095982F0E94EF
:1022C000933DF62E072F182FE92E462E572E682EF7
:1022D000792E63015201E894D7F8C601B50120E0D8
:1022E00030E044E353E40E94BC3E1816ACF2609127
:1022F00050057091510580915205909153052F2DF5
:10230000302F412F5E2D0E94F13C882309F4E5C057
:102310006F2D702F812F9E2D20E030E0A9010E94AB
:10232000F13C87FF5DC0609150057091510580912F
:1023300052059091530520E030E0A9010E94BC3E77
:1023400018160CF04DC02091500530915105409168
:102350005205509153055F77C601B5010E947A3C42
:1023600020E030E044E353E40E94F13C87FF15C0D5
:10237000A0905405B0905505C0905605D0905705D3
:1023800020915005309151054091520550915305CF
:102390006F2D702F812F9E2D1CC0A0905405B090E2
:1023A0005505C0905605D090570560915005709125
:1023B000510580915205909153052F2D302F412FBB
:1023C0005E2D0E94793C9B01AC0160E070E084EBE3
:1023D00093E40E94793C9B01AC01C601B50169C040
:1023E000C301B20120E030E0A9010E94BC3E1816F2
:1023F0000CF047C0609150057091510580915205D5
:102400009091530520E030E0A9010E94F13C87FF44
:1024100038C020915005309151054091520550919E
:1024200053055F77C601B5010E947A3C20E030E099
:1024300044E353E40E94F13C87FD23C0E09054053F
:10244000F0905505009156051091570520915005C3
:10245000309151054091520550915305C301B2018D
:102460000E94793C9B01AC0160E070E084EB93E456
:102470000E94793C9B01AC01C801B7010E94793CE4
:102480001AC0E0905405F090550500915605109142
:1024900057052091500530915105409152055091BA
:1024A0005305C301B2010E94793C9B01AC01C801F4
:1024B000B7010E947A3C9B01AC01209354053093F4
:1024C000550540935605509357054092500550923C
:1024D00051056092520570925305DF91CF911F9183
:1024E0000F91FF90EF90DF90CF90BF90AF909F90B3
:1024F0008F907F906F905F904F9008952F923F92B2
:102500004F925F926F927F928F929F92AF92BF9203
:10251000CF92DF92EF92FF920F931F93DF93CF93AF
:10252000CDB7DEB762970FB6F894DEBF0FBECDBF52
:1025300069837A838B839C832D833E834F83588763
:102540003701480160E070E084E394E4A60195015E
:102550000E94793C162F072FF82EE92E8D819E813F
:10256000AF81B88580935D0590935E05A0935F056C
:10257000B093600589819A81AB81BC818093F3051A
:102580009093F405A093F505B093F605A092690524
:10259000B0926A05C0926B05D0926C05C601B50178
:1025A00020E030E044E353E40E94F13C181684F04C
:1025B000A8019701652F742F832F922F20E030E020
:1025C00044EB53E40E94793C162F072FF82EE92E96
:1025D000A8019701652F702F832F9E2D20E030E0FA
:1025E00044EB52E40E94793C69877A878B879C8709
:1025F000C401B30123EF36E64FE55EE30E94573F87
:102600006D877E878F87988B80E090E036E9432E38
:10261000512C28E6222E21E0322E9A8B898BB20192
:10262000882777FD8095982F0E94933D5B016C0170
:10263000C20188589F4FB1010E94F5422C01C6018A
:10264000B501D801F7012B2F302F4F2F5E2D0E949F
:10265000793C25E33AEF4EE85CE30E94573F0E9445
:10266000F53C3B014C01C601B501B985AA85AB8497
:10267000DC842B2F3A2F4A2D5D2D0E94793C25E3D7
:102680003AEF4EE85CE30E94573F0E94F53C5B0145
:102690006C016D817E818F819885A40193010E94D8
:1026A000573F3B014C0169817A818B819C81A60156
:1026B00095010E94573F9B01AC01C401B3010E94E8
:1026C0007A3CBD85AE85DF84A8882B2F3A2F4D2D0F
:1026D0005A2D0E94793C2FE632E143E856E40E94ED
:1026E000573F23E333E343E250EC0E94573F0E94FD
:1026F000603DAB01BC0189890E94810FA989BA891B
:102700001196BA8BA98BA330B10509F088CF0E942E
:10271000E50D0E94391162960FB6F894DEBF0FBE28
:10272000CDBFCF91DF911F910F91FF90EF90DF9080
:10273000CF90BF90AF909F908F907F906F905F9061
:102740004F903F902F9008952F923F924F925F921B
:102750006F927F928F929F92AF92BF92CF92DF92B1
:10276000EF92FF920F931F93DF93CF93CDB7DEB716
:102770002C970FB6F894DEBF0FBECDBF5B016C0186
:1027800039014A01170128016091540570915505DE
:102790008091560590915705209158053091590523
:1027A00040915A0550915B05E0905405F090550515
:1027B0000091560510915705E0925805F092590581
:1027C00000935A0510935B05E0904C05F0904D0581
:1027D00000914E0510914F050E94793C9B01AC0180
:1027E000C801B7010E94793C9B01AC0120934C05C4
:1027F00030934D0540934E0550934F05C601B501EA
:1028000020E030E0A9010E94F13C882351F4C4018A
:10281000B30120E030E0A9010E94F13C882309F4D3
:10282000D2C0C601B50120E030E048EC52E40E947D
:10283000F83C69837A838B839C83C401B30120E0D5
:1028400030E048EC52E40E94F83C6D837E838F8335
:10285000988760914C0570914D0580914E0590913F
:102860004F05A20191010E94793CF62E072F182FE7
:10287000E92E8091440590914505A0914605B091BF
:10288000470589879A87AB87BC876F2D702F812F6B
:102890009E2D25E33AEF4EE85CE30E94573F0E94ED
:1028A000F53C3B014C016F2D702F812F9E2D20E0B8
:1028B00030E044EB52E40E947A3C25E33AEF4EE8E4
:1028C0005CE30E94573F0E94F53C5B016C0159811B
:1028D0004A813B812C81652F742F832F922FA40175
:1028E00093010E94573F1B012C015D814E813F8166
:1028F0002885652F742F832F922FA60195010E94A2
:10290000573F9B01AC01C201B1010E947A3C9B017F
:10291000AC0169857A858B859C850E947A3C9B01F8
:10292000AC012093440530934505409346055093F0
:102930004705209048053090490540904A05509041
:102940004B056F2D702F812F9E2D20E030E044EB42
:1029500052E40E94793C25E33AEF4EE85CE30E94A2
:10296000573F0E94F53C7B018C015D814E813F8188
:102970002885652F742F832F922FA40193010E9425
:10298000573F5B016C0159814A813B812C81652F46
:10299000742F832F922FA80197010E94573F9B010C
:1029A000AC01C601B5010E947A3C9B01AC01C20199
:1029B000B1010E947A3C9B01AC01E4E4F5E0248380
:1029C0003583468357832C960FB6F894DEBF0FBE2F
:1029D000CDBFCF91DF911F910F91FF90EF90DF90CE
:1029E000CF90BF90AF909F908F907F906F905F90AF
:1029F0004F903F902F9008952F923F924F925F9269
:102A00006F927F928F929F92AF92BF92CF92DF92FE
:102A1000EF92FF920F931F93DF93CF93CDB7DEB763
:102A20002E970FB6F894DEBF0FBECDBF18018701F9
:102A30009A8389837C836B83509541955F4F5E8336
:102A40004D83309521953F4F38872F83CE010196D6
:102A50009A87898779E0472E512C4C0E5D1E7C01A8
:102A600066247724CC24DD24D7016D917D917D01EE
:102A7000882777FD8095982F0E94933D4B015C013C
:102A8000E894B7F8662D772D8C2D9D2DA501940126
:102A90000E94F13C87FF02C034016501E414F50493
:102AA00019F7EE24FF24C101AA2797FDA095BA2F9C
:102AB0008B879C87AD87BE87A985BA85AD90BD9071
:102AC000BA87A9876B857C858D859E850E94933DFD
:102AD0001B012C01B501882777FD8095982F0E9456
:102AE000933D262D372D4C2D5D2D0E94F83CA201E3
:102AF00091010E94573F9B01AC01F701EE0FFF1FB0
:102B0000EE0FFF1FE35FF94F20833183428353832E
:102B10000894E11CF11CB4E0EB16F10469F60436EC
:102B200011052CF40115110509F051C005C004363A
:102B3000110511F00456104091E0E92EF12C662D9C
:102B4000772D8C2D9D2D20E030E048EC52E40E9442
:102B5000573FA20191010E94F83C0E94DE3C5B01BC
:102B60006C01970122503040C80117FF03C09095B7
:102B700081959F4FB7010E94F542620F731F88270E
:102B800077FD8095982F0E94933D9B01AC01C60173
:102B9000B5010E947A3C0E94603DCB012E960FB693
:102BA000F894DEBF0FBECDBFCF91DF911F910F9183
:102BB000FF90EF90DF90CF90BF90AF909F908F905D
:102BC0007F906F905F904F903F902F90089582E09C
:102BD000E82EF12CB4CF2F923F924F925F926F92DA
:102BE0007F928F929F92AF92BF92CF92DF92EF929D
:102BF000FF920F931F93DF93CF93CDB7DEB72E973E
:102C00000FB6F894DEBF0FBECDBF7A8369836536F9
:102C1000710514F0645670404B0177FF04C088249E
:102C20009924861A970AE090A604F090A704A701B9
:102C30004F5F5F4F9C012E193F0900E010E05A01E1
:102C4000CC24B7FCC094DC2CAB82BC82CD82DE826B
:102C50001401442437FC4094542C6C01C818D90842
:102C6000D886CF82C901AA2797FDA095BA2F898758
:102C70009A87AB87BC877E876D873401F7FC34C0A9
:102C8000AD85BE85B7FD2DC04801880C991C880C08
:102C9000991CF401E35FF94FA080B180C280D3801A
:102CA0006B817C818D819E810E94933D9B01AC0153
:102CB000C601B5010E94573F5B016C01C201B10121
:102CC0000E94933D9B01AC01C601B5010E94F83CF6
:102CD0009B01AC01F401E15EF94F20833183428313
:102CE0005383E614F70424F4ED85FE85F7FF13C043
:102CF0009801220F331F220F331FF901E35FF94FB1
:102D000080819181A281B381215E394FF901808355
:102D10009183A283B383AF80B884AE14BF0494F5CB
:102D200049815A814536510568F14801880C991C42
:102D3000880C991CF401E35FF94FA080B180C28038
:102D4000D38069857A858B859C850E94933D9B0104
:102D5000AC01C601B5010E94573F5B016C01C20185
:102D6000B1010E94933D9B01AC01C601B5010E94D7
:102D7000F83C9B01AC01F401E15EF94F2083318303
:102D8000428353830F5F1F4F0430110509F076CF44
:102D90002E960FB6F894DEBF0FBECDBFCF91DF9158
:102DA0001F910F91FF90EF90DF90CF90BF90AF9069
:102DB0009F908F907F906F905F904F903F902F905B
:102DC000089581E090E00A9B02C080E090E090933B
:102DD00068058093670581E090E00B9B02C080E06E
:102DE00090E0909364058093630581E090E00C9BF4
:102DF00002C080E090E090931E0680931D0681E063
:102E000090E0849B02C080E090E090936605809300
:102E1000650581E090E0869B02C080E090E09093A1
:102E2000F2058093F1052091630081E090E023FF9B
:102E300002C080E090E090936E0580936D05209134
:102E4000630081E090E024FF02C080E090E0909376
:102E500062058093610508951F920F920FB60F923D
:102E60000BB60F921124EF92FF920F931F932F93A3
:102E70003F934F935F936F937F938F939F93AF9302
:102E8000BF93EF93FF938FEF8DBD80E78CBD609173
:102E900090047091910480919204909193042AE09F
:102EA00037ED43EA5CE30E947A3C7B018C017F2D85
:102EB000912F20E030E040E85FE30E94BC3E18160E
:102EC00024F4EE24FF2400E81FE38E2D9F2DA02F75
:102ED000B12F8093900490939104A0939204B093A7
:102EE00093046091AA047091AB048091AC0490911A
:102EF000AD042AE037ED43EA5CE30E947A3C7B01B3
:102F00008C017F2D912F20E030E040E85FE30E94AC
:102F1000BC3E181624F4EE24FF2400E81FE38E2D97
:102F20009F2DA02FB12F8093AA049093AB04A09360
:102F3000AC04B093AD0460919404709195048091B9
:102F40009604909197042DEC3CEC4CE45DE30E94D8
:102F50007A3CF62EE72E8C01A701652F742F912F56
:102F600020E030E040E85FE30E94BC3E181624F405
:102F7000FF24EE2400E81FE3A701852F9E2DA02F3C
:102F8000B12F8093940490939504A0939604B093EA
:102F900097040E94E116809167059091680500975B
:102FA000B1F080918E0490918F04009781F480910C
:102FB00098049091990401969093990480939804B1
:102FC00081E090E090938F0480938E0410C08091F4
:102FD000670590916805009751F480918E04909157
:102FE0008F04009721F010928F0410928E0480912C
:102FF000630590916405009731F18091C40490912C
:10300000C504009701F58091CE049091CF040196FC
:103010009093CF048093CE0421E030E03093C50438
:103020002093C40480910B0690910C06FC01EE0FD6
:10303000FF1FE753FA4F31832083019690930C06CC
:1030400080930B0610C080916305909164050097F2
:1030500051F48091C4049091C504009721F010921E
:10306000C5041092C40480911D0690911E0600971D
:10307000B1F08091C0049091C104009781F48091D7
:10308000BE049091BF0401969093BF048093BE0448
:1030900081E090E09093C1048093C00410C08091BF
:1030A0001D0690911E06009751F48091C0049091E6
:1030B000C104009721F01092C1041092C0048091C5
:1030C0006505909166050097B1F08091BC049091E0
:1030D000BD04009781F48091C6049091C7040196C5
:1030E0009093C7048093C60481E090E09093BD0460
:1030F0008093BC0410C0809165059091660500978F
:1031000051F48091BC049091BD04009721F010927D
:10311000BD041092BC048091F1059091F2050097D6
:10312000B1F08091A8049091A904009781F4809156
:10313000C8049091C90401969093C9048093C8046F
:1031400081E090E09093A9048093A80410C080913E
:10315000F1059091F205009751F48091A8049091A7
:10316000A904009721F01092A9041092A80480915C
:103170006D0590916E05009741F18091C204909188
:10318000C304009711F58091BA049091BB04019695
:103190009093BB048093BA0481E090E09093C304C1
:1031A0008093C20480910B0690910C06FC01EE0FF7
:1031B000FF1FE753FA4F22E030E03183208301966E
:1031C00090930C0680930B0610C080916D05909132
:1031D0006E05009751F48091C2049091C30400974A
:1031E00021F01092C3041092C20480916105909165
:1031F00062050097B1F08091A4049091A504009716
:1032000081F48091D0049091D10401969093D104DF
:103210008093D00481E090E09093A5048093A4046F
:1032200010C08091610590916205009751F48091E2
:10323000A4049091A504009721F01092A504109287
:10324000A4048091A6049091A704009729F0019608
:103250009093A7048093A60480917E0490917F04AC
:10326000009749F080917E0490917F04019790939C
:103270007F0480937E048091CA049091CB040097D0
:1032800049F08091CA049091CB0401969093CB04AD
:103290008093CA048091B8049091B904009729F0F2
:1032A00001969093B9048093B80480910B06909195
:1032B0000C068431910524F010920C0610920B0636
:1032C0006091F3057091F4058091F5059091F605F4
:1032D00020915D0530915E0540915F05509160053C
:1032E000E0906905F0906A0500916B0510916C05FE
:1032F0000E94A413FF91EF91BF91AF919F918F9185
:103300007F916F915F914F913F912F911F910F91FD
:10331000FF90EF900F900BBE0F900FBE0F901F907D
:103320001895AF92BF92CF92DF92EF92FF920F93D8
:103330001F9360E070E0CB019B01AC017B018C012D
:103340005B016C010E947E121F910F91FF90EF9024
:10335000DF90CF90BF90AF900895FC01E656FB4FF1
:10336000808190E0681779076CF08091B8049091A3
:10337000B904009759F481E090E09093B9048093E8
:10338000B80404C01092B9041092B80421E030E0EF
:103390008091B8049091B9048330910514F420E031
:1033A00030E0C90108951F93182F81E10E943E016A
:1033B000812F0E943E01809130028823E1F30E9418
:1033C0002B01882391F31F9108954F925F926F9282
:1033D0007F928F929F92AF92BF92CF92DF92EF92A5
:1033E000FF920F931F93CF93DF938C013B01C1E0BA
:1033F000D0E0CC24DD248FEFA82EB12C8824992492
:10340000EE24FF2444245524401A510A14C0602F8E
:1034100017FD642D8C2F0E94483B90E0C816D906FA
:1034200014F46C017E018A159B0524F4009711F0B9
:103430005C014E0121966C167D064CF710161106A4
:103440000CF07401C701DF91CF911F910F91FF9094
:10345000EF90DF90CF90BF90AF909F908F907F9034
:103460006F905F904F9008956F927F928F929F928E
:10347000AF92BF92CF92DF92EF92FF920F931F9382
:10348000D62EC72EB82EA92E922E832E742E652EE0
:103490006E2D7F2D802F912FD601F5012B2F3A2FE6
:1034A0004F2F5E2F0E94BC3E1816ACF06E2D7F2D64
:1034B000802F912FD401F3012B2F3A2F4F2F5E2F06
:1034C0000E94F13C87FF03C06401530104C0DE2C5D
:1034D000CF2CB02EA12EA6019501652F7C2D832F18
:1034E0009A2D1F910F91FF90EF90DF90CF90BF909A
:1034F000AF909F908F907F906F9008952F923F9202
:103500005F926F927F928F929F92AF92BF92CF9273
:10351000DF92EF92FF920F931F93DF93CF93CDB77C
:10352000DEB728970FB6F894DEBF0FBECDBF582E7A
:103530004B015A8349831092B9041092B804109237
:103540007F0410927E0480917E0490917F0490937A
:10355000300680932F0680912F069091300690932D
:10356000A7048093A60460E070E080E090E0DC01B6
:103570008B01000F111F000F111F9801215E394FA1
:10358000F90180839183A283B383208131814281B9
:103590005381F801E35FF94F2083318342835383E2
:1035A0006F5F7F4F6430710519F700D000D000D0F5
:1035B000EDB7FEB7319607EF15E0ADB7BEB712967F
:1035C0001C930E93119780EE91E09383828385EE96
:1035D00091E0958384830E94493CEDB7FEB736960F
:1035E0000FB6F894FEBF0FBEEDBF80E067E0A80104
:1035F0000E9467011092CB041092CA04852D66E6E2
:103600000E94483BA82EE0904C05F0904D0500919B
:103610004E0510914F05B401882777FD8095982FAE
:103620000E94933DA80197010E947A3C0E94603D50
:103630004B018A189108882777FD8095982F0E9462
:10364000933D5B016C01B401882777FD8095982F2D
:103650000E94933D7B018C01C40168E572E00E94E9
:10366000F542882777FD8095982F0E94933D2FE89B
:1036700032EC45E75EE30E947A3C9B01AC01C80155
:10368000B7010E94573F9B01AC01C601B5010E94E2
:103690007A3C0E94603D1B018824992491E0692EA8
:1036A000712C3C822B82140180917E0490917F04C6
:1036B0000097D1F770927F0460927E04852D66E6B4
:1036C0000E94483BE82EFF24852D67E60E94483B78
:1036D00038C00E949119852D66E60E94483BE82E6D
:1036E000852D67E60E94483B2091CA043091CB04A7
:1036F0002115310521F47092CB046092CA04209107
:10370000CA043091CB04F1E02F353F071CF00E9432
:10371000911912C1FF24E114F10499F020E030E086
:10372000A9012093AA043093AB044093AC045093B6
:10373000AD042093900430939104409392045093ED
:103740009304082F10E0E114F10421F40115110590
:1037500009F4BFCF4B815C814115510591F0E41A0A
:10376000F50AB701882777FD8095982F0E94933D31
:103770002DEC3CEC4CE45FE30E94573F0E94603D1F
:103780001B0189819A81009719F04C01801A910AD6
:10379000B101882777FD8095982F0E94933D7B018A
:1037A0008C0160E070E088E492E420E030E048E4DE
:1037B00052EC0E94341A0E94603D1B01B40188271C
:1037C00077FD8095982F0E94933D7B018C0160E0EE
:1037D00070E080E792E420E030E040E752EC0E94A5
:1037E000341A0E94603D4B01A0904C05B0904D05ED
:1037F000C0904E05D0904F05B401882777FD809585
:10380000982F0E94933D2091AA043091AB044091DF
:10381000AC045091AD040E94573F2DEC3CEC4CE4BD
:103820005FE30E94573F6D837E838F839887B1014A
:10383000882777FD8095982F0E94933D20919004D2
:103840003091910440919204509193040E94573F0B
:103850007B018C016091CC047091CD04882777FDA9
:103860008095982F0E94933DA60195010E947A3C75
:103870005B016C0160E070E0CB012D813E814F81E6
:1038800058850E947E128091A6049091A70400970B
:1038900021F47092A7046092A6048091A6049091EE
:1038A000A704A1E08F359A0754F42114310409F0DC
:1038B000FBCEC40101968330910508F0F5CE10923D
:1038C000B9041092B80480E090E0DC0180936905AF
:1038D00090936A05A0936B05B0936C058091690580
:1038E00090916A05A0916B05B0916C058093F305EA
:1038F0009093F405A093F505B093F6058091F30538
:103900009091F405A091F505B091F60580935D05C1
:1039100090935E05A0935F05B093600560915D058F
:1039200070915E0580915F05909160050E94603DF9
:103930007093A7046093A60428960FB6F894DEBF90
:103940000FBECDBFCF91DF911F910F91FF90EF90F0
:10395000DF90CF90BF90AF909F908F907F906F90AF
:103960005F903F902F9008952F923F925F926F92B9
:103970007F928F929F92AF92BF92CF92DF92EF92FF
:10398000FF920F931F93DF93CF93CDB7DEB760976E
:103990000FB6F894DEBF0FBECDBF582E7A83698371
:1039A0005C834B833E832D831092B9041092B8043C
:1039B00010927F0410927E0480917E0490917F0487
:1039C0009093300680932F0680912F0690913006B9
:1039D0009093A7048093A60460E070E080E090E0FC
:1039E000DC018B01000F111F000F111F9801215ED8
:1039F000394FF90180839183A283B3832081318180
:103A000042815381F801E35FF94F20833183428380
:103A100053836F5F7F4F6430710519F700D000D07A
:103A200000D0EDB7FEB7319607EF15E0ADB7BEB7E2
:103A300012961C930E93119780EE91E093838283EC
:103A400089EE91E0958384830E94493CEDB7FEB7EF
:103A500036960FB6F894FEBF0FBEEDBF80E067E06C
:103A6000A8010E9467011092CB041092CA04882416
:103A7000992480E090E06624772431E0232E312CD5
:103A8000988B8F8780917E0490917F040097D1F767
:103A900030927F0420927E04852D66E60E94483B8A
:103AA000E82EFF24852D67E60E94483B082F10E092
:103AB000B701CF84D8883BC00E949119852D66E656
:103AC0000E94483BA82E852D67E60E94483B209126
:103AD000CA043091CB042115310521F43092CB0476
:103AE0002092CA042091CA043091CB04F1E02F3512
:103AF0003F071CF00E94911957C16A2D70E06115B3
:103B0000710599F020E030E0A9012093AA043093D8
:103B1000AB044093AC045093AD04209390043093D5
:103B200091044093920450939304082F10E0611580
:103B3000710521F40115110509F4BECFD88ACF868D
:103B40004B815C814115510589F0641B750B8827F9
:103B500077FD8095982F0E94933D2DEC3CEC4CE432
:103B60005FE30E94573F0E94603D3B0189819A813B
:103B7000009791F0E81AF90AB701882777FD809538
:103B8000982F0E94933D2AE939E949E15FE30E94B9
:103B9000573F0E94603D4B01AD81BE81109721F0DF
:103BA000A01BB10BB88BAF87B301882777FD809539
:103BB000982F0E94933D7B018C0160E070E080EFC4
:103BC00091E420E030E040EF51EC0E94341A0E9472
:103BD000603D3B01EF85F889BF01882777FD80951F
:103BE000982F0E94933D7B018C0160E070E08CE592
:103BF00092E420E030E04CE552EC0E94341A0E943E
:103C0000603D788B6F87B401882777FD8095982F6A
:103C10000E94933D7B018C0160E070E088E492E4B7
:103C200020E030E048E452EC0E94341A0E94603DEB
:103C30004B01E0909004F090910400919204109157
:103C40009304B301882777FD8095982F0E94933DB8
:103C5000A80197010E94573F2DEC3CEC4CE45FE338
:103C60000E94573F6F83788789879A872F85388985
:103C7000B901882777FD8095982F0E94933D209168
:103C8000AA043091AB044091AC045091AD040E9461
:103C9000573F2DEC3CEC4CE45FE30E94573F6B87B1
:103CA0007C878D879E87B401882777FD8095982F24
:103CB0000E94933DA80197010E94573F7B018C0110
:103CC0006091CC047091CD04882777FD8095982F62
:103CD0000E94933D5B016C016F81788589859A858F
:103CE0002B853C854D855E850E947E128091A604C1
:103CF0009091A704009721F43092A7042092A60483
:103D00008091A6049091A70431E08F3593077CF44D
:103D10006114710409F0B6CE8F85988901968330BD
:103D2000910508F0AFCE8114910409F0ABCE10924A
:103D3000B9041092B80480E090E0DC01809369053A
:103D400090936A05A0936B05B0936C05809169050B
:103D500090916A05A0916B05B0916C058093F30575
:103D60009093F405A093F505B093F6058091F305C3
:103D70009091F405A091F505B091F60580935D054D
:103D800090935E05A0935F05B093600560915D051B
:103D900070915E0580915F05909160050E94603D85
:103DA0007093A7046093A60460960FB6F894DEBFE4
:103DB0000FBECDBFCF91DF911F910F91FF90EF907C
:103DC000DF90CF90BF90AF909F908F907F906F903B
:103DD0005F903F902F9008952F923F924F925F9265
:103DE0006F927F928F929F92AF92BF92CF92DF920B
:103DF000EF92FF920F931F93DF93CF93CDB7DEB770
:103E00002C970FB6F894DEBF0FBECDBF5C013B010F
:103E10005C834B8319011A8309831092B9041092B1
:103E2000B80410927F0410927E0480917E049091D9
:103E30007F049093300680932F0680912F069091F7
:103E400030069093A7048093A60460E070E080E0C1
:103E500090E0DC018B01000F111F000F111F980172
:103E6000215E394FF90180839183A283B38320813E
:103E7000318142815381F801E35FF94F208331831F
:103E8000428353836F5F7F4F6430710519F700D011
:103E900000D000D0EDB7FEB7319607EF15E0ADB713
:103EA000BEB712961C930E93119780EE91E0938308
:103EB00082838CEE91E0958384830E94493CEDB728
:103EC000FEB736960FB6F894FEBF0FBEEDBF80E08A
:103ED00067E0A8010E946701809154059091550503
:103EE000A0915605B09157058D839E83AF83B88707
:103EF000C501B30140E050E020E030E08101E980FD
:103F0000FA800E94FC14A114B10471F161147104CF
:103F100059F1B101882777FD8095982F0E94933D34
:103F20007B018C0160910D0670910E0680910F0649
:103F300090911006209111063091120640911306BF
:103F4000509114060E94C93E9B01AC01C801B70103
:103F50000E94F83C9B01AC015F77C801B7010E9449
:103F6000573F0E94603D1B01C501B3014B815C813D
:103F700020E030E08101E980FA800E94FC149093F7
:103F8000300680932F06C1010A966AE070E00E9415
:103F9000F542CB01AA2797FDA095BA2F89879A876A
:103FA000AB87BC8780917E0490917F040097D1F706
:103FB000A1E0B0E0B0937F04A0937E0480912F062F
:103FC0009091300669817A810E94EB15EB81FC812A
:103FD000309709F041C0209154053091550540912A
:103FE0005605509157056D817E818F8198850E947D
:103FF000793C662EA72EE82E092F69857A858B8558
:104000009C850E94933D9B01AC01662D7A2D8E2DDF
:10401000902F0E94573FE62EF72E082F192FC80128
:10402000B7019F7720E030E040EF51E40E94BC3EB2
:10403000181654F40F2EF0E0EF2EF0E0FF2EF0E013
:104040000F2FF0E01F2FF02DE0922706F0922806A8
:104050000093290610932A068091A6049091A70444
:10406000009731F481E090E09093A7048093A60438
:1040700080912F06909130062091A6043091A704DC
:10408000821793070CF056C01092B9041092B8042E
:1040900080E090E0DC018093690590936A05A0932D
:1040A0006B05B0936C058091690590916A05A091AC
:1040B0006B05B0916C058093F3059093F405A09384
:1040C000F505B093F6058091F3059091F405A09164
:1040D000F505B091F60580935D0590935E05A0937C
:1040E0005F05B093600560915D0570915E058091FC
:1040F0005F05909160050E94603D7093A7046093F6
:10410000A6042C960FB6F894DEBF0FBECDBFCF919C
:10411000DF911F910F91FF90EF90DF90CF90BF90B4
:10412000AF909F908F907F906F905F904F903F9057
:104130002F90089560901F067090200680902106B1
:104140009090220620902306309024064090250669
:1041500050902606E0902706F09028060091290648
:1041600010912A066091CC047091CD04882777FDC8
:104170008095982F0E94933D5B016C01C401B301AF
:10418000A20191010E947E120DCF2F923F924F9279
:104190005F926F927F928F929F92AF92BF92CF92D7
:1041A000DF92EF92FF920F931F93DF93CF93CDB7E0
:1041B000DEB762970FB6F894DEBF0FBECDBF9A8709
:1041C00089877C876B873A0119011C830B83FE86E4
:1041D000ED86BA82A9821092B9041092B8041092A6
:1041E0007F0410927E0480917E0490917F049093CE
:1041F000300680932F0680912F0690913006909381
:10420000A7048093A60460E070E080E090E0DC0109
:104210009B01220F331F220F331FF901E15EF94F7B
:1042200080839183A283B383E080F1800281138134
:10423000235F394FF901E082F182028313836F5FBC
:104240007F4F6430710521F700D000D000D0EDB76A
:10425000FEB7319607EF15E0ADB7BEB712961C93C7
:104260000E93119780EE91E09383828381EF91E02A
:10427000958384830E94493CEDB7FEB736960FB60E
:10428000F894FEBF0FBEEDBF80E067E0A8010E947A
:1042900067018091540590915505A0915605B09104
:1042A00057058D839E83AF83B887C301B10140E07A
:1042B00050E020E030E08601E980FA800E94FC14A2
:1042C0006114710471F12114310459F1B601882788
:1042D00077FD8095982F0E94933D7B018C01609122
:1042E0000D0670910E0680910F0690911006209198
:1042F00011063091120640911306509114060E9447
:10430000C93E9B01AC01C801B7010E94F83C9B016A
:10431000AC015F77C801B7010E94573F0E94603D22
:104320006B01C301B1014B815C8120E030E086016B
:10433000E980FA800E94FC149093300680932F0647
:10434000C6010A966AE070E00E94F542CB01AA27F6
:1043500097FDA095BA2F8F87988BA98BBA8B8091E8
:104360007E0490917F040097D1F7A1E0B0E0B09374
:104370007F04A0937E0480912F069091300669817E
:104380007A810E94EB15EB81FC81309709F041C0E6
:10439000209154053091550540915605509157058F
:1043A0006D817E818F8198850E94793C662EA72E33
:1043B000E82E092F6F85788989899A890E94933D13
:1043C0009B01AC01662D7A2D8E2D902F0E94573FB8
:1043D000E62EF72E082F192FC801B7019F7720E08E
:1043E00030E040EF51E40E94BC3E181654F40F2E0A
:1043F000F0E0EF2EF0E0FF2EF0E00F2FF0E01F2FA7
:10440000F02DE0922706F0922806009329061093DB
:104410002A068091A6049091A704009731F481E0C8
:1044200090E09093A7048093A60480912F0690912A
:1044300030062091A6043091A7048217930774F0E8
:10444000A985BA85109709F05FC08B859C856D851D
:104450007E850E94AD19009709F456C01092B904E8
:104460001092B80480E090E0DC018093690590939D
:104470006A05A0936B05B0936C05809169059091D6
:104480006A05A0916B05B0916C058093F30590933C
:10449000F405A093F505B093F6058091F30590918E
:1044A000F405A091F505B091F60580935D05909314
:1044B0005E05A0935F05B093600560915D05709106
:1044C0005E0580915F05909160050E94603D70934C
:1044D000A7046093A60462960FB6F894DEBF0FBEE1
:1044E000CDBFCF91DF911F910F91FF90EF90DF90A3
:1044F000CF90BF90AF909F908F907F906F905F9084
:104500004F903F902F90089560901F067090200666
:104510008090210690902206209023063090240659
:104520004090250650902606E0902706F090280639
:104530000091290610912A066091CC047091CD0457
:10454000882777FD8095982F0E94933D5B016C0131
:10455000C401B301A20191010E947E1200CF2F92EB
:104560003F924F925F926F927F928F929F92AF9203
:10457000BF92CF92DF92EF92FF920F931F93DF9340
:10458000CF93CDB7DEB72E970FB6F894DEBF0FBE30
:10459000CDBF9A8389835B013A013E832D83180145
:1045A000FC82EB821092B9041092B80410927F043E
:1045B00010927E0480917E0490917F049093300647
:1045C00080932F0680912F06909130069093A70438
:1045D0008093A60460E070E080E090E0DC019B0145
:1045E000220F331F220F331FF901E15EF94F808341
:1045F0009183A283B383E080F18002811381235FE2
:10460000394FF901E082F182028313836F5F7F4F9C
:104610006430710521F700D000D000D0EDB7FEB7AF
:10462000319607EF15E0ADB7BEB712961C930E9307
:10463000119780EE91E09383828388EF91E09583D8
:1046400084830E94493CEDB7FEB736960FB6F894C6
:10465000FEBF0FBEEDBF80E067E0A8010E946701CA
:104660008091540590915505A0915605B09157053C
:104670008F839887A987BA87C501B30140E050E0CE
:1046800020E030E08101EB80FC800E94FC14A1144A
:10469000B10471F16114710459F1B101882777FDFA
:1046A0008095982F0E94933D7B018C0160910D06AF
:1046B00070910E0680910F069091100620911106C0
:1046C0003091120640911306509114060E94C93E83
:1046D0009B01AC01C801B7010E94F83C9B01AC01F1
:1046E0005F77C801B7010E94573F0E94603D1B01E0
:1046F000C501B3014D815E8120E030E08101EB8096
:10470000FC800E94FC149093300680932F06C10118
:104710000A966AE070E00E94F542CB01AA2797FD55
:10472000A095BA2F8B879C87AD87BE8780917E042A
:1047300090917F040097D1F7A1E0B0E0B0937F049F
:10474000A0937E0480912F06909130066B817C812E
:104750000E94EB15ED81FE81309709F041C0209158
:1047600054053091550540915605509157056F817C
:10477000788589859A850E94793C662EA72EE82E39
:10478000092F6B857C858D859E850E94933D9B01BD
:10479000AC01662D7A2D8E2D902F0E94573FE62E6C
:1047A000F72E082F192FC801B7019F7720E030E0BE
:1047B00040EF51E40E94BC3E181654F40F2EF0E076
:1047C000EF2EF0E0FF2EF0E00F2FF0E01F2FF02D86
:1047D000E0922706F09228060093290610932A06F5
:1047E0008091A6049091A704009731F481E090E0B5
:1047F0009093A7048093A60480912F069091300691
:104800002091A6043091A70482179307F4F5109223
:10481000B9041092B80480E090E0DC01809369054F
:1048200090936A05A0936B05B0936C058091690520
:1048300090916A05A0916B05B0916C058093F3058A
:104840009093F405A093F505B093F6058091F305D8
:104850009091F405A091F505B091F60580935D0562
:1048600090935E05A0935F05B093600560915D0530
:1048700070915E0580915F05909160050E94603D9A
:104880007093A7046093A604D2C0A981BA8110973F
:1048900041F48091630590916405009709F49BC0F1
:1048A00013C0E981FA81E130F10509F44DC0898135
:1048B0009A818230910509F08EC0809163059091B4
:1048C0006405009709F440C01092B9041092B8042E
:1048D00080E090E0DC018093690590936A05A093E5
:1048E0006B05B0936C058091690590916A05A09164
:1048F0006B05B0916C058093F3059093F405A0933C
:10490000F505B093F6058091F3059091F405A0911B
:10491000F505B091F60580935D0590935E05A09333
:104920005F05B093600560915D0570915E058091B3
:104930005F05909160050E94603D7093A7046093AD
:10494000A60421E030E072C080916D0590916E0563
:10495000009709F440C01092B9041092B80480E0A6
:1049600090E0DC018093690590936A05A0936B0544
:10497000B0936C058091690590916A05A0916B05D3
:10498000B0916C058093F3059093F405A093F50521
:10499000B093F6058091F3059091F405A091F5058B
:1049A000B091F60580935D0590935E05A0935F0539
:1049B000B093600560915D0570915E0580915F0523
:1049C000909160050E94603D7093A7046093A604D7
:1049D00022E030E02BC060901F067090200680908F
:1049E00021069090220620902306309024064090C5
:1049F000250650902606E0902706F09028060091A4
:104A0000290610912A066091CC047091CD04882764
:104A100077FD8095982F0E94933D5B016C01C40146
:104A2000B301A20191010E947E1280CEC9012E968F
:104A30000FB6F894DEBF0FBECDBFCF91DF911F91AF
:104A40000F91FF90EF90DF90CF90BF90AF909F902D
:104A50008F907F906F905F904F903F902F90089530
:104A60002F923F924F925F926F927F928F929F927E
:104A7000AF92BF92CF92DF92EF92FF920F931F936C
:104A8000DF93CF93CDB7DEB7AA970FB6F894DEBF0A
:104A90000FBECDBF4C017A8369835C834B833901A0
:104AA0001C870B87FE82ED82B886AF821092B90414
:104AB0001092B80410927F0410927E0480917E04BC
:104AC00090917F049093300680932F0680912F065B
:104AD000909130069093A7048093A60420E030E0E4
:104AE0000F2EF0E0EF2EF0E0FF2EF0E00F2FF0E0C1
:104AF0001F2FF02DC901880F991F880F991FFC01E6
:104B0000E15EF94FE082F18202831383408151819B
:104B100062817381835F994FDC014D935D936D9347
:104B20007C9313972F5F3F4F2430310519F700D046
:104B300000D000D0EDB7FEB7319607EF15E0ADB766
:104B4000BEB712961C930E93119780EE91E093835B
:104B5000828386E092E0958384830E94493CEDB78E
:104B6000FEB736960FB6F894FEBF0FBEEDBF80E0DD
:104B700067E0A8010E94670128E230E049815A817C
:104B8000429FC001439F900D529F900D1124209190
:104B9000CC043091CD04820F931F68E671E00E942F
:104BA000F542843B910524F411E0212E312C03C001
:104BB00022242A94322C80E090E06B817C8140E0BA
:104BC00050E020E030E08601EF80F8840E94FC1481
:104BD0009093300680932F06C301880F991F880F8A
:104BE000991F860D971D4BEF5FEF649E9001659EA8
:104BF000300D749E300D1124269CB001279C700D41
:104C0000369C700D11247A876987D4011896BA8B67
:104C1000A98BE981FA81E656FB4FFC8BEB8BA60151
:104C2000662757FD6095762F4D8B5E8B6F8B788F47
:104C3000D094C194D108D394A601662757FD6095FE
:104C4000762F498F5A8F6B8F7C8FAC01662757FD6B
:104C50006095762F4D8F5E8F6F8F78A3B90188276F
:104C600077FD8095982F69A37AA38BA39CA38827AF
:104C70009927881999099EA38DA380912F06909159
:104C800030066F8178850E94EB1580917E049091AB
:104C90007F04009791F7A1E0B0E0B0937F04A09368
:104CA0007E04E989FA89E131F10508F049C0C401BF
:104CB00097FE02C08DA19EA1FC01E656FB4F20810C
:104CC000293009F4D0C01814190444F06D817E8194
:104CD0000E94AD19009709F4C6C0A0C1808190E080
:104CE0002D813E81821793070CF4BDC049815A8102
:104CF0004815590509F092C1C0902306D0902406AA
:104D0000E0902506F09026066091CC047091CD04C9
:104D1000882777FD8095982F0E94933D4B015C0179
:104D200060E070E0CB01A70196017B018C01650179
:104D300054010E947E1251E35A95F1F700006EC1B2
:104D40006DE08616910409F08EC080916305909104
:104D50006405009709F440C01092B9041092B80499
:104D600080E090E0DC018093690590936A05A09350
:104D70006B05B0936C058091690590916A05A091CF
:104D80006B05B0916C058093F3059093F405A093A7
:104D9000F505B093F6058091F3059091F405A09187
:104DA000F505B091F60580935D0590935E05A0939F
:104DB0005F05B093600560915D0570915E0580911F
:104DC0005F05909160050E94603D7093A704609319
:104DD000A60421E030E060C180916D0590916E05E0
:104DE000009709F440C01092B9041092B80480E012
:104DF00090E0DC018093690590936A05A0936B05B0
:104E0000B0936C058091690590916A05A0916B053E
:104E1000B0916C058093F3059093F405A093F5058C
:104E2000B093F6058091F3059091F405A091F505F6
:104E3000B091F60580935D0590935E05A0935F05A4
:104E4000B093600560915D0570915E0580915F058E
:104E5000909160050E94603D7093A7046093A60442
:104E600022E030E019C1AB89BC898C91E82FF0E0D9
:104E70002B853C85E21BF30BFE87ED87CF01F7FF07
:104E800003C0909581959F4F853091052CF16D8DD4
:104E90007E8D8F8D98A10E94933D5B016C0169A16D
:104EA0007AA18BA19CA10E94933D2B013C014D85D1
:104EB0005E85BA01882777FD8095982F0E94933DE3
:104EC0007B018C01C601B501A30192010E94341A35
:104ED0000E94603D6B0102C0CD84DE846B817C81C9
:104EE00077FF04C0D094C194D108D3947CE0871696
:104EF000910449F4ED84FE84EE0CFF1CEE0CFF1CC3
:104F0000CC24DD2402C0ED84FE846D897E898F89E6
:104F1000988D0E94933D2B013C01698D7A8D8B8D7C
:104F20009C8D0E94933D6D877E878F87988BC701EC
:104F300062E070E00E94F542882777FD8095982F07
:104F40000E94933D7B018C01C301B2012D853E85FA
:104F50004F8558890E94341A2091230630912406E7
:104F600040912506509126062FA338A749A75AA796
:104F70000E94603D88279927861B970B829DB00170
:104F8000839D700D929D700D1124882777FD80956B
:104F9000982F0E94933D2B013C01D094C194D108DD
:104FA000D39489859A85C89EB001C99E700DD89EFC
:104FB000700D1124882777FD8095982F0E94933DCE
:104FC0007B018C016091CC047091CD04882777FD22
:104FD0008095982F0E94933D5B016C01C301B20143
:104FE0002FA138A549A55AA50E947E128091A6043A
:104FF0009091A704009731F4A1E0B0E0B093A7042A
:10500000A093A60480912F06909130062091A604CB
:105010003091A704821793070CF02FCE1092B90499
:105020001092B80480E090E0DC01809369059093D1
:105030006A05A0936B05B0936C058091690590910A
:105040006A05A0916B05B0916C058093F305909370
:10505000F405A093F505B093F6058091F3059091C2
:10506000F405A091F505B091F60580935D05909348
:105070005E05A0935F05B093600560915D0570913A
:105080005E0580915F05909160050E94603D709380
:10509000A7046093A60401C0C901AA960FB6F894AC
:1050A000DEBF0FBECDBFCF91DF911F910F91FF905B
:1050B000EF90DF90CF90BF90AF909F908F907F90B8
:1050C0006F905F904F903F902F9008952F923F9256
:1050D0004F925F926F927F928F929F92AF92BF9208
:1050E000CF92DF92EF92FF920F931F93DF93CF93B4
:1050F00000D000D000D0CDB7DEB75C014B013A0143
:1051000019011A8309831092B9041092B8041092FD
:105110007F0410927E0480917E0490917F0490938E
:10512000300680932F0680912F0690913006909341
:10513000A7048093A60460E070E080E090E0DC01CA
:105140009B01220F331F220F331FF901E15EF94F3C
:1051500080839183A283B383E080F18002811381F5
:10516000F901E35FF94FE082F182028313836F5FFD
:105170007F4F6430710521F700D000D000D0EDB72B
:10518000FEB7319607EF15E0ADB7BEB712961C9388
:105190000E93119780EE91E0938382838BE092E0EF
:1051A000958384830E94493CEDB7FEB736960FB6CF
:1051B000F894FEBF0FBEEDBF80E067E0A8010E943B
:1051C0006701C501B401A30120E030E08101E9805D
:1051D000FA800E94FC14B101882777FD8095982FF2
:1051E0000E94933D7B018C0160910D0670910E062B
:1051F00080910F06909110062091110630911206B1
:1052000040911306509114060E94C93E9B01AC01C7
:10521000C801B7010E94F83C9B01AC015F77C8014F
:10522000B7010E94573F0E94603D7B018C01C50180
:10523000B401A30120E030E08701E980FA800E94F8
:10524000FC149093300680932F06992488247724A9
:10525000662480917E0490917F040097D1F721E02D
:1052600030E030937F0420937E0480912F0690914C
:10527000300669817A810E94EB1560912706709152
:1052800028068091290690912A062091A604309143
:10529000A7042115310531F4A1E0B0E0B093A704D3
:1052A000A093A60420912F06309130064091A604C9
:1052B0005091A704241735070CF056C01092B9047A
:1052C0001092B80480E090E0DC018093690590932F
:1052D0006A05A0936B05B0936C0580916905909168
:1052E0006A05A0916B05B0916C058093F3059093CE
:1052F000F405A093F505B093F6058091F305909120
:10530000F405A091F505B091F60580935D059093A5
:105310005E05A0935F05B093600560915D05709197
:105320005E0580915F05909160050E94603D7093DD
:10533000A7046093A60426960FB6F894DEBF0FBEAE
:10534000CDBFCF91DF911F910F91FF90EF90DF9034
:10535000CF90BF90AF909F908F907F906F905F9015
:105360004F903F902F900895905820E030E048EC07
:1053700052E40E94F83C9B01AC01D401F3016B2F75
:10538000782D8F2F962D0E947A3C962E872E782E80
:10539000692E20901F0630902006409021065090E4
:1053A00022068091230690912406A0912506B091B3
:1053B00026068B839C83AD83BE83E0902706F09006
:1053C00028060091290610912A066091CC0470915C
:1053D000CD04882777FD8095982F0E94933DD401B6
:1053E000F3012B2F3A2F4F2F5E2F0E947A3C5B0147
:1053F0006C01C201B1012B813C814D815E810E9413
:105400007E1227CF2F923F924F925F926F927F92A0
:105410008F929F92AF92BF92CF92DF92EF92FF92C4
:105420000F931F93DF93CF93CDB7DEB72E970FB6B1
:10543000F894DEBF0FBECDBF1C012B014A015901FC
:105440001C830B838701DE82CD821092B9041092F7
:10545000B80410927F0410927E0480917E04909193
:105460007F049093300680932F0680912F069091B1
:1054700030069093A7048093A60460E070E080E07B
:1054800090E0DC019B01220F331F220F331FF90133
:10549000E15EF94F80839183A283B383C080D18082
:1054A000E280F380F901E35FF94FC082D182E282AA
:1054B000F3826F5F7F4F6430710521F700D000D019
:1054C00000D0EDB7FEB7319667EFE62E65E0F62E19
:1054D000ADB7BEB71296FC92EE92119780EE91E0B6
:1054E0009383828381E192E0958384830E94493C87
:1054F000EDB7FEB736960FB6F894FEBF0FBEEDBF00
:1055000080E067E0A7010E94670180E090E060E032
:1055100070E0A40120E030E0ED80FE800E94FC14E9
:105520009A838983609015067090160680901706FE
:1055300090901806C101B20140E050E020E030E058
:105540008501EB80FC800E94FC14B501882777FD63
:105550008095982F0E94933D7B018C0160910D06F0
:1055600070910E0680910F06909110062091110601
:105570003091120640911306509114060E94C93EC4
:105580009B01AC01C801B7010E94F83C9B01AC0132
:105590005F77C801B7010E94573F0E94603D7B01C1
:1055A0008C01C101B20140E050E020E030E0870111
:1055B000EB80FC800E94FC149093300680932F06B1
:1055C000C401B3010E94603D882777FD8095982F24
:1055D0000E94933DEDE0F6E06087718782879387B4
:1055E00099248824772466240F2EF0E02F2EF0E0F3
:1055F0003F2EF0E04F2EF0E05F2EF02D80917E04E4
:1056000090917F040097D1F789819A816D817E8185
:105610000E94EB15E0902706F090280600912906DD
:1056200010912A0681E090E090937F0480937E049D
:1056300080912F06909130066B817C810E94EB1542
:10564000C801B7010E94603D882777FD8095982F9B
:105650000E94933D60932706709328068093290645
:1056600090932A068091A6049091A704009731F4A4
:10567000A1E0B0E0B093A704A093A6042091A604F3
:105680003091A70480912F069091300682179307DE
:10569000C4F42092230630922406409225065092AC
:1056A00026068091230690912406A0912506B091AC
:1056B000260680931F0690932006A0932106B093A0
:1056C0002206E981FA81E217F30744F420922706C3
:1056D000309228064092290650922A0680912F0681
:1056E00090913006821793070CF05CC089819A81F3
:1056F000821793070CF056C01092B9041092B804A8
:1057000080E090E0DC018093690590936A05A093A6
:105710006B05B0936C058091690590916A05A09125
:105720006B05B0916C058093F3059093F405A093FD
:10573000F505B093F6058091F3059091F405A091DD
:10574000F505B091F60580935D0590935E05A093F5
:105750005F05B093600560915D0570915E05809175
:105760005F05909160050E94603D7093A70460936F
:10577000A6042E960FB6F894DEBF0FBECDBFCF9114
:10578000DF911F910F91FF90EF90DF90CF90BF902E
:10579000AF909F908F907F906F905F904F903F90D1
:1057A0002F90089560912706709128068091290610
:1057B00090912A06905820E030E048EC52E40E9494
:1057C000F83C9B01AC01D401F3016B2F782D8F2F96
:1057D000962D0E947A3C962E872E782E692E8091E7
:1057E0001F0690912006A0912106B09122068F837A
:1057F0009887A987BA878091230690912406A09163
:105800002506B09126068B879C87AD87BE87E090E2
:105810002706F09028060091290610912A0660912B
:10582000CC047091CD04882777FD8095982F0E9435
:10583000933DD401F3012B2F3A2F4F2F5E2F0E945F
:105840007A3C5B016C016F81788589859A852B850F
:105850003C854D855E850E947E12D0CE2F923F9270
:105860004F925F926F927F928F929F92AF92BF9270
:10587000CF92DF92EF92FF920F931F93DF93CF931C
:1058800000D000D000D0CDB7DEB77C01A62E972E79
:105890001A0169011A8309831092B9041092B8049D
:1058A00010927F0410927E0480917E0490917F0478
:1058B0009093300680932F0680912F0690913006AA
:1058C0009093A7048093A60460E070E080E090E0ED
:1058D000DC014A2D592D9B01220F331F220F331F4C
:1058E000F901E15EF94F80839183A283B3838080C5
:1058F0009180A280B380235F394FF9018082918229
:10590000A282B3826F5F7F4F6430710521F7A42EAE
:10591000952E00D000D000D0EDB7FEB7319607EF3E
:1059200015E0ADB7BEB712961C930E93119780EE9B
:1059300091E09383828385E192E0958384830E9442
:10594000493CEDB7FEB736960FB6F894FEBF0FBED2
:10595000EDBF80E067E0A8010E946701B7018827DA
:1059600077FD8095982F0E94933D2BED3FE049E411
:1059700050E40E94573F7B018C016A2D792D77FFFF
:1059800003C0709561957F4F882777FD8095982F8C
:105990000E94933D9B01AC01C801B7010E94573F93
:1059A00020E030E044E353E40E94F83C0E94603D74
:1059B0002B013C0180E090E0B2014A2D592D91016C
:1059C0008601E980FA800E94FC14B601882777FDE1
:1059D0008095982F0E94933D7B018C0120911106A8
:1059E0003091120640911306509114060E94F83C23
:1059F0009B01AC015F77C801B7010E94573F0E942D
:105A0000603D7B018C0180E090E0B2014A2D592D70
:105A100091018701E980FA800E94FC14909330067E
:105A200080932F0699244424332422248824772425
:105A30006624552480917E0490917F040097D1F7CD
:105A400021E030E030937F0420937E0480912F0684
:105A50009091300669817A810E94EB15609127064A
:105A6000709128068091290690912A06E0902B06D5
:105A7000F0902C0600912D0610912E062091A60480
:105A80003091A7042115310531F4A1E0B0E0B093C5
:105A9000A704A093A60420912F06309130064091D0
:105AA000A6045091A704241735070CF056C0109295
:105AB000B9041092B80480E090E0DC01809369059D
:105AC00090936A05A0936B05B0936C05809169056E
:105AD00090916A05A0916B05B0916C058093F305D8
