:100000000C9455000C9474000C9474000C947400BF
:100010000C9474000C9474000C9474000C94740090
:100020000C9474000C9474000C9474000C94740080
:100030000C9474000C9474000C94172C0C947400A1
:100040000C9474000C9474000C94544E0C94740032
:100050000C9474000C9474000C9474000C94740050
:100060000C9474000C9474000C9474000C94740040
:100070000C9474000C9474000C940A010C94740099
:100080000C9474000C9474000C94740005A84CCD6E
:10009000B2D44EB93836A9020C50B9918688083CC2
:1000A000A6AAAA2ABE000000803F11241FBECFEFDF
:1000B000D0E1DEBFCDBF12E0A0E0B1E0E8EAFBEAAC
:1000C00000E00BBF02C007900D92AE32B107D9F726
:1000D00013E0AEE2B2E001C01D92A738B107E1F72C
:1000E0000E9486080C94FC4E0C94000094EA9093B5
:1000F00074009091740097FFFCCF9AE09093730086
:1001000094E8909374009091740097FFFCCF8093D3
:10011000730084E8809374008091740087FFFCCFA3
:1001200084E98093740084EA809374008091740061
:1001300087FFFCCF8BE08093730084E8809374008A
:100140008091740087FFFCCF84E8809374008091D5
:10015000740087FFFCCF8091730094E99093740042
:10016000089594EA909374009091740097FFFCCFE7
:100170009AE09093730094E89093740090917400C7
:1001800097FFFCCF8093730084E880937400809184
:10019000740087FFFCCF6093730084E88093740041
:1001A0008091740087FFFCCF84E9809374000895E8
:1001B00010929B0088E980939A0086E080939D00CE
:1001C000109298008FE580939900789408951F937A
:1001D0001FEF1093730081E4809370000E9441250B
:1001E0000E94404E0E94D8000E943B241FBC85E024
:1001F0008EBD1DBD80E78CBD84E087BF78948FE005
:1002000087BB81B3807F81BB84B3806F84BB18BA06
:100210001F9108951F920F920FB60F9211248F9382
:10022000DF93CF930F92CDB7DEB780919C00898387
:1002300080919B00887BE1F381E080932E0289818D
:1002400080932F020F90CF91DF918F910F900FBE6F
:100250000F901F901895DF93CF930F92CDB7DEB715
:1002600080912F02898310922F02F89410922E020F
:10027000789489810F90CF91DF91089590919B00A0
:1002800095FFFCCF80939C000895CF93DF93E4E724
:10029000F0E094EA9083A1EEB2E01197F1F700004C
:1002A000A3E7B0E09EE09C9394E89083C1EED2E097
:1002B0002197F1F700008C93908381EE92E00197F3
:1002C000F1F7000084E98083DF91CF910895EF92E8
:1002D000FF920F931F93DF93CF9300D0CDB7DEB77C
:1002E000082F162F843070F5643160F58BE1498357
:1002F0005A830E9445018CE40E944501812F0E948F
:100300004501802F0E94450180E791E00197F1F7B8
:1003100000C0E12EFF2449815A81042F152F06C009
:100320000E94450194EC9A95F1F700C0E4E1EE16C5
:10033000F10444F4F80181918F010894E11CF11C4F
:10034000882371F70F900F90CF91DF911F910F913C
:10035000FF90EF9008951F93DF93CF9300D0CDB718
:10036000DEB7182F8430F0F46431E0F48BE12A8397
:1003700069830E9445018CE40E9445016981862FB2
:100380000E944501812F0E94450180E791E001977D
:10039000F1F700C02A81822F0E94450194EC9A95C2
:1003A000F1F700C00F900F90CF91DF911F9108954A
:1003B0008BE10E94450183E40E94450186E696EEAA
:1003C000A0E081509040A040E1F70895EF92FF92A5
:1003D0000F931F93182FF62EE42E842F64E60E94AD
:1003E0009F55082F282F30E0205D3F4F442737FDD1
:1003F0004095542F812F6F2D0E94AB018CE9089FEF
:10040000002D11240E0D802F6AE00E949F55E82ECA
:100410006F2D6F5F282F30E0205D3F4F442737FD61
:100420004095542F812F0E94AB016F2D6E5F26EFF8
:10043000E29E202D1124200F30E0205D3F4F442705
:1004400037FD4095542F812F0E94AB011F910F91D2
:10045000FF90EF9008956F927F928F929F92AF924C
:10046000BF92CF92DF92EF92FF920F931F93CF93A1
:10047000DF930F2EF0E06F2EF0E07F2EF0E08F2E56
:10048000F0E09F2EF02D60926A0270926B028092D3
:100490006C0290926D0260925002709251028092B2
:1004A000520290925302CAE5D0E0D0938D02C093DD
:1004B0008C0286E090E066E970E044E050E024ECD5
:1004C00030E005E010E0AAEAEA2EF12CFEE1CF2EA2
:1004D000D12CEEE1AE2EB12C0E94344710928D0249
:1004E00010928C0280E090E06AE070E04CEE5FEFEA
:1004F00028E230E002E310E00E94513D8CEE9FEFD5
:1005000090938D0280938C0283E190E066EA7FEF06
:100510004AEB5FEF23E230E000E010E00E94ED3EA6
:1005200010928D0210928C0284E190E06AE570E0F6
:100530004AEB5FEF23E230E00E94ED3E84E190E081
:1005400090938D0280938C0280E090E066EF7FEFC5
:100550004CEE5FEF28E230E00EEC1FEF0E94513DC1
:1005600060926A0270926B0280926C0290926D02AD
:100570006092500270925102809252029092530205
:10058000D0938D02C0938C0286E090E066E970E023
:1005900044E050E024EC30E005E010E00E943447F5
:1005A00010928D0210928C02DF91CF911F910F91CA
:1005B000FF90EF90DF90CF90BF90AF909F908F9083
:1005C0007F906F900895AF92BF92CF92DF92EF929B
:1005D000FF920F931F93CF93DF938CE00E94234EE3
:1005E0008091300290913102009731F00E947C2E70
:1005F000B59BFECFB599FECF80E062E10E94054E2B
:100600008823D1F30E947F4C80E063E10E94054E75
:100610008823D1F3E0919402F091950260919602C3
:1006200070919702409198025091990280E090E079
:10063000DC01AA0FBB1F9C0113E0220F331F1A9588
:10064000E1F7A20FB31FAB53BD4F2D913C91119712
:100650002115310509F473C012962D913C91139721
:100660002C53304037FF03C0309521953F4F29313F
:10067000310584F4FC01EE0FFF1F9C01A3E0220F63
:10068000331FAA95E1F7E20FF31FEB53FD4F0190E3
:10069000F081E02DDC01AA0FBB1F9C0113E0220FAB
:1006A000331F1A95E1F7A20FB31FAB53BD4F12963C
:1006B0002D913C9113972B57304037FF03C0309555
:1006C00021953F4F293131057CF4DC01AA0FBB1F76
:1006D0009C0163E0220F331F6A95E1F7A20FB31F5D
:1006E000AB53BD4F6D917C91DC01AA0FBB1F9C01E8
:1006F00013E0220F331F1A95E1F7A20FB31FAB537C
:10070000BD4F12962D913C911397295B304037FFD6
:1007100003C0309521953F4F2931310584F4DC0128
:10072000AA0FBB1F9C0113E0220F331F1A95E1F79C
:10073000A20FB31FAB53BD4F4D915C911197019622
:100740008930910509F074CFF0939502E0939402FB
:100750007093970260939602509399024093980287
:100760000E94D8018DB79EB70A970FB6F8949EBF26
:100770000FBE8DBFEDB7FEB73196CDE4D3E0ADB778
:10078000BEB71296DC93CE93119780E091E09383ED
:1007900082838091940290919502958384838091C5
:1007A0009602909197029783868380919802909108
:1007B0009902918780870E94FF4E8DB79EB70A9657
:1007C0000FB6F8949EBF0FBE8DBF81E061E0AE0111
:1007D0000E9467018091300290913102009731F0C0
:1007E0000E947C2EB59BFECFB599FECF80919202E0
:1007F0009091930220919402309195022817390725
:1008000079F020919602309197022817390741F02C
:1008100020919802309199022817390709F08FC169
:100820000F2EF0E0CF2EF0E0DF2EF0E0EF2EF0E024
:10083000FF2EF02DC092A202D092A302E092A40259
:10084000F092A5028091A2029091A302A091A4022D
:10085000B091A50280939E0290939F02A093A00264
:10086000B093A10280919E0290919F02A091A0025C
:10087000B091A10280939A0290939B02A0939C0254
:10088000B0939D02C092AE02D092AF02E092B0024D
:10089000F092B1028091AE029091AF02A091B002AD
:1008A000B091B1028093AA029093AB02A093AC02E4
:1008B000B093AD028BEF9FEF67E170E040E050E056
:1008C0002EE130E00CE810E00E94D73380919A02CC
:1008D00090919B02A0919C02B0919D0280919E02FA
:1008E00090919F02A091A002B091A1022091940248
:1008F00030919502809192029091930228173907C6
:1009000009F04AC086EF9FEF60E070E040E050E001
:1009100024E130E002E810E00E94D733C0926A027E
:10092000D0926B02E0926C02F0926D02C092500283
:10093000D0925102E0925202F092530280919402BE
:100940009091950260E070E04DE850E028E730E0DB
:100950000E949F3180E090E06FE070E040E050E066
:100960002EE130E00CE810E00E94D73380E090E008
:1009700061EF7FEF40E050E02EE130E00E94D7339E
:100980008AE090E060E070E040E050E024E130E098
:1009900002E810E00E94D73380919602909197026E
:1009A00020919202309193028217930789F520E0FB
:1009B00030E0A90120936A0230936B0240936C02ED
:1009C00050936D0220935002309351024093520293
:1009D0005093530260E070E04DE850E028E730E0CB
:1009E0000E949F3180E090E06FE070E040E050E0D6
:1009F0002EE130E00CE810E00E94D73380E090E078
:100A000061EF7FEF40E050E02EE130E00E94D7330D
:100A100020919802309199028091920290919302D4
:100A20002817390709F04DC08AE090E060E070E0D7
:100A300040E050E024E130E002E810E00E94D733CB
:100A400080E090E0DC0180936A0290936B02A093B7
:100A50006C02B0936D028093500290935102A09368
:100A60005202B0935302809198029091990260E0F3
:100A700070E04DE850E028E730E00E949F3180E0D0
:100A800090E06FE070E040E050E02EE130E00CE8F4
:100A900010E00E94D73380E090E061EF7FEF40E00C
:100AA00050E02EE130E00E94D73386EF9FEF60E008
:100AB00070E040E050E024E130E002E810E00E9405
:100AC000D73384E090E06BEE7FEF40E050E02EE122
:100AD00030E00CE810E00E94D73380E090E0DC01C9
:100AE00080936A0290936B02A0936C02B0936D02A4
:100AF0008093500290935102A0935202B0935302FC
:100B00008AE590E090938D0280938C0286E090E0DD
:100B100066E970E044E050E024EC30E005E010E0ED
:100B2000AAEAEA2EF12CFEE1CF2ED12CEEE1AE2E78
:100B3000B12C0E94344710928D0210928C0286E0F4
:100B4000E4E9F2E0DF011D928A95E9F760E070E0E8
:100B50008CE892E444E650E00E94CB4086E490E0CA
:100B600090938D0280938C0280E062E10E94054E9A
:100B70008823D1F30E947F4C80E063E10E94054E00
:100B80008823D1F3E0919402F0919502609196024E
:100B900070919702409198025091990280E090E004
:100BA000DC01AA0FBB1F9C0113E0220F331F1A9513
:100BB000E1F7A20FB31FAB53BD4F2D913C9111979D
:100BC0002115310509F473C012962D913C911397AC
:100BD0002E52304037FF03C0309521953F4F2931C9
:100BE000310584F4FC01EE0FFF1F9C01A3E0220FEE
:100BF000331FAA95E1F7E20FF31FEB53FD4F01906E
:100C0000F081E02DDC01AA0FBB1F9C0113E0220F35
:100C1000331F1A95E1F7A20FB31FAB53BD4F1296C6
:100C20002D913C9113972457304037FF03C03095E6
:100C300021953F4F293131057CF4DC01AA0FBB1F00
:100C40009C0163E0220F331F6A95E1F7A20FB31FE7
:100C5000AB53BD4F6D917C91DC01AA0FBB1F9C0172
:100C600013E0220F331F1A95E1F7A20FB31FAB5306
:100C7000BD4F12962D913C911397255B304037FF65
:100C800003C0309521953F4F2931310584F4DC01B3
:100C9000AA0FBB1F9C0113E0220F331F1A95E1F727
:100CA000A20FB31FAB53BD4F4D915C9111970196AD
:100CB0008930910509F074CFF0939502E093940286
:100CC0007093970260939602509399024093980212
:100CD0000E94D8018DB79EB70A970FB6F8949EBFB1
:100CE0000FBE8DBFEDB7FEB73196CDE4D3E0ADB703
:100CF000BEB71296DC93CE93119780E091E0938378
:100D0000828380919402909195029583848380914F
:100D10009602909197029783868380919802909192
:100D20009902918780870E94FF4E8DB79EB70A96E1
:100D30000FB6F8949EBF0FBE8DBF81E061E0AE019B
:100D40000E9467018091300290913102009731F04A
:100D50000E947C2EB59BFECFB599FECF809192026A
:100D600090919302209194023091950228173907AF
:100D700079F020919602309197022817390741F0B7
:100D800020919802309199022817390709F072C111
:100D90000F2EF0E0AF2EF0E0BF2EF0E0CF2EF0E00F
:100DA000DF2EF02DA092A202B092A302C092A40264
:100DB000D092A5028091A2029091A302A091A402D8
:100DC000B091A50280939E0290939F02A093A002EF
:100DD000B093A10280919E0290919F02A091A002E7
:100DE000B091A10280939A0290939B02A0939C02DF
:100DF000B0939D02A092AE02B092AF02C092B00238
:100E0000D092B1028091AE029091AF02A091B00257
:100E1000B091B1028093AA029093AB02A093AC026E
:100E2000B093AD0285EF9FEF63E170E044E150E0E5
:100E30002EE130E00CE810E0B4E1EB2EF12C0E9442
:100E4000294210928D0210928C0260919A02709148
:100E50009B0280919C0290919D020E941650EB0192
:100E600060919E0270919F028091A0029091A102D8
:100E70000E9416507B01209194023091950280913E
:100E80009202909193022817390709F04AC086EF21
:100E90009FEF60E070E040E050E024E130E002E8E5
:100EA00010E00E94D733A0926A02B0926B02C09207
:100EB0006C02D0926D02A0925002B0925102C09288
:100EC0005202D0925302809194029091950260E078
:100ED00070E04DE850E028E730E00E949F3180E06C
:100EE00090E06FE070E040E050E02EE130E00CE890
:100EF00010E00E94D73380E090E061EF7FEF40E0A8
:100F000050E02EE130E00E94D7338AE090E060E0CC
:100F100070E040E050E024E130E002E810E00E94A0
:100F2000D73380919602909197022091920230914E
:100F300093028217930789F520E030E0A9012093FE
:100F40006A0230936B0240936C0250936D022093BF
:100F5000500230935102409352025093530260E08A
:100F600070E04DE850E028E730E00E949F3180E0DB
:100F700090E06FE070E040E050E02EE130E00CE8FF
:100F800010E00E94D73380E090E061EF7FEF40E017
:100F900050E02EE130E00E94D7332091980230914A
:100FA000990280919202909193022817390709F0D3
:100FB0004DC08AE090E060E070E040E050E024E165
:100FC00030E002E810E00E94D73380E090E0DC01DE
:100FD00080936A0290936B02A0936C02B0936D02AF
:100FE0008093500290935102A0935202B093530207
:100FF000809198029091990260E070E04DE850E095
:1010000028E730E00E949F3180E090E06FE070E0E0
:1010100040E050E02EE130E00CE810E00E94D733D1
:1010200080E090E061EF7FEF40E050E02EE130E0C3
:101030000E94D73386EF9FEF60E070E040E050E021
:1010400024E130E002E810E00E94D73366277727DA
:101050006C1B7D0B882799278E199F0946EA5FEF45
:101060002EE130E00CE810E0ACE3EA2EF12C0E9417
:10107000294208C060E070E08CE892EC44E650E061
:101080000E94CB4080E090E0DC0180936A02909364
:101090006B02A0936C02B0936D0280935002909308
:1010A0005102A0935202B09353028AE590E09093CC
:1010B0008D0280938C0286E090E066E970E044E067
:1010C00050E024EC30E005E010E0FAEAEF2EF12CDD
:1010D000EEE1CE2ED12CBEE1AB2EB12C0E943447D6
:1010E00010928D0210928C0286E0E4E9F2E0DF01BA
:1010F0001D928A95E9F7DF91CF911F910F91FF9093
:10110000EF90DF90CF90BF90AF9008952F923F92D5
:101110004F925F926F927F928F929F92AF92BF9207
:10112000CF92DF92EF92FF920F931F93DF93CF93B3
:1011300000D000D0CDB7DEB70E94E7008EE161E0BD
:101140000E94B1008EE165E00E94B1008EE164E191
:101150000E94B1008EE160E10E94B1000E94EB4D5F
:101160008BE00E94234E82E30E94BE2E80E063E16A
:101170000E94054E8823D1F30FEF1FE726E10150AF
:1011800010402040E1F700C0000080E090E0DC016A
:101190008093A2029093A302A093A402B093A5020D
:1011A0002091A2023091A3024091A4025091A50285
:1011B00020939E0230939F024093A0025093A1027D
:1011C00020919E0230919F024091A0025091A10275
:1011D00020939A0230939B0240939C0250939D026D
:1011E0008093AE029093AF02A093B002B093B1028D
:1011F0008091AE029091AF02A091B002B091B10285
:101200008093AA029093AB02A093AC02B093AD027C
:10121000C39A2FEF3FE744E0215030404040E1F7D0
:1012200000C00000C3980F2EF0E06F2EF0E07F2E7C
:10123000F0E08F2EF0E09F2EF02D1CEE212E1FEF00
:10124000312EBDE44B2EB3E05B2EB49914C08091D7
:1012500030029091310201979093310280933002D5
:10126000C39A4FEF5FE764E0415050406040E1F7C0
:1012700000C00000C398B69914C0809130029091CC
:10128000310201969093310280933002C39A6FEF3E
:101290007FE784E0615070408040E1F700C00000CB
:1012A000C398B59B02C00C9415210E94D801C39A23
:1012B0008FEF9FE7A4E081509040A040E1F700C08D
:1012C0000000C398809130029091310283309105E3
:1012D00044F597FF49C0AFEF8C3F9A0711F40C9487
:1012E000EC1FBFEF8D3F9B0774F4EFEF863F9E0727
:1012F00011F40C94331EFFEF8A3F9F0711F00C94FA
:1013000015210C94C7170FEF8E3F900711F40C9422
:10131000DA1E1FEF8F3F910711F00C9415210C94EA
:101320003E1F89309105A4F48730910514F00C9488
:101330008F128530910509F49AC78630910514F013
:101340000C94C0118430910511F00C941521BCC689
:101350008930910511F40C94B3188A30910511F07D
:101360000C9415210C94781D60926A0270926B02A5
:1013700080926C0290926D026092500270925102C3
:1013800080925202909253022AE530E030938D020F
:1013900020938C0283E090E06AE770E044E050E044
:1013A00024EC30E005E010E0AAEAEA2EF12CFEE1A0
:1013B000CF2ED12CEEE1AE2EB12C0E9434471092EC
:1013C0008D0210928C028CE090E061E070E045E0CC
:1013D00050E023E030E00CE010E0EE24FF24B8E21F
:1013E000CB2ED12CA2E3AA2EB12C0E941B3A8AE06C
:1013F00090E061E070E045E050E025E030E0AA24B4
:10140000BB240E941B3A81E090E066E170E04AEB69
:101410005FEF2EE130E000E010E00E94513D8AEBEA
:101420009FEF90938D0280938C028FE090E066EAAC
:101430007FEF4CEE5FEF2EE130E00E94ED3E109228
:101440008D0210928C0285E690E063E070E00E94CD
:10145000D02E90939302809392020E94D80100D0E4
:1014600000D000D0EDB7FEB73196ADB7BEB712963B
:101470005C924E9211970FE011E0138302838091EA
:10148000920290919302958384830E94FF4E2DB720
:101490003EB72A5F3F4F0FB6F8943EBF0FBE2DBF39
:1014A00081E061E0A2010E9467018CE090E061E0D0
:1014B00070E045E050E023E030E00CE010E00E94F6
:1014C0001B3A8AE090E061E070E047E050E025E000
:1014D00030E0FEECAF2EFFEFBF2E0E941B3A80E003
:1014E00090E06FEE7FEF40E050E02EE130E008E268
:1014F00010E00E94D7334AE550E050938D024093AC
:101500008C0280E090E060E070E044E050E024EC89
:1015100030E005E010E0EAEAEE2EF12CBEE1CB2E41
:10152000D12CAEE1AA2EB12C0E94344760926A02FF
:1015300070926B0280926C0290926D0260925002E7
:101540007092510280925202909253026AE570E0CA
:1015500070938D0260938C0283E090E06AE770E004
:1015600044E050E024EC30E00E94344710928D02B9
:1015700010928C0280E090E06EEF7FEF40E050E050
:101580002AE030E008E710E00E94D7338CE190E0D9
:1015900060E070E046E450E02EE130E008E210E068
:1015A0000E94513D30928D0220928C028CEE9FEF72
:1015B0006AE570E04AE550E02EE130E000E010E03E
:1015C0000E94ED3E8CE090E066E070E04BEF5FEF54
:1015D00023E030E00EE010E0EE24FF24F8E2CF2E0E
:1015E000D12CAA24BB240E941B3A8AE090E066E03A
:1015F00070E046EF5FEF25E030E00E941B3A10926A
:1016000091021092900286E090E066E070E048E17E
:101610005CEF23E030E0E9E1EE2EF12C0E941B3A72
:1016200080919002909191029093370280933602BC
:1016300080913002909131028230910531F481E045
:1016400090E0909337028093360280E090E061EF63
:101650007FEF48E250E028E230E00EEC1FEFB8E206
:10166000EB2EF12C0E94294284E190E090938D02B0
:1016700080938C020E94D80100D000D000D0EDB73A
:10168000FEB73196ADB7BEB712965C924E921197E7
:1016900009E111E0138302838091360290913702B1
:1016A000958384830E94FF4E2DB73EB72A5F3F4F3C
:1016B0000FB6F8943EBF0FBE2DBF82E061E0A201DD
:1016C0000E9467018BEF9FEF69E170E046E450E014
:1016D00029E130E003E210E00E94513D10928D02BA
:1016E00010928C026092A2027092A3028092A402D5
:1016F0009092A5028091A2029091A302A091A402CF
:10170000B091A50280939E0290939F02A093A002A5
:10171000B093A10280919E0290919F02A091A0029D
:10172000B091A10280939A0290939B02A0939C0295
:10173000B0939D026092AE027092AF028092B002AE
:101740009092B1028091AE029091AF02A091B0024E
:10175000B091B1028093AA029093AB02A093AC0225
:10176000B093AD028CE090E068E070E045E050E0BE
:1017700023E030E000E110E0EE24FF24A8E2CA2ECE
:10178000D12CF2E3AF2EB12C0E941B3A8AE090E0FC
:1017900068E070E045E050E025E030E0AA24BB249A
:1017A0000E941B3A88E090E068E070E048EE53E069
:1017B00023E030E0E9E1EE2EF12C0E941B3A60912B
:1017C0009E0270919F028091A0029091A10201E07F
:1017D00010E020E030E040E252E40E94725118161E
:1017E00014F000E010E010933502009334020E94E0
:1017F000D80100D000D000D0EDB7FEB73196ADB71C
:10180000BEB712965C924E92119704E211E01383D8
:1018100002838091340290913502958384830E94E3
:10182000FF4E2DB73EB72A5F3F4F0FB6F8943EBF2D
:101830000FBE2DBF83E060E0A2010E94670182E03D
:1018400090E065E270E046EA5FEF2EE130E000E014
:1018500010E00E94513D86EA9FEF90938D028093A5
:101860008C0285E090E066EA7FEF40E050E023E202
:1018700030E00E94ED3E10928D0210928C0280E0CA
:1018800090E06CE070E040E150E020E030E00AE001
:1018900010E0B8E2EB2EF12CCC24DD240E9416459A
:1018A00082E090E063E270E046EA5FEF28E230E039
:1018B0000EEC1FEF0E94513D809134029091350251
:1018C000009709F442C08EE190E090933D0280932E
:1018D0003C0280E090E062E070E040E050E02AE00E
:1018E00030E008E710E00E94D73360926A027092FD
:1018F0006B0280926C0290926D0260925002709224
:10190000510280925202909253024AE550E0509365
:101910008D0240938C0283E090E06AE770E044E03F
:1019200050E024EC30E005E010E0AAEAEA2EF12CC9
:10193000FEE1CF2ED12CEEE1AE2EB12C0E94344729
:1019400010928D0210928C0225C060926A027092F1
:101950006B0280926C0290926D02609250027092C3
:101960005102809252029092530280E090E060E037
:1019700070E041E050E025EA30E003E010E0BDE92E
:10198000EB2EF12CAEE1CA2ED12CFEE1AF2EB12C04
:101990000E94344785E690E063E070E00E94D02E1C
:1019A00020919202309193028217930709F07EC032
:1019B0006092A2027092A3028092A4029092A50269
:1019C0008091A2029091A302A091A402B091A502DD
:1019D00080939E0290939F02A093A002B093A102D5
:1019E00080919E0290919F02A091A002B091A102CD
:1019F00080939A0290939B02A0939C02B0939D02C5
:101A00006092AE027092AF028092B0029092B102E8
:101A10008091AE029091AF02A091B002B091B1025C
:101A20008093AA029093AB02A093AC02B093AD0254
:101A30008CE090E061E070E044E050E023E030E0D2
:101A40000CE010E0EE24FF24E8E2CE2ED12CB2E32D
:101A5000AB2EB12C0E941B3A40913C0250913D02AA
:101A60004B5F5F4F8AE090E061E070E025E030E09E
:101A7000AEECAA2EAFEFBA2E0E941B3A60919E02E6
:101A800070919F028091A0029091A10290580E94B3
:101A900016509B01AC018FEF9FEFB90140E050E081
:101AA0002EE130E00CE810E00E94D7338091340240
:101AB00090913502009709F448C080E090E062E020
:101AC00070E040E050E02AE030E008E710E00E94DB
:101AD000D73360926A0270926B0280926C0290928D
:101AE0006D02609250027092510280925202909266
:101AF00053026AE570E070938D0260938C0283E07C
:101B000090E06AE770E044E050E024EC30E005E06B
:101B100010E0FAEAEF2EF12CEEE1CE2ED12CBEE150
:101B2000AB2EB12C0E94344710928D0210928C0281
:101B30008FEF9FEF6EEF7FEF40E050E02AE030E064
:101B400008E710E00E94D73325C060926A027092C5
:101B50006B0280926C0290926D02609250027092C1
:101B60005102809252029092530280E090E060E035
:101B700070E041E050E025EA30E003E010E0ADE93C
:101B8000EA2EF12CFEE1CF2ED12CEEE1AE2EB12CBF
:101B90000E9434478091360290913702009709F0F5
:101BA0004CC18EE190E060E070E046E450E02EE150
:101BB00030E008E210E00E94513D30928D02209208
:101BC0008C028DEE9FEF6AE570E04AE550E02EE171
:101BD00030E000E010E00E94ED3E8CE090E066E036
:101BE00070E04BEF5FEF23E030E00CE010E0EE241C
:101BF000FF24B8E2CB2ED12CAA24BB240E941B3A8E
:101C00008AE090E066E070E04BEF5FEF25E030E0C7
:101C10000E941B3A86E090E066E070E048E15CEFED
:101C200025E030E0A4E1EA2EF12C0E941B3A85E089
:101C300090E06CE070E040E150E024E130E008E149
:101C40001CEFF8E2EF2EF12CCC24DD240E94164587
:101C500084EF9FEF66EA7FEF40E050E02EE130E056
:101C600000E010E00E94ED3E81EF9FEF60E070E049
:101C70004EEC5FEF2EE130E00E94513D84E190E0B8
:101C800090938D0280938C028CE090E063E070E092
:101C90004DEF5FEF23E030E002E110E0EE24FF249F
:101CA000E8E2CE2ED12C0E941B3A8AE090E063E05D
:101CB00070E04BEF5FEF25E030E00E941B3A8CEFC5
:101CC0009FEF63E070E048E15CEF25E030E0B4E1D5
:101CD000EB2EF12C0E941B3A83EF9FEF6AE570E038
:101CE00040E050E02EE130E000E010E00E94ED3EE8
:101CF0008FE090E060E070E042E350E02EE130E001
:101D00000E94513D30928D0220928C028CE090E036
:101D100066E070E04DEF5FEF23E030E00EE010E0B2
:101D2000EE24FF240E941B3A8AE090E066E070E017
:101D30004BEF5FEF25E030E00E941B3A8BEF9FEF07
:101D400066E070E048E15CEF25E030E0A4E1EA2ED7
:101D5000F12C0E941B3A84EF9FEF66EA7FEF46EF7B
:101D60005FEF2EE130E000E010E00E94ED3E8CE3FA
:101D700090E090938D0280938C028CE090E064E080
:101D800070E04BEF5FEF23E030E00EE010E0EE2478
:101D9000FF240E941B3A8AE090E064E070E04BEF81
:101DA0005FEF25E030E00E941B3A8DEF9FEF64E08B
:101DB00070E048E15CEF25E030E0F4E1EF2EF12C3B
:101DC0000E941B3A80E090E066EF7FEF4EE150E02A
:101DD00028E230E00EEC1FEFE8E2EE2EF12C0E943C
:101DE000294260926A0270926B0280926C02909219
:101DF0006D02609250027092510280925202909253
:101E000053028AE590E090938D0280938C0283E0E8
:101E100090E06AE770E044E050E024EC30E005E058
:101E200010E0BAEAEB2EF12CAEE1CA2ED12CFEE185
:101E3000AF2EB12C0E94344740C180913402909162
:101E40003502009709F456C08EE190E060E070E042
:101E500046E450E02EE130E008E210E00E94513DFF
:101E600030928D0220928C028EEE9FEF6AE570E038
:101E70004AE550E02EE130E000E010E00E94ED3E47
:101E80008CE090E066E070E04BEF5FEF23E030E045
:101E90000CE010E0EE24FF24E8E2CE2ED12CAA24A0
:101EA000BB240E941B3A8AE090E066E070E047EFB6
:101EB0005FEF25E030E00E941B3A8CEE9FEF66EA70
:101EC0007FEF48ED5FEF2EE130E000E010E00E9490
:101ED000ED3E8EE190E090938D0280938C0280E045
:101EE00090E06BEF7FEF46EF5FEF2EE130E00E9476
:101EF000513D28C088E290E060E070E04AE550E0A3
:101F00002EE130E008E210E00E94513D86EF9FEFA5
:101F10006AE570E04AE050E02EE130E000E010E0D9
:101F20000E94ED3E84E690E090938D0280938C02B7
:101F30008CE090E066EA7FEF4AE050E02EE130E08E
:101F40000E94ED3E84E190E090938D0280938C029C
:101F50008CE090E065E070E04DEF5FEF23E030E073
:101F60000EE010E0EE24FF24B8E2CB2ED12CAA2400
:101F7000BB240E941B3A8AE090E065E070E04BEFE2
:101F80005FEF25E030E00E941B3A8CEF9FEF65E0A9
:101F900070E048E15CEF25E030E0A4E1EA2EF12CAE
:101FA0000E941B3A82EF9FEF66EA7FEF48ED5FEFFA
:101FB0002EE130E000E010E00E94ED3E30928D0214
:101FC00020928C0281EF9FEF6FEF7FEF4EEC5FEF7F
:101FD0002EE130E00E94513D84E190E090938D022B
:101FE00080938C028CE090E063E070E04DEF5FEF57
:101FF00023E030E000E110E0EE24FF240E941B3AD1
:102000008AE090E063E070E04BEF5FEF25E030E0C6
:102010000E941B3A8CEF9FEF63E070E048E15CEFB9
:1020200023E030E0F4E1EF2EF12C0E941B3A84EF24
:102030009FEF6AE570E04AE050E02EE130E000E01A
:1020400010E00E94ED3EA4ECBFEFB0938D02A09390
:102050008C028CE090E065E070E04DEF5FEF23E0F4
:1020600030E000E110E0EE24FF240E941B3A8AE0F9
:1020700090E065E070E04BEF5FEF25E030E00E941C
:102080001B3A8AEF9FEF65E070E048E15CEF23E0E8
:1020900030E0E4E1EE2EF12C0E941B3A80E090E06B
:1020A00066EF7FEF42EE5FEF28E230E00EEC1FEFCD
:1020B000B8E2EB2EF12C0E942942809136029091D9
:1020C0003702009709F4D3C060926A0270926B02E3
:1020D00080926C0290926D02609250027092510256
:1020E0008092520290925302EAE5F0E0F0938D0262
:1020F000E0938C0286E090E066E970E044E050E016
:1021000024EC30E005E010E0AAEAEA2EF12CFEE132
:10211000CF2ED12CEEE1AE2EB12C0E94344710927E
:102120008D0210928C0280E090E061E170E046EF59
:102130005FEF2EE130E008E210E00E94513D86EFB3
:102140009FEF90938D0280938C028DE090E066EA81
:102150007FEF40E050E02EE130E000E010E00E9430
:10216000ED3E80E590E090938D0280938C0284E0B8
:1021700090E06AE570E04AE050E029E130E00E943A
:10218000ED3E10928D0210928C028CE090E061E0A6
:1021900070E045E050E023E030E00EE010E0EE2497
:1021A000FF24B8E2CB2ED12CAA24BB240E941B3AD8
:1021B0008AE090E061E070E045E050E025E030E04A
:1021C0000E941B3A81E090E061E070E048EE53E04D
:1021D00023E030E0A4E1EA2EF12C0E941B3A82E0D9
:1021E00090E069E170E04AEB5FEF2EE130E000E063
:1021F00010E00E94513D8AEB9FEF90938D028093F7
:102200008C028FE090E06AE570E04CEE5FEF2EE12B
:1022100030E008ED1FEF0E94ED3E60926A0270927E
:102220006B0280926C0290926D02609250027092EA
:10223000510280925202909253020AE510E01093EC
:102240008D0200938C0286E090E066E970E044E045
:1022500050E024EC30E005E010E0FAEAEF2EF12C3B
:10226000EEE1CE2ED12CBEE1AB2EB12C87C0609218
:102270006A0270926B0280926C0290926D02609280
:1022800050027092510280925202909253022AE5BB
:1022900030E030938D0220938C0283E090E06AE777
:1022A00070E044E050E024EC30E005E010E0AAEA01
:1022B000EA2EF12CFEE1CF2ED12CEEE1AE2EB12C88
:1022C0000E94344710928D0210928C0280E090E0C0
:1022D0006DE070E044E150E02EE130E008E210E013
:1022E0000E94513D84E190E090938D0280938C0296
:1022F0008FE090E06AE570E046E450E02EE130E0E7
:1023000000E010E00E94ED3E10928D0210928C02CF
:1023100088E090E066EA7FEF40E050E02EE130E0B8
:102320000E94ED3E8AE190E060E070E040E050E025
:1023300028E230E00EEC1FEF0E94D73360926A0271
:1023400070926B0280926C0290926D0260925002C9
:102350007092510280925202909253024AE550E0EC
:1023600050938D0240938C0286E090E066E970E025
:1023700044E050E024EC30E005E010E00E943447F7
:1023800060926A0270926B0280926C0290926D026F
:1023900060925002709251028092520290925302C7
:1023A0006AE570E070938D0260938C0286E090E0A5
:1023B00066E970E044E050E024EC30E005E010E035
:1023C000BAEAEB2EF12CAEE1CA2ED12CFEE1AF2EF3
:1023D000B12C0E94344710928D0210928C020E9400
:1023E000E3020E942B020E94E30260926A02709252
:1023F0006B0280926C0290926D0260925002709219
:10240000510280925202909253028AE590E090939A
:102410008D0280938C0286E090E066E970E044E0F3
:1024200050E024EC30E00E94344710928D0210926C
:102430008C0281EF9FEF60E070E040E050E022E32B
:1024400030E00CE310E00E94D733AAE5B0E0B0938F
:102450008D02A0938C0287EE9FEF6AE570E04CEE50
:102460005FEF28E230E000E010E00E94ED3E3092A5
:102470008D0220928C0285E090E06CE070E040E1FB
:1024800050E029E130E008E11CEFE2E3EE2EF12C10
:10249000CC24DD240E94164581EF9FEF66EA7FEF92
:1024A00040E050E02DE230E000E010E00E94ED3E20
:1024B0008BEF9FEF60E070E04AEB5FEF22E330E0EC
:1024C00004EC1FEFB0E5EB2EF12C0E942942609244
:1024D0006A0270926B0280926C0290926D0260921E
:1024E0005002709251028092520290925302EAE599
:1024F000F0E0F0938D02E0938C0286E090E066E9D4
:1025000070E044E050E024EC30E005E010E0AAEA9E
:10251000EA2EF12CFEE1CF2ED12C0E94344760929E
:102520006A0270926B0280926C0290926D026092CD
:1025300050027092510280925202909253020AE528
:1025400010E010938D0200938C0286E090E066E923
:1025500070E044E050E024EC30E005E010E0EAEA0E
:10256000EE2EF12CBEE1CB2ED12CAEE1AA2EB12C59
:102570000E94344710928D0210928C0210928F02AA
:1025800010928E0280E090E064E170E04CEE5FEF2C
:102590002EE130E008E210E00E94513D30928D02C1
:1025A00020928C0280918E0290918F02909339023A
:1025B00080933802809130029091310287309105EA
:1025C00031F481E090E09093390280933802809159
:1025D000380290913902009709F4CDC485E090E06B
:1025E00064E170E04EEC5FEF2EE130E000E010E0DF
:1025F0000E94513D8AEB9FEF90938D0280938C0255
:102600008AE090E066EA7FEF4CEE5FEF2EE130E08B
:102610000E94ED3E10928D0210928C028CE090E0B0
:1026200068E070E045E050E023E030E002E110E0D7
:10263000EE24FF24F8E2CF2ED12CAA24BB240E9442
:102640001B3A8AE090E068E070E04AE050E025E064
:1026500030E00E941B3A88E090E068E070E048EECD
:1026600053E023E030E0E9E1EE2EF12C0E941B3A2A
:1026700020915C0281E090E0253110F480E090E050
:1026800090933B0280933A0281E090E06BE270E02D
:1026900046EA5FEF2EE130E000E010E00E94513D9D
:1026A0008CE090E061E070E045E050E023E030E055
:1026B0000BE010E0EE24FF24B8E2CB2ED12CA2E3F5
:1026C000AA2EB12C0E941B3A8AE090E061E070E0F3
:1026D0004AE050E025E030E0AA24BB240E941B3AE7
:1026E00082E090E062E270E046EA5FEF2EE130E0E7
:1026F00000E010E00E94513D85E690E063E070E06C
:102700000E94D02E2091920230919302821793075B
:1027100039F48FE090E090933D0280933C0204C036
:1027200010923D0210923C028CE090E061E070E07B
:1027300045E050E023E030E00BE010E0EE24FF2421
:10274000F8E2CF2ED12CE2E3AE2EB12C0E941B3A40
:1027500040913C0250913D02495F5F4F8AE090E01A
:1027600061E070E025E030E0BEECAB2EBFEFBB2EA9
:102770000E941B3A6BEF7FEF80913C0290913D02EB
:10278000681B790B80E090E040E050E02EE130E003
:1027900008E210E00E94D7332AE530E030938D0242
:1027A00020938C0280E090E060E070E044E050E034
:1027B00024EC30E005E010E0AAEAEA2EF12CFEE17C
:1027C000CF2ED12CEEE1AE2EB12C0E943447609278
:1027D0006A0270926B0280926C0290926D0260921B
:1027E00050027092510280925202909253024AE536
:1027F00050E050938D0240938C0283E090E06AE7B2
:1028000070E044E050E024EC30E00E943447109245
:102810008D0210928C0280E090E06EEF7FEF40E03E
:1028200050E02AE030E008E710E00E94D7338CE166
:1028300090E060E070E046E450E02EE130E008E235
:1028400010E00E94513D30928D0220928C028BEE5E
:102850009FEF6AE570E04AE550E02EE130E000E0ED
:1028600010E00E94ED3E8CE090E066E070E04BEFFF
:102870005FEF23E030E000E110E0EE24FF24B8E257
:10288000CB2ED12CAA24BB240E941B3A8AE090E0D4
:1028900066E070E046EF5FEF25E030E00E941B3A13
:1028A00086E090E066E070E048E15CEF23E030E035
:1028B0000E941B3A85E090E06DE070E040E150E05E
:1028C00024E130E008E11CEFA8E2EA2EF12CCC2450
:1028D000DD240E94164585E090E065EB70E040E065
:1028E00050E020E030E000E010E0EE24FF24FEE1C4
:1028F000AF2EB12C0E94344780913A0290913B0256
:10290000009709F079C060E070E084EB92E444E65F
:1029100050E00E94CB400E947C2E66E470E07093F1
:102920008D0260938C0280E090E06DE070E044E105
:1029300050E029E130E003E210E00E94513D86E4DE
:1029400090E090938D0280938C0285E090E06AE5A0
:1029500070E040E050E02EE130E000E010E00E9446
:10296000ED3E10928D0210928C0280E090E06BE0C0
:1029700070E04FE050E020E030E00AE010E0E8E2F4
:10298000EE2EF12C0E94164582E090E067E270E0A6
:1029900046EA5FEF2EE130E000E010E00E94513D9A
:1029A0008CE090E061E070E045E050E023E030E052
:1029B0000EE010E0EE24FF24B8E2CB2ED12CA2E3EF
:1029C000AA2EB12C0E941B3A8AE090E061E070E0F0
:1029D00045E050E025E030E0AA24BB240E941B3AE9
:1029E00081E090E061E070E048EE53E025E030E007
:1029F000F4E1EF2EF12C87C060E070E080EA91E412
:102A00004EE150E00E94CB4010928D0210928C0259
:102A10008CE090E068E070E045E050E023E030E0DA
:102A200002E110E0EE24FF24E8E2CE2ED12CB2E346
:102A3000AB2EB12C0E941B3A8AE090E068E070E077
:102A40004AE050E025E030E0AA24BB240E941B3A73
:102A50008EEF9FEF6CE170E04AE550E02EE130E050
:102A600000E010E00E94513DAAE5B0E0B0938D0275
:102A7000A0938C0285E090E06AE570E040E050E0D1
:102A80002EE130E00E94ED3E10928D0210928C02F9
:102A900080E090E06AE070E04EE050E020E030E05E
:102AA0000AE010E0A8E2EA2EF12CCC24DD240E94FA
:102AB000164582E090E067E270E046EA5FEF2EE1C3
:102AC00030E008ED1FEF0E94513D8CE090E068E09F
:102AD00070E045E050E023E030E002E110E0EE2459
:102AE000FF24F8E2CF2ED12CE2E3AE2EB12C0E94CF
:102AF0001B3A8AE090E068E070E045E050E025E0B5
:102B000030E0AA24BB240E941B3A8EEF9FEF66E2BE
:102B100070E04AE550E02EE130E000E010E00E9475
:102B2000513D8CE090E068E070E045E050E023E04B
:102B300030E00FE010E0EE24FF24B8E2CB2ED12CE1
:102B4000A2E3AA2EB12C0E941B3A8AE090E068E032
:102B500070E04AE050E025E030E0AA24BB240E9467
:102B60001B3A8FEF9FEF62E270E04AE550E02EE102
:102B700030E000E010E00E94513D85E690E063E027
:102B800070E00E94D02E2091920230919302821721
:102B9000930739F48FE090E090933D0280933C02DC
:102BA00004C010923D0210923C028CE090E068E07C
:102BB00070E045E050E023E030E00FE010E0EE246C
:102BC000FF24F8E2CF2ED12CE2E3AE2EB12C0E94EE
:102BD0001B3A40913C0250913D024B5F5F4F8AE0AF
:102BE00090E068E070E025E030E0BEECAB2EBFEF97
:102BF000BB2E0E941B3A6BEF7FEF80913C029091BD
:102C00003D02681B790B80E090E040E050E02EE14F
:102C100030E008E210E00E94D733EAE5F0E0F093FC
:102C20008D02E0938C0280E090E060E070E044E090
:102C300050E024EC30E005E010E0AAEAEA2EF12CA6
:102C4000FEE1CF2ED12CEEE1AE2EB12C0E94344706
:102C500060926A0270926B0280926C0290926D0296
:102C600060925002709251028092520290925302EE
:102C70000AE510E010938D0200938C0286E090E04C
:102C800066E970E044E050E024EC30E005E010E05C
:102C90000E94344710928D0210928C0280E090E0E6
:102CA0006EEF7FEF40E050E02AE030E008E710E010
:102CB0000E94D73383EE9FEF60E070E04AEB5FEF56
:102CC0002EE130E008E210E00E94513D24E130E0C6
:102CD00030938D0220938C028BEE9FEF66EA7FEF9C
:102CE00046EA5FEF2EE130E000E010E00E94ED3EAA
:102CF0008CE090E063E070E04BEF5FEF23E030E0CA
:102D000002E110E0EE24FF24B8E2CB2ED12CAA245D
:102D1000BB240E941B3A8AE090E063E070E046EF3B
:102D20005FEF25E030E00E941B3A83E090E063E033
:102D300070E048E15CEF23E030E0A9E1EA2EF12CFD
:102D40000E941B3A84E090E060E170E042E150E0D4
:102D500026E130E008E11CEFF8E2EF2EF12CCC2464
:102D6000DD240E94164582EF9FEF66EA7FEF48ED73
:102D70005FEF29E130E000E010E00E94ED3E30928C
:102D80008D0220928C0281EF9FEF6EEF7FEF4EEC71
:102D90005FEF29E130E00E94513D44E150E0509363
:102DA0008D0240938C028CE090E063E070E04DEF88
:102DB0005FEF23E030E000E110E0EE24FF24E8E2E2
:102DC000CE2ED12C0E941B3A8AE090E063E070E0A6
:102DD0004BEF5FEF25E030E00E941B3A8CEF9FEF56
:102DE00063E070E048E15CEF23E030E0B4E1EB2E1B
:102DF000F12C0E941B3A84EF9FEF6AE570E04AE0F5
:102E000050E02EE130E000E010E00E94ED3E64EC86
:102E10007FEF70938D0260938C028CE090E065E010
:102E200070E04DEF5FEF23E030E000E110E0EE24D2
:102E3000FF240E941B3A8AE090E065E070E04BEFCF
:102E40005FEF25E030E00E941B3A8AEF9FEF65E0DC
:102E500070E048E15CEF23E030E0A4E1EA2EF12CE1
:102E60000E941B3A80E090E066EF7FEF42EE5FEF5A
:102E700028E230E00EEC1FEFF8E2EF2EF12C0E947A
:102E8000294260926A0270926B0280926C02909268
:102E90006D026092500270925102809252029092A2
:102EA00053028AE590E090938D0280938C0286E035
:102EB00090E066E970E044E050E024EC30E005E0AA
:102EC00010E0EAEAEE2EF12CBEE1CB2ED12CAEE1E1
:102ED000AA2EB12C0E94344710928D0210928C02BF
:102EE00080E090E06AE070E040E050E028E230E00E
:102EF00002E310E00E94D73389E190E066EA7FEFB9
:102F000040E050E028E230E000E010E00E94ED3EBA
:102F1000AAE5B0E0B0938D02A0938C0289E190E025
:102F20006AE570E04AE550E023E230E003ED1FEF90
:102F30000E94ED3E60926A0270926B0280926C0277
:102F400090926D02609250027092510280925202F1
:102F500090925302EAE5F0E0F0938D02E0938C0248
:102F600086E090E066E970E044E050E024EC30E078
:102F700005E010E06FC680E090E06FE070E040E0B8
:102F800050E028E230E00EEC1FEF0E94D733309281
:102F90008D0220928C028CE090E066E070E04BEFB6
:102FA0005FEF23E030E00EE010E0EE24FF24F8E2D3
:102FB000CF2ED12CE2E3AE2EB12C0E941B3A8AE038
:102FC00090E066E070E04BEF5FEF25E030E0AA2490
:102FD000BB240E941B3A8BEF9FEF66E070E048E154
:102FE0005CEF25E030E0B4E1EB2EF12C0E941B3ABF
:102FF00084EF9FEF66EA7FEF4EE150E02EE130E094
:1030000000E010E00E94ED3E80EB9FEF90938D0278
:1030100080938C028CE090E063E070E045E050E04B
:1030200023E030E00EE010E0EE24FF240E941B3A83
:103030008AE090E063E070E045E050E025E030E0B9
:103040000E941B3A8EEF9FEF63E070E048EE53E082
:1030500025E030E0A4E1EA2EF12C0E941B3A8AE040
:1030600090E066EA7FEF40E050E023E230E000E0ED
:1030700010E00E94ED3E8AE090E090938D028093F4
:103080008C0286E190E06AE570E046EF5FEF28E2AF
:1030900030E00E94ED3E06EA1FEF10938D02009390
:1030A0008C028EE090E066EA7FEF40E050E028E29C
:1030B00030E000E010E00E94ED3E10928D02109290
:1030C0008C0280E090E06FE070E040E050E022E3AE
:1030D00030E00E94D7338CE090E068E070E045E09B
:1030E00050E023E030E000E110E0EE24FF24FDE2B8
:1030F000CF2ED12C0E941B3A8AE090E068E070E06D
:1031000045E050E025E030E00E941B3A88E090E086
:1031100068E070E048EE53E023E030E0E9E1EE2EB5
:10312000F12C0E941B3A82E090E063E270E046EAF4
:103130005FEF23E230E000E010E00E94513D26EA1C
:103140003FEF30938D0220938C0288E090E066EA96
:103150007FEF40E050E02EE130E00E94ED3E109223
:103160008D0210928C028091300290913102893050
:10317000910519F4E2E3F0E002C0E0E0F0E08CE059
:1031800090E068E070E045E050E023E030E000E1EE
:1031900010E0EE24FF24B8E2CB2ED12C5F010E9478
:1031A0001B3A8AE090E068E070E045E050E025E0FE
:1031B00030E0AA24BB240E941B3A88E090E068E03B
:1031C00070E048EE53E023E030E0A9E1EA2EF12C74
:1031D0000E941B3A80E090E069E170E042EE5FEF10
:1031E0002EE130E000E010E00E94513D82EE9FEFC2
:1031F00090938D0280938C0284E190E066EA7FEFE9
:103200004AE050E02EE130E00E94ED3E46E450E01E
:1032100050938D0240938C028AE090E06AE570E062
:1032200044E150E02EE130E00E94ED3E10928D022C
:1032300010928C028CE090E061E070E045E050E09C
:1032400023E030E00EE010E0EE24FF240E941B3A61
:103250008AE090E061E070E045E050E025E030E099
:103260000E941B3A81E090E061E070E048EE53E09C
:1032700023E030E0F4E1EF2EF12C0E941B3A209184
:10328000610281E090E0253110F480E090E09093BD
:103290003B0280933A028FEF9FEF67E270E04AE5CE
:1032A00050E02EE130E000E010E00E94513D8CE063
:1032B00090E068E070E045E050E023E030E00FE0AF
:1032C00010E0EE24FF24E8E2CE2ED12CB2E3AB2EA8
:1032D000B12C0E941B3A8AE090E068E070E04AE07E
:1032E00050E025E030E0AA24BB240E941B3A8EEF78
:1032F0009FEF62E270E04AE550E02EE130E000E04E
:1033000010E00E94513D85E690E063E070E00E948D
:10331000D02E20919202309193028217930739F4B4
:103320008FE090E090933D0280933C0204C01092A5
:103330003D0210923C028CE090E068E070E045E0D5
:1033400050E023E030E00FE010E0EE24FF24A8E29C
:10335000CA2ED12CF2E3AF2EB12C0E941B3A409121
:103360003C0250913D02495F5F4F8AE090E068E087
:1033700070E025E030E0EEECAE2EEFEFBE2E0E94C6
:103380001B3A6BEF7FEF80913C0290913D02681BEE
:10339000790B80E090E040E050E02EE130E008E280
:1033A00010E00E94D7336AE570E070938D0260935D
:1033B0008C0280E090E060E070E044E050E024ECBB
:1033C00030E005E010E0BAEAEB2EF12CAEE1CA2EB7
:1033D000D12CFEE1AF2EB12C0E94344760926A02DC
:1033E00070926B0280926C0290926D026092500219
:1033F0007092510280925202909253028AE590E0BC
:1034000090938D0280938C0286E090E066E970E0F4
:1034100044E050E024EC30E00E94344710928D02EA
:1034200010928C0280E090E06EEF7FEF40E050E081
:103430002AE030E008E710E00E94D73384EE9FEFE7
:1034400060E070E04AEB5FEF2EE130E008E210E070
:103450000E94513D84E190E090938D0280938C0214
:103460008BEE9FEF66EA7FEF46EA5FEF2EE130E0FA
:1034700000E010E00E94ED3E8CE090E063E070E040
:103480004BEF5FEF23E030E002E110E0EE24FF2499
:10349000E8E2CE2ED12CAA24BB240E941B3A8AE05B
:1034A00090E063E070E046EF5FEF25E030E00E94DF
:1034B0001B3A83E090E063E070E048E15CEF23E0DA
:1034C00030E00E941B3A84E090E06DE070E040E163
:1034D00050E024E130E008E11CEFB8E2EB2EF12CE3
:1034E000CC24DD240E94164584E090E064EB70E07B
:1034F00040E050E020E030E000E010E0EE24FF2467
:10350000AEE1AA2EB12C0E94344780913A029091EC
:103510003B02009709F07FC060E070E084EB92EC22
:1035200044E650E00E94CB400E947C2EFAEBEF2E46
:10353000FFEFFF2EF0928D02E0928C0280E090E08F
:103540006DE070E04CEE5FEF29E130E003E210E067
:103550000E94513DF0928D02E0928C0285E090E055
:1035600066EA7FEF40E050E02EE130E000E010E05E
:103570000E94ED3E10928D0210928C0280E090E04D
:103580006AE070E04EE050E020E030E00AE010E059
:10359000E8E2EE2EF12C0E9416458EEF9FEF67E2D7
:1035A00070E04AE550E02EE130E000E010E00E94DB
:1035B000513D8CE090E068E070E045E050E023E0B1
:1035C00030E002E110E0EE24FF24B8E2CB2ED12C53
:1035D000A2E3AA2EB12C0E941B3A8AE090E068E098
:1035E00070E045E050E025E030E0AA24BB240E94D2
:1035F0001B3A88E090E068E070E048EE53E025E098
:1036000030E0F9E1EF2EF12C0E941B3A82E090E0CD
:1036100069E270E08DC060E070E080EA91EC4EE11C
:1036200050E00E94CB4010928D0210928C028CE0F0
:1036300090E061E070E045E050E023E030E00EE033
:1036400010E0EE24FF24E8E2CE2ED12CB2E3AB2E24
:10365000B12C0E941B3A8AE090E061E070E047E004
:1036600050E025E030E0AA24BB240E941B3A82E00F
:1036700090E06EE170E046EA5FEF2EE130E000E0BE
:1036800010E00E94513D86EA9FEF90938D02809357
:103690008C0285E090E066EA7FEF40E050E02EE1AA
:1036A00030E00E94ED3E10928D0210928C0280E07C
:1036B00090E06AE070E04EE050E020E030E00AE0A8
:1036C00010E0A8E2EA2EF12CCC24DD240E9416455D
:1036D0008EEF9FEF67E270E04AE550E02EE130E0C8
:1036E00008ED1FEF0E94513D8CE090E061E070E03A
:1036F00045E050E023E030E00EE010E0EE24FF244F
:10370000F8E2CF2ED12CE2E3AE2EB12C0E941B3A70
:103710008AE090E061E070E045E050E025E030E0D4
:10372000AA24BB240E941B3A82E090E063E270E08E
:1037300046EA5FEF2EE130E000E010E00E94513DEC
:103740008CE090E061E070E045E050E023E030E0A4
:103750000BE010E0EE24FF24B8E2CB2ED12CA2E344
:10376000AA2EB12C0E941B3A8AE090E061E070E042
:103770004AE050E025E030E0AA24BB240E941B3A36
:1037800081E090E062E270E046EA5FEF2EE130E037
:1037900000E010E00E94513D85E690E063E070E0BB
:1037A0000E94D02E209192023091930282179307AB
:1037B00039F48FE090E090933D0280933C0204C086
:1037C00010923D0210923C028CE090E061E070E0CB
:1037D00045E050E023E030E00BE010E0EE24FF2471
:1037E000F8E2CF2ED12CE2E3AE2EB12C0E941B3A90
:1037F00040913C0250913D024B5F5F4F8AE090E068
:1038000061E070E025E030E0BEECAB2EBFEFBB2EF8
:103810000E941B3A6BEF7FEF80913C0290913D023A
:10382000681B790B80E090E040E050E02EE130E052
:1038300008E210E00E94D733AAE5B0E0B0938D0211
:10384000A0938C0280E090E060E070E044E050E003
:1038500024EC30E005E010E0AAEAEA2EF12CFEE1CB
:10386000CF2ED12CEEE1AE2EB12C0E9434476092C7
:103870006A0270926B0280926C0290926D0260926A
:103880005002709251028092520290925302EAE5E5
:10389000F0E0F0938D02E0938C0283E090E06AE721
:1038A00070E044E050E024EC30E00E943447109295
:1038B0008D0210928C0280E090E06EEF7FEF40E08E
:1038C00050E02AE030E008E710E00E94D7338DE1B5
:1038D00090E060E070E046E450E02EE130E008E285
:1038E00010E00E94513D30928D0220928C028BEEAE
:1038F0009FEF6AE570E04AE550E02EE130E000E03D
:1039000010E00E94ED3E8CE090E066E070E04BEF4E
:103910005FEF23E030E00EE010E0EE24FF24B8E299
:10392000CB2ED12CAA24BB240E941B3A8AE090E023
:1039300066E070E046EF5FEF25E030E00E941B3A62
:1039400086E090E066E070E048E15CEF23E030E084
:103950000E941B3A85E090E06EE070E042E150E0AA
:1039600024E130E008E11CEFA8E2EA2EF12CCC249F
:10397000DD240E94164581EF9FEF6AE570E048E282
:1039800050E029E130E000E010E00E94ED3E84E1EB
:1039900090E090938D0280938C028FE090E06FEF27
:1039A0007FEF42E350E029E130E00E94513D309248
:1039B0008D0220928C028CE090E066E070E04DEF8A
:1039C0005FEF23E030E002E110E0EE24FF24F8E2B4
:1039D000CF2ED12C0E941B3A8AE090E066E070E086
:1039E0004BEF5FEF25E030E00E941B3A8BEF9FEF3B
:1039F00066E070E048E15CEF23E030E0E4E1EE2EC9
:103A0000F12C0E941B3A84EF9FEF66EA7FEF46EFAE
:103A10005FEF2EE130E000E010E00E94ED3E8CE32D
:103A200090E090938D0280938C028CE090E064E0B3
:103A300070E04DEF5FEF23E030E002E110E0EE24B4
:103A4000FF240E941B3A8AE090E064E070E04BEFB4
:103A50005FEF25E030E00E941B3A8DEF9FEF64E0BE
:103A600070E048E15CEF23E030E0B4E1EB2EF12CB4
:103A70000E941B3A80E090E066EF7FEF4EE150E05D
:103A800028E230E00EEC1FEFA8E2EA2EF12C0E94B3
:103A9000294260926A0270926B0280926C0290924C
:103AA0006D02609250027092510280925202909286
:103AB00053020AE510E010938D0200938C0283E01C
:103AC00090E06AE770E044E050E024EC30E005E08C
:103AD00010E0FAEAEF2EF12CEEE1CE2ED12CBEE171
:103AE000AB2EB12C0E94344710928D0210928C02A2
:103AF00080E090E06AE070E044E150E02EE130E0E8
:103B000008E210E00E94513D84E190E090938D0224
:103B100080938C026AE570E04CEE5FEF2EE130E0BE
:103B200000E010E00E94ED3E10928D0210928C0297
:103B300080E090E061E070E048E15CEF20E030E0A0
:103B4000AAE1EA2EF12CF8E2CF2ED12CAA24BB2434
:103B50000E94B03586EA9FEF90938D0280938C028D
:103B60008AE090E066EA7FEF40E050E02EE130E04E
:103B70000E94ED3E10928D0210928C028CE090E03B
:103B800061E070E045E050E023E030E00CE010E060
:103B9000EE24FF240E941B3A8AE090E061E070E08E
:103BA00045E050E025E030E00E941B3A81E090E0E3
:103BB00061E070E048EE53E023E030E0E4E1EE2E17
:103BC000F12C0E941B3A82E090E069E170E04AEB40
:103BD0005FEF2EE130E000E010E00E94513D8AEB03
:103BE0009FEF90938D0280938C028FE090E06AE5C6
:103BF00070E04CEE5FEF2EE130E008ED1FEF0E9429
:103C0000ED3E60926A0270926B0280926C0290921A
:103C10006D02609250027092510280925202909214
:103C200053022AE530E030938D0220938C0286E027
:103C300090E066E970E044E050E024EC30E005E01C
:103C400010E0BAEAEB2EF12CAEE1CA2ED12CFEE147
:103C5000AF2EB12C0E9434478091360290913702EA
:103C6000009709F0B9C160926A0270926B0280926B
:103C70006C0290926D02609250027092510280929A
:103C80005202909253024AE550E050938D024093C5
:103C90008C0286E090E066E970E044E050E024ECBD
:103CA00030E005E010E0EAEAEE2EF12CBEE1CB2E8A
:103CB000D12CAEE1AA2EB12C0E94344710928D0275
:103CC00010928C0260E070E08CE892EC46E450E0E8
:103CD0000E94CB408AEB9FEF90938D0280938C02E1
:103CE00080E090E06AE070E04DEE5FEF29E130E0C7
:103CF00003E210E00E94513D66EA7FEF70938D026F
:103D000060938C0288E090E040E050E02EE130E0EB
:103D100000E010E00E94ED3E10928D0210928C02A5
:103D20008CE090E068E070E045E050E023E030E0B7
:103D300000E110E0EE24FF24F8E2CF2ED12CAA24DB
:103D4000BB240E941B3A8AE090E068E070E045E006
:103D500050E023E030E00E941B3A88E090E068E009
:103D600070E048EE53E023E030E0E9E1EE2EF12C84
:103D70000E941B3A81E090E063E270E046EA5FEF68
:103D80002EE130E000E010E00E94513D86EA9FEF16
:103D900090938D0280938C0288E090E066EA7FEF3A
:103DA00040E050E02EE130E00E94ED3E10928D02A6
:103DB00010928C028091300290913102AFEF8E3FD1
:103DC0009A0719F4ECE3F0E002C0E0E0F0E08CE0E8
:103DD00090E068E070E045E050E023E030E000E192
:103DE00010E0EE24FF24B2E3CB2ED12C5F010E9421
:103DF0001B3A8AE090E068E070E045E050E023E0A4
:103E000030E0AA24BB240E941B3A88E090E068E0DE
:103E100070E048EE53E023E030E0A9E1EA2EF12C17
:103E20000E941B3A80E090E068E170E042EE5FEFB4
:103E300028E230E000E010E00E94513D82EE9FEF6A
:103E400090938D0280938C0284E190E066EA7FEF8C
:103E50004AE050E028E230E00E94ED3EE6E4F0E087
:103E6000F0938D02E0938C028AE090E06AE570E0C6
:103E700040E050E028E230E00E94ED3E30928D02BA
:103E800020928C028091300290913102FFEF8F3F9F
:103E90009F0719F408E210E002C000E010E082E0A1
:103EA00090E062E270E04AEB5FEF23E230E00E94D4
:103EB000513D10928D0210928C028CE090E061E0F6
:103EC00070E043E050E023E030E00BE010E0EE244F
:103ED000FF24F8E2CF2ED12CE2E3AE2EB12C0E94CB
:103EE0001B3A8AE090E061E070E045E050E025E0B8
:103EF00030E0AA24BB240E941B3A81E090E061E0FC
:103F000070E048EE53E023E030E0B4E1EB2EF12C1A
:103F10000E941B3A81E090E06EE170E040EB5FEFC1
:103F20002EE130E000E010E00E94513D80EB9FEF79
:103F300090938D0280938C0282E090E06CE070E0C0
:103F400040E150E02DE030E008EE13E0A3E2EA2E7D
:103F5000F12CCC24DD240E94164586E090E06AE531
:103F600070E04AE050E02EE130E000E010E00E9416
:103F7000ED3E84E190E090938D0280938C028CE082
:103F800090E065E070E04BEF5FEF23E030E00BE0A6
:103F900010E0EE24FF24F8E2CF2ED12C0E941B3A31
:103FA0008AE090E065E070E04BEF5FEF25E030E005
:103FB0000E941B3A8CEF9FEF65E070E048E15CEFF8
:103FC00025E030E0E4E1EE2EF12C0E941B3A80E087
:103FD00090E061EF7FEF12C160926A0270926B0213
:103FE00080926C0290926D02609250027092510227
:103FF00080925202909253020AE510E010938D02D3
:1040000000938C0286E090E066E970E044E050E0C6
:1040100024EC30E005E010E0BAEAEB2EF12CAEE142
:10402000CA2ED12CFEE1AF2EB12C0E943447109243
:104030008D0210928C0281EF9FEF60E070E040E013
:1040400050E028E230E002E310E00E94D7332AE596
:1040500030E030938D0220938C0287EE9FEF6AE56B
:1040600070E044E150E02EE130E000E010E00E941A
:10407000ED3E44E150E050938D0240938C0284E089
:1040800090E06CE070E040E150E022E130E008E1D7
:104090001CEFE8E2EE2EF12CCC24DD240E94164524
:1040A00084EF9FEF6AE570E042E350E029E130E001
:1040B00000E010E00E94ED3E30928D0220928C02D2
:1040C0008CE090E066E070E04DEF5FEF23E030E0E1
:1040D0000EE010E0EE24FF24B8E2CB2ED12CAA246F
:1040E000BB240E941B3A8AE090E066E070E04DEF4E
:1040F0005FEF25E030E00E941B3A8BEF9FEF66E018
:1041000070E048E15CEF25E030E0A4E1EA2EF12C1C
:104110000E941B3A85EF9FEF66EA7FEF40E050E098
:1041200023E230E000E010E00E94ED3E81EF9FEFDF
:1041300060E070E04EEC5FEF29E130E00E94513D1D
:10414000F0928D02E0928C028CE090E063E070E0EF
:104150004DEF5FEF23E030E00FE010E0EE24FF24AE
:104160000E941B3A8AE090E063E070E04BEF5FEF63
:1041700025E030E00E941B3A83E090E063E070E0CD
:1041800048E15CEF23E030E0F9E1EF2EF12C0E94F2
:104190001B3A80E090E066EF7FEF40E050E028E2DD
:1041A00030E000E010E00E94D7338CE090E065E062
:1041B00070E04DEF5FEF23E030E00BE010E0EE2425
:1041C000FF240E941B3A8AE090E065E070E04BEF2C
:1041D0005FEF25E030E00E941B3A8CEF9FEF65E037
:1041E00070E048E15CEF23E030E0E4E1EE2EF12CFA
:1041F0000E941B3A80E090E060EF7FEF40E050E0EB
:1042000028E230E00EEC1FEF0E94D733C39A6FEF25
:104210007FEF89E5615070408040E1F700C0000009
:10422000C398B599FECFB59BFECF80913002909197
:104230003102009709F440C040915C0230915B026A
:1042400020915A029091620280916102ADB7BEB78F
:104250001E970FB6F894BEBF0FBEADBFEDB7FEB749
:10426000319612965C924E9211970FE211E01383F1
:1042700002834483158236831782208711869287B2
:104280001386848715860E94FF4E2DB73EB7225FA6
:104290003F4F0FB6F8943EBF0FBE2DBF80E060E0E9
:1042A000A2010E94670130915D0220915E0290910F
:1042B0005F028091600242C04091700230916F02B3
:1042C00020916E0290917602809175026DB77EB753
:1042D0006E5070400FB6F8947EBF0FBE6DBFEDB745
:1042E000FEB73196ADB7BEB712965C924E9211975B
:1042F0000FE211E013830283448315823683178211
:104300002087118692871386848715860E94FF4E28
:104310002DB73EB7225F3F4F0FB6F8943EBF0FBE9A
:104320002DBF80E060E0A2010E9467013091710220
:104330002091720290917302809174024DB75EB722
:104340004C5050400FB6F8945EBF0FBE4DBFEDB756
:10435000FEB73196ADB7BEB712965C924E921197EA
:1043600008E411E0138302833483158226831782C5
:1043700090871186828713860E94FF4E2DB73EB725
:10438000245F3F4F0FB6F8943EBF0FBE2DBF81E0B4
:1043900060E0A2010E946701809130029091310299
:1043A00097FF03C0909581959F4F69E070E00E9450
:1043B000AB5590933302809332020E942426809161
:1043C000320266E60E94054EC82E8091320267E6F0
:1043D0000E94054EE82E00913202A0903302802FF9
:1043E00068E60E94054E4DB75EB74C5050400FB680
:1043F000F8945EBF0FBE4DBFEDB7FEB73196ADB7B7
:10440000BEB712965C924E92119721E631E033834B
:1044100022830483A582C6821782E0861186828762
:1044200013860E94FF4E4DB75EB7445F5F4F0FB6D5
:10443000F8945EBF0FBE4DBF82E060E0A2010E9413
:1044400067016091BB027091BC027A8369834091DD
:10445000BD025091BE028091B9029091BA029C8334
:104460008B83A0917303B0917403E0904703F090A5
:104470004803C090C302D090C402A090B702B0908D
:10448000B8026091AA027091AB028091AC02909147
:10449000AD02EDB7FEB774970FB6F894FEBF0FBE2E
:1044A000EDBF0DB71EB70F5F1F4F5282418224E749
:1044B00031E0F8013383228329813A8135832483D3
:1044C000578346834B815C8151874087B387A2879E
:1044D000F586E486D786C686B18AA08A0E941650E1
:1044E000D80153967C936E9352970E94FF4EEDB77E
:1044F000FEB774960FB6F894FEBF0FBEEDBF83E013
:1045000060E0A2010E94670100D000D000D0EDB7AA
:10451000FEB73196ADB7BEB712965C924E92119728
:104520000AE811E0138302838091300290913102F6
:10453000958384830E94FF4E2DB73EB72A5F3F4F7D
:104540000FB6F8943EBF0FBE2DBF83E060E1A2011D
:104550000E9467010C94250990E0FC01B096FE2FA3
:10456000EE2720812093B20220FDFBCF8896B82F42
:10457000AA278C9190819093B20290FDFBCF089571
:1045800090E08096F82FEE2780818093B20280FD24
:10459000FBCF608380818093B20280FDFBCF0895C2
:1045A00080E061E00E94C02282E061E00E94C022BF
:1045B00081E061E00E94C0220895A82FB0E0FD01D3
:1045C000B096FE2FEE2780818093B20280FDFBCF54
:1045D0009896BA2FAA27872F992787FD9A958C93AB
:1045E00080818093B20280FDFBCF6C9380818093A9
:1045F000B20280FDFBCF08951F93CF93DF93182F56
:1046000080E06FE10E94C022C1E0D0E002C0CC0F88
:10461000DD1F1A95E2F780E0BE010E94DD2281E0F5
:104620006FE10E94C02281E0BE010E94DD2282E093
:104630006FE10E94C02282E0BE010E94DD2280E084
:1046400061E00E94C02282E061E00E94C02281E01D
:1046500061E00E94C022DF91CF911F910895DF9207
:10466000EF92FF920F931F93D82E7A018B019B013B
:10467000552737FD5095452FB9010E94DD228D2D1C
:10468000B7010E94DD221F910F91FF90EF90DF9004
:1046900008951F93182F60E00E94C0228CEC9CE1CB
:1046A0000197F1F700C00000812F6DE10E94C02248
:1046B000812F60E070E00E94DD221F910895AF928B
:1046C000BF92CF92DF92EF92FF920F931F93CF93FF
:1046D000DF93F82E6B01EA018901AA24A3946115E6
:1046E000710509F4AA24BB24B394209709F4BB24D0
:1046F000EE24E3940115110509F4EE248F2D6EE1EB
:104700000E94C0226B2D70E0660F771F660F771F27
:104710008A2D90E043E0880F991F4A95E1F7682BB6
:10472000792B8E2D90E0880F991F682B792B8F2D78
:104730000E94DD22AA2021F08F2DB6010E94DD22E9
:10474000BB2021F08F2DBE010E94DD22EE2021F042
:104750008F2DB8010E94DD228F2D64E00E94C022BF
:10476000DF91CF911F910F91FF90EF90DF90CF904D
:10477000BF90AF9008958F929F92AF92BF92CF92C9
:10478000DF92EF92FF920F931F93CF93DF93F82E58
:104790004B016A01E901AA24A3946115710509F48A
:1047A000AA24BB24B394C114D10409F4BB24EE247D
:1047B000E394209709F4EE248F2D6EE10E94C0222D
:1047C0006A2D70E0A3E0660F771FAA95E1F761609C
:1047D0008B2D90E0880F991F880F991F682B792BDC
:1047E0008E2D90E0880F991F682B792B8F2D0E94BA
:1047F000DD22AA2021F08F2DB4010E94DD22BB20F2
:1048000021F08F2DB6010E94DD22EE2021F08F2DA8
:10481000BE010E94DD228F2DB8010E94DD228F2D66
:1048200064E00E94C022DF91CF911F910F91FF9011
:10483000EF90DF90CF90BF90AF909F908F900895B2
:10484000DF92EF92FF920F931F93D82E7A018B0184
:104850006FE10E94C0228D2D60E270E00E94DD2297
:104860008D2DB801A7010E942F231F910F91FF905A
:10487000EF90DF90089580E060E170E040E050E06C
:1048800020E430E00E945F2381E060E170E040E0DE
:1048900050E020E430E00E945F2382E060E170E0BD
:1048A00040E050E020E430E00E945F2380E04FEFE2
:1048B0005FEF6FEF7FE30E94202481E04FEF5FEF17
:1048C0006FEF7FE30E94202482E04FEF5FEF6FEFF6
:1048D0007FE30E9420240895DF92EF92FF920F93CE
:1048E0001F93DF93CF930F92CDB7DEB7D82E7A0107
:1048F0008B0177FF0AC010950095F094E094E11CBD
:10490000F11C011D111D90E001C091E08D2D6FE1A2
:1049100099830E94C0229981792F7295707F60E0FF
:10492000686078608D2D0E94DD228D2DB801A70171
:104930000E942F230F90CF91DF911F910F91FF9035
:10494000EF90DF900895AF92BF92CF92DF92EF92F7
:10495000FF920F931F93DF93CF93CDB7DEB72C97C2
:104960000FB6F894DEBF0FBECDBF59016A010E9499
:10497000495069837A838B839C83C601B5010E9469
:1049800049506D837E838F839887C801B7010E9449
:10499000495069877A878B879C878E010F5F1F4FED
:1049A000EE24F801608171818281938121E73CEAE4
:1049B0004BE85EE30E940D529B01AC01F80121938C
:1049C0003193419351938F0120E030E040E857E468
:1049D0000E940D520E941650AB01BC018E2D0E9408
:1049E0006C24E394FE2DF330E1F60E94D0222C9645
:1049F0000FB6F894DEBF0FBECDBFCF91DF911F91F0
:104A00000F91FF90EF90DF90CF90BF90AF900895FF
:104A10004F925F926F927F928F929F92AF92BF92CE
:104A2000CF92DF92EF92FF920F931F93982E862ED4
:104A300029013A016FE10E94C022682D70E06A628C
:104A4000892D0E94DD22892DB301A2010E942F230E
:104A5000892DB801A7010E942F23892DB601A50138
:104A60000E942F231F910F91FF90EF90DF90CF9026
:104A7000BF90AF909F908F907F906F905F904F907E
:104A800008959F92AF92BF92CF92DF92EF92FF92E2
:104A90000F931F93DF93CF9300D00F92CDB7DEB764
:104AA0001ABA15BA8FEF84BB1092650083E0809329
:104AB000640010E8A12EB4E8BB2E6E010894C11C5E
:104AC000D11C85B3856085BB83E39BE20197F1F739
:104AD00085B38A7F85BBECECFCE13197F1F700C030
:104AE0000000809165008D7F80936500AB9885B351
:104AF000887F85BB99B39983A89A19B385B3887FBA
:104B0000826085BB09B3943C09F494C0943809F4DD
:104B100091C015BA80E060E041E951E00E94670170
:104B200081E060E047E951E00E946701143C09F42C
:104B300081C0143809F47EC015BA80E060E041E914
:104B400051E00E94670182E060E047EA51E00E9484
:104B50006701043C09F46EC0043809F46BC015BA4F
:104B600080E060E041E951E00E94670183E060E09D
:104B700047EB51E029C09E2C9C18892D6DE10E94C5
:104B8000C022892D60E070E00E94DD22F801808162
:104B9000F70181937F0100501F4FF3E200301F07A0
:104BA00051F78981803C99F0803889F085B78F73FF
:104BB00085BF15BA80E060E047EC51E00E946701D4
:104BC00081E060E047E951E00E9467017ACF80E030
:104BD00060E04DEC51E00E94670180E098B397607F
:104BE00098BB2FEF3FEB46E0215030404040E1F7CB
:104BF00000C0000098B3987F98BB2FEF3FEB46E0D2
:104C0000215030404040E1F700C000008F5F83300A
:104C100029F70E94D8010F900F900F90CF91DF914C
:104C20001F910F91FF90EF90DF90CF90BF90AF90CA
:104C30009F900895A5BE82E080936D00B0926C00B5
:104C4000760100E010E297CF4F925F926F927F92D1
:104C50008F929F92AF92BF92CF92DF92EF92FF928C
:104C60000F931F93CF93DF9304E6802E912C84E063
:104C70000E947600982F80E0EC0185E00E9476008B
:104C800090E08C2B9D2BB4010E94AB55882777FDBB
:104C90008095982F0E944950F62E072F182FE92E45
:104CA000462E572E682E792E63015201E894D7F8CC
:104CB000C601B50120E030E044E353E40E947251A4
:104CC0001816ACF26091A6027091A7028091A8021A
:104CD0009091A9022F2D302F412F5E2D0E94A74FBA
:104CE000882309F4E5C06F2D702F812F9E2D20E0C1
:104CF00030E0A9010E94A74F87FF5DC06091A60226
:104D00007091A7028091A8029091A90220E030E062
:104D1000A9010E94725118160CF04DC02091A602F4
:104D20003091A7024091A8025091A9025F77C60175
:104D3000B5010E94304F20E030E044E353E40E948C
:104D4000A74F87FF15C0A090AA02B090AB02C090F9
:104D5000AC02D090AD022091A6023091A702409102
:104D6000A8025091A9026F2D702F812F9E2D1CC07B
:104D7000A090AA02B090AB02C090AC02D090AD025D
:104D80006091A6027091A7028091A8029091A90259
:104D90002F2D302F412F5E2D0E942F4F9B01AC01F4
:104DA00060E070E084EB93E40E942F4F9B01AC0124
:104DB000C601B50169C0C301B20120E030E0A9011C
:104DC0000E94725118160CF047C06091A6027091B3
:104DD000A7028091A8029091A90220E030E0A901E9
:104DE0000E94A74F87FF38C02091A6023091A702EA
:104DF0004091A8025091A9025F77C601B5010E94B7
:104E0000304F20E030E044E353E40E94A74F87FD99
:104E100023C0E090AA02F090AB020091AC02109186
:104E2000AD022091A6023091A7024091A8025091B4
:104E3000A902C301B2010E942F4F9B01AC0160E0A7
:104E400070E084EB93E40E942F4F9B01AC01C801FA
:104E5000B7010E942F4F1AC0E090AA02F090AB0257
:104E60000091AC021091AD022091A6023091A702F0
:104E70004091A8025091A902C301B2010E942F4F94
:104E80009B01AC01C801B7010E94304F9B01AC01EE
:104E90002093AA023093AB024093AC025093AD0230
:104EA0004092A6025092A7026092A8027092A902B4
:104EB000DF91CF911F910F91FF90EF90DF90CF90F6
:104EC000BF90AF909F908F907F906F905F904F902A
:104ED00008952F923F924F925F926F927F928F929E
:104EE0009F92AF92BF92CF92DF92EF92FF920F9379
:104EF0001F93DF93CF93CDB7DEB762970FB6F894C9
:104F0000DEBF0FBECDBF69837A838B839C832D83E5
:104F10003E834F8358873701480160E070E084E3A7
:104F200094E4A60195010E942F4F162F072FF82E0B
:104F3000E92E8D819E81AF81B8858093B3029093D5
:104F4000B402A093B502B093B60289819A81AB8175
:104F5000BC818093490390934A03A0934B03B09381
:104F60004C03A092BF02B092C002C092C102D09284
:104F7000C202C601B50120E030E044E353E40E94E0
:104F8000A74F181684F0A8019701652F742F832F5F
:104F9000922F20E030E044EB53E40E942F4F162F75
:104FA000072FF82EE92EA8019701652F702F832F68
:104FB0009E2D20E030E044EB52E40E942F4F6987A1
:104FC0007A878B879C87C401B30123EF36E64FE5D0
:104FD0005EE30E940D526D877E878F87988B80E0FD
:104FE00090E036E9432E512C28E6222E21E0322E85
:104FF0009A8B898BB201882777FD8095982F0E9424
:1050000049505B016C01C20188589F4FB1010E9459
:10501000AB552C01C601B501D801F7012B2F302F5C
:105020004F2F5E2D0E942F4F25E33AEF4EE85CE3B1
:105030000E940D520E94AB4F3B014C01C601B501CD
:10504000B985AA85AB84DC842B2F3A2F4A2D5D2DA0
:105050000E942F4F25E33AEF4EE85CE30E940D5289
:105060000E94AB4F5B016C016D817E818F819885C1
:10507000A40193010E940D523B014C0169817A8188
:105080008B819C81A60195010E940D529B01AC0170
:10509000C401B3010E94304FBD85AE85DF84A8886E
:1050A0002B2F3A2F4D2D5A2D0E942F4F2FE632E1F4
:1050B00043E856E40E940D5223E333E343E250EC0D
:1050C0000E940D520E941650AB01BC0189890E94BA
:1050D0006C24A989BA891196BA8BA98BA330B10522
:1050E00009F088CF0E94D0220E94242662960FB633
:1050F000F894DEBF0FBECDBFCF91DF911F910F910E
:10510000FF90EF90DF90CF90BF90AF909F908F90E7
:105110007F906F905F904F903F902F9008952F92C7
:105120003F924F925F926F927F928F929F92AF9237
:10513000BF92CF92DF92EF92FF920F931F93DF9374
:10514000CF93CDB7DEB72C970FB6F894DEBF0FBE66
:10515000CDBF5B016C0139014A0117012801609143
:10516000AA027091AB028091AC029091AD022091A5
:10517000AE023091AF024091B0025091B102E09086
:10518000AA02F090AB020091AC021091AD02E09245
:10519000AE02F092AF020093B0021093B102E09021
:1051A000A202F090A3020091A4021091A5020E9415
:1051B0002F4F9B01AC01C801B7010E942F4F9B01EB
:1051C000AC012093A2023093A3024093A402509317
:1051D000A502C601B50120E030E0A9010E94A74F59
:1051E000882351F4C401B30120E030E0A9010E94FA
:1051F000A74F882309F4D2C0C601B50120E030E0F2
:1052000048EC52E40E94AE4F69837A838B839C837F
:10521000C401B30120E030E048EC52E40E94AE4FFC
:105220006D837E838F8398876091A2027091A30221
:105230008091A4029091A502A20191010E942F4F9A
:10524000F62E072F182FE92E80919A0290919B023B
:10525000A0919C02B0919D0289879A87AB87BC87F9
:105260006F2D702F812F9E2D25E33AEF4EE85CE3E2
:105270000E940D520E94AB4F3B014C016F2D702FCD
:10528000812F9E2D20E030E044EB52E40E94304F0D
:1052900025E33AEF4EE85CE30E940D520E94AB4FCB
:1052A0005B016C0159814A813B812C81652F742FF0
:1052B000832F922FA40193010E940D521B012C01F8
:1052C0005D814E813F812885652F742F832F922F1A
:1052D000A60195010E940D529B01AC01C201B101D2
:1052E0000E94304F9B01AC0169857A858B859C8536
:1052F0000E94304F9B01AC0120939A0230939B0295
:1053000040939C0250939D0220909E0230909F02F9
:105310004090A0025090A1026F2D702F812F9E2DE2
:1053200020E030E044EB52E40E942F4F25E33AEFB7
:105330004EE85CE30E940D520E94AB4F7B018C0152
:105340005D814E813F812885652F742F832F922F99
:10535000A40193010E940D525B016C0159814A81A5
:105360003B812C81652F742F832F922FA8019701E9
:105370000E940D529B01AC01C601B5010E94304F45
:105380009B01AC01C201B1010E94304F9B01AC01F5
:10539000EAE9F2E024833583468357832C960FB6DF
:1053A000F894DEBF0FBECDBFCF91DF911F910F915B
:1053B000FF90EF90DF90CF90BF90AF909F908F9035
:1053C0007F906F905F904F903F902F9008952F9215
:1053D0003F924F925F926F927F928F929F92AF9285
:1053E000BF92CF92DF92EF92FF920F931F93DF93C2
:1053F000CF93CDB7DEB72E970FB6F894DEBF0FBEB2
:10540000CDBF180187019A8389837C836B83509574
:1054100041955F4F5E834D83309521953F4F38878F
:105420002F83CE0101969A87898779E0472E512CE8
:105430004C0E5D1E7C0166247724CC24DD24D7012C
:105440006D917D917D01882777FD8095982F0E9431
:1054500049504B015C01E894B7F8662D772D8C2DEF
:105460009D2DA50194010E94A74F87FF02C0340122
:105470006501E414F50419F7EE24FF24C101AA27FD
:1054800097FDA095BA2F8B879C87AD87BE87A9858E
:10549000BA85AD90BD90BA87A9876B857C858D85CF
:1054A0009E850E9449501B012C01B501882777FD7C
:1054B0008095982F0E944950262D372D4C2D5D2D1B
:1054C0000E94AE4FA20191010E940D529B01AC01BE
:1054D000F701EE0FFF1FEE0FFF1FED59FC4F20836A
:1054E0003183428353830894E11CF11CB4E0EB1632
:1054F000F10469F6043611052CF40115110509F0C3
:1055000051C005C00436110511F00456104091E059
:10551000E92EF12C662D772D8C2D9D2D20E030E08D
:1055200048EC52E40E940D52A20191010E94AE4F3C
:105530000E94944F5B016C01970122503040C801DA
:1055400017FF03C0909581959F4FB7010E94AB55FF
:10555000620F731F882777FD8095982F0E9449500E
:105560009B01AC01C601B5010E94304F0E9416504C
:10557000CB012E960FB6F894DEBF0FBECDBFCF91F4
:10558000DF911F910F91FF90EF90DF90CF90BF9030
:10559000AF909F908F907F906F905F904F903F90D3
:1055A0002F90089582E0E82EF12CB4CF2F923F92F5
:1055B0004F925F926F927F928F929F92AF92BF9223
:1055C000CF92DF92EF92FF920F931F93DF93CF93CF
:1055D000CDB7DEB72E970FB6F894DEBF0FBECDBFA6
:1055E0007A8369836536710514F0645670404B0107
:1055F00077FF04C088249924861A970AE0906602EF
:10560000F0906702A7014F5F5F4F9C012E193F0981
:1056100000E010E05A01CC24B7FCC094DC2CAB8233
:10562000BC82CD82DE821401442437FC4094542C89
:105630006C01C818D908D886CF82C901AA2797FD5E
:10564000A095BA2F89879A87AB87BC877E876D879D
:105650003401F7FC34C0AD85BE85B7FD2DC04801CF
:10566000880C991C880C991CF401ED59FC4FA08002
:10567000B180C280D3806B817C818D819E810E94AC
:1056800049509B01AC01C601B5010E940D525B015E
:105690006C01C201B1010E9449509B01AC01C601DD
:1056A000B5010E94AE4F9B01AC01F401EB58FC4FD9
:1056B0002083318342835383E614F70424F4ED8579
:1056C000FE85F7FF13C09801220F331F220F331FEF
:1056D000F901ED59FC4F80819181A281B3812B5852
:1056E0003C4FF90180839183A283B383AF80B88458
:1056F000AE14BF0494F549815A814536510568F1CD
:105700004801880C991C880C991CF401ED59FC4F38
:10571000A080B180C280D38069857A858B859C8585
:105720000E9449509B01AC01C601B5010E940D5277
:105730005B016C01C201B1010E9449509B01AC01A7
:10574000C601B5010E94AE4F9B01AC01F401EB58BC
:10575000FC4F20833183428353830F5F1F4F0430FC
:10576000110509F076CF2E960FB6F894DEBF0FBE66
:10577000CDBFCF91DF911F910F91FF90EF90DF9000
:10578000CF90BF90AF909F908F907F906F905F90E1
:105790004F903F902F90089581E090E00A9B02C0C7
:1057A00080E090E09093BE028093BD0281E090E0A3
:1057B0000B9B02C080E090E09093BA028093B90204
:1057C00081E090E00C9B02C080E090E09093740335
:1057D0008093730381E090E0849B02C080E090E0BE
:1057E0009093BC028093BB0281E090E0869B02C054
:1057F00080E090E0909348038093470320916300FA
:1058000081E090E023FF02C080E090E09093C4022A
:105810008093C3022091630081E090E024FF02C0E6
:1058200080E090E09093B8028093B70208951F92B1
:105830000F920FB60F920BB60F921124EF92FF92B8
:105840000F931F932F933F934F935F936F937F9388
:105850008F939F93AF93BF93EF93FF938FEF8DBD84
:1058600080E78CBD6091500270915102809152028C
:10587000909153022AE037ED43EA5CE30E94304FF7
:105880007B018C017F2D912F20E030E040E85FE329
:105890000E947251181624F4EE24FF2400E81FE33E
:1058A0008E2D9F2DA02FB12F8093500290935102E7
:1058B000A0935202B093530260916A0270916B02FE
:1058C00080916C0290916D022AE037ED43EA5CE32F
:1058D0000E94304F7B018C017F2D912F20E030E022
:1058E00040E85FE30E947251181624F4EE24FF246E
:1058F00000E81FE38E2D9F2DA02FB12F80936A0209
:1059000090936B02A0936C02B0936D02609154026D
:105910007091550280915602909157022DEC3CEC0B
:105920004CE45DE30E94304FF62EE72E8C01A70178
:10593000652F742F912F20E030E040E85FE30E9454
:105940007251181624F4FF24EE2400E81FE3A70187
:10595000852F9E2DA02FB12F809354029093550236
:10596000A0935602B09357020E94CC2B8091BD02A7
:105970009091BE020097B1F080914E0290914F023B
:10598000009781F48091580290915902019690936A
:1059900059028093580281E090E090934F028093E7
:1059A0004E0210C08091BD029091BE02009751F44A
:1059B00080914E0290914F02009721F010924F0279
:1059C00010924E028091B9029091BA02009731F183
:1059D0008091840290918502009701F580918E025A
:1059E00090918F02019690938F0280938E0221E016
:1059F00030E030938502209384028091610390917E
:105A00006203FC01EE0FFF1FE15EFC4F3183208338
:105A10000196909362038093610310C08091B90254
:105A20009091BA02009751F480918402909185027E
:105A3000009721F0109285021092840280917303E6
:105A4000909174030097B1F080918002909181024F
:105A5000009781F480917E0290917F02019690934D
:105A60007F0280937E0281E090E090938102809398
:105A7000800210C08091730390917403009751F4D9
:105A80008091800290918102009721F01092810212
:105A9000109280028091BB029091BC020097B1F0FD
:105AA00080917C0290917D02009781F48091860222
:105AB000909187020196909387028093860281E0FD
:105AC00090E090937D0280937C0210C08091BB0295
:105AD0009091BC02009751F480917C0290917D02DC
