:100000000C9455000C9474000C9474000C947400BF
:100010000C9474000C9474000C9474000C94740090
:100020000C9474000C9474000C9474000C94740080
:100030000C9474000C9474000C941C250C947400A3
:100040000C9474000C9474000C9499490C947400F2
:100050000C9474000C9474000C9474000C94740050
:100060000C9474000C9474000C9474000C94740040
:100070000C9474000C9474000C940A010C94740099
:100080000C9474000C9474000C94740005A84CCD6E
:10009000B2D44EB93836A9020C50B9918688083CC2
:1000A000A6AAAA2ABE000000803F11241FBECFEFDF
:1000B000D0E1DEBFCDBF12E0A0E0B1E0E2E5F2EAC0
:1000C00000E00BBF02C007900D92A634B107D9F72C
:1000D00018E0A6E4B2E001C01D92AD31B107E1F72E
:1000E0000E947C110C94414A0C94000094EA909375
:1000F00074009091740097FFFCCF9AE09093730086
:1001000094E8909374009091740097FFFCCF8093D3
:10011000730084E8809374008091740087FFFCCFA3
:1001200084E98093740084EA809374008091740061
:1001300087FFFCCF8BE08093730084E8809374008A
:100140008091740087FFFCCF84E8809374008091D5
:10015000740087FFFCCF8091730094E99093740042
:10016000089594EA909374009091740097FFFCCFE7
:100170009AE09093730094E89093740090917400C7
:1001800097FFFCCF8093730084E880937400809184
:10019000740087FFFCCF6093730084E88093740041
:1001A0008091740087FFFCCF84E9809374000895E8
:1001B00010929B0088E980939A0086E080939D00CE
:1001C000109298008FE580939900789408951F937A
:1001D0001FEF1093730081E4809370000E94461E0D
:1001E0000E9485490E94D8000E94401D1FBC85E0E6
:1001F0008EBD1DBD80E78CBD84E087BF78948FE005
:1002000087BB81B3807F81BB84B3806F84BB18BA06
:100210001F9108951F920F920FB60F9211248F9382
:10022000DF93CF930F92CDB7DEB780919C00898387
:1002300080919B00887BE1F381E080934602898175
:10024000809347020F90CF91DF918F910F900FBE57
:100250000F901F901895DF93CF930F92CDB7DEB715
:1002600080914702898310924702F89410924602C7
:10027000789489810F90CF91DF91089590919B00A0
:1002800095FFFCCF80939C000895CF93DF93E4E724
:10029000F0E094EA9083A1EEB2E01197F1F700004C
:1002A000A3E7B0E09EE09C9394E89083C1EED2E097
:1002B0002197F1F700008C93908381EE92E00197F3
:1002C000F1F7000084E98083DF91CF910895EF92E8
:1002D000FF920F931F93DF93CF9300D0CDB7DEB77C
:1002E000082F162F843070F5643160F58BE1498357
:1002F0005A830E9445018CE40E944501812F0E948F
:100300004501802F0E94450180E791E00197F1F7B8
:1003100000C0E12EFF2449815A81042F152F06C009
:100320000E94450194EC9A95F1F700C0E4E1EE16C5
:10033000F10444F4F80181918F010894E11CF11C4F
:10034000882371F70F900F90CF91DF911F910F913C
:10035000FF90EF9008951F93DF93CF9300D0CDB718
:10036000DEB7182F8430F0F46431E0F48BE12A8397
:1003700069830E9445018CE40E9445016981862FB2
:100380000E944501812F0E94450180E791E001977D
:10039000F1F700C02A81822F0E94450194EC9A95C2
:1003A000F1F700C00F900F90CF91DF911F9108954A
:1003B0008BE10E94450183E40E94450186E696EEAA
:1003C000A0E081509040A040E1F70895EF92FF92A5
:1003D0000F931F93182FF62EE42E842F64E60E94AD
:1003E000F450082F282F30E0205D3F4F442737FD81
:1003F0004095542F812F6F2D0E94AB018CE9089FEF
:10040000002D11240E0D802F6AE00E94F450E82E7A
:100410006F2D6F5F282F30E0205D3F4F442737FD61
:100420004095542F812F0E94AB016F2D6E5F26EFF8
:10043000E29E202D1124200F30E0205D3F4F442705
:1004400037FD4095542F812F0E94AB011F910F91D2
:10045000FF90EF9008954F925F926F927F928F92EC
:100460009F92AF92BF92CF92DF92EF92FF920F9343
:100470001F93CF93DF93EC01B1E08B2E912C882258
:10048000992280FD32C080E090E0DC018093B602CA
:100490009093B702A093B802B093B90280939C02E4
:1004A00090939D02A0939E02B0939F028AE590E0F4
:1004B0009093D9028093D80282E090E066ED70E0DC
:1004C00044E050E024ED30E005E010E0A1EBEA2E3E
:1004D000F12CF2E3CF2ED12CEEE1AE2EB12C0E9406
:1004E00066421092D9021092D802B1E04B2E512CE4
:1004F0004C225D22C0FF32C080E090E0DC0180939E
:10050000B6029093B702A093B802B093B902809359
:100510009C0290939D02A0939E02B0939F028AE555
:1005200090E09093D9028093D80287E090E060EA4F
:1005300070E044E050E024ED30E005E010E0A1EB95
:10054000EA2EF12CF2E3CF2ED12CEEE1AE2EB12C1F
:100550000E9466421092D9021092D802C630D1058C
:1005600049F560E070E080E292EC4CE350E00E94DC
:10057000FB3B88ED9FEF9093D9028093D80281E1F5
:1005800090E061E170E040E050E02EE130E00CE806
:1005900010E00E94DC2C8FEE9FEF6FEE7FEF40E0CB
:1005A00050E02EE130E00E94DC2C60E070E088E456
:1005B00092EC2BC0C730D105A9F560E070E080E275
:1005C00092E44CE350E00E94FB3B88E290E0909381
:1005D000D9028093D8028FEE9FEF61E170E040E096
:1005E00050E02EE130E00CE810E00E94DC2C81E1CC
:1005F00090E06FEE7FEF40E050E02EE130E00E94AF
:10060000DC2C60E070E088E492E44CE350E00E946F
:10061000FB3B1092D9021092D8028114910409F088
:10062000FBC1D0C18114910409F0E6C080E090E0E4
:10063000DC018093B6029093B702A093B802B09306
:10064000B90280939C0290939D02A0939E02B09366
:100650009F028AE590E09093D9028093D80282E0CD
:1006600090E066ED70E044E050E024ED30E005E01D
:1006700010E0B1EBEB2EF12CA2E3CA2ED12CFEE15F
:10068000AF2EB12C0E9466421092D9021092D8026D
:100690008CE090E061E070E045E050E023E030E085
:1006A0000CE010E0EE24FF24ECE3AE2EB12C0E940F
:1006B000203382E0882E912CCE01B4010E9400519B
:1006C000709561957F4FBCE36B2E712C669DA001E8
:1006D000679D500D769D500D112446555F4F8AE061
:1006E00090E061E070E023E030E0AA24BB240E94A7
:1006F000203384E190E066EA7FEF43ED5FEF28E28C
:1007000030E00EEC1FEF0E94F23780E090E06EEEDA
:100710007FEF40E050E023E230E00DE210E00E9485
:10072000DC2C86EF9FEF6DE270E040E050E023E2CA
:1007300030E000E010E00E94F23783ED9FEF9093ED
:10074000D9028093D80280E090E066EF7FEF49E124
:1007500050E028E230E00E9456368CEE9FEF9093F6
:10076000D9028093D8028CE090E064E070E04BEF17
:100770005FEF23E030E000E110E0AAE0AA2EB12C08
:100780000E942033CE01B4010E940051669DA00159
:10079000679D500D769D500D1124465950408AE0BA
:1007A00090E064E070E023E030E0AA24BB240E94E3
:1007B00020338BEF9FEF64E070E048E15CEF25E0D1
:1007C00030E0F6E1EF2EF12C0E94203380E090E043
:1007D00066EF7FEF4AEB5FEF22E330E004EC1FEFC0
:1007E000E4E6EE2EF12C0E945B3D1092D9021092AD
:1007F000D8020E948127E6C080E090E0DC0180936F
:10080000B6029093B702A093B802B093B902809356
:100810009C0290939D02A0939E02B0939F028AE552
:1008200090E09093D9028093D80287E090E060EA4C
:1008300070E044E050E024ED30E005E010E0B1EB82
:10084000EB2EF12CA2E3CA2ED12CFEE1AF2EB12C5F
:100850000E9466421092D9021092D8028CE090E079
:1008600068E070E045E050E023E030E000E110E0B7
:10087000EE24FF24ECE3AE2EB12C0E942033B2E034
:100880008B2E912CCE01B4010E9400517095619580
:100890007F4FACE36A2E712C669DA001679D500DC1
:1008A000769D500D112446555F4F8AE090E068E038
:1008B00070E023E030E0AA24BB240E94203384E1CE
:1008C00090E06AE570E04DE250E028E230E00EECA6
:1008D0001FEF0E94F23780E090E06EEE7FEF40E085
:1008E00050E023E230E00DE210E00E94DC2C86EFC5
:1008F0009FEF63ED7FEF40E050E023E230E000E067
:1009000010E00E94F2378DE290E09093D90280933C
:10091000D80280E090E066EF7FEF47EE5FEF28E2DD
:1009200030E00E94563684E190E09093D9028093A3
:10093000D8028CE090E065E070E04BEF5FEF23E0E1
:1009400030E00CE010E0FAE0AF2EB12C0E94203332
:10095000CE01B4010E940051669DA001679D500D1B
:10096000769D500D1124465950408AE090E065E094
:1009700070E023E030E0AA24BB240E9420338CEFF7
:100980009FEF65E070E048E15CEF25E030E0E6E1F4
:10099000EE2EF12C0E94203380E090E066EF7FEF96
:1009A00046E450E022E330E004EC1FEFB4E6EB2E27
:1009B000F12C0E945B3D1092D9021092D8020E9445
:1009C00081272AC08EEF9FEF62E070E040E050E0A8
:1009D0002AE030E008E710E00E94DC2C80E090E0A4
:1009E000DC018093B6029093B702A093B802B09353
:1009F000B90280939C0290939D02A0939E02B093B3
:100A00009F028AE590E09093D9028093D80287E014
:100A100090E060EA70E02CC041145104F1F182E0F2
:100A200090E062E070E040E050E02AE030E008E76B
:100A300010E00E94DC2C80E090E0DC018093B602A4
:100A40009093B702A093B802B093B90280939C022E
:100A500090939D02A0939E02B0939F028AE590E03E
:100A60009093D9028093D80282E090E066ED70E026
:100A700044E050E024ED30E005E010E0A1EBEA2E88
:100A8000F12CF2E3CF2ED12CE4E1AE2EB12C0E945A
:100A900066421092D9021092D802DF91CF911F9135
:100AA0000F91FF90EF90DF90CF90BF90AF909F900D
:100AB0008F907F906F905F904F9008956F927F928C
:100AC0008F929F92AF92BF92CF92DF92EF92FF925E
:100AD0000F931F93CF93DF933C018CE00E946849F2
:100AE00080E063E10E944A498823D1F380E090E0EE
:100AF000DC018093380790933907A0933A07B093AD
:100B00003B07209138073091390740913A075091BF
:100B10003B072093340730933507409336075093B3
:100B200037072091340730913507409136075091AF
:100B300037072093300730933107409332075093A3
:100B400033078093440790934507A0934607B093DB
:100B5000470720914407309145074091460750913F
:100B60004707209340073093410740934207509333
:100B700043078093B6029093B702A093B802B09354
:100B8000B90280939C0290939D02A0939E02B09321
:100B90009F028AE590E09093D9028093D80282E088
:100BA00090E066ED70E044E050E024ED30E005E0D8
:100BB00010E0A1EBEA2EF12CF2E3CF2ED12CE4E1F0
:100BC000AE2EB12C0E9466421092D9021092D80229
:100BD000B2E8CB2EB2E0DB2EC0E0D0E0209719F4D3
:100BE000E2E3F0E002C0E0E0F0E080E090E068EEF8
:100BF00073E040E050E020E030E008E210E07F01E8
:100C00000E949F3089E99FEF63E070E00E94D52742
:100C10008615970509F04AC0F601808191810097F9
:100C200009F044C085E090E060E070E040E050E012
:100C300028E230E00EEC1FEF0E94DC2C80E090E018
:100C400066EF7FEF40E050E020E030E00AE010E0A7
:100C5000A8E7EA2EF12C0E949F308AE090E060E045
:100C600070E049E150E028E230E002E310E00E9449
:100C700074468BEF9FEF6AE070E04CE45FEF28E290
:100C800030E00EEC1FEFFCE3EF2EF12CE2E8CE2E6D
:100C9000D12C0E94D039FE01EE0FFF1FEE57FD4F01
:100CA00081E090E0918380834E0115C08AE090E05E
:100CB00060E070E040E050E028E230E000E010E06A
:100CC0000E94DC2C219682E090E0C80ED91EC43030
:100CD000D10509F083CF8114910471F580E090E093
:100CE00067E070E048EE53E020E030E000E010E024
:100CF000BAE0EB2EF12CA8E2CA2ED12CF2E3AF2EF3
:100D0000B12C0E94B52E85E090E060E070E040E0FC
:100D100050E028E230E00EEC1FEF0E94DC2C8DEF5B
:100D20009FEF63E270E04AE550E024E130E002E842
:100D300010E00E94563662C08AE090E066EA7FEFDB
:100D400046EF5FEF28E230E002E310E00E94F23766
:100D5000C6EFDFEFD093D902C093D80228E230E08B
:100D6000829EC001839E900D929E900D1124449707
:100D700060E070E040E050E000E010E00E94DC2C19
:100D800080E090E067E070E048EE53E02EEC3FEF4B
:100D9000EAE0EE2EF12CB8E2CB2ED12CAA24BB2413
:100DA0000E94B52E85E090E060E070E040E050E009
:100DB00028E230E00EEC1FEF0E94DC2C80E090E097
:100DC00060E070E04AE550E02CE330E002E810E03B
:100DD0000E94DC2CD093D902C093D80284E190E029
:100DE00060E070E04AE050E02EE130E00CE810E016
:100DF0000E9456361092D9021092D8028EEF9FEFC1
:100E000062E070E040E050E02AE030E008E710E007
:100E10000E94DC2C80E090E0DC018093B60290938D
:100E2000B702A093B802B093B90280939C0290934A
:100E30009D02A0939E02B0939F028AE590E090935A
:100E4000D9028093D80287E090E060EA70E044E045
:100E500050E024ED30E005E010E0A1EBEA2EF12CAB
:100E6000F2E3CF2ED12CEEE1AE2EB12C0E946642E1
:100E70001092D9021092D802DF91CF911F910F9159
:100E8000FF90EF90DF90CF90BF90AF909F908F90AA
:100E90007F906F9008958F929F92AF92BF92CF9262
:100EA000DF92EF92FF920F931F93CF93DF93EC01AA
:100EB0004B0180E090E0DC018093B6029093B70292
:100EC000A093B802B093B90280939C0290939D02C4
:100ED000A0939E02B0939F028AE590E09093D9027E
:100EE0008093D80287E090E060EA70E044E050E050
:100EF00024ED30E005E010E0B1EBEB2EF12CA2E3A5
:100F0000CA2ED12CF4E1AF2EB12C0E946642109271
:100F1000D9021092D802C230D105C4F58CE090E01D
:100F200068E070E043E050E023E030E002E110E0F0
:100F3000EE24FF24E8E2CE2ED12CB2E3AB2EB12C6E
:100F40000E9420338AE090E068E070E04AE050E0E0
:100F500025E030E0AA24BB240E94203388E090E002
:100F600068E070E048EE53E023E030E0A9E1EA2ECB
:100F7000F12C0E94203382E090E06CE270E046EABF
:100F80005FEF23E230E003ED1FEF0AC082E090E064
:100F900060E370E046EA5FEF28E230E006E910E047
:100FA0000E94563680E090E06AE070E04FE050E04A
:100FB00020E030E009E110E0F8E2EF2EF12CE2E36E
:100FC000CE2ED12C0E9448408114910409F091C08A
:100FD00080E090E064E170E04CE350E029E130E033
:100FE00000E010E00E9456368CE390E09093D90226
:100FF0008093D8028AE090E06AE570E040E050E03B
:1010000023E230E00E94F23782EE9FEF9093D90204
:101010008093D8028CE090E062E070E045E050E020
:1010200023E030E00CE010E0EE24FF24B8E2CB2E09
:10103000D12CAA24BB240E942033CE01880F991FF3
:10104000AE01F5E0440F551FFA95E1F7481B590B27
:101050004B5F5F4F8AE090E062E070E025E030E0B7
:101060000E9420338FEF9FEF62E070E048EE53E084
:1010700025E030E0ECE1EE2EF12C0E94203383E0FD
:1010800090E067E170E044EC5FEF23E230E003EDD5
:101090001FEF0E9456361092D9021092D80282E0B9
:1010A00090E062E070E040E050E02AE030E008E7E5
:1010B00010E00E94DC2C80E090E0DC018093B6021E
:1010C0009093B702A093B802B093B90280939C02A8
:1010D00090939D02A0939E02B0939F028AE590E0B8
:1010E0009093D9028093D80282E090E066ED70E0A0
:1010F0008EC080E090E064E170E044EC5FEF29E1B5
:1011000030E000E010E00E94563684EC9FEF9093B0
:10111000D9028093D8028AE090E066EA7FEF40E04F
:1011200050E023E230E00E94F2378EE190E09093AD
:10113000D9028093D8028CE090E067E070E045E04F
:1011400050E023E030E000E110E0EE24FF24B8E2BC
:10115000CB2ED12CAA24BB240E94203382EE9FEFF9
:10116000C89FA001C99F500DD89F500D11244F5BFF
:101170005F4F8AE090E067E070E025E030E00E9499
:10118000203388EF9FEF67E070E048EE53E025E002
:1011900030E0ACE1EA2EF12C0E9420338DEF9FEF7E
:1011A00067E170E04CE350E023E230E003ED1FEF35
:1011B0000E9456361092D9021092D8028EEF9FEFFD
:1011C00062E070E040E050E02AE030E008E710E044
:1011D0000E94DC2C80E090E0DC018093B6029093CA
:1011E000B702A093B802B093B90280939C02909387
:1011F0009D02A0939E02B0939F028AE590E0909397
:10120000D9028093D80287E090E060EA70E044E081
:1012100050E024ED30E005E010E0F1EBEF2EF12C92
:10122000E2E3CE2ED12CBEE1AB2EB12C0E94664261
:101230001092D9021092D80290928102809280027C
:10124000DF91CF911F910F91FF90EF90DF90CF90A2
:10125000BF90AF909F908F900895AF92BF92CF9222
:10126000DF92EF92FF920F931F93CF93DF93EC01E6
:101270006115710509F070C080E090E0DC01809399
:10128000B6029093B702A093B802B093B9028093CC
:101290009C0290939D02A0939E02B0939F028AE5C8
:1012A00090E09093D9028093D80287E090E060EAC2
:1012B00070E044E050E024ED30E005E010E0E1EBC8
:1012C000EE2EF12CB2E3CB2ED12CAEE1AA2EB12C16
:1012D0000E9466421092D9021092D8021C161D0676
:1012E000A4F58CE090E068E070E043E050E023E09B
:1012F00030E002E110E0EE24FF24F8E2CF2ED12C02
:10130000E2E3AE2EB12C0E9420338AE090E068E048
:1013100070E04AE050E025E030E0AA24BB240E94BF
:10132000203388E090E068E070E048EE53E023E08E
:1013300030E0B9E1EB2EF12C0E94203382E090E006
:101340006CE270E046EA5FEF73C082E090E060E339
:1013500070E046EA5FEF77C06130710509F079C04F
:1013600080E090E0DC018093B6029093B702A093F6
:10137000B802B093B90280939C0290939D02A0930F
:101380009E02B0939F028AE590E09093D9028093E9
:10139000D80282E090E066ED70E044E050E024ED99
:1013A00030E005E010E0A1EBEA2EF12CF2E3CF2EC5
:1013B000D12CEEE1AE2EB12C0E9466421092D902E1
:1013C0001092D802C230D105C4F58CE090E061E003
:1013D00070E043E050E023E030E00EE010E0EE2467
:1013E000FF24B8E2CB2ED12CA2E3AA2EB12C0E946E
:1013F00020338AE090E061E070E04AE050E025E0D0
:1014000030E0AA24BB240E94203381E090E061E018
:1014100070E048EE53E023E030E0F9E1EF2EF12CEC
:101420000E9420338EEF9FEF66E270E04AE550E0C5
:1014300023E230E003ED1FEF0AC08EEF9FEF60E381
:1014400070E04AE550E028E230E006E910E00E9452
:10145000563680E090E06AE070E04FE050E020E037
:1014600030E008E210E0E8E2EE2EF12CB2E3CB2E01
:10147000D12C0E9448408AE090E06AE570E04AE0A2
:1014800050E028E230E000E010E00E94F23780EB0C
:101490009FEF9093D9028093D8028CE090E063E0B4
:1014A00070E045E050E023E030E00EE010E0EE2494
:1014B000FF24AA24BB240E9420338AE090E063E04A
:1014C00070E04AE050E025E030E00E9420338EEFEB
:1014D0009FEF63E070E048EE53E023E030E0A4E1EA
:1014E000EA2EF12C0E94203380E090E06AE070E068
:1014F00046EF5FEF22E330E004EC1FEF0E94563628
:101500001092D9021092D80282E090E062E070E07E
:1015100040E050E02AE030E008E710E00E94DC2CD8
:1015200080E090E0DC018093B6029093B702A09334
:10153000B802B093B90280939C0290939D02A0934D
:101540009E02B0939F028AE590E09093D902809327
:10155000D80282E090E066ED70E044E050E024EDD7
:1015600030E005E010E0F1EBEF2EF12CEEE1AE2ED5
:10157000B12C0E9466421092D9021092D802DF91DB
:10158000CF911F910F91FF90EF90DF90CF90BF9080
:10159000AF9008954F925F926F927F928F929F9239
:1015A000AF92BF92CF92DF92EF92FF920F931F9371
:1015B000CF93DF93EC010F2EF0E06F2EF0E07F2E43
:1015C000F0E08F2EF0E09F2EF02D6092B602709228
:1015D000B7028092B8029092B90260929C02709217
:1015E0009D0280929E0290929F02FAE54F2E512C0E
:1015F0005092D9024092D80282E090E066ED70E00D
:1016000044E050E024ED30E005E010E0E1EBEE2EA8
:10161000F12CB2E3CB2ED12CA4E1AA2EB12C0E9446
:1016200066421092D9021092D802C0FDABC06092FF
:10163000B6027092B7028092B8029092B90260929C
:101640009C0270929D0280929E0290929F02509204
:10165000D9024092D80282E090E066ED70E044E06A
:1016600050E024ED30E00E9466421092D9021092C0
:10167000D80280E090E06CE070E040E150E020E0D3
:1016800030E003E710E0F2E3EF2EF12CECE3CE2E96
:10169000D12C0E94484083E090E06BE270E046EA83
:1016A0005FEF28E230E00EEC1FEF0E9456366092AA
:1016B000B6027092B7028092B8029092B90260921C
:1016C0009C0270929D0280929E0290929F02509284
:1016D000D9024092D80282E090E066ED70E044E0EA
:1016E00050E024ED30E005E010E0B1EBEB2EF12C02
:1016F000A2E3CA2ED12CFEE1AF2EB12C0E9466428D
:101700001092D9021092D802C630D10529F486E28F
:1017100090E061E270E045C08CE090E061E070E054
:1017200045E050E023E030E00CE010E0EE24FF2440
:10173000E2E3CE2ED12CBCE3AB2EB12C0E942033A1
:10174000CE0162E070E00E940051709561957F4F7C
:101750008CE390E0689FA001699F500D789F500D29
:10176000112444555F4F8AE090E061E070E025E08D
:1017700030E0AA24BB240E94203383E290E066EA92
:101780007FEF4DC060E070E084EB92EC44E650E007
:101790000E94FB3BC730D10569F48DED9FEF63E2FA
:1017A00070E040E050E028E230E006E910E00E94FE
:1017B000DC2C3DC08CE090E068E070E045E050E05B
:1017C00023E030E000E110E0EE24FF24A2E3CA2E83
:1017D000D12CFCE3AF2EB12C0E942033CE0162E06D
:1017E00070E00E940051709561957F4F8CE390E00E
:1017F000689FA001699F500D789F500D112441559D
:101800005F4F8AE090E068E070E025E030E0AA24D5
:10181000BB240E94203383E290E06AE570E040E060
:1018200050E028E230E00EEC1FEF0E94F2371092F9
:10183000890610928806DF91CF911F910F91FF903A
:10184000EF90DF90CF90BF90AF909F908F907F9060
:101850006F905F904F9008950F931F93CF93DF93F6
:101860000E94D8018DB79EB740970FB6F8949EBFDF
:101870000FBE8DBFEDB7FEB73196C3EED7E0ADB763
:10188000BEB71296DC93CE93119700E011E013835C
:10189000028380914E0290914F02958384838091C0
:1018A0005002909151029783868380915E029091BD
:1018B0005F02918780878091600290916102938797
:1018C000828780916E0290916F02958784878091C4
:1018D000700290917102978786870E94544A8DB753
:1018E0009EB740960FB6F8949EBF0FBE8DBF80E0A6
:1018F00060E0AE010E946701ADB7BEB750970FB66A
:10190000F894BEBF0FBEADBFEDB7FEB731961296CD
:10191000DC93CE93119713830283809152029091AE
:10192000530295838483809154029091550297834A
:101930008683809162029091630291878087809173
:1019400064029091650293878287809172029091E0
:1019500073029587848780917402909175029787AE
:1019600086870E94544A8DB79EB740960FB6F8946A
:101970009EBF0FBE8DBF81E060E0AE010E94670197
:10198000ADB7BEB750970FB6F894BEBF0FBEADBF90
:10199000EDB7FEB731961296DC93CE931197138371
:1019A000028380915602909157029583848380919F
:1019B0005802909159029783868380916602909194
:1019C000670291878087809168029091690293876E
:1019D00082878091760290917702958784878091A3
:1019E000780290917902978786870E94544A8DB732
:1019F0009EB740960FB6F8949EBF0FBE8DBF82E093
:101A000060E0AE010E946701ADB7BEB750970FB658
:101A1000F894BEBF0FBEADBFEDB7FEB731961296BC
:101A2000DC93CE9311971383028380915A02909195
:101A30005B029583848380915C0290915D02978321
:101A4000868380916A0290916B0291878087809152
:101A50006C0290916D029387828780917A029091B7
:101A60007B029587848780917C0290917D02978785
:101A700086870E94544A8DB79EB740960FB6F89459
:101A80009EBF0FBE8DBF83E060E0AE010E94670184
:101A9000DF91CF911F910F9108950F931F93CF93D3
:101AA000DF93EC018B01CB016FEF7FEF48E050E05B
:101AB0000E944D4AC230D1052CF0CE010297F801A8
:101AC00091838083CE0162E070E00E9400518130FA
:101AD000910529F4CE010197F80193838283C630E2
:101AE000D1052CF4CE010296F80195838483C0FDC4
:101AF00004C02196F801D783C683DF91CF911F914F
:101B00000F910895A4E4B3E0EEE5F2E08D919D918C
:101B1000181619062CF4208131818217930741F49D
:101B2000329683E0A435B80789F721E030E002C09F
:101B300020E030E0C901089580E090E00DC04D91B3
:101B40005D91219131914217530729F423E0A43587
:101B5000B207A9F70FC001968617970774F4A4E49B
:101B6000B3E0FC0124E0EE0FFF1F2A95E1F7E85AED
:101B7000FC4FE5CF21E030E002C020E030E0C901B9
:101B800008954F925F926F927F928F929F92AF9241
:101B9000BF92CF92DF92EF92FF920F931F93CF935A
:101BA000DF932C016B01EA01790180918A06909103
:101BB0008B06481759070CF08AC080917E029091DD
:101BC0007F02009709F083C0C901BA010E949C0DF1
:101BD000009709F07CC00CE816E0FE01EE0FFF1F35
:101BE000E00FF11FD182C0820E94820D0097E1F4C4
:101BF0008601000F111F0E0D1F1DC60173E0880F17
:101C0000991F7A95E1F760EFA62E66E0B62EA80E32
:101C1000B91E58EF652E56E0752E680E791E4E01DE
:101C20000894811C911C4DC0D0938B06C0938A06EA
:101C300081E090E090937F0280937E0220EE32E07C
:101C40002196CC0FDD1FC901B801AE010E94444AA4
:101C50003EC0F501619171915F0177FD2FC0641560
:101C6000750561F1F801808191819093DF02809385
:101C7000DE02EB01CC0FDD1FCE0DDF1D88819981C7
:101C8000918380838091DE029091DF029983888323
:101C9000C601A40197010E94C10DF80180819181C4
:101CA0009093DF028093DE02888199819183808303
:101CB0008091DE029091DF0299838883A614B70495
:101CC00031F080917E0290917F02009711F2DF91B6
:101CD000CF911F910F91FF90EF90DF90CF90BF9029
:101CE000AF909F908F907F906F905F904F900895EE
:101CF000FC01B3E0EE0FFF1FBA95E1F7E051F94F99
:101D000020E030E0819191918617970711F4C90185
:101D100008952F5F3F4F24303105A1F7089520919A
:101D2000880630918906BC01621B730BCB0177FFDB
:101D300004C088279927861B970B8330910529F4C7
:101D4000CB016DEF7FEF0E9400518AE590E0689F24
:101D50009001699F300D789F300D1124C9010895BD
:101D60008F929F92AF92BF92CF92DF92EF92FF92AB
:101D70000F931F93CF93DF93EC01B1E08B2E912C47
:101D80008822992280FF07C081E090E09093810231
:101D90008093800204C01092810210928002C630AB
:101DA000D1050CF02CC180E090E00E948F0EAC01B8
:101DB00080E090E060E070E024E630E008E710E0CA
:101DC0000E94DC2C8114910409F47CC0AAE58A2EBF
:101DD000912C9092D9028092D80283E290E066EA38
:101DE0007FEF44E150E028E230E002E310E00E949F
:101DF000F23784E190E09093D9028093D8028CE08E
:101E000090E065E070E04BEF5FEF23E030E00EE044
:101E100010E0EE24FF24F2E3CF2ED12CAA24BB2421
:101E20000E942033CE0162E070E00E9400518CE3FA
:101E300090E0689FA001699F500D789F500D11247C
:101E40004F5A50408AE090E065E070E025E030E0D5
:101E5000E4ECAE2EEFEFBE2E0E94203360E070E087
:101E60008CE892E444E650E00E94FB3B1092D902D9
:101E70001092D80282E090E062E070E040E050E032
:101E80002AE030E008E710E00E94DC2C80E090E0DF
:101E9000DC018093B6029093B702A093B802B0938E
:101EA000B90280939C0290939D02A0939E02B093EE
:101EB0009F029092D9028092D80282E090E066ED73
:101EC00070E088C086EA9FEF9093D9028093D80291
:101ED00083E290E06AE570E04CEE5FEF2EE130E0E7
:101EE00008E210E00E94F2378CEE9FEF9093D90247
:101EF0008093D8028CE090E064E070E04BEF5FEFFD
:101F000023E030E002E110E0EE24FF24B2E3CB2E28
:101F1000D12CAA24BB240E942033CE0162E070E0C1
:101F20000E9400518CE390E0689FA001699F500DD2
:101F3000789F500D1124465950408AE090E064E0AB
:101F400070E025E030E00E9420338BEF9FEF64E0EB
:101F500070E048E15CEF25E030E0A4E1EA2EF12CEE
:101F60000E94203380E090E064EF7FEF4AEB5FEF68
:101F700022E330E004EC1FEFF4E6EF2EF12C0E9498
:101F80005B3D8EEF9FEF62E070E040E050E02AE0C2
:101F900030E008E710E00E94DC2C80E090E0DC01FB
:101FA0008093B6029093B702A093B802B093B9029F
:101FB00080939C0290939D02A0939E02B0939F02F7
:101FC0008AE590E09093D9028093D80287E090E070
:101FD00060EA70E044E050E024ED30E005E010E01D
:101FE000E1EBEE2EF12CBEE1AB2EB12C0E9466424D
:101FF0001092D9021092D8020E948127A6C0C63042
:10200000D10509F049C083E090E00E948F0EAC0139
:1020100080E090E060E070E024E630E008E710E067
:102020000E94DC2CCAE5D0E0D093D902C093D8023C
:1020300080E290E060EE7FEF40E050E02EE130E0A3
:102040000CE810E00E94DC2C8EEF9FEF62E070E065
:1020500040E050E02AE030E008E710E00E94DC2C8D
:1020600080E090E0DC018093B6029093B702A093E9
:10207000B802B093B90280939C0290939D02A09302
:102080009E02B0939F02D093D902C093D80287E0FA
:1020900090E060EA70E044C081E090E00E948F0E22
:1020A000AC0180E090E060E070E024E630E008E71A
:1020B00010E00E94DC2C80EE9FEF60EE7FEF40E0AE
:1020C00050E02EE130E00CE810E00E94DC2C82E0D1
:1020D00090E062E070E040E050E02AE030E008E7A5
:1020E00010E00E94DC2C80E090E0DC018093B602DE
:1020F0009093B702A093B802B093B90280939C0268
:1021000090939D02A0939E02B0939F028AE590E077
:102110009093D9028093D80282E090E066ED70E05F
:1021200044E050E024ED30E005E010E0A1EBEA2EC1
:10213000F12CF2E3CF2ED12CEEE1AE2EB12C0E9489
:1021400066421092D9021092D8020E948127DF9134
:10215000CF911F910F91FF90EF90DF90CF90BF90A4
:10216000AF909F908F900895EF92FF920F931F93DF
:1021700080E090E062E070E040E050E020E030E09D
:102180000AE010E0E8E7EE2EF12C0E949F3080E09C
:1021900090E06CEF7FEF40E050E020E030E00E9404
:1021A0009F3080E090E066E070E040E050E020E0AA
:1021B00030E00E949F3080E090E068EF7FEF40E0E9
:1021C00050E020E030E00E949F3080E090E06AE044
:1021D00070E040E050E020E030E00E949F3080E07E
:1021E00090E064EF7FEF40E050E020E030E00E94BC
:1021F0009F3080E090E06EE070E040E050E020E052
:1022000030E00E949F301F910F91FF90EF90089552
:10221000EF92FF920F931F93CF93DF937C018B017B
:102220000E948127C3E0D0E080E062E10E944A4939
:102230008823D1F30E94C44780E063E10E944A49A9
:102240008823D1F380E090E0FC01EE0FFF1F9C019A
:1022500063E0220F331F6A95E1F7E20FF31FE55A9F
:10226000F84F2081318121153105A1F1228133817F
:102270002E193F0937FF03C0309521953F4F2E316E
:10228000310544F5FC01EE0FFF1F9C0143E0220FD6
:10229000331F4A95E1F7E20FF31FE55AF84F248107
:1022A0003581201B310B37FF03C0309521953F4FFF
:1022B0002E3131057CF4FC01EE0FFF1FA3E0880FE7
:1022C000991FAA95E1F7E80FF91FE55AF84F208109
:1022D00031810AC001968930910509F0B5CF219767
:1022E00009F0A2CF20E030E0C901DF91CF911F912A
:1022F0000F91FF90EF9008952F923F924F925F922F
:102300006F927F928F929F92AF92BF92CF92DF9205
:10231000EF92FF920F931F93CF93DF930E94E700FA
:102320008EE161E00E94B1008EE165E00E94B100A3
:102330008EE164E10E94B1008EE160E10E94B10093
:102340000E9430498BE00E94684982E30E94C327C3
:1023500080E063E10E944A498823D1F32FEF3FE7F1
:1023600046E1215030404040E1F700C0000080E0ED
:1023700090E0DC018093380790933907A0933A07E7
:10238000B0933B07209138073091390740913A07C5
:1023900050913B072093340730933507409336071D
:1023A0005093370720913407309135074091360715
:1023B000509137072093300730933107409332070D
:1023C000509333078093440790934507A0934607A3
:1023D000B09347078091440790914507A091460725
:1023E000B09147078093400790934107A09342071D
:1023F000B0934307C39A4FEF5FE764E0415050400A
:102400006040E1F700C00000C398C3EED7E0B49984
:1024100014C080914802909149020197909349021B
:1024200080934802C39A6FEF7FE784E06150704069
:102430008040E1F700C00000C398B69914C08091B5
:102440004802909149020196909349028093480274
:10245000C39A8FEF9FE7A4E081509040A040E1F73E
:1024600000C00000C398B599BFC60E94D801C39AA6
:102470002FEF3FE744E0215030404040E1F700C0FB
:102480000000C398809148029091490282309105E2
:1024900044F497FF0BC03FEF8F3F930709F0A4C6AA
:1024A00057C28430910509F09FC692C482E090E043
:1024B00062E070E040E050E02AE030E008E710E041
:1024C0000E94DC2C80E090E0DC018093B6029093C7
:1024D000B702A093B802B093B90280939C02909384
:1024E0009D02A0939E02B0939F028AE590E0909394
:1024F000D9028093D80282E090E066ED70E044E07B
:1025000050E024ED30E005E010E0A1EBEA2EF12CE4
:10251000F2E3CF2ED12CE4E1AE2EB12C0E94664224
:102520001092D9021092D8020E94812760E070E0D8
:1025300088EC91EC48E250E00E94FB3B87EE9FEF75
:102540009093D9028093D8028091480290914902D9
:10255000009731F00E948127B59BFECFB599FECF41
:102560001092DB021092DA02BAE66B2EB2E07B2EFA
:10257000AAE74A2EA2E05A2EFAE52F2EF2E03F2ECD
:102580008824992485E690E063E070E00E94D527D6
:10259000009791F083ED90E067E670E00E940811EB
:1025A000D1018D939C9381E390E063EA70E00E94F7
:1025B0000811F30191838083F3E08F16910419F1E0
:1025C0008CE090E062E070E045E050E023E030E035
:1025D00008E010E0EE24FF24E8E2CE2ED12CB2E396
:1025E000AB2EB12C0E9420338AE090E062E070E0D4
:1025F00047E350E025E030E0AEECAA2EAFEFBA2E74
:102600000E94203330C08CE090E062E070E045E052
:1026100050E023E030E008E010E0EE24FF24F8E290
:10262000CF2ED12CE2E3AE2EB12C0E9420338AE0D3
:1026300090E062E070E044E150E025E030E0AA2460
:10264000BB240E94203383E090E063E270E04FEB14
:102650005FEF28E230E00EEC1FEF0E94563610923A
:10266000D9021092D802D3018D919C9111970097B5
:1026700081F421E030E08114910411F020E030E099
:102680008091DA029091DB02821B930BF20191831D
:1026900080830E942C0C0894811C911C2CEF3FEF2E
:1026A000620E731E420E531E220E331E34E083163A
:1026B000910409F067CF8CE090E061E070E045E0C4
:1026C00050E023E030E00CE010E0EE24FF24B2E321
:1026D000CB2ED12CACE3AA2EB12C0E9420338AE061
:1026E00090E061E070E049E650E025E030E0AA24A7
:1026F000BB240E94203383E090E068E270E046EA69
:102700005FEF22E330E004EC1FEF0E94563680E0DA
:1027100090E0DC018093B6029093B702A093B802D8
:10272000B093B90280939C0290939D02A0939E0265
:10273000B0939F028AE590E09093D9028093D802EB
:1027400082E090E066ED70E044E050E024ED30E09F
:1027500005E010E0F1EBEF2EF12CEEE1AE2EB12C06
:102760000E9466421092D9021092D80260E070E096
:1027700088EC91EC4CE350E00E94FB3B87EE9FEF2E
:102780009093D9028093D80280E6882E82E0982E1A
:1027900000E7402E02E0502E10E5212E12E0312EEF
:1027A000662477241092DB021092DA0285E690E02C
:1027B00063E070E00E94D527009791F083ED90E0F0
:1027C00067E670E00E940811D1018D939C9381E32C
:1027D00090E063EA70E00E940811F4019183808325
:1027E000F3E06F16710419F18CE090E062E070E0A4
:1027F00045E050E023E030E008E010E0EE24FF2464
:10280000B8E2CB2ED12CA2E3AA2EB12C0E94203309
:102810008AE090E062E070E047E350E025E030E0DD
:10282000FEECAF2EFFEFBF2E0E94203330C08CE0B5
:1028300090E062E070E045E050E023E030E008E046
:1028400010E0EE24FF24E8E2CE2ED12CB2E3AB2E32
:10285000B12C0E9420338AE090E062E070E044E115
:1028600050E025E030E0AA24BB240E94203383E01E
:1028700090E063E270E04FEB5FEF28E230E00EECB7
:102880001FEF0E9456361092D9021092D802D4013E
:102890008D919C911197009789F42091DA023091E3
:1028A000DB022330310529F083E090E0821B930B9B
:1028B00002C083E090E0F201918380831092DB02FA
:1028C0001092DA020E942C0C0894611C711C24E006
:1028D00030E0820E931E420E531E220E331E34E051
:1028E0006316710409F05ECF80E090E0DC01809314
:1028F000B6029093B702A093B802B093B902809346
:102900009C0290939D02A0939E02B0939F028AE541
:1029100090E09093D9028093D80282E090E066ED37
:1029200070E044E050E024ED30E005E010E0A1EB81
:10293000EA2EF12CF2E3CF2ED12CEEE1AE2EB12C0B
:102940000E9466421092D9021092D8020E942C0C6A
:1029500080914802909149024FEF8F3F940709F010
:1029600050C080E1AEE4B2E0E82F1D92EA95E9F7AD
:10297000AEE6B2E0E82F1D92EA95E9F7AEE5B2E0E7
:102980001D928A95E9F721E030E030934F022093C1
:102990004E02309351022093500282E090E09093D7
:1029A000530280935202909355028093540243E065
:1029B00050E050935702409356025093590240936F
:1029C000580250935F0240935E025093610240931D
:1029D0006002309367022093660230937502209361
:1029E0007402909369028093680290936B028093C3
:1029F0006A0230936D0220936C0290937D02809363
:102A00007C0260EF862E66E0962E5EE4E52E52E0B4
:102A1000F52E66247724CC24DD2400E010E0C801E4
:102A2000B4010E944D0DF70180819181009789F4D6
:102A3000F601EE0FFF1FEC5AFC4F11830083089440
:102A4000C11CD11CD70111967C926E92089461082A
:102A500071080F5F1F4FE8E0F0E08E0E9F1E22E02E
:102A600030E0E20EF31E08301105C9F600E010E078
:102A7000EE24EA94FE2C10938B0600938A061092A3
:102A80007F0210927E02A4E4B3E0EEE4F2E080E183
:102A900001900D928150E1F76091540370915503BC
:102AA000FB01EE0FFF1FE25BFD4FF182E0828FEF33
:102AB0009FEF40E050E02EE432E00E94C10DE09133
:102AC0005403F0915503EE0FFF1FE25BFD4F11829F
:102AD000108280917E0290917F02009749F560916B
:102AE000560370915703FB01EE0FFF1FE25BFD4F92
:102AF000F182E0828FEF9FEF40E050E02EE432E081
:102B00000E94C10DE0915603F0915703EE0FFF1F95
:102B1000E25BFD4F1182108280917E0290917F02D4
:102B2000009731F40E5F1F4F0233110509F0A3CF58
:102B3000C39A4FEF5FEF68E0415050406040E1F7CB
:102B400000C00000C3986DB77EB7685070400FB6E4
:102B5000F8947EBF0FBE6DBFEDB7FEB73196ADB72F
:102B6000BEB71296DC93CE93119722E131E0338306
:102B7000228380918A0690918B069583848380912D
:102B80007E0290917F02978386830E94544A4DB7BC
:102B90005EB7485F5F4F0FB6F8945EBF0FBE4DBF84
:102BA00083E060E0AE010E9467018091E0029091B5
:102BB000E1020E94CA0A00EE12E0EE24FF24E7C000
:102BC0000E94D8016DB77EB7685070400FB6F89478
:102BD0007EBF0FBE6DBFEDB7FEB73196ADB7BEB7C6
:102BE0001296DC93CE93119726E231E03383228351
:102BF00080914E0290914F02958384838091500280
:102C000090915102978386830E94544A4DB75EB7D4
:102C1000485F5F4F0FB6F8945EBF0FBE4DBF80E0B8
:102C200060E0AE010E9467016DB77EB768507040EA
:102C30000FB6F8947EBF0FBE6DBFEDB7FEB73196ED
:102C4000ADB7BEB71296DC93CE93119726E231E072
:102C5000338322838091520290915302958384831F
:102C60008091540290915502978386830E94544A22
:102C70004DB75EB7485F5F4F0FB6F8945EBF0FBEAB
:102C80004DBF81E060E0AE010E9467016DB77EB785
:102C9000685070400FB6F8947EBF0FBE6DBFEDB7A1
:102CA000FEB73196ADB7BEB71296DC93CE931197AF
:102CB00026E231E0338322838091560290915702BD
:102CC00095838483809158029091590297838683DB
:102CD0000E94544A4DB75EB7485F5F4F0FB6F894F5
:102CE0005EBF0FBE4DBF82E060E0AE010E94670193
:102CF00068010894E11CF11C6DB77EB76C50704000
:102D00000FB6F8947EBF0FBE6DBFEDB7FEB731961C
:102D1000ADB7BEB71296DC93CE9311972CE231E09B
:102D20003383228380915A0290915B02958384833E
:102D300080915C0290915D0297838683D8018D918A
:102D40009C9111979187808712968D919C911397F2
:102D5000938782870E94544AEDB7FEB73C960FB620
:102D6000F894FEBF0FBEEDBF83E060E0AE010E94AD
:102D700067010E5F1F4FD8016D917C91F601808134
:102D800091814EE452E020EF36E00E94461B809194
:102D90008A0690918B06E816F9060CF411CF0E9472
:102DA0008127C39A2FEF3FEF4CE221503040404043
:102DB000E1F700C00000C398E0918A06F0918B060D
:102DC000EE0FFF1FE052FD4F808191810E94B00EF7
:102DD0008FEF9FEF90934D0280934C020F2EF0E007
:102DE0006F2EF0E07F2EF0E08F2EF0E09F2EF02D82
:102DF0006092B6027092B7028092B8029092B902C5
:102E000060929C0270929D0280929E0290929F021C
:102E10008AE590E09093D9028093D80282E090E016
:102E200066ED70E044E050E024ED30E005E010E0B5
:102E3000B1EBEB2EF12CA2E3CA2ED12CFEE1AF2E8A
:102E4000B12C0E9466421092D9021092D802609270
:102E500038077092390780923A0790923B07809129
:102E6000380790913907A0913A07B0913B078093BA
:102E7000340790933507A0933607B09337078091B6
:102E8000340790913507A0913607B09137078093AA
:102E9000300790933107A0933207B09333076092C5
:102EA00044077092450780924607909247078091A9
:102EB000440790914507A0914607B091470780933A
:102EC000400790934107A0934207B093430780E0E7
:102ED00090E06EE070E042E150E020E030E002E39C
:102EE00010E0E2E3EE2EF12CBCE3CB2ED12C0E94BD
:102EF00048408091A8028F3130F082E090E09093BA
:102F00004D0280934C0280914C0290914D0297FFAC
:102F100033C080E090E06EE070E042E150E020E0FD
:102F200030E00AE010E0A2E3EA2EF12CCC24DD240C
:102F30000E94484080E090E06AE070E04CEE5FEF75
:102F400028E230E00EEC1FEF0E9456368CEE9FEF29
:102F50009093D9028093D8028091A8028F3138F0E3
:102F600081E090E090934D0280934C0217C0109244
:102F70004D0210924C0212C080E090E06AE070E0D6
:102F80004CEE5FEF28E230E00EEC1FEF0E94563669
:102F90008CEE9FEF9093D9028093D8022091340752
:102FA00030913507409136075091370760E070E067
:102FB00080E291E40E94844A0E946B4B7B018C0169
:102FC00085E090E06EE070E042E150E020E030E02B
:102FD0008701F8E2EF2EF12CE2E3CE2ED12C0E94F5
:102FE000484080E090E066EF7FEF44E150E028E267
:102FF00030E00EEC1FEF0E9456361092D90210926C
:10300000D8020E94D80100D000D000D0EDB7FEB7A2
:103010003196ADB7BEB71296DC93CE9311972BE3E2
:1030200031E03383228380914C0290914D0295834D
:1030300084830E94544A4DB75EB74A5F5F4F0FB614
:10304000F8945EBF0FBE4DBF81E061E0AE010E940B
:1030500067011EE6E12E12E0F12E00E010E0D7013C
:103060008D919C9111970097D9F060918002709199
:10307000810280914C0290914D020E942D09F7012E
:10308000808191810E945E05B801617070708091AD
:103090004C0290914D020E944B07C8010E942B02E6
:1030A0000F5F1F4F22E030E0E20EF31E08301105E3
:1030B000B1F680918002909181028130910509F0F2
:1030C00082C00F2EF0E06F2EF0E07F2EF0E08F2E0A
:1030D000F0E09F2EF02D6092B6027092B7028092BF
:1030E000B8029092B90260929C0270929D02809206
:1030F0009E0290929F02BAE54B2E512C5092D9021B
:103100004092D80282E090E066ED70E044E050E04A
:1031100024ED30E005E010E0A1EBEA2EF12CF2E323
:10312000CF2ED12CEEE1AE2EB12C0E946642109231
:10313000D9021092D80280E090E06CE070E040E1AB
:1031400050E020E030E003E710E0B2E3EB2EF12C9A
:10315000ACE3CA2ED12C0E94484083E090E068E2A4
:1031600070E046EA5FEF28E230E00EEC1FEF0E94CD
:1031700056366092B6027092B7028092B802909270
:10318000B90260929C0270929D0280929E0290927F
:103190009F025092D9024092D80282E090E066ED00
:1031A00070E044E050E024ED30E005E010E0F1EBA9
:1031B000EF2EF12CE2E3CE2ED12C0E94664210922B
:1031C000D9021092D8020E948127C39A4FEF5FEF75
:1031D00069E5415050406040E1F700C00000C398ED
:1031E000B599FECFB59BFECF8091480290914902E0
:1031F000009709F442C04091A8023091A7022091A3
:10320000A6029091AE028091AD026DB77EB76E506E
:1032100070400FB6F8947EBF0FBE6DBFEDB7FEB71E
:103220003196ADB7BEB71296DC93CE93119764E496
:1032300071E073836283448315823683178220870B
:10324000118692871386848715860E94544A8DB70B
:103250009EB70E960FB6F8949EBF0FBE8DBF80E04E
:1032600060E0AE010E9467013091A9022091AA029C
:103270009091AB028091AC023EC04091BC02309173
:10328000BB022091BA029091C2028091C102ADB7F7
:10329000BEB71E970FB6F894BEBF0FBEADBFEDB759
:1032A000FEB731961296DC93CE93119764E471E0E9
:1032B0007383628344831582368317822087118645
:1032C00092871386848715860E94544A8DB79EB7CD
:1032D0000E960FB6F8949EBF0FBE8DBF80E060E0E3
:1032E000AE010E9467013091BD022091BE02909113
:1032F000BF028091C002ADB7BEB71C970FB6F8945D
:10330000BEBF0FBEADBFEDB7FEB731961296DC93D0
:10331000CE9311974DE551E0538342833483158258
:103320002683178290871186828713860E94544ACB
:103330006DB77EB7645F7F4F0FB6F8947EBF0FBE48
:103340006DBF81E060E0AE010E946701809148029C
:103350009091490297FF03C0909581959F4F69E036
:1033600070E00E94005190934B0280934A020E94A9
:10337000291F80914A0266E60E944A49C82E809120
:103380004A0267E60E944A49E82E00914A0280906C
:103390004B02802F68E60E944A49ADB7BEB71C9722
:1033A0000FB6F894BEBF0FBEADBFEDB7FEB73196F6
:1033B0001296DC93CE93119725E731E03383228375
:1033C00004838582C6821782E086118682871386EF
:1033D0000E94544AEDB7FEB73C960FB6F894FEBF74
:1033E0000FBEEDBF82E060E0AE010E946701409138
:1033F0005107509152072091530730915407409044
:103400004F0750905007E0900908F0900A08C090CC
:10341000DD07D090DE078090590790905A076090A2
:103420004D0770904E076091400770914107809161
:10343000420790914307ADB7BEB754970FB6F894C3
:10344000BEBF0FBEADBF0DB71EB70F5F1F4F1296A9
:10345000DC93CE931197E8E8F1E0D8011396FC9342
:10346000EE93129715965C934E93149717963C9390
:103470002E93169719965C924E9218971B96FC9273
:10348000EE921A971D96DC92CE921C971F969C92F4
:103490008E921E9751967C926E9250970E946B4B23
:1034A000F801738B628B0E94544A2DB73EB72C5E95
:1034B0003F4F0FB6F8943EBF0FBE2DBF83E060E0D4
:1034C000AE010E94670100D000D000D0EDB7FEB77A
:1034D0003196ADB7BEB71296DC93CE9311978EE9B5
:1034E00091E0938382838091480290914902958371
:1034F00084830E94544AEDB7FEB736960FB6F8940F
:10350000FEBF0FBEEDBF83E060E1AE010E94670128
:103510000C940712CF92DF92EF92FF920F931F93BA
:10352000CF93DF9381E090E060E070E048EE53E0FD
:1035300028E230E002E310E00E94744680E090E070
:1035400069E170E04CE45FEF28E230E00EEC1FEF41
:10355000F4E6EF2EF12CE8E7CE2ED12C0E94D039E4
:103560000E94B41068E377E080E090E0DC01809393
:10357000380790933907A0933A07B0933B072091FF
:1035800038073091390740913A0750913B07EB01DA
:103590005A934A933A932A93288139814A815B81CD
:1035A00068507040FB0120833183428353838093B2
:1035B000440790934507A0934607B093470780912F
:1035C000440790914507A0914607B0914707809323
:1035D000400790934107A0934207B093430780911F
:1035E00088069091890662E070E00E9400519C017B
:1035F000220F331FAC01B5E0440F551FBA95E1F718
:10360000421B530B4C5E5F4F8AE090E060E070E03D
:1036100028E230E002E310E00E94744682E090E08D
:1036200060E070E04EE150E028E230E00EEC1FEF89
:103630000E947446688179818A819B8190580E949A
:103640006B4B9B01AC0180E090E0B90140E050E0A1
:103650002EE130E00CE810E00E94DC2C0E94B41057
:103660008091880690918906029664E070E00E943D
:1036700000519093890680938806DF91CF911F9126
:103680000F91FF90EF90DF90CF900895AF92BF928F
:10369000CF92DF92EF92FF920F931F93CF93DF931E
:1036A0006C017B015A010E94780EEC010E948F0E82
:1036B000AC0180E090E060E070E026E930E002E8F4
:1036C00010E00E94DC2C0E94B410D0938906C093B5
:1036D0008806E701CC0FDD1FCA0DDB1D88819981AB
:1036E0001816190634F4C601B701A5010E948A1AFA
:1036F00018C081E090E060E070E048EE53E028E21E
:1037000030E002E310E00E94744680E090E069E15E
:1037100070E040E050E028E230E00EEC1FEF0E9445
:10372000DC2CF601EE0FFF1FEA0DFB1D808191815D
:103730009093DF028093DE02888199819183808358
:103740008091DE029091DF0299838883DF91CF918F
:103750001F910F91FF90EF90DF90CF90BF90AF90AF
:10376000089590E0FC01B096FE2FEE272081209373
:10377000480720FDFBCF8896B82FAA278C9190810F
:103780009093480790FDFBCF089590E08096F82F26
:10379000EE2780818093480780FDFBCF6083808186
:1037A0008093480780FDFBCF089580E061E00E9490
:1037B000C51B82E061E00E94C51B81E061E00E94C0
:1037C000C51B0895A82FB0E0FD01B096FE2FEE278F
:1037D00080818093480780FDFBCF9896BA2FAA2757
:1037E000872F992787FD9A958C938081809348072E
:1037F00080FDFBCF6C9380818093480780FDFBCFD9
:1038000008951F93CF93DF93182F80E06FE10E94FC
:10381000C51BC1E0D0E002C0CC0FDD1F1A95E2F756
:1038200080E0BE010E94E21B81E06FE10E94C51BA7
:1038300081E0BE010E94E21B82E06FE10E94C51B95
:1038400082E0BE010E94E21B80E061E00E94C51B95
:1038500082E061E00E94C51B81E061E00E94C51B1F
:10386000DF91CF911F910895DF92EF92FF920F9316
:103870001F93D82E7A018B019B01552737FD509558
:10388000452FB9010E94E21B8D2DB7010E94E21B5A
:103890001F910F91FF90EF90DF9008951F93182FC5
:1038A00060E00E94C51B8CEC9CE10197F1F700C021
:1038B0000000812F6DE10E94C51B812F60E070E048
:1038C0000E94E21B1F910895AF92BF92CF92DF92A8
:1038D000EF92FF920F931F93CF93DF93F82E6B011C
:1038E000EA018901AA24A3946115710509F4AA24A7
:1038F000BB24B394209709F4BB24EE24E394011570
:10390000110509F4EE248F2D6EE10E94C51B6B2D6D
:1039100070E0660F771F660F771F8A2D90E043E0F7
:10392000880F991F4A95E1F7682B792B8E2D90E02F
:10393000880F991F682B792B8F2D0E94E21BAA20DC
:1039400021F08F2DB6010E94E21BBB2021F08F2DAC
:10395000BE010E94E21BEE2021F08F2DB8010E94D3
:10396000E21B8F2D64E00E94C51BDF91CF911F9158
:103970000F91FF90EF90DF90CF90BF90AF900895A0
:103980008F929F92AF92BF92CF92DF92EF92FF926F
:103990000F931F93CF93DF93F82E4B016A01E90138
:1039A000AA24A3946115710509F4AA24BB24B39435
:1039B000C114D10409F4BB24EE24E394209709F444
:1039C000EE248F2D6EE10E94C51B6A2D70E0A3E0EE
:1039D000660F771FAA95E1F761608B2D90E0880F45
:1039E000991F880F991F682B792B8E2D90E0880FD7
:1039F000991F682B792B8F2D0E94E21BAA2021F0A2
:103A00008F2DB4010E94E21BBB2021F08F2DB60147
:103A10000E94E21BEE2021F08F2DBE010E94E21BCE
:103A20008F2DB8010E94E21B8F2D64E00E94C51B00
:103A3000DF91CF911F910F91FF90EF90DF90CF908A
:103A4000BF90AF909F908F900895DF92EF92FF927A
:103A50000F931F93D82E7A018B016FE10E94C51B33
:103A60008D2D60E270E00E94E21B8D2DB801A70150
:103A70000E94341C1F910F91FF90EF90DF900895EA
:103A800080E060E170E040E050E020E430E00E943F
:103A9000641C81E060E170E040E050E020E430E050
:103AA0000E94641C82E060E170E040E050E020E4AD
:103AB00030E00E94641C80E04FEF5FEF6FEF7FE328
:103AC0000E94251D81E04FEF5FEF6FEF7FE30E94C3
:103AD000251D82E04FEF5FEF6FEF7FE30E94251D12
:103AE0000895DF92EF92FF920F931F93DF93CF938E
:103AF0000F92CDB7DEB7D82E7A018B0177FF0AC0BF
:103B000010950095F094E094E11CF11C011D111D2D
:103B100090E001C091E08D2D6FE199830E94C51B5B
:103B20009981792F7295707F60E0686078608D2D43
:103B30000E94E21B8D2DB801A7010E94341C0F903A
:103B4000CF91DF911F910F91FF90EF90DF9008953B
:103B5000AF92BF92CF92DF92EF92FF920F931F939B
:103B6000DF93CF93CDB7DEB72C970FB6F894DEBFB7
:103B70000FBECDBF59016A010E949E4B69837A83B3
:103B80008B839C83C601B5010E949E4B6D837E830F
:103B90008F839887C801B7010E949E4B69877A87F7
:103BA0008B879C878E010F5F1F4FEE24F801608189
:103BB00071818281938121E73CEA4BE85EE30E94B8
:103BC000624D9B01AC01F8012193319341935193D4
:103BD0008F0120E030E040E857E40E94624D0E94EF
:103BE0006B4BAB01BC018E2D0E94711DE394FE2D29
:103BF000F330E1F60E94D51B2C960FB6F894DEBF89
:103C00000FBECDBFCF91DF911F910F91FF90EF902D
:103C1000DF90CF90BF90AF9008954F925F926F92D8
:103C20007F928F929F92AF92BF92CF92DF92EF924C
:103C3000FF920F931F93982E862E29013A016FE170
:103C40000E94C51B682D70E06A62892D0E94E21BEC
:103C5000892DB301A2010E94341C892DB801A7014E
:103C60000E94341C892DB601A5010E94341C1F91AD
:103C70000F91FF90EF90DF90CF90BF90AF909F900B
:103C80008F907F906F905F904F9008959F92AF922A
:103C9000BF92CF92DF92EF92FF920F931F93DF9329
:103CA000CF9300D00F92CDB7DEB71ABA15BA8FEF07
:103CB00084BB1092650083E08093640010E8A12E1D
:103CC000B4E8BB2E6E010894C11CD11C85B385607D
:103CD00085BB83E39BE20197F1F785B38A7F85BBC0
:103CE000ECECFCE13197F1F700C000008091650039
:103CF0008D7F80936500AB9885B3887F85BB99B332
:103D00009983A89A19B385B3887F826085BB09B36C
:103D1000943C09F494C0943809F491C015BA80E039
:103D200060E045EA51E00E94670181E060E04BEA13
:103D300051E00E946701143C09F481C0143809F471
:103D40007EC015BA80E060E045EA51E00E9467015C
:103D500082E060E04BEB51E00E946701043C09F413
:103D60006EC0043809F46BC015BA80E060E045EA23
:103D700051E00E94670183E060E04BEC51E029C014
:103D80009E2C9C18892D6DE10E94C51B892D60E039
:103D900070E00E94E21BF8018081F70181937F01AE
:103DA00000501F4FF3E200301F0751F78981803C1C
:103DB00099F0803889F085B78F7385BF15BA80E098
:103DC00060E04BED51E00E94670181E060E04BEA6A
:103DD00051E00E9467017ACF80E060E041EE51E05F
:103DE0000E94670180E098B3976098BB2FEF3FEB8C
:103DF00046E0215030404040E1F700C0000098B359
:103E0000987F98BB2FEF3FEB46E021503040404079
:103E1000E1F700C000008F5F833029F70E94D801CE
:103E20000F900F900F90CF91DF911F910F91FF9006
:103E3000EF90DF90CF90BF90AF909F900895A5BE78
:103E400082E080936D00B0926C00760100E010E299
:103E500097CF4F925F926F927F928F929F92AF9285
:103E6000BF92CF92DF92EF92FF920F931F93CF9367
:103E7000DF9304E6802E912C84E00E947600982F38
:103E800080E0EC0185E00E94760090E08C2B9D2B79
:103E9000B4010E940051882777FD8095982F0E94D9
:103EA0009E4BF62E072F182FE92E462E572E682EE2
:103EB000792E63015201E894D7F8C601B50120E0DC
:103EC00030E044E353E40E94C74C1816ACF2609112
:103ED0003C0770913D0780913E0790913F072F2D41
:103EE000302F412F5E2D0E94FC4A882309F4E5C043
:103EF0006F2D702F812F9E2D20E030E0A9010E94B0
:103F0000FC4A87FF5DC060913C0770913D0780913E
:103F10003E0790913F0720E030E0A9010E94C74C86
:103F200018160CF04DC020913C0730913D07409190
:103F30003E0750913F075F77C601B5010E94854A51
:103F400020E030E044E353E40E94FC4A87FF15C0C0
:103F5000A0904007B0904107C0904207D09043071F
:103F600020913C0730913D0740913E0750913F071B
:103F70006F2D702F812F9E2D1CC0A0904007B090F8
:103F80004107C0904207D090430760913C07709171
:103F90003D0780913E0790913F072F2D302F412FF5
:103FA0005E2D0E94844A9B01AC0160E070E084EBCE
:103FB00093E40E94844A9B01AC01C601B50169C02B
:103FC000C301B20120E030E0A9010E94C74C1816DD
:103FD0000CF047C060913C0770913D0780913E070F
:103FE00090913F0720E030E0A9010E94FC4A87FF42
:103FF00038C020913C0730913D0740913E075091D9
:104000003F075F77C601B5010E94854A20E030E096
:1040100044E353E40E94FC4A87FD23C0E09040073C
:10402000F0904107009142071091430720913C070F
:1040300030913D0740913E0750913F07C301B201C7
:104040000E94844A9B01AC0160E070E084EB93E441
:104050000E94844A9B01AC01C801B7010E94844AB6
:104060001AC0E0904007F09041070091420710917C
:10407000430720913C0730913D0740913E07509106
:104080003F07C301B2010E94844A9B01AC01C801F1
:10409000B7010E94854A9B01AC01209340073093F1
:1040A0004107409342075093430740923C07509288
:1040B0003D0760923E0770923F07DF91CF911F91BD
:1040C0000F91FF90EF90DF90CF90BF90AF909F90B7
:1040D0008F907F906F905F904F9008952F923F92B6
:1040E0004F925F926F927F928F929F92AF92BF9208
:1040F000CF92DF92EF92FF920F931F93DF93CF93B4
:10410000CDB7DEB762970FB6F894DEBF0FBECDBF56
:1041100069837A838B839C832D833E834F83588767
:104120003701480160E070E084E394E4A601950162
:104130000E94844A162F072FF82EE92E8D819E812A
:10414000AF81B8858093490790934A07A0934B07A6
:10415000B0934C0789819A81AB81BC818093DF0742
:104160009093E007A093E107B093E207A092550770
:10417000B0925607C0925707D0925807C601B501B2
:1041800020E030E044E353E40E94FC4A181684F037
:10419000A8019701652F742F832F922F20E030E024
:1041A00044EB53E40E94844A162F072FF82EE92E81
:1041B000A8019701652F702F832F9E2D20E030E0FE
:1041C00044EB52E40E94844A69877A878B879C87F4
:1041D000C401B30123EF36E64FE55EE30E94624D72
:1041E0006D877E878F87988B80E090E036E9432E3D
:1041F000512C28E6222E21E0322E9A8B898BB20197
:10420000882777FD8095982F0E949E4B5B016C015B
:10421000C20188589F4FB1010E9400512C01C60174
:10422000B501D801F7012B2F302F4F2F5E2D0E94A3
:10423000844A25E33AEF4EE85CE30E94624D0E9417
:10424000004B3B014C01C601B501B985AA85AB8481
:10425000DC842B2F3A2F4A2D5D2D0E94844A25E3C2
:104260003AEF4EE85CE30E94624D0E94004B5B0116
:104270006C016D817E818F819885A40193010E94DC
:10428000624D3B014C0169817A818B819C81A60141
:1042900095010E94624D9B01AC01C401B3010E94D3
:1042A000854ABD85AE85DF84A8882B2F3A2F4D2DFA
:1042B0005A2D0E94844A2FE632E143E856E40E94D8
:1042C000624D23E333E343E250EC0E94624D0E94CF
:1042D0006B4BAB01BC0189890E94711DA989BA8908
:1042E0001196BA8BA98BA330B10509F088CF0E9433
:1042F000D51B0E94291F62960FB6F894DEBF0FBE31
:10430000CDBFCF91DF911F910F91FF90EF90DF9084
:10431000CF90BF90AF909F908F907F906F905F9065
:104320004F903F902F9008952F923F924F925F921F
:104330006F927F928F929F92AF92BF92CF92DF92B5
:10434000EF92FF920F931F93DF93CF93CDB7DEB71A
:104350002C970FB6F894DEBF0FBECDBF5B016C018A
:1043600039014A0117012801609140077091410706
:10437000809142079091430720914407309145076F
:104380004091460750914707E0904007F090410761
:104390000091420710914307E0924407F0924507CD
:1043A0000093460710934707E0903807F0903907CD
:1043B00000913A0710913B070E94844A9B01AC018F
:1043C000C801B7010E94844A9B01AC0120933807C1
:1043D0003093390740933A0750933B07C601B50124
:1043E00020E030E0A9010E94FC4A882351F4C40176
:1043F000B30120E030E0A9010E94FC4A882309F4BF
:10440000D2C0C601B50120E030E048EC52E40E9481
:10441000034B69837A838B839C83C401B30120E0BF
:1044200030E048EC52E40E94034B6D837E838F831F
:104430009887609138077091390780913A07909179
:104440003B07A20191010E94844AF62E072F182FE4
:10445000E92E8091300790913107A0913207B091F9
:10446000330789879A87AB87BC876F2D702F812F81
:104470009E2D25E33AEF4EE85CE30E94624D0E94D8
:10448000004B3B014C016F2D702F812F9E2D20E0A2
:1044900030E044EB52E40E94854A25E33AEF4EE8CF
:1044A0005CE30E94624D0E94004B5B016C015981EC
:1044B0004A813B812C81652F742F832F922FA40179
:1044C00093010E94624D1B012C015D814E813F8151
:1044D0002885652F742F832F922FA60195010E94A6
:1044E000624D9B01AC01C201B1010E94854A9B0152
:1044F000AC0169857A858B859C850E94854A9B01E4
:10450000AC0120933007309331074093320750932A
:10451000330720903407309035074090360750908D
:1045200037076F2D702F812F9E2D20E030E044EB58
:1045300052E40E94844A25E33AEF4EE85CE30E948D
:10454000624D0E94004B7B018C015D814E813F8159
:104550002885652F742F832F922FA40193010E9429
:10456000624D5B016C0159814A813B812C81652F31
:10457000742F832F922FA80197010E94624D9B01F7
:10458000AC01C601B5010E94854A9B01AC01C20184
:10459000B1010E94854A9B01AC01E0E3F7E024836E
:1045A0003583468357832C960FB6F894DEBF0FBE33
:1045B000CDBFCF91DF911F910F91FF90EF90DF90D2
:1045C000CF90BF90AF909F908F907F906F905F90B3
:1045D0004F903F902F9008952F923F924F925F926D
:1045E0006F927F928F929F92AF92BF92CF92DF9203
:1045F000EF92FF920F931F93DF93CF93CDB7DEB768
:104600002E970FB6F894DEBF0FBECDBF18018701FD
:104610009A8389837C836B83509541955F4F5E833A
:104620004D83309521953F4F38872F83CE010196DA
:104630009A87898779E0472E512C4C0E5D1E7C01AC
:1046400066247724CC24DD24D7016D917D917D01F2
:10465000882777FD8095982F0E949E4B4B015C0127
:10466000E894B7F8662D772D8C2D9D2DA50194012A
:104670000E94FC4A87FF02C034016501E414F5047E
:1046800019F7EE24FF24C101AA2797FDA095BA2FA0
:104690008B879C87AD87BE87A985BA85AD90BD9075
:1046A000BA87A9876B857C858D859E850E949E4BE8
:1046B0001B012C01B501882777FD8095982F0E945A
:1046C0009E4B262D372D4C2D5D2D0E94034BA201B4
:1046D00091010E94624D9B01AC01F701EE0FFF1F9B
:1046E000EE0FFF1FE750F84F20833183428353833F
:1046F0000894E11CF11CB4E0EB16F10469F60436F1
:1047000011052CF40115110509F051C005C004363E
:10471000110511F00456104091E0E92EF12C662DA0
:10472000772D8C2D9D2D20E030E048EC52E40E9446
:10473000624DA20191010E94034B0E94E94A5B0174
:104740006C01970122503040C80117FF03C09095BB
:1047500081959F4FB7010E940051620F731F8827F8
:1047600077FD8095982F0E949E4B9B01AC01C6015E
:10477000B5010E94854A0E946B4BCB012E960FB665
:10478000F894DEBF0FBECDBFCF91DF911F910F9187
:10479000FF90EF90DF90CF90BF90AF909F908F9061
:1047A0007F906F905F904F903F902F90089582E0A0
:1047B000E82EF12CB4CF2F923F924F925F926F92DE
:1047C0007F928F929F92AF92BF92CF92DF92EF92A1
:1047D000FF920F931F93DF93CF93CDB7DEB72E9742
:1047E0000FB6F894DEBF0FBECDBF7A8369836536FE
:1047F000710514F0645670404B0177FF04C08824A3
:104800009924861A970AE090B202F090B302A701A9
:104810004F5F5F4F9C012E193F0900E010E05A01E5
:10482000CC24B7FCC094DC2CAB82BC82CD82DE826F
:104830001401442437FC4094542C6C01C818D90846
:10484000D886CF82C901AA2797FDA095BA2F89875C
:104850009A87AB87BC877E876D873401F7FC34C0AD
:10486000AD85BE85B7FD2DC04801880C991C880C0C
:10487000991CF401E750F84FA080B180C280D3802A
:104880006B817C818D819E810E949E4B9B01AC013E
:10489000C601B5010E94624D5B016C01C201B1010C
:1048A0000E949E4B9B01AC01C601B5010E94034BC7
:1048B0009B01AC01F401E55FF74F20833183428314
:1048C0005383E614F70424F4ED85FE85F7FF13C047
:1048D0009801220F331F220F331FF901E750F84FC1
:1048E00080819181A281B381255F374FF901808357
:1048F0009183A283B383AF80B884AE14BF0494F5D0
:1049000049815A814536510568F14801880C991C46
:10491000880C991CF401E750F84FA080B180C28048
:10492000D38069857A858B859C850E949E4B9B01EF
:10493000AC01C601B5010E94624D5B016C01C20170
:10494000B1010E949E4B9B01AC01C601B5010E94C2
:10495000034B9B01AC01F401E55FF74F20833183EA
:10496000428353830F5F1F4F0430110509F076CF48
:104970002E960FB6F894DEBF0FBECDBFCF91DF915C
:104980001F910F91FF90EF90DF90CF90BF90AF906D
:104990009F908F907F906F905F904F903F902F905F
:1049A000089581E090E00A9B02C080E090E090933F
:1049B00054078093530781E090E00B9B02C080E096
:1049C00090E09093500780934F0781E090E00C9B1C
:1049D00002C080E090E090930A088093090881E08B
:1049E00090E0849B02C080E090E090935207809317
:1049F000510781E090E0869B02C080E090E09093B8
:104A0000DE078093DD072091630081E090E023FDC5
:104A100002C080E090E090935A078093590720915C
:104A2000630081E090E024FD02C080E090E090937C
:104A30004E0780934D0708951F920F920FB60F9265
:104A40000BB60F921124EF92FF920F931F932F93A7
:104A50003F934F935F936F937F938F939F93AF9306
:104A6000BF93EF93FF938FEF8DBD80E78CBD609177
:104A70009C0270919D0280919E0290919F022AE07B
:104A800037ED43EA5CE30E94854A7B018C017F2D70
:104A9000912F20E030E040E85FE30E94C74C1816F9
:104AA00024F4EE24FF2400E81FE38E2D9F2DA02F79
:104AB000B12F80939C0290939D02A0939E02B0938D
:104AC0009F026091B6027091B7028091B8029091F6
:104AD000B9022AE037ED43EA5CE30E94854A7B0194
:104AE0008C017F2D912F20E030E040E85FE30E94B1
:104AF000C74C181624F4EE24FF2400E81FE38E2D83
:104B00009F2DA02FB12F8093B6029093B702A09350
:104B1000B802B093B9026091A0027091A102809195
:104B2000A2029091A3022DEC3CEC4CE45DE30E94C8
:104B3000854AF62EE72E8C01A701652F742F912F41
:104B400020E030E040E85FE30E94C74C181624F4F0
:104B5000FF24EE2400E81FE3A701852F9E2DA02F40
:104B6000B12F8093A0029093A102A093A202B093D0
:104B7000A3020E94D124809153079091540700977B
:104B8000B1F080919A0290919B02009781F48091FC
:104B9000A4029091A50201969093A5028093A4028D
:104BA00081E090E090939B0280939A0210C08091E4
:104BB000530790915407009751F480919A02909175
:104BC0009B02009721F010929B0210929A02809112
:104BD0004F0790915007009731F18091D00290914A
:104BE000D102009701F58091DA029091DB020196E3
:104BF0009093DB028093DA0221E030E03093D1021F
:104C00002093D0028091F7079091F807FC01EE0FF6
:104C1000FF1FEB54F84F3183208301969093F807E0
:104C20008093F70710C080914F079091500700972D
:104C300051F48091D0029091D102009721F010920E
:104C4000D1021092D0028091090890910A08009731
:104C5000B1F08091CC029091CD02009781F48091C7
:104C6000CA029091CB0201969093CB028093CA0224
:104C700081E090E09093CD028093CC0210C08091AF
:104C8000090890910A08009751F48091CC02909104
:104C9000CD02009721F01092CD021092CC028091AB
:104CA0005107909152070097B1F08091C8029091FE
:104CB000C902009781F48091D2029091D3020196AB
:104CC0009093D3028093D20281E090E09093C90246
:104CD0008093C80210C080915107909152070097AD
:104CE00051F48091C8029091C902009721F010926E
:104CF000C9021092C8028091DD079091DE070097EB
:104D0000B1F08091B4029091B502009781F4809146
:104D1000D4029091D50201969093D5028093D4024B
:104D200081E090E09093B5028093B40210C080912E
:104D3000DD079091DE07009751F48091B4029091C5
:104D4000B502009721F01092B5021092B402809142
:104D5000590790915A07009741F18091CE029091A6
:104D6000CF02009711F58091C6029091C70201967B
:104D70009093C7028093C60281E090E09093CF02A7
:104D80008093CE028091F7079091F807FC01EE0F17
:104D9000FF1FEB54F84F22E030E03183208301966F
:104DA0009093F8078093F70710C08091590790916E
:104DB0005A07009751F48091CE029091CF0200974C
:104DC00021F01092CF021092CE0280914D07909167
:104DD0004E070097B1F08091B0029091B102009718
:104DE00081F48091DC029091DD0201969093DD02C6
:104DF0008093DC0281E090E09093B1028093B00256
:104E000010C080914D0790914E07009751F480910A
:104E1000B0029091B102009721F01092B10210926D
:104E2000B0028091B2029091B302009729F00196EE
:104E30009093B3028093B20280918A0290918B0288
:104E4000009749F080918A0290918B02019790938C
:104E50008B0280938A028091D6029091D7020097AC
:104E600049F08091D6029091D70201969093D70293
:104E70008093D6028091C4029091C502009729F0D8
:104E800001969093C5028093C4028091F707909198
:104E9000F8078431910524F01092F8071092F70773
:104EA0006091DF077091E0078091E1079091E20740
:104EB0002091490730914A0740914B0750914C0788
:104EC000E0905507F090560700915707109158074A
:104ED0000E949421FF91EF91BF91AF919F918F918B
:104EE0007F916F915F914F913F912F911F910F9102
:104EF000FF90EF900F900BBE0F900FBE0F901F9082
:104F00001895AF92BF92CF92DF92EF92FF920F93DC
:104F10001F9360E070E0CB019B01AC017B018C0131
:104F20005B016C010E946E201F910F91FF90EF902A
:104F3000DF90CF90BF90AF900895FC01EA55FD4FF0
:104F4000808190E0681779076CF08091C40290919D
:104F5000C502009759F481E090E09093C5028093D8
:104F6000C40204C01092C5021092C40221E030E0D5
:104F70008091C4029091C5028330910514F420E021
:104F800030E0C90108951F93182F81E10E943E016E
:104F9000812F0E943E01809146028823E1F30E9406
:104FA0002B01882391F31F9108954F925F926F9286
:104FB0007F928F929F92AF92BF92CF92DF92EF92A9
:104FC000FF920F931F93CF93DF938C013B01C1E0BE
:104FD000D0E0CC24DD248FEFA82EB12C8824992496
:104FE000EE24FF2444245524401A510A14C0602F93
:104FF00017FD642D8C2F0E944A4990E0C816D906EF
:1050000014F46C017E018A159B0524F4009711F0BD
:105010005C014E0121966C167D064CF710161106A8
:105020000CF07401C701DF91CF911F910F91FF9098
:10503000EF90DF90CF90BF90AF909F908F907F9038
:105040006F905F904F9008956F927F928F929F9292
:10505000AF92BF92CF92DF92EF92FF920F931F9386
:10506000D62EC72EB82EA92E922E832E742E652EE4
:105070006E2D7F2D802F912FD601F5012B2F3A2FEA
:105080004F2F5E2F0E94C74C1816ACF06E2D7F2D4F
:10509000802F912FD401F3012B2F3A2F4F2F5E2F0A
:1050A0000E94FC4A87FF03C06401530104C0DE2C48
:1050B000CF2CB02EA12EA6019501652F7C2D832F1C
:1050C0009A2D1F910F91FF90EF90DF90CF90BF909E
:1050D000AF909F908F907F906F9008952F923F9206
:1050E0005F926F927F928F929F92AF92BF92CF9278
:1050F000DF92EF92FF920F931F93DF93CF93CDB781
:10510000DEB728970FB6F894DEBF0FBECDBF582E7E
:105110004B015A8349831092C5021092C402109227
:105120008B0210928A0280918A0290918B02909356
:105130001C0880931B0880911B0890911C08909379
:10514000B3028093B20260E070E080E090E0DC01A6
:105150008B01000F111F000F111F9801255F374FA2
:10516000F90180839183A283B383208131814281BD
:105170005381F801E750F84F2083318342835383F2
:105180006F5F7F4F6430710519F700D000D000D0F9
:10519000EDB7FEB7319603EE17E0ADB7BEB7129686
:1051A0001C930E93119785EF91E0938382838AEF8E
:1051B00091E0958384830E94544AEDB7FEB73696FA
:1051C0000FB6F894FEBF0FBEEDBF80E067E0A80108
:1051D0000E9467011092D7021092D602852D66E6D2
:1051E0000E944A49A82EE0903807F09039070091B4
:1051F0003A0710913B07B401882777FD8095982FD7
:105200000E949E4BA80197010E94854A0E946B4B09
:105210004B018A189108882777FD8095982F0E9466
:105220009E4B5B016C01B401882777FD8095982F18
:105230000E949E4B7B018C01C40168E572E00E94D4
:105240000051882777FD8095982F0E949E4B2FE86C
:1052500032EC45E75EE30E94854A9B01AC01C80140
:10526000B7010E94624D9B01AC01C601B5010E94CD
:10527000854A0E946B4B1B018824992491E0692E7A
:10528000712C3C822B82140180918A0290918B02B6
:105290000097D1F770928B0260928A02852D66E6A4
:1052A0000E944A49E82EFF24852D67E60E944A495C
:1052B00038C00E948127852D66E60E944A49E82E63
:1052C000852D67E60E944A492091D6023091D70287
:1052D0002115310521F47092D7026092D6022091F7
:1052E000D6023091D702F1E02F353F071CF00E9423
:1052F000812712C1FF24E114F10499F020E030E08D
:10530000A9012093B6023093B7024093B80250939C
:10531000B90220939C0230939D0240939E025093C9
:105320009F02082F10E0E114F10421F4011511058A
:1053300009F4BFCF4B815C814115510591F0E41A0E
:10534000F50AB701882777FD8095982F0E949E4B1C
:105350002DEC3CEC4CE45FE30E94624D0E946B4BF1
:105360001B0189819A81009719F04C01801A910ADA
:10537000B101882777FD8095982F0E949E4B7B0175
:105380008C0160E070E088E492E420E030E048E4E2
:1053900052EC0E9424280E946B4B1B01B401882709
:1053A00077FD8095982F0E949E4B7B018C0160E0D9
:1053B00070E080E792E420E030E040E752EC0E94A9
:1053C00024280E946B4B4B01A0903807B0903907FE
:1053D000C0903A07D0903B07B401882777FD8095AD
:1053E000982F0E949E4B2091B6023091B7024091B7
:1053F000B8025091B9020E94624D2DEC3CEC4CE495
:105400005FE30E94624D6D837E838F839887B10135
:10541000882777FD8095982F0E949E4B20919C02B3
:1054200030919D0240919E0250919F020E94624DD8
:105430007B018C016091D8027091D902882777FD99
:105440008095982F0E949E4BA60195010E94854A47
:105450005B016C0160E070E0CB012D813E814F81EA
:1054600058850E946E208091B2029091B3020097FD
:1054700021F47092B3026092B2028091B2029091D4
:10548000B302A1E08F359A0754F42114310409F0D6
:10549000FBCEC40101968330910508F0F5CE109241
:1054A000C5021092C40280E090E0DC0180935507B1
:1054B00090935607A0935707B093580780915507CC
:1054C00090915607A0915707B09158078093DF0736
:1054D0009093E007A093E107B093E2078091DF0784
:1054E0009091E007A091E107B091E207809349070E
:1054F00090934A07A0934B07B0934C0760914907DC
:1055000070914A0780914B0790914C070E946B4B1A
:105510007093B3026093B20228960FB6F894DEBF80
:105520000FBECDBFCF91DF911F910F91FF90EF90F4
:10553000DF90CF90BF90AF909F908F907F906F90B3
:105540005F903F902F9008952F923F925F926F92BD
:105550007F928F929F92AF92BF92CF92DF92EF9203
:10556000FF920F931F93DF93CF93CDB7DEB7609772
:105570000FB6F894DEBF0FBECDBF582E7A83698375
:105580005C834B833E832D831092C5021092C4022C
:1055900010928B0210928A0280918A0290918B0263
:1055A00090931C0880931B0880911B0890911C0805
:1055B0009093B3028093B20260E070E080E090E0EC
:1055C000DC018B01000F111F000F111F9801255FD7
:1055D000374FF90180839183A283B3832081318186
:1055E00042815381F801E750F84F20833183428391
:1055F00053836F5F7F4F6430710519F700D000D07F
:1056000000D0EDB7FEB7319603EE17E0ADB7BEB7E9
:1056100012961C930E93119785EF91E093838283EA
:105620008EEF91E0958384830E94544AEDB7FEB7D4
:1056300036960FB6F894FEBF0FBEEDBF80E067E070
:10564000A8010E9467011092D7021092D602882406
:10565000992480E090E06624772431E0232E312CD9
:10566000988B8F8780918A0290918B020097D1F757
:1056700030928B0220928A02852D66E60E944A496A
:10568000E82EFF24852D67E60E944A49082F10E086
:10569000B701CF84D8883BC00E948127852D66E65C
:1056A0000E944A49A82E852D67E60E944A4920910A
:1056B000D6023091D7022115310521F43092D7025C
:1056C0002092D6022091D6023091D702F1E02F35F8
:1056D0003F071CF00E94812757C16A2D70E06115B9
:1056E000710599F020E030E0A9012093B6023093D3
:1056F000B7024093B8025093B90220939C023093B2
:105700009D0240939E0250939F02082F10E0611566
:10571000710521F40115110509F4BECFD88ACF8691
:105720004B815C814115510589F0641B750B8827FD
:1057300077FD8095982F0E949E4B2DEC3CEC4CE41D
:105740005FE30E94624D0E946B4B3B0189819A810D
:10575000009791F0E81AF90AB701882777FD80953C
:10576000982F0E949E4B2AE939E949E15FE30E94A4
:10577000624D0E946B4B4B01AD81BE81109721F0B1
:10578000A01BB10BB88BAF87B301882777FD80953D
:10579000982F0E949E4B7B018C0160E070E080EFAF
:1057A00091E420E030E040EF51EC0E9424280E9478
:1057B0006B4B3B01EF85F889BF01882777FD80950A
:1057C000982F0E949E4B7B018C0160E070E08CE57D
:1057D00092E420E030E04CE552EC0E9424280E9444
:1057E0006B4B788B6F87B401882777FD8095982F56
:1057F0000E949E4B7B018C0160E070E088E492E4A3
:1058000020E030E048E452EC0E9424280E946B4BD8
:105810004B01E0909C02F0909D0200919E0210913D
:105820009F02B301882777FD8095982F0E949E4B99
:10583000A80197010E94624D2DEC3CEC4CE45FE323
:105840000E94624D6F83788789879A872F85388970
:10585000B901882777FD8095982F0E949E4B209153
:10586000B6023091B7024091B8025091B9020E943D
:10587000624D2DEC3CEC4CE45FE30E94624D6B8783
:105880007C878D879E87B401882777FD8095982F28
:105890000E949E4BA80197010E94624D7B018C01E2
:1058A0006091D8027091D902882777FD8095982F52
:1058B0000E949E4B5B016C016F81788589859A857A
:1058C0002B853C854D855E850E946E208091B202BD
:1058D0009091B302009721F43092B3022092B20269
:1058E0008091B2029091B30231E08F3593077CF43E
:1058F0006114710409F0B6CE8F85988901968330C2
:10590000910508F0AFCE8114910409F0ABCE10924E
:10591000C5021092C40280E090E0DC01809355073C
:1059200090935607A0935707B09358078091550757
:1059300090915607A0915707B09158078093DF07C1
:105940009093E007A093E107B093E2078091DF070F
:105950009091E007A091E107B091E2078093490799
:1059600090934A07A0934B07B0934C076091490767
:1059700070914A0780914B0790914C070E946B4BA6
:105980007093B3026093B20260960FB6F894DEBFD4
:105990000FBECDBFCF91DF911F910F91FF90EF9080
:1059A000DF90CF90BF90AF909F908F907F906F903F
:1059B0005F903F902F9008952F923F924F925F9269
:1059C0006F927F928F929F92AF92BF92CF92DF920F
:1059D000EF92FF920F931F93DF93CF93CDB7DEB774
:1059E0002C970FB6F894DEBF0FBECDBF5C013B0114
:1059F0005C834B8319011A8309831092C5021092AC
:105A0000C40210928B0210928A0280918A029091B5
:105A10008B0290931C0880931B0880911B08909127
:105A20001C089093B3028093B20260E070E080E0C3
:105A300090E0DC018B01000F111F000F111F980176
:105A4000255F374FF90180839183A283B38320813F
:105A5000318142815381F801E750F84F208331832F
:105A6000428353836F5F7F4F6430710519F700D015
:105A700000D000D0EDB7FEB7319603EE17E0ADB71A
:105A8000BEB712961C930E93119785EF91E0938306
:105A9000828381E092E0958384830E94544AEDB72B
:105AA000FEB736960FB6F894FEBF0FBEEDBF80E08E
:105AB00067E0A8010E94670180914007909141072B
:105AC000A0914207B09143078D839E83AF83B8872F
:105AD000C501B30140E050E020E030E08101E98001
