:100000000C9455000C9474000C9474000C947400BF
:100010000C9474000C9474000C9474000C94740090
:100020000C9474000C9474000C9474000C94740080
:100030000C9474000C9474000C94F82C0C947400C0
:100040000C9474000C9474000C9432540C9474004E
:100050000C9474000C9474000C9474000C94740050
:100060000C9474000C9474000C9474000C94740040
:100070000C9474000C9474000C940A010C94740099
:100080000C9474000C9474000C94740005A84CCD6E
:10009000B2D44EB93836A9020C50B9918688083CC2
:1000A000A6AAAA2ABE000000803F11241FBECFEFDF
:1000B000D0E1DEBFCDBF12E0A0E0B1E0E0E8F7EBB9
:1000C00000E00BBF02C007900D92A835B107D9F729
:1000D00016E0A8E5B2E001C01D92AF37B107E1F725
:1000E0000E94B11A0C94DA540C94000094EA909394
:1000F00074009091740097FFFCCF9AE09093730086
:1001000094E8909374009091740097FFFCCF8093D3
:10011000730084E8809374008091740087FFFCCFA3
:1001200084E98093740084EA809374008091740061
:1001300087FFFCCF8BE08093730084E8809374008A
:100140008091740087FFFCCF84E8809374008091D5
:10015000740087FFFCCF8091730094E99093740042
:10016000089594EA909374009091740097FFFCCFE7
:100170009AE09093730094E89093740090917400C7
:1001800097FFFCCF8093730084E880937400809184
:10019000740087FFFCCF6093730084E88093740041
:1001A0008091740087FFFCCF84E9809374000895E8
:1001B00010929B0088E980939A0086E080939D00CE
:1001C000109298008FE580939900789408951F937A
:1001D0001FEF1093730081E4809370000E94222629
:1001E0000E941E540E94D8000E941C251FBC85E05E
:1001F0008EBD1DBD80E78CBD84E087BF78948FE005
:1002000087BB81B3807F81BB84B3806F84BB18BA06
:100210001F9108951F920F920FB60F9211248F9382
:10022000DF93CF930F92CDB7DEB780919C00898387
:1002300080919B00887BE1F381E080935802898163
:10024000809359020F90CF91DF918F910F900FBE45
:100250000F901F901895DF93CF930F92CDB7DEB715
:1002600080915902898310925902F8941092580291
:10027000789489810F90CF91DF91089590919B00A0
:1002800095FFFCCF80939C000895CF93DF93E4E724
:10029000F0E094EA9083A1EEB2E01197F1F700004C
:1002A000A3E7B0E09EE09C9394E89083C1EED2E097
:1002B0002197F1F700008C93908381EE92E00197F3
:1002C000F1F7000084E98083DF91CF910895EF92E8
:1002D000FF920F931F93DF93CF9300D0CDB7DEB77C
:1002E000082F162F843070F5643160F58BE1498357
:1002F0005A830E9445018CE40E944501812F0E948F
:100300004501802F0E94450180E791E00197F1F7B8
:1003100000C0E12EFF2449815A81042F152F06C009
:100320000E94450194EC9A95F1F700C0E4E1EE16C5
:10033000F10444F4F80181918F010894E11CF11C4F
:10034000882371F70F900F90CF91DF911F910F913C
:10035000FF90EF9008951F93DF93CF9300D0CDB718
:10036000DEB7182F8430F0F46431E0F48BE12A8397
:1003700069830E9445018CE40E9445016981862FB2
:100380000E944501812F0E94450180E791E001977D
:10039000F1F700C02A81822F0E94450194EC9A95C2
:1003A000F1F700C00F900F90CF91DF911F9108954A
:1003B0008BE10E94450183E40E94450186E696EEAA
:1003C000A0E081509040A040E1F70895EF92FF92A5
:1003D0000F931F93182FF62EE42E842F64E60E94AD
:1003E0008B5B082F282F30E0205D3F4F442737FDDF
:1003F0004095542F812F6F2D0E94AB018CE9089FEF
:10040000002D11240E0D802F6AE00E948B5BE82ED8
:100410006F2D6F5F282F30E0205D3F4F442737FD61
:100420004095542F812F0E94AB016F2D6E5F26EFF8
:10043000E29E202D1124200F30E0205D3F4F442705
:1004400037FD4095542F812F0E94AB011F910F91D2
:10045000FF90EF900895EF92FF920F931F9380E02B
:1004600090E062E070E040E050E020E030E00AE040
:1004700010E0E8E7EE2EF12C0E949B3880E090E03F
:100480006CEF7FEF40E050E020E030E00E949B38CE
:1004900080E090E066E070E040E050E020E030E096
:1004A0000E949B3880E090E068EF7FEF40E050E0F2
:1004B00020E030E00E949B3880E090E06AE070E04D
:1004C00040E050E020E030E00E949B3880E090E087
:1004D00064EF7FEF40E050E020E030E00E949B3886
:1004E0001F910F91FF90EF9008958F929F92AF927E
:1004F000BF92CF92DF92EF92FF920F931F93CF9311
:10050000DF934C0181E090E090939E0180939D01E8
:1005100080E090E0DC018093260390932703A09372
:100520002803B093290380930C0390930D03A093A9
:100530000E03B0930F038AE590E0909349038093F4
:10054000480380E090E060E070E044E050E022EC9E
:1005500030E005E010E0B3EAEB2EF12CA2E3CA2E66
:10056000D12CAA24BB240E94FD4C10924903109266
:1005700048039092730480927204F3E0AF2EB12C82
:10058000A80CB91C27E0A216B10418F0CFEFDFEFDA
:1005900002C0C1E0D0E0C40183709070009709F000
:1005A00018C180E090E06AE070E04EE050E020E0AA
:1005B00030E000E510E0E8E2EE2EF12CB2E3CB2EC5
:1005C000D12C0E949D4A80E090E06AE070E04EE00D
:1005D00050E020E030E00AE010E0CC24DD240E946E
:1005E0003F4880E090E06AE070E04EE050E020E0BC
:1005F00030E000E510E00E949D4A37E0A316B10408
:1006000008F046C080E090E06AE070E04EE050E024
:1006100020E030E004E110E00E943F4886EA9FEFCE
:10062000C89FA001C99F500DD89F500D1124CE0125
:1006300068E270E02EE130E008ED1FEF0E94273EF7
:1006400080E090E064E670E040E050E020E030E0E0
:100650000AE010E0A8E7EA2EF12C0E949B3881E026
:1006600090E060E070E048EE53E02EE130E008E218
:1006700010E00E9403518AE090E060E070E04EE0FC
:1006800050E02EE130E008ED1FEF0E9403519CC0C6
:1006900080E090E06AE070E04EE050E020E030E082
:1006A00008E110E0F8E2EF2EF12CCC24DD240E94CA
:1006B0003F4880E090E06AE070E04CEE5FEF23E2BC
:1006C00030E000E010E00E94273E8CEE9FEF909318
:1006D00049038093480389E190E06AE570E04EECBD
:1006E0005FEF2EE130E00E94C33F84E190E0909301
:1006F00049038093480380E090E06BEF7FEF4CEE7E
:100700005FEF2EE130E008ED1FEFE0E5EE2EF12C7B
:100710000E94524580E090E0DC0180932603909394
:100720002703A0932803B093290380930C0390938D
:100730000D03A0930E03B0930F038AE590E090930E
:1007400049038093480380E090E060E070E044E07B
:1007500050E022EC30E005E010E0B3EAEB2EF12CA3
:10076000A2E3CA2ED12CAA24BB240E94FD4C1092D5
:1007700049031092480380E090E06CE97FEF40E08D
:1007800050E020E030E004E110E0F2E8EF2EF12C40
:100790000E949B3881E090E060E070E048EE53E01A
:1007A0002EE130E008E210E00E9403518AE090E080
:1007B00060E070E04EE050E02EE130E008ED1FEF29
:1007C0000E9403510E945D2F1092710310927003DA
:1007D000C1C0C40164E070E00E94975B5C0181E0ED
:1007E000A816B10409F05AC080E090E06AE070E019
:1007F0004EE050E020E030E000E510E0E8E2EE2ED0
:10080000F12CB2E3CB2ED12C0E949D4A80E090E0E7
:100810006AE070E04EE050E020E030E00AE010E0F6
:10082000CC24DD240E943F4880E090E06AE070E044
:100830004EE050E020E030E000E510E00E949D4AEC
:1008400086EA9FEFC89FB001C99F700DD89F700DB9
:1008500011248DE090E040E050E028E230E000E03C
:1008600010E00E94C33FBE01A3E0660F771FAA9568
:10087000E1F780E090E040E050E020E030E004E18B
:1008800010E0F2EEEF2EFFEFFF2E0E949B38B092A9
:100890007103A09270030E945D2F5CC022E0A2163B
:1008A000B10431F580E090E06AE070E04EE050E0A5
:1008B00020E030E004E610E0E8E2EE2EF12CB2E3B6
:1008C000CB2ED12C0E949D4A86EA9FEFC89FB00193
:1008D000C99F700DD89F700D11248DE090E040E00D
:1008E00050E02EE130E000E010E00E94C33F18C06D
:1008F00033E0A316B10471F584E190E09C01C29F3E
:10090000C001C39F900DD29F900D11246AE070E04A
:1009100040E050E02EE130E008E210E00E94B83400
:10092000BE01A3E0660F771FAA95E1F780E090E093
:1009300040E050E020E030E004E110E0F2EEEF2E85
:10094000FFEFFF2E0E949B3881E090E090937103AF
:1009500080937003DF91CF911F910F91FF90EF90E3
:10096000DF90CF90BF90AF909F908F9008956F923F
:100970007F928F929F92AF92BF92CF92DF92EF922F
:10098000FF920F931F93CF93DF93EC0110929E0180
:1009900010929D01909373048093720410927103DE
:1009A000109270030F2EF0E06F2EF0E07F2EF0E03B
:1009B0008F2EF0E09F2EF02D609226037092270379
:1009C000809228039092290360920C0370920D0389
:1009D00080920E0390920F038AE590E09093490372
:1009E0008093480380E090E060E070E044E050E0F5
:1009F00022EC30E005E010E0B3EAEB2EF12CA2E3AC
:100A0000CA2ED12CAA24BB240E94FD4C109249036B
:100A100010924803CE0183709070009709F047C090
:100A200085EB9FEF64E170E040E050E022E330E0CE
:100A300000EA10E00E94B834609226037092270307
:100A4000809228039092290360920C0370920D0308
:100A500080920E0390920F0380E090E060E070E0DF
:100A600041E050E028EA30E003E010E0F4E8EF2E47
:100A7000F12CE4E1CE2ED12C0E94FD4C8CE090E0D4
:100A800061E070E045E050E023E030E000E110E09C
:100A9000EE24FF24B8E2CB2ED12CA2E3AA2EB12C57
:100AA0000E94313B8AE090E061E070E091C0CE01AD
:100AB00064E070E00E94975B8130910589F481EFDA
:100AC0009FEF60E070E040E050E02EE130E008E2AF
:100AD00010E00E94B83480E090E064EF7FEF13C034
:100AE0008230910549F58FE090E060E070E040E0F1
:100AF00050E02EE130E008E210E00E94B83480E0DF
:100B000090E06CE070E040E050E020E030E00EE18A
:100B100010E0F8EDEF2EFFEFFF2E0E949B3880E0F3
:100B200090E06BE470E040E050E028E230E006E95D
:100B300010E00E94B83456C08330910509F054C0CB
:100B40008BE490E064E170E040E050E022E330E0CC
:100B500000EA10E00E94B8346092260370922703E6
:100B6000809228039092290360920C0370920D03E7
:100B700080920E0390920F0380E090E060E070E0BE
:100B800046E050E02EE930E008E010E0E6E7EE2E27
:100B9000F12CBEE1CB2ED12CAA24BB240E94FD4C0B
:100BA0008CE090E068E070E045E050E023E030E069
:100BB00004E110E0EE24FF24A8E2CA2ED12CF2E3D7
:100BC000AF2EB12C0E94313B8AE090E068E070E0EB
:100BD00042E350E025E030E0EEECAE2EEFEFBE2E2B
:100BE0000E94313B0E942B02DF91CF911F910F9108
:100BF000FF90EF90DF90CF90BF90AF909F908F903D
:100C00007F906F9008950F931F93CF93DF93EC0124
:100C10008C0154E0000F111F5A95E1F70E561B4F3F
:100C2000C8016FEF7FEF40E150E00E94DD54C43017
:100C3000D1052CF0CE010497F80191838083CE0179
:100C400064E070E00E94975B181619066CF4FE01D0
:100C500044E0EE0FFF1F4A95E1F7EE56FB4F9E0171
:100C60002150304035832483CC30D1056CF4FE0113
:100C700034E0EE0FFF1F3A95E1F7EE56FB4F9E0171
:100C80002C5F3F4F318720878330910561F0FE0153
:100C900024E0EE0FFF1F2A95E1F7EE56FB4FCE0141
:100CA000019695878487FE0194E0EE0FFF1F9A95C9
:100CB000E1F7EE56FB4F8081918197FD08C084815A
:100CC000958197FD04C0CE01059793838283FE0131
:100CD00084E0EE0FFF1F8A95E1F7EE56FB4F80850B
:100CE000918597FD08C08481958197FD04C0CE0150
:100CF000039697838683FE0104E0EE0FFF1F0A959B
:100D0000E1F7EE56FB4F8085918597FD08C08485FD
:100D1000958597FD04C0CE01059693878287FE01D5
:100D200014E0EE0FFF1F1A95E1F7EE56FB4F80819E
:100D3000918197FD07C08485958597FD03C0239712
:100D4000D787C687DF91CF911F910F9108950F9399
:100D50001F93CF93DF93EC018C01B3E0000F111FC1
:100D6000BA95E1F706531C4FC8016FEF7FEF48E0DB
:100D700050E00E94DD54C430D1052CF0CE01049720
:100D8000F80191838083CE0164E070E00E94975B5C
:100D9000181619066CF4FE01A3E0EE0FFF1FAA95CA
:100DA000E1F7E653FC4F9E0121503040338322830C
:100DB000C430D1056CF4FE0173E0EE0FFF1F7A958D
:100DC000E1F7E653FC4F9E012C5F3F4F35832483B0
:100DD0008330910559F0FE0163E0EE0FFF1F6A9525
:100DE000E1F7E653FC4F2196D783C683DF91CF917D
:100DF0001F910F910895EF92FF92CF93DF93EEEA48
:100E0000F2E0E82EE7017E01F92EE701A62FB72FC9
:100E100080E090E00FC02191319137FD08C06881DA
:100E200079812D913C9111976217730749F40196CE
:100E3000229612968417950774F321E030E002C0E1
:100E400020E030E0C901DF91CF91FF90EF9008954D
:100E5000AF92BF92CF92DF92EF92FF920F931F93C8
:100E6000CF93DF930E94D801CEE5D2E00EE812E0E6
:100E7000EE24FF2495E4C92E96E0D92E80E0A82E1A
:100E800081E0B82E8DB79EB70C970FB6F8949EBF31
:100E90000FBE8DBFEDB7FEB73196ADB7BEB7129698
:100EA000DC92CE921197B382A28288819981958338
:100EB00084838A819B81978386838C819D8191879E
:100EC00080878E819F81938782870E94EB548DB7A4
:100ED0009EB70C960FB6F8949EBF0FBE8DBF8E2D99
:100EE00060E0A6010E946701ADB7BEB71C970FB6C0
:100EF000F894BEBF0FBEADBFEDB7FEB731961296E8
:100F0000DC92CE921197B382A282D8018D919C91EE
:100F100011979583848312968D919C911397978353
:100F2000868314968D919C9115979187808716964C
:100F30008D919C911797938782870E94EB548DB770
:100F40009EB70C960FB6F8949EBF0FBE8DBF8E2D28
:100F500069E0A6010E9467010894E11CF11C289633
:100F6000085F1F4F94E0E916F10409F08BCFDF9181
:100F7000CF911F910F91FF90EF90DF90CF90BF9096
:100F8000AF9008950F931F93CF93DF930E94D801E2
:100F90008DB79EB70C970FB6F8949EBF0FBE8DBF4E
:100FA000EDB7FEB73196C5E4D6E0ADB7BEB7129641
:100FB000DC93CE93119700E011E0138302838091BC
:100FC0007E0290917F02958384838091800290912C
:100FD0008102978386838091820290918302918718
:100FE00080878091840290918502938782870E94F6
:100FF000EB548DB79EB70C960FB6F8949EBF0FBEFC
:101000008DBF80E060E0AE010E946701ADB7BEB762
:101010001C970FB6F894BEBF0FBEADBFEDB7FEB7BD
:1010200031961296DC93CE931197138302838091AD
:10103000AE029091AF02958384838091B00290912B
:10104000B102978386838091B2029091B302918717
:1010500080878091B4029091B502938782870E9425
:10106000EB548DB79EB70C960FB6F8949EBF0FBE8B
:101070008DBF80E069E0AE010E946701ADB7BEB7E9
:101080001C970FB6F894BEBF0FBEADBFEDB7FEB74D
:1010900031961296DC93CE9311971383028380913D
:1010A0008602909187029583848380918802909133
:1010B00089029783868380918A0290918B0291871F
:1010C000808780918C0290918D02938782870E9405
:1010D000EB548DB79EB70C960FB6F8949EBF0FBE1B
:1010E0008DBF81E060E0AE010E946701ADB7BEB781
:1010F0001C970FB6F894BEBF0FBEADBFEDB7FEB7DD
:1011000031961296DC93CE931197138302838091CC
:10111000B6029091B702958384838091B802909132
:10112000B902978386838091BA029091BB0291871E
:1011300080878091BC029091BD02938782870E9434
:10114000EB548DB79EB70C960FB6F8949EBF0FBEAA
:101150008DBF81E069E0AE010E946701DF91CF9110
:101160001F910F910895861B970B97FF03C09095D1
:1011700081959F4F8430910531F08130910531F494
:1011800021E030E005C020E030E002C022E030E0A5
:10119000C90108950097A1F0E2E1F4E021E030E018
:1011A0002817390739F04081518157FD03C0461790
:1011B000570749F02F5F3F4F32962430310581F7B2
:1011C00020E030E002C021E030E0C90108952F9214
:1011D0003F924F925F926F927F928F929F92AF92C7
:1011E000BF92CF92DF92EF92FF920F931F93DF9304
:1011F000CF93CDB7DEB72A970FB6F894DEBF0FBEF8
:10120000CDBF5C017A8369834A013901FC82EB829C
:101210001601009781F14217530769F52C01440C20
:10122000551C23E0880F991F2A95E1F7480E591E97
:10123000400E511EF201EE0FFF1FEA5EFB4FE080F1
:10124000F180F201EE0FFF1FEC5EFB4F8081918178
:10125000B7010E94B3086C01F201EE0FFF1FE85EB8
:10126000FB4F60817181C7010E94B30821E030E02B
:10127000C816D90611F420E030E08B819C81821BD6
:10128000930B20919B0130919C01281739070CF496
:10129000F4C08217930759F4F501EE0FFF1FEE53C8
:1012A000FC4F20813181201731070CF4E6C09501F5
:1012B000220F331FF50153E0EE0FFF1F5A95E1F7A0
:1012C000E20FF31FE00FF11FEE0FFF1FE85EFB4F71
:1012D0009182808286149704A9F5A114B10459F073
:1012E000205F3B4FD9012D913C911197E981FA8103
:1012F000E217F30739F59501220F331FF901E05F7B
:10130000FB4F49815A81518340832E533C4FD90171
:101310000D931C9390939C0180939B0184E190E03A
:10132000A89EF001A99EF00DB89EF00D1124DF01DA
:10133000AE58BC4FE85EFB4F84E101900D928150A6
:10134000E1F79BC0F401EE0FFF1FE254FD4F81E077
:1013500090E091838083C40174E0880F991F7A958F
:10136000E1F762E9462E64E0562E480E591EFC0154
:10137000EE55FB4FFE83ED839401285030403887B3
:101380002F83A8014F5F5F4F5A874987D2010D9184
:101390001D912D0117FD64C0C801880F991FFC0124
:1013A000E254FD4F208131812115310509F058C0EB
:1013B0000615170541F0820D931DFC018081918176
:1013C000009709F04DC0C401B8010E94B3089C0108
:1013D0004F8158854430510520F48130910509F43E
:1013E0003FC0A114B10469F189819A812817390796
:1013F00029F5C80108978430910518F5F801E370C4
:10140000F070809150039091510364E070E00E946D
:10141000975B41E050E08E179F0714F040E050E0EA
:10142000E41BF50BEE0FFF1FE258FD4F81E090E04B
:10143000408151814A155B0531F403C081E090E0A1
:1014400002C080E090E0EB80FC80E80EF91EC50150
:10145000B901A801930109851A8561010E94E70875
:10146000AD81BE814A165B0609F090CFF401EE0F04
:10147000FF1FE254FD4F118210822A960FB6F89496
:10148000DEBF0FBECDBFCF91DF911F910F91FF90B7
:10149000EF90DF90CF90BF90AF909F908F907F9014
:1014A0006F905F904F903F902F900895CF92DF9272
:1014B000EF92FF920F931F93CF93DF936801EC019C
:1014C000CC0FDD1FCE53DC4FE8E0F0E0F983E8837A
:1014D000E5E0F0E0F0939C01E0939B01A0E20EEBCD
:1014E00012E0F8011192AA95E9F700E010E0EE246D
:1014F000FF240E94E70821E030E08881998188304C
:10150000910511F420E030E0C901DF91CF911F91E6
:101510000F91FF90EF90DF90CF9008954F925F92E0
:101520006F927F928F929F92AF92BF92CF92DF92F3
:10153000EF92FF920F931F93CF93DF933C016B01C8
:10154000EA0179018091700490917104481759075C
:101550000CF077C0FA01EE0FFF1FEC58FB4F7183C0
:101560006083C9016EEA72E048E050E00E94FB0629
:101570000097A1F081E090E09093DF028093DE027B
:10158000D0937104C0937004A2E5B3E0E4E7F4E003
:101590008EE101900D928150E1F753C08601000F5A
:1015A000111F0E0D1F1DC60133E0880F991F3A95BC
:1015B000E1F72AECA22E23E0B22EA80EB91EB2ED5E
:1015C0004B2EB3E05B2E480E591E4E010894811C31
:1015D000911CF501619171915F0177FD2FC0661536
:1015E000770561F1F8018081918190934F03809399
:1015F0004E03EB01CC0FDD1FCE0DDF1D88819981DD
:101600009183808380914E0390914F0399838883C7
:10161000C601A40197010E948E0AF8018081918180
:1016200090934F0380934E038881998191838083A7
:1016300080914E0390914F0399838883A414B5043D
:1016400041F6DF91CF911F910F91FF90EF90DF90C6
:10165000CF90BF90AF909F908F907F906F905F9052
:101660004F900895262F372FF90120E030E0419167
:10167000519184179507A1F4237030708091500325
:101680009091510364E070E00E94975B41E050E06C
:101690002817390714F440E050E0240F351F07C025
:1016A0002F5F3F4F2430310511F72FEF3FEFC90176
:1016B0000895FB01389624E030E041915191841760
:1016C000950719F42370307007C02F5F3F4F283003
:1016D000310599F72FEF3FEFC9010895CF92DF92BF
:1016E000EF92FF920F931F93CF93DF938C01EB0147
:1016F0007A018EEA92E06FEF7FEF40E150E00E94C6
:10170000DD54D7FD06C0CC0FDD1FC255DD4F198358
:101710000883F701EE0FFF1FEA54FD4F118300838A
:10172000EEE7F2E080E090E0219131912115310562
:1017300009F46C01019688309105B1F7C0E0D0E062
:10174000D0937104C09370041092DF021092DE02F5
:101750008FEF9FEFB60140E050E02EE732E00E94AD
:101760008E0A8091DE029091DF02009721F421968B
:10177000C431D10529F7DF91CF911F910F91FF90CF
:10178000EF90DF90CF9008950F931F93DF93CF9347
:1017900000D000D0CDB7DEB78EEA92E06FEF7FEFDA
:1017A00040E150E00E94DD54E0911204F0911304F6
:1017B000EE0FFF1FEA54FD4F81E090E0918380839C
:1017C000E0911404F0911504EE0FFF1FEA54FD4F51
:1017D00082E090E091838083E0911604F0911704F9
:1017E000EE0FFF1FEA54FD4F83E090E0918380836A
:1017F0004091500350915103A4ECB3E081E090E09C
:101800002D913D91FC01EE0FFF1FBC0113E0660F0F
:10181000771F1A95E1F7E60FF71FE20FF31FEE0FA0
:10182000FF1FE059FC4F20813181B90168507040A1
:101830006430710570F4237030704217530714F44C
:1018400021503040F901EE0FFF1FE255FD4F91830B
:10185000808301968430910599F619821A821B8241
:101860001C82EEE7F2E080E090E040E050E020E013
:1018700030E0BE016F5F7F4FA081B181109771F49E
:10188000D901AA0FBB1FA60FB71F11969C938E9369
:101890002F5F3F4F51834083415050400196329615
:1018A0008830910549F700E010E01093710400932F
:1018B00070041092DF021092DE0269817A818FEF4C
:1018C0009FEF40E050E02EE732E00E948E0A8091C8
:1018D000DE029091DF020097A9F46B817C818FEF8B
:1018E0009FEF40E050E02EE732E00E948E0A8091A8
:1018F000DE029091DF02009729F40F5F1F4F043141
:10190000110599F60F900F900F900F90CF91DF91E6
:101910001F910F9108952F923F924F925F926F9275
:101920007F928F929F92AF92BF92CF92DF92EF926F
:10193000FF920F931F93DF93CF93CDB7DEB7C454BD
:10194000D0400FB6F894DEBF0FBECDBF88249924D7
:1019500084E190E09AAF89AFAAE0B0E0B8AFAFAB56
:101960004CC18A149B0409F439C1CC24DD2435010F
:10197000C614D70409F429C1C814D90409F425C12F
:1019800090921304809212047092150460921404D1
:10199000D0921704C092160481E090E09A83898364
:1019A0002196DFAECEAE219723967FAE6EAE239703
:1019B00025969FAE8EAE2597F6C081E090E09C8381
:1019C0008B832E010894411C511CE2C029813A816D
:1019D0008217930709F4E2C0E1E0F0E0FE83ED83B3
:1019E000CCC02B813C812817390709F4CCC0298150
:1019F0003A812817390709F4C6C0DE015796EEE58B
:101A0000F2E080E201900D928150E1F7DE0117963D
:101A1000EEE7F2E080E101900D928150E1F75EAED9
:101A20004DAE82EC93E09CAF8BAFCC24DD246624DA
:101A30007724EE24FF24ADADBEADAD90BD90BEAF1A
:101A4000ADAFC114D10441F4C501BE01695F7F4F40
:101A50000E94320BBC0102C06FEF7FEF4501880C82
:101A6000991C18EE212E12E0312E280C391CF101A0
:101A700040815181F401E051FD4F20813181C50148
:101A80008E01095E1F4F0E94560A009709F470C02C
:101A900080919B0190919C01E80EF91EABADBCAD0D
:101AA0008D919D91BCAFABAF680E791EF101408165
:101AB0005181440F551F440D551DDA0156962D9145
:101AC0003C91579730934F0320934E03C4018E539C
:101AD0009C4FF501A3E0EE0FFF1FAA95E1F7E80D7B
:101AE000F91DDC018D919C91E80FF91FEE0FFF1F8E
:101AF000E059FC4F0190F081E02DEE0FFF1FE40D47
:101B0000F51D86899789DA0157969C938E9356978F
:101B1000378B268BB2E0CB16D10411F5EFA9F8ADC7
:101B2000EE16FF0644F0EE16FF06D1F489AD9AAD2D
:101B3000681679069CF4A8E6B4E0E0E1F4E088E0F9
:101B400001900D928150E1F7AAE0B4E0F20186E045
:101B500001900D928150E1F77AAE69AEF8AEEFAA2E
:101B60000894C11CD11C93E0C916D10409F063CFBD
:101B70008D819E8101969E838D838D819E8184308F
:101B800091050CF42ECF8B819C8101969C838B83D5
:101B90008B819C81843091050CF418CF89819A81C6
:101BA00001969A83898389819A81843091050CF406
:101BB00004CF2196CEACDFAC219723966EAC7FACE0
:101BC000239725968EAC9FAC25970894C11CD11CF9
:101BD000A3E0CA16D10409F0CBCE53010894A11C8E
:101BE000B11CB3E0AB16B10409F0BBCE0894811C64
:101BF000911CE3E08E16910419F0AA24BB24B1CE07
:101C0000CC5BDF4F0FB6F894DEBF0FBECDBFCF91D8
:101C1000DF911F910F91FF90EF90DF90CF90BF90D9
:101C2000AF909F908F907F906F905F904F903F907C
:101C30002F900895FC0184E0EE0FFF1F8A95E1F7D5
:101C4000EE56FB4F20E030E0819191918617970787
:101C500039F02F5F3F4F28303105B1F72FEF3FEFBD
:101C6000C9010895FC0193E0EE0FFF1F9A95E1F77B
:101C7000E653FC4F20E030E0819191918617970761
:101C800039F02F5F3F4F24303105B1F72FEF3FEF91
:101C9000C90108952091700330917103821B930B49
:101CA0009C0197FF04C022273327281B390B2530BE
:101CB000310534F01816190614F4089701C0089677
:101CC0009C0197FF04C022273327281B390B24309F
:101CD000310549F480911803843118F48CEF9FEF9B
:101CE00002C084E090E04DE250E0849F9001859F27
:101CF000300D949F300D1124C90108952091700377
:101D000030917103BC01621B730BCB0177FF04C0E0
:101D100088279927861B970B8330910529F4CB01DF
:101D20006DEF7FEF0E94975BCB0177FF04C08827A0
:101D30009927861B970B8230910549F480911803EF
:101D4000843118F46EEF7FEF02C062E070E08AE544
:101D500090E0689F9001699F300D789F300D1124AD
:101D6000C9010895AF92BF92CF92DF92EF92FF9296
:101D70000F931F93CF93DF93EC018FEF9FEF90931F
:101D80009E0180939D01D7FF88C080E090E0DC0138
:101D90008093260390932703A0932803B0932903ED
:101DA00080930C0390930D03A0930E03B0930F0345
:101DB0008AE590E0909349038093480380E090E0A7
:101DC00060E070E044E050E022EC30E005E010E03C
:101DD000E3EAEE2EF12CB2E3CB2ED12CAA24BB24C5
:101DE0000E94FD4C109249031092480380E090E05D
:101DF00060E270E046EA5FEF2EE130E00CE810E0D0
:101E00000E94273E80E090E06BE070E04FE050E001
:101E100020E030E008EE13E0A8E2EA2EF12C0E9468
:101E20009D4A80E090E06BE070E04FE050E020E001
:101E300030E00EE010E0CC24DD240E943F4880E03A
:101E400090E06CE070E040E150E020E030E003E43E
:101E500010E00E943F4885E090E06AE570E04AE0CB
:101E600050E023E230E000E010E00E94C33F80EB4E
:101E70009FEF90934903809348038CE090E063E0E8
:101E800070E045E050E023E030E00EE010E0EE24AA
:101E9000FF24F8E2CF2ED12C16C2209709F05AC0A9
:101EA00080E090E00E947E0E9C01B901882777FDBA
:101EB0008095982F0E94355644E650E00E94F243E8
:101EC0008CE090E061E070E045E050E023E030E03D
:101ED00007E110E0EE24FF24E2E3CE2ED12CBCE398
:101EE000AB2EB12C0E94313B8AE090E061E070E0C3
:101EF0004BE250E025E030E0AA24BB240E94313BB5
:101F000089E190E066EA7FEF46EF5FEF2DE230E097
:101F100000E010E00E94C33F80E590E09093490309
:101F2000809348038CE090E066E070E045E050E08C
:101F300023E030E002E110E0A8E2CA2ED12C0E949A
:101F4000313B8AE090E066E070E045E050E025E05B
:101F500030E0A0C0C130D10589F580E090E00E945A
:101F60007E0E9C01B901882777FD8095982F0E94ED
:101F7000355644E650E00E94F24386EA9FEF909384
:101F800049038093480386E190E066EA7FEF40E0F2
:101F900050E02EE130E008E210E00E94C33F1092D2
:101FA00049031092480380E090E06CE070E040E16B
:101FB00050E020E030E00DE210E042C0CE01049796
:101FC0008230910508F083C080E090E00E947E0E90
:101FD0009C01B901882777FD8095982F0E9435567E
:101FE00044E650E00E94F243C430D10519F48AE57A
:101FF00090E002C086EA9FEF9093490380934803E4
:10200000C430D10519F46AE570E002C066EA7FEFDA
:1020100086E190E040E050E02EE130E008E210E0A0
:102020000E94C33F109249031092480380E090E061
:102030006CE070E040E150E020E030E00AE510E0C4
:10204000F8E2EF2EF12CCC24DD240E943F4885E0FD
:1020500090E066EA7FEF46EF5FEF28E230E000E0D5
:1020600010E00E94C33F80E590E090934903809385
:1020700048038CE090E066E070E045E050E023E04B
:1020800030E002E110E0EE24FF24E8E2CE2ED12C75
:10209000AA24BB240E94313B8DE090E066E070E012
:1020A00048EE53E025E030E00E94313B8AE090E0CA
:1020B00066E070E04AE050E025E030E00E94313B0D
:1020C00080E090E06DE070E04AE050E018C1C3307D
:1020D000D10509F05AC080E090E00E947E0E9C017C
:1020E000B901882777FD8095982F0E94355644E6E0
:1020F00050E00E94F2438CE090E068E070E045E040
:1021000050E023E030E000E210E0EE24FF24B2E3F0
:10211000CB2ED12CACE3AA2EB12C0E94313B8AE00D
:1021200090E068E070E04BE250E025E030E0AA2467
:10213000BB240E94313B89E190E06AE570E04AE00F
:1021400050E02DE230E000E010E00E94C33F80EB61
:102150009FEF90934903809348038CE090E063E005
:1021600070E045E050E023E030E00EE010E0F8E2FF
:10217000CF2ED12C0E94313B8AE090E063E070E0EA
:1021800045E050E025E030E09EC0C230D10589F541
:1021900080E090E00E947E0E9C01B901882777FDC7
:1021A0008095982F0E94355644E650E00E94F243F5
:1021B0008AE590E0909349038093480386E190E09C
:1021C0006AE570E040E050E02EE130E008E210E027
:1021D0000E94C33F109249031092480380E090E0B0
:1021E0006CE070E040E150E020E030E00DE210E013
:1021F00040C0C630D1050CF48BC080E090E00E9456
:102200007E0E9C01B901882777FD8095982F0E944A
:10221000355644E650E00E94F243C630D10519F429
:102220008AE590E002C086EA9FEF9093490380938D
:102230004803C630D10519F46AE570E002C066EAC9
:102240007FEF86E190E040E050E02EE130E008E2F0
:1022500010E00E94C33F109249031092480380E0AF
:1022600090E06CE070E040E150E020E030E00AE512
:1022700010E0E8E2EE2EF12CCC24DD240E943F4851
:1022800085E090E06AE570E04AE050E028E230E066
:1022900000E010E00E94C33F80EB9FEF9093490362
:1022A000809348038CE090E063E070E045E050E00C
:1022B00023E030E00EE010E0EE24FF24B8E2CB2E65
:1022C000D12CAA24BB240E94313B8DE090E063E036
:1022D00070E048EE53E025E030E00E94313B8AE0B8
:1022E00090E063E070E04FE050E025E030E00E94D5
:1022F000313B80E090E06DE070E046EF5FEF28E278
:1023000030E00EEC1FEFA4E1EA2EF12C0E945245C2
:1023100080E090E0DC018093260390932703A09354
:102320002803B093290380930C0390930D03A0938B
:102330000E03B0930F038AE590E0909349038093D6
:10234000480380E090E060E070E044E050E022EC80
:1023500030E005E010E0F3EAEF2EF12CE2E3CE2EC0
:10236000D12CAA24BB240E94FD4C10924903109248
:102370004803DF91CF911F910F91FF90EF90DF9075
:10238000CF90BF90AF900895CF92DF92EF92FF92DF
:102390000F931F93DF93CF93CDB7DEB760970FB640
:1023A000F894DEBF0FBECDBF7C01CB01DE011196DC
:1023B000E7EAF1E020E101900D922150E1F7C090B1
:1023C0007003D090710362E070E00E94975B23E09D
:1023D000880F991F2A95E1F7FE013196E80FF91F42
:1023E00024E030E008E010E093E0EE0CFF1C9A954A
:1023F000E1F7819191918C0D9D1DB8010E94975B31
:10240000AC01D701A80FB91FAA0FBB1FAE56BB4F17
:102410008D919C91119797FD02C0CA0103C0215074
:10242000304039F760960FB6F894DEBF0FBECDBFCF
:10243000CF91DF911F910F91FF90EF90DF90CF90A0
:1024400008958F929F92AF92BF92CF92DF92EF92B8
:10245000FF920F931F93CF93DF934C017B01EA010F
:1024600069010E94D8018DB79EB70C970FB6F894FA
:102470009EBF0FBE8DBFEDB7FEB7319605E416E0E7
:10248000ADB7BEB712961C930E93119789E091E0F9
:102490009383828395828482F782E682D187C08784
:1024A000D386C2860E94EB548DB79EB70C960FB6AA
:1024B000F8949EBF0FBE8DBF81E061E0A8010E942D
:1024C0006701C701BE010E941A0E7C0162E070E044
:1024D0000E94975B5C0180917003909171038E154F
:1024E0009F05B9F0C7010E944A0EAC0180E090E060
:1024F00060E070E024E630E008E710E00E94B834C5
:10250000F0927103E0927003A114B10411F40E94DF
:102510002B028114910409F4D2C0A114B10409F072
:1025200068C080E090E0DC0180939A0590939B0561
:10253000A0939C05B0939D0520919A0530919B0531
:1025400040919C0550919D052093960530939705E9
:1025500040939805509399052091960530919705E1
:1025600040919805509199052093920530939305D9
:1025700040939405509395058093A6059093A705E5
:10258000A093A805B093A9058091A6059091A705F1
:10259000A091A805B091A9058093A2059093A305E9
:1025A000A093A405B093A5058AE090E060E070E0F8
:1025B0004AE150E02EE130E00CE810E00E940351C7
:1025C0006091960570919705809198059091990575
:1025D00090580E9402569B01AC0180E090E0B90146
:1025E00040E050E02EE130E00E94B8340E942B021F
:1025F000EBC080E090E0DC0180939A0590939B050E
:10260000A0939C05B0939D0520919A0530919B0560
:1026100040919C0550919D05209396053093970518
:102620004093980550939905209196053091970510
:102630004091980550919905209392053093930508
:1026400040939405509395058093A6059093A70514
:10265000A093A805B093A9058091A6059091A70520
:10266000A091A805B091A9058093A2059093A30518
:10267000A093A405B093A50580E090E060E370E02E
:1026800040E050E028E230E006E910E00E94B83473
:1026900060919605709197058091980590919905A4
:1026A00090580E9402569B01AC0180E090E0B90175
:1026B00040E050E028E230E00E94B83485C0D7FC0A
:1026C00008C0A114B10429F4CE01B6010E941A0E6B
:1026D00007C06091700370917103CE010E94C41114
:1026E0006C01E816F906F1F1A114B104A9F48AE02D
:1026F00090E060E070E049E150E02EE130E008E277
:1027000010E00E940351C6010E944A0EAC0180E015
:1027100090E069E170E014C080E090E064E270E075
:1027200040E050E02EE130E008E210E00E94B834D2
:10273000C6010E944A0EAC0180E090E063E270E0C6
:102740002EE130E008ED1FEFE0E5EE2EF12C0E94C7
:102750005245C0FC02C00E942B02D0927103C0926D
:1027600070032EC0FE01EE0FFF1FE257FD4F808168
:102770009181009759F08AE090E060E070E042E3D8
:1027800050E02EE130E00CE810E016C081E090E06F
:1027900060E070E048EE53E02EE130E008E210E047
:1027A0000E9403518AE090E060E070E04EE050E06B
:1027B0002EE130E008ED1FEF0E9403510E942B0232
:1027C000D0937304C0937204DF91CF911F910F9146
:1027D000FF90EF90DF90CF90BF90AF909F908F9041
:1027E0000895CF92DF92EF92FF920F931F93DF93A2
:1027F000CF93CDB7DEB728970FB6F894DEBF0FBEE4
:10280000CDBFDE011196EFE9F1E028E001900D92D5
:102810002150E1F70091700310917103FE01319690
:1028200029E0E22EF12CEC0EFD1E24E030E06C01DC
:10283000CC0CDD1CCC0CDD1C81919191800F911F83
:10284000B9010E94975BAC01D601A80FB91FAA0F6E
:10285000BB1FA653BC4F8D919C91119797FD02C051
:10286000CA0103C0EE15FF0539F728960FB6F89494
:10287000DEBF0FBECDBFCF91DF911F910F91FF90B3
:10288000EF90DF90CF900895EF92FF920F931F93F8
:10289000CF93DF93EC017B0180E090E060E070E09B
:1028A000AE0197010EE512E00E94560A0E94D8017F
:1028B0008DB79EB708970FB6F8949EBF0FBE8DBF19
:1028C000EDB7FEB7319605E416E0ADB7BEB7129688
:1028D0001C930E93119788E191E093838283D583B3
:1028E000C483F782E6820E94EB548DB79EB70896A8
:1028F0000FB6F8949EBF0FBE8DBF81E061E0A801C6
:102900000E94670180915A0290915B02009749F4FE
:10291000C2E7D3E080E090E031E2E32E32E1F32E33
:102920001DC00E945D2FB59BFECFB599FECFF0CFA5
:10293000699179918C010F5F1F4F48815981215016
:102940003040821793071CF42A813B8102C02FEF8D
:102950003FEF80E090E0F7010995C8012091C203A4
:102960003091C303821793071CF3DF91CF911F911E
:102970000F91FF90EF900895AF92BF92CF92DF92A8
:10298000EF92FF920F931F93CF93DF930E94D80192
:1029900085E496E068E271E00E94E45481E061E041
:1029A00045E456E00E94670180915A0290915B02D3
:1029B000009731F00E945D2FB59BFECFB599FECFF9
:1029C0000E94280780915A0290915B02009731F093
:1029D0000E945D2FB59BFECFB599FECF0E94D80116
:1029E0002DB73EB7285030400FB6F8943EBF0FBE0B
:1029F0002DBFEDB7FEB73196C5E4D6E0ADB7BEB793
:102A00001296DC93CE93119780E391E093838283B7
:102A100080917204909173049583848380917003F4
:102A200090917103978386830E94EB54EDB7FEB7B4
:102A300038960FB6F894FEBF0FBEEDBF81E061E09F
:102A4000AE010E94670106E7C02E02E0D02E1CE016
:102A5000E12EF12CCFEFDFEFBAE0AB2EB12CD60197
:102A60008D919D916D010097F9F440917204509100
:102A7000730480E090E060E070E097010EE512E002
:102A80000E94560A009781F0BFEFCF3FDB0739F075
:102A90008091C2039091C303A816B9062CF0A090B0
:102AA000C203B090C303E7010894E11CF11CE0E10C
:102AB000EE16F104A1F68091720490917304BE01A8
:102AC0000E9444140E945D2F80E090E00E944A0E14
:102AD0009C01B901882777FD8095982F0E94355673
:102AE00044E650E00E94F2431092490310924803DA
:102AF0000E945D2F0E942B02CC30D10509F06AC0E4
:102B000060E070E080EA91EC48E250E00E94F2431D
:102B10008CEE9FEF90934903809348038CE090E004
:102B200064E070E04BEF5FEF23E030E002E110E0A3
:102B3000EE24FF24A2E3CA2ED12CFCE3AF2EB12C4D
:102B40000E94313B8AE090E064E070E04DED5FEF81
:102B500025E030E0AA24BB240E94313B82EE9FEFA7
:102B60006AE570E04AE050E02DE230E000E010E07D
:102B70000E94C33F80E590E090934903809348030F
:102B80008CE090E066E070E045E050E023E030E06B
:102B900002E110E0E8E2CE2ED12C0E94313B8DE024
:102BA00090E066E070E048EE53E025E030E00E94FF
:102BB000313B8AE090E066E070E04FE050E025E0D5
:102BC00030E00E94313B80E090E06AE070E04AE053
:102BD00050E0AAC0CD30D10519F484E190E005C0E1
:102BE000CE30D105C1F58AEE9FEF68EB7FEF40E074
:102BF00050E022E330E000EA10E00E94B83480E0C8
:102C000090E0DC018093260390932703A093280390
:102C1000B093290380930C0390930D03A0930E03AC
:102C2000B0930F038AE590E09093490380934803A3
:102C300080E090E060E070E044E050E022EC30E0C2
:102C400005E010E0B3EAEB2EF12CA2E3CA2ED12C62
:102C5000AA24BB249BC060E070E080EA91E448E2D3
:102C600050E00E94F24384E190E090934903809306
:102C700048038CE090E065E070E04BEF5FEF23E00D
:102C800030E00EE010E0EE24FF24F2E3CF2ED12C52
:102C9000ECE3AE2EB12C0E94313B8AE090E065E07F
:102CA00070E04DED5FEF25E030E0AA24BB240E94E8
:102CB000313B82EE9FEF66EA7FEF46EF5FEF2DE25A
:102CC00030E000E010E00E94C33F80EB9FEF909364
:102CD0004903809348038CE090E063E070E045E0B6
:102CE00050E023E030E00EE010E0B8E2CB2ED12C33
:102CF0000E94313B8DE090E063E070E048EE53E0ED
:102D000025E030E00E94313B8AE090E063E070E033
:102D100041E150E023E030E00E94313B80E090E070
:102D20006AE070E046EF5FEF28E230E00EEC1FEF64
:102D3000AEE1EA2EF12C0E94524580E090E0DC01E9
:102D40008093260390932703A0932803B09329032D
:102D500080930C0390930D03A0930E03B0930F0385
:102D60008AE590E0909349038093480380E090E0E7
:102D700060E070E044E050E022EC30E005E010E07C
:102D8000F3EAEF2EF12CE2E3CE2ED12C0E94FD4C83
:102D900010924903109248038FEF9FEF90939E018A
:102DA00080939D01DF91CF911F910F91FF90EF9044
:102DB000DF90CF90BF90AF9008958F929F92AF9287
:102DC000BF92CF92DF92EF92FF920F931F93CF9318
:102DD000DF934C01EB010E94320E7C018091700365
:102DE000909171038E159F05A1F0C7010E947E0E80
:102DF000AC0180E090E060E070E024E630E008E7BD
:102E000010E00E94B834F0927103E09270030E94C7
:102E10002B02FE01EE0FFF1FE258FD4F80819181D2
:102E2000181619060CF0B6C08BE2A82E82E0B82E58
:102E3000F50109958AE090E060E070E044E150E03F
:102E40002EE130E008E210E00E940351C401BE010F
:102E50000E94320E019664E070E00E94975BFE01D2
:102E6000EE0FFF1FEE0FFF1FE80FF91FEE0FFF1F02
:102E7000E653FC4F8081918197FD03C044EB50E005
:102E800002C04CE45FEF80E090E069E170E02EE189
:102E900030E008ED1FEFBCE3EB2EF12CA2E8CA2EC8
:102EA000D12C0E94C741F501099580E090E0DC013A
:102EB00080939A0590939B05A0939C05B0939D05E4
:102EC00020919A0530919B0540919C0550919D055C
:102ED0002093960530939705409398055093990554
:102EE000209196053091970540919805509199054C
:102EF0002093920530939305409394055093950544
:102F00008093A6059093A705A093A805B093A90563
:102F10008091A6059091A705A091A805B091A9055B
:102F20008093A2059093A305A093A405B093A50553
:102F30008AE090E060E070E047E150E02EE130E0B0
:102F40000CE810E00E94035160919605709197057E
:102F5000809198059091990590580E9402569B0186
:102F6000AC0180E090E0B90140E050E02EE130E0BB
:102F70000E94B834F5010995809170039091710316
:102F8000029664E070E00E94975B909371038093D7
:102F9000700346C0CE010E94F1135C01E816F906E9
:102FA00039F18AE090E060E070E04FE050E02EE11F
:102FB00030E008E210E00E940351C5010E947E0E3D
:102FC000AC0180E090E06EE170E02EE130E008EDD1
:102FD0001FEFF4E6EF2EF12CE8E7CE2ED12C0E9465
:102FE000C7410E942B02B0927103A092700318C0D7
:102FF00081E090E060E070E048EE53E028E230E0ED
:1030000002E310E00E9403518AE090E060E070E08B
:103010004EE050E028E230E00EEC1FEF0E9403513A
:10302000D401AA0FBB1FA258BD4F8D919C9111973F
:1030300090934F0380934E03FE01EE0FFF1FE25863
:10304000FD4F2081318111963C932E939183808393
:10305000D0937304C0937204DF91CF911F910F91AD
:10306000FF90EF90DF90CF90BF90AF909F908F90A8
:103070000895EF92FF920F931F93CF93DF937C01FC
:10308000EB010E945D2F85E690E063E070E00E9416
:10309000B12F009709F461C003E010E080E062E125
:1030A0000E94E3538823D1F30E945D5280E063E1E4
:1030B0000E94E3538823D1F380E090E0FC01EE0FFF
:1030C000FF1F9C0163E0220F331F6A95E1F7E20FB7
:1030D000F31FE354FA4F2081318121153105A1F10D
:1030E000228133812E193F0937FF03C03095219586
:1030F0003F4F2931310544F5FC01EE0FFF1F9C01C4
:1031000043E0220F331F4A95E1F7E20FF31FE35428
:10311000FA4F248135812C1B3D0B37FF03C03095BE
:1031200021953F4F2F3031057CF4FC01EE0FFF1F3E
:1031300023E0880F991F2A95E1F7E80FF91FE35460
:10314000FA4F208131810BC001968930910509F039
:10315000B5CF0150104009F0A1CF20E030E0C90107
:10316000DF91CF911F910F91FF90EF9008954F92B3
:103170005F926F927F928F929F92AF92BF92CF9207
:10318000DF92EF92FF920F931F93CF93DF932C0167
:1031900081E090E090939E0180939D018FEF9FEFDF
:1031A00090937304809372040F2EF0E06F2EF0E082
:1031B0007F2EF0E08F2EF0E09F2EF02D6092260300
:1031C00070922703809228039092290360920C0347
:1031D00070920D0380920E0390920F03CAE5D0E027
:1031E000D0934903C093480380E090E060E070E032
:1031F00044E050E022EC30E005E010E0E3EAEE2E9F
:10320000F12CB2E3CB2ED12CAA24BB240E94FD4C7E
:10321000109249031092480380E090E068EE73E05A
:1032200040E050E020E030E002E310E0ACE3EA2EC2
:10323000F12C0E949B38D0934903C093480386E148
:1032400090E066EA7FEF4FE050E02DE230E000E0F2
:1032500010E00E94C33F8FE090E090934903809379
:10326000480384E090E06CE070E04EE050E020E045
:1032700030E00AEB1FEFF2E3EF2EF12CCC24DD243B
:103280000E943F4884E090E06CE070E04EE050E047
:1032900024E130E008E11CEF0E943F4880E090E02C
:1032A00064EF7FEF41EF5FEF22E330E004EC1FEFCC
:1032B000E4E1EE2EF12C0E945245609226037092BA
:1032C0002703809228039092290360920C03709246
:1032D0000D0380920E0390920F03D0934903C09385
:1032E000480380E090E060E070E044E050E022ECD1
:1032F00030E005E010E0B3EAEB2EF12CA2E3CA2E99
:10330000D12C0E94FD4C10924903109248034114A5
:10331000510451F08BED90E062E670E00E943918A4
:10332000909385028093840280E090E06AE170E0EF
:1033300042E350E029E130E003E210E00E94273E42
:1033400082E390E090934903809348038FE090E0FC
:1033500066EA7FEF48E250E029E130E000E010E06B
:103360000E94C33F109249031092480380E090E00E
:1033700061EF7FEF40E050E02EE130E008ED1FEF1D
:103380000E94B8340F2EF0E06F2EF0E07F2EF0E0B8
:103390008F2EF0E09F2EF02D60922603709227036F
:1033A000809228039092290360920C0370920D037F
:1033B00080920E0390920F03CAE5D0E0D0934903A8
:1033C000C093480380E090E060E070E044E050E0AB
:1033D00022EC30E005E010E0F3EAEF2EF12CE2E31E
:1033E000CE2ED12CAA24BB240E94FD4C109249035E
:1033F000109248034114510409F4A0C060E070E049
:1034000080E291EC44E150E00E94F24382E790E0D8
:103410006BE170E00E94391890937F0280937E02E6
:1034200080E890E062E370E00E9439189093810296
:10343000809380028FEA90E061E770E00E94391883
:10344000909383028093820260E070E080EA91E4CE
:1034500044E150E00E94F24382E890E06BE170E0CA
:103460000E943918909387028093860281E790E04A
:1034700063E370E00E943918909389028093880278
:1034800087E490E062E770E00E94391890938B0225
:1034900080938A0260E070E080E291EC44E150E0C9
:1034A0000E94F2430E945D2F80E090E062E070E0B5
:1034B00040E050E02AE030E008E710E00E94B83435
:1034C000609226037092270380922803909229032A
:1034D00060920C0370920D0380920E0390920F0382
:1034E000D0934903C093480380E090E060E070E02F
:1034F00044E050E022EC30E005E010E00E94FD4C9A
:1035000010924903109248038091E2029091E302E5
:10351000EEE7F2E021913191820F931F22E0EC3827
:10352000F207C1F78093E2029093E3022CE030E0CF
:10353000281B390B30938D0220938C020E945D2F43
:10354000DF91CF911F910F91FF90EF90DF90CF907F
:10355000BF90AF909F908F907F906F905F904F90B3
:1035600008952F923F924F925F926F927F928F9227
:103570009F92AF92BF92CF92DF92EF92FF920F9302
:103580001F93DF93CF93CDB7DEB760970FB6F89454
:10359000DEBF0FBECDBF0E94E7008EE161E00E945A
:1035A000B1008EE165E00E94B1008EE164E10E940D
:1035B000B1008EE160E10E94B1000E94C9538BE02E
:1035C0000E94015482E30E949F2F80E063E10E94E9
:1035D000E3538823D1F30FEF1FE726E1015010409A
:1035E0002040E1F700C0000080E090E0DC01809323
:1035F0009A0590939B05A0939C05B0939D052091FF
:103600009A0530919B0540919C0550919D05209312
:10361000960530939705409398055093990520910E
:103620009605309197054091980550919905209302
:10363000920530939305409394055093950580939C
:10364000A6059093A705A093A805B093A90580911E
:10365000A6059091A705A091A805B091A905809312
:10366000A2059093A305A093A405B093A505C39AC2
:103670002FEF3FE744E0215030404040E1F700C0E9
:103680000000C3980F2EF0E04F2EF0E05F2EF0E028
:103690006F2EF0E07F2EF02DF5E48F2EF6E09F2EBA
:1036A000B49914C080915A0290915B020197909353
:1036B0005B0280935A02C39A4FEF5FE764E0415088
:1036C00050406040E1F700C00000C398B69914C0B4
:1036D00080915A0290915B02019690935B028093D5
:1036E0005A02C39A6FEF7FE784E0615070408040D8
:1036F000E1F700C00000C398B5995DC60E94D801EB
:10370000C39A8FEF9FE7A4E081509040A040E1F77B
:1037100000C00000C39880915A0290915B0297FD0F
:103720004AC6823091052CF08230910509F043C6DB
:10373000ADC14092260350922703609228037092F5
:10374000290340920C0350920D0360920E03709275
:103750000F03AAE5B0E0B0934903A093480380E0CB
:1037600090E060E070E044E050E022EC30E005E002
:1037700010E0E3EAEE2EF12CB2E3CB2ED12CAA24FA
:10378000BB240E94FD4C109249031092480381E330
:1037900090E069E570E00E94391890937902809377
:1037A000780287ED90E067E570E00E943918909309
:1037B0007B0280937A020E945D2F60E070E080E2DD
:1037C00092EC4CE350E00E94F2438BE890E061E31E
:1037D00070E00E94391890937D0280937C0260E033
:1037E00070E080EA92E44CE350E00E94F24388E209
:1037F00090E0909349038093480385E690E062E36C
:1038000070E00E943918909377028093760285EBDE
:103810009FEF6AE070E048ED5FEF22E330E000EAFE
:1038200010E0A8E2EA2EF12C0E94524510924903C2
:103830001092480340922603509227036092280377
:103840007092290340920C0350920D0360920E0374
:1038500070920F0380E090E060E070E041E050E0A3
:1038600028EA30E003E010E0F4E8EF2EF12CE4E188
:10387000CE2ED12C0E94FD4CEAE5F0E0F0934903F6
:10388000E09348038EE190E06AE570E040E050E0AC
:103890002DE230E007E310E00E94C33F109249039D
:1038A0001092480380E090E06CE070E040E150E06E
:1038B00020E030E00CE310E0B2E3EB2EF12CCC245E
:1038C000DD240E943F4880E090E06CE070E040E141
:1038D00050E020E030E002E310E00E943F48EE2498
:1038E000EA94FE2CF0925103E09250038091F8028A
:1038F0009091F9028130910519F488E090E009C0B7
:103900008091F8029091F9028230910531F489E0BA
:1039100090E0909351038093500380E090E060E04A
:1039200070E048EE53E020E030E002E310E0EE24E7
:10393000FF240E949B388EE090E06AE570E040E052
:1039400050E02DE230E000E010E00E94C33F82EF43
:103950009FEF60E070E040E050E028E230E00EECE5
:103960001FEF0E94B83440922603509227036092C2
:1039700028037092290340920C0350920D03609229
:103980000E0370920F0380E090E060E070E041E091
:1039900050E028EA30E003E010E0A4E8EA2EF12C41
:1039A000FEE1CF2ED12CAA24BB240E94FD4C80E046
:1039B00090E064E670E040E050E020E030E00AE0B3
:1039C00010E0E8E7EE2EF12C0E949B388CE790E0A7
:1039D00068E870E00E94391890938F0280938E02FD
:1039E00060E070E084EB92EC44E650E00E94F24329
:1039F0000E945D2F40922603509227036092280375
:103A00007092290340920C0350920D0360920E03B2
:103A100070920F030AE510E01093490300934803E6
:103A200080E090E060E070E044E050E022EC30E0C4
:103A300005E010E0B3EAEB2EF12CA2E3CA2ED12C64
:103A40000E94FD4C10924903109248030E942B02E1
:103A50008CE790E068E870E00E9439189093990232
:103A60008093980280E890E065E370E00E94391846
:103A700090939B0280939A0283E890E069E170E062
:103A80000E94391890939D0280939C028EEC9FEFC8
:103A900060E070E040E050E028E230E006E910E04D
:103AA0000E94B83440922603509227036092280364
:103AB0007092290340920C0350920D0360920E0302
:103AC00070920F032AE530E03093490320934803B6
:103AD00082E090E066ED70E044E050E022EC30E0FF
:103AE00005E010E0F3EAEF2EF12CE2E3CE2ED12C2C
:103AF000BEE1AB2EB12C0E94FD4C109249031092F6
:103B0000480380E090E064E670E040E050E020E0B0
:103B100030E00AE010E0A8E7EA2EF12C0E949B3882
:103B20000E945D2F8CE790E068E870E00E943918F1
:103B3000909391028093900280E890E065E370E0BA
:103B40000E943918909393028093920283E890E048
:103B500069E170E00E943918909395028093940275
:103B60004AE550E0509349034093480380E190E0D8
:103B70006AE570E040E050E028E230E002E310E067
:103B80000E94C33F10924903109248038CE090E0DA
:103B900061E070E045E050E023E030E00EE110E04D
:103BA000EE24FF24AA24BB240E94313B8AE090E04B
:103BB00061E070E048E250E025E030E00E94313BF7
:103BC0008DE090E061E070E048EE53E025E030E009
:103BD0000E94313B87E290E066EA7FEF46E450E0E6
:103BE0002DE230E000E010E00E94C33F8CEE9FEF3A
:103BF000909349038093480380E090E06CEE7FEF60
:103C000040E050E022E330E00E94B83485E090E0EC
:103C10006CE070E040E150E020E030E004EC1FEFA9
:103C2000F2E3EF2EF12CCC24DD240E943F4880915A
:103C3000F8029091F9028130910549F48091500386
:103C40009091510397FF03C08AE090E00FC08091EC
:103C5000F8029091F9028230910561F4809150034D
:103C60009091510397FF06C08BE090E09093510331
:103C70008093500380E090E064EC7FEF40E050E000
:103C800022E330E000E010E00E94B8348CEE9FEFB9
:103C900066EA7FEF46EF5FEF2DE230E00E94C33F20
:103CA0008CE390E090934903809348038CE090E08C
:103CB00064E070E04BEF5FEF23E030E00EE010E0F7
:103CC000EE24FF24E8E2CE2ED12CAA24BB240E94AD
:103CD000313B8DE090E064E070E048E15CEF23E090
:103CE00030E0B4E1EB2EF12C0E94313B8AE090E011
:103CF00064E070E048EF5FEF25E030E0EE24FF2461
:103D00000E94313B80E090E066EF7FEF4EE150E0B3
:103D100028E230E00EEC1FEFA8E2EA2EF12C0E9420
:103D200052454092260350922703609228037092D6
:103D3000290340920C0350920D0360920E0370927F
:103D40000F036AE570E0709349036093480380E0D5
:103D500090E060E070E044E050E022EC30E005E00C
:103D600010E0F3EAEF2EF12CE2E3CE2ED12C0E94EC
:103D7000FD4C10924903109248030E945D2F8091E0
:103D8000E4029091E5020EE812E0F80121913191F0
:103D9000820F931F72E0EE3AF707C1F79093E502A6
:103DA0008093E40226E030E0281B390B3093970221
:103DB00020939602E0915003F0915103EE0FFF1F04
:103DC000E25AFD4F84E090E0918380830E942807AF
:103DD0000E945D2F80915A0290915B02009731F012
:103DE0000E945D2FB59BFECFB599FECF81E090E09C
:103DF0000E94B7180E94C20780915A0290915B02FC
:103E0000009741F42EE5E22E22E0F22E80E090E0D1
:103E10006C0107C00E945D2FB59BFECFB599FECF08
:103E2000F1CFC6010E940306D801ED91FD918D01ED
:103E3000309731F0EE0FFF1FE051FD4FD182C0826D
:103E4000D701ED91FD917D01309731F0EE0FFF1F0D
:103E5000E851FD4FD182C0820894C11CD11CB0E151
:103E6000CB16D104F1F68EE792E000E010E07C0181
:103E7000C8010E94A706F70180819181009759F43B
:103E80008091E0029091E102918380830197909369
:103E9000E1028093E0020F5F1F4F22E030E0E20E6C
:103EA000F31E0830110521F70E948B0C4AE054E004
:103EB0005C834B83AB81BC81AD90BD90BC83AB83F5
:103EC000B1E0AB16B10441F481E090E06EE772E03E
:103ED0000E94320BBC0102C06FEF7FEF7501EE0C48
:103EE000FF1CF701E851FD4F40815181F701E0517E
:103EF000FD4F20813181C5010EE512E00E94560A76
:103F0000E4E1F0E0AE9EA001AF9E500DBE9E500DCC
:103F100011244E585C4F80E090E087010E531C4FF7
:103F20001A8709875C874B875E874D8749C1009751
:103F300031F0ED85FE8532970081118102C00FEFCF
:103F40001FEFAD85BE85CD90DC901197FC013196B9
:103F5000F887EF8312962D903C90139722503040B3
:103F60008217930739F01496ED90FC901597FA821A
:103F7000E98204C02FEF3FEF3A832983C601B101E4
:103F80000E94B3089E838D83C801089784309105F1
:103F9000A0F403701070809150039091510364E07D
:103FA00070E00E94975B21E030E00817190714F4D5
:103FB00020E030E0021B130B02C00FEF1FEFC60121
:103FC000089784309105A0F48601037010708091E9
:103FD00050039091510364E070E00E94975B21E0F0
:103FE00030E00817190714F420E030E0021B130B2F
:103FF000C101089784309105A0F48101037010700D
:10400000809150039091510364E070E00E94975BAF
:1040100021E030E00817190714F420E030E0021B1B
:10402000130B3FEF0F3F130741F0C5016EE772E03E
:104030000E94320B8017910759F4C5016EE772E0B8
:104040000E94590B4D815E814817590709F449C0F8
:10405000C501B8014D815E810E946E0B8091700494
:10406000909171040097E9F180919D0190919E01DA
:10407000009711F40E94BC1480919D0190919E01C3
:104080008130910521F080E090E00E94B718809186
:104090005203909153030E94750202E513E0EE244F
:1040A000FF248D859E8598018C0112C0D9018D91C8
:1040B0009D919D010894E11CF11C6D917C911197DB
:1040C000AF87388B0E94DD160E94C20738892F8582
:1040D0008091700490917104E816F9063CF31E87F4
:1040E0000D8780919D0190919E01009779F081301C
:1040F000910531F480917204909173040E94B20E84
:10410000EB85FC85808191810E94B70480917204C7
:10411000909173048C159D0519F0B6010E9444140A
:10412000E980FA80F7FC0EC0C101B7010E94B30814
:1041300021E030E00D811E818017910729F420E0F5
:1041400030E002C021E030E06091720470917304AD
:10415000C901A10129813A810E942112AD85BE8544
:104160004D915D91BE87AD87440F551F425A5D4FFB
:10417000FA018081918190934F0380934E03ED91DA
:10418000FC91EE0FFF1FE25AFD4F20813181DA01D1
:104190002D933C93918380830E94280780915A023B
:1041A00090915B02009751F00E945D2F8D859E8556
:1041B000B59BFECFB599FECF9E878D878F81988561
:1041C000E985FA8520813181A90141505040841749
:1041D00095070CF4ACCE0B811C8124E00031120752
:1041E00009F068CE80915A0290915B02009731F0FD
:1041F0000E945D2FB59BFECFB599FECF0E94C40BE8
:104200000E94C20780917004909171040097D9F1C7
:1042100080919D0190919E01009711F40E94BC1421
:1042200080919D0190919E013FEF8F3F930721F474
:1042300080E090E00E94B718809152039091530360
:104240000E94750282E593E000E010E07C010CC062
:10425000D7018D919D917D010F5F1F4F6D917C91D5
:104260000E94DD160E94C207E0917004F091710473
:104270000E171F076CF3EE0FFF1FEE5AFC4F8081E5
:1042800091810E94B20EAA24BB2474C0F101419115
:1042900051911F0189819A81880F991F29813A8143
:1042A00073E0220F331F7A95E1F7820F931F840F7B
:1042B000951FFC01EE0FFF1FE059FC4FE080F180DD
:1042C000FC01EE0FFF1FEE58FC4FC080D180F601BD
:1042D000EE0FFF1FE25AFD4F808191810097C1F5DB
:1042E00080919D0190919E01009729F0D8018D91B8
:1042F0009C910E94B70480917204909173048E1572
:104300009F0519F0B7010E9444140E942807D701A5
:10431000AA0FBB1FA25ABD4F8D919C9111979093EC
:104320004F0380934E03F601EE0FFF1FE25AFD4F3D
:10433000208131812D933C93918380830E942807B3
:1043400081E090E0B701A6012FEF3FEF0E9421121C
:10435000E981FA813196FA83E9830C5E1F4FE430DC
:10436000F10509F093CF0894A11CB11CF3E0AF163E
:10437000B10471F074EC272E73E0372E66E8C62E78
:1043800063E0D62E81E090E09A83898386017ECF18
:104390000E94BC140E945D2FC39A0FEF1FEF29E506
:1043A000015010402040E1F700C00000C398B599CB
:1043B000FECFB59BFECF80915A0290915B02009791
:1043C00009F445C04091180330911703209116035A
:1043D00090911E0380911D036DB77EB76E507040A3
:1043E0000FB6F8947EBF0FBE6DBFEDB7FEB7319626
:1043F000ADB7BEB712969C928E9211975AE3E52EF6
:1044000051E0F52EF382E2824483158236831782CF
:104410002087118692871386848715860E94EB5425
:104420000DB71EB7025F1F4F0FB6F8941EBF0FBE29
:104430000DBF80E060E0A4010E9467013091190384
:1044400020911A0390911B0380911C0344C040915A
:104450002C0330912B0320912A03909132038091F9
:1044600031036DB77EB76E5070400FB6F8947EBFC3
:104470000FBE6DBFEDB7FEB73196ADB7BEB71296A2
:104480009C928E9211970AE3E02E01E0F02EF382C7
:10449000E2824483158236831782208711869287B1
:1044A0001386848715860E94EB540DB71EB7025FF2
:1044B0001F4F0FB6F8941EBF0FBE0DBF80E060E027
:1044C000A4010E94670130912D0320912E03909149
:1044D0002F03809130034DB75EB74C5050400FB65C
:1044E000F8945EBF0FBE4DBFEDB7FEB73196ADB7C6
:1044F000BEB712969C928E92119713E5E12E11E0B1
:10450000F12EF382E282348315822683178290870C
:104510001186828713860E94EB540DB71EB7045F85
:104520001F4F0FB6F8941EBF0FBE0DBF81E060E0B5
:10453000A4010E94670180915A0290915B0297FF4B
:1045400003C0909581959F4F69E070E00E94975B52
:1045500090935D0280935C020E94052780915C022B
:1045600066E60E94E353C82E80915C0267E60E94D3
:10457000E353E82E00915C02A0905D02802F68E674
:104580000E94E3532DB73EB72C5030400FB6F8943D
:104590003EBF0FBE2DBFEDB7FEB73196ADB7BEB76C
:1045A00012969C928E9211972BE631E033832283F0
:1045B0000483A582C6821782E086118682871386CD
:1045C0000E94EB544DB75EB7445F5F4F0FB6F8944F
:1045D0005EBF0FBE4DBF82E060E0A4010E94670194
:1045E0002091B3053091B4054091B5055091B605C1
:1045F000E091B105F091B205A0906B06B0906C0609
:1046000020903F06309040066091BB057091BC053C
:104610007A836983C090AF05D090B0056091A20500
:104620007091A3058091A4059091A505ADB7BEB783
:1046300054970FB6F894BEBF0FBEADBF0DB71EB7EF
:104640000F5F1F4F12969C928E921197BEE7EB2E32
:10465000B1E0FB2ED8011396FC92EE9212971596BC
:104660003C932E93149717965C934E931697199636
:10467000FC93EE9318971B96BC92AE921A971D96D8
:104680003C922E921C9729813A811F963C932E933F
:104690001E975196DC92CE9250970E940256D801F6
:1046A00053967C936E9352970E94EB54EDB7FEB7EE
:1046B00074960FB6F894FEBF0FBEEDBF83E060E0C6
:1046C000A4010E94670100D000D000D0EDB7FEB772
:1046D0003196ADB7BEB712969C928E921197A4E90F
:1046E000EA2EA1E0FA2EF382E28280915A029091A2
:1046F0005B02958384830E94EB540DB71EB70A5F5B
:104700001F4F0FB6F8941EBF0FBE0DBF83E060E1D0
:10471000A4010E9467010C94501B90E0FC01B0962C
:10472000FE2FEE2720812093AA0520FDFBCF88963F
:10473000B82FAA278C9190819093AA0590FDFBCF6A
:10474000089590E08096F82FEE2780818093AA0547
:1047500080FDFBCF608380818093AA0580FDFBCF25
:10476000089580E061E00E94A12382E061E00E9460
:10477000A12381E061E00E94A1230895A82FB0E069
:10478000FD01B096FE2FEE2780818093AA0580FD63
:10479000FBCF9896BA2FAA27872F992787FD9A953E
:1047A0008C9380818093AA0580FDFBCF6C938081E0
:1047B0008093AA0580FDFBCF08951F93CF93DF93CD
:1047C000182F80E06FE10E94A123C1E0D0E002C079
:1047D000CC0FDD1F1A95E2F780E0BE010E94BE23D8
:1047E00081E06FE10E94A12381E0BE010E94BE230F
:1047F00082E06FE10E94A12382E0BE010E94BE23FD
:1048000080E061E00E94A12382E061E00E94A12398
:1048100081E061E00E94A123DF91CF911F91089573
:10482000DF92EF92FF920F931F93D82E7A018B01A4
:104830009B01552737FD5095452FB9010E94BE2396
:104840008D2DB7010E94BE231F910F91FF90EF9015
:10485000DF9008951F93182F60E00E94A1238CEC35
:104860009CE10197F1F700C00000812F6DE10E94EB
:10487000A123812F60E070E00E94BE231F91089564
:10488000AF92BF92CF92DF92EF92FF920F931F935E
:10489000CF93DF93F82E6B01EA018901AA24A39438
:1048A0006115710509F4AA24BB24B394209709F477
:1048B000BB24EE24E3940115110509F4EE248F2D99
:1048C0006EE10E94A1236B2D70E0660F771F660FCB
:1048D000771F8A2D90E043E0880F991F4A95E1F7F2
:1048E000682B792B8E2D90E0880F991F682B792BE0
:1048F0008F2D0E94BE23AA2021F08F2DB6010E9489
:10490000BE23BB2021F08F2DBE010E94BE23EE20CE
:1049100021F08F2DB8010E94BE238F2D64E00E94EC
:10492000A123DF91CF911F910F91FF90EF90DF9026
:10493000CF90BF90AF9008958F929F92AF92BF9209
:10494000CF92DF92EF92FF920F931F93CF93DF935B
:10495000F82E4B016A01E901AA24A394611571059F
:1049600009F4AA24BB24B394C114D10409F4BB24D0
:10497000EE24E394209709F4EE248F2D6EE10E943B
:10498000A1236A2D70E0A3E0660F771FAA95E1F7D7
:1049900061608B2D90E0880F991F880F991F682BFD
:1049A000792B8E2D90E0880F991F682B792B8F2DF6
:1049B0000E94BE23AA2021F08F2DB4010E94BE23A5
:1049C000BB2021F08F2DB6010E94BE23EE2021F0E6
:1049D0008F2DBE010E94BE238F2DB8010E94BE23E1
:1049E0008F2D64E00E94A123DF91CF911F910F9141
:1049F000FF90EF90DF90CF90BF90AF909F908F90FF
:104A00000895DF92EF92FF920F931F93D82E7A01B1
:104A10008B016FE10E94A1238D2D60E270E00E9466
:104A2000BE238D2DB801A7010E9410241F910F9164
:104A3000FF90EF90DF90089580E060E170E040E04B
:104A400050E020E430E00E94402481E060E170E02A
:104A500040E050E020E430E00E94402482E060E149
:104A600070E040E050E020E430E00E94402480E02C
:104A70004FEF5FEF6FEF7FE30E94012581E04FEF83
:104A80005FEF6FEF7FE30E94012582E04FEF5FEF62
:104A90006FEF7FE30E9401250895DF92EF92FF926E
:104AA0000F931F93DF93CF930F92CDB7DEB7D82E1E
:104AB0007A018B0177FF0AC010950095F094E0947D
:104AC000E11CF11C011D111D90E001C091E08D2D34
:104AD0006FE199830E94A1239981792F7295707F4C
:104AE00060E0686078608D2D0E94BE238D2DB80136
:104AF000A7010E9410240F90CF91DF911F910F9179
:104B0000FF90EF90DF900895AF92BF92CF92DF9227
:104B1000EF92FF920F931F93DF93CF93CDB7DEB742
:104B20002C970FB6F894DEBF0FBECDBF59016A01B6
:104B30000E94355669837A838B839C83C601B501B5
:104B40000E9435566D837E838F839887C801B70195
:104B50000E94355669877A878B879C878E010F5F05
:104B60001F4FEE24F801608171818281938121E7DA
:104B70003CEA4BE85EE30E94F9579B01AC01F80167
:104B800021933193419351938F0120E030E040E82D
:104B900057E40E94F9570E940256AB01BC018E2DCA
:104BA0000E944D25E394FE2DF330E1F60E94B123DF
:104BB0002C960FB6F894DEBF0FBECDBFCF91DF911C
:104BC0001F910F91FF90EF90DF90CF90BF90AF902B
:104BD00008954F925F926F927F928F929F92AF92C1
:104BE000BF92CF92DF92EF92FF920F931F93982E76
:104BF000862E29013A016FE10E94A123682D70E001
:104C00006A62892D0E94BE23892DB301A2010E94F0
:104C10001024892DB801A7010E941024892DB60106
:104C2000A5010E9410241F910F91FF90EF90DF903B
:104C3000CF90BF90AF909F908F907F906F905F903C
:104C40004F9008959F92AF92BF92CF92DF92EF92D2
:104C5000FF920F931F93DF93CF9300D00F92CDB7A6
:104C6000DEB71ABA15BA8FEF84BB1092650083E0E5
:104C70008093640010E8A12EB4E8BB2E6E01089466
:104C8000C11CD11C85B3856085BB83E39BE2019782
:104C9000F1F785B38A7F85BBECECFCE13197F1F746
:104CA00000C00000809165008D7F80936500AB9807
:104CB00085B3887F85BB99B39983A89A19B385B3C7
:104CC000887F826085BB09B3943C09F494C0943812
:104CD00009F491C015BA80E060E047EB51E00E9412
:104CE000670181E060E04DEB51E00E946701143CF8
:104CF00009F481C0143809F47EC015BA80E060E080
:104D000047EB51E00E94670182E060E04DEC51E02A
:104D10000E946701043C09F46EC0043809F46BC0BA
:104D200015BA80E060E047EB51E00E94670183E044
:104D300060E04DED51E029C09E2C9C18892D6DE15D
:104D40000E94A123892D60E070E00E94BE23F8013B
:104D50008081F70181937F0100501F4FF3E2003003
:104D60001F0751F78981803C99F0803889F085B719
:104D70008F7385BF15BA80E060E04DEE51E00E9470
:104D8000670181E060E04DEB51E00E9467017ACF5E
:104D900080E060E043EF51E00E94670180E098B35B
:104DA000976098BB2FEF3FEB46E0215030404040EA
:104DB000E1F700C0000098B3987F98BB2FEF3FEB5E
:104DC00046E0215030404040E1F700C000008F5FD6
:104DD000833029F70E94D8010F900F900F90CF9148
:104DE000DF911F910F91FF90EF90DF90CF90BF90D8
:104DF000AF909F900895A5BE82E080936D00B09221
:104E00006C00760100E010E297CF4F925F926F92B4
:104E10007F928F929F92AF92BF92CF92DF92EF924A
:104E2000FF920F931F93CF93DF9304E6802E912C74
:104E300084E00E947600982F80E0EC0185E00E94DB
:104E4000760090E08C2B9D2BB4010E94975B882705
:104E500077FD8095982F0E943556F62E072F182F34
:104E6000E92E462E572E682E792E63015201E894C2
:104E7000D7F8C601B50120E030E044E353E40E94D6
:104E80005E571816ACF260919E0570919F05809157
:104E9000A0059091A1052F2D302F412F5E2D0E944E
:104EA0009355882309F4E5C06F2D702F812F9E2D17
:104EB00020E030E0A9010E94935587FF5DC060911A
:104EC0009E0570919F058091A0059091A10520E01D
:104ED00030E0A9010E945E5718160CF04DC02091D9
:104EE0009E0530919F054091A0055091A1055F77E7
:104EF000C601B5010E941C5520E030E044E353E4B4
:104F00000E94935587FF15C0A090A205B090A305FD
:104F1000C090A405D090A50520919E0530919F05D5
:104F20004091A0055091A1056F2D702F812F9E2DCE
:104F30001CC0A090A205B090A305C090A405D0907D
:104F4000A50560919E0570919F058091A0059091A7
:104F5000A1052F2D302F412F5E2D0E941B559B0147
:104F6000AC0160E070E084EB93E40E941B559B0170
:104F7000AC01C601B50169C0C301B20120E030E057
:104F8000A9010E945E5718160CF047C060919E055B
:104F900070919F058091A0059091A10520E030E0DF
:104FA000A9010E94935587FF38C020919E0530913A
:104FB0009F054091A0055091A1055F77C601B501FD
:104FC0000E941C5520E030E044E353E40E949355D6
:104FD00087FD23C0E090A205F090A3050091A405F1
:104FE0001091A50520919E0530919F054091A00547
:104FF0005091A105C301B2010E941B559B01AC0158
:1050000060E070E084EB93E40E941B559B01AC01CF
:10501000C801B7010E941B551AC0E090A205F0908C
:10502000A3050091A4051091A50520919E0530913E
:105030009F054091A0055091A105C301B2010E94B6
:105040001B559B01AC01C801B7010E941C559B0177
:10505000AC012093A2053093A3054093A40550937F
:10506000A50540929E0550929F056092A005709202
:10507000A105DF91CF911F910F91FF90EF90DF90ED
:10508000CF90BF90AF909F908F907F906F905F90E8
:105090004F9008952F923F924F925F926F927F921E
:1050A0008F929F92AF92BF92CF92DF92EF92FF9238
:1050B0000F931F93DF93CF93CDB7DEB762970FB6F1
:1050C000F894DEBF0FBECDBF69837A838B839C8348
:1050D0002D833E834F8358873701480160E070E09D
:1050E00084E394E4A60195010E941B55162F072F17
:1050F000F82EE92E8D819E81AF81B8858093AB0516
:105100009093AC05A093AD05B093AE0589819A81CB
:10511000AB81BC818093410690934206A0934306E5
:10512000B0934406A092B705B092B805C092B905F5
:10513000D092BA05C601B50120E030E044E353E463
:105140000E949355181684F0A8019701652F742FBB
:10515000832F922F20E030E044EB53E40E941B5554
:10516000162F072FF82EE92EA8019701652F702F13
:10517000832F9E2D20E030E044EB52E40E941B552B
:1051800069877A878B879C87C401B30123EF36E652
:105190004FE55EE30E94F9576D877E878F87988B76
:1051A00080E090E036E9432E512C28E6222E21E0C3
:1051B000322E9A8B898BB201882777FD8095982FA4
:1051C0000E9435565B016C01C20188589F4FB101A6
:1051D0000E94975B2C01C601B501D801F7012B2F66
:1051E000302F4F2F5E2D0E941B5525E33AEF4EE8DE
:1051F0005CE30E94F9570E9497553B014C01C601A0
:10520000B501B985AA85AB84DC842B2F3A2F4A2DB2
:105210005D2D0E941B5525E33AEF4EE85CE30E94AA
:10522000F9570E9497555B016C016D817E818F81DA
:105230009885A40193010E94F9573B014C016981B3
:105240007A818B819C81A60195010E94F9579B016F
:10525000AC01C401B3010E941C55BD85AE85DF843D
:10526000A8882B2F3A2F4D2D5A2D0E941B552FE623
:1052700032E143E856E40E94F95723E333E343E283
:1052800050EC0E94F9570E940256AB01BC0189897B
:105290000E944D25A989BA891196BA8BA98BA33092
:1052A000B10509F088CF0E94B1230E9405276296BC
:1052B0000FB6F894DEBF0FBECDBFCF91DF911F9127
:1052C0000F91FF90EF90DF90CF90BF90AF909F90A5
:1052D0008F907F906F905F904F903F902F900895A8
:1052E0002F923F924F925F926F927F928F929F92F6
:1052F000AF92BF92CF92DF92EF92FF920F931F93E4
:10530000DF93CF93CDB7DEB72C970FB6F894DEBFFF
:105310000FBECDBF5B016C0139014A0117012801A5
:105320006091A2057091A3058091A4059091A505B7
:105330002091A6053091A7054091A8055091A90597
:10534000E090A205F090A3050091A4051091A50599
:10535000E092A605F092A7050093A8051093A90571
:10536000E0909A05F0909B0500919C0510919D0599
:105370000E941B559B01AC01C801B7010E941B553F
:105380009B01AC0120939A0530939B0540939C05AB
:1053900050939D05C601B50120E030E0A9010E94AF
:1053A0009355882351F4C401B30120E030E0A901F2
:1053B0000E949355882309F4D2C0C601B50120E0AC
:1053C00030E048EC52E40E949A5569837A838B83DB
:1053D0009C83C401B30120E030E048EC52E40E9419
:1053E0009A556D837E838F83988760919A0570911B
:1053F0009B0580919C0590919D05A20191010E94C1
:105400001B55F62E072F182FE92E809192059091AB
:105410009305A0919405B091950589879A87AB87EC
:10542000BC876F2D702F812F9E2D25E33AEF4EE81C
:105430005CE30E94F9570E9497553B014C016F2D88
:10544000702F812F9E2D20E030E044EB52E40E942B
:105450001C5525E33AEF4EE85CE30E94F9570E94A1
:1054600097555B016C0159814A813B812C81652FE5
:10547000742F832F922FA40193010E94F9571B01CF
:105480002C015D814E813F812885652F742F832FEC
:10549000922FA60195010E94F9579B01AC01C20110
:1054A000B1010E941C559B01AC0169857A858B85F1
:1054B0009C850E941C559B01AC0120939205309362
:1054C0009305409394055093950520909605309050
:1054D000970540909805509099056F2D702F812F5A
:1054E0009E2D20E030E044EB52E40E941B5525E362
:1054F0003AEF4EE85CE30E94F9570E9497557B0112
:105500008C015D814E813F812885652F742F832F0B
:10551000922FA40193010E94F9575B016C015981FC
:105520004A813B812C81652F742F832F922FA801F4
:1055300097010E94F9579B01AC01C601B5010E9479
:105540001C559B01AC01C201B1010E941C559B017D
:10555000AC01E2E9F5E024833583468357832C963A
:105560000FB6F894DEBF0FBECDBFCF91DF911F9174
:105570000F91FF90EF90DF90CF90BF90AF909F90F2
:105580008F907F906F905F904F903F902F900895F5
:105590002F923F924F925F926F927F928F929F9243
:1055A000AF92BF92CF92DF92EF92FF920F931F9331
:1055B000DF93CF93CDB7DEB72E970FB6F894DEBF4B
:1055C0000FBECDBF180187019A8389837C836B83CB
:1055D000509541955F4F5E834D83309521953F4FA8
:1055E00038872F83CE0101969A87898779E0472EE5
:1055F000512C4C0E5D1E7C0166247724CC24DD24C6
:10560000D7016D917D917D01882777FD8095982F39
:105610000E9435564B015C01E894B7F8662D772D52
:105620008C2D9D2DA50194010E94935587FF02C0EA
:1056300034016501E414F50419F7EE24FF24C101D7
:10564000AA2797FDA095BA2F8B879C87AD87BE8729
:10565000A985BA85AD90BD90BA87A9876B857C85F1
:105660008D859E850E9435561B012C01B50188272A
:1056700077FD8095982F0E943556262D372D4C2D7D
:105680005D2D0E949A55A20191010E94F9579B013C
:10569000AC01F701EE0FFF1FEE0FFF1FE55AF94FA8
:1056A00020833183428353830894E11CF11CB4E0CE
:1056B000EB16F10469F6043611052CF401151105F9
:1056C00009F051C005C00436110511F00456104010
:1056D00091E0E92EF12C662D772D8C2D9D2D20E06B
:1056E00030E048EC52E40E94F957A20191010E9477
:1056F0009A550E9480555B016C0197012250304001
:10570000C80117FF03C0909581959F4FB7010E9474
:10571000975B620F731F882777FD8095982F0E94F3
:1057200035569B01AC01C601B5010E941C550E9473
:105730000256CB012E960FB6F894DEBF0FBECDBF3A
:10574000CF91DF911F910F91FF90EF90DF90CF905D
:10575000BF90AF909F908F907F906F905F904F9091
:105760003F902F90089582E0E82EF12CB4CF2F9235
:105770003F924F925F926F927F928F929F92AF92E1
:10578000BF92CF92DF92EF92FF920F931F93DF931E
:10579000CF93CDB7DEB72E970FB6F894DEBF0FBE0E
:1057A000CDBF7A8369836536710514F06456704005
:1057B0004B0177FF04C088249924861A970AE09049
:1057C0002203F0902303A7014F5F5F4F9C012E1926
:1057D0003F0900E010E05A01CC24B7FCC094DC2C57
:1057E000AB82BC82CD82DE821401442437FC40941B
:1057F000542C6C01C818D908D886CF82C901AA27B1
:1058000097FDA095BA2F89879A87AB87BC877E873B
:105810006D873401F7FC34C0AD85BE85B7FD2DC062
:105820004801880C991C880C991CF401E55AF94F21
:10583000A080B180C280D3806B817C818D819E816C
:105840000E9435569B01AC01C601B5010E94F95773
:105850005B016C01C201B1010E9435569B01AC0194
:10586000C601B5010E949A559B01AC01F401E359B0
:10587000F94F2083318342835383E614F70424F4E1
:10588000ED85FE85F7FF13C09801220F331F220F0D
:10589000331FF901E55AF94F80819181A281B381CB
:1058A0002359394FF90180839183A283B383AF8059
:1058B000B884AE14BF0494F549815A814536510528
:1058C00068F14801880C991C880C991CF401E55A70
:1058D000F94FA080B180C280D38069857A858B859D
:1058E0009C850E9435569B01AC01C601B5010E9402
:1058F000F9575B016C01C201B1010E9435569B0151
:10590000AC01C601B5010E949A559B01AC01F4019E
:10591000E359F94F20833183428353830F5F1F4F35
:105920000430110509F076CF2E960FB6F894DEBF3D
:105930000FBECDBFCF91DF911F910F91FF90EF90E0
:10594000DF90CF90BF90AF909F908F907F906F909F
:105950005F904F903F902F90089581E090E00A9BD8
:1059600002C080E090E09093B6058093B50581E099
:1059700090E00B9B02C080E090E09093B205809392
:10598000B10581E090E00C9B02C080E090E0909334
:105990006C0680936B0681E090E0849B02C080E0FF
:1059A00090E09093B4058093B30581E090E0869BEE
:1059B00002C080E090E09093400680933F062091E3
:1059C000630081E090E023FD02C080E090E09093CE
:1059D000BC058093BB052091630081E090E024FD2D
:1059E00002C080E090E09093B0058093AF050895E9
:1059F0001F920F920FB60F920BB60F921124EF92D7
:105A0000FF920F931F932F933F934F935F936F9347
:105A10007F938F939F93AF93BF93EF93FF938FEFFA
:105A20008DBD80E78CBD60910C0370910D0380915A
:105A30000E0390910F032AE037ED43EA5CE30E94E6
:105A40001C557B018C017F2D912F20E030E040E838
:105A50005FE30E945E57181624F4EE24FF2400E84A
:105A60001FE38E2D9F2DA02FB12F80930C039093B9
:105A70000D03A0930E03B0930F0360912603709162
:105A8000270380912803909129032AE037ED43EA08
:105A90005CE30E941C557B018C017F2D912F20E03F
:105AA00030E040E85FE30E945E57181624F4EE24CD
:105AB000FF2400E81FE38E2D9F2DA02FB12F809390
:105AC000260390932703A0932803B09329036091A2
:105AD00010037091110380911203909113032DEC28
