:100000000C9455000C9474000C9474000C947400BF
:100010000C9474000C9474000C9474000C94740090
:100020000C9474000C9474000C9474000C94740080
:100030000C9474000C9474000C94B3270C9474000A
:100040000C9474000C9474000C94CB4B0C947400BE
:100050000C9474000C9474000C9474000C94740050
:100060000C9474000C9474000C9474000C94740040
:100070000C9474000C9474000C940A010C94740099
:100080000C9474000C9474000C94740005A84CCD6E
:10009000B2D44EB93836A9020C50B9918688083CC2
:1000A000A6AAAA2ABE000000803F11241FBECFEFDF
:1000B000D0E1DEBFCDBF12E0A0E0B1E0E6EBF6EAB2
:1000C00000E00BBF02C007900D92A433B107D9F72F
:1000D00014E0A4E3B2E001C01D92AF3CB107E1F728
:1000E0000E946B110C94734C0C94000094EA909352
:1000F00074009091740097FFFCCF9AE09093730086
:1001000094E8909374009091740097FFFCCF8093D3
:10011000730084E8809374008091740087FFFCCFA3
:1001200084E98093740084EA809374008091740061
:1001300087FFFCCF8BE08093730084E8809374008A
:100140008091740087FFFCCF84E8809374008091D5
:10015000740087FFFCCF8091730094E99093740042
:10016000089594EA909374009091740097FFFCCFE7
:100170009AE09093730094E89093740090917400C7
:1001800097FFFCCF8093730084E880937400809184
:10019000740087FFFCCF6093730084E88093740041
:1001A0008091740087FFFCCF84E9809374000895E8
:1001B00010929B0088E980939A0086E080939D00CE
:1001C000109298008FE580939900789408951F937A
:1001D0001FEF1093730081E4809370000E94DD2074
:1001E0000E94B74B0E94D8000E94D71F1FBC85E019
:1001F0008EBD1DBD80E78CBD84E087BF78948FE005
:1002000087BB81B3807F81BB84B3806F84BB18BA06
:100210001F9108951F920F920FB60F9211248F9382
:10022000DF93CF930F92CDB7DEB780919C00898387
:1002300080919B00887BE1F381E080933402898187
:10024000809335020F90CF91DF918F910F900FBE69
:100250000F901F901895DF93CF930F92CDB7DEB715
:1002600080913502898310923502F89410923402FD
:10027000789489810F90CF91DF91089590919B00A0
:1002800095FFFCCF80939C000895CF93DF93E4E724
:10029000F0E094EA9083A1EEB2E01197F1F700004C
:1002A000A3E7B0E09EE09C9394E89083C1EED2E097
:1002B0002197F1F700008C93908381EE92E00197F3
:1002C000F1F7000084E98083DF91CF910895EF92E8
:1002D000FF920F931F93DF93CF9300D0CDB7DEB77C
:1002E000082F162F843070F5643160F58BE1498357
:1002F0005A830E9445018CE40E944501812F0E948F
:100300004501802F0E94450180E791E00197F1F7B8
:1003100000C0E12EFF2449815A81042F152F06C009
:100320000E94450194EC9A95F1F700C0E4E1EE16C5
:10033000F10444F4F80181918F010894E11CF11C4F
:10034000882371F70F900F90CF91DF911F910F913C
:10035000FF90EF9008951F93DF93CF9300D0CDB718
:10036000DEB7182F8430F0F46431E0F48BE12A8397
:1003700069830E9445018CE40E9445016981862FB2
:100380000E944501812F0E94450180E791E001977D
:10039000F1F700C02A81822F0E94450194EC9A95C2
:1003A000F1F700C00F900F90CF91DF911F9108954A
:1003B0008BE10E94450183E40E94450186E696EEAA
:1003C000A0E081509040A040E1F70895EF92FF92A5
:1003D0000F931F93182FF62EE42E842F64E60E94AD
:1003E0002653082F282F30E0205D3F4F442737FD4C
:1003F0004095542F812F6F2D0E94AB018CE9089FEF
:10040000002D11240E0D802F6AE00E942653E82E45
:100410006F2D6F5F282F30E0205D3F4F442737FD61
:100420004095542F812F0E94AB016F2D6E5F26EFF8
:10043000E29E202D1124200F30E0205D3F4F442705
:1004400037FD4095542F812F0E94AB011F910F91D2
:10045000FF90EF9008954F925F926F927F928F92EC
:100460009F92AF92BF92CF92DF92EF92FF920F9343
:100470001F93CF93DF932C010F2EF0E06F2EF0E04F
:100480007F2EF0E08F2EF0E09F2EF02D6092DC02A8
:100490007092DD028092DE029092DF026092C202D0
:1004A0007092C3028092C4029092C502CAE5D0E065
:1004B000D093FF02C093FE0280E090E060E070E025
:1004C00044E050E024EC30E005E010E0FAEAEF2EE2
:1004D000F12CEEE1CE2ED12CBEE1AB2EB12C0E9440
:1004E00098446092DC027092DD028092DE0290926B
:1004F000DF026092C2027092C3028092C4029092A4
:10050000C502D093FF02C093FE0283E090E06AE749
:1005100070E044E050E024EC30E00E9498441092F7
:10052000FF021092FE0241145104D9F48CE090E0D5
:1005300061E070E042E350E023E030E00CE010E0E6
:10054000EE24FF24A2E3CA2ED12CFCE3AF2EB12C63
:100550000E947F378AE090E061E070E041E450E083
:100560001EC083E04816510489F58CE090E061E0FC
:1005700070E042E150E023E030E00CE010E0EE24D7
:10058000FF24E2E3CE2ED12CBCE3AB2EB12C0E9493
:100590007F378AE090E061E070E04AE250E025E0D9
:1005A00030E0AA24BB240E947F3789E190E066EA0C
:1005B0007FEF40E050E02DE230E009EC1FEF0E94B9
:1005C000513C10923902109238021BC386E0481643
:1005D0005104B9F480E090E064E070E040E050E065
:1005E00028E230E002E310E00E94732F86E190E001
:1005F00066EA7FEF40E050E028E230E00EEC1FEFCB
:10060000DECF81E04816510409F097C08CE090E0FD
:1006100061E070E04CE250E023E030E00CE010E0FC
:10062000EE24FF24ACE3CA2ED12CF6E4AF2EB12C7D
:100630000E947F378AE090E061E070E048E450E09B
:1006400025E030E0AA24BB240E947F3783E090E0BD
:100650006DE270E046EA5FEF22E330E004EC1FEF6A
:100660000E94B53A6092DC027092DD028092DE0256
:100670009092DF026092C2027092C3028092C40222
:100680009092C502D093FF02C093FE0280E090E0FA
:1006900060E070E044E050E024EC30E005E010E081
:1006A000EAEAEE2EF12CBEE1CB2ED12CAEE1AA2E41
:1006B000B12C0E9498446092DC027092DD0280921C
:1006C000DE029092DF026092C2027092C3028092B8
:1006D000C4029092C502D093FF02C093FE0283E051
:1006E00090E06AE770E044E050E024EC30E00E94E3
:1006F00098441092FF021092FE028CE090E061E0BC
:1007000070E040E150E023E030E00CE010E0EE2447
:10071000FF24F8E2CF2ED12CE2E3AE2EB12C0E94C2
:100720007F378AE090E061E070E04AE250E025E047
:1007300030E0B2E3CB2ED12C98C082E048165104B1
:1007400009F09AC08CE090E061E070E04DE250E08A
:1007500023E030E00CE010E0EE24FF24ACE3CA2EEE
:10076000D12CF6E4AF2EB12C0E947F378AE090E0C6
:1007700061E070E048E450E025E030E0AA24BB24CA
:100780000E947F3783E090E06DE270E046EA5FEF21
:1007900022E330E004EC1FEF0E94B53A6092DC02E5
:1007A0007092DD028092DE029092DF026092C202BD
:1007B0007092C3028092C4029092C502D093FF024D
:1007C000C093FE0280E090E060E070E044E050E022
:1007D00024EC30E005E010E0EAEAEE2EF12CBEE178
:1007E000CB2ED12CAEE1AA2EB12C0E94984460925F
:1007F000DC027092DD028092DE029092DF02609253
:10080000C2027092C3028092C4029092C502D09339
:10081000FF02C093FE0283E090E06AE770E044E0EC
:1008200050E024EC30E00E9498441092FF021092B5
:10083000FE028CE090E061E070E04BE250E023E0EB
:1008400030E00CE010E0EE24FF24F2E3CF2ED12CB8
:10085000ECE3AE2EB12C0E947F378AE090E061E09D
:1008600070E04EE350E025E030E0AA24BB240E9473
:100870007F378AE190E0B5C184E04816510409F061
:1008800068C08CE090E061E070E04AE050E023E076
:1008900030E00CE010E0EE24FF24B2E3CB2ED12CAC
:1008A000ACE3AA2EB12C0E947F378AE090E061E091
:1008B00070E041E150E025E030E0AA24BB240E9432
:1008C0007F3783E090E06EE170E046EA5FEF28E278
:1008D00030E00EEC1FEF0E94B53A6092DC0270929D
:1008E000DD028092DE029092DF026092C20270927C
:1008F000C3028092C4029092C502D093FF02C093BB
:10090000FE0280E090E060E070E044E050E024EC23
:1009100030E005E010E0FAEAEF2EF12CEEE1CE2E09
:10092000D12CBEE1AB2EB12C0E9498441092FF0254
:100930001092FE0280E090E063E370E040E050E05F
:1009400022E330E00CE310E00E94732F8BE190E093
:100950006CC085E04816510409F06AC08CE090E054
:1009600061E070E04AE050E023E030E00CE010E0AD
:10097000EE24FF24A2E3CA2ED12CFCE3AF2EB12C2F
:100980000E947F378AE090E061E070E041E150E052
:1009900025E030E0AA24BB240E947F3783E090E06A
:1009A0006EE170E046EA5FEF28E230E00EEC1FEF08
:1009B0000E94B53A6092DC027092DD028092DE0203
:1009C0009092DF026092C2027092C3028092C402CF
:1009D0009092C502D093FF02C093FE0280E090E0A7
:1009E00060E070E044E050E024EC30E005E010E02E
:1009F000EAEAEE2EF12CBEE1CB2ED12CAEE1AA2EEE
:100A0000B12C0E9498441092FF021092FE0280E0E6
:100A100090E06BE670E040E050E022E330E00CE371
:100A200010E00E94732F8AE190E06AE570E0DBC07D
:100A300087E04816510409F068C08CE090E061E05E
:100A400070E04AE050E023E030E00CE010E0EE24FB
:100A5000FF24F2E3CF2ED12CECE3AE2EB12C0E947A
:100A60007F378AE090E061E070E041E150E025E00E
:100A700030E0AA24BB240E947F3783E090E06EE13F
:100A800070E046EA5FEF28E230E00EEC1FEF0E94D4
:100A9000B53A6092DC027092DD028092DE029092A2
:100AA000DF026092C2027092C3028092C4029092EE
:100AB000C502D093FF02C093FE0280E090E060E0A8
:100AC00070E044E050E024EC30E005E010E0BAEAE9
:100AD000EB2EF12CAEE1CA2ED12CFEE1AF2EB12CC3
:100AE0000E9498441092FF021092FE0280E090E073
:100AF00068E370E040E050E022E330E00CE310E017
:100B00000E94732F8BE190E06CC088E0481651047E
:100B100009F077C08CE090E061E070E04AE050E0DE
:100B200023E030E00CE010E0EE24FF24E2E3CE2EE0
:100B3000D12CBCE3AB2EB12C0E947F378AE090E031
:100B400061E070E041E150E025E030E0AA24BB2400
:100B50000E947F3783E090E06EE170E046EA5FEF4D
:100B600028E230E00EEC1FEF0E94B53A6092DC0202
:100B70007092DD028092DE029092DF026092C202E9
:100B80007092C3028092C4029092C502D093FF0279
:100B9000C093FE0280E090E060E070E044E050E04E
:100BA00024EC30E005E010E0AAEAEA2EF12CFEE1A8
:100BB000CF2ED12CEEE1AE2EB12C0E949844109293
:100BC000FF021092FE0280E090E06CE670E040E0F0
:100BD00050E022E330E00CE310E00E94732F8EE13E
:100BE00090E066EA7FEF40E050E02DE230E009EC73
:100BF0001FEF0E94513C83E090E090933902809374
:100C00003802DF91CF911F910F91FF90EF90DF900D
:100C1000CF90BF90AF909F908F907F906F905F909C
:100C20004F9008956F927F928F929F92AF92BF9252
:100C3000CF92DF92EF92FF920F931F93CF93DF93A8
:100C40000F2EF0E06F2EF0E07F2EF0E08F2EF0E020
:100C50009F2EF02D6092DC027092DD028092DE0207
:100C60009092DF026092C2027092C3028092C4022C
:100C70009092C502CAE5D0E0D093FF02C093FE0275
:100C800080E090E060E070E044E050E024EC30E090
:100C900005E010E0EAEAEE2EF12CBEE1CB2ED12CDD
:100CA000AEE1AA2EB12C0E9498446092DC027092B0
:100CB000DD028092DE029092DF026092C2027092A8
:100CC000C3028092C4029092C502D093FF02C093E7
:100CD000FE0283E090E06AE770E044E050E024EC3C
:100CE00030E00E9498441092FF021092FE02809120
:100CF0007F0190918001009709F04FC089E190E059
:100D00006FEF7FEF46E450E024E130E002E810E0CE
:100D10000E94B53A85EE9FEF9093FF028093FE020A
:100D20008CEE9FEF66EA7FEF48ED5FEF29E130E060
:100D300003E210E00E94513C8EE190E09093FF02AC
:100D40008093FE0280E090E060EF7FEF42EE5FEF85
:100D500029E130E000E010E00E94B53A1092FF0275
:100D60001092FE028CEE9FEF66EA7FEF42EE5FEF9D
:100D700029E130E00E94513C82EE9FEF9093FF0208
:100D80008093FE0284EE9FEF60E070E042EC5FEF44
:100D90002EE130E008ED1FEFC1C089E190E06FEF78
:100DA0007FEF46E450E029E130E007E810E00E94E0
:100DB000B53A8CEE9FEF9093FF028093FE028CE099
:100DC00090E064E070E04DEF5FEF23E030E000E1A1
:100DD00010E0EE24FF24F3E2CF2ED12CEDE2AE2E74
:100DE000B12C0E947F378AE090E064E070E04DEF24
:100DF0005FEF25E030E0AA24BB240E947F3784E027
:100E000090E064E070E048E15CEF23E030E0BAE1BC
:100E1000EB2EF12C0E947F3780E090E06EEE7FEFAA
:100E200040E050E023E230E000E010E00E94732F49
:100E300085EE9FEF9093FF028093FE028AEE9FEF74
:100E400066EA7FEF48ED5FEF29E130E00E94513C18
:100E50008EE190E09093FF028093FE0280E090E0AC
:100E600063EF7FEF42EE5FEF29E130E00E94B53A99
:100E70001092FF021092FE028CEE9FEF66EA7FEF67
:100E800042EE5FEF29E130E00E94513C82EE9FEF9D
:100E90009093FF028093FE0287EE9FEF60E070E088
:100EA00048ED5FEF28E230E00E94B53A84E190E03F
:100EB0009093FF028093FE028CE090E063E070E08C
:100EC0004BEF5FEF23E030E00FE010E0EE24FF2473
:100ED000A8E2CA2ED12C0E947F378AE090E063E01E
:100EE00070E04BEF5FEF25E030E00E947F378CEF42
:100EF0009FEF63E070E048E15CEF23E030E0F9E170
:100F0000EF2EF12C0E947F3780E090E064EF7FEFBE
:100F10004CEE5FEF28E230E00DED1FEF0E94B53A96
:100F20000F2EF0E06F2EF0E07F2EF0E08F2EF0E03D
:100F30009F2EF02D6092DC027092DD028092DE0224
:100F40009092DF026092C2027092C3028092C40249
:100F50009092C502CAE5D0E0D093FF02C093FE0292
:100F600080E090E060E070E044E050E024EC30E0AD
:100F700005E010E0EAEAEE2EF12CBEE1CB2ED12CFA
:100F8000AEE1AA2EB12C0E9498446092DC027092CD
:100F9000DD028092DE029092DF026092C2027092C5
:100FA000C3028092C4029092C502D093FF02C09304
:100FB000FE0283E090E06AE770E044E050E024EC59
:100FC00030E00E9498441092FF021092FE02DF91DE
:100FD000CF911F910F91FF90EF90DF90CF90BF9036
:100FE000AF909F908F907F906F9008954F925F92F7
:100FF0006F927F928F929F92AF92BF92CF92DF9229
:10100000EF92FF920F931F93CF93DF932C010F2E3C
:10101000F0E06F2EF0E07F2EF0E08F2EF0E09F2EBC
:10102000F02D6092DC027092DD028092DE029092DE
:10103000DF026092C2027092C3028092C402909258
:10104000C502CAE5D0E0D093FF02C093FE0280E063
:1010500090E060E070E044E050E024EC30E005E037
:1010600010E0AAEAEA2EF12CFEE1CF2ED12CEEE11F
:10107000AE2EB12C0E9498446092DC027092DD0288
:101080008092DE029092DF026092C2027092C302EE
:101090008092C4029092C502D093FF02C093FE02D8
:1010A00083E090E06AE770E044E050E024EC30E058
:1010B0000E9498441092FF021092FE0283E04816AC
:1010C000510409F045C08CE090E061E070E04AE036
:1010D00050E023E030E00CE010E0EE24FF24B8E222
:1010E000CB2ED12CA2E3AA2EB12C0E947F378AE00E
:1010F00090E061E070E04DE250E025E030E0AA24AD
:10110000BB240E947F378AE090E066EA7FEF48EDDB
:101110005FEF23E230E003ED1FEF0E94513C88EDCA
:101120009FEF9093FF028093FE0286EF9FEF60EFA8
:101130007FEF40E050E028E230E002E310E00E9460
:10114000732F80E090E06DED7FEF48E250E018C132
:101150008CE090E061E070E045E050E023E030E0BA
:101160000CE010E0EE24FF24F8E2CF2ED12CE2E3D5
:10117000AE2EB12C0E947F378AE090E061E070E0F3
:101180004FE050E025E030E0AA24BB240E947F37E6
:1011900084E090E065E270E046EA5FEF23E230E051
:1011A00003ED1FEF0E94B53A6092DC027092DD02FF
:1011B0008092DE029092DF026092C2027092C302BD
:1011C0008092C4029092C502D093FF02C093FE02A7
:1011D00080E090E060E070E044E050E024EC30E03B
:1011E00005E010E0BAEAEB2EF12CAEE1CA2ED12CCC
:1011F000FEE1AF2EB12C0E9498441092FF02109293
:10120000FE0284E04816510419F401E310E002C024
:101210000AE610E080E090E06CE070E040E150E031
:1012200020E030E0E8E2EE2EF12CB2E3CB2ED12C20
:101230000E947A428AE090E06AE570E048E250E07D
:101240002EE130E008ED1FEF0E94513C88E290E073
:101250009093FF028093FE028AE090E060EF7FEFC0
:1012600040E050E028E230E002E310E00E94732FFB
:1012700080E090E06CEE7FEF4CEE5FEF28E230E034
:1012800000E010E00E94B53A84E190E09093FF0204
:101290008093FE0284E04816510419F40BEF1FEF0F
:1012A00002C004EC1FEF84E090E06CE070E040E1ED
:1012B00050E020E030E0A8E2EA2EF12CCC24DD243E
:1012C0000E947A4284E090E06CE070E040E150E0FF
:1012D0002AE130E008E11CEF0E947A428CEE9FEF99
:1012E0006AE570E048E250E028E230E000E010E01B
:1012F0000E94513C82EE9FEF9093FF028093FE028A
:1013000080E090E06BEF7FEF4AE050E028E230E0D1
:101310000E94B53A8CEE9FEF9093FF028093FE02FD
:101320008CE090E064E070E04DEF5FEF23E030E0B0
:1013300000E110E0EE24FF24F8E2CF2ED12CAA2405
:10134000BB240E947F378AE090E064E070E04DEFBC
:101350005FEF25E030E00E947F378BEF9FEF64E086
:1013600070E048E15CEF23E030E0ECE1EE2EF12CA0
:101370000E947F3780E090E065EF7FEF44E150E02E
:1013800028E230E00EEC1FEF0E94B53A0F2EF0E09D
:101390006F2EF0E07F2EF0E08F2EF0E09F2EF02DEC
:1013A0006092DC027092DD028092DE029092DF0297
:1013B0006092C2027092C3028092C4029092C502EF
:1013C000CAE5D0E0D093FF02C093FE0280E090E037
:1013D00060E070E044E050E024EC30E005E010E034
:1013E000BAEAEB2EF12CAEE1CA2ED12CFEE1AF2EE3
:1013F000B12C0E9498446092DC027092DD028092CF
:10140000DE029092DF026092C2027092C30280926A
:10141000C4029092C502D093FF02C093FE0283E003
:1014200090E06AE770E044E050E024EC30E00E9495
:1014300098441092FF021092FE02DF91CF911F910B
:101440000F91FF90EF90DF90CF90BF90AF909F9063
:101450008F907F906F905F904F9008956F927F92E2
:101460008F929F92AF92BF92CF92DF92EF92FF92B4
:101470000F931F93CF93DF930F2EF0E06F2EF0E0CA
:101480007F2EF0E08F2EF0E09F2EF02D6092DC0298
:101490007092DD028092DE029092DF026092C202C0
:1014A0007092C3028092C4029092C502CAE5D0E055
:1014B000D093FF02C093FE0280E090E060E070E015
:1014C00044E050E024EC30E005E010E0FAEAEF2ED2
:1014D000F12CEEE1CE2ED12CBEE1AB2EB12C0E9430
:1014E00098446092DC027092DD028092DE0290925B
:1014F000DF026092C2027092C3028092C402909294
:10150000C502D093FF02C093FE0283E090E06AE739
:1015100070E044E050E024EC30E00E9498441092E7
:10152000FF021092FE0280917F019091800100974E
:1015300009F04BC08DEF9FEF6FE270E04AE550E09D
:1015400028E230E006E910E00E94B53A80E090E041
:101550006BE070E04FE050E020E030E00FE010E0A2
:10156000A8E2EA2EF12CF2E3CF2ED12C0E947A428F
:1015700080E090E064E170E048E250E023E230E097
:1015800000E010E00E94B53A88E290E09093FF02FC
:101590008093FE0284E190E06AE570E048E250E06A
:1015A0002EE130E00E94513C86EF9FEF9093FF02C6
:1015B0008093FE0282E090E06BE170E040EB5FEF31
:1015C0002EE130E008ED1FEFA3C08CE090E061E079
:1015D00070E045E050E023E030E00CE010E0EE2465
:1015E000FF24E8E2CE2ED12CB2E3AB2EB12C0E9428
:1015F0007F378AE090E061E070E045E050E025E070
:1016000030E0AA24BB240E947F3781E090E061E0B3
:1016100070E048EE53E023E030E0A6E1EA2EF12C42
:101620000E947F378DEF9FEF64E270E04BE550E062
:1016300028E230E00EEC1FEF0E94B53A80E090E027
:101640006BE070E04FE050E020E030E00FE010E0B1
:10165000F8E2EF2EF12CE2E3CE2ED12C0E947A425A
:1016600080E090E064E170E048E250E023E230E0A6
:1016700000E010E00E94B53A88E290E09093FF020B
:101680008093FE0281E190E06AE570E042E350E081
:101690002EE130E00E94513C1092FF021092FE02B7
:1016A0008CE090E061E070E04AE050E023E030E060
:1016B0000CE010E0EE24FF24B8E2CB2ED12C0E94E7
:1016C0007F3780917F01909180018130910519F4DD
:1016D0004AE050E002C048E250E08AE090E061E079
:1016E00070E025E030E00CE010E0EE24FF24A8E2FA
:1016F000CA2ED12CAA24BB240E947F3785E090E01B
:1017000065E270E046EA5FEF28E230E00EEC1FEFA2
:101710000E94B53A0F2EF0E06F2EF0E07F2EF0E041
:101720008F2EF0E09F2EF02D6092DC027092DD0291
:101730008092DE029092DF026092C2027092C30237
:101740008092C4029092C502CAE5D0E0D093FF0215
:10175000C093FE0280E090E060E070E044E050E082
:1017600024EC30E005E010E0FAEAEF2EF12CEEE197
:10177000CE2ED12CBEE1AB2EB12C0E9498446092AB
:10178000DC027092DD028092DE029092DF026092B3
:10179000C2027092C3028092C4029092C502D0939A
:1017A000FF02C093FE0283E090E06AE770E044E04D
:1017B00050E024EC30E00E9498441092FF02109216
:1017C000FE02DF91CF911F910F91FF90EF90DF907C
:1017D000CF90BF90AF909F908F907F906F90089523
:1017E000AF92BF92CF92DF92EF92FF920F931F932F
:1017F00080E090E0DC018093DC029093DD02A09316
:10180000DE02B093DF028093C2029093C302A093E2
:10181000C402B093C5028AE590E09093FF028093E2
:10182000FE0283E090E06AE770E044E050E024ECE0
:1018300030E005E010E0BAEAEB2EF12CAEE1CA2E62
:10184000D12CFEE1AF2EB12C0E9498441092FF02E1
:101850001092FE0280E090E063E270E040E050E031
:1018600028E230E002E310E00E94732F81E090E074
:1018700069E270E046EA5FEF2EE130E000E010E060
:101880000E94B53A1092FF021092FE028CE090E0A6
:1018900061E070E045E050E023E030E00CE010E073
:1018A000EE24FF24E8E2CE2ED12CB2E3AB2EB12CF5
:1018B0000E947F378AE090E061E070E045E050E010
:1018C00025E030E0AA24BB240E947F3781E090E02D
:1018D00061E070E048EE53E023E030E0A4E1EA2E5E
:1018E000F12C0E947F3780E090E067E270E040E0FA
:1018F00050E028E230E00EEC1FEF0E94732FC39AF5
:101900008FEF9FEFA9E581509040A040E1F700C024
:101910000000C3981F910F91FF90EF90DF90CF9040
:10192000BF90AF900895AF92BF92CF92DF92EF92A7
:10193000FF920F931F93CF93DF9380E090E0DC0141
:101940008093DC029093DD02A093DE02B093DF026D
:101950008093C2029093C302A093C402B093C502C5
:101960008AE590E09093FF028093FE0283E090E08E
:101970006AE770E044E050E024EC30E005E010E07D
:10198000FAEAEF2EF12CEEE1CE2ED12CBEE1AB2EF9
:10199000B12C0E9498441092FF021092FE0280E047
:1019A00090E063E270E04CEE5FEF2EE130E008E2A1
:1019B00010E00E94B53A8CEE9FEF9093FF02809367
:1019C000FE0287E690E063E070E00E946C2A0097D8
:1019D00019F4CFEFDFEF02C0C2E0D0E081E090E089
:1019E00069E270E04AEB5FEF2EE130E000E010E0EA
:1019F0000E94B53A1092FF021092FE028CE090E035
:101A000061E070E045E050E023E030E00CE010E001
:101A1000EE24FF24A8E2CA2ED12CF2E3AF2EB12C83
:101A20000E947F378AE090E061E070E045E050E09E
:101A300025E030E0AA24BB240E947F3781E090E0BB
:101A400061E070E048EE53E023E030E0E4E1EE2EA8
:101A5000F12C0E947F378FEFCF3FD80749F485E6FE
:101A600090E063E070E00E946C2A009721F433C29A
:101A7000209709F06CC080E090E06CE070E040E1FD
:101A800050E020E030E003E210E0B2E3EB2EF12C76
:101A9000CC24DD240E947A428CE090E061E070E08A
:101AA00045E050E023E030E00CE010E0EE24FF24BD
:101AB000A8E2CA2ED12CAA24BB240E947F378AE038
:101AC00090E061E070E04AE050E025E030E00E9404
:101AD0007F3781E090E061E070E048EE53E023E082
:101AE00030E0F4E1EF2EF12C0E947F3782E090E0AD
:101AF0006AE270E046EA5FEF2EE130E000E010E0DD
:101B00000E94B53A8CE090E061E070E045E050E082
:101B100023E030E00CE010E0EE24FF24E2E3CE2EE0
:101B2000D12CBCE3AB2EB12C0E947F378AE090E031
:101B300061E070E043E250E025E030E0AA24BB24FD
:101B40000E947F3783E090E061E270E0A6C0C13080
:101B5000D10509F000C160E070E08CE093E444E658
:101B600050E00E942F3E86E490E09093FF02809325
:101B7000FE0280E090E062E170E044E150E029E1A3
:101B800030E003E210E00E94B53A1092FF0210929A
:101B9000FE028CE090E068E070E045E050E023E079
:101BA00030E000E110E0EE24FF24A8E2CA2ED12CA0
:101BB000F2E3AF2EB12C0E947F378AE090E068E01C
:101BC00070E04AE050E025E030E0AA24BB240E9407
:101BD0007F3788E090E068E070E048EE53E023E073
:101BE00030E0E9E1EE2EF12C0E947F3782E090E0B8
:101BF0006AE270E046EA5FEF2EE130E000E010E0DC
:101C00000E94B53A8CE090E061E070E045E050E081
:101C100023E030E00CE010E0EE24FF24B2E3CB2E12
:101C2000D12CACE3AA2EB12C0E947F378AE090E041
:101C300061E070E04EE150E025E030E0AA24BB24F2
:101C40000E947F3783E090E061E270E046EA5FEF58
:101C500028E230E000E010E00E94B53A8CE090E02D
:101C600061E070E045E050E023E030E00CE010E09F
:101C7000FCE3AF2EB12C0E947F378AE090E061E058
:101C800070E04EE650E025E030E0AA24BB240E943C
:101C90007F3783E090E064E270E046EA5FEF28E29D
:101CA00030E000E010E00E94B53A8CE090E061E0A6
:101CB00070E045E050E023E030E00CE010E0ECE3C1
:101CC000AE2EB12C0E947F378AE090E061E070E098
:101CD00044E650E025E030E0AA24BB240E947F3790
:101CE00083E090E060E270E046EA5FEF28E230E0F7
:101CF0000EEC1FEF0E94B53A80E090E0DC0180938B
:101D0000DC029093DD02A093DE02B093DF028093A9
:101D1000C2029093C302A093C402B093C5028AE5A5
:101D200090E09093FF028093FE0283E090E06AE7E8
:101D300070E044E050E024EC30E005E010E0BAEA66
:101D4000EB2EF12CAEE1CA2ED12CFEE1AF2EB12C40
:101D50000E94984483C0C230D10559F481E090E0DC
:101D600066E270E046EA5FEF2EE130E000E010E06E
:101D70000AC080E090E062E170E04EEE5FEF29E1A2
:101D800030E003E210E00E94B53A1092FF02109298
:101D9000FE028CE090E061E070E045E050E023E07E
:101DA00030E00CE010E0EE24FF24E8E2CE2ED12C4F
:101DB000B2E3AB2EB12C0E947F378AE090E061E065
:101DC00070E04AE050E025E030E0AA24BB240E9405
:101DD0007F3781E090E061E070E048EE53E023E07F
:101DE00030E0A4E1EA2EF12C0E947F3782E090E0FF
:101DF00064E270E046EA5FEF2EE130E000E010E0E0
:101E00000E94B53A8CE090E061E070E045E050E07F
:101E100023E030E00CE010E0EE24FF24F2E3CF2ECC
:101E2000D12CECE3AE2EB12C0E947F378AE090E0FB
:101E300061E070E04EE150E025E030E0AA24BB24F0
:101E40000E947F3783E090E061E270E046EA5FEF56
:101E500028E230E00EEC1FEF0E94B53A80E090E0FF
:101E6000DC018093DC029093DD02A093DE02B0934C
:101E7000DF028093C2029093C302A093C402B09386
:101E8000C5028AE590E09093FF028093FE0283E012
:101E900090E06AE770E044E050E024EC30E005E0D8
:101EA00010E0BAEAEB2EF12CAEE1CA2ED12CFEE105
:101EB000AF2EB12C0E9498441092FF021092FE02A5
:101EC000DF91CF911F910F91FF90EF90DF90CF9016
:101ED000BF90AF90089580E090E065E170E04AEB3C
:101EE0005FEF28E230E00EEC1FEFE6E4EE2EF12C7F
:101EF0000E948D3F8AEB9FEF9093FF028093FE023A
:101F000085E690E063E070E00E946C2A009719F08B
:101F1000C3E0D0E01CCEC1E0D0E019CE0F931F93F8
:101F2000CF93DF93EC018B01CB016FEF7FEF48E0A4
:101F300050E00E947F4CC330D1052CF0CE010397B6
:101F4000F80191838083CE0163E070E00E943253F8
:101F50001816190634F49E0121503040F8013383DD
:101F60002283C630D10534F49E012D5F3F4FF80126
:101F7000358324838230910521F02196F801D7839F
:101F8000C683DF91CF911F910F910895EAE6F3E0A8
:101F9000A4E5B2E0219131918D919D9128173907E7
:101FA00039F483E0EC37F807A9F721E030E002C00C
:101FB00020E030E0C90108954F925F926F927F92C6
:101FC0008F929F92AF92BF92CF92DF92EF92FF9249
:101FD0000F931F93CF93DF932C017B01EA016901DB
:101FE00080917C0390917D03481759070CF07EC0C7
:101FF0008091660290916702009709F077C00EE722
:1020000013E0FA01EE0FFF1FE00FF11FF182E082F3
:102010000E94C60F0097B9F046E053E09E012F5F83
:102020003F4F220F331FCA01B801A9010E94764C0D
:10203000D0937D03C0937C0381E090E0909367028E
:102040008093660253C08701000F111F0C0D1D1DE8
:10205000C70133E0880F991F3A95E1F728E6A22ED1
:1020600022E0B22EA80EB91EB0E76B2EB2E07B2E96
:10207000680E791E4E010894811C911CF501619136
:1020800071915F0177FD2FC06415750561F1F8014D
:10209000808191819093410280934002EB01CC0FAB
:1020A000DD1FCC0DDD1D8881998191838083809116
:1020B00040029091410299838883C701A40196014F
:1020C0000E94DC0FF80180819181909341028093FE
:1020D0004002888199819183808380914002909110
:1020E000410299838883A614B70441F6DF91CF910A
:1020F0001F910F91FF90EF90DF90CF90BF90AF9026
:102100009F908F907F906F905F904F900895EF9287
:10211000FF920F931F93CF93DF937C018B01C5E058
:10212000D0E080E062E10E947C4B8823D1F30E94E2
:10213000F64980E063E10E947C4B8823D1F380E084
:1021400090E0FC01EE0FFF1F9C0163E0220F331FA4
:102150006A95E1F7E20FF31FE35FFB4F20813181C6
:1021600021153105A1F1228133812E193F0937FF55
:1021700003C0309521953F4F2931310544F5FC01CD
:10218000EE0FFF1F9C0143E0220F331F4A95E1F73A
:10219000E20FF31FE35FFB4F24813581201B310BDE
:1021A00037FF03C0309521953F4F293131057CF42D
:1021B000FC01EE0FFF1FA3E0880F991FAA95E1F71E
:1021C000E80FF91FE35FFB4F208131810AC00196C0
:1021D0008930910509F0B5CF219709F0A2CF20E011
:1021E00030E0C901DF91CF911F910F91FF90EF90E7
:1021F0000895EF92FF920F931F93CF93DF937C018B
:102200008B01C5E0D0E080E062E10E947C4B882336
:10221000D1F30E94F64980E063E10E947C4B882361
:10222000D1F380E090E0FC01EE0FFF1F9C0163E022
:10223000220F331F6A95E1F7E20FF31FE35FFB4FB5
:102240002081318121153105A1F1228133812E199F
:102250003F0937FF03C0309521953F4F24313105A9
:1022600044F5FC01EE0FFF1F9C0143E0220F331FDA
:102270004A95E1F7E20FF31FE35FFB4F24813581BD
:10228000201B310B37FF03C0309521953F4F243180
:1022900031057CF4FC01EE0FFF1FA3E0880F991FAE
:1022A000AA95E1F7E80FF91FE35FFB4F2081318129
:1022B0000AC001968930910509F0B5CF219709F040
:1022C000A2CF20E030E0C901DF91CF911F910F91A3
:1022D000FF90EF9008952F923F924F925F926F92EE
:1022E0007F928F929F92AF92BF92CF92DF92EF92A6
:1022F000FF920F931F93DF93CF9300D0CDB7DEB73C
:102300000E94E7008EE161E00E94B1008EE165E08D
:102310000E94B1008EE164E10E94B1008EE160E1B3
:102320000E94B1000E94624B8BE00E949A4B82E3B4
:102330000E945A2A80E063E10E947C4B8823D1F3FB
:102340000FEF1FE726E1015010402040E1F700C0E9
:10235000000080E090E0DC018093EA039093EB03BF
:10236000A093EC03B093ED032091EA033091EB03CB
:102370004091EC035091ED032093E6033093E70383
:102380004093E8035093E9032091E6033091E7037B
:102390004091E8035091E9032093E2033093E30373
:1023A0004093E4035093E5038093F6039093F7037F
:1023B000A093F803B093F9038091F6039091F7038B
:1023C000A091F803B091F9038093F2039093F30383
:1023D000A093F403B093F503C39A2FEF3FE744E0D3
:1023E000215030404040E1F700C00000C3980F2E5C
:1023F000F0E06F2EF0E07F2EF0E08F2EF0E09F2EC9
:10240000F02DBAE54B2E512CB49914C080913A02AC
:1024100090913B02019790933B0280933A02C39ABA
:102420004FEF5FE764E0415050406040E1F700C08B
:102430000000C398B69914C080913A0290913B0273
:10244000019690933B0280933A02C39A6FEF7FE725
:1024500084E0615070408040E1F700C00000C39804
:10246000B599A6C70E94D801C39A8FEF9FE7A4E051
:1024700081509040A040E1F700C00000C3988091D7
:102480003A0290913B028730910509F497C3883056
:102490009105ECF4823091056CF497FF39C0AFEFF1
:1024A0008A3F9A0709F4D5C5BFEF8B3F9B0709F018
:1024B0007FC7AAC58430910509F40FC38630910502
:1024C00009F460C38330910509F072C7A3C28C3050
:1024D000910509F485C38D3091056CF4893091051F
:1024E00009F4A0C3893091050CF488C38B309105A1
:1024F00009F05EC721C48E30910509F434C48E30D2
:1025000091050CF425C48F30910509F051C739C4E9
:1025100086E690E063E070E00E946C2A009709F480
:10252000F0C060E070E080E791E44EE150E00E948E
:102530002F3EEFE0F0E0F093FF02E093FE028CE02C
:1025400090E065E070E04BEF5FEF23E030E00DE0FE
:1025500010E0EE24FF24A8E2CA2ED12CF2E3AF2E25
:10256000B12C0E947F378AE090E065E070E04BEF8D
:102570005FEF25E030E0AA24BB240E947F3785E08E
:1025800090E065E070E048E15CEF23E030E0E9E1F5
:10259000EE2EF12C0E947F3780E090E062EE7FEF1C
:1025A00040E050E028E230E000E010E00E94732FAD
:1025B00086EF9FEF6AE570E040E050E02EE130E00A
:1025C0000E94513C84E190E060E070E04CE350E018
:1025D0002EE130E00E94B53A81EF9FEF9093FF0229
:1025E0008093FE0285E090E06BE070E040E150E017
:1025F00028E230E008E11CEFB8E2EB2EF12CCC240D
:10260000DD240E947A428CE090E064E070E04BEFC1
:102610005FEF23E030E001E110E0EE24FF24A8E2C8
:10262000CA2ED12C0E947F378AE090E064E070E0EF
:102630004BEF5FEF25E030E00E947F378BEF9FEF9D
:1026400064E070E048E15CEF23E030E0F4E1EF2E7D
:10265000F12C0E947F3780E090E066EF7FEF44E14D
:1026600050E028E230E00EEC1FEF0E948D3F6092B8
:10267000DC027092DD028092DE029092DF026092B4
:10268000C2027092C3028092C4029092C50250921C
:10269000FF024092FE0283E090E06AE770E044E0CF
:1026A00050E024EC30E005E010E0EAEAEE2EF12CF8
:1026B000BEE1CB2ED12CAEE1AA2EB12C0E949844C3
:1026C0001092FF021092FE0280E090E06BE070E05A
:1026D0004FE050E020E030E00FE410E0F8E2EF2EB1
:1026E000F12CE2E3CE2ED12C0E947A42B1E0AB2E47
:1026F000B12CB0923F02A0923E02A4E12A2E312CCE
:1027000047C08CE090E061E070E045E050E023E0FD
:1027100030E00CE010E0EE24FF24F8E2CF2ED12CC4
:10272000E2E3AE2EB12C0E947F378AE090E061E0B8
:1027300070E045E050E025E030E0AA24BB240E9490
:102740007F3781E090E061E070E048EE53E023E005
:1027500030E0B4E1EB2EF12C0E947F3782E090E074
:1027600066E270E046EA5FEF2EE130E008ED1FEF31
:102770000E94B53A80913A0290913B02009709F489
:10278000BCCF0E94182AB59BFECFB599FECFB5CF1E
:102790000FEF1FEF1093800100937F018091CD0216
:1027A000833138F022E030E03093800120937F01C4
:1027B00013C08091CE028B3038F041E050E050934E
:1027C000800140937F0108C08091CF02803120F0CA
:1027D0001092800110927F0120917F013091800141
:1027E00080913E0290913F0237FD10C0009709F49E
:1027F0008AC080E090E06AE070E040E050E028E2CB
:1028000030E00EEC1FEF0E94732F7DC0009719F48B
:10281000E2E3F0E002C0E0E0F0E08CE090E061E0B4
:1028200070E045E050E023E030E00CE010E0EE2402
:10283000FF24A8E2CA2ED12C5F010E947F378AE0D4
:1028400090E061E070E049E150E025E030E0AA244A
:10285000BB240E947F3783E090E063E270E046EAA9
:102860005FEF28E230E00EEC1FEF0E94B53A609275
:10287000DC027092DD028092DE029092DF026092B2
:10288000C2027092C3028092C4029092C50250921A
:10289000FF024092FE0283E090E06AE770E044E0CD
:1028A00050E024EC30E005E010E0BAEAEB2EF12C29
:1028B000AEE1CA2ED12CFEE1AF2EB12C0E9498447D
:1028C0001092FF021092FE0280E090E06BE070E058
:1028D0004FE050E020E030E00FE410E0E8E2EE2EC0
:1028E000F12CB2E3CB2ED12C0E947A4261E070E051
:1028F00070933F0260933E0208942108310821142E
:10290000310409F045CF80E090E066EF7FEF4FE0C3
:1029100050E02EE130E008E210E00E94B53A8FE08E
:1029200090E09093FF028093FE0280E090E062EEE0
:102930007FEF40E050E028E230E000E010E00E944D
:10294000732F8CE090E063E070E04BEF5FEF23E0EB
:1029500030E001E110E0EE24FF24A8E2CA2ED12CE1
:10296000AA24BB240E947F378AE090E063E070E0F5
:102970004BEF5FEF25E030E00E947F378CEF9FEF59
:1029800063E070E048E15CEF23E030E0F4E1EF2E3B
:10299000F12C0E947F3780E090E066EF7FEF41EFFF
:1029A0005FEF28E230E00EEC1FEF0E948D3F609257
:1029B000DC027092DD028092DE029092DF02609271
:1029C000C2027092C3028092C4029092C5025092D9
:1029D000FF024092FE0283E090E06AE770E044E08C
:1029E00050E024EC30E005E010E0EAEAEE2EF12CB5
:1029F000BEE1CB2ED12CAEE1AA2EB12C0E94984480
:102A00001092FF021092FE0280917F01909180014E
:102A10000E942E0A80913A0290913B0283309105E8
:102A200031F4A2E0B0E0B0938001A0937F01609206
:102A3000DC027092DD028092DE029092DF026092F0
:102A4000C2027092C3028092C4029092C502509258
:102A5000FF024092FE0283E090E06AE770E044E00B
:102A600050E024EC30E005E010E0FAEAEF2EF12C23
:102A7000EEE1CE2ED12CBEE1AB2EB12C0E949844BB
:102A80001092FF021092FE0280E090E069E170E097
:102A900046EF5FEF2EE130E00CE810E0A4E1EA2E13
:102AA000F12C0E948D3F86EF9FEF9093FF02809361
:102AB000FE028BE890E06EE070E00E948710909339
:102AC00043028093420282ED90E06CE670E00E9447
:102AD0008710909349028093480282E090E060E280
:102AE00070E040EB5FEF2EE130E00CE810E0F0E545
:102AF000EF2EF12C0E948D3F6092DC027092DD027D
:102B00008092DE029092DF026092C2027092C30253
:102B10008092C4029092C5025092FF024092FE023F
:102B200080E090E060E070E044E050E024EC30E0D1
:102B300005E010E0EAEAEE2EF12CBEE1CB2ED12C1E
:102B4000AEE1AA2EB12C0E9498441092FF0210927E
:102B5000FE0280E090E068E270E042E350E028E2AC
:102B600030E006E910E0FCE3EF2EF12C0E948D3FEF
:102B70008BE190E068E370E00E948710909345023B
:102B80008093440260E070E080E291EC44E150E028
:102B90000E942F3E84E790E06AE070E00E94871078
:102BA000909347028093460284EA90E067EA70E0DF
:102BB0000E94871090934B0280934A0260E070E07D
:102BC00080EA91EC48E250E00E942F3E88E990E0D4
:102BD00065E270E00E94871090934D0280934C0252
:102BE00060E070E080E292EC4CE350E00E942F3E07
:102BF000ECEEFFEFF093FF02E093FE028BED90E02E
:102C000068EA70E00E94871090935102809350020E
:102C100085E690E067E270E00E948710909353028F
:102C20008093520280E090E066E470E040E050E083
:102C300028E230E002E310E00E94732F81E090E090
:102C40006AE270E04AEB5FEF2EE130E008ED1FEF43
:102C50000E94B53A1092FF021092FE026092DC02CE
:102C60007092DD028092DE029092DF026092C202D8
:102C70007092C3028092C4029092C50280E090E0FC
:102C800060E070E041E050E025EA30E003E010E071
:102C9000EDE9EE2EF12CBEE1CB2ED12CAEE1AA2E29
:102CA000B12C0E9498448CE090E061E070E045E037
:102CB00050E023E030E00CE010E0EE24FF24F8E2E6
:102CC000AF2EB12C0E947F378AE090E061E070E087
:102CD0004AE050E023E030E0E8EDAE2EEFEFBE2E0C
:102CE0000E947F3780913A0290913B02009731F029
:102CF0000E94182AB59BFECFB599FECF86EE90E0D4
:102D000060E070E00E94F91090936102809360028D
:102D100083EA90E060E070E00E94F9109093630213
:102D20008093620281E490E060E070E00E94F9101C
:102D3000909365028093640285E090E068E270E021
:102D400046EA5FEF2EE130E00CE810E00E94B53A71
:102D500080913A0290913B028D30910521F41092BE
:102D6000800110927F0180913A0290913B028E3057
:102D7000910539F4B1E0AB2EB12CB0928001A09254
:102D80007F0180913A0290913B028F30910531F49E
:102D900002E010E01093800100937F016092DC025A
:102DA0007092DD028092DE029092DF026092C20297
:102DB0007092C3028092C4029092C5025092FF02A8
:102DC0004092FE0283E090E06AE770E044E050E069
:102DD00024EC30E005E010E0AAEAEA2EF12CFEE156
:102DE000CF2ED12CEEE1AE2EB12C0E949844109241
:102DF000FF021092FE0260E070E080E791E444E19F
:102E000050E00E942F3E2FE030E03093FF022093ED
:102E1000FE0280917F01909180018230910551F0F6
:102E20008CE290E06DE470E00E94F91090935F02F4
:102E300080935E0280917F019091800182309105A4
:102E4000B1F580E090E068E270E040E050E028E218
:102E500030E006E910E00E94732F8CE290E06DE410
:102E600070E00E94F91090935D0280935C0280E014
:102E700090E06EE170E040E050E02EE130E00CE8E0
:102E800010E00E94732F8CE290E06DE470E00E94ED
:102E9000F91090935B0280935A0280E090E06EE11B
:102EA00070E040E050E02EE130E00E94732F80910E
:102EB0007F01909180018130910511F580E090E0D3
:102EC00066E470E040E050E028E230E006E910E01F
:102ED0000E94732F8CE290E06DE470E00E94F91084
:102EE00090935B0280935A0280E090E06EE170E084
:102EF00040E050E02EE130E00CE810E00E94732F3B
:102F000080917F0190918001009711F580E090E021
:102F10006EE170E040E050E02EE130E00CE810E0BF
:102F20000E94732F8CE290E06DE470E00E94F91033
:102F300090935D0280935C0280E090E066E470E034
:102F400040E050E028E230E006E910E00E94732FF4
:102F50000E94D8014DB75EB74A5050400FB6F89462
:102F60005EBF0FBE4DBFEDB7FEB7319615E9A12E7E
:102F700014E0B12EADB7BEB71296BC92AE921197C7
:102F800000E011E01383028380915A0290915B026A
:102F90009583848380915C0290915D029783868300
:102FA00080915E0290915F02918780870E94864C9B
:102FB0002DB73EB7265F3F4F0FB6F8943EBF0FBE0A
:102FC0002DBF81E061E0A5010E94670189E690E0E4
:102FD00062E170E00E94F9109093550280935402D0
:102FE00086E490E069E270E00E94F9109093570245
:102FF0008093560283E190E061E670E00E94F91050
:1030000090935902809358024FE050E05093FF0292
:103010004093FE0280E090E066EF7FEF4DED5FEFC2
:103020002EE130E00CE810E0B8E2EB2EF12C0E942B
:103030008D3F6CEE7FEF7093FF026093FE0285ED93
:1030400090E064E970E00E94871090934F028093B3
:103050004E028CEE9FEF9093FF028093FE0280E081
:1030600090E06EE170E040E050E028E230E002E302
:1030700010E00E94732F85E090E063E270E04AEB7D
:103080005FEF2EE130E008ED1FEF0E94B53A60924D
:10309000DC027092DD028092DE029092DF0260928A
:1030A000C2027092C3028092C4029092C5025092F2
:1030B000FF024092FE0283E090E06AE770E044E0A5
:1030C00050E024EC30E005E010E0AAEAEA2EF12C12
:1030D000FEE1CF2ED12CEEE1AE2EB12C0E94984411
:1030E0001092FF021092FE020E94182A0E94D8013C
:1030F000ADB7BEB750970FB6F894BEBF0FBEADBF09
:10310000EDB7FEB7319655E9A52E54E0B52E1296CF
:10311000BC92AE92119709E011E013830283809173
:10312000420290914302958384838091440290915E
:10313000450297838683809146029091470291874A
:103140008087809154029091550293878287809165
:1031500056029091570295878487809158029091EA
:103160005902978786870E94864C2DB73EB7205F0D
:103170003F4F0FB6F8943EBF0FBE2DBF81E061E018
:10318000A5010E9467014DB75EB7405150400FB690
:10319000F8945EBF0FBE4DBFEDB7FEB73196ADB729
:1031A000BEB71296BC92AE921197138302838091A0
:1031B0004802909149029583848380914A029091BC
:1031C0004B029783868380914C0290914D029187A8
:1031D000808780915A0290915B02938782878091C9
:1031E0005C0290915D029587848780915E02909148
:1031F0005F02978786870E94864CEDB7FEB7709670
:103200000FB6F894FEBF0FBEEDBF82E061E0A501EE
:103210000E9467010DB71EB7005110400FB6F89419
:103220001EBF0FBE0DBFEDB7FEB73196ADB7BEB72F
:103230001296BC92AE92119749E0A42E41E0B42EB2
:10324000B382A28280914E0290914F029583848333
:10325000809150029091510297838683809152020F
:1032600090915302918780878091600290916102D2
:103270009387828780916202909163029587848709
:103280008091640290916502978786870E94864CA0
:103290000DB71EB7005F1F4F0FB6F8941EBF0FBECD
:1032A0000DBF83E061E045E954E00E94670132E42C
:1032B000C32E32E0D32E28E6E22E22E0F22E00E0EA
:1032C00010E022243324D6018D919D916D01009749
:1032D00009F41801C801B7010E948E0F0F5F1F4F3C
:1032E000E8E0F0E0EE0EFF1E0930110561F700E0A6
:1032F00010E010937D0300937C03AAE6B3E0E2E4C0
:10330000F2E082E101900D928150E1F78FEF9FEFA3
:10331000B10140E050E02AE633E00E94DC0F8091EA
:10332000660290916702009719F1C1010E942B0279
:1033300006E013E0EE24FF240BC0D8018D919D918F
:103340008D010894E11CF11C6D917C910E947A1D05
:10335000E0917C03F0917D03EE16FF0674F3EE0F0F
:10336000FF1FEA5FFC4F808191810E94B41B06C061
:103370000F5F1F4F0333110509F0BBCF0E941206E8
:103380000E94930C0E942E0AE0917C03F0917D0331
:10339000EE0FFF1FEA5FFC4F808191810E94F607CC
:1033A0000E9412060E94F00BB599FECFB59BFECF8E
:1033B00080913A0290913B02009709F444C04091F9
:1033C000CE023091CD022091CC029091D402809116
:1033D000D302EDB7FEB73E970FB6F894FEBF0FBE0F
:1033E000EDBF319605E9A02E04E0B02EADB7BEB713
:1033F0001296BC92AE9211970DE111E013830283F5
:10340000448315823683178220871186928713861C
:10341000848715860E94864C2DB73EB7225F3F4FAA
:103420000FB6F8943EBF0FBE2DBF80E060E0A5014F
:103430000E9467013091CF022091D0029091D10279
:103440008091D20246C04091E2023091E102209187
:10345000E0029091E8028091E7026DB77EB76E506E
:1034600070400FB6F8947EBF0FBE6DBFEDB7FEB7CC
:10347000319615E9A12E14E0B12EADB7BEB7129664
:10348000BC92AE9211970DE111E013830283448345
:103490001582368317822087118692871386848748
:1034A00015860E94864C2DB73EB7225F3F4F0FB660
:1034B000F8943EBF0FBE2DBF80E060E0A5010E94E2
:1034C00067013091E3022091E4029091E50280913E
:1034D000E6024DB75EB74C5050400FB6F8945EBF51
:1034E0000FBE4DBFEDB7FEB73196ADB7BEB7129662
:1034F000BC92AE921197B6E3AB2EB1E0BB2EB38275
:10350000A282348315822683178290871186828750
:1035100013860E94864C0DB71EB7045F1F4F0FB66F
:10352000F8941EBF0FBE0DBF81E060E045E954E096
:103530000E94670180913A0290913B0297FF03C07D
:10354000909581959F4F69E070E00E94325390936F
:103550003D0280933C020E94C02180913C0266E6BD
:103560000E947C4BC82E80913C0267E60E947C4BF7
:10357000E82E00913C0220903D02802F68E60E94D8
:103580007C4B2DB73EB72C5030400FB6F8943EBF61
:103590000FBE2DBFEDB7FEB73196A5E9AA2EA4E068
:1035A000BA2EADB7BEB71296BC92AE9211972FE469
:1035B00031E03383228304832582C6821782E0862A
:1035C0001186828713860E94864C4DB75EB7445F92
:1035D0005F4F0FB6F8945EBF0FBE4DBF82E060E054
:1035E000A5010E94670120910304309104044091D9
:1035F00005045091060460910104709102047A83DD
:103600006983A091BB04B091BC04E0908F04F0905A
:103610009004C0900B04D0900C042090FF033090D5
:1036200000046091F2037091F3038091F403909190
:10363000F503EDB7FEB774970FB6F894FEBF0FBE53
:10364000EDBF0DB71EB70F5F1F4FB282A182E2E63A
:10365000AE2EE1E0BE2EF801B382A2823583248330
:103660005783468329813A8131872087B387A28790
:10367000F586E486D786C686318A208A0E949D4DCB
:10368000D80153967C936E9352970E94864CEDB767
:10369000FEB774960FB6F894FEBF0FBEEDBF83E081
:1036A00060E045E954E00E94670100D000D000D0FE
:1036B000EDB7FEB73196A5E9AA2EA4E0BA2EADB7B4
:1036C000BEB71296BC92AE92119708E711E0138331
:1036D000028380913A0290913B02958384830E94F9
:1036E000864C2DB73EB72A5F3F4F0FB6F8943EBFCA
:1036F0000FBE2DBF83E060E1A5010E9467010C941D
:103700000412FC0183E0EE0FFF1F8A95E1F7E859F0
:10371000FD4F20E030E0819191918617970711F4D9
:10372000C90108952F5F3F4F24303105A1F7089557
:10373000681B790BCB0177FF04C088279927861B6C
:10374000970B8330910529F4CB016DEF7FEF0E9439
:1037500032538AE590E0689F9001699F300D789F11
:10376000300D1124C90108956F927F928F929F921C
:10377000AF92BF92CF92DF92EF92FF920F931F937F
:10378000CF93DF933C0163E070E00E9432539C01D1
:1037900080913802909139022115310509F05EC0FF
:1037A000009779F060E070E00E94981BAC0180E027
:1037B00090E060E070E02EE630E008E710E00E9464
:1037C000732F8AE590E09093FF028093FE028AEEC9
:1037D0009FEF6AE570E04CEE5FEF28E230E002E335
:1037E00010E00E94513C8CEE9FEF9093FF0280937B
:1037F000FE028CE090E064E070E04BEF5FEF23E0CE
:1038000030E000E110E0EE24FF24B8E2CB2ED12C12
:10381000AA24BB240E947F378AE090E064E070E035
:103820004BEF5FEF25E030E00E947F378BEF9FEF9B
:1038300064E070E048E15CEF23E030E0AAE1EA2ECA
:10384000F12C0E947F3780E090E065EF7FEF44E14C
:1038500050E023E230E003ED1FEFA4C08330910578
:1038600079F063E070E00E94981BAC0180E090E08A
:1038700060E070E02EE630E008E710E00E94732F71
:103880008AE590E09093FF028093FE028FE190E042
:1038900066EA7FEF44E150E028E230E002E310E026
:1038A0000E94513C84E190E09093FF028093FE02DD
:1038B00084E06816710419F40CEE1FEF02C005EBEA
:1038C0001FEF84E090E06CE070E040E150E020E029
:1038D00030E0F8E2EF2EF12CCC24DD240E947A4275
:1038E00084E090E06CE070E040E150E02AE130E0FC
:1038F00008E11CEF0E947A428CEE9FEF6AE570E0CF
:1039000048E250E028E230E000E010E00E94513C44
:1039100082EE9FEF9093FF028093FE0280E090E0A2
:103920006BEF7FEF4AE050E028E230E00E94B53ACA
:103930008CEE9FEF9093FF028093FE028CE090E06C
:1039400064E070E04BEF5FEF23E030E000E110E077
:10395000EE24FF24E8E2CE2ED12CAA24BB240E9420
:103960007F378AE090E064E070E04BEF5FEF25E0A6
:1039700030E00E947F378BEF9FEF64E070E048E11A
:103980005CEF23E030E0BAE1EB2EF12C0E947F37B0
:1039900080E090E065EF7FEF44E150E028E230E026
:1039A0000EEC1FEF0E94B53A0F2EF0E06F2EF0E004
:1039B0007F2EF0E08F2EF0E09F2EF02D6092DC0243
:1039C0007092DD028092DE029092DF026092C2026B
:1039D0007092C3028092C4029092C502CAE5D0E000
:1039E000D093FF02C093FE0280E090E060E070E0C0
:1039F00044E050E024EC30E005E010E0AAEAEA2ED2
:103A0000F12CFEE1CF2ED12CEEE1AE2EB12C0E9496
:103A100098446092DC027092DD028092DE02909205
:103A2000DF026092C2027092C3028092C40290923E
:103A3000C502D093FF02C093FE0283E090E06AE7E4
:103A400070E044E050E024EC30E00E949844109292
:103A5000FF021092FE02DF91CF911F910F91FF9014
:103A6000EF90DF90CF90BF90AF909F908F907F901E
:103A70006F900895EF92FF920F931F9380E090E074
:103A80006EEF7FEF40E050E020E030E00AE010E031
:103A9000E8E7EE2EF12C0E94363380E090E064E0FF
:103AA00070E040E050E020E030E00E94363380E0FB
:103AB00090E06AEF7FEF40E050E020E030E00E94CD
:103AC000363380E090E068E070E040E050E020E0D5
:103AD00030E00E94363380E090E066EF7FEF40E018
:103AE00050E020E030E00E9436331F910F91FF90AC
:103AF000EF900895CF92DF92EF92FF920F931F9372
:103B0000CF93DF930E94811BEC018091380290914A
:103B10003902BE010E94981BAC01009751F080E071
:103B200090E060E070E02CE330E002E810E00E94FA
:103B3000732FD0933902C09338020E943A1D82E05D
:103B400090E060E070E048EE53E028E230E002E30D
:103B500010E00E94A64880E090E068E170E04CE44C
:103B60005FEF28E230E00EEC1FEFACE3EA2EF12C21
:103B7000F2E8CF2ED12C0E94B7350E943A1D80E08A
:103B800090E0DC018093EA039093EB03A093EC03B5
:103B9000B093ED032091EA033091EB034091EC03E5
:103BA0005091ED032093E6033093E7034093E8033D
:103BB0005093E9032091E6033091E7034091E80335
:103BC0005091E9032093E2033093E3034093E4032D
:103BD0005093E5038093F6039093F703A093F803C3
:103BE000B093F9038091F6039091F703A091F80345
:103BF000B091F9038093F2039093F303A093F4033D
:103C0000B093F50382E090E060E070E048EE53E0AE
:103C10002EE130E008E210E00E94A64880E090E04B
:103C200061E070E040E050E02EE130E008ED1FEF91
:103C30000E94732F6091E6037091E7038091E8037F
:103C40009091E90390580E949D4D9B01AC0180E04A
:103C500090E0B90140E050E02EE130E00CE810E0E7
:103C60000E94732F8091380290913902029664E08D
:103C700070E00E9432539093390280933802DF91B2
:103C8000CF911F910F91FF90EF90DF90CF9008950B
:103C900090E0FC01B096FE2FEE2720812093FA03DE
:103CA00020FDFBCF8896B82FAA278C919081909306
:103CB000FA0390FDFBCF089590E08096F82FEE2751
:103CC00080818093FA0380FDFBCF608380818093A5
:103CD000FA0380FDFBCF089580E061E00E945C1E46
:103CE00082E061E00E945C1E81E061E00E945C1E57
:103CF0000895A82FB0E0FD01B096FE2FEE27808139
:103D00008093FA0380FDFBCF9896BA2FAA27872FBE
:103D1000992787FD9A958C9380818093FA0380FD83
:103D2000FBCF6C9380818093FA0380FDFBCF0895D5
:103D30001F93CF93DF93182F80E06FE10E945C1EEA
:103D4000C1E0D0E002C0CC0FDD1F1A95E2F780E0A1
:103D5000BE010E94791E81E06FE10E945C1E81E03D
:103D6000BE010E94791E82E06FE10E945C1E82E02B
:103D7000BE010E94791E80E061E00E945C1E82E02C
:103D800061E00E945C1E81E061E00E945C1EDF91A8
:103D9000CF911F910895DF92EF92FF920F931F939F
:103DA000D82E7A018B019B01552737FD5095452F61
:103DB000B9010E94791E8D2DB7010E94791E1F91B5
:103DC0000F91FF90EF90DF9008951F93182F60E000
:103DD0000E945C1E8CEC9CE10197F1F700C0000092
:103DE000812F6DE10E945C1E812F60E070E00E94D7
:103DF000791E1F910895AF92BF92CF92DF92EF92FA
:103E0000FF920F931F93CF93DF93F82E6B01EA017C
:103E10008901AA24A3946115710509F4AA24BB247D
:103E2000B394209709F4BB24EE24E3940115110503
:103E300009F4EE248F2D6EE10E945C1E6B2D70E064
:103E4000660F771F660F771F8A2D90E043E0880F7B
:103E5000991F4A95E1F7682B792B8E2D90E0880FFA
:103E6000991F682B792B8F2D0E94791EAA2021F093
:103E70008F2DB6010E94791EBB2021F08F2DBE012F
:103E80000E94791EEE2021F08F2DB8010E94791E2C
:103E90008F2D64E00E945C1EDF91CF911F910F91E6
:103EA000FF90EF90DF90CF90BF90AF9008958F92EA
:103EB0009F92AF92BF92CF92DF92EF92FF920F93B9
:103EC0001F93CF93DF93F82E4B016A01E901AA24D7
:103ED000A3946115710509F4AA24BB24B394C114F9
:103EE000D10409F4BB24EE24E394209709F4EE24D2
:103EF0008F2D6EE10E945C1E6A2D70E0A3E0660FBC
:103F0000771FAA95E1F761608B2D90E0880F991FCC
:103F1000880F991F682B792B8E2D90E0880F991FA1
:103F2000682B792B8F2D0E94791EAA2021F08F2DCE
:103F3000B4010E94791EBB2021F08F2DB6010E9492
:103F4000791EEE2021F08F2DBE010E94791E8F2D4B
:103F5000B8010E94791E8F2D64E00E945C1EDF91E3
:103F6000CF911F910F91FF90EF90DF90CF90BF9076
:103F7000AF909F908F900895DF92EF92FF920F93F2
:103F80001F93D82E7A018B016FE10E945C1E8D2D4C
:103F900060E270E00E94791E8D2DB801A7010E9499
:103FA000CB1E1F910F91FF90EF90DF90089580E05E
:103FB00060E170E040E050E020E430E00E94FB1E51
:103FC00081E060E170E040E050E020E430E00E94F9
:103FD000FB1E82E060E170E040E050E020E430E071
:103FE0000E94FB1E80E04FEF5FEF6FEF7FE30E94C8
:103FF000BC1F81E04FEF5FEF6FEF7FE30E94BC1FBC
:1040000082E04FEF5FEF6FEF7FE30E94BC1F0895E8
:10401000DF92EF92FF920F931F93DF93CF930F9254
:10402000CDB7DEB7D82E7A018B0177FF0AC0109585
:104030000095F094E094E11CF11C011D111D90E02D
:1040400001C091E08D2D6FE199830E945C1E9981E2
:10405000792F7295707F60E0686078608D2D0E9486
:10406000791E8D2DB801A7010E94CB1E0F90CF9114
:10407000DF911F910F91FF90EF90DF900895AF9225
:10408000BF92CF92DF92EF92FF920F931F93DF9335
:10409000CF93CDB7DEB72C970FB6F894DEBF0FBE27
:1040A000CDBF59016A010E94D04D69837A838B8309
:1040B0009C83C601B5010E94D04D6D837E838F83A2
:1040C0009887C801B7010E94D04D69877A878B878E
:1040D0009C878E010F5F1F4FEE24F8016081718174
:1040E0008281938121E73CEA4BE85EE30E94944F92
:1040F0009B01AC01F80121933193419351938F01BE
:1041000020E030E040E857E40E94944F0E949D4D2B
:10411000AB01BC018E2D0E940820E394FE2DF330EC
:10412000E1F60E946C1E2C960FB6F894DEBF0FBE0F
:10413000CDBFCF91DF911F910F91FF90EF90DF9056
:10414000CF90BF90AF9008954F925F926F927F9201
:104150008F929F92AF92BF92CF92DF92EF92FF9297
:104160000F931F93982E862E29013A016FE10E942A
:104170005C1E682D70E06A62892D0E94791E892D6F
:10418000B301A2010E94CB1E892DB801A7010E9494
:10419000CB1E892DB601A5010E94CB1E1F910F9148
:1041A000FF90EF90DF90CF90BF90AF909F908F9057
:1041B0007F906F905F904F9008959F92AF92BF92C3
:1041C000CF92DF92EF92FF920F931F93DF93CF93E3
:1041D00000D00F92CDB7DEB71ABA15BA8FEF84BBF5
:1041E0001092650083E08093640010E8A12EB4E88B
:1041F000BB2E6E010894C11CD11C85B3856085BBA4
:1042000083E39BE20197F1F785B38A7F85BBECECF2
:10421000FCE13197F1F700C00000809165008D7FCF
:1042200080936500AB9885B3887F85BB99B39983EC
:10423000A89A19B385B3887F826085BB09B3943C83
:1042400009F494C0943809F491C015BA80E060E094
:1042500043E951E00E94670181E060E049E951E0F3
:104260000E946701143C09F481C0143809F47EC02F
:1042700015BA80E060E043E951E00E94670182E006
:1042800060E049EA51E00E946701043C09F46EC015
:10429000043809F46BC015BA80E060E043E951E0EE
:1042A0000E94670183E060E049EB51E029C09E2C49
:1042B0009C18892D6DE10E945C1E892D60E070E0E4
:1042C0000E94791EF8018081F70181937F010050DF
:1042D0001F4FF3E200301F0751F78981803C99F0AE
:1042E000803889F085B78F7385BF15BA80E060E0AC
:1042F00049EC51E00E94670181E060E049E951E04A
:104300000E9467017ACF80E060E04FEC51E00E94AC
:10431000670180E098B3976098BB2FEF3FEB46E0D2
:10432000215030404040E1F700C0000098B3987F32
:1043300098BB2FEF3FEB46E0215030404040E1F783
:1043400000C000008F5F833029F70E94D8010F90D2
:104350000F900F90CF91DF911F910F91FF90EF90F1
:10436000DF90CF90BF90AF909F900895A5BE82E060
:1043700080936D00B0926C00760100E010E297CF60
:104380004F925F926F927F928F929F92AF92BF9265
:10439000CF92DF92EF92FF920F931F93CF93DF9311
:1043A00004E6802E912C84E00E947600982F80E015
:1043B000EC0185E00E94760090E08C2B9D2BB401EF
:1043C0000E943253882777FD8095982F0E94D04D08
:1043D000F62E072F182FE92E462E572E682E792EEF
:1043E00063015201E894D7F8C601B50120E030E03E
:1043F00044E353E40E94F94E1816ACF26091EE03C8
:104400007091EF038091F0039091F1032F2D302FE5
:10441000412F5E2D0E942E4D882309F4E5C06F2D9B
:10442000702F812F9E2D20E030E0A9010E942E4D9B
:1044300087FF5DC06091EE037091EF038091F00300
:104440009091F10320E030E0A9010E94F94E181686
:104450000CF04DC02091EE033091EF034091F0033A
:104460005091F1035F77C601B5010E94B74C20E07F
:1044700030E044E353E40E942E4D87FF15C0A09026
:10448000F203B090F303C090F403D090F5032091B1
:10449000EE033091EF034091F0035091F1036F2D43
:1044A000702F812F9E2D1CC0A090F203B090F303BB
:1044B000C090F403D090F5036091EE037091EF0388
:1044C0008091F0039091F1032F2D302F412F5E2D1D
:1044D0000E94B64C9B01AC0160E070E084EB93E479
:1044E0000E94B64C9B01AC01C601B50169C0C30175
:1044F000B20120E030E0A9010E94F94E18160CF03C
:1045000047C06091EE037091EF038091F0039091AA
:10451000F10320E030E0A9010E942E4D87FF38C052
:104520002091EE033091EF034091F0035091F1039D
:104530005F77C601B5010E94B74C20E030E044E34C
:1045400053E40E942E4D87FD23C0E090F203F090CB
:10455000F3030091F4031091F5032091EE033091E1
:10456000EF034091F0035091F103C301B2010E94A7
:10457000B64C9B01AC0160E070E084EB93E40E94D8
:10458000B64C9B01AC01C801B7010E94B64C1AC0E1
:10459000E090F203F090F3030091F4031091F5031F
:1045A0002091EE033091EF034091F0035091F1031D
:1045B000C301B2010E94B64C9B01AC01C801B70116
:1045C0000E94B74C9B01AC012093F2033093F3039C
:1045D0004093F4035093F5034092EE035092EF039F
:1045E0006092F0037092F103DF91CF911F910F91D0
:1045F000FF90EF90DF90CF90BF90AF909F908F9003
:104600007F906F905F904F9008952F923F924F92BE
:104610005F926F927F928F929F92AF92BF92CF9252
:10462000DF92EF92FF920F931F93DF93CF93CDB75B
:10463000DEB762970FB6F894DEBF0FBECDBF6983B9
:104640007A838B839C832D833E834F8358873701E6
:10465000480160E070E084E394E4A60195010E94C3
:10466000B64C162F072FF82EE92E8D819E81AF8133
:10467000B8858093FB039093FC03A093FD03B09354
:10468000FE0389819A81AB81BC81809391049093D0
:104690009204A0939304B0939404A0920704B09260
:1046A0000804C0920904D0920A04C601B50120E0B2
:1046B00030E044E353E40E942E4D181684F0A80124
:1046C0009701652F742F832F922F20E030E044EB69
:1046D00053E40E94B64C162F072FF82EE92EA8019E
:1046E0009701652F702F832F9E2D20E030E044EB43
:1046F00052E40E94B64C69877A878B879C87C401F5
:10470000B30123EF36E64FE55EE30E94944F6D87D9
:104710007E878F87988B80E090E036E9432E512C7E
:1047200028E6222E21E0322E9A8B898BB20188272F
:1047300077FD8095982F0E94D04D5B016C01C201DE
:1047400088589F4FB1010E9432532C01C601B50118
:10475000D801F7012B2F302F4F2F5E2D0E94B64C22
:1047600025E33AEF4EE85CE30E94944F0E94324DFD
:104770003B014C01C601B501B985AA85AB84DC8437
:104780002B2F3A2F4A2D5D2D0E94B64C25E33AEF90
:104790004EE85CE30E94944F0E94324D5B016C0135
:1047A0006D817E818F819885A40193010E94944F31
:1047B0003B014C0169817A818B819C81A601950125
:1047C0000E94944F9B01AC01C401B3010E94B74CFD
:1047D000BD85AE85DF84A8882B2F3A2F4D2D5A2D0D
:1047E0000E94B64C2FE632E143E856E40E94944F13
:1047F00023E333E343E250EC0E94944F0E949D4D2B
:10480000AB01BC0189890E940820A989BA89119647
:10481000BA8BA98BA330B10509F088CF0E946C1E1A
:104820000E94C02162960FB6F894DEBF0FBECDBFC6
:10483000CF91DF911F910F91FF90EF90DF90CF907C
:10484000BF90AF909F908F907F906F905F904F90B0
:104850003F902F9008952F923F924F925F926F92C8
:104860007F928F929F92AF92BF92CF92DF92EF9200
:10487000FF920F931F93DF93CF93CDB7DEB72C97A3
:104880000FB6F894DEBF0FBECDBF5B016C013901DE
:104890004A01170128016091F2037091F30380919E
:1048A000F4039091F5032091F6033091F7034091C2
:1048B000F8035091F903E090F203F090F3030091B4
:1048C000F4031091F503E092F603F092F7030093DE
:1048D000F8031093F903E090EA03F090EB030091E2
:1048E000EC031091ED030E94B64C9B01AC01C80192
:1048F000B7010E94B64C9B01AC012093EA033093B0
:10490000EB034093EC035093ED03C601B50120E0A7
:1049100030E0A9010E942E4D882351F4C401B30157
:1049200020E030E0A9010E942E4D882309F4D2C076
:10493000C601B50120E030E048EC52E40E94354D5C
:1049400069837A838B839C83C401B30120E030E0C8
:1049500048EC52E40E94354D6D837E838F839887A7
:104960006091EA037091EB038091EC039091ED0369
:10497000A20191010E94B64CF62E072F182FE92EA6
:104980008091E2039091E303A091E403B091E503E9
:1049900089879A87AB87BC876F2D702F812F9E2DBB
:1049A00025E33AEF4EE85CE30E94944F0E94324DBB
:1049B0003B014C016F2D702F812F9E2D20E030E0A8
:1049C00044EB52E40E94B74C25E33AEF4EE85CE337
:1049D0000E94944F0E94324D5B016C0159814A81C3
:1049E0003B812C81652F742F832F922FA40193017B
:1049F0000E94944F1B012C015D814E813F812885CF
:104A0000652F742F832F922FA60195010E94944F3A
:104A10009B01AC01C201B1010E94B74C9B01AC01EA
:104A200069857A858B859C850E94B74C9B01AC017A
:104A30002093E2033093E3034093E4035093E503B0
:104A40002090E6033090E7034090E8035090E9039C
:104A50006F2D702F812F9E2D20E030E044EB52E42B
:104A60000E94B64C25E33AEF4EE85CE30E94944F77
:104A70000E94324D7B018C015D814E813F812885F2
:104A8000652F742F832F922FA40193010E94944FBE
:104A90005B016C0159814A813B812C81652F742F08
:104AA000832F922FA80197010E94944F9B01AC0184
:104AB000C601B5010E94B74C9B01AC01C201B10116
:104AC0000E94B74C9B01AC01E2EEF3E024833583F6
:104AD000468357832C960FB6F894DEBF0FBECDBF2A
:104AE000CF91DF911F910F91FF90EF90DF90CF90CA
:104AF000BF90AF909F908F907F906F905F904F90FE
:104B00003F902F9008952F923F924F925F926F9215
:104B10007F928F929F92AF92BF92CF92DF92EF924D
:104B2000FF920F931F93DF93CF93CDB7DEB72E97EE
:104B30000FB6F894DEBF0FBECDBF180187019A8370
:104B400089837C836B83509541955F4F5E834D8352
:104B5000309521953F4F38872F83CE0101969A8754
:104B6000898779E0472E512C4C0E5D1E7C0166240E
:104B70007724CC24DD24D7016D917D917D01882798
:104B800077FD8095982F0E94D04D4B015C01E894F1
:104B9000B7F8662D772D8C2D9D2DA50194010E94CF
:104BA0002E4D87FF02C034016501E414F50419F7A6
:104BB000EE24FF24C101AA2797FDA095BA2F8B8769
:104BC0009C87AD87BE87A985BA85AD90BD90BA8711
:104BD000A9876B857C858D859E850E94D04D1B01A4
:104BE0002C01B501882777FD8095982F0E94D04D24
:104BF000262D372D4C2D5D2D0E94354DA2019101A2
:104C00000E94944F9B01AC01F701EE0FFF1FEE0FC6
:104C1000FF1FE555FB4F2083318342835383089464
:104C2000E11CF11CB4E0EB16F10469F60436110541
:104C30002CF40115110509F051C005C00436110509
:104C400011F00456104091E0E92EF12C662D772DDD
:104C50008C2D9D2D20E030E048EC52E40E94944FD2
:104C6000A20191010E94354D0E941B4D5B016C0118
:104C7000970122503040C80117FF03C090958195DD
:104C80009F4FB7010E943253620F731F882777FD31
:104C90008095982F0E94D04D9B01AC01C601B501B3
:104CA0000E94B74C0E949D4DCB012E960FB6F894F2
:104CB000DEBF0FBECDBFCF91DF911F910F91FF904F
:104CC000EF90DF90CF90BF90AF909F908F907F90AC
:104CD0006F905F904F903F902F90089582E0E82E64
:104CE000F12CB4CF2F923F924F925F926F927F92AE
:104CF0008F929F92AF92BF92CF92DF92EF92FF92EC
:104D00000F931F93DF93CF93CDB7DEB72E970FB6D8
:104D1000F894DEBF0FBECDBF7A8369836536710517
:104D200014F0645670404B0177FF04C08824992426
:104D3000861A970AE090D802F090D902A7014F5F37
:104D40005F4F9C012E193F0900E010E05A01CC246E
:104D5000B7FCC094DC2CAB82BC82CD82DE82140115
:104D6000442437FC4094542C6C01C818D908D886C8
:104D7000CF82C901AA2797FDA095BA2F89879A8764
:104D8000AB87BC877E876D873401F7FC34C0AD8567
:104D9000BE85B7FD2DC04801880C991C880C991C54
:104DA000F401E555FB4FA080B180C280D3806B81B8
:104DB0007C818D819E810E94D04D9B01AC01C601FA
:104DC000B5010E94944F5B016C01C201B1010E94C8
:104DD000D04D9B01AC01C601B5010E94354D9B0130
:104DE000AC01F401E354FB4F2083318342835383AE
:104DF000E614F70424F4ED85FE85F7FF13C098014F
:104E0000220F331F220F331FF901E555FB4F80811D
:104E10009181A281B38123543B4FF9018083918317
:104E2000A283B383AF80B884AE14BF0494F54981E4
:104E30005A814536510568F14801880C991C880C47
:104E4000991CF401E555FB4FA080B180C280D3804E
:104E500069857A858B859C850E94D04D9B01AC012C
:104E6000C601B5010E94944F5B016C01C201B10102
:104E70000E94D04D9B01AC01C601B5010E94354D89
:104E80009B01AC01F401E354FB4F20833183428347
:104E900053830F5F1F4F0430110509F076CF2E9614
:104EA0000FB6F894DEBF0FBECDBFCF91DF911F913B
:104EB0000F91FF90EF90DF90CF90BF90AF909F90B9
:104EC0008F907F906F905F904F903F902F900895BC
:104ED00081E090E00A9B02C080E090E0909306049D
:104EE0008093050481E090E00B9B02C080E090E09D
:104EF000909302048093010481E090E00C9B02C037
:104F000080E090E09093BC048093BB0481E090E04B
:104F1000849B02C080E090E090930404809303049B
:104F200081E090E0869B02C080E090E09093900446
:104F300080938F042091630081E090E023FF02C002
:104F400080E090E090930C0480930B042091630028
:104F500081E090E024FF02C080E090E090930004A4
:104F60008093FF0308951F920F920FB60F920BB616
:104F70000F921124EF92FF920F931F932F933F9361
:104F80004F935F936F937F938F939F93AF93BF9351
:104F9000EF93FF938FEF8DBD80E78CBD6091C202D0
:104FA0007091C3028091C4029091C5022AE037ED4E
:104FB00043EA5CE30E94B74C7B018C017F2D912F6B
:104FC00020E030E040E85FE30E94F94E181624F438
:104FD000EE24FF2400E81FE38E2D9F2DA02FB12F7C
:104FE0008093C2029093C302A093C402B093C502FF
:104FF0006091DC027091DD028091DE029091DF020F
:105000002AE037ED43EA5CE30E94B74C7B018C0158
:105010007F2D912F20E030E040E85FE30E94F94EC1
:10502000181624F4EE24FF2400E81FE38E2D9F2D94
:10503000A02FB12F8093DC029093DD02A093DE02BB
:10504000B093DF026091C6027091C7028091C802DE
:105050009091C9022DEC3CEC4CE45DE30E94B74C0E
:10506000F62EE72E8C01A701652F742F912F20E0DB
:1050700030E040E85FE30E94F94E181624F4FF2464
:10508000EE2400E81FE3A701852F9E2DA02FB12F4E
:105090008093C6029093C702A093C802B093C9023E
:1050A0000E94682780910504909106040097B1F052
:1050B0008091C0029091C102009781F48091CA0250
:1050C0009091CB0201969093CB028093CA0281E02B
:1050D00090E09093C1028093C00210C080910504BB
:1050E00090910604009751F48091C0029091C10202
:1050F000009721F01092C1021092C0028091010429
:1051000090910204009731F18091F6029091F7029C
:10511000009701F58091000390910103019690930F
:1051200001038093000321E030E03093F7022093E5
:10513000F6028091A9049091AA04FC01EE0FFF1FD2
:10514000E959FB4F3183208301969093AA04809301
:10515000A90410C08091010490910204009751F4B9
:105160008091F6029091F702009721F01092F702D9
:105170001092F6028091BB049091BC040097B1F0AC
:105180008091F2029091F302009781F48091F002F5
:105190009091F10201969093F1028093F00281E0E8
:1051A00090E09093F3028093F20210C08091BB04D0
:1051B0009091BC04009751F48091F2029091F30217
:1051C000009721F01092F3021092F20280910304F2
:1051D000909104040097B1F08091EE029091EF025B
:1051E000009781F48091F8029091F90201969093D2
:1051F000F9028093F80281E090E09093EF028093AF
:10520000EE0210C08091030490910404009751F4C1
:105210008091EE029091EF02009721F01092EF0240
:105220001092EE0280918F04909190040097B1F05B
:105230008091DA029091DB02009781F48091FA026A
:105240009091FB0201969093FB028093FA0281E019
:1052500090E09093DB028093DA0210C080918F047B
:1052600090919004009751F48091DA029091DB02C2
:10527000009721F01092DB021092DA0280910B0469
:1052800090910C04009741F18091F4029091F50205
:10529000009711F58091EC029091ED0201969093A8
:1052A000ED028093EC0281E090E09093F502809310
:1052B000F4028091A9049091AA04FC01EE0FFF1F53
:1052C000E959FB4F22E030E031832083019690932F
:1052D000AA048093A90410C080910B0490910C043F
:1052E000009751F48091F4029091F502009721F01B
:1052F0001092F5021092F4028091FF039091000445
:105300000097B1F08091D6029091D702009781F476
:10531000809102039091030301969093030380937D
:10532000020381E090E09093D7028093D60210C0F0
:105330008091FF0390910004009751F48091D60270
:105340009091D702009721F01092D7021092D602C6
:105350008091D8029091D902009729F001969093FC
:10536000D9028093D8028091B0029091B102009747
:1053700049F08091B0029091B10201979093B102EF
:105380008093B0028091FC029091FD02009749F059
:105390008091FC029091FD0201969093FD02809312
:1053A000FC028091EA029091EB02009729F00196AD
:1053B0009093EB028093EA028091A9049091AA0451
:1053C0008431910524F01092AA041092A9046091EE
:1053D000910470919204809193049091940420918F
:1053E000FB033091FC034091FD035091FE03E090DC
:1053F0000704F09008040091090410910A040E9427
:105400002B24FF91EF91BF91AF919F918F917F914D
:105410006F915F914F913F912F911F910F91FF904D
:10542000EF900F900BBE0F900FBE0F901F9018952E
:10543000AF92BF92CF92DF92EF92FF920F931F93A2
:1054400060E070E0CB019B01AC017B018C015B0152
:105450006C010E9405231F910F91FF90EF90DF9048
:10546000CF90BF90AF900895FC01E453FD4F808131
:1054700090E0681779076CF08091EA029091EB0256
:10548000009759F481E090E09093EB028093EA0258
:1054900004C01092EB021092EA0221E030E0809109
:1054A000EA029091EB028330910514F420E030E0A1
:1054B000C90108951F93182F81E10E943E01812F99
:1054C0000E943E01809134028823E1F30E942B0167
:1054D000882391F31F9108954F925F926F927F926C
:1054E0008F929F92AF92BF92CF92DF92EF92FF92F4
:1054F0000F931F93CF93DF938C013B01C1E0D0E06A
:10550000CC24DD248FEFA82EB12C88249924EE24FE
:10551000FF2444245524401A510A14C0602F17FD5B
:10552000642D8C2F0E947C4B90E0C816D90614F491
:105530006C017E018A159B0524F4009711F05C0133
:105540004E0121966C167D064CF7101611060CF0D4
:105550007401C701DF91CF911F910F91FF90EF90E0
:10556000DF90CF90BF90AF909F908F907F906F9083
:105570005F904F9008956F927F928F929F92AF921B
:10558000BF92CF92DF92EF92FF920F931F93D62E8E
:10559000C72EB82EA92E922E832E742E652E6E2D18
:1055A0007F2D802F912FD601F5012B2F3A2F4F2FD2
:1055B0005E2F0E94F94E1816ACF06E2D7F2D802FB5
:1055C000912FD401F3012B2F3A2F4F2F5E2F0E94E2
:1055D0002E4D87FF03C06401530104C0DE2CCF2C85
:1055E000B02EA12EA6019501652F7C2D832F9A2D1B
:1055F0001F910F91FF90EF90DF90CF90BF90AF90F1
:105600009F908F907F906F9008952F923F925F921E
:105610006F927F928F929F92AF92BF92CF92DF92C2
:10562000EF92FF920F931F93DF93CF93CDB7DEB727
:1056300028970FB6F894DEBF0FBECDBF582E4B0192
:105640005A8349831092EB021092EA021092B1023F
:105650001092B0028091B0029091B1029093CE046A
:105660008093CD048091CD049091CE049093D90283
:105670008093D80260E070E080E090E0DC018B0174
:10568000000F111F000F111F980123543B4FF90108
:1056900080839183A283B3832081318142815381AE
:1056A000F801E555FB4F20833183428353836F5FBD
:1056B0007F4F6430710519F700D000D000D0EDB7EE
:1056C000FEB7319605E914E0ADB7BEB712961C934C
:1056D0000E93119783EE91E09383828388EE91E09D
:1056E000958384830E94864CEDB7FEB736960FB63D
:1056F000F894FEBF0FBEEDBF80E067E0A8010E94F6
:1057000067011092FD021092FC02852D66E60E9450
:105710007C4BA82EE090EA03F090EB030091EC03A1
:105720001091ED03B401882777FD8095982F0E9492
:10573000D04DA80197010E94B74C0E949D4D4B018E
:105740008A189108882777FD8095982F0E94D04D60
:105750005B016C01B401882777FD8095982F0E942A
:10576000D04D7B018C01C40168E572E00E94325388
:10577000882777FD8095982F0E94D04D2FE832EC36
:1057800045E75EE30E94B74C9B01AC01C801B7013D
:105790000E94944F9B01AC01C601B5010E94B74C19
:1057A0000E949D4D1B018824992491E0692E712C43
:1057B0003C822B8214018091B0029091B10200973B
:1057C000D1F77092B1026092B002852D66E60E9418
:1057D0007C4BE82EFF24852D67E60E947C4B38C069
:1057E0000E94182A852D66E60E947C4BE82E852DA6
:1057F00067E60E947C4B2091FC023091FD0221154E
:10580000310521F47092FD026092FC022091FC02AD
:105810003091FD02F1E02F353F071CF00E94182A5D
:1058200012C1FF24E114F10499F020E030E0A90155
:105830002093DC023093DD024093DE025093DF02BE
:105840002093C2023093C3024093C4025093C50216
:10585000082F10E0E114F10421F40115110509F4F9
:10586000BFCF4B815C814115510591F0E41AF50AD7
:10587000B701882777FD8095982F0E94D04D2DEC99
:105880003CEC4CE45FE30E94944F0E949D4D1B0151
:1058900089819A81009719F04C01801A910AB1010F
:1058A000882777FD8095982F0E94D04D7B018C0131
:1058B00060E070E088E492E420E030E048E452ECFC
:1058C0000E94BB2A0E949D4D1B01B401882777FDD1
:1058D0008095982F0E94D04D7B018C0160E070E094
:1058E00080E792E420E030E040E752EC0E94BB2ADF
:1058F0000E949D4D4B01A090EA03B090EB03C09035
:10590000EC03D090ED03B401882777FD8095982FA4
:105910000E94D04D2091DC023091DD024091DE02E8
:105920005091DF020E94944F2DEC3CEC4CE45FE37D
:105930000E94944F6D837E838F839887B10188275F
:1059400077FD8095982F0E94D04D2091C202309112
:10595000C3024091C4025091C5020E94944F7B0142
:105960008C016091FE027091FF02882777FD80957F
:10597000982F0E94D04DA60195010E94B74C5B0163
:105980006C0160E070E0CB012D813E814F81588534
:105990000E9405238091D8029091D902009721F4AA
:1059A0007092D9026092D8028091D8029091D90267
:1059B000A1E08F359A0754F42114310409F0FBCE8D
:1059C000C40101968330910508F0F5CE1092EB02E8
:1059D0001092EA0280E090E0DC018093070490934B
:1059E0000804A0930904B0930A04809107049091DD
:1059F0000804A0910904B0910A0480939104909343
:105A00009204A0939304B093940480919104909194
:105A10009204A0919304B09194048093FB0390931B
:105A2000FC03A093FD03B093FE036091FB03709110
:105A3000FC038091FD039091FE030E949D4D7093A5
:105A4000D9026093D80228960FB6F894DEBF0FBE35
:105A5000CDBFCF91DF911F910F91FF90EF90DF901D
:105A6000CF90BF90AF909F908F907F906F905F90FE
:105A70003F902F9008952F923F925F926F927F9266
:105A80008F929F92AF92BF92CF92DF92EF92FF924E
:105A90000F931F93DF93CF93CDB7DEB760970FB609
:105AA000F894DEBF0FBECDBF582E7A8369835C8326
:105AB0004B833E832D831092EB021092EA021092E8
:105AC000B1021092B0028091B0029091B102909315
:105AD000CE048093CD048091CD049091CE04909318
