:100000000C9455000C9474000C9474000C947400BF
:100010000C9474000C9474000C9474000C94740090
:100020000C9474000C9474000C9474000C94740080
:100030000C9474000C9474000C94992D0C9474001E
:100040000C9474000C9474000C94D64F0C947400AF
:100050000C9474000C9474000C9474000C94740050
:100060000C9474000C9474000C9474000C94740040
:100070000C9474000C9474000C940A010C94740099
:100080000C9474000C9474000C94740005A84CCD6E
:10009000B2D44EB93836A9020C50B9918688083CC2
:1000A000A6AAAA2ABE000000803F11241FBECFEFDF
:1000B000D0E1DEBFCDBF12E0A0E0B1E0ECEAFEEAA5
:1000C00000E00BBF02C007900D92AC31B107D9F729
:1000D00013E0ACE1B2E001C01D92A537B107E1F732
:1000E0000E9463070C947E500C94000094EA909355
:1000F00074009091740097FFFCCF9AE09093730086
:1001000094E8909374009091740097FFFCCF8093D3
:10011000730084E8809374008091740087FFFCCFA3
:1001200084E98093740084EA809374008091740061
:1001300087FFFCCF8BE08093730084E8809374008A
:100140008091740087FFFCCF84E8809374008091D5
:10015000740087FFFCCF8091730094E99093740042
:10016000089594EA909374009091740097FFFCCFE7
:100170009AE09093730094E89093740090917400C7
:1001800097FFFCCF8093730084E880937400809184
:10019000740087FFFCCF6093730084E88093740041
:1001A0008091740087FFFCCF84E9809374000895E8
:1001B00010929B0088E980939A0086E080939D00CE
:1001C000109298008FE580939900789408951F937A
:1001D0001FEF1093730081E4809370000E94C32688
:1001E0000E94C24F0E94D8000E94BD251FBC85E01E
:1001F0008EBD1DBD80E78CBD84E087BF78948FE005
:1002000087BB81B3807F81BB84B3806F84BB18BA06
:100210001F9108951F920F920FB60F9211248F9382
:10022000DF93CF930F92CDB7DEB780919C00898387
:1002300080919B00887BE1F381E080931C0289819F
:1002400080931D020F90CF91DF918F910F900FBE81
:100250000F901F901895DF93CF930F92CDB7DEB715
:1002600080911D02898310921D02F89410921C0245
:10027000789489810F90CF91DF91089590919B00A0
:1002800095FFFCCF80939C000895CF93DF93E4E724
:10029000F0E094EA9083A1EEB2E01197F1F700004C
:1002A000A3E7B0E09EE09C9394E89083C1EED2E097
:1002B0002197F1F700008C93908381EE92E00197F3
:1002C000F1F7000084E98083DF91CF910895EF92E8
:1002D000FF920F931F93DF93CF9300D0CDB7DEB77C
:1002E000082F162F843070F5643160F58BE1498357
:1002F0005A830E9445018CE40E944501812F0E948F
:100300004501802F0E94450180E791E00197F1F7B8
:1003100000C0E12EFF2449815A81042F152F06C009
:100320000E94450194EC9A95F1F700C0E4E1EE16C5
:10033000F10444F4F80181918F010894E11CF11C4F
:10034000882371F70F900F90CF91DF911F910F913C
:10035000FF90EF9008951F93DF93CF9300D0CDB718
:10036000DEB7182F8430F0F46431E0F48BE12A8397
:1003700069830E9445018CE40E9445016981862FB2
:100380000E944501812F0E94450180E791E001977D
:10039000F1F700C02A81822F0E94450194EC9A95C2
:1003A000F1F700C00F900F90CF91DF911F9108954A
:1003B0008BE10E94450183E40E94450186E696EEAA
:1003C000A0E081509040A040E1F70895EF92FF92A5
:1003D0000F931F93182FF62EE42E842F64E60E94AD
:1003E0002157082F282F30E0205D3F4F442737FD4D
:1003F0004095542F812F6F2D0E94AB018CE9089FEF
:10040000002D11240E0D802F6AE00E942157E82E46
:100410006F2D6F5F282F30E0205D3F4F442737FD61
:100420004095542F812F0E94AB016F2D6E5F26EFF8
:10043000E29E202D1124200F30E0205D3F4F442705
:1004400037FD4095542F812F0E94AB011F910F91D2
:10045000FF90EF900895AF92BF92CF92DF92EF920C
:10046000FF920F931F93CF93DF9380E090E0DC0126
:1004700080935E0290935F02A0936002B09361024A
:100480008093440290934502A0934602B0934702A2
:100490008AE590E0909381028093800286E090E06C
:1004A00060E970E044E050E02FEB30E005E010E060
:1004B000ADEAEA2EF12CFEE1CF2ED12CEEE1AE2EEC
:1004C000B12C0E94B64810928102109280028CE0FA
:1004D0000E94A54F80E062E10E94874F8823D1F3FC
:1004E0000E94014E80E063E10E94874F8823D1F390
:1004F000E0912C02F0912D0260912E0270912F025A
:10050000409130025091310280E090E0DC01AA0F6E
:10051000BB1F9C0113E0220F331F1A95E1F7A20FB6
:10052000B31FAD54BD4F2D913C911197211531054D
:1005300009F473C012962D913C9113972F523040BD
:1005400037FF03C0309521953F4F2431310584F4A6
:10055000FC01EE0FFF1F9C01A3E0220F331FAA95A1
:10056000E1F7E20FF31FED54FD4F0190F081E02D14
:10057000DC01AA0FBB1F9C0113E0220F331F1A9549
:10058000E1F7A20FB31FAD54BD4F12962D913C91D0
:1005900013972457304037FF03C0309521953F4FC4
:1005A000243131057CF4DC01AA0FBB1F9C0163E000
:1005B000220F331F6A95E1F7A20FB31FAD54BD4F51
:1005C0006D917C91DC01AA0FBB1F9C0113E0220FEF
:1005D000331F1A95E1F7A20FB31FAD54BD4F12960A
:1005E0002D913C9113972A5B304037FF03C0309523
:1005F00021953F4F2431310584F4DC01AA0FBB1F44
:100600009C0113E0220F331F1A95E1F7A20FB31FCD
:10061000AD54BD4F4D915C91119701968930910574
:1006200009F074CFF0932D02E0932C0270932F0207
:1006300060932E0250933102409330020E94D80101
:100640008DB79EB70A970FB6F8949EBF0FBE8DBFA9
:10065000EDB7FEB73196CBE3D3E0ADB7BEB7129698
:10066000DC93CE93119780E091E093838283809115
:100670002C0290912D029583848380912E0290917B
:100680002F02978386838091300290913102918767
:1006900080870E9481508DB79EB70A960FB6F89456
:1006A0009EBF0FBE8DBF81E061E0AE010E94670179
:1006B00080911E0290911F02009731F00E94FE2F40
:1006C000B59BFECFB599FECF8091860290918702AF
:1006D00020912C0230912D022817390779F02091B2
:1006E0002E0230912F022817390741F02091300255
:1006F000309131022817390709F041C18CEF9FEF83
:1007000066E170E040E050E024E130E002E810E013
:100710000E9459358BE00E94A54F0F2EF0E0CF2E9E
:10072000F0E0DF2EF0E0EF2EF0E0FF2EF02DC09293
:100730005E02D0925F02E0926002F0926102C0928B
:100740004402D0924502E0924602F0924702809124
:100750002E0290912F0260E070E04DE850E025E617
:1007600030E00E94213320912C0230912D028091A3
:100770008602909187022817390709F044C086EF56
:100780009FEF60E070E040E050E024E130E00E9444
:100790005935C0925E02D0925F02E0926002F09200
:1007A0006102C0924402D0924502E0924602F09269
:1007B0004702809186029091870260E070E04DE8E8
:1007C00050E025E630E00E94213380E090E06DE0CB
:1007D00070E040E050E024E130E00E94593580E0D4
:1007E00090E063EF7FEF40E050E024E130E00E94D2
:1007F00059358AE090E060E070E040E050E024E1AC
:1008000030E00E94593580912E0290912F02209164
:100810008602309187028217930789F520E030E045
:10082000A90120935E0230935F02409360025093CF
:100830006102209344023093450240934602509354
:10084000470260E070E04DE850E025E630E00E94AD
:10085000213380E090E06DE070E040E050E024E182
:1008600030E002E810E00E94593580E090E063EF4C
:100870007FEF40E050E024E130E00E9459352091C4
:1008800030023091310280918602909187022817C0
:10089000390709F049C08AE090E060E070E040E08C
:1008A00050E024E130E002E810E00E94593580E099
:1008B00090E0DC0180935E0290935F02A09360025F
:1008C000B09361028093440290934502A093460244
:1008D000B0934702809186029091870260E070E0B9
:1008E0004DE850E025E630E00E94213380E090E0C2
:1008F0006DE070E040E050E024E130E00E945935C6
:1009000080E090E063EF7FEF40E050E024E130E0F2
:100910000E94593586EF9FEF60E070E040E050E0C4
:1009200024E130E00E94593582E090E06EEE7FEFE6
:1009300040E050E02EE130E008E210E00E9459353E
:100940008AE590E0909381028093800286E090E0B7
:1009500060E970E044E050E02FEB30E005E010E0AB
:10096000ADEAEA2EF12CFEE1CF2ED12CEEE1AE2E37
:10097000B12C0E94B648109281021092800286E04B
:10098000ECE2F2E0DF011D928A95E9F760E070E0A9
:100990008CE892E444E650E00E944D4286E490E008
:1009A000909381028093800280E062E10E94874FF1
:1009B0008823D1F30E94014E80E063E10E94874FBB
:1009C0008823D1F3E0912C02F0912D0260912E0248
:1009D00070912F02409130025091310280E090E0FE
:1009E000DC01AA0FBB1F9C0113E0220F331F1A95D5
:1009F000E1F7A20FB31FAD54BD4F2D913C9111975C
:100A00002115310509F473C012962D913C9113976D
:100A10002053304037FF03C0309521953F4F24319C
:100A2000310584F4FC01EE0FFF1F9C01A3E0220FAF
:100A3000331FAA95E1F7E20FF31FED54FD4F01902C
:100A4000F081E02DDC01AA0FBB1F9C0113E0220FF7
:100A5000331F1A95E1F7A20FB31FAD54BD4F129685
:100A60002D913C9113972158304037FF03C03095AA
:100A700021953F4F243131057CF4DC01AA0FBB1FC7
:100A80009C0163E0220F331F6A95E1F7A20FB31FA9
:100A9000AD54BD4F6D917C91DC01AA0FBB1F9C0131
:100AA00013E0220F331F1A95E1F7A20FB31FAD54C5
:100AB000BD4F12962D913C911397235C304037FF28
:100AC00003C0309521953F4F2431310584F4DC017A
:100AD000AA0FBB1F9C0113E0220F331F1A95E1F7E9
:100AE000A20FB31FAD54BD4F4D915C91119701966C
:100AF0008930910509F074CFF0932D02E0932C0218
:100B000070932F0260932E02509331024093300273
:100B10000E94D8018DB79EB70A970FB6F8949EBF72
:100B20000FBE8DBFEDB7FEB73196CBE3D3E0ADB7C7
:100B3000BEB71296DC93CE93119780E091E0938339
:100B4000828380912C0290912D02958384838091E1
:100B50002E0290912F02978386838091300290918C
:100B60003102918780870E9481508DB79EB70A9687
:100B70000FB6F8949EBF0FBE8DBF81E061E0AE015D
:100B80000E94670180911E0290911F02009731F030
:100B90000E94FE2FB59BFECFB599FECF80918602B5
:100BA0009091870220912C0230912D02281739074D
:100BB00079F020912E0230912F022817390741F049
:100BC00020913002309131022817390709F02FC1E6
:100BD00084EF9FEF64E170E044E150E02EE130E00B
:100BE0000CE810E0EEE1EE2EF12C0E94AB431092E7
:100BF0008102109280028BE00E94A54F0F2EF0E040
:100C0000CF2EF0E0DF2EF0E0EF2EF0E0FF2EF02D03
:100C1000C0925E02D0925F02E0926002F0926102A6
:100C2000C0924402D0924502E0924602F0924702FE
:100C300080912E0290912F0260E070E04DE850E02C
:100C400025E630E00E94213320912C0230912D02C4
:100C500080918602909187022817390709F046C0D3
:100C600086EF9FEF60E070E040E050E024E130E08C
:100C700002E810E00E945935C0925E02D0925F02F5
:100C8000E0926002F0926102C0924402D09245026A
:100C9000E0924602F092470280918602909187028C
:100CA00060E070E04DE850E025E630E00E9421333E
:100CB00080E090E06DE070E040E050E024E130E062
:100CC0000E94593580E090E063EF7FEF40E050E014
:100CD00024E130E00E9459358AE090E060E070E065
:100CE00040E050E024E130E00E94593580912E022E
:100CF00090912F02209186023091870282179307EC
:100D000089F520E030E0A90120935E0230935F0274
:100D10004093600250936102209344023093450255
:100D2000409346025093470260E070E04DE850E087
:100D300025E630E00E94213380E090E06DE070E035
:100D400040E050E024E130E002E810E00E94593534
:100D500080E090E063EF7FEF40E050E024E130E09E
:100D60000E945935209130023091310280918602E3
:100D7000909187022817390709F049C08AE090E06E
:100D800060E070E040E050E024E130E002E810E094
:100D90000E94593580E090E0DC0180935E029093E0
:100DA0005F02A0936002B09361028093440290932B
:100DB0004502A0934602B09347028091860290912B
:100DC000870260E070E04DE850E025E630E00E94E8
:100DD000213380E090E06DE070E040E050E024E1FD
:100DE00030E00E94593580E090E063EF7FEF40E013
:100DF00050E024E130E00E94593586EF9FEF60E03B
:100E000070E040E050E024E130E00E9459358EEE81
:100E10009FEF68EF7FEF46EA5FEF24E130E004E107
:100E200010E0B2E8EB2EF12C0E94AB4308C060E06A
:100E300070E08CE892EC44E650E00E944D4280E085
:100E400090E0DC0180935E0290935F02A0936002C9
:100E5000B09361028093440290934502A0934602AE
:100E6000B09347028AE590E09093810280938002DC
:100E700086E090E060E970E044E050E02FEB30E085
:100E800005E010E0ADEAEA2EF12CFEE1CF2ED12CE8
:100E9000EEE1AE2EB12C0E94B64810928102109263
:100EA000800286E0ECE2F2E0DF011D928A95E9F72C
:100EB000DF91CF911F910F91FF90EF90DF90CF9036
:100EC000BF90AF9008952F923F924F925F926F9292
:100ED0007F928F929F92AF92BF92CF92DF92EF92CA
:100EE000FF920F931F93DF93CF9300D0CDB7DEB760
:100EF0000E94E7008EE161E00E94B1008EE165E0B2
:100F00000E94B1008EE164E10E94B1008EE160E1D7
:100F10000E94B1000E946D4F8BE00E94A54F82E3BA
:100F20000E94403080E063E10E94874F8823D1F324
:100F30000FEF1FE726E1015010402040E1F700C00D
:100F4000000080E090E0DC01809390029093910299
:100F5000A0939202B093930220919002309191025B
:100F6000409192025091930220938C0230938D0213
:100F700040938E0250938F0220918C0230918D020B
:100F800040918E0250918F02209388023093890203
:100F900040938A0250938B0280939C0290939D020F
:100FA000A0939E02B0939F0280919C0290919D021B
:100FB000A0919E02B0919F02809398029093990213
:100FC000A0939A02B0939B02C39A2FEF3FE744E0AD
:100FD000215030404040E1F700C00000C3980F2E80
:100FE000F0E06F2EF0E07F2EF0E08F2EF0E09F2EED
:100FF000F02D0BE3402E03E0502EB49914C08091E5
:101000001E0290911F02019790931F0280931E026F
:10101000C39A4FEF5FE764E0415050406040E1F712
:1010200000C00000C398B69914C080911E02909130
:101030001F02019690931F0280931E02C39A6FEFC6
:101040007FE784E0615070408040E1F700C000001D
:10105000C398B59B02C00C948F220E94D801C39AFA
:101060008FEF9FE7A4E081509040A040E1F700C0DF
:101070000000C39880911E0290911F028530910557
:1010800011F40C94D2108630910514F5833091053B
:10109000ACF497FF3DC0AFEF8E3F9A0709F4E3C76A
:1010A000BFEF8F3F9B0714F00C94FE13EFEF8C3FC4
:1010B0009E0711F00C948F220C94811483309105BB
:1010C00009F470C68430910511F00C948F22F3C698
:1010D0008B3091058CF48830910514F00C945B15DD
:1010E0008630910511F40C9484118730910511F02C
:1010F0000C948F220C9469128D30910514F40C9489
:1011000063178F30910514F00C948F220C94821E7B
:1011100060925E0270925F02809260029092610221
:101120006092440270924502809246029092470279
:101130001AE5A12EB12CB0928102A092800283E028
:1011400090E06EE770E044E050E02FEB30E005E027
:1011500010E0BDEAEB2EF12CAEE1CA2ED12CFEE15F
:10116000AF2EB12C0E94B6481092810210928002DC
:101170008CE090E061E070E045E050E023E030E09A
:101180000CE010E0EE24FF24E8E2CE2ED12CB2E3F6
:10119000AB2EB12C0E949D3B8AE090E061E070E0B4
:1011A00045E050E025E030E0AA24BB240E949D3BAE
:1011B00082E090E06CE170E046EA5FEF2EE130E023
:1011C00000E010E00E94D33E86EA9FEF90938102F8
:1011D000809380028AE090E066EA7FEF40E050E092
:1011E00023E230E00E946F40109281021092800250
:1011F00085E690E063E070E00E94523090938702B1
:10120000809386028CE090E061E070E045E050E081
:1012100023E030E00CE010E00E949D3B8AE090E08B
:1012200061E070E04CE050E025E030E0AEECAA2E4A
:10123000AFEFBA2E0E949D3B80E090E061EF7FEF20
:1012400040E050E02EE130E008E210E00E94593525
:101250000AE510E0109381020093800280E090E0A4
:1012600060E070E044E050E02FEB30E005E010E09B
:10127000FDEAEF2EF12CEEE1CE2ED12CAA24BB24D8
:101280000E94B64860925E0270925F028092600295
:1012900090926102609244027092450280924602EE
:1012A000909247022AE530E0309381022093800239
:1012B00083E090E06EE770E044E050E02FEB30E038
:1012C000BEE1AB2EB12C0E94B64810928102109262
:1012D000800280E090E06EEF7FEF40E050E02AE097
:1012E00030E008E710E00E9459358CE190E060E0C2
:1012F00070E046E450E02EE130E008E210E00E94A9
:10130000D33E8CEE9FEF90938102809380026AE53A
:1013100070E04AE550E02EE130E000E010E00E948D
:101320006F4010928502109284028CE090E066E09B
:1013300070E04BEF5FEF23E030E00CE010E0EE24D4
:10134000FF24A8E2CA2ED12CAA24BB240E949D3BD4
:101350008AE090E066E070E04BEF5FEF25E030E080
:101360000E949D3B86E090E066E070E048E15CEF23
:1013700023E030E0F4E1EF2EF12C0E949D3B80E071
:1013800090E061EF7FEF48E250E028E230E00EECC1
:101390001FEFE8E2EE2EF12C0E94AB4384E190E0D7
:1013A00090938102809380028091840290918502C3
:1013B000909325028093240280911E0290911F0237
:1013C0008130910529F4109225021092240209C05F
:1013D0008230910531F481E090E090932502809372
:1013E00024028BEF9FEF69E170E046E450E029E1D1
:1013F00030E003E210E00E94D33E1092810210928E
:101400008002609290027092910280929202909279
:1014100093028091900290919102A0919202B091DA
:10142000930280938C0290938D02A0938E02B093CE
:101430008F0280918C0290918D02A0918E02B091CA
:101440008F028093880290938902A0938A02B093BE
:101450008B0260929C0270929D0280929E029092FA
:101460009F0280919C0290919D02A0919E02B0915A
:101470009F028093980290939902A0939A02B0934E
:101480009B028CE090E068E070E045E050E023E0F3
:1014900030E00EE010E0EE24FF24B8E2CB2ED12C99
:1014A000A2E3AA2EB12C0E949D3B8AE090E068E066
:1014B00070E045E050E025E030E0AA24BB240E9423
:1014C0009D3B88E090E068E070E048EE53E023E068
:1014D00030E0F4E1EF2EF12C0E949D3B60918C02F4
:1014E00070918D0280918E0290918F0201E010E048
:1014F00020E030E040E252E40E94F452181614F06A
:1015000000E010E0109323020093220282E090E0BA
:1015100067E270E046EA5FEF29E130E000E010E0CA
:101520000E94D33E86EA9FEF9093810280938002CF
:1015300083E090E066EA7FEF40E050E029E130E0B0
:101540000E946F40109281021092800280E090E031
:101550006CE070E040E150E020E030E00AE010E0B4
:10156000E8E2EE2EF12CCC24DD240E94984681E0A6
:1015700090E063E270E046EA5FEF28E230E00EECD4
:101580001FEFB0E5EB2EF12C0E94AB4380912202BD
:1015900090912302009709F442C08EE190E090936D
:1015A0002B0280932A0281E090E063E070E040E04B
:1015B00050E02AE030E008E710E00E9459356092E0
:1015C0005E0270925F02809260029092610260926D
:1015D00044027092450280924602909247024AE588
:1015E00050E0509381024093800283E090E06EE7E8
:1015F00070E044E050E02FEB30E005E010E0ADEAB1
:10160000EA2EF12CFEE1CF2ED12CEEE1AE2EB12C44
:101610000E94B648109281021092800225C060920A
:101620005E0270925F02809260029092610260920C
:10163000440270924502809246029092470280E0F6
:1016400090E060E070E041E050E02EEA30E003E03E
:1016500010E0BCEAEB2EF12CAEE1CA2ED12CFEE15B
:10166000AF2EB12C0E94B64885E690E063E070E0B2
:101670000E94523020918602309187028217930790
:1016800009F07EC060929002709291028092920264
:10169000909293028091900290919102A091920277
:1016A000B091930280938C0290938D02A0938E024E
:1016B000B0938F0280918C0290918D02A0918E0246
:1016C000B0918F028093880290938902A0938A023E
:1016D000B0938B0260929C0270929D0280929E0257
:1016E00090929F0280919C0290919D02A0919E02F7
:1016F000B0919F028093980290939902A0939A02CE
:10170000B0939B028CE090E061E070E045E050E037
:1017100023E030E00CE010E0EE24FF24EEE1CE2EDA
:10172000D12CB8E2AB2EB12C0E949D3B40912A02F5
:1017300050912B024B5F5F4F8AE090E061E070E0D8
:1017400025E030E0A8EDAA2EAFEFBA2E0E949D3B17
:1017500060918C0270918D0280918E0290918F0227
:1017600090580E9498519B01AC0180E090E0B90133
:1017700040E050E02EE130E00CE810E00E945935E6
:1017800080912202909123020097E1F160925E0223
:1017900070925F02809260029092610260924402B5
:1017A0007092450280924602909247026AE570E08C
:1017B000709381026093800283E090E06EE770E0B6
:1017C00044E050E02FEB30E005E010E0FDEAEF2EC2
:1017D000F12CEEE1CE2ED12CBEE1AB2EB12C0E942D
:1017E000B648109281021092800280E090E06EEF85
:1017F0007FEF40E050E02AE030E008E710E00E9490
:10180000593525C060925E0270925F02809260023C
:101810009092610260924402709245028092460268
:101820009092470280E090E060E070E041E050E09C
:101830002EEA30E003E010E0ACEAEA2EF12CFEE103
:10184000CF2ED12CEEE1AE2EB12C0E94B648809165
:10185000240290912502009709F03BC18DE190E0B0
:101860006FEF7FEF46E450E02EE130E008E210E059
:101870000E94D33E1CEE212E1FEF312E30928102AA
:10188000209280028CEE9FEF6AE570E04AE550E01E
:101890002EE130E000E010E00E946F408CE090E02C
:1018A00066E070E04DEF5FEF23E030E00CE010E029
:1018B000EE24FF24B8E2CB2ED12CAA24BB240E9414
:1018C0009D3B8AE090E066E070E04BEF5FEF25E043
:1018D00030E00E949D3B86E090E066E070E048E1E9
:1018E0005CEF23E030E0A4E1EA2EF12C0E949D3B66
:1018F00085E090E06CE070E040E150E024E130E011
:1019000008E11CEFF8E2EF2EF12CCC24DD240E943C
:10191000984682EF9FEF66EA7FEF40E050E02EE1CD
:1019200030E000E010E00E946F4081EF9FEF60E048
:1019300070E04EEC5FEF29E130E00E94D33E84E19D
:1019400090E090938102809380028CE090E063E0CD
:1019500070E04BEF5FEF23E030E002E110E0EE24B7
:10196000FF24E8E2CE2ED12C0E949D3B8CEF9FEF0E
:1019700063E070E048E15CEF25E030E0B4E1EB2E9D
:10198000F12C0E949D3B82EF9FEF6AE570E04AE0F8
:1019900050E02EE130E000E010E00E946F408EE168
:1019A00090E090938102809380028FE090E060E06D
:1019B00070E048E250E029E130E00E94D33E3092EE
:1019C0008102209280028CE090E066E070E04DEFB2
:1019D0005FEF23E030E00EE010E0EE24FF240E94F1
:1019E0009D3B8AE090E066E070E04BEF5FEF25E022
:1019F00030E00E949D3B8BEF9FEF66E070E048E196
:101A00005CEF23E030E0A4E1EA2EF12C0E949D3B44
:101A100082EF9FEF66EA7FEF4EE150E02EE130E08B
:101A200000E010E00E946F4080EB9FEF90938102F6
:101A3000809380028CE090E063E070E045E050E04D
:101A400023E030E00CE010E0EE24FF240E949D3BF8
:101A50008AE090E063E070E045E050E025E030E0AF
:101A60000E949D3B8EEF9FEF63E070E048EE53E0F5
:101A700025E030E0F4E1EF2EF12C0E949D3B80E068
:101A800090E06AE070E046EF5FEF28E230E00EECB5
:101A90001FEFE8E2EE2EF12C0E94AB4360925E0253
:101AA00070925F02809260029092610260924402A2
:101AB0007092450280924602909247028AE590E039
:101AC000909381028093800283E090E06EE770E063
:101AD00051C18091220290912302009749F588E23A
:101AE00090E06FEF7FEF4AE550E02EE130E008E252
:101AF00010E00E94D33E86EF9FEF6AE570E04AE077
:101B000050E02EE130E000E010E00E946F4084E6FB
:101B100090E090938102809380028CE090E066EAEE
:101B20007FEF4AE050E02EE130E00E946F4055C068
:101B30008EE190E06FEF7FEF46E450E02EE130E081
:101B400008E210E00E94D33E8CEE9FEF909381025A
:101B5000809380026AE570E04AE550E02EE130E0D3
:101B600000E010E00E946F408CE090E066E070E0E2
:101B70004BEF5FEF23E030E00CE010E0EE24FF24B9
:101B8000B8E2CB2ED12CAA24BB240E949D3B8AE034
:101B900090E066E070E049EF5FEF25E030E00E9402
:101BA0009D3B8CEE9FEF66EA7FEF48ED5FEF2EE105
:101BB00030E000E010E00E946F408EE190E09093F2
:101BC00081028093800280E090E06BEF7FEF46EF30
:101BD0005FEF2EE130E00E94D33E84E190E09093ED
:101BE0008102809380028CE090E065E070E04DEF30
:101BF0005FEF23E030E00EE010E0EE24FF24A8E2E7
:101C0000CA2ED12CAA24BB240E949D3B8CEF9FEFAF
:101C100065E070E048E15CEF25E030E0F4E1EF2EB4
:101C2000F12C0E949D3B82EF9FEF66EA7FEF48ED2B
:101C30005FEF2EE130E000E010E00E946F408CEE9C
:101C40009FEF909381028093800281EF9FEF60E08D
:101C500070E04EEC5FEF29E130E00E94D33E84E17A
:101C600090E090938102809380028CE090E063E0AA
:101C700070E04BEF5FEF23E030E002E110E0EE2494
:101C8000FF240E949D3B8AE090E063E070E04BEF10
:101C90005FEF25E030E00E949D3B8CEF9FEF63E01B
:101CA00070E048E15CEF25E030E0E4E1EE2EF12C5D
:101CB0000E949D3B82EF9FEF6AE570E042EE5FEF8E
:101CC0002EE130E000E010E00E946F4080E590E0FF
:101CD00090938102809380028CE090E066E070E057
:101CE00045E050E023E030E000E110E0EE24FF2486
:101CF0000E949D3B8AE090E066E070E045E050E0A5
:101D000025E030E00E949D3B89EF9FEF66E070E0A8
:101D100048EE53E025E030E0B4E1EB2EF12C0E94D8
:101D20009D3B80E090E06AE070E04AE050E028E20D
:101D300030E00EEC1FEFA8E2EA2EF12C0E94AB433C
:101D400060925E0270925F028092600290926102E5
:101D5000609244027092450280924602909247023D
:101D6000AAE5B0E0B0938102A093800286E090E003
:101D700060E970E044E050E02FEB30E005E010E077
:101D8000FDEAEF2EF12CEEE1CE2ED12CBEE1AB2EF2
:101D9000B12C0E94B64880912402909125020097B0
:101DA00009F089C060925E0270925F0280926002C8
:101DB00090926102609244027092450280924602C3
:101DC00090924702EAE5F0E0F0938102E09380020E
:101DD00083E090E06EE770E044E050E02FEB30E00D
:101DE00005E010E0ADEAEA2EF12CFEE1CF2ED12C79
:101DF000EEE1AE2EB12C0E94B648109281021092F4
:101E0000800280E090E06CE070E044E150E02EE180
:101E100030E008E210E00E94D33E84E190E090932D
:101E20008102809380028FE090E06AE570E046E4F2
:101E300050E02EE130E000E010E00E946F40109290
:101E400081021092800285E090E066EA7FEF40E038
:101E500050E02EE130E00E946F408EE190E060E0C3
:101E600070E040E050E028E230E00EEC1FEF0E940E
:101E7000593560925E0270925F0280926002909289
:101E800061026092440270924502809246029092F2
:101E900047021AE5A12EB12CB0928102A0928002D5
:101EA00086E090E060E970E044E050E02FEB30E045
:101EB00005E010E0CFC060925E0270925F028092F7
:101EC0006002909261026092440270924502809298
:101ED0004602909247020AE510E0109381020093B7
:101EE000800286E090E060E970E044E050E02FEB93
:101EF00030E005E010E0BDEAEB2EF12CAEE1CA2E99
:101F0000D12CFEE1AF2EB12C0E94B6481092810276
:101F10001092800280E090E062E170E046EF5FEFB7
:101F20002EE130E008E210E00E94D33E86EF9FEF02
:101F300090938102809380028AE090E066EA7FEFCE
:101F400040E050E02EE130E000E010E00E946F4001
:101F500080E590E0909381028093800285E090E09C
:101F60006AE570E04AE050E02EE130E00E946F4008
:101F700010928102109280028CE090E061E070E0AB
:101F800045E050E023E030E00CE010E0EE24FF24D8
:101F9000E8E2CE2ED12CAA24BB240E949D3B8AE0ED
:101FA00090E061E070E045E050E025E030E00E9424
:101FB0009D3B81E090E061E070E048EE53E023E07B
:101FC00030E0B4E1EB2EF12C0E949D3B82E090E0EA
:101FD00069E170E04AEB5FEF2EE130E000E010E0F5
:101FE0000E94D33E2AEB3FEF309381022093800280
:101FF0008FE090E06AE570E04CEE5FEF2EE130E0BC
:1020000008ED1FEF0E946F4060925E0270925F02C7
:102010008092600290926102609244027092450246
:1020200080924602909247024AE550E05093810226
:102030004093800286E090E060E970E044E050E088
:102040002FEB30E005E010E0ADEAEA2EF12CFEE1E6
:10205000CF2ED12CEEE1AE2EB12C0E94B6481092BC
:1020600081021092800280911E0290911F025FEF08
:102070008E3F950731F482E090E090938702809341
:1020800086020E942B0280E090E06AE070E04CEE55
:102090005FEF2EE130E008E210E00E94D33E8CEECC
:1020A0009FEF909381028093800284E190E066EA42
:1020B0007FEF4AEB5FEF2EE130E000E010E00E949E
:1020C0006F40109281021092800284E190E06AE5F4
:1020D00070E04AEB5FEF2EE130E00E946F4084E158
:1020E00090E0909381028093800280E090E066EF20
:1020F0007FEF4CEE5FEF2EE130E008ED1FEF0E9426
:10210000D33E60925E0270925F0280926002909273
:10211000610260924402709245028092460290925F
:1021200047026AE570E0709381026093800286E066
:1021300090E060E970E044E050E02FEB30E005E033
:1021400010E0BDEAEB2EF12CAEE1CA2ED12CFEE15F
:10215000AF2EB12C0E94B6481092810210928002DC
:102160000E942B0260925E0270925F028092600277
:1021700090926102609244027092450280924602FF
:10218000909247028AE590E09093810280938002CA
:1021900086E090E060E970E044E050E02FEB30E052
:1021A0000E94B64860925E0270925F028092600266
:1021B00090926102609244027092450280924602BF
:1021C00090924702AAE5B0E0B0938102A09380020A
:1021D00086E090E060E970E044E050E02FEB30E012
:1021E00005E010E0EDEAEE2EF12CBEE1CB2ED12C75
:1021F000AEE1AA2EB12C0E94B64810928102109234
:10220000800281EF9FEF60E070E04CEE5FEF2EE127
:1022100030E008E210E00E94D33EE6E4F0E0F09304
:102220008102E093800287EE9FEF6AE570E040E074
:1022300050E02EE130E000E010E00E946F408CEEB4
:102240009FEF909381028093800285E090E06CE0A4
:1022500070E040E150E029E130E008E11CEFF8E2F5
:10226000EF2EF12CCC24DD240E94984681EF9FEFC5
:1022700066EA7FEF40E050E02EE130E000E010E061
:102280000E946F408BEF9FEF60E070E04AEB5FEFE2
:102290002EE130E008ED1FEFE4E6EE2EF12C0E9477
:1022A000AB4360925E0270925F02809260029092F5
:1022B00061026092440270924502809246029092BE
:1022C00047021AE5A12EB12CB0928102A0928002A1
:1022D00086E090E060E970E044E050E02FEB30E011
:1022E00005E010E0BDEAEB2EF12CAEE1CA2ED12CB8
:1022F000FEE1AF2EB12C0E94B6488091240290914D
:102300002502009709F4E5C060925E0270925F02B8
:102310008092600290926102609244027092450243
:1023200080924602909247020AE510E010938102E3
:102330000093800286E090E060E970E044E050E0C5
:102340002FEB30E005E010E0EDEAEE2EF12CBEE1DF
:10235000CB2ED12CAEE1AA2EB12C0E94B648109201
:102360008102109280028CEE9FEF60E070E040E00E
:1023700050E02EE130E008E210E00E94593586EA94
:102380009FEF909381028093800284E190E06AE560
:1023900070E044E150E02EE130E000E010E00E9407
:1023A0006F40F4E12F2E312C309281022092800276
:1023B00084E090E06CE070E040E150E024E130E047
:1023C00008E11CEFE8E2EE2EF12CCC24DD240E9483
:1023D000984682EF9FEF6AE570E042E350E029E122
:1023E00030E000E010E00E946F408CEE9FEF909391
:1023F0008102809380028CE090E066E070E04BEF19
:102400005FEF23E030E00CE010E0EE24FF24B8E2C0
:10241000CB2ED12CAA24BB240E949D3B8BEF9FEF97
:1024200066E070E048E15CEF25E030E0A4E1EA2EF0
:10243000F12C0E949D3B83EF9FEF66EA7FEF40E027
:1024400050E023E230E000E010E00E946F4081EFB6
:102450009FEF6FEF7FEF4EEC5FEF29E130E00E94DE
:10246000D33E30928102209280028CE090E063E0C3
:1024700070E04DEF5FEF23E030E000E110E0EE248C
:10248000FF240E949D3B83E090E063E070E048E120
:102490005CEF25E030E0F9E1EF2EF12C0E949D3B4E
:1024A00080E090E066EF7FEF40E050E028E230E02F
:1024B00000E010E00E9459358CE090E065E070E0AB
:1024C0004BEF5FEF23E030E00BE010E0EE24FF2461
:1024D00070C160925E0270925F0280926002909280
:1024E000610260924402709245028092460290928C
:1024F00047022AE530E0309381022093800286E093
:1025000090E060E970E044E050E02FEB30E005E05F
:1025100010E0EDEAEE2EF12CBEE1CB2ED12CAEE197
:10252000AA2EB12C0E94B64810928102109280020D
:1025300060E070E08CE892EC40E550E00E944D4293
:102540004AEB5FEF509381024093800280E090E07D
:102550006AE070E04CEE5FEF2EE130E000E010E06A
:102560000E94D33EF6EA2F2EFFEF3F2E30928102DB
:102570002092800288E090E066EA7FEF40E050E041
:102580002EE130E00E946F40109281021092800292
:102590008CE090E068E070E045E050E023E030E05F
:1025A00000E110E0EE24FF24E8E2CE2ED12CAA2494
:1025B000BB240E949D3B8AE090E068E070E045E02B
:1025C00050E025E030E00E949D3B88E090E068E02C
:1025D00070E048EE53E023E030E0B9E1EB2EF12C5F
:1025E0000E949D3B82E090E066E270E046EA5FEF89
:1025F0002EE130E000E010E00E94D33E30928102F4
:102600002092800285E090E066EA7FEF40E050E0B3
:102610002EE130E00E946F40109281021092800201
:102620008CE090E068E070E045E050E023E030E0CE
:1026300000E110E0EE24FF240E949D3B8AE090E040
:1026400068E070E045E050E025E030E00E949D3B0E
:1026500088E090E068E070E048EE53E023E030E08E
:10266000A9E1EA2EF12C0E949D3B80E090E067E119
:1026700070E042EE5FEF2EE130E000E010E00E94FB
:10268000D33E82EE9FEF909381028093800284E19B
:1026900090E066EA7FEF4AE050E02EE130E00E94F1
:1026A0006F4066E470E070938102609380028AE07C
:1026B00090E06AE570E040E050E02EE130E00E94FA
:1026C0006F408CEE9FEF909381028093800282E0B6
:1026D00090E066E270E04AEB5FEF2EE130E00E94AE
:1026E000D33E10928102109280028CE090E061E073
:1026F00070E043E050E023E030E00CE010E0EE2436
:10270000FF24F2E3AF2EB12C0E949D3B81E090E0CC
:1027100061E070E048EE53E023E030E0E4E1EE2ECB
:10272000F12CAA24BB240E949D3B81E090E06CE147
:1027300070E040EB5FEF2EE130E000E010E00E943F
:10274000D33E80EB9FEF909381028093800282E0E2
:1027500090E06CE070E040E150E02CE030E008EE0A
:1027600013E0B8E2EB2EF12CCC24DD240E94984635
:1027700086E090E06AE570E04AE050E02EE130E06B
:1027800000E010E00E946F4084E190E090938102AD
:10279000809380028CE090E065E070E04BEF5FEFAB
:1027A00023E030E00BE010E0EE24FF24A8E2CA2E84
:1027B000D12C0E949D3B8AE090E065E070E04BEFF9
:1027C0005FEF25E030E00E949D3B8CEF9FEF65E0DE
:1027D00070E048E15CEF25E030E0F4E1EF2EF12C11
:1027E0000E949D3B80E090E061EF7FEF40E050E091
:1027F00028E230E00EEC1FEF0E94593560925E0235
:1028000070925F0280926002909261026092440234
:102810007092450280924602909247028AE590E0CB
:10282000909381028093800286E090E060E970E0FE
:1028300044E050E02FEB30E005E010E0EDEAEE2E52
:10284000F12CBEE1CB2ED12CAEE1AA2EB12C0E94F0
:10285000B648109281021092800280E090E06AE017
:1028600070E040E050E028E230E002E310E00E9437
:10287000593589E190E066EA7FEF40E050E02EE1D3
:1028800030E000E010E00E946F40AAE5B0E0B093B5
:102890008102A093800289E190E06AE570E04AE558
:1028A00050E02EE130E008ED1FEF0E946F40609293
:1028B0005E0270925F02809260029092610260926A
:1028C0004402709245028092460290924702EAE5E5
:1028D000F0E0F0938102E093800286E090E060E90E
:1028E00070E044E050E02FEB30E005E010E00E94A3
:1028F000B64810928102109280020E94FE2F0C9422
:102900008F2260925E0270925F02809260029092CB
:102910006102609244027092450280924602909257
:102920004702FAE5AF2EB12CB0928102A09280024C
:1029300083E090E06EE770E044E050E02FEB30E0A1
:1029400005E010E0EDEAEE2EF12CBEE1CB2ED12C0D
:10295000AEE1AA2EB12C0E94B648109281021092CC
:10296000800280E090E068E070E044E150E02EE119
:1029700030E008E210E00E94D33E84E190E09093C2
:102980008102809380026AE570E04CEE5FEF2EE1F9
:1029900030E000E010E00E946F401092810210923F
:1029A000800280E090E061E070E048E15CEF20E0D0
:1029B00030E0FAE1EF2EF12CE8E2CE2ED12CAA2461
:1029C000BB240E94323786EA9FEF90938102809366
:1029D00080028AE090E066EA7FEF40E050E02EE17E
:1029E00030E00E946F4010928102109280028CE0D1
:1029F00090E061E070E045E050E023E030E00CE082
:102A000010E0EE24FF240E949D3B81E090E061E015
:102A100070E048EE53E023E030E0B4E1EB2EF12C1F
:102A20000E949D3B82E090E069E170E04AEB5FEF3D
:102A30002EE130E000E010E00E94D33E0AEB1FEFF1
:102A400010938102009380028FE090E06AE570E0CD
:102A50004CEE5FEF2EE130E008ED1FEF0E946F407B
:102A600060925E0270925F028092600290926102B8
:102A70006092440270924502809246029092470210
:102A80002AE530E0309381022093800286E090E0D6
:102A900060E970E044E050E02FEB30E005E010E04A
:102AA000ADEAEA2EF12CFEE1CF2ED12CEEE1AE2ED6
:102AB000B12C0E94B64880911E0290911F0200978F
:102AC00031F081E090E090938702809386026092DB
:102AD0005E0270925F028092600290926102609248
:102AE00044027092450280924602909247024AE563
:102AF00050E0509381024093800286E090E060E9CC
:102B000070E044E050E02FEB30E005E010E0BDEA7B
:102B1000EB2EF12CAEE1CA2ED12CFEE1AF2EB12C62
:102B20000E94B648109281021092800210926F02A9
:102B300010926E0280E090E064E170E04CEE5FEF96
:102B40002EE130E008E210E00E94D33E8CEE9FEFD1
:102B5000909381028093800281E090E02091840232
:102B600030918502BC01621B730B70932702609346
:102B7000260220911E0230911F022930310529F4CE
:102B8000109227021092260207C02A30310521F444
:102B9000909327028093260280912602909127022B
:102BA000009709F47FC582E090E064E170E04EECAC
:102BB0005FEF2EE130E000E010E00E94D33E8AEBB0
:102BC0009FEF90938102809380028AE090E066EA12
:102BD0007FEF4CEE5FEF23E230E00E946F401092F7
:102BE0008102109280028CE090E068E070E045E0A5
:102BF00050E023E030E002E110E0EE24FF24E8E2C0
:102C0000CE2ED12CAA24BB240E949D3B8AE090E0CA
:102C100068E070E04AE050E025E030E00E949D3B33
:102C200088E090E068E070E048EE53E023E030E0B8
:102C3000B9E1EB2EF12CA3E2CA2ED12C0E949D3BD0
:102C40002091500281E090E02F3110F480E090E07C
:102C5000909329028093280282E090E069E270E07C
:102C600046EA5FEF2EE130E000E010E00E94D33E44
:102C7000F6EA2F2EFFEF3F2E309281022092800243
:102C800085E090E066EA7FEF40E050E02EE130E042
:102C90000E946F4010928102109280028CE090E0BE
:102CA00061E070E045E050E023E030E00BE010E050
:102CB000EE24FF24E3E2CE2ED12CAA24BB240E94D2
:102CC0009D3B8AE090E061E070E04AE050E025E062
:102CD00030E00E949D3B82E090E06EE170E045EACA
:102CE0005FEF2EE130E000E010E00E94D33E309232
:102CF00081022092800285E090E066EA7FEF40E06A
:102D000050E02EE130E00E946F401092810210925C
:102D100080028CE090E061E070E045E050E023E06C
:102D200030E00BE010E00E949D3B8AE99FEF63E0FA
:102D300070E00E9452300091860210918702801745
:102D4000910739F4AFE0B0E0B0932B02A0932A02D0
:102D500004C010922B0210922A028AE99FEF63E0CE
:102D600070E00E945230EDB7FEB738970FB6F89476
:102D7000FEBF0FBEEDBF3196ADB7BEB712965C92E7
:102D80004E921197B9E0AB2EB1E0BB2EB382A28276
:102D900015830483978386830E9481500DB71EB7E5
:102DA000085F1F4F0FB6F8941EBF0FBE0DBF81E026
:102DB00061E0A2010E94670140912A0250912B021A
:102DC0004B5F5F4F8AE090E061E070E025E030E02B
:102DD0000BE010E0EE24FF24A3E2CA2ED12CF3ED89
:102DE000AF2EFFEFBF2E0E949D3B6BEF7FEF8091D8
:102DF0002A0290912B02681B790B80E090E040E062
:102E000050E02EE130E008E210E00E9459352AE55A
:102E100030E0309381022093800280E090E060E017
:102E200070E044E050E02FEB30E005E010E0EDEA28
:102E3000EE2EF12CBEE1CB2ED12CAA24BB240E9475
:102E4000B64860925E0270925F0280926002909239
:102E50006102609244027092450280924602909212
:102E600047024AE550E0509381024093800283E09C
:102E700090E06EE770E044E050E02FEB30E0AEE130
:102E8000AA2EB12C0E94B6481092810210928002A4
:102E900080E090E06EEF7FEF40E050E02AE030E02D
:102EA00008E710E00E9459358DE290E060E070E0A4
:102EB0004AE550E028E230E006E910E0F0E5EF2EC8
:102EC000F12C0E94AB4380911E0290911F028B3027
:102ED000910529F4109227021092260209C08C3025
:102EE000910531F481E090E09093270280932602CF
:102EF00060925E0270925F02809260029092610224
:102F0000609244027092450280924602909247027B
:102F10006AE570E0709381026093800283E090E044
:102F20006EE770E044E050E02FEB30E005E010E0A9
:102F3000EDEAEE2EF12CBEE1CB2ED12CAEE1AA2E85
:102F4000B12C0E94B648109281021092800284E156
:102F500090E06FEF7FEF46E450E02EE130E008E2D2
:102F600010E00E94D33E8CEE9FEF909381028093FD
:102F700080028CE090E066E070E04BEF5FEF23E0D2
:102F800030E000E110E0EE24FF24F8E2CF2ED12C57
:102F9000AA24BB240E949D3B8AE090E066E070E09A
:102FA00046EF5FEF25E030E00E949D3B86E090E039
:102FB00066E070E048E15CEF23E030E0E4E1EE2E13
:102FC000F12C0E949D3B85E090E060E170E042E1E1
:102FD00050E024E130E008E11CEFB8E2EB2EF12CE8
:102FE000CC24DD240E94984685E090E062EC70E0FD
:102FF00040E050E020E030E000E010E0EE24FF246C
:10300000A8E2AA2EB12C0E94B64880911E0290918F
:103010001F02009731F00E94FE2FB59BFECFB5999D
:10302000FECF8091280290912902009709F086C076
:10303000609290027092910280929202909293021A
:103040008091900290919102A0919202B09193028E
:1030500080938C0290938D02A0938E02B0938F0286
:1030600080918C0290918D02A0918E02B0918F027E
:103070008093880290938902A0938A02B0938B0276
:1030800060929C0270929D0280929E0290929F029A
:1030900080919C0290919D02A0919E02B0919F020E
:1030A0008093980290939902A0939A02B0939B0206
:1030B00060E070E084EB92E44CE350E00E944D420B
:1030C00086E490E090938102809380020E94FE2F1C
:1030D00080E090E06CE070E044E150E02EE130E010
:1030E00008E210E00E94D33EAAE5B0E0B09381026E
:1030F000A093800285E090E06AE570E040E050E057
:1031000023E230E000E010E00E946F401092810264
:103110001092800280E090E06CE070E040E150E0CE
:1031200020E030E00AE010E0F8E2EF2EF12CCC24B1
:10313000DD240E94984683E090E064C060E070E087
:1031400080EA91E444E150E00E944D4210928102F5
:10315000109280020E94FE2F8CE090E061E070E00F
:1031600043E050E023E030E00EE010E0EE24FF24E6
:10317000E8E2CE2ED12CB2E3AB2EB12C0E949D3BC7
:1031800081E090E061E070E048EE53E023E030E061
:10319000A4E1EA2EF12CAA24BB240E949D3B8EEFD1
:1031A0009FEF63E270E04AE550E02EE130E000E09E
:1031B00010E00E94D33EEAE5F0E0F0938102E09354
:1031C000800285E090E06AE570E040E050E023E2B4
:1031D00030E00E946F40109281021092800280E0E5
:1031E00090E06CE070E040E150E020E030E00AE088
:1031F00010E0F8E2EF2EF12CCC24DD240E9498465A
:1032000082E090E068E270E046EA5FEF23E230E0BF
:1032100000E010E00E94D33E8CE090E061E070E0BE
:1032200043E050E023E030E00EE010E0EE24FF2425
:10323000E8E2CE2ED12CB2E3AB2EB12C0E949D3B06
:103240008AE090E061E070E045E050E025E030E0A9
:10325000AA24BB240E949D3B81E090E061E070E0E5
:1032600048EE53E023E030E0A4E1EA2EF12C0E9486
:103270009D3B8EEF9FEF62E270E04AE550E02EE169
:1032800030E000E010E00E94D33EFAE5AF2EB12C12
:10329000B0928102A092800285E090E06AE570E041
:1032A00040E050E02EE130E00E946F401092810239
:1032B000109280028CE090E068E070E045E050E021
:1032C00023E030E00FE010E0EE24FF24AA24BB242A
:1032D0000E949D3B8AE090E068E070E045E050E0AD
:1032E00025E030E00E949D3B8FEF9FEF61E270E0B0
:1032F0004BE550E02EE130E000E010E00E94D33ECC
:103300000AE510E0109381020093800285E090E0CE
:103310006AE570E040E050E02EE130E000E010E0CF
:103320000E946F4010928102109280028CE090E027
:1033300068E070E045E050E023E030E00FE010E0AE
:10334000E3E2CE2ED12C0E949D3B86E690E063E026
:1033500070E00E945230009186021091870280171F
:10336000910739F42FE030E030932B0220932A02AA
:1033700004C010922B0210922A028AE99FEF63E0A8
:1033800070E00E9452304DB75EB7485050400FB6C3
:10339000F8945EBF0FBE4DBFEDB7FEB73196ADB727
:1033A000BEB712965C924E92119729E0A22E21E0B0
:1033B000B22EB382A28215830483978386830E94F0
:1033C00081500DB71EB7085F1F4F0FB6F8941EBF90
:1033D0000FBE0DBF81E061E0A2010E946701409134
:1033E0002A0250912B024B5F5F4F8AE090E068E029
:1033F00070E025E030E00FE010E0EE24FF24B3E2BF
:10340000CB2ED12CA3EDAA2EAFEFBA2E0E949D3B5E
:103410006BEF7FEF80912A0290912B02681B790B52
:1034200080E090E040E050E02EE130E008E210E083
:103430000E9459352AE530E03093810220938002C2
:1034400080E090E060E070E044E050E02FEB30E09E
:1034500005E010E0FDEAEF2EF12CEEE1CE2ED12CAE
:10346000AA24BB240E94B64860925E0270925F025A
:1034700080926002909261026092440270924502D2
:1034800080924602909247024AE550E050938102B2
:103490004093800286E090E060E970E044E050E014
:1034A0002FEB30E0BEE1AB2EB12C0E94B64810925B
:1034B00081021092800280E090E06EEF7FEF40E0AA
:1034C00050E02AE030E008E710E00E9459358FED27
:1034D0009FEF60E070E04AEB5FEF2EE130E008E242
:1034E00010E00E94D33E84E190E0909381028093AB
:1034F00080028CEE9FEF66EA7FEF46EA5FEF2EE1F7
:1035000030E000E010E00E946F408CE090E063E06B
:1035100070E04BEF5FEF23E030E002E110E0EE24DB
:10352000FF24A8E2CA2ED12CAA24BB240E949D3BD2
:103530008AE090E063E070E046EF5FEF25E030E086
:103540000E949D3B83E090E063E070E048E15CEF27
:1035500023E030E0F9E1EF2EF12C0E949D3B84E066
:1035600090E06EE070E042E150E029E130E00CE9EB
:103570001FEFE8E2EE2EF12CCC24DD240E949846C9
:103580008DEE9FEF66EA7FEF46EA5FEF28E230E0DC
:1035900000E010E00E946F408CE090E063E070E09B
:1035A0004BEF5FEF23E030E002E110E0EE24FF2478
:1035B000B8E2CB2ED12C0E949D3B8AE090E063E0E4
:1035C00070E04BEF5FEF25E030E00E949D3B8CEF19
:1035D0009FEF63E070E048E15CEF23E030E0A4E1BE
:1035E000EA2EF12C0E949D3B82EF9FEF6AE570E08E
:1035F00042EE5FEF2EE130E000E010E00E946F400D
:1036000080E590E090938102809380028CE090E0CE
:1036100066E070E045E050E023E030E002E110E0D9
:10362000EE24FF240E949D3B8AE090E066E070E07B
:1036300045E050E025E030E00E949D3B89EF9FEFA0
:1036400066E070E048EE53E023E030E0F4E1EF2E76
:10365000F12C0E949D3B80E090E06AE070E04AE03F
:1036600050E028E230E00EEC1FEF0E94AB43609286
:103670005E0270925F02809260029092610260929C
:1036800044027092450280924602909247026AE597
:1036900070E0709381026093800286E090E060E9C0
:1036A00070E024C780E090E06AE070E040E050E025
:1036B00028E230E00EEC1FEF0E9459358CE090E0DC
:1036C00066E070E04BEF5FEF23E030E00CE010E0ED
:1036D000EE24FF24E8E2CE2ED12CB2E3AB2EB12CA7
:1036E0000E949D3B8AE090E066E070E04BEF5FEF68
:1036F00025E030E0AA24BB240E949D3B8BEF9FEF86
:1037000066E070E048E15CEF25E030E0A4E1EA2EFD
:10371000F12C0E949D3B84EF9FEF66EA7FEF4EE124
:1037200050E02EE130E000E010E00E946F4080EBBE
:103730009FEF90938102809380028CE090E063E0A1
:1037400070E045E050E023E030E00EE010E0EE24D1
:10375000FF240E949D3B8AE090E063E070E045E03A
:1037600050E025E030E00E949D3B8EEF9FEF63E04C
:1037700070E048EE53E025E030E0F4E1EF2EF12C6C
:103780000E949D3B80E090E06AE070E046EF5FEFD2
:1037900028E230E00EEC1FEF0E94AB4360925E0225
:1037A00070925F0280926002909261026092440285
:1037B0007092450280924602909247028AE590E01C
:1037C000909381028093800283E090E06EE770E046
:1037D00044E050E02FEB30E005E010E0EDEAEE2EA3
:1037E000F12CBEE1CB2ED12CAEE1AA2EB12C0E9441
:1037F000B648109281021092800280E090E06CE066
:1038000070E044E150E02EE130E008E210E00E9478
:10381000D33E84E190E090938102809380028FE018
:1038200090E06AE570E046E450E02EE130E000E030
:1038300010E00E946F40109281021092800287E097
:1038400090E066EA7FEF40E050E02EE130E00E9439
:103850006F408CE190E060E070E040E050E028E2F2
:1038600030E00EEC1FEF0E94593560925E027092BC
:103870005F028092600290926102609244027092B4
:1038800045028092460290924702AAE5B0E0B093CA
:103890008102A093800286E090E060E970E044E05D
:1038A00050E02FEB30E005E010E00E94B6481092A7
:1038B00081021092800260E070E08CE892EC4CE3B0
:1038C00050E00E944D42EAEBFFEFF0938102E0935B
:1038D000800280E090E06AE070E04CEE5FEF2EE165
:1038E00030E008E210E00E94D33EF6EA2F2EFFEF10
:1038F0003F2E309281022092800288E090E066EABA
:103900007FEF40E050E02EE130E000E010E00E9468
:103910006F4010928102109280028CE090E068E08B
:1039200070E045E050E023E030E000E110E0EE24FC
:10393000FF24E8E2CE2ED12CAA24BB240E949D3B7A
:103940008AE090E068E070E045E050E025E030E09B
:103950000E949D3B88E090E068E070E048EE53E014
:1039600023E030E0B9E1EB2EF12C0E949D3B82E098
:1039700090E063E270E046EA5FEF2EE130E000E0C5
:1039800010E00E94D33E309281022092800288E0B3
:1039900090E066EA7FEF40E050E02EE130E00E94E8
:1039A0006F4010928102109280028CE090E068E0FB
:1039B00070E045E050E023E030E000E110E0EE246C
:1039C000FF240E949D3B88E090E068E070E048EEB4
:1039D00053E023E030E0A9E1EA2EF12C0E949D3B68
:1039E00080E090E068E170E042EE5FEF2EE130E0D1
:1039F00000E010E00E94D33E82EE9FEF90938102A0
:103A00008093800284E190E066EA7FEF4EE150E02F
:103A10002EE130E00E946F40FAE5AF2EB12CB0925B
:103A20008102A09280028AE090E06AE570E040E0C6
:103A300050E02EE130E00E946F401092810210921F
:103A400080028CE090E061E070E045E050E023E02F
:103A500030E00EE010E0EE24FF24AA24BB240E94F4
:103A60009D3B8AE090E061E070E04AE050E025E0B4
:103A700030E00E949D3B81E090E061E070E048EE24
:103A800053E025E030E0E4E1EE2EF12C0E949D3B76
:103A90008EEF9FEF62E270E04AE550E02EE130E009
:103AA00000E010E00E94D33E0AE510E0109381028E
:103AB0000093800285E090E06AE570E040E050E02D
:103AC0002EE130E000E010E00E946F401092810291
:103AD000109280028CE090E068E070E045E050E0F9
:103AE00023E030E00FE010E0EE24FF240E949D3B35
:103AF0008AE090E068E070E045E050E025E030E0EA
:103B00000E949D3B8FEF9FEF61E270E04BE550E03C
:103B10002EE130E000E010E00E94D33E2AE530E0E4
:103B2000309381022093800285E090E06AE570E0A6
:103B300040E050E02EE130E00E946F4010928102A0
:103B4000109280028CE090E068E070E045E050E088
:103B500023E030E00FE010E0B3E2CB2ED12C0E9446
:103B60009D3B86E690E063E070E00E945230009159
:103B70008602109187028017910739F44FE050E0D8
:103B800050932B0240932A0204C010922B021092F1
:103B90002A028AE99FEF63E070E00E9452306DB71D
:103BA0007EB7685070400FB6F8947EBF0FBE6DBFF1
:103BB000EDB7FEB73196ADB7BEB712965C924E9296
:103BC0001197A9E0AA2EA1E0BA2EB382A282158392
:103BD0000483978386830E9481500DB71EB7085FC8
:103BE0001F4F0FB6F8941EBF0FBE0DBF81E061E0FE
:103BF000A2010E94670140912A0250912B024B5F63
:103C00005F4F8AE090E068E070E025E030E00FE090
:103C100010E0EE24FF24F3E2CF2ED12CE3EDAE2E04
:103C2000EFEFBE2E0E949D3B6BEF7FEF80912A024B
:103C300090912B02681B790B80E090E040E050E00F
:103C40002EE130E008E210E00E9459352AE530E02C
:103C5000309381022093800280E090E060E070E089
:103C600044E050E02FEB30E005E010E0BDEAEB2E41
:103C7000F12CAEE1CA2ED12CAA24BB240E94B64856
:103C800060925E0270925F02809260029092610286
:103C900060924402709245028092460290924702DE
:103CA0004AE550E0509381024093800286E090E024
:103CB00060E970E044E050E02FEB30E0FEE1AF2E31
:103CC000B12C0E94B648109281021092800280E0CE
:103CD00090E06EEF7FEF40E050E02AE030E008E750
:103CE00010E00E94593583ED9FEF60E070E046EAF6
:103CF0005FEF28E230E006E910E0E4E6EE2EF12C7A
:103D00000E94AB4380911E0290911F028D3091055D
:103D100029F4109229021092280209C08E309105D0
:103D200031F481E090E09093290280932802609220
:103D30005E0270925F0280926002909261026092D5
:103D400044027092450280924602909247026AE5D0
:103D500070E0709381026093800286E090E060E9F9
:103D600070E044E050E02FEB30E005E010E0BDEA09
:103D7000EB2EF12CAEE1CA2ED12CFEE1AF2EB12CF0
:103D80000E94B64810928102109280028CEE9FEF42
:103D900060E070E04AEB5FEF2EE130E008E210E017
:103DA0000E94D33E84E190E0909381028093800250
:103DB0008CE090E063E070E04BEF5FEF23E030E0F9
:103DC00002E110E0EE24FF24E8E2CE2ED12CAA245A
:103DD000BB240E949D3B8AE090E063E070E046EFE8
:103DE0005FEF25E030E00E949D3B83E090E063E0E0
:103DF00070E048E15CEF23E030E0B9E1EB2EF12C1C
:103E00000E949D3B84E090E060E170E042E150E080
:103E100024E130E008E11CEFA8E2EA2EF12CCC24EA
:103E2000DD240E94984684E090E062EC70E040E07F
:103E300050E020E030E000E010E0EE24FF24F8E263
:103E4000AF2EB12C0E94B64880911E0290911F02A5
:103E5000009731F00E94FE2FB59BFECFB599FECFA3
:103E60008091280290912902009709F093C06092F6
:103E700090027092910280929202909293028091AD
:103E8000900290919102A0919202B091930280933E
:103E90008C0290938D02A0938E02B0938F0280913A
:103EA0008C0290918D02A0918E02B0918F0280932E
:103EB000880290938902A0938A02B0938B02609249
:103EC0009C0270929D0280929E0290929F0280912D
:103ED0009C0290919D02A0919E02B0919F028093BE
:103EE000980290939902A0939A02B0939B0260E08B
:103EF00070E084EB92EC4CE350E00E944D428AEB80
:103F00009FEF90938102809380020E94FE2F80E0B9
:103F100090E06DE070E04FEE5FEF2EE130E008E200
:103F200010E00E94D33E86EA9FEF90938102809337
:103F3000800285E090E066EA7FEF40E050E02EE10D
:103F400030E008ED1FEF0E946F4010928102109246
:103F5000800280911E0290911F02009731F00E9412
:103F6000FE2FB59BFECFB599FECF80E090E06CE0D0
:103F700070E040E150E020E030E00AE010E0E8E2EC
:103F8000EE2EF12CB2E3CB2ED12C0E9498468DEF71
:103F90009FEF64C060E070E080EA91EC44E150E0A3
:103FA0000E944D4210928102109280020E94FE2FC8
:103FB0008CE090E068E070E043E050E023E030E027
:103FC00002E110E0EE24FF24A8E2CA2ED12CF2E395
:103FD000AF2EB12C0E949D3B88E090E068E070E03D
:103FE00048EE53E023E030E0E9E1EE2EF12CAA2484
:103FF000BB240E949D3B82E090E067E270E04AE5CE
:1040000050E02EE130E000E010E00E94D33EAAE54F
:10401000B0E0B0938102A093800285E090E06AE571
:1040200070E040E050E023E230E00E946F401092E8
:1040300081021092800280E090E06CE070E040E14C
:1040400050E020E030E00AE010E0B8E2EB2EF12C86
:10405000CC24DD240E9498468EEF9FEF68E270E04A
:104060004AE550E023E230E000E010E00E94D33E59
:104070008CE090E068E070E043E050E023E030E066
:1040800002E110E0EE24FF24A8E2CA2ED12CF2E3D4
:10409000AF2EB12C0E949D3B8AE090E068E070E07A
:1040A00045E050E025E030E0AA24BB240E949D3B7F
:1040B00088E090E068E070E048EE53E023E030E014
:1040C000E9E1EE2EF12C0E949D3B82E090E065E25A
:1040D00070E046EA5FEF2EE130E000E010E00E9481
:1040E000D33E86EA282E8FEF382E3092810220921E
:1040F000800285E090E066EA7FEF40E050E02EE14C
:1041000030E00E946F4010928102109280028CE099
:1041100090E061E070E045E050E023E030E00BE04B
:1041200010E0EE24FF240E949D3B8AE090E061E0D5
:1041300070E045E050E025E030E00E949D3B81E0EA
:1041400090E063E270E045EA5FEF2EE130E000E0EE
:1041500010E00E94D33E309281022092800285E0DE
:1041600090E066EA7FEF40E050E02EE130E00E9410
:104170006F4010928102109280028CE090E061E02A
:1041800070E045E050E023E030E00BE010E0B3E207
:10419000CB2ED12C0E949D3B86E690E063E070E040
:1041A0000E94523000918602109187028017910779
:1041B00039F4EFE0F0E0F0932B02E0932A0204C020
:1041C00010922B0210922A028AE99FEF63E070E0BE
:1041D0000E9452302DB73EB7285030400FB6F894A9
:1041E0003EBF0FBE2DBFEDB7FEB73196ADB7BEB720
:1041F00012965C924E921197A9E0AA2EA1E0BA2ED7
:10420000B382A28215830483978386830E948150A0
:104210000DB71EB7085F1F4F0FB6F8941EBF0FBE35
:104220000DBF81E061E0A2010E94670140912A0276
:1042300050912B024B5F5F4F8AE090E061E070E0AD
:1042400025E030E00BE010E0EE24FF24F3E2CF2E77
:10425000D12CE3EDAE2EEFEFBE2E0E949D3B6BEF17
:104260007FEF80912A0290912B02681B790B80E0EE
:1042700090E040E050E02EE130E008E210E00E94E3
:1042800059352AE530E0309381022093800280E0A6
:1042900090E060E070E044E050E02FEB30E005E0BB
:1042A00010E0BDEAEB2EF12CAEE1CA2ED12CAA24EF
:1042B000BB240E94B64860925E0270925F028092B8
:1042C0006002909261026092440270924502809274
:1042D0004602909247024AE550E050938102409393
:1042E000800283E090E06EE770E044E050E02FEB66
:1042F00030E0FEE1AF2EB12C0E94B6481092810250
:104300001092800280E090E06EEF7FEF40E050E09E
:104310002AE030E008E710E00E94593581E290E0A1
:104320006FEF7FEF46E450E02EE130E008E210E06E
:104330000E94D33E8CEE9FEF909381028093800287
:104340006AE570E04AE550E02EE130E000E010E080
:104350000E946F408CE090E066E070E04BEF5FEF12
:1043600023E030E00EE010E0EE24FF24E8E2CE2E61
:10437000D12CAA24BB240E949D3B8AE090E066E0F9
:1043800070E04BEF5FEF25E030E00E949D3B86E060
:1043900090E066E070E048E15CEF23E030E0B9E1F6
:1043A000EB2EF12C0E949D3B85E090E06EE070E0EA
:1043B00042E150E029E130E00CE91FEFA8E2EA2EEB
:1043C000F12CCC24DD240E9498468DEE9FEF6AE507
:1043D00070E04AE550E028E230E000E010E00E94A2
:1043E0006F408CE090E066E070E04BEF5FEF23E021
:1043F00030E00EE010E0EE24FF24F8E2CF2ED12CC6
:104400000E949D3B8AE090E066E070E04BEF5FEF3A
:1044100025E030E00E949D3B8BEF9FEF66E070E06F
:1044200048E15CEF23E030E0E4E1EE2EF12C0E9465
:104430009D3B82EF9FEF66EA7FEF4EE150E02EE179
:1044400030E000E010E00E946F4080EB9FEF90931F
:104450008102809380028CE090E063E070E045E0B0
:1044600050E023E030E00EE010E0EE24FF240E9454
:104470009D3B8AE090E063E070E045E050E025E09D
:1044800030E00E949D3B8EEF9FEF63E070E048EECE
:1044900053E025E030E0B4E1EB2EF12C0E949D3B8F
:1044A00080E090E06AE070E046EF5FEF28E230E005
:1044B0000EEC1FEF0E94AB4360925E0270925F02AF
:1044C0008092600290926102609244027092450272
:1044D00080924602909247026AE570E070938102F2
:1044E0006093800283E090E06EE770E044E050E08B
:1044F0002FEB30E005E010E0ADEAEA2EF12CFEE112
:10450000CF2ED12CEEE1AE2EB12C0E94B6481092E7
:10451000810210928002B599FECFB59BFECF8091AB
:104520001E0290911F02009709F442C04091500270
:1045300030914F0220914E02909156028091550287
:10454000ADB7BEB71E970FB6F894BEBF0FBEADBFD6
:10455000EDB7FEB7319612965C924E9211970DE12F
:10456000A02E01E0B02EB382A2824483158236834E
:1045700017822087118692871386848715860E946A
:1045800081500DB71EB7025F1F4F0FB6F8941EBFC4
:104590000FBE0DBF80E060E0A2010E946701309174
:1045A000510220915202909153028091540244C0D2
:1045B00040916402309163022091620290916A02FC
:1045C000809169026DB77EB76E5070400FB6F89457
:1045D0007EBF0FBE6DBFEDB7FEB73196ADB7BEB7AC
:1045E00012965C924E9211971DE1A12E11E0B12E10
:1045F000B382A28244831582368317822087118674
:1046000092871386848715860E9481500DB71EB746
:10461000025F1F4F0FB6F8941EBF0FBE0DBF80E0A4
:1046200060E0A2010E94670130916502209166025C
:1046300090916702809168024DB75EB74C50504030
:104640000FB6F8945EBF0FBE4DBFEDB7FEB7319603
:10465000ADB7BEB712965C924E921197B6E3AB2EF1
:10466000B1E0BB2EB382A2823483158226831782E7
:1046700090871186828713860E9481500DB71EB7DE
:10468000045F1F4F0FB6F8941EBF0FBE0DBF81E031
:1046900060E0A2010E94670180911E0290911F02BA
:1046A00097FF03C0909581959F4F69E070E00E944D
:1046B0002D5790932102809320020E94A62780917B
:1046C000200266E60E94874FC82E8091200267E68E
:1046D0000E94874FE82E0091200220902102802F17
:1046E00068E60E94874F2DB73EB72C5030400FB67A
:1046F000F8943EBF0FBE2DBFEDB7FEB73196ADB7F4
:10470000BEB712965C924E921197AFE4AA2EA1E02A
:10471000BA2EB382A28204832582C6821782E086E3
:104720001186828713860E9481500DB71EB7045FE1
:104730001F4F0FB6F8941EBF0FBE0DBF82E060E0A2
:10474000A2010E9467012091A9023091AA02409122
:10475000AB025091AC026091A7027091A8027A83DB
:104760006983A0916103B0916203E0903503F090FA
:104770003603C090B102D090B2022090A5023090D2
:10478000A602609198027091990280919A0290918C
:104790009B02EDB7FEB774970FB6F894FEBF0FBE3D
:1047A000EDBF0DB71EB70F5F1F4F52824182E2E689
:1047B000AE2EE1E0BE2EF801B382A28235832483BF
:1047C0005783468329813A8131872087B387A2871F
:1047D000F586E486D786C686318A208A0E9498515B
:1047E000D80153967C936E9352970E948150EDB7F7
:1047F000FEB774960FB6F894FEBF0FBEEDBF83E010
:1048000060E0A2010E94670100D000D000D0EDB7A7
:10481000FEB73196ADB7BEB712965C924E92119725
:10482000B8E7AB2EB1E0BB2EB382A28280911E020C
:1048300090911F02958384830E9481500DB71EB70B
:104840000A5F1F4F0FB6F8941EBF0FBE0DBF83E067
:1048500060E1A2010E9467010C94FD0790E0FC0159
:10486000B096FE2FEE2720812093A00220FDFBCFE3
:104870008896B82FAA278C9190819093A00290FDE2
:10488000FBCF089590E08096F82FEE2780818093EB
:10489000A00280FDFBCF608380818093A00280FD19
:1048A000FBCF089580E061E00E94422482E061E055
:1048B0000E94422481E061E00E9442240895A82FD2
:1048C000B0E0FD01B096FE2FEE2780818093A0021C
:1048D00080FDFBCF9896BA2FAA27872F992787FDAF
:1048E0009A958C9380818093A00280FDFBCF6C937E
:1048F00080818093A00280FDFBCF08951F93CF930A
:10490000DF93182F80E06FE10E944224C1E0D0E0E5
:1049100002C0CC0FDD1F1A95E2F780E0BE010E94B5
:104920005F2481E06FE10E94422481E0BE010E9489
:104930005F2482E06FE10E94422482E0BE010E9477
:104940005F2480E061E00E94422482E061E00E94F6
:10495000422481E061E00E944224DF91CF911F91C7
:104960000895DF92EF92FF920F931F93D82E7A0152
:104970008B019B01552737FD5095452FB9010E94AA
:104980005F248D2DB7010E945F241F910F91FF902E
:10499000EF90DF9008951F93182F60E00E9442244B
:1049A0008CEC9CE10197F1F700C00000812F6DE1D4
:1049B0000E944224812F60E070E00E945F241F91DA
:1049C0000895AF92BF92CF92DF92EF92FF920F9332
:1049D0001F93CF93DF93F82E6B01EA018901AA247C
:1049E000A3946115710509F4AA24BB24B3942097FC
:1049F00009F4BB24EE24E3940115110509F4EE2417
:104A00008F2D6EE10E9442246B2D70E0660F771FA0
:104A1000660F771F8A2D90E043E0880F991F4A9513
:104A2000E1F7682B792B8E2D90E0880F991F682B6A
:104A3000792B8F2D0E945F24AA2021F08F2DB601A3
:104A40000E945F24BB2021F08F2DBE010E945F24B5
:104A5000EE2021F08F2DB8010E945F248F2D64E09D
:104A60000E944224DF91CF911F910F91FF90EF9010
:104A7000DF90CF90BF90AF9008958F929F92AF92AA
:104A8000BF92CF92DF92EF92FF920F931F93CF933B
:104A9000DF93F82E4B016A01E901AA24A394611562
:104AA000710509F4AA24BB24B394C114D10409F4F8
:104AB000BB24EE24E394209709F4EE248F2D6EE1BD
:104AC0000E9442246A2D70E0A3E0660F771FAA952A
:104AD000E1F761608B2D90E0880F991F880F991F77
:104AE000682B792B8E2D90E0880F991F682B792BDE
:104AF0008F2D0E945F24AA2021F08F2DB4010E94E7
:104B00005F24BB2021F08F2DB6010E945F24EE2090
:104B100021F08F2DBE010E945F248F2DB8010E94CD
:104B20005F248F2D64E00E944224DF91CF911F917A
:104B30000F91FF90EF90DF90CF90BF90AF909F903C
:104B40008F900895DF92EF92FF920F931F93D82ECC
:104B50007A018B016FE10E9442248D2D60E270E0AA
:104B60000E945F248D2DB801A7010E94B1241F91DE
:104B70000F91FF90EF90DF90089580E060E170E08A
:104B800040E050E020E430E00E94E12481E060E178
:104B900070E040E050E020E430E00E94E12482E058
:104BA00060E170E040E050E020E430E00E94E12469
:104BB00080E04FEF5FEF6FEF7FE30E94A22581E07F
:104BC0004FEF5FEF6FEF7FE30E94A22582E04FEF90
:104BD0005FEF6FEF7FE30E94A2250895DF92EF92CF
:104BE000FF920F931F93DF93CF930F92CDB7DEB752
:104BF000D82E7A018B0177FF0AC010950095F094AA
:104C0000E094E11CF11C011D111D90E001C091E038
:104C10008D2D6FE199830E9442249981792F72959D
:104C2000707F60E0686078608D2D0E945F248D2D1C
:104C3000B801A7010E94B1240F90CF91DF911F917D
:104C40000F91FF90EF90DF900895AF92BF92CF92B7
:104C5000DF92EF92FF920F931F93DF93CF93CDB725
:104C6000DEB72C970FB6F894DEBF0FBECDBF59014B
:104C70006A010E94CB5169837A838B839C83C6012E
:104C8000B5010E94CB516D837E838F839887C801C5
:104C9000B7010E94CB5169877A878B879C878E01E9
:104CA0000F5F1F4FEE24F801608171818281938133
:104CB00021E73CEA4BE85EE30E948F539B01AC0185
:104CC000F80121933193419351938F0120E030E01B
:104CD00040E857E40E948F530E949851AB01BC01F9
:104CE0008E2D0E94EE25E394FE2DF330E1F60E9416
:104CF00052242C960FB6F894DEBF0FBECDBFCF91D5
:104D0000DF911F910F91FF90EF90DF90CF90BF90B8
:104D1000AF9008954F925F926F927F928F929F9281
:104D2000AF92BF92CF92DF92EF92FF920F931F93B9
:104D3000982E862E29013A016FE10E944224682DA7
:104D400070E06A62892D0E945F24892DB301A2015F
:104D50000E94B124892DB801A7010E94B124892D98
:104D6000B601A5010E94B1241F910F91FF90EF9011
:104D7000DF90CF90BF90AF909F908F907F906F907B
:104D80005F904F9008959F92AF92BF92CF92DF9223
:104D9000EF92FF920F931F93DF93CF9300D00F9268
:104DA000CDB7DEB71ABA15BA8FEF84BB1092650083
:104DB00083E08093640010E8A12EB4E8BB2E6E015E
:104DC0000894C11CD11C85B3856085BB83E39BE23D
:104DD0000197F1F785B38A7F85BBECECFCE1319755
:104DE000F1F700C00000809165008D7F8093650021
:104DF000AB9885B3887F85BB99B39983A89A19B37B
:104E000085B3887F826085BB09B3943C09F494C064
:104E1000943809F491C015BA80E060E04FE751E0A2
:104E20000E94670181E060E045E851E00E9467016F
:104E3000143C09F481C0143809F47EC015BA80E02E
:104E400060E04FE751E00E94670182E060E045E9E1
:104E500051E00E946701043C09F46EC0043809F473
:104E60006BC015BA80E060E04FE751E00E94670137
:104E700083E060E045EA51E029C09E2C9C18892D12
:104E80006DE10E944224892D60E070E00E945F2461
:104E9000F8018081F70181937F0100501F4FF3E2F9
:104EA00000301F0751F78981803C99F0803889F0E4
:104EB00085B78F7385BF15BA80E060E045EB51E0A0
:104EC0000E94670181E060E045E851E00E946701CF
:104ED0007ACF80E060E04BEB51E00E94670180E018
:104EE00098B3976098BB2FEF3FEB46E021503040DE
:104EF0004040E1F700C0000098B3987F98BB2FEFC7
:104F00003FEB46E0215030404040E1F700C0000058
:104F10008F5F833029F70E94D8010F900F900F9078
:104F2000CF91DF911F910F91FF90EF90DF90CF9085
:104F3000BF90AF909F900895A5BE82E080936D00D2
:104F4000B0926C00760100E010E297CF4F925F9232
:104F50006F927F928F929F92AF92BF92CF92DF9289
:104F6000EF92FF920F931F93CF93DF9304E6802E6F
:104F7000912C84E00E947600982F80E0EC0185E07F
:104F80000E94760090E08C2B9D2BB4010E942D573F
:104F9000882777FD8095982F0E94CB51F62E072FFA
:104FA000182FE92E462E572E682E792E63015201B6
:104FB000E894D7F8C601B50120E030E044E353E4BB
:104FC0000E94F4521816ACF260919402709195020E
:104FD00080919602909197022F2D302F412F5E2DB8
:104FE0000E942951882309F4E5C06F2D702F812F6D
:104FF0009E2D20E030E0A9010E94295187FF5DC06D
:10500000609194027091950280919602909197021E
:1050100020E030E0A9010E94F45218160CF04DC0B7
:1050200020919402309195024091960250919702FE
:105030005F77C601B5010E94B25020E030E044E342
:1050400053E40E94295187FF15C0A0909802B090A8
:105050009902C0909A02D0909B02209194023091C4
:10506000950240919602509197026F2D702F812FDB
:105070009E2D1CC0A0909802B0909902C0909A02F8
:10508000D0909B026091940270919502809196025B
:10509000909197022F2D302F412F5E2D0E94B150FD
:1050A0009B01AC0160E070E084EB93E40E94B1509E
:1050B0009B01AC01C601B50169C0C301B20120E08A
:1050C00030E0A9010E94F45218160CF047C060911C
:1050D000940270919502809196029091970220E03F
:1050E00030E0A9010E94295187FF38C02091940225
:1050F0003091950240919602509197025F77C601D8
:10510000B5010E94B25020E030E044E353E40E9435
:10511000295187FD23C0E0909802F09099020091F8
:105120009A0210919B022091940230919502409135
:10513000960250919702C301B2010E94B1509B01A7
:10514000AC0160E070E084EB93E40E94B1509B01FD
:10515000AC01C801B7010E94B1501AC0E09098029A
:10516000F090990200919A0210919B022091940272
:10517000309195024091960250919702C301B2017D
:105180000E94B1509B01AC01C801B7010E94B2500E
:105190009B01AC01209398023093990240939A02AC
:1051A00050939B0240929402509295026092960214
:1051B00070929702DF91CF911F910F91FF90EF9026
:1051C000DF90CF90BF90AF909F908F907F906F9027
:1051D0005F904F9008952F923F924F925F926F92FF
:1051E0007F928F929F92AF92BF92CF92DF92EF9277
:1051F000FF920F931F93DF93CF93CDB7DEB76297E4
:105200000FB6F894DEBF0FBECDBF69837A838B8360
:105210009C832D833E834F8358873701480160E08C
:1052200070E084E394E4A60195010E94B150162F2A
:10523000072FF82EE92E8D819E81AF81B88580934E
:10524000A1029093A202A093A302B093A402898129
:105250009A81AB81BC818093370390933803A093EC
:105260003903B0933A03A092AD02B092AE02C0925D
:10527000AF02D092B002C601B50120E030E044E3B5
:1052800053E40E942951181684F0A8019701652F54
:10529000742F832F922F20E030E044EB53E40E94E0
:1052A000B150162F072FF82EE92EA8019701652F70
:1052B000702F832F9E2D20E030E044EB52E40E94BB
:1052C000B15069877A878B879C87C401B30123EF2C
:1052D00036E64FE55EE30E948F536D877E878F87AA
:1052E000988B80E090E036E9432E512C28E6222E60
:1052F00021E0322E9A8B898BB201882777FD809529
:10530000982F0E94CB515B016C01C20188589F4FBE
:10531000B1010E942D572C01C601B501D801F7013A
:105320002B2F302F4F2F5E2D0E94B15025E33AEFE7
:105330004EE85CE30E948F530E942D513B014C01CB
:10534000C601B501B985AA85AB84DC842B2F3A2F21
:105350004A2D5D2D0E94B15025E33AEF4EE85CE303
:105360000E948F530E942D515B016C016D817E81E3
:105370008F819885A40193010E948F533B014C01BA
:1053800069817A818B819C81A60195010E948F534E
:105390009B01AC01C401B3010E94B250BD85AE8532
:1053A000DF84A8882B2F3A2F4D2D5A2D0E94B15003
:1053B0002FE632E143E856E40E948F5323E333E3C0
:1053C00043E250EC0E948F530E949851AB01BC0104
:1053D00089890E94EE25A989BA891196BA8BA98B71
:1053E000A330B10509F088CF0E9452240E94A6275D
:1053F00062960FB6F894DEBF0FBECDBFCF91DF919E
:105400001F910F91FF90EF90DF90CF90BF90AF90E2
:105410009F908F907F906F905F904F903F902F90D4
:1054200008952F923F924F925F926F927F928F9248
:105430009F92AF92BF92CF92DF92EF92FF920F9323
:105440001F93DF93CF93CDB7DEB72C970FB6F894A9
:10545000DEBF0FBECDBF5B016C0139014A011701F0
:105460002801609198027091990280919A0290911E
:105470009B0220919C0230919D0240919E0250918E
:105480009F02E0909802F090990200919A02109188
:105490009B02E0929C02F0929D0200939E02109368
:1054A0009F02E0909002F090910200919202109180
:1054B00093020E94B1509B01AC01C801B7010E9448
:1054C000B1509B01AC012093900230939102409324
:1054D000920250939302C601B50120E030E0A90189
:1054E0000E942951882351F4C401B30120E030E027
:1054F000A9010E942951882309F4D2C0C601B5012F
:1055000020E030E048EC52E40E94305169837A8315
:105510008B839C83C401B30120E030E048EC52E46B
:105520000E9430516D837E838F83988760919002B3
:10553000709191028091920290919302A201910147
:105540000E94B150F62E072F182FE92E8091880265
:1055500090918902A0918A02B0918B0289879A87E3
:10556000AB87BC876F2D702F812F9E2D25E33AEFDF
:105570004EE85CE30E948F530E942D513B014C0189
:105580006F2D702F812F9E2D20E030E044EB52E4F0
:105590000E94B25025E33AEF4EE85CE30E948F533D
:1055A0000E942D515B016C0159814A813B812C8104
:1055B000652F742F832F922FA40193010E948F5384
:1055C0001B012C015D814E813F812885652F742F41
:1055D000832F922FA60195010E948F539B01AC014E
:1055E000C201B1010E94B2509B01AC0169857A856C
:1055F0008B859C850E94B2509B01AC012093880250
:105600003093890240938A0250938B0220908C023F
:1056100030908D0240908E0250908F026F2D702F2F
:10562000812F9E2D20E030E044EB52E40E94B150E7
:1056300025E33AEF4EE85CE30E948F530E942D5120
:105640007B018C015D814E813F812885652F742F00
:10565000832F922FA40193010E948F535B016C0151
:1056600059814A813B812C81652F742F832F922F82
:10567000A80197010E948F539B01AC01C601B5019F
:105680000E94B2509B01AC01C201B1010E94B25014
:105690009B01AC01E8E8F2E024833583468357831D
:1056A0002C960FB6F894DEBF0FBECDBFCF91DF9121
:1056B0001F910F91FF90EF90DF90CF90BF90AF9030
:1056C0009F908F907F906F905F904F903F902F9022
:1056D00008952F923F924F925F926F927F928F9296
:1056E0009F92AF92BF92CF92DF92EF92FF920F9371
:1056F0001F93DF93CF93CDB7DEB72E970FB6F894F5
:10570000DEBF0FBECDBF180187019A8389837C83DA
:105710006B83509541955F4F5E834D833095219506
:105720003F4F38872F83CE0101969A87898779E08A
:10573000472E512C4C0E5D1E7C0166247724CC2410
:10574000DD24D7016D917D917D01882777FD8095BE
:10575000982F0E94CB514B015C01E894B7F8662D5D
:10576000772D8C2D9D2DA50194010E94295187FF35
:1057700002C034016501E414F50419F7EE24FF2496
:10578000C101AA2797FDA095BA2F8B879C87AD876B
:10579000BE87A985BA85AD90BD90BA87A9876B856C
:1057A0007C858D859E850E94CB511B012C01B50106
:1057B000882777FD8095982F0E94CB51262D372D75
:1057C0004C2D5D2D0E943051A20191010E948F53FA
:1057D0009B01AC01F701EE0FFF1FEE0FFF1FEF5A09
:1057E000FC4F20833183428353830894E11CF11CD6
:1057F000B4E0EB16F10469F6043611052CF401153A
:10580000110509F051C005C00436110511F0045608
:10581000104091E0E92EF12C662D772D8C2D9D2DD9
:1058200020E030E048EC52E40E948F53A201910145
:105830000E9430510E9416515B016C019701225069
:105840003040C80117FF03C0909581959F4FB70165
:105850000E942D57620F731F882777FD8095982F20
:105860000E94CB519B01AC01C601B5010E94B25010
:105870000E949851CB012E960FB6F894DEBF0FBE52
:10588000CDBFCF91DF911F910F91FF90EF90DF90EF
:10589000CF90BF90AF909F908F907F906F905F90D0
:1058A0004F903F902F90089582E0E82EF12CB4CFD6
:1058B0002F923F924F925F926F927F928F929F9220
:1058C000AF92BF92CF92DF92EF92FF920F931F930E
:1058D000DF93CF93CDB7DEB72E970FB6F894DEBF28
:1058E0000FBECDBF7A8369836536710514F06456A7
:1058F00070404B0177FF04C088249924861A970AC8
:10590000E0905A02F0905B02A7014F5F5F4F9C014D
:105910002E193F0900E010E05A01CC24B7FCC094D6
:10592000DC2CAB82BC82CD82DE821401442437FCA5
:105930004094542C6C01C818D908D886CF82C9016C
:10594000AA2797FDA095BA2F89879A87AB87BC872E
:105950007E876D873401F7FC34C0AD85BE85B7FD09
:105960002DC04801880C991C880C991CF401EF5A31
:10597000FC4FA080B180C280D3806B817C818D81FF
:105980009E810E94CB519B01AC01C601B5010E94D2
:105990008F535B016C01C201B1010E94CB519B018D
:1059A000AC01C601B5010E9430519B01AC01F4016C
:1059B000ED59FC4F2083318342835383E614F7046F
:1059C00024F4ED85FE85F7FF13C09801220F331FE5
:1059D000220F331FF901EF5AFC4F80819181A28180
:1059E000B3812D593C4FF90180839183A283B38306
:1059F000AF80B884AE14BF0494F549815A8145360E
:105A0000510568F14801880C991C880C991CF40117
:105A1000EF5AFC4FA080B180C280D38069857A851F
:105A20008B859C850E94CB519B01AC01C601B501C1
:105A30000E948F535B016C01C201B1010E94CB51E6
:105A40009B01AC01C601B5010E9430519B01AC0124
:105A5000F401ED59FC4F20833183428353830F5F60
:105A60001F4F0430110509F076CF2E960FB6F8942B
:105A7000DEBF0FBECDBFCF91DF911F910F91FF9081
:105A8000EF90DF90CF90BF90AF909F908F907F90DE
:105A90006F905F904F903F902F90089581E090E03D
:105AA0000A9B02C080E090E09093AC028093AB022E
:105AB00081E090E00B9B02C080E090E09093A80210
:105AC0008093A70281E090E00C9B02C080E090E010
:105AD000909362038093610381E090E0849B02C015
