:100000000C9455000C9474000C9474000C947400BF
:100010000C9474000C9474000C9474000C94740090
:100020000C9474000C9474000C9474000C94740080
:100030000C9474000C9474000C94C0310C947400F3
:100040000C9474000C9474000C9469560C94740015
:100050000C9474000C9474000C9474000C94740050
:100060000C9474000C9474000C9474000C94740040
:100070000C9474000C9474000C940A010C94740099
:100080000C9474000C9474000C94740005A84CCD6E
:10009000B2D44EB93836A9020C50B9918688083CC2
:1000A000A6AAAA2ABE000000803F11241FBECFEFDF
:1000B000D0E1DEBFCDBF12E0A0E0B1E0EEEEFBEBA1
:1000C00000E00BBF02C007900D92A837B107D9F727
:1000D00016E0A8E7B2E001C01D92AB37B107E1F727
:1000E0000E94F91B0C9411570C94000094EA909311
:1000F00074009091740097FFFCCF9AE09093730086
:1001000094E8909374009091740097FFFCCF8093D3
:10011000730084E8809374008091740087FFFCCFA3
:1001200084E98093740084EA809374008091740061
:1001300087FFFCCF8BE08093730084E8809374008A
:100140008091740087FFFCCF84E8809374008091D5
:10015000740087FFFCCF8091730094E99093740042
:10016000089594EA909374009091740097FFFCCFE7
:100170009AE09093730094E89093740090917400C7
:1001800097FFFCCF8093730084E880937400809184
:10019000740087FFFCCF6093730084E88093740041
:1001A0008091740087FFFCCF84E9809374000895E8
:1001B00010929B0088E980939A0086E080939D00CE
:1001C000109298008FE580939900789408951F937A
:1001D0001FEF1093730081E4809370000E94EA2A5D
:1001E0000E9455560E94D8000E94E4291FBC85E059
:1001F0008EBD1DBD80E78CBD84E087BF78948FE005
:1002000087BB81B3807F81BB84B3806F84BB18BA06
:100210001F9108951F920F920FB60F9211248F9382
:10022000DF93CF930F92CDB7DEB780919C00898387
:1002300080919B00887BE1F381E080937802898143
:10024000809379020F90CF91DF918F910F900FBE25
:100250000F901F901895DF93CF930F92CDB7DEB715
:1002600080917902898310927902F8941092780231
:10027000789489810F90CF91DF91089590919B00A0
:1002800095FFFCCF80939C000895CF93DF93E4E724
:10029000F0E094EA9083A1EEB2E01197F1F700004C
:1002A000A3E7B0E09EE09C9394E89083C1EED2E097
:1002B0002197F1F700008C93908381EE92E00197F3
:1002C000F1F7000084E98083DF91CF910895EF92E8
:1002D000FF920F931F93DF93CF9300D0CDB7DEB77C
:1002E000082F162F843070F5643160F58BE1498357
:1002F0005A830E9445018CE40E944501812F0E948F
:100300004501802F0E94450180E791E00197F1F7B8
:1003100000C0E12EFF2449815A81042F152F06C009
:100320000E94450194EC9A95F1F700C0E4E1EE16C5
:10033000F10444F4F80181918F010894E11CF11C4F
:10034000882371F70F900F90CF91DF911F910F913C
:10035000FF90EF9008951F93DF93CF9300D0CDB718
:10036000DEB7182F8430F0F46431E0F48BE12A8397
:1003700069830E9445018CE40E9445016981862FB2
:100380000E944501812F0E94450180E791E001977D
:10039000F1F700C02A81822F0E94450194EC9A95C2
:1003A000F1F700C00F900F90CF91DF911F9108954A
:1003B0008BE10E94450183E40E94450186E696EEAA
:1003C000A0E081509040A040E1F70895EF92FF92A5
:1003D0000F931F93182FF62EE42E842F64E60E94AD
:1003E000C25D082F282F30E0205D3F4F442737FDA6
:1003F0004095542F812F6F2D0E94AB018CE9089FEF
:10040000002D11240E0D802F6AE00E94C25DE82E9F
:100410006F2D6F5F282F30E0205D3F4F442737FD61
:100420004095542F812F0E94AB016F2D6E5F26EFF8
:10043000E29E202D1124200F30E0205D3F4F442705
:1004400037FD4095542F812F0E94AB011F910F91D2
:10045000FF90EF900895AF92BF92CF92DF92EF920C
:10046000FF920F931F939C0163E070E00E94CE5DAA
:10047000009709F06BC38DEF9FEF9093CF018093AE
:10048000CE012C30310509F09FC080E090E0DC0106
:100490008093440390934503A0934603B09347038E
:1004A00080932A0390932B03A0932C03B0932D03E6
:1004B0008AE590E0909367038093660383E090E081
:1004C0006EE770E044E050E028EB30E005E010E03B
:1004D000A7EAEA2EF12CF2E3CF2ED12CEEE1AE2EDC
:1004E000B12C0E94364F10926703109266038CE085
:1004F00090E061E070E048E050E023E030E00BE0A5
:1005000010E0EE24FF24BCE3CB2ED12CA6E4AA2ECF
:10051000B12C0E94CD3F8AE090E061E070E049E1BB
:1005200050E025E030E0AA24BB240E94CD3F84E1C6
:1005300090E060EB7FEF45ED5FEF22E330E004EC0D
:100540001FEF0E949F4480E090E06EEE7FEF40E05E
:1005500050E022E330E00CE310E00E9480398BEFA2
:100560009FEF6DE270E04DE050E02DE230E000E002
:1005700010E00E949F4482EE9FEF90936703809368
:10058000660380E090E066EF7FEF4AE050E022E310
:1005900030E00E9403438CEE9FEF909367038093BB
:1005A00066038CE090E064E070E049EF5FEF23E0E9
:1005B00030E001E110E00E94CD3F8AE090E064E08D
:1005C00070E049EF5FEF87C22930310509F09FC025
:1005D00080E090E0DC018093440390934503A09376
:1005E0004603B093470380932A0390932B03A09371
:1005F0002C03B0932D038AE590E0909367038093DA
:10060000660383E090E06EE770E044E050E028EBA2
:1006100030E005E010E0F7EAEF2EF12CE2E3CE2E19
:10062000D12CBEE1AB2EB12C0E94364F1092670345
:10063000109266038CE090E061E070E048E050E0EA
:1006400023E030E00BE010E0EE24FF24ACE3CA2E00
:10065000D12CF6E4AF2EB12C0E94CD3F8AE090E081
:1006600061E070E04BE450E025E030E0AA24BB24D8
:100670000E94CD3F84E190E060EB7FEF45ED5FEFBE
:1006800022E330E004EC1FEF0E949F4480E090E002
:100690006EEE7FEF40E050E022E330E00CE310E04C
:1006A0000E9480398BEF9FEF6DE270E04DE050E0EB
:1006B0002DE230E000E010E00E949F4482EE9FEFC8
:1006C000909367038093660380E090E066EF7FEF8E
:1006D0004AE050E022E330E00E9403438CEE9FEFBB
:1006E00090936703809366038CE090E064E070E091
:1006F00049EF5FEF23E030E001E110E00E94CD3FE1
:100700008AE090E064E070E047EC5FEFE4C12630FF
:10071000310509F09FC080E090E0DC018093440344
:1007200090934503A0934603B093470380932A0315
:1007300090932B03A0932C03B0932D038AE590E0B4
:10074000909367038093660383E090E06EE770E028
:1007500044E050E028EB30E005E010E0E7EAEE2E60
:10076000F12CB2E3CB2ED12CAEE1AA2EB12C0E94FB
:10077000364F10926703109266038CE090E061E0C0
:1007800070E048E050E023E030E00BE010E0EE24C1
:10079000FF24FCE3CF2ED12CE6E4AE2EB12C0E9438
:1007A000CD3F8AE090E061E070E04FE750E025E067
:1007B00030E0AA24BB240E94CD3F84E190E060EBAE
:1007C0007FEF45ED5FEF22E330E004EC1FEF0E9486
:1007D0009F4480E090E06EEE7FEF40E050E022E347
:1007E00030E00CE310E00E9480398BEF9FEF6DE268
:1007F00070E04DE050E02DE230E000E010E00E94BB
:100800009F4482EE9FEF909367038093660380E09E
:1008100090E066EF7FEF4AE050E022E330E00E9494
:1008200003438CEE9FEF90936703809366038CE005
:1008300090E064E070E049EF5FEF23E030E001E139
:1008400010E00E94CD3F8AE090E064E070E045E96E
:100850005FEF41C12330310509F09FC080E090E097
:10086000DC018093440390934503A0934603B09327
:10087000470380932A0390932B03A0932C03B093F8
:100880002D038AE590E0909367038093660383E0ED
:1008900090E06EE770E044E050E028EB30E005E0E7
:1008A00010E0B7EAEB2EF12CA2E3CA2ED12CFEE128
:1008B000AF2EB12C0E94364F109267031092660340
:1008C0008CE090E061E070E048E050E023E030E050
:1008D0000BE010E0EE24FF24ECE3CE2ED12CB6E4A6
:1008E000AB2EB12C0E94CD3F8AE090E061E070E039
:1008F0004FEA50E025E030E0AA24BB240E94CD3F1F
:1009000084E190E060EB7FEF45ED5FEF22E330E0C4
:1009100004EC1FEF0E949F4480E090E06EEE7FEFBA
:1009200040E050E022E330E00CE310E00E94803928
:100930008BEF9FEF6DE270E04DE050E02DE230E094
:1009400000E010E00E949F4482EE9FEF90936703C7
:100950008093660380E090E066EF7FEF4AE050E02E
:1009600022E330E00E9403438CEE9FEF90936703F5
:10097000809366038CE090E064E070E049EF5FEF05
:1009800023E030E001E110E00E94CD3F8AE090E0FA
:1009900064E070E043E65FEF9EC080E090E0DC0141
:1009A0008093440390934503A0934603B093470379
:1009B00080932A0390932B03A0932C03B0932D03D1
:1009C0008AE590E0909367038093660383E090E06C
:1009D0006EE770E044E050E028EB30E005E010E026
:1009E000A7EAEA2EF12CF2E3CF2ED12CEEE1AE2EC7
:1009F000B12C0E94364F10926703109266038CE070
:100A000090E061E070E048E050E023E030E00BE08F
:100A100010E0EE24FF24BCE3CB2ED12CA6E4AA2EBA
:100A2000B12C0E94CD3F8AE090E061E070E041EEA1
:100A300050E025E030E0AA24BB240E94CD3F84E1B1
:100A400090E060EB7FEF45ED5FEF22E330E004ECF8
:100A50001FEF0E949F4480E090E06EEE7FEF40E049
:100A600050E022E330E00CE310E00E9480398BEF8D
:100A70009FEF6DE270E04DE050E02DE230E000E0ED
:100A800010E00E949F4482EE9FEF90936703809353
:100A9000660380E090E066EF7FEF4AE050E022E3FB
:100AA00030E00E9403438CEE9FEF909367038093A6
:100AB00066038CE090E064E070E049EF5FEF23E0D4
:100AC00030E001E110E00E94CD3F8AE090E064E078
:100AD00070E041E35FEF25E030E00E94CD3F8BEF17
:100AE0009FEF64E070E048E15CEF23E030E0F9E183
:100AF000EF2EF12C0E94CD3F80E090E067EF7FEF7A
:100B000044E150E02CE330E00AEB1FEF0E94034386
:100B100080E090E0DC018093440390934503A09330
:100B20004603B093470380932A0390932B03A0932B
:100B30002C03B0932D038AE590E090936703809394
:100B4000660383E090E06EE770E064C32E30310509
:100B500009F09FC080E090E0DC0180934403909313
:100B60004503A0934603B093470380932A039093D1
:100B70002B03A0932C03B0932D038AE590E0909370
:100B800067038093660386E090E060E970E044E0EC
:100B900050E028EB30E005E010E0E7EAEE2EF12C23
:100BA000B2E3CB2ED12CAEE1AA2EB12C0E94364F4F
:100BB00010926703109266038CE090E068E070E0AA
:100BC00048E050E023E030E00DE010E0EE24FF24A8
:100BD000FCE3CF2ED12CE6E4AE2EB12C0E94CD3F0B
:100BE0008AE090E068E070E049E150E025E030E024
:100BF000AA24BB240E94CD3F84E190E06AE570E026
:100C00004BE250E022E330E004EC1FEF0E949F44EF
:100C100080E090E06EEE7FEF40E050E022E330E0D5
:100C20000CE310E00E9480398BEF9FEF63ED7FEFC4
:100C300043EF5FEF2DE230E000E010E00E949F44C0
:100C40008EE190E0909367038093660380E090E0EC
:100C500066EF7FEF46EF5FEF22E330E00E94034351
:100C600084E190E090936703809366038CE090E0CA
:100C700065E070E049EF5FEF23E030E00DE010E069
:100C80000E94CD3F8AE090E065E070E049EF5FEFC1
:100C900087C22B30310509F09FC080E090E0DC0175
:100CA0008093440390934503A0934603B093470376
:100CB00080932A0390932B03A0932C03B0932D03CE
:100CC0008AE590E0909367038093660386E090E066
:100CD00060E970E044E050E028EB30E005E010E02F
:100CE000B7EAEB2EF12CA2E3CA2ED12CFEE1AF2EF7
:100CF000B12C0E94364F10926703109266038CE06D
:100D000090E068E070E048E050E023E030E00DE083
:100D100010E0EE24FF24ECE3CE2ED12CB6E4AB2E73
:100D2000B12C0E94CD3F8AE090E068E070E04BE497
:100D300050E025E030E0AA24BB240E94CD3F84E1AE
:100D400090E06AE570E04BE250E022E330E004EC32
:100D50001FEF0E949F4480E090E06EEE7FEF40E046
:100D600050E022E330E00CE310E00E9480398BEF8A
:100D70009FEF63ED7FEF43EF5FEF2DE230E000E0A8
:100D800010E00E949F448EE190E09093670380936F
:100D9000660380E090E066EF7FEF46EF5FEF22E3CF
:100DA00030E00E94034384E190E0909367038093D6
:100DB00066038CE090E065E070E049EF5FEF23E0D0
:100DC00030E00DE010E00E94CD3F8AE090E065E069
:100DD00070E047EC5FEFE4C12830310509F09FC0B7
:100DE00080E090E0DC018093440390934503A0935E
:100DF0004603B093470380932A0390932B03A09359
:100E00002C03B0932D038AE590E0909367038093C1
:100E1000660386E090E060E970E044E050E028EB93
:100E200030E005E010E0A7EAEA2EF12CF2E3CF2E45
:100E3000D12CEEE1AE2EB12C0E94364F10926703FA
:100E4000109266038CE090E068E070E048E050E0CB
:100E500023E030E00DE010E0EE24FF24BCE3CB2ED5
:100E6000D12CA6E4AA2EB12C0E94CD3F8AE090E0BE
:100E700068E070E04DE750E025E030E0AA24BB24B4
:100E80000E94CD3F84E190E06AE570E04BE250E0E3
:100E900022E330E004EC1FEF0E949F4480E090E0EA
:100EA0006EEE7FEF40E050E022E330E00CE310E034
:100EB0000E9480398BEF9FEF63ED7FEF43EF5FEF91
:100EC0002DE230E000E010E00E949F448EE190E0CF
:100ED000909367038093660380E090E066EF7FEF76
:100EE00046EF5FEF22E330E00E94034384E190E0AD
:100EF00090936703809366038CE090E065E070E078
:100F000049EF5FEF23E030E00DE010E00E94CD3FBD
:100F10008AE090E065E070E045E95FEF41C125308F
:100F2000310509F09FC080E090E0DC01809344032C
:100F300090934503A0934603B093470380932A03FD
:100F400090932B03A0932C03B0932D038AE590E09C
:100F5000909367038093660386E090E060E970E019
:100F600044E050E028EB30E005E010E0F7EAEF2E37
:100F7000F12CE2E3CE2ED12CBEE1AB2EB12C0E949F
:100F8000364F10926703109266038CE090E068E0A1
:100F900070E048E050E023E030E00DE010E0EE24A7
:100FA000FF24ACE3CA2ED12CF6E4AF2EB12C0E9464
:100FB000CD3F8AE090E068E070E04FEA50E025E045
:100FC00030E0AA24BB240E94CD3F84E190E06AE592
:100FD00070E04BE250E022E330E004EC1FEF0E94AF
:100FE0009F4480E090E06EEE7FEF40E050E022E32F
:100FF00030E00CE310E00E9480398BEF9FEF63ED4F
:101000007FEF43EF5FEF2DE230E000E010E00E9461
:101010009F448EE190E0909367038093660380E0A5
:1010200090E066EF7FEF46EF5FEF22E330E00E9453
:10103000034384E190E090936703809366038CE020
:1010400090E065E070E049EF5FEF23E030E00DE015
:1010500010E00E94CD3F8AE090E065E070E043E65A
:101060005FEF9EC080E090E0DC01809344039093AA
:101070004503A0934603B093470380932A039093BC
:101080002B03A0932C03B0932D038AE590E090935B
:1010900067038093660386E090E060E970E044E0D7
:1010A00050E028EB30E005E010E0E7EAEE2EF12C0E
:1010B000B2E3CB2ED12CAEE1AA2EB12C0E94364F3A
:1010C00010926703109266038CE090E068E070E095
:1010D00048E050E023E030E00DE010E0EE24FF2493
:1010E000FCE3CF2ED12CE6E4AE2EB12C0E94CD3FF6
:1010F0008AE090E068E070E041EE50E025E030E00A
:10110000AA24BB240E94CD3F84E190E06AE570E010
:101110004BE250E022E330E004EC1FEF0E949F44DA
:1011200080E090E06EEE7FEF40E050E022E330E0C0
:101130000CE310E00E9480398BEF9FEF63ED7FEFAF
:1011400043EF5FEF2DE230E000E010E00E949F44AB
:101150008EE190E0909367038093660380E090E0D7
:1011600066EF7FEF46EF5FEF22E330E00E9403433C
:1011700084E190E090936703809366038CE090E0B5
:1011800065E070E049EF5FEF23E030E00DE010E054
:101190000E94CD3F8AE090E065E070E041E35FEFC0
:1011A00025E030E00E94CD3F8CEF9FEF65E070E0DE
:1011B00048E15CEF23E030E0B9E1EB2EF12C0E9436
:1011C000CD3F80E090E067EF7FEF4CEE5FEF2CE3E8
:1011D00030E00AEB1FEF0E94034380E090E0DC0167
:1011E0008093440390934503A0934603B093470331
:1011F00080932A0390932B03A0932C03B0932D0389
:101200008AE590E0909367038093660386E090E020
:1012100060E970E044E050E028EB30E005E010E0E9
:10122000A7EAEA2EF12CF2E3CF2ED12CEEE1AE2E7E
:10123000B12C0E94364F10926703109266031F91E3
:101240000F91FF90EF90DF90CF90BF90AF900895F7
:101250002F923F924F925F926F927F928F929F92C6
:10126000AF92BF92CF92DF92EF92FF920F931F93B4
:10127000CF93DF932B011A0163E070E00E94CE5DF3
:10128000009709F099C00F2EF0E06F2EF0E07F2E4E
:10129000F0E08F2EF0E09F2EF02D609244037092CC
:1012A0004503809246039092470360922A0370920E
:1012B0002B0380922C0390922D03CAE5D0E0D093AB
:1012C0006703C093660383E090E06EE770E044E05C
:1012D00050E028EB30E005E010E0B7EAEB2EF12C0F
:1012E000A2E3CA2ED12CFEE1AF2EB12C0E94364FC4
:1012F00010926703109266038EE190E06FEF7FEF2C
:1013000046E450E028E230E002E310E00E940343AC
:101310008CEE9FEF909367038093660385E090E0E7
:101320006BE070E04FE050E020E030E002E91FEFBA
:10133000E2E3EE2EF12CCC24DD240E94F54C85E076
:1013400090E06BE070E04FE050E029E130E008E130
:101350001CEF0E94F54C80E090E063EF7FEF44E1EA
:1013600050E022E330E004EC1FEF0E940343609260
:101370004403709245038092460390924703609223
:101380002A0370922B0380922C0390922D03D0930A
:101390006703C093660383E090E06EE770E044E08B
:1013A00050E028EB30E005E010E0B7EAEB2EF12C3E
:1013B000A2E3CA2ED12C38C080E090E060E070E05B
:1013C0004AE550E022E830E008E710E00E9480396A
:1013D00080E090E0DC018093440390934503A09368
:1013E0004603B093470380932A0390932B03A09363
:1013F0002C03B0932D038AE590E0909367038093CC
:10140000660383E090E06EE770E044E050E028EB94
:1014100030E005E010E0F7EAEF2EF12CE2E3CE2E0B
:10142000D12CBEE1AB2EB12C0E94364F1092670337
:10143000109266034114510409F060C10F2EF0E0D0
:101440006F2EF0E07F2EF0E08F2EF0E09F2EF02D3B
:101450006092440370924503809246039092470342
:1014600060922A0370922B0380922C0390922D039A
:10147000CAE5D0E0D0936703C093660383E090E0B1
:101480006EE770E044E050E028EB30E005E010E06B
:10149000A7EAEA2EF12CF2E3CF2ED12CEEE1AE2E0C
:1014A000B12C0E94364F109267031092660380E0C1
:1014B00090E06CE370E044E150E022E330E00CE3C4
:1014C00010E00E94034314E1412E512C5092670317
:1014D0004092660389E190E06DE270E049E150E0FE
:1014E0002DE230E000E010E00E949F44109267037C
:1014F0001092660380E090E06BE070E04FE050E017
:1015000020E030E000E510E0B2E3EB2EF12CA4EC9B
:10151000CA2EAFEFDA2E0E94F54C83ED9FEF909329
:1015200067038093660384E190E06BEF7FEF4DE209
:1015300050E028E230E006E910E00E9403436092A8
:101540004403709245038092460390924703609251
:101550002A0370922B0380922C0390922D03D09338
:101560006703C093660386E090E060E970E044E0C2
:1015700050E028EB30E005E010E0F7EAEF2EF12C28
:10158000E2E3CE2ED12C0E94364F109267031092C8
:10159000660380E090E060E070E04AE550E026E419
:1015A00030E002E810E00E948039609244037092BB
:1015B0004503809246039092470360922A037092FB
:1015C0002B0380922C0390922D03D0936703C0933A
:1015D000660383E090E06EE770E044E050E028EBC3
:1015E00030E005E010E00E94364F10926703109241
:1015F00066038DEF9FEF60E070E040E050E02AE08E
:1016000030E008E710E00E948039C10163E070E03B
:101610000E94CE5D0097B9F580E090E06EE170E049
:1016200044E150E022E330E00CE310E00E94034389
:10163000509267034092660389E190E06AE570E0AA
:101640004AE550E02DE230E000E010E00E949F44C7
:1016500089E190E06AE570E04CE350E02DE230E093
:101660000E949F4486EF9FEF9093670380936603E9
:1016700088E090E06BE170E040EB5FEF2EE130E05E
:1016800008ED1FEF52C280E090E06CE370E044E1AF
:1016900050E022E330E00CE310E00E94034350925C
:1016A00067034092660388E190E06AE570E040E0FD
:1016B00050E02DE230E000E010E00E949F4486EA16
:1016C0009FEF909367038093660387E190E066EA5B
:1016D0007FEF40E050E02DE230E00E949F445092C6
:1016E0006703409266038BEF9FEF6AE370E046E486
:1016F00050E022E330E004EC1FEF70C281E04816B6
:10170000510409F00DC180E090E063E370E044E132
:1017100050E022E330E00CE310E00E94034314E1C8
:10172000412E512C509267034092660389E190E06C
:101730006AE570E046E450E02DE230E009EC1FEF8E
:101740000E949F4410926703109266030F2EF0E0F0
:101750006F2EF0E07F2EF0E08F2EF0E09F2EF02D28
:10176000609244037092450380924603909247032F
:1017700060922A0370922B0380922C0390922D0387
:1017800087E690E063E070E00E94793460E070E00A
:101790004CE750E027EA30E00E94483780E090E0D4
:1017A0006AE070E040E050E028E230E002E310E060
:1017B0000E948039C10163E070E00E94CE5D009715
:1017C00009F066C08AE090E06AE570E040E050E031
:1017D00028E230E000E010E00E949F448BEF9FEF92
:1017E00060E070E046EA5FEF2DE230E009EC1FEFC9
:1017F000B6E4EB2EF12C0E94084A86EA9FEF909304
:101800006703809366038EEC9FEF6AE570E04CEE11
:101810005FEF28E230E002E310E00E949F448CEE8C
:101820009FEF909367038093660380E090E06FE002
:1018300070E040E050E02DE230E000E010E00E9477
:10184000803985E090E06BE170E04AEB5FEF23E2E6
:1018500030E003ED1FEF0E94034360924403709257
:101860004503809246039092470360922A03709248
:101870002B0380922C0390922D038AE590E09093A5
:1018800067038093660383E090E06EE770E0C0C179
:101890008AE090E066EA7FEF40E050E028E230E046
:1018A00000E010E00E949F4485E090E060E070E07E
:1018B0004AE550E02DE230E009EC1FEFA6E4EA2E05
:1018C000F12C0E94084ACAE5D0E0D0936703C09388
:1018D00066038EEC9FEF66EA7FEF44E150E028E27A
:1018E00030E002E310E00E949F4450926703409270
:1018F000660380E090E06FE070E040E050E02DE2B1
:1019000030E000E010E00E9480398BEF9FEF6EE145
:1019100070E046E450E02DE230E009EC1FEF5EC1DC
:1019200080E090E06EE170E044E150E022E330E0DE
:101930000CE310E00E94034384E190E0909367037E
:10194000809366038BE190E06AE570E04AE550E041
:101950002DE230E000E010E00E949F4480E090E043
:101960006AE070E04EE150E028E230E00EEC1FEF5C
:101970000E940343109267031092660380E090E098
:1019800068E270E040E050E028E230E006E910E074
:101990000E94803982E390E090936703809366030E
:1019A00087EE9FEF60E070E04EEC5FEF28E230E002
:1019B0000E9403430F2EF0E06F2EF0E07F2EF0E048
:1019C0008F2EF0E09F2EF02D60924403709245031D
:1019D000809246039092470360922A0370922B03F1
:1019E00080922C0390922D03CAE5D0E0D093670338
:1019F000C093660383E090E06EE770E044E050E05F
:101A000028EB30E005E010E0F7EAEF2EF12CE2E3FE
:101A1000CE2ED12CBEE1AB2EB12C0E94364F1092AF
:101A200067031092660380E090E060E070E046EAB1
:101A30005FEF26E430E002E810E00E948039609217
:101A4000440370924503809246039092470360924C
:101A50002A0370922B0380922C0390922D03D09333
:101A60006703C093660386E090E060E970E044E0BD
:101A700050E028EB30E005E010E00E94364F109275
:101A800067031092660383E090E060E070E040E05E
:101A900050E02AE030E008E710E00E948039C10100
:101AA00063E070E00E94CE5D009709F05FC080E0C7
:101AB00090E06CE370E04CEE5FEF22E330E00CE38B
:101AC00010E00E940343ACEE4A2EAFEF5A2E509224
:101AD00067034092660388E190E066EA7FEF40E0AA
:101AE00050E02DE230E000E010E00E949F4486E4E8
:101AF00090E0909367038093660387E190E06AE546
:101B000070E040E050E02DE230E00E949F445092AF
:101B100067034092660385E090E062E370E04AEB81
:101B20005FEF28E230E00EEC1FEF0E94034360926B
:101B3000440370924503809246039092470360925B
:101B40002A0370922B0380922C0390922D03D09342
:101B50006703C093660383E090E06EE770E044E0C3
:101B600050E028EB30E005E010E061C080E090E05C
:101B70006EE170E04CEE5FEF22E330E00CE310E04A
:101B80000E9403438CEE9FEF90936703809366035C
:101B900089E190E066EA7FEF46EA5FEF2DE230E010
:101BA00000E010E00E949F4489E190E066EA7FEF48
:101BB00044EC5FEF2DE230E00E949F448AE090E029
:101BC000909367038093660388EF9FEF6EE170E068
:101BD00040E550E028E230E00EEC1FEF0E940343A6
:101BE00060924403709245038092460390924703AB
:101BF00060922A0370922B0380922C0390922D0303
:101C0000D0936703C093660386E090E060E970E0DC
:101C100044E050E028EB30E005E010E0F7EAEF2E7A
:101C2000F12CE2E3CE2ED12CBEE1AB2EB12C0E94E2
:101C3000364F1092670310926603DF91CF911F9188
:101C40000F91FF90EF90DF90CF90BF90AF909F905B
:101C50008F907F906F905F904F903F902F9008955E
:101C6000AF92BF92CF92DF92EF92FF920F931F93AA
:101C7000CF93DF9380E090E065E570E048E250E0CC
:101C800022E330E000EA10E00E94034387E690E0A0
:101C900063E070E00E94793490937F0280937E022B
:101CA00080E090E060E070E042E350E026E430E065
:101CB00002E810E00E94803987E690E063E070E07F
:101CC0000E947934909381028093800280E090E0BA
:101CD00060E070E042E350E026E430E00E948039AA
:101CE00082E390E0909367038093660387E690E039
:101CF00063E070E00E9479349093830280938202C3
:101D00000E94D8018DB79EB70A970FB6F8949EBF70
:101D10000FBE8DBFEDB7FEB73196C1E4D6E0ADB7CB
:101D2000BEB71296DC93CE93119780E091E0938337
:101D3000828380917E0290917F029583848380913B
:101D40008002909181029783868380918202909194
:101D50008302918780870E9422578DB79EB70A968B
:101D60000FB6F8949EBF0FBE8DBF81E060E0AE015C
:101D70000E9467018BEA9FEF60E070E044E75FEF4D
:101D800022E330E000EA10E00E94034380E090E0AC
:101D9000DC018093440390934503A0934603B093E2
:101DA000470380932A0390932B03A0932C03B093B3
:101DB0002D038AE590E0909367038093660383E0A8
:101DC00090E06EE770E044E050E028EB30E005E0A2
:101DD00010E0A7EAEA2EF12CF2E3CF2ED12CEEE1AF
:101DE000AE2EB12C0E94364F1092670310926603FC
:101DF000DF91CF911F910F91FF90EF90DF90CF90E7
:101E0000BF90AF900895262F372FF90120E030E0E2
:101E100007C0619171918617970741F02F5F3F4F7F
:101E200024173507B4F320E030E002C021E030E0B1
:101E3000C90108950F931F93CF93DF93EC018B019A
:101E4000CB016FEF7FEF48E050E00E941457C330A2
:101E5000D1052CF0CE010397F80191838083CE0148
:101E600063E070E00E94CE5D1816190634F49E01FE
:101E700021503040F80133832283CF30D10534F430
:101E80009E012D5F3F4FF8013583248382309105F9
:101E900069F02196F801D783C6838130910531F42A
:101EA0008FEF9FEF9583848391838083DF91CF9120
:101EB0001F910F9108958F929F92AF92BF92CF92F0
:101EC000DF92EF92FF920F931F93CF93DF93EC017A
:101ED0007B015901809146049091470448175907A6
:101EE0000CF067C0FA01EE0FFF1FE851FB4FD183E2
:101EF000C083C617D70771F4509347044093460434
:101F0000A6E9B3E0E8EEF4E084E101900D9281509F
:101F1000E1F74FC0FE01EE0FFF1FE051FD4F81E0E2
:101F200090E0918380838E0173E0000F111F7A95FA
:101F3000E1F704501B4F64E0C62ED12C4A010894EF
:101F4000811C911CF801819191918F0197FD25C011
:101F5000FC01EE0FFF1FEA0DFB1D208131812115D1
:101F6000310519F08E159F05C1F49C01220F331F16
:101F7000F901E051FD4F408151814115510569F44E
:101F800024533D4FF901208131812115310529F478
:101F9000B701A40195010E945B0F0894C108D10804
:101FA000C114D10479F6CC0FDD1FC051DD4F198269
:101FB0001882DF91CF911F910F91FF90EF90DF90EA
:101FC000CF90BF90AF909F908F9008959A0144E278
:101FD000E0EFF2E0DF011D924A95E9F74AE050E0B8
:101FE000509347044093460440E050E00E945B0F4A
:101FF00021E030E080914604909147048A309105B9
:1020000011F420E030E0C9010895282F392FD901BB
:10201000E8EAF2E08D919D91009729F020813181CD
:102020008217930741F4329682E0EC3CF80791F76F
:1020300021E030E002C020E030E0C90108958F9235
:102040009F92AF92BF92CF92DF92EF92FF920F9347
:102050001F93DF93CF9300D0CDB7DEB789839A83E8
:102060000E94D8018981882E9A81992E24E2E22E3D
:10207000F12CE80CF91C00E010E091E4C92E96E088
:10208000D92E89E0A82E81E0B82E2DB73EB7205179
:1020900030400FB6F8943EBF0FBE2DBFEDB7FEB770
:1020A0003196ADB7BEB71296DC92CE921197B3823D
:1020B000A282D40114968D919C9115979583848367
:1020C0001A968D919C911B979783868350968D913C
:1020D0009C9151979187808756968D919C915797A7
:1020E000938782875C968D919C915D979587848775
:1020F000D7019E918E917D01978786870E942257F6
:10210000EDB7FEB770960FB6F894FEBF0FBEEDBFE9
:10211000802F60E0A6010E9467010F5F1F4F2EEF26
:102120003FEF820E931E0330110509F0AECF0F90E2
:102130000F90CF91DF911F910F91FF90EF90DF9063
:10214000CF90BF90AF909F908F9008952F923F9225
:102150004F925F926F927F928F929F92AF92BF92B7
:10216000CF92DF92EF92FF920F931F93DF93CF9363
:10217000CDB7DEB76E970FB6F894DEBF0FBECDBFFA
:102180007C017E836D836A0180918C0590918D0521
:10219000E816F9060CF0CFC1CA010E94051000979D
:1021A00091F1F0928D05E0928C05A0ECB4E0EEE6A2
:1021B000F3E088E201900D928150E1F7A8E4B4E0E9
:1021C000EEECF3E080E090E08E159F05ACF42D91ED
:1021D0003C9111973183208312962D913C91139756
:1021E0003383228314962D913C9115973583248354
:1021F000019616963696E8CF81E090E0909315030D
:102200008093140398C1F60180E090E0228133812D
:102210002115310561F0208131812115310509F049
:102220008AC1248135812115310509F084C10196C7
:1022300036968630910551F728EA32E03A832983B1
:102240008CEC92E09C838B8386010650104040E02A
:1022500050E0C701880F991F5C01AE0CBF1CAA0C8F
:10226000BB1CE8E4F4E0AE0EBF1E95012E5F3F4FAD
:102270003C8B2B8BF5013496FE8BED8B9C01225908
:102280003C4F388F2F8BC70101969A8F898F7A0127
:10229000BC8EAB8E49C1F80186819781009709F405
:1022A0002FC1E981FA81208131818217930709F4D6
:1022B00027C1C70163E070E00E94CE5D7A8769871D
:1022C0009C878B876624772497012D5F3F4F3E873D
:1022D0002D87C7010397988B8F87F7013197F88770
:1022E000EF8397012F5F3F4F3A8B298B1E8F0D8F06
:1022F000FEC0C30162E170E00E94CE5D5C01880F08
:10230000991F4601880E991EF40120813181211503
:10231000310509F0E5C088559D4FFC018081918110
:10232000009709F4DDC0C701B501A6010E94E60FC0
:10233000009709F4D5C0C50163E070E00E94CE5D4E
:1023400029853A852617370771F0FB01EE0FFF1F2D
:10235000E60FF71FEE0FFF1FEC0DFD1D828193812D
:10236000009709F0BDC0A3014F5E5F4FED8DFE8D5C
:10237000868197819501220F331F4332510550F416
:1023800028553D4FF901208131812817390709F07F
:10239000A7C009C028553D4FF90120813181281778
:1023A000390709F49DC0ED8DFE8D26803780F5013B
:1023B000EE0FFF1FE855FD4F408051802414350477
:1023C00031F02D813E81243031050CF089C08B85A0
:1023D0009C858130910581F40F81188540914604D8
:1023E00050914704C80166E973E00E94030F00970B
:1023F00011F109891A8924C093E0E916F10484F0E7
:10240000ED8DFE8D80819181009719F40F851889DB
:1024100002C00FEF1FEFFDE0EF16F10464F402C0FD
:102420000FEF1FEFED8DFE8D84859585009719F4D4
:102430000D851E8505C0FFEF0F3F1F0709F450C033
:10244000EB8DFC8D11830083EB89FC89F182E082A6
:10245000ED89FE89B182A082EB81FC81808191812E
:10246000EF89F88D91838083ED8DFE8D8681978134
:1024700090936D0380936C03F40180819181ED8DC5
:10248000FE8D9783868380916C0390916D03F40198
:102490009183808361E070E04214530411F460E0A2
:1024A00070E02D813E81620F731F898D9A8DA60188
:1024B0000E94A610ED8DFE8D8681978190936D030D
:1024C00080936C03F40180819181ED8DFE8D978363
:1024D000868380916C0390916D03F40191838083D6
:1024E0000894611C711CF4E26F16710439F080913C
:1024F000140390911503009709F4FBCE0D8D1E8DEA
:102500000894E11CF11C29813A812E5F3F4F3A83E8
:1025100029838B819C8102969C838B830E5F1F4F46
:1025200092E1E916F10439F08091140390911503BA
:10253000009709F4B0CE6E960FB6F894DEBF0FBECA
:10254000CDBFCF91DF911F910F91FF90EF90DF9062
:10255000CF90BF90AF909F908F907F906F905F9043
:102560004F903F902F900895FC0143E0EE0FFF1F26
:102570004A95E1F7E450FB4F20E030E081919191E2
:102580008617970711F4C90108952F5F3F4F243034
:102590003105A1F70895681B790BCB0177FF04C0C3
:1025A00088279927861B970B8330910529F4CB0147
:1025B0006DEF7FEF0E94CE5DCB0177FF04C08827CF
:1025C0009927861B970B8230910549F48091360339
:1025D0008A3118F062E070E002C06EEF7FEF8AE5AA
:1025E00090E0689F9001699F300D789F300D112415
:1025F000C9010895EF92FF920F931F9380E090E03E
:1026000062E070E040E050E020E030E00AE010E0FE
:10261000E8E7EE2EF12C0E944C3D80E090E06CEF5C
:102620007FEF40E050E020E030E00E944C3D80E051
:1026300090E066E070E040E050E020E030E00E9492
:102640004C3D80E090E068EF7FEF40E050E020E01C
:1026500030E00E944C3D80E090E06AE070E040E0B5
:1026600050E020E030E00E944C3D80E090E064EFDC
:102670007FEF40E050E020E030E00E944C3D80E001
:1026800090E06EE070E040E050E020E030E00E943A
:102690004C3D80E090E060EF7FEF40E050E020E0D4
:1026A00030E00E944C3D80E090E062E170E040E06C
:1026B00050E020E030E00E944C3D1F910F91FF90D0
:1026C000EF9008954F925F926F927F928F929F92B8
:1026D000AF92BF92CF92DF92EF92FF920F931F9330
:1026E000CF93DF93EC018091CE019091CF0197FFC2
:1026F00003C0909581959F4F23E030E0B9010E947F
:10270000CE5DFC01CE01B9010E94CE5DE817F9074C
:1027100009F406C1009709F092C080E090E060E003
:1027200070E04AE550E024E630E008E710E00E945F
:1027300080390F2EF0E06F2EF0E07F2EF0E08F2E2C
:10274000F0E09F2EF02D609244037092450380923A
:1027500046039092470360922A0370922B03809263
:102760002C0390922D03AAE54A2E512C5092670318
:102770004092660383E090E06EE770E044E050E052
:1027800028EB30E005E010E0F7EAEF2EF12CE2E371
:10279000CE2ED12CB4E1AB2EB12C0E94364F10922C
:1027A00067031092660380E090E06EE070E042E123
:1027B00050E020E030E008E710E0A2E3EA2EF12C40
:1027C000FCE3CF2ED12C0E94F54C83E090E064E234
:1027D00070E046EA5FEF28E230E00EEC1FEF0E9467
:1027E00003436092440370924503809246039092A3
:1027F000470360922A0370922B0380922C039092DD
:102800002D03509267034092660383E090E06EE7E9
:1028100070E044E050E028EB30E005E010E0E7EA4B
:10282000EE2EF12CB2E3CB2ED12CAEE1AA2EB12CA0
:102830000E94364F109267031092660374C08EE1B7
:1028400090E06FEF7FEF46E450E028E230E002E3F3
:1028500010E00E9403438CEE9FEF909367038093F8
:10286000660385E090E06BE070E04FE050E020E030
:1028700030E002E91FEFF2E3EF2EF12CCC24DD244F
:102880000E94F54C85E090E06BE070E04FE050E096
:1028900029E130E008E11CEF0E94F54C80E090E077
:1028A00063EF7FEF4AEB5FEF22E330E004EC1FEFD2
:1028B000E0E5EE2EF12C0E94084A80E090E0DC0179
:1028C0008093440390934503A0934603B09347033A
:1028D00080932A0390932B03A0932C03B0932D0392
:1028E0008AE590E0909367038093660386E090E02A
:1028F00060E970E044E050E028EB30E005E010E0F3
:10290000B7EAEB2EF12CA2E3CA2ED12CFEE1AF2EBA
:10291000B12C0E94364F1092670310926603E6C0F6
:10292000309709F0E3C083E090E090931703809321
:102930001603CF30D105C9F488E190E066EA7FEF55
:1029400046EA5FEF23E230E00DE210E00E949F4490
:1029500080E090E065E070E040E050E02EE130E0A3
:1029600008ED1FEF0E948039B1C1CC30D105D9F4F8
:102970008CE090E061E070E043E050E023E030E084
:1029800001E110E0EE24FF24ECE3CE2ED12CB6E4DE
:10299000AB2EB12C0E94CD3F8AE090E061E070E068
:1029A0004AE150E074C0C930D105D9F48CE090E020
:1029B00061E070E043E050E023E030E001E110E04E
:1029C000EE24FF24ACE3CA2ED12CF6E4AF2EB12CBA
:1029D0000E94CD3F8AE090E061E070E04EE450E07C
:1029E00056C0C630D105D9F48CE090E061E070E0CB
:1029F00043E050E023E030E001E110E0EE24FF246A
:102A0000ECE3CE2ED12CB6E4AB2EB12C0E94CD3F00
:102A10008AE090E061E070E04FE750E038C0C330FA
:102A2000D105D9F48CE090E061E070E043E050E043
:102A300023E030E001E110E0EE24FF24ACE3CA2EF5
:102A4000D12CF6E4AF2EB12C0E94CD3F8AE090E06D
:102A500061E070E042EB50E01AC08CE090E061E091
:102A600070E043E050E023E030E001E110E0EE24CC
:102A7000FF24ECE3CE2ED12CB6E4AB2EB12C0E9479
:102A8000CD3F8AE090E061E070E044EE50E025E068
:102A900030E0AA24BB240E94CD3F80E090E06AE1B0
:102AA00070E04CEE5FEF22E330E000E010E00E94C7
:102AB00003438CEE9FEF90936703809366038EE051
:102AC00090E066EA7FEF4EEC5FEF2DE230E00E948F
:102AD0009F4484E190E0909367038093660380E0D5
:102AE00090E06CE070E04CEE5FEFE6C081E090E0DB
:102AF0009093170380931603C131D105E9F488E15F
:102B000090E06AE570E046E450E023E230E00DE258
:102B100010E00E949F448CEE9FEF90936703809398
:102B2000660380E090E065E070E044E150E02EE173
:102B300030E008ED1FEFC4C0CE30D105D9F48CE0F1
:102B400090E068E070E043E050E023E030E006E130
:102B500010E0EE24FF24ACE3CA2ED12CF6E4AF2E15
:102B6000B12C0E94CD3F8AE090E068E070E04AE13D
:102B700050E074C0CB30D105D9F48CE090E068E02F
:102B800070E043E050E023E030E006E110E0EE24A6
:102B9000FF24ECE3CE2ED12CB6E4AB2EB12C0E9458
:102BA000CD3F8AE090E068E070E04EE450E056C02F
:102BB000C830D105D9F48CE090E068E070E043E0E3
:102BC00050E023E030E006E110E0EE24FF24ACE327
:102BD000CA2ED12CF6E4AF2EB12C0E94CD3F8AE054
:102BE00090E068E070E04FE750E038C0C530D105B4
:102BF000D9F48CE090E068E070E043E050E023E03E
:102C000030E006E110E0EE24FF24ECE3CE2ED12CE0
:102C1000B6E4AB2EB12C0E94CD3F8AE090E068E094
:102C200070E042EB50E01AC08CE090E068E070E0A9
:102C300043E050E023E030E006E110E0EE24FF2422
:102C4000ACE3CA2ED12CF6E4AF2EB12C0E94CD3FBE
:102C50008AE090E068E070E046EE50E025E030E089
:102C6000AA24BB240E94CD3F80E090E06AE170E09E
:102C700044E150E022E330E000E010E00E94034332
:102C800084E190E090936703809366038EE090E088
:102C90006AE570E042E350E02DE230E00E949F449C
:102CA0008CEE9FEF909367038093660380E090E043
:102CB0006CE070E044E150E022E330E004EC1FEF10
:102CC0000E94034310926703109266030E94FA1257
:102CD000D093CF01C093CE01DF91CF911F910F917F
:102CE000FF90EF90DF90CF90BF90AF909F908F902C
:102CF0007F906F905F904F900895EF92FF920F93A7
:102D00001F93CF93DF93EB012091160330911703AC
:102D10002617370709F49FC06AE570E0269FA001D7
:102D2000279F500D369F500D1124509367034093F9
:102D3000660320E030E0A9012093960530939705C3
:102D40004093980550939905E0909605F09097056B
:102D50000091980510919905E0929205F0929305E3
:102D60000093940510939505E0909205F0909305DB
:102D70000091940510919505E0928E05F0928F05D3
:102D800000939005109391052093A2053093A3051D
:102D90004093A4055093A5052091A2053091A30569
:102DA0004091A4055091A50520939E0530939F0561
:102DB0004093A0055093A10563E070E00E94CE5DB2
:102DC0007C01009719F48BEF9FEF02C085E090E043
:102DD00060E070E040E050E024E130E002E810E024
:102DE0000E9480398091160390911703BE010E94C2
:102DF000CB12AC0180E090E060E070E02CE330E0CA
:102E00000E948039D0931703C09316032AE530E05F
:102E1000C29FC001C39F900DD29F900D112490932B
:102E2000670380936603E114F10419F485E090E0F0
:102E300002C08BEF9FEF60E070E040E050E02AE0DE
:102E400030E008E710E00E9480391092670310928A
:102E500066030E94FA12DF91CF911F910F91FF90AC
:102E6000EF900895AF92BF92CF92DF92EF92FF92D0
:102E70000F931F939C0163E070E00E94CE5D00976A
:102E800009F088C18DEF9FEF9093CF018093CE0121
:102E90002F30310599F48FE090E060E070E00E94FF
:102EA0007D1687EE9FEF67EE7FEF40E050E028E26F
:102EB00030E006E910E00E9480394EC12C30310527
:102EC000C1F58CE090E060E070E00E947D168AE53C
:102ED00090E0909367038093660383EE9FEF6AE52B
:102EE00070E04CEE5FEF22E330E00CE310E00E9474
:102EF0009F448CEE9FEF90936703809366038CE072
:102F000090E064E070E046EF5FEF23E030E00FE038
:102F100010E0EE24FF24BCE3CB2ED12CAA24BB244A
:102F20000E94CD3F8AE090E064E070E046EF5FEF02
:102F3000F3C029303105C1F589E090E060E070E030
:102F40000E947D168AE590E0909367038093660364
:102F500083EE9FEF6AE570E04CEE5FEF22E330E036
:102F60000CE310E00E949F448CEE9FEF9093670368
:102F7000809366038CE090E064E070E046EF5FEFE2
:102F800023E030E00FE010E0EE24FF24ACE3CA2E93
:102F9000D12CAA24BB240E94CD3F8AE090E064E0BB
:102FA00070E044EC5FEFB8C026303105C1F586E033
:102FB00090E060E070E00E947D168AE590E09093DA
:102FC00067038093660383EE9FEF6AE570E04CEE43
:102FD0005FEF22E330E00CE310E00E949F448CEEB0
:102FE0009FEF90936703809366038CE090E064E02A
:102FF00070E046EF5FEF23E030E00FE010E0EE24FA
:10300000FF24FCE3CF2ED12CAA24BB240E94CD3F69
:103010008AE090E064E070E042E95FEF7DC0233039
:103020003105C1F583E090E060E070E00E947D161C
:103030008AE590E0909367038093660383EE9FEFA9
:103040006AE570E04CEE5FEF22E330E00CE310E065
:103050000E949F448CEE9FEF9093670380936603DA
:103060008CE090E064E070E046EF5FEF23E030E05A
:103070000FE010E0EE24FF24ECE3CE2ED12CAA24A6
:10308000BB240E94CD3F8AE090E064E070E040E61F
:103090005FEF42C0C90163E070E00E947D168BE1E2
:1030A00090E060E070E04AE550E023E230E001E9C2
:1030B00010E00E9403438AE590E0909367038093B9
:1030C000660383EE9FEF6AE570E04CEE5FEF22E36C
:1030D00030E00CE310E00E949F448CEE9FEF909351
:1030E0006703809366038CE090E064E070E046EF55
:1030F0005FEF23E030E00FE010E0EE24FF24BCE3BC
:10310000CB2ED12CAA24BB240E94CD3F8AE090E094
:1031100064E070E04CE45FEF25E030E00E94CD3FDA
:103120008BEF9FEF64E070E048E15CEF23E030E07C
:10313000A9E1EA2EF12C0E94CD3F80E090E063EF00
:103140007FEF44E150E022E330E004EC1FEFFCE3CA
:10315000EF2EF12C0E94084A80E090E0DC01809381
:10316000440390934503A0934603B0934703809391
:103170002A0390932B03A0932C03B0932D038AE58D
:1031800090E0909367038093660383E090E06EE79E
:1031900070E087C18EEF9FEF9093CF018093CE01B7
:1031A0002131310599F481E190E060E070E00E9406
:1031B0007D168BE190E06AEE7FEF40E050E028E280
:1031C00030E006E910E00E9480394EC12E30310512
:1031D000C1F58EE090E060E070E00E947D1686EA26
:1031E0009FEF909367038093660384EE9FEF66EAF8
:1031F0007FEF44E150E022E330E00CE310E00E9476
:103200009F4484E190E090936703809366038CE091
:1032100090E065E070E046EF5FEF23E030E00BE028
:1032200010E0EE24FF24ECE3CE2ED12CAA24BB2404
:103230000E94CD3F8AE090E065E070E046EF5FEFEE
:10324000F3C02B303105C1F58BE090E060E070E019
:103250000E947D1686EA9FEF909367038093660332
:1032600084EE9FEF66EA7FEF44E150E022E330E036
:103270000CE310E00E949F4484E190E09093670388
:10328000809366038CE090E065E070E046EF5FEFCE
:1032900023E030E00BE010E0EE24FF24BCE3CB2E73
:1032A000D12CAA24BB240E94CD3F8AE090E065E0A7
:1032B00070E044EC5FEFB8C028303105C1F588E01C
:1032C00090E060E070E00E947D1686EA9FEF9093A8
:1032D00067038093660384EE9FEF66EA7FEF44E125
:1032E00050E022E330E00CE310E00E949F4484E1D0
:1032F00090E090936703809366038CE090E065E034
:1033000070E046EF5FEF23E030E00BE010E0EE24EA
:10331000FF24ACE3CA2ED12CAA24BB240E94CD3FAB
:103320008AE090E065E070E042E95FEF7DC0253023
:103330003105C1F585E090E060E070E00E947D1607
:1033400086EA9FEF909367038093660384EE9FEF76
:1033500066EA7FEF44E150E022E330E00CE310E066
:103360000E949F4484E190E09093670380936603FA
:103370008CE090E065E070E046EF5FEF23E030E046
:103380000BE010E0EE24FF24FCE3CF2ED12CAA2486
:10339000BB240E94CD3F8AE090E065E070E040E60B
:1033A0005FEF42C0C90161E070E00E947D1685EECA
:1033B0009FEF60E070E046EA5FEF23E230E001E972
:1033C00010E00E94034386EA9FEF90936703809387
:1033D000660384EE9FEF66EA7FEF44E150E022E36C
:1033E00030E00CE310E00E949F4484E190E0909371
:1033F0006703809366038CE090E065E070E046EF41
:103400005FEF23E030E00BE010E0EE24FF24ECE37C
:10341000CE2ED12CAA24BB240E94CD3F8AE090E07E
:1034200065E070E04CE45FEF25E030E00E94CD3FC6
:103430008CEF9FEF65E070E048E15CEF23E030E067
:10344000B9E1EB2EF12C0E94CD3F80E090E063EFDC
:103450007FEF4CEE5FEF22E330E004EC1FEFACE3D4
:10346000EA2EF12C0E94084A80E090E0DC01809373
:10347000440390934503A0934603B093470380937E
:103480002A0390932B03A0932C03B0932D038AE57A
:1034900090E0909367038093660386E090E060E994
:1034A00070E044E050E028EB30E005E010E0F7EA9F
:1034B000EF2EF12CE2E3CE2ED12CB4E1AB2EB12CC9
:1034C0000E94364F10926703109266031F910F916E
:1034D000FF90EF90DF90CF90BF90AF900895CF9284
:1034E000DF92EF92FF920F931F93DF93CF93CDB7AD
:1034F000DEB728970FB6F894DEBF0FBECDBFDE0152
:103500001196E0EDF1E028E001900D922150E1F7F5
:103510000091160310911703FE01319629E0E22E67
:10352000F12CEC0EFD1E24E030E06C01CC0CDD1C17
:10353000CC0CDD1C81919191800F911FB9010E94EB
:10354000CE5DAC01D601A80FB91FAA0FBB1FA450B6
:10355000BB4F8D919C91119797FF05C0EE15FF050C
:1035600049F74FEF5FEFCA0128960FB6F894DEBF18
:103570000FBECDBFCF91DF911F910F91FF90EF90C4
:10358000DF90CF900895AF92BF92CF92DF92EF92EB
:10359000FF920F931F93CF93DF937C01EB015A01AE
:1035A0000E94D8018DB79EB70A970FB6F8949EBFB8
:1035B0000FBE8DBFEDB7FEB7319601E416E0ADB793
:1035C000BEB712961C930E9311978BE191E09383F3
:1035D0008283F582E482D783C683B186A0860E9467
:1035E00022578DB79EB70A960FB6F8949EBF0FBEAE
:1035F0008DBF81E061E0A8010E94670180917A029D
:1036000090917B02009731F00E942534B59BFECF4C
:10361000B599FECFCE01B5010E94B412BC01CE0116
:103620000E947D16E114F104E9F00E94FA128AE08A
:1036300090E060E070E04AE150E02EE130E00CE81C
:1036400010E00E94445380E090E066EE7FEF40E09F
:1036500050E02EE130E00E9480390E94FA120E9470
:1036600025344EC08AE090E060E070E044E150E034
:103670002EE130E008E210E00E944453C5010E94B0
:103680006F1AEC0180911603909117038C179D0718
:10369000A9F0BE010E94CB12AC0180E090E06EE187
:1036A00070E02EE130E008ED1FEFFCE3EF2EF12C8F
:1036B000E2E8CE2ED12C0E947D4618C081E090E039
:1036C00060E070E048EE53E02EE130E000E010E012
:1036D0000E9444538AE090E060E070E04DE050E0EA
:1036E0002EE130E008ED1FEF0E9444530E94FA12D1
:1036F000B092CF01A092CE01D0931703C0931603CE
:10370000DF91CF911F910F91FF90EF90DF90CF90BD
:10371000BF90AF9008958F929F92AF92BF92CF9239
:10372000DF92EF92FF920F931F93CF93DF935C0191
:103730007B016A01CB01BA0144E852E00E94E60F26
:1037400006E913E0C0E0D0E083EC882E8AE1982EF1
:1037500014C00197C817D90729F481E090E0A1149B
:10376000B10411F480E090E0F801619171918F0152
:10377000219640815181F4010995809146049091F0
:103780004704C817D9072CF3D701AA0FBB1FAC57A2
:10379000BD4F8D919C911197009781F090936D038F
:1037A00080936C03F601EE0FFF1FEC57FD4F208155
:1037B000318111963C932E9391838083DF91CF9139
:1037C0001F910F91FF90EF90DF90CF90BF90AF903F
:1037D0009F908F9008959C0163E070E00E94CE5D01
:1037E000009719F02250304002C02E5F3F4FC901B0
:1037F00008952F923F924F925F926F927F928F9295
:103800009F92AF92BF92CF92DF92EF92FF920F936F
:103810001F93CF93DF930E94E7008EE161E00E9447
:10382000B1008EE165E00E94B1008EE164E10E948A
:10383000B1008EE160E10E94B1000E9400568BE071
:103840000E94385682E30E94673480E063E10E9460
:103850001A568823D1F32FEF3FE746E1215030403D
:103860004040E1F700C0000080E090E0DC01809380
:10387000960590939705A0939805B093990520918C
:1038800096053091970540919805509199052093A0
:10389000920530939305409394055093950520919C
:1038A0009205309193054091940550919505209390
:1038B0008E0530938F05409390055093910580932A
:1038C000A2059093A305A093A405B093A5058091AC
:1038D000A2059091A305A091A405B091A5058093A0
:1038E0009E0590939F05A093A005B093A105C39A50
:1038F0004FEF5FE764E0415050406040E1F700C0A7
:103900000000C398B1E48B2EB6E09B2EB49914C08E
:1039100080917A0290917B02019790937B02809331
:103920007A02C39A6FEF7FE784E061507040804075
:10393000E1F700C00000C398B69914C080917A02E4
:1039400090917B02019690937B0280937A02C39AB6
:103950008FEF9FE7A4E081509040A040E1F700C0C6
:103960000000C398B599B1C70E94D801C39A2FEF40
:103970003FE744E0215030404040E1F700C0000004
:10398000C39880917A0290917B023FEF8F3F93071B
:1039900009F43EC74FEF8F3F94070CF496C782306F
:1039A00091050CF092C70CEF14E0C0E0D0E0CE011E
:1039B000B8010E941A0F2196085F1F4FC231D1052E
:1039C000B1F78DEF9FEF63E070E040E050E02AE058
:1039D00030E008E710E00E94803980E090E0DC01F0
:1039E0008093440390934503A0934603B093470309
:1039F00080932A0390932B03A0932C03B0932D0361
:103A00008AE590E0909367038093660386E090E0F8
:103A100060E970E044E050E028EB30E005E010E0C1
:103A2000A7EAEA2EF12CF2E3CF2ED12CE4E1AE2E60
:103A3000B12C0E94364F10926703109266038FEFED
:103A40009FEF9093690380936803B4EC6B2EB2E010
:103A50007B2EC0E0D0E0209719F4ECE3F0E002C048
:103A6000E0E0F0E08CE090E068E070E045E050E0FD
:103A700023E030E004E110E0EE24FF24A2E3CA2EAC
:103A8000D12C5F010E94CD3F209719F04DE250E00C
:103A900002C048E250E08AE090E068E070E025E093
:103AA00030E004E110E0EE24FF24B2E3CB2ED12C71
:103AB000AA24BB240E94CD3F209168033091690362
:103AC0002115310559F02330310544F483E090E0AD
:103AD000821B930B90936903809368038091680322
:103AE00090916903D30111969C938E931092690370
:103AF000109268032196EAEFFFEF6E0E7F1EC5302D
:103B0000D10509F0A8CF8DEF9FEF63E270E04AE5A1
:103B100050E028E230E00EEC1FEF0E9403430E94C9
:103B2000D8012DB73EB72E5030400FB6F8943EBFA7
:103B30000FBE2DBFEDB7FEB73196ADB7BEB712962B
:103B40009C928E921197CAE2D1E0D383C283809176
:103B5000AC029091AD02958384838091B2029091E2
:103B6000B302978386838091B8029091B9029187BE
:103B700080878091BE029091BF0293878287809157
:103B8000C4029091C502958784870E942257EDB7A1
:103B9000FEB73E960FB6F894FEBF0FBEEDBF81E0B4
:103BA00061E0A4010E94670180E090E0DC01809365
:103BB000440390934503A0934603B0934703809337
:103BC0002A0390932B03A0932C03B0932D038AE533
:103BD00090E0909367038093660386E090E060E94D
:103BE00070E044E050E028EB30E005E010E0A7EAA8
:103BF000EA2EF12CF2E3CF2ED12CE4E1AE2EB12C43
:103C00000E94364F109267031092660380E090E0A6
:103C100065E070E040E050E02AE030E008E710E0C6
:103C20000E94803960E070E080E291E444E150E07D
:103C30000E94A84880EB9FEF9093670380936603F0
:103C400080917A0290917B02009771F486E8682E49
:103C500082E0782E0EEC402E02E0502EC0E0D0E044
:103C600011E0212E312C07C00E942534B59BFECFD8
:103C7000B599FECFEBCF87E690E063E070E00E945D
:103C80007934D3018D939C9387E690E063E070E0F4
:103C90000E94793467E60E941A56843118F4F201C2
:103CA00031822082C530D10581F1209719F4E2E3F9
:103CB000F0E002C0E0E0F0E08CE090E063E070E073
:103CC00045E050E023E030E008E110E0EE24FF247E
:103CD000B8E2CB2ED12C5F010E94CD3F8AE090E06C
:103CE00063E070E04DE250E025E030E0AA24BB2420
:103CF0000E94CD3F219626E030E0620E731E420EF8
:103D0000531EC630D10509F0B6CF80E090E064E1E3
:103D100070E046EF5FEF28E230E00EEC1FEF0E940C
:103D200003430F2EF0E04F2EF0E05F2EF0E06F2EF9
:103D3000F0E07F2EF02D40924403509245036092B4
:103D400046037092470340922A0350922B036092DD
:103D50002C0370922D03CAE5D0E0D0936703C09383
:103D6000660383E090E06EE770E044E050E028EB0B
:103D700030E005E010E0A7EAEA2EF12CF2E3CF2EC6
:103D8000D12CEEE1AE2EB12C0E94364F109267037B
:103D9000109266030E94300E80E090E06EE070E0CA
:103DA00042E150E020E030E00EE610E0B2E3EB2E1E
:103DB000F12CACE3CA2ED12C0E94F54C85E090E0AA
:103DC00063E270E046EA5FEF28E230E00EEC1FEFBE
:103DD0000E9403434092440350924503609246037D
:103DE0007092470340922A0350922B0360922C0357
:103DF00070922D03D0936703C093660383E090E035
:103E00006EE770E044E050E028EB30E005E010E0C1
:103E1000F7EAEF2EF12CE2E3CE2ED12C0E94364FA2
:103E200010926703109266034DB75EB74051504041
:103E30000FB6F8945EBF0FBE4DBFEDB7FEB731961B
:103E4000ADB7BEB712969C928E921197C9E0D1E0A1
:103E5000D383C28380918602909187029583848365
:103E600080918C0290918D0297838683809192023B
:103E70009091930291878087809198029091990206
:103E80009387828780919E0290919F029587848775
:103E90008091A4029091A502978786870E9422575D
:103EA000EDB7FEB770960FB6F894FEBF0FBEEDBF2C
:103EB00082E061E0A4010E9467012DB73EB7205166
:103EC00030400FB6F8943EBF0FBE2DBFEDB7FEB722
:103ED0003196ADB7BEB712969C928E921197D3834E
:103EE000C2838091CE029091CF029583848380918A
:103EF000D4029091D502978386838091DA029091C3
:103F0000DB02918780878091E0029091E1029387A4
:103F100082878091E6029091E7029587848780915D
:103F2000EC029091ED02978786870E942257CDB7C9
:103F3000DEB760960FB6F894DEBF0FBECDBF83E04C
:103F400061E0A4010E946701109269031092680366
:103F5000B6EC6B2EB2E07B2EC0E0D0E0209719F4D7
:103F6000ECE3F0E002C0E0E0F0E08CE090E061E043
:103F700070E045E050E023E030E00EE010E0EE2499
:103F8000FF24A2E3CA2ED12C5F010E94CD3F2097CF
:103F900019F04DE250E002C048E250E08AE090E0C3
:103FA00061E070E025E030E00EE010E0EE24FF2458
:103FB000F2E3CF2ED12CAA24BB240E94CD3F209126
:103FC0006803309169032115310559F0233031051B
:103FD00044F483E090E0821B930B909369038093F9
:103FE00068038091680390916903F3019183808352
:103FF000109269031092680321962AEF3FEF620E38
:10400000731EC530D10509F0A9CF80E090E06AE0C9
:1040100070E04CEE5FEF28E230E00EEC1FEF0E9404
:1040200003438CEE9FEF90936703809366038CE0CD
:1040300090E064E070E04BEF5FEF23E030E002E1FE
:1040400010E0EE24FF24E2E3CE2ED12CBCE3AB2E15
:10405000B12C0E94CD3F8AE090E064E070E048E33C
:104060005FEF25E030E0AA24BB240E94CD3F8BEF18
:104070009FEF64E070E048E15CEF25E030E0A4E110
:10408000EA2EF12C0E94CD3F80E090E066EF7FEFBA
:1040900044E150E028E230E00EEC1FEF0E940343C1
:1040A00080E090E0DC018093440390934503A0936B
:1040B0004603B093470380932A0390932B03A09366
:1040C0002C03B0932D038AE590E0909367038093CF
:1040D000660383E090E06EE770E044E050E028EB98
:1040E00030E005E010E0F7EAEF2EF12CE4E1AE2E2F
:1040F000B12C0E94364F10926703109266030E9403
:1041000025340E94D80184E892E00E941F1081E4C7
:1041100096E069E371E00E941B5783E060E041E4B0
:1041200056E00E94670180917A0290917B0200978D
:1041300031F00E942534B59BFECFB599FECF0E9489
:10414000D80188EA92E00E941F1081E496E06DE3B6
:1041500071E00E941B5783E060E041E456E00E945A
:10416000670180917A0290917B02009731F00E9462
:104170002534B59BFECFB599FECFAAEAB3E0E4E8BB
:10418000F2E084E201900D928150E1F78BE090E043
:1041900090938D0580938C0580E090E060E070E066
:1041A0004AEA53E00E94A6108DEF9FEF9093CF0153
:1041B0008093CE01CEECD3E06EE6E62E63E0F62EE1
:1041C0006624772453E0452E512C44E0242E312CD4
:1041D000FFC10E94D80187014DB75EB74E505040D5
:1041E0000FB6F8945EBF0FBE4DBFEDB7FEB7319668
:1041F000ADB7BEB712969C928E92119725E431E02E
:10420000338322838091CE019091CF019583848363
:1042100088819981978386838A819B819187808712
:104220008C819D8193878287D7018D919C91958701
:1042300084870E942257EDB7FEB73E960FB6F894DA
:10424000FEBF0FBEEDBF81E061E0A4010E946701E7
:1042500080917A0290917B02009731F00E94253480
:10426000B59BFECFB599FECF0E94D80184E892E0BD
:104270000E941F1080917A0290917B02009731F08A
:104280000E942534B59BFECFB599FECF8091CE011B
:104290009091CF0197FD20C0D7012D913C911197AE
:1042A0002115310541F06881798144E852E00E948E
:1042B000E60F009789F0F70180819181009721F541
:1042C0006A817B818091CE019091CF0144E852E0D8
:1042D0000E94E60F0097C1F48091CE019091CF012A
:1042E00097FD02C00E943217888199810E94621353
:1042F00080917A0290917B02009731F00E942534E0
:10430000B59BFECFB599FECF22E030E0E20EF31E62
:10431000D8018D919C9111976091CE017091CF0140
:10432000009709F4DDC04881598180E090E00E9447
:104330008B1B0091CE011091CF016A817B81C80156
:104340000E94B412BC01C8010E947D160E9425344F
:10435000C39A2FEF3FE744E0215030404040E1F75F
:1043600000C00000C39880917A0290917B02009770
:1043700031F00E942534B59BFECFB599FECF8091D8
:10438000CE019091CF010E94EB1BBC019093CF0115
:104390008093CE01EA81FB81EE0FFF1FEC57FD4FAA
:1043A0008081918190936D0380936C03DB01AA0F50
:1043B000BB1FAC57BD4F2D913C911197318320838A
:1043C00011969C938E934C815D816417750709F05B
:1043D000C1C0C39A4FEF5FE764E041505040604076
:1043E000E1F700C00000C3980E94D8016DB77EB706
:1043F000685070400FB6F8947EBF0FBE6DBFEDB72A
:10440000FEB73196ADB7BEB712969C928E921197B9
:104410002DE531E0338322838091CE019091CF014D
:10442000958384838C819D81978386830E94225704
:104430004DB75EB7485F5F4F0FB6F8945EBF0FBED3
:104440004DBF81E061E0A4010E94670180917A0282
:1044500090917B02009731F00E942534B59BFECFEE
:10446000B599FECF6091CE017091CF01CB0102963C
:1044700085309105E0F0AB0143505040FA01EE0F5A
:10448000FF1FEC57FD4F80819181009761F480E020
:1044900090E00E948B1B6091CE017091CF01AB0127
:1044A0004D5F5F4F57C06F3071050CF057C0AB01C7
:1044B0004D5F5F4FFA01EE0FFF1FEC57FD4F8081FC
:1044C0009181009709F04AC080E090E00E948B1B28
:1044D0006091CE017091CF01AB01435050403AC082
:1044E0004A815B8180E090E00E948B1B6C817D8122
:1044F0008A819B8144E852E00E94E60F8A819B8179
:10450000B2010E94CE5D81309105F1F46091CE013F
:104510007091CF01FB01EE0FFF1FEE0FFF1F809187
:10452000160390911703E80FF91FEE0FFF1FE450D9
:10453000FB4F408151818C819D814817590721F0A3
:1045400080E090E00E948B1B6091CE017091CF01C2
:104550004C815D8181E090E00E948B1B8091CE01B7
:104560009091CF01B2010E94CE5D8130910561F53D
:104570000E94FA1280E090E06EEC7FEF40E050E0A5
:1045800028E230E006E910E00E9480390E94FA1229
:1045900080911603909117030296B1010E94CE5D9F
:1045A000E091CE01F091CF01EE0FFF1FEE0FFF1F44
:1045B000E80FF91FEE0FFF1FE450FB4F8081918140
:1045C0009093CF018093CE010894611C711C2696B4
:1045D00080918C0590918D05681679060CF4F9CDC3
:1045E0008091CE019091CF010E94321738EA632E5C
:1045F00032E0732E24E8E22E22E0F22EC0E0D0E07A
:1046000093E0492E512C8701D3018D919D913D015D
:10461000009709F441C0F80120813181211531054D
:10462000D9F520917E0230917F022817390791F049
:1046300020918002309181022817390771F0209172
:104640008202309183022817390731F582E0E82E83
:10465000F12C06C0EE24FF2403C0B1E0EB2EF12CB8
:104660002091CE013091CF0137FF03C030952195C5
:104670003F4FCE01B2010E94CE5DAC01C901B7012E
:104680000E942809CE010E942B02F701EE0FFF1FA6
:10469000E258FD4F1182108221960E5F1F4FC231EA
:1046A000D10509F0B1CF8091CE019091CF01FFEFFC
:1046B0008D3F9F0709F06DC080E090E0DC018093A2
:1046C000440390934503A0934603B093470380931C
:1046D0002A0390932B03A0932C03B0932D038AE518
:1046E00090E0909367038093660383E090E06EE729
:1046F00070E044E050E028EB30E005E010E0F7EA3D
:10470000EF2EF12CE2E3CE2ED12CBEE1AB2EB12C5C
:104710000E94364F10926703109266038EE190E07C
:104720006FEF7FEF46E450E028E230E002E310E074
:104730000E9403438CEE9FEF909367038093660380
:1047400085E090E06BE070E04FE050E020E030E08A
:1047500002E91FEFA2E3EA2EF12CCC24DD240E9413
:10476000F54C85E090E06BE070E04FE050E029E12F
:1047700030E008E11CEF0E94F54C80E090E063EF30
:104780007FEF44E150E022E330E004EC1FEF0E94B1
:10479000034380E090E0DC01809344039093450361
:1047A000A0934603B093470380932A0390932B036F
:1047B000A0932C03B0932D038AE590E090936703B8
:1047C0008093660383E090E06EE770E044E050E0A1
:1047D00028EB30E005E010E0F7EAEF2EF12CE2E301
:1047E000CE2ED12CBEE1AB2EB12C0E94364F1092B2
:1047F0006703109266030E942534C39A2FEF3FEFA0
:1048000049E5215030404040E1F700C00000C39826
:104810004EEF5FEF5093CF014093CE0180E090E0E8
:10482000DC018093440390934503A0934603B09327
:10483000470380932A0390932B03A0932C03B093F8
:104840002D038AE590E0909367038093660386E0EA
:1048500090E060E970E044E050E028EB30E005E0F3
:1048600010E0A7EAEA2EF12CF2E3CF2ED12CE4E1FE
:10487000AE2EB12C0E94364F109267031092660341
:10488000C2E0D0E0CE010E942B0280917A0290918A
:104890007B02009731F00E942534B59BFECFB5997D
:1048A000FECF2396C131D10569F780917A029091AC
:1048B0007B02009731F00E942534B59BFECFB5995D
:1048C000FECFB599FECFB59BFECF80917A02909135
:1048D0007B02009709F442C04091360330913503C2
:1048E0002091340390913C0380913B036DB77EB7D8
:1048F0006E5070400FB6F8947EBF0FBE6DBFEDB71F
:10490000FEB73196ADB7BEB712969C928E921197B4
:10491000CDE6D1E0D383C2834483158236831782E8
:104920002087118692871386848715860E942257D6
:10493000EDB7FEB73E960FB6F894FEBF0FBEEDBFC3
:1049400080E060E0A4010E9467013091370320916C
:1049500038039091390380913A0341C040914A0352
:1049600030914903209148039091500380914F0367
:104970006DB77EB76E5070400FB6F8947EBF0FBE15
:104980006DBFEDB7FEB73196ADB7BEB712969C922C
:104990008E921197CDE6D1E0D383C28344831582F2
:1049A000368317822087118692871386848715861F
:1049B0000E942257EDB7FEB73E960FB6F894FEBFA1
:1049C0000FBEEDBF80E060E0A4010E94670130915E
:1049D0004B0320914C0390914D0380914E034DB7B2
:1049E0005EB74C5050400FB6F8945EBF0FBE4DBF3F
:1049F000EDB7FEB73196ADB7BEB712969C928E92C8
:104A00001197C6E8D1E0D383C2833483158226830D
:104A1000178290871186828713860E942257EDB7EE
:104A2000FEB73C960FB6F894FEBF0FBEEDBF81E017
:104A300060E0A4010E94670180917A0290917B025C
:104A400097FF03C0909581959F4F69E070E00E94A9
:104A5000CE5D90937D0280937C020E94CD2B80914D
:104A60007C0266E60E941A56682E80917C0267E6F8
:104A70000E941A56E82E00917C0240907D02802F01
:104A800068E60E941A562DB73EB72C5030400FB63C
:104A9000F8943EBF0FBE2DBFEDB7FEB73196ADB750
:104AA000BEB712969C928E921197CEE9D1E0D38335
:104AB000C2830483458266821782E08611868287DC
:104AC00013860E942257EDB7FEB73C960FB6F894B6
:104AD000FEBF0FBEEDBF82E060E0A4010E9467014F
:104AE000E091AF05F091B0054091B1055091B2054C
:104AF0002091AD053091AE05409067065090680654
:104B000000913B0610913C06E090B705F090B80587
:104B10006090AB057090AC0560919E0570919F050B
:104B20008091A0059091A105ADB7BEB754970FB67F
:104B3000F894BEBF0FBEADBFCDB7DEB721961296BB
:104B40009C928E921197A1EBB1E0BB83AA83FD8367
:104B5000EC835F834E83398728875B864A861D876F
:104B60000C87FF86EE86798A688A0E9439587B8B8B
:104B70006A8B0E942257CDB7DEB764960FB6F894C1
:104B8000DEBF0FBECDBF83E060E0A4010E946701DD
:104B900000D000D000D0EDB7FEB73196ADB7BEB7AC
:104BA00012969C928E921197C7ECD1E0D383C28368
:104BB00080917A0290917B02958384830E94225790
:104BC000EDB7FEB736960FB6F894FEBF0FBEEDBF39
:104BD00083E060E1A4010E9467010C94861C6F923F
:104BE0007F928F929F92AF92BF92CF92DF92EF927D
:104BF000FF920F931F93CF93DF93EC0180E090E03F
:104C0000DC018093960590939705A0939805B09347
:104C100099052091960530919705409198055091FE
:104C200099052093920530939305409394055093F2
:104C300095052091920530919305409194055091EE
:104C4000950520938E0530938F05409390055093E2
:104C500091058093A2059093A305A093A405B0931A
:104C6000A5058091A2059091A305A091A405B091FE
:104C7000A50580939E0590939F05A093A005B093F2
:104C8000A105CE0163E070E00E94CE5D8230910507
:104C900021F4CE0161E070E003C0CE0163E070E07A
:104CA0000E947D160F2EF0E06F2EF0E07F2EF0E0D8
:104CB0008F2EF0E09F2EF02D6092440370924503FA
:104CC000809246039092470360922A0370922B03CE
:104CD00080922C0390922D0387E690E063E070E0D1
:104CE0000E94793460E070E04EE850E02BE430E060
:104CF0000E9448370E94FA1280E090E06EEE7FEF4B
:104D000040E050E024E130E002E810E00E94803909
:104D10008AE090E060E070E045E250E02AE530E0B3
:104D20000AEA10E00E9444530E94253460919205E3
:104D300070919305809194059091950590580E94EB
:104D400039589B01AC0180E090E0B90140E050E0AF
:104D500028E230E006E910E00E948039CE010E948E
:104D6000321780E090E06BE070E04FE050E020E030
:104D700030E00AE510E0E2E3EE2EF12CBCE3CB2EAE
:104D8000D12C0E94F54C83E090E062E370E046EAAB
:104D90005FEF22E330E004EC1FEF0E94034382E068
:104DA00090E062E070E040E050E02AE030E008E7A8
:104DB00010E00E9480396092440370924503809213
:104DC00046039092470360922A0370922B038092CD
:104DD0002C0390922D038AE590E0909367038093D3
:104DE000660383E090E06EE770E044E050E028EB7B
:104DF00030E005E010E0A7EAEA2EF12CF2E3CF2E36
:104E0000D12CEEE1AE2EB12C0E94364F10926703EA
:104E100010926603CE0102968530910508F044C0D9
:104E200080E090E060E070E04EEC5FEF26E430E080
:104E300002E810E00E9480396092440370924503BA
:104E4000809246039092470360922A0370922B034C
:104E500080922C0390922D0387E690E063E070E04F
:104E60000E94793460E070E04BE750E02CE930E0DC
:104E70000E94483780E090E069E170E040E050E057
:104E800028E230E002E310E00E94803980E090E008
:104E90006AE070E048ED5FEF28E230E00EEC1FEFD3
:104EA000B6E4EB2EF12C6FC08CE090E061E070E096
:104EB0004AE050E023E030E00BE010E0EE24FF2475
:104EC000A2E3CA2ED12CFCE3AF2EB12C0E94CD3F21
:104ED000CE0163E070E00E94CE5D83E290E0689FC7
:104EE000A001699F500D789F500D11248AE090E039
:104EF00061E070E025E030E0AA24BB240E94CD3FB1
:104F000080E090E065E070E04EEC5FEF22E330E09F
:104F100004EC1FEFE6E4EE2EF12C0E94084A6092AA
:104F20004403709245038092460390924703609237
:104F30002A0370922B0380922C0390922D0387E614
:104F400090E063E070E00E94793460E070E04BE74D
:104F500050E02CE930E00E94483780E090E069E1C1
:104F600070E040E050E028E230E002E310E00E9410
:104F7000803980E090E06AE070E048ED5FEF28E281
:104F800030E00EEC1FEF0E94084A0E94FA12DF91F7
:104F9000CF911F910F91FF90EF90DF90CF90BF9036
:104FA000AF909F908F907F906F900895EF92FF92B7
:104FB0000F931F93CF93DF937C01EB010E94253465
:104FC00085E690E063E070E00E947934009709F490
:104FD00065C005E010E080E062E10E941A56882377
:104FE000D1F30E94945480E063E10E941A56882312
:104FF000D1F380E090E0FC01EE0FFF1F9C0163E025
:10500000220F331F6A95E1F7E20FF31FE754FA4FBF
:105010002081318121153105A1F1228133812E19A1
:105020003F0937FF03C0309521953F4F2E313105A1
:1050300044F5FC01EE0FFF1F9C0143E0220F331FDC
:105040004A95E1F7E20FF31FE754FA4F24813581C7
:105050002C1B3D0B37FF03C0309521953F4F2E3160
:1050600031057CF4FC01EE0FFF1FA3E0880F991FB0
:10507000AA95E1F7E80FF91FE754FA4F2081318133
:105080000BC001968930910509F0B5CF0150104051
:1050900009F0A1CF20E030E0C90100C0DF91CF913D
:1050A0001F910F91FF90EF90089590E0FC01B09652
:1050B000FE2FEE2720812093A60520FDFBCF8896AA
:1050C000B82FAA278C9190819093A60590FDFBCFD5
:1050D000089590E08096F82FEE2780818093A605B2
:1050E00080FDFBCF608380818093A60580FDFBCF90
:1050F000089580E061E00E94692882E061E00E94FA
:10510000692881E061E00E9469280895A82FB0E035
:10511000FD01B096FE2FEE2780818093A60580FDCD
:10512000FBCF9896BA2FAA27872F992787FD9A95A4
:105130008C9380818093A60580FDFBCF6C9380814A
:105140008093A60580FDFBCF08951F93CF93DF9337
:10515000182F80E06FE10E946928C1E0D0E002C012
:10516000CC0FDD1F1A95E2F780E0BE010E94862871
:1051700081E06FE10E94692881E0BE010E948628DB
:1051800082E06FE10E94692882E0BE010E948628C9
:1051900080E061E00E94692882E061E00E94692865
:1051A00081E061E00E946928DF91CF911F9108950D
:1051B000DF92EF92FF920F931F93D82E7A018B010B
:1051C0009B01552737FD5095452FB9010E94862830
:1051D0008D2DB7010E9486281F910F91FF90EF90AF
:1051E000DF9008951F93182F60E00E9469288CECCF
:1051F0009CE10197F1F700C00000812F6DE10E9452
:105200006928812F60E070E00E9486281F91089530
:10521000AF92BF92CF92DF92EF92FF920F931F93C4
:10522000CF93DF93F82E6B01EA018901AA24A3949E
:105230006115710509F4AA24BB24B394209709F4DD
:10524000BB24EE24E3940115110509F4EE248F2DFF
:105250006EE10E9469286B2D70E0660F771F660F64
:10526000771F8A2D90E043E0880F991F4A95E1F758
:10527000682B792B8E2D90E0880F991F682B792B46
:105280008F2D0E948628AA2021F08F2DB6010E9422
:105290008628BB2021F08F2DBE010E948628EE209B
:1052A00021F08F2DB8010E9486288F2D64E00E9486
:1052B0006928DF91CF911F910F91FF90EF90DF90C0
:1052C000CF90BF90AF9008958F929F92AF92BF9270
:1052D000CF92DF92EF92FF920F931F93CF93DF93C2
:1052E000F82E4B016A01E901AA24A3946115710506
:1052F00009F4AA24BB24B394C114D10409F4BB2437
:10530000EE24E394209709F4EE248F2D6EE10E94A1
:1053100069286A2D70E0A3E0660F771FAA95E1F770
:1053200061608B2D90E0880F991F880F991F682B63
:10533000792B8E2D90E0880F991F682B792B8F2D5C
:105340000E948628AA2021F08F2DB4010E94862871
:10535000BB2021F08F2DB6010E948628EE2021F07F
:105360008F2DBE010E9486288F2DB8010E948628AD
:105370008F2D64E00E946928DF91CF911F910F91DA
:10538000FF90EF90DF90CF90BF90AF909F908F9065
:105390000895DF92EF92FF920F931F93D82E7A0118
:1053A0008B016FE10E9469288D2D60E270E00E9400
:1053B00086288D2DB801A7010E94D8281F910F9132
:1053C000FF90EF90DF90089580E060E170E040E0B2
:1053D00050E020E430E00E94082981E060E170E0C4
:1053E00040E050E020E430E00E94082982E060E1E3
:1053F00070E040E050E020E430E00E94082980E0C6
:105400004FEF5FEF6FEF7FE30E94C92981E04FEF1D
:105410005FEF6FEF7FE30E94C92982E04FEF5FEFFC
:105420006FEF7FE30E94C9290895DF92EF92FF9208
:105430000F931F93DF93CF930F92CDB7DEB7D82E84
:105440007A018B0177FF0AC010950095F094E094E3
:10545000E11CF11C011D111D90E001C091E08D2D9A
:105460006FE199830E9469289981792F7295707FE5
:1054700060E0686078608D2D0E9486288D2DB801CF
:10548000A7010E94D8280F90CF91DF911F910F9113
:10549000FF90EF90DF900895AF92BF92CF92DF928E
:1054A000EF92FF920F931F93DF93CF93CDB7DEB7A9
:1054B0002C970FB6F894DEBF0FBECDBF59016A011D
:1054C0000E946C5869837A838B839C83C601B501E3
:1054D0000E946C586D837E838F839887C801B701C3
:1054E0000E946C5869877A878B879C878E010F5F33
:1054F0001F4FEE24F801608171818281938121E741
:105500003CEA4BE85EE30E94305A9B01AC01F80193
:1055100021933193419351938F0120E030E040E893
:1055200057E40E94305A0E943958AB01BC018E2DBD
:105530000E94152AE394FE2DF330E1F60E947928AB
:105540002C960FB6F894DEBF0FBECDBFCF91DF9182
:105550001F910F91FF90EF90DF90CF90BF90AF9091
:1055600008954F925F926F927F928F929F92AF9227
:10557000BF92CF92DF92EF92FF920F931F93982EDC
:10558000862E29013A016FE10E946928682D70E09A
:105590006A62892D0E948628892DB301A2010E948A
:1055A000D828892DB801A7010E94D828892DB601D5
:1055B000A5010E94D8281F910F91FF90EF90DF90D6
:1055C000CF90BF90AF909F908F907F906F905F90A3
:1055D0004F9008959F92AF92BF92CF92DF92EF9239
:1055E000FF920F931F93DF93CF9300D00F92CDB70D
:1055F000DEB71ABA15BA8FEF84BB1092650083E04C
:105600008093640010E8A12EB4E8BB2E6E010894CC
:10561000C11CD11C85B3856085BB83E39BE20197E8
:10562000F1F785B38A7F85BBECECFCE13197F1F7AC
:1056300000C00000809165008D7F80936500AB986D
:1056400085B3887F85BB99B39983A89A19B385B32D
:10565000887F826085BB09B3943C09F494C0943878
:1056600009F491C015BA80E060E048ED51E00E9475
:10567000670181E060E04EED51E00E946701143C5B
:1056800009F481C0143809F47EC015BA80E060E0E6
:1056900048ED51E00E94670182E060E04EEE51E08B
:1056A0000E946701043C09F46EC0043809F46BC021
:1056B00015BA80E060E048ED51E00E94670183E0A8
:1056C00060E04EEF51E029C09E2C9C18892D6DE1C1
:1056D0000E946928892D60E070E00E948628F80108
:1056E0008081F70181937F0100501F4FF3E200306A
:1056F0001F0751F78981803C99F0803889F085B780
:105700008F7385BF15BA80E060E04EE052E00E94E2
:10571000670181E060E04EED51E00E9467017ACFC1
:1057200080E060E044E152E00E94670180E098B3CD
:10573000976098BB2FEF3FEB46E021503040404050
:10574000E1F700C0000098B3987F98BB2FEF3FEBC4
:1057500046E0215030404040E1F700C000008F5F3C
:10576000833029F70E94D8010F900F900F90CF91AE
:10577000DF911F910F91FF90EF90DF90CF90BF903E
:10578000AF909F900895A5BE82E080936D00B09287
:105790006C00760100E010E297CF4F925F926F921B
:1057A0007F928F929F92AF92BF92CF92DF92EF92B1
:1057B000FF920F931F93CF93DF9304E6802E912CDB
:1057C00084E00E947600982F80E0EC0185E00E9442
:1057D000760090E08C2B9D2BB4010E94CE5D882733
:1057E00077FD8095982F0E946C58F62E072F182F62
:1057F000E92E462E572E682E792E63015201E89429
:10580000D7F8C601B50120E030E044E353E40E943C
:1058100095591816ACF260919A0570919B0580918C
:105820009C0590919D052F2D302F412F5E2D0E94BC
:10583000CA57882309F4E5C06F2D702F812F9E2D44
:1058400020E030E0A9010E94CA5787FF5DC0609147
:105850009A0570919B0580919C0590919D0520E093
:1058600030E0A9010E94955918160CF04DC0209106
:105870009A0530919B0540919C0550919D055F775D
:10588000C601B5010E94535720E030E044E353E4E1
:105890000E94CA5787FF15C0A0909E05B0909F0533
:1058A000C090A005D090A10520919A0530919B054C
:1058B00040919C0550919D056F2D702F812F9E2D3D
:1058C0001CC0A0909E05B0909F05C090A005D090F0
:1058D000A10560919A0570919B0580919C0590911E
:1058E0009D052F2D302F412F5E2D0E9452579B0179
:1058F000AC0160E070E084EB93E40E9452579B019E
:10590000AC01C601B50169C0C301B20120E030E0BD
:10591000A9010E94955918160CF047C060919A058C
:1059200070919B0580919C0590919D0520E030E051
:10593000A9010E94CA5787FF38C020919A0530916B
:105940009B0540919C0550919D055F77C601B5016F
:105950000E94535720E030E044E353E40E94CA57CA
:1059600087FD23C0E0909E05F0909F050091A00563
:105970001091A10520919A0530919B0540919C05BD
:1059800050919D05C301B2010E9452579B01AC0189
:1059900060E070E084EB93E40E9452579B01AC01FD
:1059A000C801B7010E9452571AC0E0909E05F090BE
:1059B0009F050091A0051091A10520919A053091B5
:1059C0009B0540919C0550919D05C301B2010E9429
:1059D00052579B01AC01C801B7010E9453579B016C
:1059E000AC0120939E0530939F054093A0055093F2
:1059F000A10540929A0550929B0560929C05709279
:105A00009D05DF91CF911F910F91FF90EF90DF9057
:105A1000CF90BF90AF909F908F907F906F905F904E
:105A20004F9008952F923F924F925F926F927F9284
:105A30008F929F92AF92BF92CF92DF92EF92FF929E
:105A40000F931F93DF93CF93CDB7DEB762970FB657
:105A5000F894DEBF0FBECDBF69837A838B839C83AE
:105A60002D833E834F8358873701480160E070E003
:105A700084E394E4A60195010E945257162F072F44
:105A8000F82EE92E8D819E81AF81B8858093A70580
:105A90009093A805A093A905B093AA0589819A813E
:105AA000AB81BC8180933D0690933E06A0933F0658
:105AB000B0934006A092B305B092B405C092B5056C
:105AC000D092B605C601B50120E030E044E353E4CE
:105AD0000E94CA57181684F0A8019701652F742FE9
