:100000000C9455000C9474000C9474000C947400BF
:100010000C9474000C9474000C9474000C94740090
:100020000C9474000C9474000C9474000C94740080
:100030000C9474000C9474000C9488230C94740039
:100040000C9474000C9474000C946F480C9474001D
:100050000C9474000C9474000C9474000C94740050
:100060000C9474000C9474000C9474000C94740040
:100070000C9474000C9474000C940A010C94740099
:100080000C9474000C9474000C94740005A84CCD6E
:10009000B2D44EB93836A9020C50B9918688083CC2
:1000A000A6AAAA2ABE000000803F11241FBECFEFDF
:1000B000D0E1DEBFCDBF13E0A0E0B1E0EEEDFFE99F
:1000C00000E00BBF02C007900D92A635B107D9F72B
:1000D0001BE0A6E5B3E001C01D92A338B107E1F72C
:1000E0000E949C110C9417490C94000094EA909380
:1000F00074009091740097FFFCCF9AE09093730086
:1001000094E8909374009091740097FFFCCF8093D3
:10011000730084E8809374008091740087FFFCCFA3
:1001200084E98093740084EA809374008091740061
:1001300087FFFCCF8BE08093730084E8809374008A
:100140008091740087FFFCCF84E8809374008091D5
:10015000740087FFFCCF8091730094E99093740042
:10016000089594EA909374009091740097FFFCCFE7
:100170009AE09093730094E89093740090917400C7
:1001800097FFFCCF8093730084E880937400809184
:10019000740087FFFCCF6093730084E88093740041
:1001A0008091740087FFFCCF84E9809374000895E8
:1001B00010929B0088E980939A0086E080939D00CE
:1001C000109298008FE580939900789408951F937A
:1001D0001FEF1093730081E4809370000E94B21CA3
:1001E0000E945B480E94D8000E94AC1B1FBC85E0A7
:1001F0008EBD1DBD80E78CBD84E087BF78948FE005
:1002000087BB81B3807F81BB84B3806F84BB18BA06
:100210001F9108951F920F920FB60F9211248F9382
:10022000DF93CF930F92CDB7DEB780919C00898387
:1002300080919B00887BE1F381E080935603898164
:10024000809357030F90CF91DF918F910F900FBE46
:100250000F901F901895DF93CF930F92CDB7DEB715
:1002600080915703898310925703F8941092560394
:10027000789489810F90CF91DF91089590919B00A0
:1002800095FFFCCF80939C000895CF93DF93E4E724
:10029000F0E094EA9083A1EEB2E01197F1F700004C
:1002A000A3E7B0E09EE09C9394E89083C1EED2E097
:1002B0002197F1F700008C93908381EE92E00197F3
:1002C000F1F7000084E98083DF91CF910895EF92E8
:1002D000FF920F931F93DF93CF9300D0CDB7DEB77C
:1002E000082F162F843070F5643160F58BE1498357
:1002F0005A830E9445018CE40E944501812F0E948F
:100300004501802F0E94450180E791E00197F1F7B8
:1003100000C0E12EFF2449815A81042F152F06C009
:100320000E94450194EC9A95F1F700C0E4E1EE16C5
:10033000F10444F4F80181918F010894E11CF11C4F
:10034000882371F70F900F90CF91DF911F910F913C
:10035000FF90EF9008951F93DF93CF9300D0CDB718
:10036000DEB7182F8430F0F46431E0F48BE12A8397
:1003700069830E9445018CE40E9445016981862FB2
:100380000E944501812F0E94450180E791E001977D
:10039000F1F700C02A81822F0E94450194EC9A95C2
:1003A000F1F700C00F900F90CF91DF911F9108954A
:1003B0008BE10E94450183E40E94450186E696EEAA
:1003C000A0E081509040A040E1F70895EF92FF92A5
:1003D0000F931F93182FF62EE42E842F64E60E94AD
:1003E000BA4F082F282F30E0205D3F4F442737FDBC
:1003F0004095542F812F6F2D0E94AB018CE9089FEF
:10040000002D11240E0D802F6AE00E94BA4FE82EB5
:100410006F2D6F5F282F30E0205D3F4F442737FD61
:100420004095542F812F0E94AB016F2D6E5F26EFF8
:10043000E29E202D1124200F30E0205D3F4F442705
:1004400037FD4095542F812F0E94AB011F910F91D2
:10045000FF90EF900895EF92FF920F931F9380E02B
:1004600090E062E070E040E050E020E030E00AE040
:1004700010E0B8E7EB2EF12C0E942B2F009709F02B
:1004800069C080E090E06CEF7FEF40E050E020E05A
:1004900030E00AE010E0A8E7EA2EF12C0E942B2FB2
:1004A000009709F06BC080E090E066E070E040E00B
:1004B00050E020E030E00AE010E0F8E7EF2EF12C09
:1004C0000E942B2F009709F045C080E090E068EF74
:1004D0007FEF40E050E020E030E00AE010E0E8E7A5
:1004E000EE2EF12C0E942B2F009709F047C080E0E0
:1004F00090E06AE070E040E050E020E030E00AE0A8
:1005000010E0B8E7EB2EF12C0E942B2F009711F58D
:1005100080E090E064EF7FEF40E050E020E030E0EA
:100520000AE010E0A8E7EA2EF12C0E942B2F00979A
:1005300029F580E090E06EE070E040E050E020E0DF
:1005400030E00AE010E0F8E7EF2EF12C0E942B2FAC
:10055000009719F081E090E013C080E090E060EF38
:100560007FEF40E050E020E030E00AE010E0E8E714
:10057000EE2EF12C0E942B2F009761F08FEF9FEF52
:1005800060E070E040E050E02AE030E00CEE1FEF69
:100590000E94482B1F910F91FF90EF9008957F923A
:1005A0008F929F92AF92BF92CF92DF92EF92FF9283
:1005B0000F931F93CF93DF93EC014B01742E60FDDB
:1005C00021C080E090E0DC018093A8039093A90310
:1005D000A093AA03B093AB0380938E0390938F03F1
:1005E000A0939003B093910380E090E060E070E00E
:1005F00041E050E020E730E003E010E0F5E4EF2ECA
:10060000F12C20C080E090E0DC018093A80390935F
:10061000A903A093AA03B093AB0380938E03909396
:100620008F03A0939003B093910380E090E060E08B
:1006300070E046E050E023E530E008E010E0E1E55E
:10064000EE2EF12CBEE1CB2ED12CAA24BB240E948D
:10065000FA4022E030E0CE01B9010E94C64FFC0111
:10066000C401B9010E94C64FE817F90709F47BC01D
:10067000C0FD37C086EF9FEF60E070E04AE050E0D9
:1006800028E230E002E310E00E94B7348AE090E014
:100690009093CB038093CA038EE79FEF60E070E0F6
:1006A00040E050E028E230E000E010E00E94482BFB
:1006B00080E090E062E070E048E15CEF20E030E054
:1006C000A4E1EA2EF12CF8E2CF2ED12CAA24BB24EF
:1006D0000E94412D86EF9FEF60E070E046EF5FEFF4
:1006E00036C08AE090E060E070E046EF5FEF28E21D
:1006F00030E002E310E00E94B73486EF9FEF909362
:10070000CB038093CA0382E890E060E070E040E0B1
:1007100050E028E230E000E010E00E94482B80E04A
:1007200090E067E070E048EE53E020E030E0E4E184
:10073000EE2EF12CB8E2CB2ED12CAA24BB240E94A1
:10074000412D8AE090E060E070E04AE050E028E26D
:1007500030E00EEC1FEF0E94B7341092CB031092E2
:10076000CA030E94ED25A1E08A2E912C8C229D22A5
:10077000C0FD4EC080E090E0DC018093A803909320
:10078000A903A093AA03B093AB0380938E03909325
:100790008F03A0939003B093910380E090E060E01A
:1007A00070E041E050E020E730E003E010E0F5E4E5
:1007B000EF2EF12CEEE1CE2ED12CAA24BB240E94E8
:1007C000FA4083E290E060E070E040E050E02EE12B
:1007D00030E00CE810E00E94482B80E090E060E000
:1007E00070E048EE53E020E030E002E310E0BCE3CC
:1007F000EB2EF12C0E942B2FCE0162E070E00E94C4
:10080000C64F9B01309521953F4F8BE490E04DC042
:1008100080E090E0DC018093A8039093A903A0936B
:10082000AA03B093AB0380938E0390938F03A0939E
:100830009003B093910380E090E060E070E046E0C8
:1008400050E023E530E008E010E0A1E5EA2EF12CCD
:10085000FEE1CF2ED12CAA24BB240E94FA408BEDBE
:100860009FEF60E070E040E050E02EE130E00CE807
:1008700010E00E94482B80E090E060E070E048EEDD
:1008800053E020E030E002E310E0ECE3EE2EF12C48
:100890000E942B2FCE0162E070E00E94C64F9B01A8
:1008A000309521953F4F8DE490E0289FB001299F1E
:1008B000700D389F700D112466597F4F80E090E0D5
:1008C00040E050E022E330E004EC1FEF0E94482BB0
:1008D0002196C330D10518F465EB7FEF02C06BEFB2
:1008E0007FEF80E090E040E050E022E330E00CE376
:1008F00010E00E94482B80E090E060E070E048E16A
:100900005CEF20E030E002E310E0EE24FF240E94E0
:100910002B2F70FCB3C081149104D9F48CEE9FEF9F
:1009200066EA7FEF48ED5FEF22E330E000E010E0A1
:100930000E94533682E390E09093CB038093CA03E6
:100940008EEE9FEF6AE570E04CEE5FEF22E330E061
:1009500039C082EE9FEF66EA7FEF4AEB5FEF22E35A
:1009600030E000E010E00E94533684E190E0909384
:10097000CB038093CA0384E090E06EE070E042E134
:1009800050E020E030E00AEB1FEFB2E3EB2EF12C59
:10099000CC24DD240E94CF3E84E090E06EE070E045
:1009A00042E150E024E130E008E11CEF0E94CF3E3C
:1009B00086EF9FEF6AE570E04AE050E028E230E021
:1009C00000E010E00E94533684EC9FEF9093CB033D
:1009D0008093CA038CE090E065E070E04BEF5FEF3E
:1009E00023E030E002E110E0EE24FF24A2E3CA2E6F
:1009F000D12CAA24BB240E94C1318AE090E065E09A
:100A000070E048E85FEF25E030E00E94C1318AEFF6
:100A10009FEF65E070E048E15CEF25E030E0F9E150
:100A2000EF2EF12C0E94C13180E090E066EF7FEF65
:100A300042EE5FEF22E330E004EC1FEF0E94B73498
:100A400080E090E0DC018093A8039093A903A09339
:100A5000AA03B093AB0380938E0390938F03A0936C
:100A60009003B09391038AE590E09093CB03809339
:100A7000CA0387E090E060EA70E0B2C0811491049C
:100A8000D1F582EE9FEF6AE570E046E450E022E3A4
:100A900030E000E010E00E9453368CEE9FEF909320
:100AA000CB038093CA0385E090E06EE070E042E102
:100AB00050E020E030E00AEB1FEFE2E3EE2EF12CF5
:100AC000CC24DD240E94CF3E85E090E06EE070E013
:100AD00042E150E024E130E008E11CEF0E94CF3E0B
:100AE00086EF9FEF66EA7FEF46EF5FEF28E230E0A8
:100AF00000E010E01AC08CEE9FEF6AE570E048E27B
:100B000050E022E330E000E010E00E9453368EEC2B
:100B10009FEF9093CB038093CA038EEE9FEF66EA1C
:100B20007FEF44E150E022E330E00E9453368CE353
:100B300090E09093CB038093CA038CE090E064E054
:100B400070E04BEF5FEF23E030E00EE010E0EE24CA
:100B5000FF24B2E3CB2ED12CAA24BB240E94C131A6
:100B60008AE090E064E070E048E85FEF25E030E084
:100B70000E94C1318DEF9FEF64E070E048E15CEFCF
:100B800025E030E0A9E1EA2EF12C0E94C13180E09D
:100B900090E066EF7FEF4EE150E022E330E004ECBE
:100BA0001FEF0E94B73480E090E0DC018093A8033F
:100BB0009093A903A093AA03B093AB0380938E03F1
:100BC00090938F03A0939003B09391038AE590E0F4
:100BD0009093CB038093CA0382E090E066ED70E0CF
:100BE00044E050E022EC30E005E010E0F3EAEF2EC4
:100BF000F12CE4E1AE2EB12C0E94FA401092CB030E
:100C00001092CA03DF91CF911F910F91FF90EF9047
:100C1000DF90CF90BF90AF909F908F907F9008957E
:100C20002F923F924F925F926F927F928F929F92FC
:100C3000AF92BF92CF92DF92EF92FF920F931F93EA
:100C4000CF93DF93582E492E8BE00E943E4850FEF2
:100C50001CC10F2EF0E06F2EF0E07F2EF0E08F2E03
:100C6000F0E09F2EF02D6092A8037092A90380926D
:100C7000AA039092AB0360928E0370928F038092CE
:100C80009003909291038AE590E09093CB03809338
:100C9000CA0382E090E066ED70E044E050E022ECB0
:100CA00030E005E010E0A3EAEA2EF12CF2E3CF2ECB
:100CB000D12CE4E1AE2EB12C0E94FA401092CB036D
:100CC0001092CA0360E070E080E291EC4AE050E0EC
:100CD0000E94823AC0E5D0E0D093CB03C093CA0310
:100CE0008CE090E066E070E045E050E023E030E02A
:100CF00002E110E0EE24FF24B8E2CB2ED12CA2E3D7
:100D0000AA2EB12C0E94C131F2E02F2E312C852D5C
:100D1000942DB1010E94C64F709561957F4F8DE271
:100D200090E0689FA001699F500D789F500D11249D
:100D3000415A5F4F8AE090E066E070E025E030E0E5
:100D4000AA24BB240E94C13180E090E06AE070E0F8
:100D50004AE050E028E230E00EEC1FEF0E94B7348A
:100D60001092CB031092CA036092A8037092A90359
:100D70008092AA039092AB0360928E0370928F03CD
:100D8000809290039092910387E690E063E070E098
:100D90000E94412660E070E041E850E02DE930E03B
:100DA0000E94102980E090E06AE070E040E050E0AE
:100DB0002EE130E008E210E00E94482B80E090E055
:100DC0006AE070E04CE95FEF2EE130E008ED1FEFE4
:100DD000ECE3EE2EF12CB2E8CB2ED12C0E9457384A
:100DE00086EF9FEF9093CB038093CA0380E090E05F
:100DF00067E070E048EE53E020E030E000E010E013
:100E0000A4E1EA2EF12CFEE1CF2ED12CE8E2AE2EA9
:100E1000B12C0E94412DD093CB03C093CA038AE02A
:100E200090E06AE570E04AE050E023E230E00E94A2
:100E300053361092CB031092CA038CE090E068E026
:100E400070E045E050E023E030E008E110E0EE24FF
:100E5000FF24B2E3CB2ED12CAA24BB240E94C131A3
:100E6000852D942DB1010E94C64F8DE290E0689FC0
:100E7000A001699F500D789F500D1124475E5F4F70
:100E80008AE090E068E070E01BC10F2EF0E06F2E6A
:100E9000F0E07F2EF0E08F2EF0E09F2EF02D60929C
:100EA000A8037092A9038092AA039092AB03609268
:100EB0008E0370928F0380929003909291038AE543
:100EC00090E09093CB038093CA0387E090E060EAC0
:100ED00070E044E050E022EC30E005E010E0A3EAEE
:100EE000EA2EF12CF2E3CF2ED12CE4E1AE2EB12C80
:100EF0000E94FA401092CB031092CA0360E070E0A7
:100F000080E291E44AE050E00E94823AC0EBDFEFD9
:100F1000D093CB03C093CA038CE090E063E070E011
:100F200045E050E023E030E00EE010E0EE24FF2446
:100F3000B8E2CB2ED12CA2E3AA2EB12C0E94C13153
:100F4000F2E02F2E312C852D942DB1010E94C64F39
:100F5000709561957F4F8DE290E0689FA001699F39
:100F6000500D789F500D1124415A5F4F8AE090E058
:100F700063E070E025E030E0AA24BB240E94C13188
:100F800080E090E06AE070E046EF5FEF28E230E05A
:100F90000EEC1FEF0E94B7341092CB031092CA03DD
:100FA0006092A8037092A9038092AA039092AB0367
:100FB00060928E0370928F038092900390929103BF
:100FC00087E690E063E070E00E94412660E070E018
:100FD00041E850E02DE930E00E94102980E090E0E7
:100FE0006AE070E040E050E02EE130E008E210E01E
:100FF0000E94482B80E090E06AE070E044E650E018
:101000002EE130E008ED1FEFECE3EE2EF12CB2E81C
:10101000CB2ED12C0E9457388AE090E09093CB03DE
:101020008093CA0380E090E062E070E048E15CEF0A
:1010300020E030E000E010E0A4E1EA2EF12CFEE137
:10104000CF2ED12CE8E2AE2EB12C0E94412DD093B0
:10105000CB03C093CA038AE090E066EA7FEF46EFD5
:101060005FEF23E230E00E9453361092CB031092E0
:10107000CA038CE090E061E070E045E050E023E0DE
:1010800030E001E110E0EE24FF24B2E3CB2ED12CBE
:10109000AA24BB240E94C131852D942DB1010E9448
:1010A000C64F8DE290E0689FA001699F500D789F28
:1010B000500D1124475E5F4F8AE090E061E070E0E0
:1010C00025E030E0A4ECAA2EAFEFBA2E0E94C13189
:1010D000DF91CF911F910F91FF90EF90DF90CF9014
:1010E000BF90AF909F908F907F906F905F904F9048
:1010F0003F902F900895EF92FF920F931F93CF93FD
:10110000DF9320E030E0BAE1EB2EF12C11C00D911D
:101110001D91C191D1910C171D0741F44C3051051F
:10112000C1F04F5F5F4F4D30510589F72F5F3F4F43
:10113000261737078CF4A82FB92F2E9DF0012F9D6D
:10114000F00D3E9DF00D1124E058FA4F40E050E0C4
:10115000DECF21E030E002C020E030E0C901DF91C5
:10116000CF911F910F91FF90EF900895FC01808126
:10117000918118161906ACF42481358182179307E2
:1011800081F4248535858217930759F081E090E03A
:10119000909363038093620390935F0380935E0355
:1011A00019C08489958918161906BCF4208D318DD3
:1011B0008217930791F4248535858217930769F088
:1011C00081E090E09093770380937603909373038C
:1011D0008093720321E030E002C020E030E0C901DA
:1011E00008950F931F93DF93CF93CDB7DEB760972A
:1011F0000FB6F894DEBF0FBECDBF8C01FC0160813D
:101200007181161617060CF06EC0448155811416B4
:1012100015060CF068C024893589121613060CF0E7
:1012200062C0808D918D181619060CF05CC0240FD9
:10123000351F260F371F280F391F86E090E0A09139
:101240009D01B0919E018A1B9B0B880F991F281747
:10125000390709F048C06417750709F044C08BE7E7
:1012600092E020E030E0AE014F5F5F4FFC01A191C2
:10127000B191CF01AA0FBB1FA00FB11F6D917C913F
:1012800011972115310579F0D9011197AA0FBB1FCC
:10129000A40FB51F0D90BC91A02D6A177B0719F103
:1012A0002530310504F51616170654F4D901AA0F96
:1012B000BB1FA40FB51F11967C936E932F5F3F4FFA
:1012C000F2E08B389F0791F6F9013197EE0FFF1F7F
:1012D000EC0FFD1F21E030E04181528189819A812C
:1012E0004817590711F420E030E0C90160960FB6A5
:1012F000F894DEBF0FBECDBFCF91DF911F910F914C
:1013000008954F925F926F927F928F929F92AF92C9
:10131000BF92CF92DF92EF92FF920F931F93CF93E2
:10132000DF933C016B01EA01890180915C0390919C
:101330005D03009709F0ADC0809178039091790327
:10134000481759070CF0A5C0C901BA010E947B08D3
:10135000009709F09EC0FE01EE0FFF1FE45EFA4FFA
:10136000D182C0828AE190E0C89FF001C99FF00D50
:10137000D89FF00D1124E058FA4FD8018AE10D9062
:1013800001928150E1F780917A0390917B0300975D
:1013900029F4C8010E94B608009741F580917A03AC
:1013A00090917B038130910529F4C8010E94F108D6
:1013B0000097E1F47601EE0CFF1CE00EF11EC60171
:1013C00024E0880F991F2A95E1F7BBEAAB2EB1E024
:1013D000BB2EA80EB91EABEB4A2EA1E05A2E480E2A
:1013E000591E4E010894811C911C14C081E090E0AC
:1013F00090935D0380935C03A4EDB3E0ECE1F5E032
:1014000084E601900D928150E1F7D0937903C09367
:1014100078033FC0F501619171915F0177FD36C09E
:101420006615770599F1EB01CC0FDD1FFE01E25A3D
:10143000FC4F80819181009749F5F701808191816E
:101440009093D1038093D003C00FD11F88819981DD
:10145000918380838091D0039091D1039983888375
:10146000C601A40198010E948109F7018081918140
:101470009093D1038093D003888199819183808355
:101480008091D0039091D10399838883A414B504EB
:1014900009F6DF91CF911F910F91FF90EF90DF90B0
:1014A000CF90BF90AF909F908F907F906F905F9004
:1014B0004F9008958F929F92AF92BF92CF92DF92FA
:1014C000EF92FF920F931F93CF93DF93EC017B0179
:1014D00059018091780390917903481759070CF0CE
:1014E0005DC0FA01EE0FFF1FE45EFA4FD183C083A7
:1014F000C617D70771F4A4EDB3E0ECE1F5E084E69C
:1015000001900D928150E1F7509379034093780355
:1015100045C0FE01EE0FFF1FE05AFB4F81E090E057
:10152000918380838E01E4E0000F111FEA95E1F7BB
:1015300005551E4F78E0C72ED12C4A010894811C16
:10154000911CF801819191918F019C01220F331F11
:10155000F901E05AFB4F408151814115510591F449
:1015600097FD10C08E159F0541F02A0D3B1DF90116
:1015700020813181121613062CF0B701A4019501C8
:101580000E945A0A0894C108D108C114D104C9F6AE
:10159000CC0FDD1FC05ADB4F19821882DF91CF912B
:1015A0001F910F91FF90EF90DF90CF90BF90AF9081
:1015B0009F908F9008959A014AE1E0E6F4E0DF0100
:1015C0001D924A95E9F74AE050E050937903409321
:1015D000780340E050E00E945A0A21E030E0809118
:1015E0007803909179038A30910511F420E030E07E
:1015F000C9010895FC0120813181828193812817DE
:101600003907A9F4248935898689978928173907E4
:1016100071F482859385248535858217930739F483
:1016200021E030E0468557858417950711F020E0CA
:1016300030E0C90108952F923F924F925F926F92CE
:101640007F928F929F92AF92BF92CF92DF92EF9252
:10165000FF920F931F93DF93CF9300D000D000D061
:10166000CDB7DEB79A8389831B012A01B22EA32E40
:101670008091940A9091950A481759070CF0D0C0B0
:1016800080915C0390915D03009709F0C9C0822F9F
:10169000932F0E94FA0A0097A1F0AAE7B4E0EAECBF
:1016A000F4E080E501900D928150E1F75092950AA7
:1016B0004092940A81E090E090935D0380935C03F4
:1016C000AFC03EE5632E33E0732EC501092F182FFE
:1016D000EE24FF244201880C991C880C991C9AEC7A
:1016E000C92E94E0D92E8C0C9D1C94012E5F3F4F87
:1016F0003C832B830894411C511C89819A818E154F
:101700009F0509F47FC0F8018081918118161906A0
:101710000CF078C0F30180819181009709F072C0CC
:10172000C101B7014B2D5A2D0E94DB0A009709F425
:1017300069C0C501492F582F5E834D83CC24DD2419
:10174000ED81FE8180819181181619060CF44CC040
:10175000C701B6014B2D5A2D0E94DB0A009709F4F0
:1017600043C0F801808191819093D1038093D0038D
:10177000ED81FE8180819181F80191838083809148
:10178000D0039091D103ED81FE8191838083F40198
:10179000F182E082EB81FC81D182C082E09178030A
:1017A000F0917903EE0FFF1FEE52FC4F60817181C3
:1017B000C601A2012B2D3A2D0E941B0BF80180813E
:1017C00091819093D1038093D003ED81FE8180813C
:1017D0009181F801918380838091D0039091D1030E
:1017E000ED81FE81918380830894C11CD11C2D81E1
:1017F0003E812E5F3F4F3E832D833DE0C316D104D3
:1018000009F09ECF0894E11CF11C0E5F1F4F82E08F
:1018100090E0680E791E9DE0E916F10409F06DCFA5
:1018200026960FB6F894DEBF0FBECDBFCF91DF91E5
:101830001F910F91FF90EF90DF90CF90BF90AF90EE
:101840009F908F907F906F905F904F903F902F90E0
:101850000895FC0144E0EE0FFF1F4A95E1F7E555BE
:10186000FE4F20E030E0819191918617970711F4A7
:10187000C90108952F5F3F4F28303105A1F7089522
:10188000681B790BCB0177FF04C088279927861B3B
:10189000970B853091053CF077FD03C06850704090
:1018A00002C0685F7F4FCB0177FF04C0882799276C
:1018B000861B970B8430910531F480919A03843113
:1018C00010F46CEF7FEF8DE290E0689F9001699FCC
:1018D000300D789F300D1124C9010895AF92BF9249
:1018E000CF92DF92EF92FF920F931F93CF93DF93EC
:1018F000EC0180915204909153046115710509F037
:10190000B8C060E070E00E94400CAC01445150400F
:1019100080E090E060E070E022E830E008E710E06E
:101920000E94482B8CEE9FEF9093CB038093CA03C9
:10193000C830D1051CF009EC1FEF02C00EE71FEF05
:1019400085E090E06EE070E042E150E020E030E0C1
:10195000E2E3EE2EF12CBCE3CB2ED12C0E94CF3E45
:101960008CEE9FEF66EA7FEF4EEC5FEF28E230E00F
:1019700000E010E00E94533684E190E09093CB03A6
:101980008093CA0380E090E064E070E040E050E0C3
:1019900028E13CEFA7E1EA2EF12CF2E3CF2ED12C87
:1019A000AA24BB240E94412D83EF9FEF6AE570E0DB
:1019B0004AE050E028E230E00E94533684EC9FEF8A
:1019C0009093CB038093CA038CE090E065E070E0D5
:1019D0004BEF5FEF23E030E000E110E0EE24FF2466
:1019E000ECE3CE2ED12C0E94C1318AE090E065E07C
:1019F00070E046EF5FEF25E030E00E94C1318AEFF2
:101A00009FEF65E070E048E15CEF25E030E0B9E190
:101A1000EB2EF12C0E94C13182E090E066EF7FEF67
:101A200042EE5FEF22E330E004EC1FEFACE3EA2E7E
:101A3000F12C0E94E23B80E090E0DC018093A8035F
:101A40009093A903A093AA03B093AB0380938E0352
:101A500090938F03A0939003B09391038AE590E055
:101A60009093CB038093CA0387E090E060EA70E034
:101A7000B7C060E070E00E94400CAC014C5E5F4F6C
:101A800080E090E060E070E022E830E008E710E0FD
:101A90000E94482B84E190E09093CB038093CA038B
:101AA000C830D1051CF009EC1FEF02C00EE71FEF94
:101AB00084E090E06EE070E042E150E020E030E051
:101AC000F2E3EF2EF12CECE3CE2ED12C0E94CF3E90
:101AD0008CEE9FEF6AE570E042E350E028E230E0F0
:101AE00000E010E00E9453368CEE9FEF9093CB0302
:101AF0008093CA0380E090E065E070E040E050E051
:101B000028E13CEFB7E1EB2EF12CA2E3CA2ED12C59
:101B1000AA24BB240E94412D83EF9FEF66EA7FEF4A
:101B200046EF5FEF28E230E00E9453368CE390E00E
:101B30009093CB038093CA038CE090E064E070E064
:101B40004BEF5FEF23E030E00CE010E0EE24FF24E9
:101B5000FCE3CF2ED12C0E94C1318AE090E064E0FA
:101B600070E046EF5FEF25E030E00E94C1318DEF7D
:101B70009FEF64E070E048E15CEF25E030E0E9E1F0
:101B8000EE2EF12C0E94C1318EEF9FEF66EF7FEFBA
:101B90004EE150E022E330E004EC1FEFBCE3EB2E1B
:101BA000F12C0E94E23B80E090E0DC018093A803EE
:101BB0009093A903A093AA03B093AB0380938E03E1
:101BC00090938F03A0939003B09391038AE590E0E4
:101BD0009093CB038093CA0382E090E066ED70E0BF
:101BE00044E050E022EC30E005E010E0A3EAEA2E09
:101BF000F12CF2E3CF2ED12CEEE1AE2EB12C0E94CF
:101C0000FA401092CB031092CA03DF91CF911F913B
:101C10000F91FF90EF90DF90CF90BF90AF9008951D
:101C2000CF92DF92EF92FF920F931F93DF93CF93A8
:101C3000CDB7DEB760970FB6F894DEBF0FBECDBF4D
:101C4000DE011196E5EAF2E020E101900D922150CB
:101C5000E1F70091520410915304FE01319621E105
:101C6000E22EF12CEC0EFD1E28E030E06C0193E03A
:101C7000CC0CDD1C9A95E1F781919191800F911F19
:101C8000B9010E94C64FAC01D601A80FB91FAA0F17
:101C9000BB1FA555BE4F8D919C91119797FD02C01A
:101CA000CA0103C0EE15FF0539F760960FB6F89428
:101CB000DEBF0FBECDBFCF91DF911F910F91FF907F
:101CC000EF90DF90CF9008958F929F92AF92BF9246
:101CD000CF92DF92EF92FF920F931F93CF93DF93F8
:101CE0007C016B015A01BDE28B2E912CC601B5011E
:101CF0000E94290CEC018091520490915304C81762
:101D0000D907A1F1F601EE0FFF1FEF56FE4F20811C
:101D100031812115310559F4BE010E94400CAC01FE
:101D200080E090E060E070E026E930E00AC0BE01AB
:101D30000E94400CAC0180E090E060E070E02CE399
:101D400030E002E810E00E94482BC89DC001C99D08
:101D5000900DD89D900D11246AE070E00E94C64756
:101D6000D0935304C09352040E942B02E114F10457
:101D700009F0E9C0C5010E94100E4C01CE01B4016A
:101D80000E94400C7C01C815D90509F4ADC0F7FECE
:101D900004C0882799278E199F098B3591050CF46B
:101DA00075C0A114B10469F022E0A216B10449F093
:101DB0003AE0A316B10429F08CE0A816B10409F0AA
:101DC00065C0C0FF63C01E141F042CF423ED3FEF59
:101DD000E20EF31E04C08DE290E0E80EF91ECE0183
:101DE00062E070E00E94C64F880F991F83579E4F94
:101DF000FC0140815181495150408AE090E060E00F
:101E000070E02EE130E00CE810E00E9400451E1466
:101E10001F041CF486EA9FEF02C08AE590E09093CD
:101E2000CB038093CA038DE290E09C01C29FC00166
:101E3000C39F900DD29F900D11246AE070E00E9424
:101E4000C6471E141F041CF043ED5FEF02C04DE2B5
:101E500050E087EE9FEFBA012EE130E00CE810E091
:101E60000E9453361092CB031092CA0380E090E098
:101E700069E170E0A7012EE130E0E4E6EE2EF12CFE
:101E8000B8E7CB2ED12C0E94573844C0CE0162E077
:101E900070E00E94C64F880F991F83579E4FFC0128
:101EA000408151814E5150408AE090E060E070E006
:101EB0002EE130E008E210E00E94004580E090E072
:101EC0006EE170E0A7012EE130E008ED1FEFF4E6CF
:101ED000EF2EF12CE8E7CE2ED12C0E94573810922D
:101EE000CB031092CA0316C0C40162E070E00E94E6
:101EF000C64F880F991F83579E4FFC014081518127
:101F00008AE090E060E070E028E230E006E910E06E
:101F10000E9400458DE290E09C01829EC001839E5C
:101F2000900D929E900D11246AE070E00E94C647C9
:101F30000E942B029092530480925204B0921B058F
:101F4000A0921A0573C031E0E316F10409F05EC0F7
:101F500080E090E0DC0180939A0A90939B0AA09322
:101F60009C0AB0939D0ACE0162E070E00E94C64FC9
:101F70007C01EE0CFF1C8DE891E0E80EF91EF701E4
:101F800040815181485150408AE090E060E070E02B
:101F90002EE130E00CE810E00E94004568E170E0BE
:101FA000F70180819181681B790B80E090E040E02F
:101FB00050E02EE130E00E94482B8DE290E09C0141
:101FC000C29FC001C39F900DD29F900D11246AE063
:101FD00070E00E94C6470E942B02D601AA0FBB1FC9
:101FE000AF56BE4F8D919C9111979093D1038093E2
:101FF000D003F501EE0FFF1FEF56FE4F2081318118
:1020000011963C932E939183808310C080E090E0E2
:10201000B601A5010E94640E31E0E32EF12C3A2DA9
:102020002B2D5601C901C92ED82E60CEDF91CF913C
:102030001F910F91FF90EF90DF90CF90BF90AF90E6
:102040009F908F900895AF92BF92CF92DF92EF92C0
:10205000FF920F931F93CF93DF936C018B017A0153
:10206000CB01BA0141E951E00E94DB0AC0E0D0E0B7
:1020700084E6A82E8EE0B82E0EC00197C817D907A7
:1020800019F080E090E002C08C2D9D2DB801A701D1
:10209000F501099521968091780390917903C817ED
:1020A000D9075CF3DF91CF911F910F91FF90EF90D3
:1020B000DF90CF90BF90AF9008950F931F93CF9371
:1020C000DF930E94D8018DB79EB70E970FB6F89494
:1020D0009EBF0FBE8DBFEDB7FEB73196C9E4DBE002
:1020E000ADB7BEB71296DC93CE93119700E011E026
:1020F000138302838091910190919201958384834F
:1021000080919301909194019783868380919501AA
:102110009091960191878087809197019091980185
:10212000938782878091990190919A0195878487FE
:102130000E941A498DB79EB70E960FB6F8949EBFAF
:102140000FBE8DBF80E060E0AE010E946701ADB7B9
:10215000BEB71E970FB6F894BEBF0FBEADBFEDB7AA
:10216000FEB731961296DC93CE93119713830283B8
:1021700080919B0190919C019583848380919D0126
:1021800090919E019783868380919F019091A001F9
:10219000918780878091A1019091A2019387828786
:1021A0008091A3019091A401958784870E941A4988
:1021B0008DB79EB70E960FB6F8949EBF0FBE8DBF1B
:1021C00081E060E0AE010E946701ADB7BEB71A972B
:1021D0000FB6F894BEBF0FBEADBFEDB7FEB73196D8
:1021E0001296DC93CE93119781E191E093838283E1
:1021F0008091A5019091A601958384838091A70188
:102200009091A801978386838091A9019091AA015A
:10221000918780870E941A498DB79EB70A960FB69C
:10222000F8949EBF0FBE8DBF82E060E0AE010E94B9
:102230006701DF91CF911F910F910895EF92FF9267
:102240000F931F93CF93DF937C01EB010E94ED2549
:1022500085E690E063E070E00E944126009709F473
:1022600061C003E010E080E062E10E942048882322
:10227000D1F30E945A4680E063E10E9420488823FF
:10228000D1F380E090E0FC01EE0FFF1F9C0163E0C2
:10229000220F331F6A95E1F7E20FF31FEF53F54F5B
:1022A0002081318121153105A1F1228133812E193F
:1022B0003F0937FF03C0309521953F4F2931310544
:1022C00044F5FC01EE0FFF1F9C0143E0220F331F7A
:1022D0004A95E1F7E20FF31FEF53F54F2481358163
:1022E0002C1B3D0B37FF03C0309521953F4F243108
:1022F00031057CF4FC01EE0FFF1F23E0880F991FCE
:102300002A95E1F7E80FF91FEF53F54F208131814E
:102310000BC001968930910509F0B5CF01501040EE
:1023200009F0A1CF20E030E0C901DF91CF911F91EA
:102330000F91FF90EF9008952F923F924F925F92EE
:102340006F927F928F929F92AF92BF92CF92DF92C5
:10235000EF92FF920F931F93DF93CF93CDB7DEB72A
:10236000A0970FB6F894DEBF0FBECDBF0E94E70066
:102370008EE161E00E94B1008EE165E00E94B10053
:102380008EE164E10E94B1008EE160E10E94B10043
:102390000E9406488BE00E943E488AE00E942F2659
:1023A00080E063E10E9420488823D1F32FEF3FE7CC
:1023B00046E1215030404040E1F700C0000080E09D
:1023C00090E0DC0180939E0A90939F0AA093A00A5C
:1023D000B093A10A20919E0A30919F0A4091A00AD1
:1023E0005091A10A20939A0A30939B0A40939C0A29
:1023F00050939D0A20919A0A30919B0A40919C0A21
:1024000050919D0A2093960A3093970A4093980A18
:102410005093990A8093AA0A9093AB0AA093AC0AAE
:10242000B093AD0A8091AA0A9091AB0AA091AC0A30
:10243000B091AD0A8093A60A9093A70AA093A80A28
:10244000B093A90AC39A4FEF5FE764E04150504050
:102450006040E1F700C00000C39819E4812E1BE042
:10246000912EB49914C0809158039091590301970B
:102470009093590380935803C39A6FEF7FE784E0EA
:10248000615070408040E1F700C00000C398B699E9
:1024900014C0809158039091590301969093590369
:1024A00080935803C39A8FEF9FE7A4E08150904038
:1024B000A040E1F700C00000C398B59928C60E946B
:1024C000D801C39A2FEF3FE744E02150304040400D
:1024D000E1F700C00000C398809158039091590320
:1024E0008230910509F4BCC0833091051CF497FF3C
:1024F0000EC00DC68430910509F4CEC1843091051B
:102500000CF4B8C18530910509F001C6E4C50F2E61
:10251000F0E04F2EF0E05F2EF0E06F2EF0E07F2E27
:10252000F02D4092A8035092A9036092AA037092E2
:10253000AB0340928E0350928F036092900370928F
:102540009103BAE52B2E312C3092CB032092CA0393
:1025500082E090E066ED70E044E050E022EC30E094
:1025600005E010E0A3EAEA2EF12CF2E3CF2ED12C05
:10257000EEE1AE2EB12C0E94FA404092A803509298
:10258000A9036092AA037092AB0340928E0350920B
:102590008F0360929003709291033092CB0320924C
:1025A000CA0381E090E06DE770E044E050E022EC87
:1025B00030E0B2E3AB2EB12C0E94FA401092CB0374
:1025C0001092CA0340929E0A50929F0A6092A00AFB
:1025D0007092A10A80919E0A90919F0AA091A00AF0
:1025E000B091A10A80939A0A90939B0AA0939C0AA7
:1025F000B0939D0A80919A0A90919B0AA0919C0A9F
:10260000B0919D0A8093960A9093970AA093980A96
:10261000B093990A4092AA0A5092AB0A6092AC0A0F
:102620007092AD0A8091AA0A9091AB0AA091AC0A6F
:10263000B091AD0A8093A60A9093A70AA093A80A26
:10264000B093A90A60E070E080EA92EC44E650E0C2
:102650000E94823A80EB9FEF9093CB038093CA0352
:10266000ACE56A2EA4E07A2E4424552484E590E05B
:1026700065E570E00E941E11D3018D939C9387E75E
:1026800090E063E270E00E941E11F3019383828365
:102690008CE090E063E070E045E050E023E030E063
:1026A00001E110E0EE24FF24F2E3CF2ED12CECE385
:1026B000AE2EB12C0E94C131F2E04F16510419F434
:1026C00042E350E002C048E250E08AE090E063E07C
:1026D00070E025E030E001E110E0EE24FF24B2E3F9
:1026E000CB2ED12CA4ECAA2EAFEFBA2E0E94C13172
:1026F0000894411C511C2CEF3FEF620E731E33E017
:102700004316510409F0B2CF0E94D8014DB75EB70D
:10271000485050400FB6F8945EBF0FBE4DBFEDB7A6
:10272000FEB73196ADB7BEB712969C928E921197B6
:102730002AE131E03383228380915404909155043F
:102740009583848380915604909157049783868360
:102750000E941A494DB75EB7485F5F4F0FB6F894B5
:102760005EBF0FBE4DBF80E060E0A4010E94670124
:102770006DB77EB7685070400FB6F8947EBF0FBE3D
:102780006DBFEDB7FEB73196ADB7BEB712969C924E
:102790008E9211972AE131E033832283809158048D
:1027A000909159049583848380915A0490915B049D
:1027B000978386830E941A494DB75EB7485F5F4F83
:1027C0000FB6F8945EBF0FBE4DBF81E060E0A4017C
:1027D0000E9467016DB77EB7685070400FB6F894DD
:1027E0007EBF0FBE6DBFEDB7FEB73196ADB7BEB7BA
:1027F00012969C928E9211972AE131E033832283C4
:1028000080915C0490915D049583848380915E0443
:1028100090915F04978386830E941A494DB75EB7F3
:10282000485F5F4F0FB6F8945EBF0FBE4DBF82E0AA
:1028300060E0A4010E9467018091580390915903C0
:10284000009731F00E94ED25B59BFECFB599FECFE4
:1028500060E070E080E291E44FE050E00E94823A54
:102860008EE790E06EE070E00E941E119093AA0146
:102870008093A90160E070E080EA91E44EE150E0CD
:102880000E94823A88E990E062E370E00E941E11A3
:102890009093A8018093A70160E070E08CE092E43F
:1028A00048E250E00E94823A1092CB031092CA0391
:1028B00083EA90E06EE270E00E941E119093A20104
:1028C0008093A10180E590E068E770E00E941E110E
:1028D0009093A6018093A50160E070E080E791E409
:1028E00044E150E00E94823A1092CB031092CA0356
:1028F0000E94ED2581E991E00E945D108FEF9FEF2E
:102900009093D3038093D2038091A5019091A60167
:10291000009749F08091A9019091AA01009749F48C
:102920008CE090E002C08AE090E09093D303809323
:10293000D2038091D2039091D30397FF06C08BE01E
:1029400090E09093D3038093D2038091D20390912F
:10295000D3030A978230910508F057C08CE090E0CD
:1029600061E070E045E050E023E030E001E110E09C
:10297000EE24FF24F2E3CF2ED12CECE3AE2EB12CCB
:102980000E94C1318AE090E061E070E044E150E0F3
:1029900025E030E0AA24BB240E94C13180E090E011
:1029A0006EE170E046EA5FEF28E230E00EEC1FEFE8
:1029B000BCE3EB2EF12CA2E8CA2ED12C0E94573892
:1029C00086E090E090935304809352040E942B027F
:1029D0008091D2039091D3038B30910541F481E033
:1029E00090E06AE070E04BE050E00E94640E80915D
:1029F000A1019091A201009719F082E090E002C03D
:102A000080E090E06AE070E098C08AE090E060E0EA
:102A100070E046EF5FEF22E330E00CE310E00E944D
:102A2000B73486EF9FEF9093CB038093CA0388E778
:102A300090E060E070E040E050E02CE330E000E047
:102A400010E00E94482B80E090E067E070E048EEE4
:102A500053E020E030E0F4E1EF2EF12CECE3CE2E59
:102A6000D12CAA24BB240E94412D8AE090E060E092
:102A700070E04AE050E022E330E004EC1FEF0E94F7
:102A8000B7341092CB031092CA038CE090E068E058
:102A900070E045E050E023E030E008E110E0EE2493
:102AA000FF24B2E3CB2ED12CACE3AA2EB12C0E9492
:102AB000C1318AE090E068E070E044E150E025E058
:102AC00030E0AA24BB240E94C13180E090E06EE196
:102AD00070E04AE550E028E230E00EEC1FEFFCE346
:102AE000EF2EF12CE2E8CE2ED12C0E94573862E076
:102AF00070E070935304609352040E942B02809103
:102B0000A7019091A801009719F082E090E002C01F
:102B100080E090E06CE070E04BE050E00E94640EDA
:102B20008091A1019091A201009719F082E090E0BC
:102B300002C080E090E06BE070E048E050E00E946E
:102B4000640E88E090E090931B0580931A058091B5
:102B500052049091530461E070E00E94400CAC017B
:102B600080E090E060E070E02CE330E002E810E00C
:102B70000E94482B0E942B0281E090E09093530426
:102B8000809352048FE790E060E870E00E941E118D
:102B900090939C0180939B018091520490915304E7
:102BA00060E070E00E94400CAC0180E090E060E0EA
:102BB00070E02CE330E00E94482B109253041092F6
:102BC000520484E390E066E270E00E941E1190934C
:102BD00092018093910183ED90E065E270E00E94A4
:102BE0001E11909394018093930186E890E06BE42A
:102BF00070E00E941E11909398018093970180913C
:102C000052049091530467E070E00E94400CAC01C4
:102C100080E090E060E070E02CE330E00E94482B20
:102C20000E942B0287E090E090935304809352041B
:102C300086E890E06DE070E00E941E11909396018E
:102C4000809395018BE890E068E270E00E941E118D
:102C500090939A01809399018AE890E069E770E087
:102C60000E941E1190939E0180939D0180915204B9
:102C70009091530466E070E00E94400CAC0180E04B
:102C800090E060E070E02CE330E00E94482B86E0AA
:102C900090E0909353048093520489E390E064E2BF
:102CA00070E00E941E119093A00180939F018AE81A
:102CB00090E067E470E00E941E119093A40180935D
:102CC000A30181E991E00E945D10809158039091E9
:102CD0005903009731F00E94ED25B59BFECFB599C1
:102CE000FECF10927B0310927A030E94ED25E1E95A
:102CF000F1E080E090E0208131812115310519F467
:102D0000918380830197329671E0EB3AF70799F748
:102D1000EE24FF2454E1452E55E0552EF0927B031E
:102D2000E0927A03A0E8B5E0F2011D923197E9F74D
:102D300000E010E0109379030093780310925D0394
:102D400010925C0360911A0570911B058FEF9FEF45
:102D500040E050E021E931E00E94810980915C036C
:102D600090915D03009729F40D5F1F4F0333110508
:102D700009F781E991E00E945D1004ED13E06624FB
:102D800077242BC0D8016D917D918D01DB01AA0FB5
:102D9000BB1FAF56BE4F8D919C9111979093D1035D
:102DA0008093D0030894611C711CF801408151810B
:102DB000FA01EE0FFF1FEF56FE4F20813181119671
:102DC0003C932E9391838083009719F082E090E0EA
:102DD00002C080E090E00E94640EE0917803F091E0
:102DE00079036E167F0674F2EE0FFF1FEC52FC4F54
:102DF0008081918190931B0580931A050894E11CB2
:102E0000F11CF2E0EF16F10409F088CF81E090E0C8
:102E10009093770380937603909373038093720368
:102E2000909363038093620390935F0380935E03A8
:102E300000E010E01093950A0093940A10925D034D
:102E400010925C0360911A0570911B058FEF9FEF44
:102E500040E050E021E931E00E941B0B80915C03CF
:102E600090915D03009729F00AE714E0EE24FF2417
:102E700054C00F5F1F4F04311105E1F6F5CF81E912
:102E800091E00E945D10D80112966D917C9113978C
:102E90008D919C9141E951E00E94DB0AE091780319
:102EA000F0917903EE0FFF1FEE52FC4F60817181AC
:102EB00070931B0560931A05F801408151813A0116
:102EC000660C771C21E931E0620E731ED3018D91EF
:102ED0009C9111979093D1038093D0030280F3814A
:102EE000E02DEE0FFF1FE20FF31F208131812D93A4
:102EF0003C939183808380E090E00E942310F8014E
:102F0000608171814281538181E090E00E942310B1
:102F10000894E11CF11C0C5F1F4F8091940A909162
:102F2000950AE816F9060CF4AACF81E991E00E940F
:102F30005D100E94ED25DE011996EDE8F2E088E1D2
:102F400001900D928150E1F73E010894611C711CC3
:102F5000D30180E090E029C0F901E40FF51FEE0FE6
:102F6000FF1F81E090E08C0F9D1FE80FF91F008587
:102F70001185F801EE0FFF1FEC5AFB4F8081918104
:102F80008E159F0539F4CB011182108211961C9386
:102F90000E9306C04F5F5F4F46305105E9F6CB01F7
:102FA000019612968430910509F19C01359527957B
:102FB000F901EE0FFF1F03E0220F331F0A95E1F71F
:102FC000E20FF31FEE0FFF1FEF56FE4FE080F18080
:102FD00040E050E0BC01617070709B01220F331F14
:102FE000260F371F220F331FBC01B6CF0E94D80116
:102FF00009811A81ADB7BEB71C970FB6F894BEBF52
:103000000FBEADBFEDB7FEB7319612969C928E9271
:10301000119720E231E033832283158304838B816F
:103020009C81978386838D819E81918780878F8104
:103030009885938782870E941A494DB75EB7445F8F
:103040005F4F0FB6F8945EBF0FBE4DBF81E061E0E9
:10305000A4010E9467018091580390915903009741
:1030600031F00E94ED25B59BFECFB599FECFC8018A
:1030700062E070E00E94C64FBC0180911A059091F9
:103080001B050E946E0C00E010E0D301ED90FD9056
:103090003D01C7010E9410060330110521F0F30124
:1030A0004081518102C040E050E0C801B7010E9458
:1030B000CF020F5F1F4F0430110539F70E94ED2535
:1030C000C39A2FEF3FEF4CE2215030404040E1F7F0
:1030D00000C00000C39888E090E060E070E00E94CB
:1030E0006E0C8091580390915903009731F00E9423
:1030F000ED25B59BFECFB599FECF88E090E060E06E
:1031000070E00E946E0CB599FECFB59BFECF80910A
:10311000580390915903009709F442C040919A03D3
:1031200030919903209198039091A00380919F037F
:103130006DB77EB76E5070400FB6F8947EBF0FBE6D
:103140006DBFEDB7FEB73196ADB7BEB712969C9284
:103150008E9211976CE271E07383628344831582CF
:103160003683178220871186928713868487158677
:103170000E941A498DB79EB70E960FB6F8949EBF5F
:103180000FBE8DBF80E060E0A4010E946701309116
:103190009B0320919C0390919D0380919E033EC0D0
:1031A0004091AE033091AD032091AC039091B403F4
:1031B0008091B303ADB7BEB71E970FB6F894BEBFEC
:1031C0000FBEADBFEDB7FEB7319612969C928E92B0
:1031D00011976CE271E073836283448315823683B6
:1031E00017822087118692871386848715860E940E
:1031F0001A498DB79EB70E960FB6F8949EBF0FBEB4
:103200008DBF80E060E0A4010E9467013091AF03B0
:103210002091B0039091B1038091B203ADB7BEB7D6
:103220001C970FB6F894BEBF0FBEADBFEDB7FEB78B
:10323000319612969C928E92119745E451E05383F9
:103240004283348315822683178290871186828772
:1032500013860E941A496DB77EB7645F7F4F0FB621
:10326000F8947EBF0FBE6DBF81E060E0A4010E94B4
:103270006701809158039091590397FF03C090957F
:1032800081959F4F69E070E00E94C64F90935B0369
:1032900080935A030E94951D80915A0366E60E940E
:1032A0002048682E80915A0367E60E942048E82E45
:1032B00000915A0340905B03802F68E60E942048EB
:1032C000ADB7BEB71C970FB6F894BEBF0FBEADBF6B
:1032D000EDB7FEB7319612969C928E9211972DE51E
:1032E00031E0338322830483458266821782E0863D
:1032F0001186828713860E941A494DB75EB7445FD4
:103300005F4F0FB6F8945EBF0FBE4DBF82E060E026
:10331000A4010E9467014091B70A5091B80A209118
:10332000B90A3091BA0AC090B50AD090B60AE090B6
:103330006F0BF090700B6090430B7090440B4090BB
:10334000BF0A5090C00A2090B30A3090B40A60912E
:10335000A60A7091A70A8091A80A9091A90AADB710
:10336000BEB754970FB6F894BEBF0FBEADBF0DB732
:103370001EB70F5F1F4F12969C928E921197E0E737
:10338000F1E0D8011396FC93EE93129715965C9397
:103390004E93149717963C932E9316971996DC929A
:1033A000CE9218971B96FC92EE921A971D967C92DD
:1033B0006E921C971F965C924E921E9751963C926D
:1033C0002E9250970E94314AF801738B628B0E94B3
:1033D0001A492DB73EB72C5E3F4F0FB6F8943EBF4B
:1033E0000FBE2DBF83E060E0A4010E94670100D002
:1033F00000D000D0EDB7FEB73196ADB7BEB712968C
:103400009C928E92119786E891E0938382838091BB
:10341000580390915903958384830E941A49EDB70C
:10342000FEB736960FB6F894FEBF0FBEEDBF83E031
:1034300060E1A4010E94670114C890E0FC01B0960D
:10344000FE2FEE2720812093AE0A20FDFBCF889629
:10345000B82FAA278C9190819093AE0A90FDFBCF54
:10346000089590E08096F82FEE2780818093AE0A31
:1034700080FDFBCF608380818093AE0A80FDFBCF0F
:10348000089580E061E00E94311A82E061E00E94CC
:10349000311A81E061E00E94311A0895A82FB0E04E
:1034A000FD01B096FE2FEE2780818093AE0A80FD4D
:1034B000FBCF9896BA2FAA27872F992787FD9A9531
:1034C0008C9380818093AE0A80FDFBCF6C938081CA
:1034D0008093AE0A80FDFBCF08951F93CF93DF93B7
:1034E000182F80E06FE10E94311AC1E0D0E002C0E5
:1034F000CC0FDD1F1A95E2F780E0BE010E944E1A44
:1035000081E06FE10E94311A81E0BE010E944E1AF3
:1035100082E06FE10E94311A82E0BE010E944E1AE1
:1035200080E061E00E94311A82E061E00E94311A7D
:1035300081E061E00E94311ADF91CF911F910895DF
:10354000DF92EF92FF920F931F93D82E7A018B0197
:103550009B01552737FD5095452FB9010E944E1A02
:103560008D2DB7010E944E1A1F910F91FF90EF9081
:10357000DF9008951F93182F60E00E94311A8CECA1
:103580009CE10197F1F700C00000812F6DE10E94DE
:10359000311A812F60E070E00E944E1A1F91089549
:1035A000AF92BF92CF92DF92EF92FF920F931F9351
:1035B000CF93DF93F82E6B01EA018901AA24A3942B
:1035C0006115710509F4AA24BB24B394209709F46A
:1035D000BB24EE24E3940115110509F4EE248F2D8C
:1035E0006EE10E94311A6B2D70E0660F771F660F37
:1035F000771F8A2D90E043E0880F991F4A95E1F7E5
:10360000682B792B8E2D90E0880F991F682B792BD2
:103610008F2D0E944E1AAA2021F08F2DB6010E94F4
:103620004E1ABB2021F08F2DBE010E944E1AEE20B3
:1036300021F08F2DB8010E944E1A8F2D64E00E9458
:10364000311ADF91CF911F910F91FF90EF90DF9092
:10365000CF90BF90AF9008958F929F92AF92BF92FC
:10366000CF92DF92EF92FF920F931F93CF93DF934E
:10367000F82E4B016A01E901AA24A3946115710592
:1036800009F4AA24BB24B394C114D10409F4BB24C3
:10369000EE24E394209709F4EE248F2D6EE10E942E
:1036A000311A6A2D70E0A3E0660F771FAA95E1F743
:1036B00061608B2D90E0880F991F880F991F682BF0
:1036C000792B8E2D90E0880F991F682B792B8F2DE9
:1036D0000E944E1AAA2021F08F2DB4010E944E1A8A
:1036E000BB2021F08F2DB6010E944E1AEE2021F052
:1036F0008F2DBE010E944E1A8F2DB8010E944E1AC6
:103700008F2D64E00E94311ADF91CF911F910F91AC
:10371000FF90EF90DF90CF90BF90AF909F908F90F1
:103720000895DF92EF92FF920F931F93D82E7A01A4
:103730008B016FE10E94311A8D2D60E270E00E94D2
:103740004E1A8D2DB801A7010E94A01A1F910F914A
:10375000FF90EF90DF90089580E060E170E040E03E
:1037600050E020E430E00E94D01A81E060E170E097
:1037700040E050E020E430E00E94D01A82E060E1B6
:1037800070E040E050E020E430E00E94D01A80E099
:103790004FEF5FEF6FEF7FE30E94911B81E04FEFF0
:1037A0005FEF6FEF7FE30E94911B82E04FEF5FEFCF
:1037B0006FEF7FE30E94911B0895DF92EF92FF92DB
:1037C0000F931F93DF93CF930F92CDB7DEB7D82E11
:1037D0007A018B0177FF0AC010950095F094E09470
:1037E000E11CF11C011D111D90E001C091E08D2D27
:1037F0006FE199830E94311A9981792F7295707FB8
:1038000060E0686078608D2D0E944E1A8D2DB801A1
:10381000A7010E94A01A0F90CF91DF911F910F91E5
:10382000FF90EF90DF900895AF92BF92CF92DF921A
:10383000EF92FF920F931F93DF93CF93CDB7DEB735
:103840002C970FB6F894DEBF0FBECDBF59016A01A9
:103850000E94644A69837A838B839C83C601B50185
:103860000E94644A6D837E838F839887C801B70165
:103870000E94644A69877A878B879C878E010F5FD5
:103880001F4FEE24F801608171818281938121E7CD
:103890003CEA4BE85EE30E94284C9B01AC01F80136
:1038A00021933193419351938F0120E030E040E820
:1038B00057E40E94284C0E94314AAB01BC018E2D76
:1038C0000E94DD1BE394FE2DF330E1F60E94411AC5
:1038D0002C960FB6F894DEBF0FBECDBFCF91DF910F
:1038E0001F910F91FF90EF90DF90CF90BF90AF901E
:1038F00008954F925F926F927F928F929F92AF92B4
:10390000BF92CF92DF92EF92FF920F931F93982E68
:10391000862E29013A016FE10E94311A682D70E06C
:103920006A62892D0E944E1A892DB301A2010E945C
:10393000A01A892DB801A7010E94A01A892DB601ED
:10394000A5010E94A01A1F910F91FF90EF90DF90A8
:10395000CF90BF90AF909F908F907F906F905F902F
:103960004F9008959F92AF92BF92CF92DF92EF92C5
:10397000FF920F931F93DF93CF9300D00F92CDB799
:10398000DEB71ABA15BA8FEF84BB1092650083E0D8
:103990008093640010E8A12EB4E8BB2E6E01089459
:1039A000C11CD11C85B3856085BB83E39BE2019775
:1039B000F1F785B38A7F85BBECECFCE13197F1F739
:1039C00000C00000809165008D7F80936500AB98FA
:1039D00085B3887F85BB99B39983A89A19B385B3BA
:1039E000887F826085BB09B3943C09F494C0943805
:1039F00009F491C015BA80E060E045EB52E00E9406
:103A0000670181E060E04BEB52E00E946701143CEB
:103A100009F481C0143809F47EC015BA80E060E072
:103A200045EB52E00E94670182E060E04BEC52E01F
:103A30000E946701043C09F46EC0043809F46BC0AD
:103A400015BA80E060E045EB52E00E94670183E038
:103A500060E04BED52E029C09E2C9C18892D6DE151
:103A60000E94311A892D60E070E00E944E1AF80120
:103A70008081F70181937F0100501F4FF3E20030F6
:103A80001F0751F78981803C99F0803889F085B70C
:103A90008F7385BF15BA80E060E04BEE52E00E9464
:103AA000670181E060E04BEB52E00E9467017ACF52
:103AB00080E060E041EF52E00E94670180E098B34F
:103AC000976098BB2FEF3FEB46E0215030404040DD
:103AD000E1F700C0000098B3987F98BB2FEF3FEB51
:103AE00046E0215030404040E1F700C000008F5FC9
:103AF000833029F70E94D8010F900F900F90CF913B
:103B0000DF911F910F91FF90EF90DF90CF90BF90CA
:103B1000AF909F900895A5BE82E080936D00B09213
:103B20006C00760100E010E297CF4F925F926F92A7
:103B30007F928F929F92AF92BF92CF92DF92EF923D
:103B4000FF920F931F93CF93DF9304E6802E912C67
:103B500084E00E947600982F80E0EC0185E00E94CE
:103B6000760090E08C2B9D2BB4010E94C64F8827D5
:103B700077FD8095982F0E94644AF62E072F182F04
:103B8000E92E462E572E682E792E63015201E894B5
:103B9000D7F8C601B50120E030E044E353E40E94C9
:103BA0008D4B1816ACF26091A20A7091A30A809115
:103BB000A40A9091A50A2F2D302F412F5E2D0E942F
:103BC000C249882309F4E5C06F2D702F812F9E2DE7
:103BD00020E030E0A9010E94C24987FF5DC06091EA
:103BE000A20A7091A30A8091A40A9091A50A20E0EC
:103BF00030E0A9010E948D4B18160CF04DC02091A9
:103C0000A20A3091A30A4091A40A5091A50A5F77B5
:103C1000C601B5010E944B4920E030E044E353E483
:103C20000E94C24987FF15C0A090A60AB090A70ABB
:103C3000C090A80AD090A90A2091A20A3091A30AA4
:103C40004091A40A5091A50A6F2D702F812F9E2DAF
:103C50001CC0A090A60AB090A70AC090A80AD09055
:103C6000A90A6091A20A7091A30A8091A40A909176
:103C7000A50A2F2D302F412F5E2D0E944A499B010E
:103C8000AC0160E070E084EB93E40E944A499B0140
:103C9000AC01C601B50169C0C301B20120E030E04A
:103CA000A9010E948D4B18160CF047C06091A20A22
:103CB0007091A30A8091A40A9091A50A20E030E0B7
:103CC000A9010E94C24987FF38C02091A20A309101
:103CD000A30A4091A40A5091A50A5F77C601B501D5
:103CE0000E944B4920E030E044E353E40E94C24983
:103CF00087FD23C0E090A60AF090A70A0091A80AC9
:103D00001091A90A2091A20A3091A30A4091A40A15
:103D10005091A50AC301B2010E944A499B01AC011E
:103D200060E070E084EB93E40E944A499B01AC019F
:103D3000C801B7010E944A491AC0E090A60AF09053
:103D4000A70A0091A80A1091A90A2091A20A30910D
:103D5000A30A4091A40A5091A50AC301B2010E948E
:103D60004A499B01AC01C801B7010E944B499B0124
:103D7000AC012093A60A3093A70A4093A80A509357
:103D8000A90A4092A20A5092A30A6092A40A7092D1
:103D9000A50ADF91CF911F910F91FF90EF90DF90D7
:103DA000CF90BF90AF909F908F907F906F905F90DB
:103DB0004F9008952F923F924F925F926F927F9211
:103DC0008F929F92AF92BF92CF92DF92EF92FF922B
:103DD0000F931F93DF93CF93CDB7DEB762970FB6E4
:103DE000F894DEBF0FBECDBF69837A838B839C833B
:103DF0002D833E834F8358873701480160E070E090
:103E000084E394E4A60195010E944A49162F072FE6
:103E1000F82EE92E8D819E81AF81B8858093AF0AFF
:103E20009093B00AA093B10AB093B20A89819A81A3
:103E3000AB81BC818093450B9093460BA093470BBD
:103E4000B093480BA092BB0AB092BC0AC092BD0AC4
:103E5000D092BE0AC601B50120E030E044E353E44D
:103E60000E94C249181684F0A8019701652F742F8B
:103E7000832F922F20E030E044EB53E40E944A4924
:103E8000162F072FF82EE92EA8019701652F702F06
:103E9000832F9E2D20E030E044EB52E40E944A49FB
:103EA00069877A878B879C87C401B30123EF36E645
:103EB0004FE55EE30E94284C6D877E878F87988B45
:103EC00080E090E036E9432E512C28E6222E21E0B6
:103ED000322E9A8B898BB201882777FD8095982F97
:103EE0000E94644A5B016C01C20188589F4FB10176
:103EF0000E94C64F2C01C601B501D801F7012B2F36
:103F0000302F4F2F5E2D0E944A4925E33AEF4EE8AD
:103F10005CE30E94284C0E94C6493B014C01C6014B
:103F2000B501B985AA85AB84DC842B2F3A2F4A2DA5
:103F30005D2D0E944A4925E33AEF4EE85CE30E947A
:103F4000284C0E94C6495B016C016D817E818F8186
:103F50009885A40193010E94284C3B014C01698182
:103F60007A818B819C81A60195010E94284C9B013E
:103F7000AC01C401B3010E944B49BD85AE85DF840D
:103F8000A8882B2F3A2F4D2D5A2D0E944A492FE6F3
:103F900032E143E856E40E94284C23E333E343E252
:103FA00050EC0E94284C0E94314AAB01BC01898927
:103FB0000E94DD1BA989BA891196BA8BA98BA330FF
:103FC000B10509F088CF0E94411A0E94951D6296A2
:103FD0000FB6F894DEBF0FBECDBFCF91DF911F911A
:103FE0000F91FF90EF90DF90CF90BF90AF909F9098
:103FF0008F907F906F905F904F903F902F9008959B
:104000002F923F924F925F926F927F928F929F92E8
:10401000AF92BF92CF92DF92EF92FF920F931F93D6
:10402000DF93CF93CDB7DEB72C970FB6F894DEBFF2
:104030000FBECDBF5B016C0139014A011701280198
:104040006091A60A7091A70A8091A80A9091A90A86
:104050002091AA0A3091AB0A4091AC0A5091AD0A66
:10406000E090A60AF090A70A0091A80A1091A90A68
:10407000E092AA0AF092AB0A0093AC0A1093AD0A40
:10408000E0909E0AF0909F0A0091A00A1091A10A68
:104090000E944A499B01AC01C801B7010E944A49EC
:1040A0009B01AC0120939E0A30939F0A4093A00A83
:1040B0005093A10AC601B50120E030E0A9010E9499
:1040C000C249882351F4C401B30120E030E0A901C2
:1040D0000E94C249882309F4D2C0C601B50120E07C
:1040E00030E048EC52E40E94C94969837A838B83AB
:1040F0009C83C401B30120E030E048EC52E40E940C
:10410000C9496D837E838F83988760919E0A7091E1
:104110009F0A8091A00A9091A10AA20191010E9498
:104120004A49F62E072F182FE92E8091960A909172
:10413000970AA091980AB091990A89879A87AB87C4
:10414000BC876F2D702F812F9E2D25E33AEF4EE80F
:104150005CE30E94284C0E94C6493B014C016F2D34
:10416000702F812F9E2D20E030E044EB52E40E941E
:104170004B4925E33AEF4EE85CE30E94284C0E944D
:10418000C6495B016C0159814A813B812C81652FB5
:10419000742F832F922FA40193010E94284C1B019E
:1041A0002C015D814E813F812885652F742F832FDF
:1041B000922FA60195010E94284C9B01AC01C201DF
:1041C000B1010E944B499B01AC0169857A858B85C1
:1041D0009C850E944B499B01AC012093960A309329
:1041E000970A4093980A5093990A20909A0A30901F
:1041F0009B0A40909C0A50909D0A6F2D702F812F32
:104200009E2D20E030E044EB52E40E944A4925E331
:104210003AEF4EE85CE30E94284C0E94C6497B01BD
:104220008C015D814E813F812885652F742F832FFE
:10423000922FA40193010E94284C5B016C015981CB
:104240004A813B812C81652F742F832F922FA801E7
:1042500097010E94284C9B01AC01C601B5010E9448
:104260004B499B01AC01C201B1010E944B499B012A
:10427000AC01E6E9FAE024833583468357832C9624
:104280000FB6F894DEBF0FBECDBFCF91DF911F9167
:104290000F91FF90EF90DF90CF90BF90AF909F90E5
:1042A0008F907F906F905F904F903F902F900895E8
:1042B0002F923F924F925F926F927F928F929F9236
:1042C000AF92BF92CF92DF92EF92FF920F931F9324
:1042D000DF93CF93CDB7DEB72E970FB6F894DEBF3E
:1042E0000FBECDBF180187019A8389837C836B83BE
:1042F000509541955F4F5E834D83309521953F4F9B
:1043000038872F83CE0101969A87898779E0472ED7
:10431000512C4C0E5D1E7C0166247724CC24DD24B8
:10432000D7016D917D917D01882777FD8095982F2C
:104330000E94644A4B015C01E894B7F8662D772D22
:104340008C2D9D2DA50194010E94C24987FF02C0BA
:1043500034016501E414F50419F7EE24FF24C101CA
:10436000AA2797FDA095BA2F8B879C87AD87BE871C
:10437000A985BA85AD90BD90BA87A9876B857C85E4
:104380008D859E850E94644A1B012C01B5018827FA
:1043900077FD8095982F0E94644A262D372D4C2D4D
:1043A0005D2D0E94C949A20191010E94284C9B01E8
:1043B000AC01F701EE0FFF1FEE0FFF1FE15AF44FA4
:1043C00020833183428353830894E11CF11CB4E0C1
:1043D000EB16F10469F6043611052CF401151105EC
:1043E00009F051C005C00436110511F00456104003
:1043F00091E0E92EF12C662D772D8C2D9D2D20E05E
:1044000030E048EC52E40E94284CA20191010E9445
:10441000C9490E94AF495B016C01970122503040AD
:10442000C80117FF03C0909581959F4FB7010E9467
:10443000C64F620F731F882777FD8095982F0E94C3
:10444000644A9B01AC01C601B5010E944B490E9420
:10445000314ACB012E960FB6F894DEBF0FBECDBF0A
:10446000CF91DF911F910F91FF90EF90DF90CF9050
:10447000BF90AF909F908F907F906F905F904F9084
:104480003F902F90089582E0E82EF12CB4CF2F9228
:104490003F924F925F926F927F928F929F92AF92D4
:1044A000BF92CF92DF92EF92FF920F931F93DF9311
:1044B000CF93CDB7DEB72E970FB6F894DEBF0FBE01
:1044C000CDBF7A8369836536710514F064567040F8
:1044D0004B0177FF04C088249924861A970AE0903C
:1044E000A403F090A503A7014F5F5F4F9C012E1915
:1044F0003F0900E010E05A01CC24B7FCC094DC2C4A
:10450000AB82BC82CD82DE821401442437FC40940D
:10451000542C6C01C818D908D886CF82C901AA27A3
:1045200097FDA095BA2F89879A87AB87BC877E872E
:104530006D873401F7FC34C0AD85BE85B7FD2DC055
:104540004801880C991C880C991CF401E15AF44F1D
:10455000A080B180C280D3806B817C818D819E815F
:104560000E94644A9B01AC01C601B5010E94284C1F
:104570005B016C01C201B1010E94644A9B01AC0164
:10458000C601B5010E94C9499B01AC01F401EF5875
:10459000F44F2083318342835383E614F70424F4D9
:1045A000ED85FE85F7FF13C09801220F331F220F00
:1045B000331FF901E15AF44F80819181A281B381C7
:1045C0002F58344FF90180839183A283B383AF8046
:1045D000B884AE14BF0494F549815A81453651051B
:1045E00068F14801880C991C880C991CF401E15A67
:1045F000F44FA080B180C280D38069857A858B8595
:104600009C850E94644A9B01AC01C601B5010E94D1
:10461000284C5B016C01C201B1010E94644A9B01FC
:10462000AC01C601B5010E94C9499B01AC01F4016E
:10463000EF58F44F20833183428353830F5F1F4F22
:104640000430110509F076CF2E960FB6F894DEBF30
:104650000FBECDBFCF91DF911F910F91FF90EF90D3
:10466000DF90CF90BF90AF909F908F907F906F9092
:104670005F904F903F902F90089581E090E00A9BCB
:1046800002C080E090E09093BA0A8093B90A81E07A
:1046900090E00B9B02C080E090E09093B60A80937C
:1046A000B50A81E090E00C9B02C080E090E090931E
:1046B000700B80936F0B81E090E0849B02C080E0E0
:1046C00090E09093B80A8093B70A81E090E0869BCF
:1046D00002C080E090E09093440B8093430B2091C4
:1046E000630081E090E023FD02C080E090E09093C1
:1046F000C00A8093BF0A2091630081E090E024FD0E
:1047000002C080E090E09093B40A8093B30A0895C9
:104710001F920F920FB60F920BB60F921124EF92C9
:10472000FF920F931F932F933F934F935F936F933A
:104730007F938F939F93AF93BF93EF93FF938FEFED
:104740008DBD80E78CBD60918E0370918F03809149
:104750009003909191032AE037ED43EA5CE30E94D5
:104760004B497B018C017F2D912F20E030E040E808
:104770005FE30E948D4B181624F4EE24FF2400E81A
:104780001FE38E2D9F2DA02FB12F80938E0390932A
:104790008F03A0939003B09391036091A80370914D
:1047A000A9038091AA039091AB032AE037ED43EA75
:1047B0005CE30E944B497B018C017F2D912F20E00F
:1047C00030E040E85FE30E948D4B181624F4EE249D
:1047D000FF2400E81FE38E2D9F2DA02FB12F809383
:1047E000A8039093A903A093AA03B093AB0360918D
:1047F00092037091930380919403909195032DEC13
:104800003CEC4CE45DE30E944B49F62EE72E8C0114
:10481000A701652F742F912F20E030E040E85FE37F
:104820000E948D4B181624F4FF24EE2400E81FE3A9
:10483000A701852F9E2DA02FB12F809392039093D7
:104840009303A0939403B09395030E943D2380911A
:10485000B90A9091BA0A0097B1F080918C039091B7
:104860008D03009781F480919603909197030196B0
:10487000909397038093960381E090E090938D034B
:1048800080938C0310C08091B90A9091BA0A009766
:1048900051F480918C0390918D03009721F0109238
:1048A0008D0310928C038091B50A9091B60A0097FF
:1048B00031F18091C2039091C303009701F580917B
:1048C000CC039091CD0301969093CD038093CC03BC
:1048D00021E030E03093C3032093C20380915D0B4D
:1048E00090915E0BFC01EE0FFF1FE55EF44F3183EC
:1048F0002083019690935E0B80935D0B10C0809196
:10490000B50A9091B60A009751F48091C203909134
:10491000C303009721F01092C3031092C203809149
:104920006F0B9091700B0097B1F08091BE03909146
:10493000BF03009781F48091BC039091BD03019661
:104940009093BD038093BC0381E090E09093BF03FC
:104950008093BE0310C080916F0B9091700B0097F5
:1049600051F48091BE039091BF03009721F0109203
:10497000BF031092BE038091B70A9091B80A0097C6
:10498000B1F08091BA039091BB03009781F48091BC
:10499000C4039091C50301969093C5038093C4030B
:1049A00081E090E09093BB038093BA0310C08091A4
:1049B000B70A9091B80A009751F48091BA03909188
:1049C000BB03009721F01092BB031092BA038091B1
:1049D000430B9091440B0097B1F08091A603909106
:1049E000A703009781F48091C6039091C7030196B5
:1049F0009093C7038093C60381E090E09093A70350
:104A00008093A60310C08091430B9091440B0097B4
:104A100051F48091A6039091A703009721F0109282
:104A2000A7031092A6038091BF0A9091C00A009735
:104A300041F18091C0039091C103009711F58091DD
:104A4000B8039091B90301969093B9038093B8038A
:104A500081E090E09093C1038093C00380915D0B4F
:104A600090915E0BFC01EE0FFF1FE55EF44F22E01C
:104A700030E031832083019690935E0B80935D0B31
:104A800010C08091BF0A9091C00A009751F48091A4
:104A9000C0039091C103009721F01092C1031092BE
:104AA000C0038091B30A9091B40A0097B1F080914D
:104AB000A2039091A303009781F48091CE0390917B
:104AC000CF0301969093CF038093CE0381E090E0D3
:104AD0009093A3038093A20310C08091B30A909196
:104AE000B40A009751F48091A2039091A303009718
:104AF00021F01092A3031092A2038091A40390913D
:104B0000A503009729F001969093A5038093A40331
:104B100080917C0390917D03009749F080917C0304
:104B200090917D03019790937D0380937C03809106
:104B3000C8039091C903009749F08091C8039091F0
:104B4000C90301969093C9038093C8038091B6036B
:104B50009091B703009729F001969093B703809343
:104B6000B60380915D0B90915E0B8431910524F02A
:104B700010925E0B10925D0B6091450B7091460B8D
:104B80008091470B9091480B2091AF0A3091B00A69
:104B90004091B10A5091B20AE090BB0AF090BC0A71
:104BA0000091BD0A1091BE0A0E940020FF91EF9172
:104BB000BF91AF919F918F917F916F915F914F9135
:104BC0003F912F911F910F91FF90EF900F900BBE8F
:104BD0000F900FBE0F901F901895AF92BF92CF927B
:104BE000DF92EF92FF920F931F9360E070E0CB0192
:104BF0009B01AC017B018C015B016C010E94DA1E00
:104C00001F910F91FF90EF90DF90CF90BF90AF90EA
:104C10000895FC01E856FC4F808190E06817790701
:104C20006CF08091B6039091B703009759F481E03E
:104C300090E09093B7038093B60304C01092B7033B
:104C40001092B60321E030E08091B6039091B70353
:104C50008A30910514F420E030E0C90108951F93D3
:104C6000182F81E10E943E01812F0E943E01809118
:104C700056038823E1F30E942B01882391F31F91AF
:104C800008954F925F926F927F928F929F92AF9210
:104C9000BF92CF92DF92EF92FF920F931F93CF9329
:104CA000DF938C013B01C1E0D0E0CC24DD248FEF09
:104CB000A82EB12C88249924EE24FF2444245524C2
:104CC000401A510A14C0602F17FD642D8C2F0E94CA
:104CD000204890E0C816D90614F46C017E018A15AC
:104CE0009B0524F4009711F05C014E0121966C168F
:104CF0007D064CF7101611060CF07401C701DF9108
:104D0000CF911F910F91FF90EF90DF90CF90BF90C8
:104D1000AF909F908F907F906F905F904F9008958D
:104D20006F927F928F929F92AF92BF92CF92DF92BB
:104D3000EF92FF920F931F93D62EC72EB82EA92E57
:104D4000922E832E742E652E6E2D7F2D802F912F07
:104D5000D601F5012B2F3A2F4F2F5E2F0E948D4B3E
:104D60001816ACF06E2D7F2D802F912FD401F301FA
:104D70002B2F3A2F4F2F5E2F0E94C24987FF03C06F
:104D80006401530104C0DE2CCF2CB02EA12EA6014D
:104D90009501652F7C2D832F9A2D1F910F91FF90E8
:104DA000EF90DF90CF90BF90AF909F908F907F90CB
:104DB0006F9008952F923F925F926F927F928F92A1
:104DC0009F92AF92BF92CF92DF92EF92FF920F939A
:104DD0001F93DF93CF93CDB7DEB728970FB6F89424
:104DE000DEBF0FBECDBF582E4B015A8349831092B0
:104DF000B7031092B60310927D0310927C0380914A
:104E00007C0390917D039093820B8093810B809122
:104E1000810B9091820B9093A5038093A40360E093
:104E200070E080E090E0DC018B01000F111F000FAB
:104E3000111F98012F58344FF90180839183A28369
:104E4000B3832081318142815381F801E15AF44FCB
:104E500020833183428353836F5F7F4F64307105BA
:104E600019F700D000D000D0EDB7FEB7319609E4B5
:104E70001BE0ADB7BEB712961C930E93119785E059
:104E800093E0938382838AE093E0958384830E94F6
:104E90001A49EDB7FEB736960FB6F894FEBF0FBEAF
:104EA000EDBF80E067E0A8010E9467011092C9038E
:104EB0001092C803852D66E60E942048A82EE09037
:104EC0009E0AF0909F0A0091A00A1091A10AB401D5
:104ED000882777FD8095982F0E94644AA801970142
:104EE0000E944B490E94314A4B018A189108882739
:104EF00077FD8095982F0E94644A5B016C01B40194
:104F0000882777FD8095982F0E94644A7B018C0149
:104F1000C40168E572E00E94C64F882777FD80953E
:104F2000982F0E94644A2FE832EC45E75EE30E9426
:104F30004B499B01AC01C801B7010E94284C9B0161
:104F4000AC01C601B5010E944B490E94314A1B01C8
:104F50008824992491E0692E712C3C822B821401C3
:104F600080917C0390917D030097D1F770927D032F
:104F700060927C03852D66E60E942048E82EFF247F
:104F8000852D67E60E94204838C00E94ED25852DBA
:104F900066E60E942048E82E852D67E60E9420489C
:104FA0002091C8033091C9032115310521F4709275
:104FB000C9036092C8032091C8033091C903F1E08E
:104FC0002F353F071CF00E94ED2512C1FF24E1148C
:104FD000F10499F020E030E0A9012093A803309378
:104FE000A9034093AA035093AB0320938E033093FD
:104FF0008F034093900350939103082F10E0E11426
:10500000F10421F40115110509F4BFCF4B815C8136
:105010004115510591F0E41AF50AB701882777FD8B
:105020008095982F0E94644A2DEC3CEC4CE45FE3A1
:105030000E94284C0E94314A1B0189819A81009765
:1050400019F04C01801A910AB101882777FD8095EB
:10505000982F0E94644A7B018C0160E070E088E434
:1050600092E420E030E048E452EC0E9490260E9456
:10507000314A1B01B401882777FD8095982F0E9443
:10508000644A7B018C0160E070E080E792E420E0FC
:1050900030E040E752EC0E9490260E94314A4B01DA
:1050A000A0909E0AB0909F0AC090A00AD090A10A3A
:1050B000B401882777FD8095982F0E94644A20913B
:1050C000A8033091A9034091AA035091AB030E9419
:1050D000284C2DEC3CEC4CE45FE30E94284C6D83A3
:1050E0007E838F839887B101882777FD8095982FDD
:1050F0000E94644A20918E0330918F034091900367
:10510000509191030E94284C7B018C016091CA034D
:105110007091CB03882777FD8095982F0E94644A71
:10512000A60195010E944B495B016C0160E070E0B3
:10513000CB012D813E814F8158850E94DA1E8091DE
:10514000A4039091A503009721F47092A5036092A7
:10515000A4038091A4039091A503A1E08F359A0741
:1051600054F42114310409F0FBCEC40101968330BC
:10517000910508F0F5CE1092B7031092B60380E0C7
:1051800090E0DC018093BB0A9093BC0AA093BD0A17
:10519000B093BE0A8091BB0A9091BC0AA091BD0A4F
:1051A000B091BE0A8093450B9093460BA093470B9A
:1051B000B093480B8091450B9091460BA091470B03
:1051C000B091480B8093AF0A9093B00AA093B10AB4
:1051D000B093B20A6091AF0A7091B00A8091B10A9F
:1051E0009091B20A0E94314A7093A5036093A40380
:1051F00028960FB6F894DEBF0FBECDBFCF91DF91DA
:105200001F910F91FF90EF90DF90CF90BF90AF90E4
:105210009F908F907F906F905F903F902F90089518
:105220002F923F925F926F927F928F929F92AF9256
:10523000BF92CF92DF92EF92FF920F931F93DF9373
:10524000CF93CDB7DEB760970FB6F894DEBF0FBE31
:10525000CDBF582E7A8369835C834B833E832D8335
:105260001092B7031092B60310927D0310927C0344
:1052700080917C0390917D039093820B8093810BAE
:105280008091810B9091820B9093A5038093A4034E
:1052900060E070E080E090E0DC018B01000F111F06
:1052A000000F111F98012F58344FF901808391830B
:1052B000A283B3832081318142815381F801E15A75
:1052C000F44F20833183428353836F5F7F4F643079
:1052D000710519F700D000D000D0EDB7FEB73196B8
:1052E00009E41BE0ADB7BEB712961C930E9311975D
:1052F00085E093E0938382838EE093E095838483BB
:105300000E941A49EDB7FEB736960FB6F894FEBF65
:105310000FBEEDBF80E067E0A8010E946701109218
:10532000C9031092C8038824992480E090E0662481
:10533000772431E0232E312C988B8F8780917C034A
:1053400090917D030097D1F730927D0320927C03EA
:10535000852D66E60E942048E82EFF24852D67E60D
:105360000E942048082F10E0B701CF84D8883BC0A6
:105370000E94ED25852D66E60E942048A82E852DE9
:1053800067E60E9420482091C8033091C903211587
:10539000310521F43092C9032092C8032091C8033B
:1053A0003091C903F1E02F353F071CF00E94ED2535
:1053B00057C16A2D70E06115710599F020E030E069
:1053C000A9012093A8033093A9034093AA03509303
:1053D000AB0320938E0330938F034093900350933D
:1053E0009103082F10E06115710521F401151105D5
:1053F00009F4BECFD88ACF864B815C814115510517
:1054000089F0641B750B882777FD8095982F0E9483
:10541000644A2DEC3CEC4CE45FE30E94284C0E9473
:10542000314A3B0189819A81009791F0E81AF90A83
:10543000B701882777FD8095982F0E94644A2AE952
:1054400039E949E15FE30E94284C0E94314A4B014F
:10545000AD81BE81109721F0A01BB10BB88BAF8737
:10546000B301882777FD8095982F0E94644A7B01BD
:105470008C0160E070E080EF91E420E030E040EFEC
:1054800051EC0E9490260E94314A3B01EF85F88939
:10549000BF01882777FD8095982F0E94644A7B0181
:1054A0008C0160E070E08CE592E420E030E04CE5B7
:1054B00052EC0E9490260E94314A788B6F87B4018B
:1054C000882777FD8095982F0E94644A7B018C0184
:1054D00060E070E088E492E420E030E048E452ECE0
:1054E0000E9490260E94314A4B01E0908E03F0907A
:1054F0008F030091900310919103B301882777FDEA
:105500008095982F0E94644AA80197010E94284C18
:105510002DEC3CEC4CE45FE30E94284C6F837887D1
:1055200089879A872F853889B901882777FD8095E3
:10553000982F0E94644A2091A8033091A9034091BA
:10554000AA035091AB030E94284C2DEC3CEC4CE498
:105550005FE30E94284C6B877C878D879E87B40110
:10556000882777FD8095982F0E94644AA8019701AB
:105570000E94284C7B018C016091CA037091CB037F
:10558000882777FD8095982F0E94644A5B016C0103
:105590006F81788589859A852B853C854D855E85CB
:1055A0000E94DA1E8091A4039091A503009721F434
:1055B0003092A5032092A4038091A4039091A503A7
:1055C00031E08F3593077CF46114710409F0B6CE95
:1055D0008F85988901968330910508F0AFCE8114AC
:1055E000910409F0ABCE1092B7031092B60380E09D
:1055F00090E0DC018093BB0A9093BC0AA093BD0AA3
:10560000B093BE0A8091BB0A9091BC0AA091BD0ADA
:10561000B091BE0A8093450B9093460BA093470B25
:10562000B093480B8091450B9091460BA091470B8E
:10563000B091480B8093AF0A9093B00AA093B10A3F
:10564000B093B20A6091AF0A7091B00A8091B10A2A
:105650009091B20A0E94314A7093A5036093A4030B
:1056600060960FB6F894DEBF0FBECDBFCF91DF912D
:105670001F910F91FF90EF90DF90CF90BF90AF9070
:105680009F908F907F906F905F903F902F900895A4
:105690002F923F924F925F926F927F928F929F9242
:1056A000AF92BF92CF92DF92EF92FF920F931F9330
:1056B000DF93CF93CDB7DEB72E970FB6F894DEBF4A
:1056C0000FBECDBF5C013B0158874F8319011A8380
:1056D00009830E94951D1092B7031092B603109291
:1056E0007D0310927C0380917C0390917D039093C5
:1056F000820B8093810B8091810B9091820B909310
:10570000A5038093A40360E070E080E090E0DC01FA
:105710009B01220F331F220F331FF901EF58F44F63
:1057200080839183A283B383E080F180028113811F
:10573000215A344FF901E082F182028313836F5FB3
:105740007F4F6430710521F700D000D000D0EDB755
:10575000FEB7319609E41BE0ADB7BEB712961C93B5
:105760000E93119785E093E09383828381E193E028
:10577000958384830E941A49EDB7FEB736960FB61B
:10578000F894FEBF0FBEEDBF80E067E0A8010E9465
:1057900067018091A60A9091A70AA091A80AB091EA
:1057A000A90A8B839C83AD83BE83C501B30140E00E
:1057B00050E020E030E08101E980FA800E94582129
:1057C000A114B10471F16114710459F1B101882778
:1057D00077FD8095982F0E94644A7B018C0160912F
:1057E0005F0B7091600B8091610B9091620B209127
:1057F000630B3091640B4091650B5091660B0E94D6
:105800009A4B9B01AC01C801B7010E94C9499B0199
:10581000AC015F77C801B7010E94284C0E94314A51
:105820001B01C501B3014F81588520E030E08101A3
:10583000E980FA800E9458219093820B8093810B1B
:10584000C1010A966AE070E00E94C64F20E030E095
:10585000CB01AA2797FDA095BA2F89879A87AB8796
:10586000BC873E872D8780917C0390917D030097B4
:10587000D1F7AD85BE851196BE87AD87E1E0F0E03A
:10588000F0937D03E0937C038091810B9091820BD8
:1058900069817A810E9447228D859E858A30910593
:1058A00061F48091A60A9091A70AA091A80AB091EC
:1058B000A90A8B839C83AD83BE83AF81B885109783
:1058C00009F047C0ED85FE85EB30F1050CF441C0D1
:1058D0002091A60A3091A70A4091A80A5091A90ADE
:1058E0006B817C818D819E810E944A49662EA72E04
:1058F000E82E092F69857A858B859C850E94644AEC
:105900009B01AC01662D7A2D8E2D902F0E94284C84
:10591000E62EF72E082F192FC801B7019F7720E038
:1059200030E040EF51E40E948D4B181654F40F2ED6
:10593000F0E0EF2EF0E0FF2EF0E00F2FF0E01F2F51
:10594000F02DE092790BF0927A0B00937B0B109381
:105950007C0B8091A4039091A503009731F481E022
:1059600090E09093A5038093A4036090710B7090D6
:10597000720B8090730B9090740B2090750B30908D
:10598000760B4090770B5090780BE090790BF0906D
:105990007A0B00917B0B10917C0B6091CA03709184
:1059A000CB03882777FD8095982F0E94644A5B017E
:1059B0006C01C401B301A20191010E94DA1E809121
:1059C000810B9091820B2091A4033091A503821743
:1059D00093070CF048CF1092B7031092B60380E003
:1059E00090E0DC018093BB0A9093BC0AA093BD0AAF
:1059F000B093BE0A8091BB0A9091BC0AA091BD0AE7
:105A0000B091BE0A8093450B9093460BA093470B31
:105A1000B093480B8091450B9091460BA091470B9A
:105A2000B091480B8093AF0A9093B00AA093B10A4B
:105A3000B093B20A6091AF0A7091B00A8091B10A36
:105A40009091B20A0E94314A7093A5036093A40317
:105A50002E960FB6F894DEBF0FBECDBFCF91DF916B
:105A60001F910F91FF90EF90DF90CF90BF90AF907C
:105A70009F908F907F906F905F904F903F902F906E
:105A800008952F923F924F925F926F927F928F92E2
:105A90009F92AF92BF92CF92DF92EF92FF920F93BD
:105AA0001F93DF93CF93CDB7DEB762970FB6F8940D
:105AB000DEBF0FBECDBF9A8789877C876B873A018F
:105AC00019011C830B83FE86ED86BA82A98210928F
:105AD000B7031092B60310927D0310927C0380915D
