:100000000C9455000C9474000C9474000C947400BF
:100010000C9474000C9474000C9474000C94740090
:100020000C9474000C9474000C9474000C94740080
:100030000C9474000C9474000C943B150C94740094
:100040000C9474000C9474000C9478370C94740025
:100050000C9474000C9474000C9474000C94740050
:100060000C9474000C9474000C9474000C94740040
:100070000C9474000C9474000C940A010C94740099
:100080000C9474000C9474000C94740005A84CCD6E
:10009000B2D44EB93836A9020C50B9918688083CC2
:1000A000A6AAAA2ABE000000803F11241FBECFEFDF
:1000B000D0E1DEBFCDBF12E0A0E0B1E0E0EFFDE7B0
:1000C00000E00BBF02C007900D92AE30B107D9F728
:1000D00013E0AEE0B2E001C01D92A736B107E1F730
:1000E0000E942B020C9420380C94000094EA909308
:1000F00074009091740097FFFCCF9AE09093730086
:1001000094E8909374009091740097FFFCCF8093D3
:10011000730084E8809374008091740087FFFCCFA3
:1001200084E98093740084EA809374008091740061
:1001300087FFFCCF8BE08093730084E8809374008A
:100140008091740087FFFCCF84E8809374008091D5
:10015000740087FFFCCF8091730094E99093740042
:10016000089594EA909374009091740097FFFCCFE7
:100170009AE09093730094E89093740090917400C7
:1001800097FFFCCF8093730084E880937400809184
:10019000740087FFFCCF6093730084E88093740041
:1001A0008091740087FFFCCF84E9809374000895E8
:1001B00010929B0088E980939A0086E080939D00CE
:1001C000109298008FE580939900789408951F937A
:1001D0001FEF1093730081E4809370000E94650EFE
:1001E0000E9464370E94D8000E945F0D1FBC85E00A
:1001F0008EBD1DBD80E78CBD84E087BF78948FE005
:1002000087BB81B3807F81BB84B3806F84BB18BA06
:100210001F9108951F920F920FB60F9211248F9382
:10022000DF93CF930F92CDB7DEB780919C00898387
:1002300080919B00887BE1F381E080930E028981AD
:1002400080930F020F90CF91DF918F910F900FBE8F
:100250000F901F901895DF93CF930F92CDB7DEB715
:1002600080910F02898310920F02F89410920E026F
:10027000789489810F90CF91DF91089590919B00A0
:1002800095FFFCCF80939C000895CF93DF93E4E724
:10029000F0E094EA9083A1EEB2E01197F1F700004C
:1002A000A3E7B0E09EE09C9394E89083C1EED2E097
:1002B0002197F1F700008C93908381EE92E00197F3
:1002C000F1F7000084E98083DF91CF910895EF92E8
:1002D000FF920F931F93DF93CF9300D0CDB7DEB77C
:1002E000082F162F843070F5643160F58BE1498357
:1002F0005A830E9445018CE40E944501812F0E948F
:100300004501802F0E94450180E791E00197F1F7B8
:1003100000C0E12EFF2449815A81042F152F06C009
:100320000E94450194EC9A95F1F700C0E4E1EE16C5
:10033000F10444F4F80181918F010894E11CF11C4F
:10034000882371F70F900F90CF91DF911F910F913C
:10035000FF90EF9008951F93DF93CF9300D0CDB718
:10036000DEB7182F8430F0F46431E0F48BE12A8397
:1003700069830E9445018CE40E9445016981862FB2
:100380000E944501812F0E94450180E791E001977D
:10039000F1F700C02A81822F0E94450194EC9A95C2
:1003A000F1F700C00F900F90CF91DF911F9108954A
:1003B0008BE10E94450183E40E94450186E696EEAA
:1003C000A0E081509040A040E1F70895EF92FF92A5
:1003D0000F931F93182FF62EE42E842F64E60E94AD
:1003E000C33E082F282F30E0205D3F4F442737FDC4
:1003F0004095542F812F6F2D0E94AB018CE9089FEF
:10040000002D11240E0D802F6AE00E94C33EE82EBD
:100410006F2D6F5F282F30E0205D3F4F442737FD61
:100420004095542F812F0E94AB016F2D6E5F26EFF8
:10043000E29E202D1124200F30E0205D3F4F442705
:1004400037FD4095542F812F0E94AB011F910F91D2
:10045000FF90EF9008952F923F924F925F926F928C
:100460007F928F929F92AF92BF92CF92DF92EF9244
:10047000FF920F931F93CF93DF930E94E7008EE1CB
:1004800061E00E94B1008EE165E00E94B1008EE162
:1004900064E10E94B1008EE160E10E94B1000E941F
:1004A0000F378BE00E94473782E30E94E21780E01B
:1004B00063E10E9429378823D1F32FEF3FE746E11C
:1004C000215030404040E1F700C0000080E090E063
:1004D000DC018093820290938302A0938402B09304
:1004E00085022091820230918302409184025091D2
:1004F000850220937E0230937F02409380025093C6
:10050000810220917E0230917F02409180025091C1
:10051000810220937A0230937B0240937C025093B5
:100520007D0280938E0290938F02A0939002B093ED
:10053000910280918E0290918F02A0919002B091D1
:10054000910280938A0290938B02A0938C02B093C5
:100550008D02C39A4FEF5FE764E041505040604026
:10056000E1F700C00000C3980F2EF0E04F2EF0E03E
:100570005F2EF0E06F2EF0E07F2EF02D0DE2802E4A
:1005800003E0902E10E0212E11E0312EB49914C01A
:100590008091100290911102019790931102809323
:1005A0001002C39A6FEF7FE784E061507040804093
:1005B000E1F700C00000C398B69914C08091100202
:1005C0009091110201969093110280931002C39AA8
:1005D0008FEF9FE7A4E081509040A040E1F700C07A
:1005E0000000C398B599FCC00E94D801C39A2FEFB0
:1005F0003FE744E0215030404040E1F700C00000B8
:10060000C398809110029091110297FDE9C0833048
:1006100091052CF08630910509F0E2C0DDC04092D2
:100620004A0250924B0260924C0270924D024092EC
:1006300030025092310260923202709233024AE5E7
:1006400050E050936D0240936C0286E090E066E9C2
:1006500070E044E050E024EC30E005E010E0BAEA5D
:10066000EB2EF12CAEE1CA2ED12CFEE1AF2EB12C37
:100670000E94583010926D0210926C0280E090E05F
:1006800064E170E04CEE5FEF2EE130E008E210E054
:100690000E9475268CEE9FEF90936D0280936C0202
:1006A00085E090E064E170E04EEC5FEF2EE130E039
:1006B00000E010E00E9475266AEB7FEF70936D02F8
:1006C00060936C028AE090E066EA7FEF4CEE5FEFA9
:1006D0002EE130E00E94112810926D0210926C02FF
:1006E0008CE090E068E070E045E050E023E030E02E
:1006F00002E110E0EE24FF24E8E2CE2ED12CAA2461
:10070000BB240E943F238AE090E068E070E045E06F
:1007100050E025E030E00E943F2388E090E068E070
:1007200070E048EE53E023E030E0B9E1EB2EF12C2D
:100730000E943F2381E090E069E270E046EA5FEFCB
:100740002EE130E000E010E00E9475268CE090E0A1
:1007500061E070E045E050E023E030E00BE010E0C5
:10076000EE24FF24A2E3AA2EB12C0E943F238AE0AC
:1007700090E061E070E04AE050E025E030E0AA243B
:10078000BB240E943F2381E090E061E270E046EAF2
:100790005FEF2EE130E000E010E00E9475268CE073
:1007A00090E061E070E045E050E023E030E00BE0F5
:1007B00010E0F2E3AF2EB12C0E943F238AE090E0DC
:1007C00061E070E04AE050E025E030E0EEECAE2E73
:1007D000EFEFBE2E0E943F23B599FECFB59BFECF13
:1007E00080911002909111020097F1F140913C022A
:1007F00030913B0220913A02909142028091410255
:10080000ADB7BEB71E970FB6F894BEBF0FBEADBF53
:10081000EDB7FEB73196CDB7DEB79A8289823382C3
:10082000228244831582368317822087118692871D
:100830001386848715860E9423382DB73EB7225F22
:100840003F4F0FB6F8943EBF0FBE2DBF80E060E073
:10085000A4010E94670130913D0220913E029091D7
:100860003F02809140023FC04091500230914F02C0
:1008700020914E0290915602809155026DB77EB73D
:100880006E5070400FB6F8947EBF0FBE6DBFEDB7CF
:10089000FEB73196ADB7BEB712969C928E92119765
:1008A0003382228244831582368317822087118601
:1008B00092871386848715860E942338CDB7DEB7CA
:1008C0002E960FB6F894DEBF0FBECDBF80E060E07D
:1008D000A4010E946701309151022091520290912F
:1008E0005302809154024DB75EB74C5050400FB642
:1008F000F8945EBF0FBE4DBFEDB7FEB73196ADB7F2
:10090000BEB712969C928E921197C9E1D1E0D38323
:10091000C28334831582268317829087118682874B
:1009200013860E9423382DB73EB7245F3F4F0FB682
:10093000F8943EBF0FBE2DBF81E060E0A4010E948D
:100940006701809110029091110297FF03C090956A
:1009500081959F4F69E070E00E94CF3E9093130213
:10096000809312020E94480F8091120266E60E9454
:100970002937E82E8091120267E60E942937082F56
:1009800010911202C0901302812F68E60E9429374D
:100990004DB75EB74C5050400FB6F8945EBF0FBED7
:1009A0004DBFEDB7FEB73196ADB7BEB712969C926C
:1009B0008E921197C2E3D1E0D383C2831483C582A0
:1009C000E682178200871186828713860E94233869
:1009D0002DB73EB7245F3F4F0FB6F8943EBF0FBE12
:1009E0002DBF82E060E0A4010E94670120919B027C
:1009F00030919C0240919D0250919E02E09199029B
:100A0000F0919A02A0905303B090540300912703F1
:100A100010912803E090A302F090A402C0909702E6
:100A2000D090980260918A0270918B0280918C0222
:100A300090918D02ADB7BEB754970FB6F894BEBF74
:100A40000FBEADBFCDB7DEB7219612969C928E92A7
:100A50001197A5E4B1E0BB83AA833D832C835F8318
:100A60004E83F987E887BB86AA861D870C87FF8699
:100A7000EE86D98AC88A0E943A397B8B6A8B0E949B
:100A80002338CDB7DEB764960FB6F894DEBF0FBE3D
:100A9000CDBF83E060E0A4010E94670100D000D0D8
:100AA00000D0EDB7FEB73196ADB7BEB712969C92A7
:100AB0008E921197CBE5D1E0D383C283809110024F
:100AC00090911102958384830E9423382DB73EB7FD
:100AD0002A5F3F4F0FB6F8943EBF0FBE2DBF83E095
:100AE00060E1A4010E94670151CDAF92BF92CF9205
:100AF000DF92EF92FF920F931F93CF93DF938CE0DF
:100B00000E9447378091100290911102009731F0B6
:100B10000E94A017B59BFECFB599FECF80E062E1A1
:100B20000E9429378823D1F30E94A33580E063E136
:100B30000E9429378823D1F3E0917402F091750265
:100B4000609176027091770240917802509179021B
:100B500080E090E0DC01AA0FBB1F9C0113E0220F94
:100B6000331F1A95E1F7A20FB31FAB55BD4F2D915F
:100B70003C9111972115310509F473C012962D91FE
:100B80003C9113972C53304037FF03C0309521958B
:100B90003F4F2931310584F4FC01EE0FFF1F9C010A
:100BA000A3E0220F331FAA95E1F7E20FF31FEB55E5
:100BB000FD4F0190F081E02DDC01AA0FBB1F9C01CD
:100BC00013E0220F331F1A95E1F7A20FB31FAB55A5
:100BD000BD4F12962D913C9113972B57304037FF04
:100BE00003C0309521953F4F293131057CF4DC015C
:100BF000AA0FBB1F9C0163E0220F331F6A95E1F728
:100C0000A20FB31FAB55BD4F6D917C91DC01AA0FB4
:100C1000BB1F9C0113E0220F331F1A95E1F7A20FAF
:100C2000B31FAB55BD4F12962D913C911397295B85
:100C3000304037FF03C0309521953F4F29313105B2
:100C400084F4DC01AA0FBB1F9C0113E0220F331FA9
:100C50001A95E1F7A20FB31FAB55BD4F4D915C91B3
:100C6000119701968930910509F074CFF0937502C0
:100C7000E093740270937702609376025093790246
:100C8000409378020E94D8018DB79EB70A970FB69D
:100C9000F8949EBF0FBE8DBFEDB7FEB73196CDE283
:100CA000D3E0ADB7BEB71296DC93CE93119782E630
:100CB00091E0938382838091740290917502958371
:100CC00084838091760290917702978386838091C6
:100CD000780290917902918780870E9423388DB79E
:100CE0009EB70A960FB6F8949EBF0FBE8DBF81E0E7
:100CF00061E0AE010E9467018091100290911102A3
:100D0000009731F00E94A017B59BFECFB599FECF9A
:100D10008091720290917302209174023091750259
:100D20002817390779F02091760230917702281739
:100D3000390741F02091780230917902281739075C
:100D400009F08FC10F2EF0E0CF2EF0E0DF2EF0E0A3
:100D5000EF2EF0E0FF2EF02DC0928202D09283029F
:100D6000E0928402F0928502809182029091830247
:100D7000A0918402B091850280937E0290937F02BD
:100D8000A0938002B093810280917E0290917F02B5
:100D9000A0918002B091810280937A0290937B02AD
:100DA000A0937C02B0937D02C0928E02D0928F02FB
:100DB000E0929002F092910280918E0290918F02C7
:100DC000A0919002B091910280938A0290938B023D
:100DD000A0938C02B0938D028BEF9FEF67E170E0E0
:100DE00040E050E02EE130E00CE810E00E94FB1CF7
:100DF00080917A0290917B02A0917C02B0917D0259
:100E000080917E0290917F02A0918002B091810238
:100E10002091740230917502809172029091730258
:100E20002817390709F04AC086EF9FEF60E070E0AD
:100E300040E050E024E130E002E810E00E94FB1CBA
:100E4000C0924A02D0924B02E0924C02F0924D02C4
:100E5000C0923002D0923102E0923202F09233021C
:100E6000809174029091750260E070E04DE850E06E
:100E700028E730E00E94C31A80E090E06FE070E065
:100E800040E050E02EE130E00CE810E00E94FB1C56
:100E900080E090E061EF7FEF40E050E02EE130E055
:100EA0000E94FB1C8AE090E060E070E040E050E0CF
:100EB00024E130E002E810E00E94FB1C8091760201
:100EC00090917702209172023091730282179307FA
:100ED00089F520E030E0A90120934A0230934B02CB
:100EE00040934C0250934D022093300230933102D4
:100EF000409332025093330260E070E04DE850E0DE
:100F000028E730E00E94C31A80E090E06FE070E0D4
:100F100040E050E02EE130E00CE810E00E94FB1CC5
:100F200080E090E061EF7FEF40E050E02EE130E0C4
:100F30000E94FB1C2091780230917902809172020C
:100F4000909173022817390709F04DC08AE090E0AC
:100F500060E070E040E050E024E130E002E810E0C2
:100F60000E94FB1C80E090E0DC0180934A02909399
:100F70004B02A0934C02B0934D02809330029093A9
:100F80003102A0933202B0933302809178029091A3
:100F9000790260E070E04DE850E028E730E00E9420
:100FA000C31A80E090E06FE070E040E050E02EE196
:100FB00030E00CE810E00E94FB1C80E090E061EF64
:100FC0007FEF40E050E02EE130E00E94FB1C86EF16
:100FD0009FEF60E070E040E050E024E130E002E8A4
:100FE00010E00E94FB1C84E090E06BEE7FEF40E09D
:100FF00050E02EE130E00CE810E00E94FB1C80E0A5
:1010000090E0DC0180934A0290934B02A0934C0243
:10101000B0934D028093300290933102A09332023C
:10102000B09333028AE590E090936D0280936C0256
:1010300086E090E066E970E044E050E024EC30E0C7
:1010400005E010E0AAEAEA2EF12CFEE1CF2ED12C29
:10105000EEE1AE2EB12C0E94583010926D0210922B
:101060006C0286E0E4E7F2E0DF011D928A95E9F781
:1010700060E070E08CE892E444E650E00E94EF29E2
:1010800086E490E090936D0280936C0280E062E1D0
:101090000E9429378823D1F30E94A33580E063E1C1
:1010A0000E9429378823D1F3E0917402F0917502F0
:1010B00060917602709177024091780250917902A6
:1010C00080E090E0DC01AA0FBB1F9C0113E0220F1F
:1010D000331F1A95E1F7A20FB31FAB55BD4F2D91EA
:1010E0003C9111972115310509F473C012962D9189
:1010F0003C9113972E52304037FF03C03095219515
:101100003F4F2931310584F4FC01EE0FFF1F9C0194
:10111000A3E0220F331FAA95E1F7E20FF31FEB556F
:10112000FD4F0190F081E02DDC01AA0FBB1F9C0157
:1011300013E0220F331F1A95E1F7A20FB31FAB552F
:10114000BD4F12962D913C9113972457304037FF95
:1011500003C0309521953F4F293131057CF4DC01E6
:10116000AA0FBB1F9C0163E0220F331F6A95E1F7B2
:10117000A20FB31FAB55BD4F6D917C91DC01AA0F3F
:10118000BB1F9C0113E0220F331F1A95E1F7A20F3A
:10119000B31FAB55BD4F12962D913C911397255B14
:1011A000304037FF03C0309521953F4F293131053D
:1011B00084F4DC01AA0FBB1F9C0113E0220F331F34
:1011C0001A95E1F7A20FB31FAB55BD4F4D915C913E
:1011D000119701968930910509F074CFF09375024B
:1011E000E0937402709377026093760250937902D1
:1011F000409378020E94D8018DB79EB70A970FB628
:10120000F8949EBF0FBE8DBFEDB7FEB73196CDE20D
:10121000D3E0ADB7BEB71296DC93CE93119782E6BA
:1012200091E09383828380917402909175029583FB
:101230008483809176029091770297838683809150
:10124000780290917902918780870E9423388DB728
:101250009EB70A960FB6F8949EBF0FBE8DBF81E071
:1012600061E0AE010E94670180911002909111022D
:10127000009731F00E94A017B59BFECFB599FECF25
:1012800080917202909173022091740230917502E4
:101290002817390779F020917602309177022817C4
:1012A000390741F0209178023091790228173907E7
:1012B00009F072C10F2EF0E0AF2EF0E0BF2EF0E08B
:1012C000CF2EF0E0DF2EF02DA0928202B0928302AA
:1012D000C0928402D0928502809182029091830212
:1012E000A0918402B091850280937E0290937F0248
:1012F000A0938002B093810280917E0290917F0240
:10130000A0918002B091810280937A0290937B0237
:10131000A0937C02B0937D02A0928E02B0928F02C5
:10132000C0929002D092910280918E0290918F0291
:10133000A0919002B091910280938A0290938B02C7
:10134000A0938C02B0938D0285EF9FEF63E170E074
:1013500044E150E02EE130E00CE810E0E4E1EE2E54
:10136000F12C0E944D2B10926D0210926C02609134
:101370007A0270917B0280917C0290917D020E94A2
:101380003A39EB0160917E0270917F028091800278
:10139000909181020E943A397B0120917402309130
:1013A000750280917202909173022817390709F033
:1013B0004AC086EF9FEF60E070E040E050E024E13B
:1013C00030E002E810E00E94FB1CA0924A02B092BA
:1013D0004B02C0924C02D0924D02A0923002B092C9
:1013E0003102C0923202D092330280917402909105
:1013F000750260E070E04DE850E028E730E00E94C0
:10140000C31A80E090E06FE070E040E050E02EE131
:1014100030E00CE810E00E94FB1C80E090E061EFFF
:101420007FEF40E050E02EE130E00E94FB1C8AE0BC
:1014300090E060E070E040E050E024E130E002E85D
:1014400010E00E94FB1C809176029091770220911F
:101450007202309173028217930789F520E030E021
:10146000A90120934A0230934B0240934C025093BF
:101470004D02209330023093310240933202509358
:10148000330260E070E04DE850E028E730E00E9471
:10149000C31A80E090E06FE070E040E050E02EE1A1
:1014A00030E00CE810E00E94FB1C80E090E061EF6F
:1014B0007FEF40E050E02EE130E00E94FB1C2091E5
:1014C000780230917902809172029091730228170C
:1014D000390709F04DC08AE090E060E070E040E03C
:1014E00050E024E130E002E810E00E94FB1C80E0C4
:1014F00090E0DC0180934A0290934B02A0934C024F
:10150000B0934D028093300290933102A093320247
:10151000B0933302809178029091790260E070E09C
:101520004DE850E028E730E00E94C31A80E090E0E8
:101530006FE070E040E050E02EE130E00CE810E0B9
:101540000E94FB1C80E090E061EF7FEF40E050E004
:101550002EE130E00E94FB1C86EF9FEF60E070E020
:1015600040E050E024E130E002E810E00E94FB1C83
:10157000662777276C1B7D0B882799278E199F0973
:1015800046EA5FEF2EE130E00CE810E0BCE3EB2E22
:10159000F12C0E944D2B08C060E070E08CE892ECCA
:1015A00044E650E00E94EF2980E090E0DC01809367
:1015B0004A0290934B02A0934C02B0934D02809349
:1015C000300290933102A0933202B09333028AE545
:1015D00090E090936D0280936C0286E090E066E963
:1015E00070E044E050E024EC30E005E010E0AAEACE
:1015F000EA2EF12CFEE1CF2ED12CEEE1AE2EB12C55
:101600000E94583010926D0210926C0286E0E4E75E
:10161000F2E0DF011D928A95E9F7DF91CF911F91EA
:101620000F91FF90EF90DF90CF90BF90AF90089513
:101630006F927F928F929F92AF92BF92CF92DF92E2
:10164000EF92FF920F931F93CF93DF930F2EF0E053
:101650006F2EF0E07F2EF0E08F2EF0E09F2EF02D29
:1016600060924A0270924B0280924C0290924D021C
:101670006092300270923102809232029092330274
:10168000CAE5D0E0D0936D02C0936C0286E090E092
:1016900066E970E044E050E024EC30E005E010E062
:1016A000AAEAEA2EF12CFEE1CF2ED12CEEE1AE2EED
:1016B000B12C0E94583010926D0210926C0280E0A2
:1016C00090E06AE070E04CEE5FEF28E230E002E389
:1016D00010E00E9475268CEE9FEF90936D02809330
:1016E0006C0283E190E066EA7FEF4AEB5FEF23E272
:1016F00030E000E010E00E94112810926D0210927C
:101700006C0284E190E06AE570E04AEB5FEF23E26F
:1017100030E00E94112884E190E090936D02809364
:101720006C0280E090E066EF7FEF4CEE5FEF28E226
:1017300030E00EEC1FEF0E94752660924A02709214
:101740004B0280924C0290924D0260923002709255
:1017500031028092320290923302D0936D02C09394
:101760006C0286E090E066E970E044E050E024EC32
:1017700030E005E010E00E94583010926D021092A7
:101780006C02DF91CF911F910F91FF90EF90DF904E
:10179000CF90BF90AF909F908F907F906F90089563
:1017A00090E0FC01B096FE2FEE272081209392025C
:1017B00020FDFBCF8896B82FAA278C91908190931B
:1017C000920290FDFBCF089590E08096F82FEE27CF
:1017D00080818093920280FDFBCF60838081809323
:1017E000920280FDFBCF089580E061E00E94E40B4F
:1017F00082E061E00E94E40B81E061E00E94E40B82
:101800000895A82FB0E0FD01B096FE2FEE2780814D
:101810008093920280FDFBCF9896BA2FAA27872F3C
:10182000992787FD9A958C9380818093920280FD01
:10183000FBCF6C9380818093920280FDFBCF089553
:101840001F93CF93DF93182F80E06FE10E94E40B8A
:10185000C1E0D0E002C0CC0FDD1F1A95E2F780E0B6
:10186000BE010E94010C81E06FE10E94E40B81E067
:10187000BE010E94010C82E06FE10E94E40B82E055
:10188000BE010E94010C80E061E00E94E40B82E056
:1018900061E00E94E40B81E061E00E94E40BDF91D3
:1018A000CF911F910895DF92EF92FF920F931F93B4
:1018B000D82E7A018B019B01552737FD5095452F76
:1018C000B9010E94010C8D2DB7010E94010C1F91DE
:1018D0000F91FF90EF90DF9008951F93182F60E015
:1018E0000E94E40B8CEC9CE10197F1F700C0000032
:1018F000812F6DE10E94E40B812F60E070E00E9477
:10190000010C1F910895AF92BF92CF92DF92EF9298
:10191000FF920F931F93CF93DF93F82E6B01EA0191
:101920008901AA24A3946115710509F4AA24BB2492
:10193000B394209709F4BB24EE24E3940115110518
:1019400009F4EE248F2D6EE10E94E40B6B2D70E004
:10195000660F771F660F771F8A2D90E043E0880F90
:10196000991F4A95E1F7682B792B8E2D90E0880F0F
:10197000991F682B792B8F2D0E94010CAA2021F032
:101980008F2DB6010E94010CBB2021F08F2DBE01CE
:101990000E94010CEE2021F08F2DB8010E94010C55
:1019A0008F2D64E00E94E40BDF91CF911F910F9186
:1019B000FF90EF90DF90CF90BF90AF9008958F92FF
:1019C0009F92AF92BF92CF92DF92EF92FF920F93CE
:1019D0001F93CF93DF93F82E4B016A01E901AA24EC
:1019E000A3946115710509F4AA24BB24B394C1140E
:1019F000D10409F4BB24EE24E394209709F4EE24E7
:101A00008F2D6EE10E94E40B6A2D70E0A3E0660F5B
:101A1000771FAA95E1F761608B2D90E0880F991FE1
:101A2000880F991F682B792B8E2D90E0880F991FB6
:101A3000682B792B8F2D0E94010CAA2021F08F2D6D
:101A4000B4010E94010CBB2021F08F2DB6010E9431
:101A5000010CEE2021F08F2DBE010E94010C8F2D74
:101A6000B8010E94010C8F2D64E00E94E40BDF910D
:101A7000CF911F910F91FF90EF90DF90CF90BF908B
:101A8000AF909F908F900895DF92EF92FF920F9307
:101A90001F93D82E7A018B016FE10E94E40B8D2DEC
:101AA00060E270E00E94010C8D2DB801A7010E9438
:101AB000530C1F910F91FF90EF90DF90089580E0FD
:101AC00060E170E040E050E020E430E00E94830CF0
:101AD00081E060E170E040E050E020E430E00E940E
:101AE000830C82E060E170E040E050E020E430E010
:101AF0000E94830C80E04FEF5FEF6FEF7FE30E9467
:101B0000440D81E04FEF5FEF6FEF7FE30E94440DE4
:101B100082E04FEF5FEF6FEF7FE30E94440D089587
:101B2000DF92EF92FF920F931F93DF93CF930F9269
:101B3000CDB7DEB7D82E7A018B0177FF0AC010959A
:101B40000095F094E094E11CF11C011D111D90E042
:101B500001C091E08D2D6FE199830E94E40B998182
:101B6000792F7295707F60E0686078608D2D0E949B
:101B7000010C8D2DB801A7010E94530C0F90CF913D
:101B8000DF911F910F91FF90EF90DF900895AF923A
:101B9000BF92CF92DF92EF92FF920F931F93DF934A
:101BA000CF93CDB7DEB72C970FB6F894DEBF0FBE3C
:101BB000CDBF59016A010E946D3969837A838B8395
:101BC0009C83C601B5010E946D396D837E838F832E
:101BD0009887C801B7010E946D3969877A878B871A
:101BE0009C878E010F5F1F4FEE24F8016081718189
:101BF0008281938121E73CEA4BE85EE30E94313B1E
:101C00009B01AC01F80121933193419351938F01D2
:101C100020E030E040E857E40E94313B0E943A392E
:101C2000AB01BC018E2D0E94900DE394FE2DF3308C
:101C3000E1F60E94F40B2C960FB6F894DEBF0FBEAF
:101C4000CDBFCF91DF911F910F91FF90EF90DF906B
:101C5000CF90BF90AF9008954F925F926F927F9216
:101C60008F929F92AF92BF92CF92DF92EF92FF92AC
:101C70000F931F93982E862E29013A016FE10E943F
:101C8000E40B682D70E06A62892D0E94010C892D99
:101C9000B301A2010E94530C892DB801A7010E9433
:101CA000530C892DB601A5010E94530C1F910F9171
:101CB000FF90EF90DF90CF90BF90AF909F908F906C
:101CC0007F906F905F904F9008959F92AF92BF92D8
:101CD000CF92DF92EF92FF920F931F93DF93CF93F8
:101CE00000D00F92CDB7DEB71ABA15BA8FEF84BB0A
:101CF0001092650083E08093640010E8A12EB4E8A0
:101D0000BB2E6E010894C11CD11C85B3856085BBB8
:101D100083E39BE20197F1F785B38A7F85BBECEC07
:101D2000FCE13197F1F700C00000809165008D7FE4
:101D300080936500AB9885B3887F85BB99B3998301
:101D4000A89A19B385B3887F826085BB09B3943C98
:101D500009F494C0943809F491C015BA80E060E0A9
:101D600041E751E00E94670181E060E047E751E010
:101D70000E946701143C09F481C0143809F47EC044
:101D800015BA80E060E041E751E00E94670182E01F
:101D900060E047E851E00E946701043C09F46EC02E
:101DA000043809F46BC015BA80E060E041E751E007
:101DB0000E94670183E060E047E951E029C09E2C62
:101DC0009C18892D6DE10E94E40B892D60E070E084
:101DD0000E94010CF8018081F70181937F0100507E
:101DE0001F4FF3E200301F0751F78981803C99F0C3
:101DF000803889F085B78F7385BF15BA80E060E0C1
:101E000047EA51E00E94670181E060E047E751E066
:101E10000E9467017ACF80E060E04DEA51E00E94C5
:101E2000670180E098B3976098BB2FEF3FEB46E0E7
:101E3000215030404040E1F700C0000098B3987F47
:101E400098BB2FEF3FEB46E0215030404040E1F798
:101E500000C000008F5F833029F70E94D8010F90E7
:101E60000F900F90CF91DF911F910F91FF90EF9006
:101E7000DF90CF90BF90AF909F900895A5BE82E075
:101E800080936D00B0926C00760100E010E297CF75
:101E90004F925F926F927F928F929F92AF92BF927A
:101EA000CF92DF92EF92FF920F931F93CF93DF9326
:101EB00004E6802E912C84E00E947600982F80E02A
:101EC000EC0185E00E94760090E08C2B9D2BB40104
:101ED0000E94CF3E882777FD8095982F0E946D390C
:101EE000F62E072F182FE92E462E572E682E792E04
:101EF00063015201E894D7F8C601B50120E030E053
:101F000044E353E40E94963A1816ACF260918602BC
:101F10007091870280918802909189022F2D302F35
:101F2000412F5E2D0E94CB38882309F4E5C06F2D28
:101F3000702F812F9E2D20E030E0A9010E94CB3828
:101F400087FF5DC060918602709187028091880250
:101F50009091890220E030E0A9010E94963A18167B
:101F60000CF04DC02091860230918702409188028A
:101F7000509189025F77C601B5010E94543820E074
:101F800030E044E353E40E94CB3887FF15C0A090B3
:101F90008A02B0908B02C0908C02D0908D0220916A
:101FA00086023091870240918802509189026F2DFC
:101FB000702F812F9E2D1CC0A0908A02B0908B02A2
:101FC000C0908C02D0908D02609186027091870241
:101FD00080918802909189022F2D302F412F5E2D04
:101FE0000E9453389B01AC0160E070E084EB93E405
:101FF0000E9453389B01AC01C601B50169C0C30101
:10200000B20120E030E0A9010E94963A18160CF0C7
:1020100047C06091860270918702809188029091FA
:10202000890220E030E0A9010E94CB3887FF38C048
:102030002091860230918702409188025091890256
:102040005F77C601B5010E94543820E030E044E3D8
:1020500053E40E94CB3887FD23C0E0908A02F090C1
:102060008B0200918C0210918D022091860230919A
:1020700087024091880250918902C301B2010E94F7
:1020800053389B01AC0160E070E084EB93E40E9464
:1020900053389B01AC01C801B7010E9453381AC0E4
:1020A000E0908A02F0908B0200918C0210918D02D8
:1020B00020918602309187024091880250918902D6
:1020C000C301B2010E9453389B01AC01C801B701A2
:1020D0000E9454389B01AC0120938A0230938B02FA
:1020E00040938C0250938D02409286025092870258
:1020F0006092880270928902DF91CF911F910F91B7
:10210000FF90EF90DF90CF90BF90AF909F908F9017
:102110007F906F905F904F9008952F923F924F92D3
:102120005F926F927F928F929F92AF92BF92CF9267
:10213000DF92EF92FF920F931F93DF93CF93CDB770
:10214000DEB762970FB6F894DEBF0FBECDBF6983CE
:102150007A838B839C832D833E834F8358873701FB
:10216000480160E070E084E394E4A60195010E94D8
:102170005338162F072FF82EE92E8D819E81AF81BF
:10218000B8858093930290939402A0939502B093A4
:10219000960289819A81AB81BC81809329039093B7
:1021A0002A03A0932B03B0932C03A0929F02B0921A
:1021B000A002C092A102D092A202C601B50120E005
:1021C00030E044E353E40E94CB38181684F0A801B1
:1021D0009701652F742F832F922F20E030E044EB7E
:1021E00053E40E945338162F072FF82EE92EA8012A
:1021F0009701652F702F832F9E2D20E030E044EB58
:1022000052E40E94533869877A878B879C87C40180
:10221000B30123EF36E64FE55EE30E94313B6D8765
:102220007E878F87988B80E090E036E9432E512C93
:1022300028E6222E21E0322E9A8B898BB201882744
:1022400077FD8095982F0E946D395B016C01C2016A
:1022500088589F4FB1010E94CF3E2C01C601B501A5
:10226000D801F7012B2F302F4F2F5E2D0E945338AE
:1022700025E33AEF4EE85CE30E94313B0E94CF3801
:102280003B014C01C601B501B985AA85AB84DC844C
:102290002B2F3A2F4A2D5D2D0E94533825E33AEF1C
:1022A0004EE85CE30E94313B0E94CF385B016C0139
:1022B0006D817E818F819885A40193010E94313BBD
:1022C0003B014C0169817A818B819C81A60195013A
:1022D0000E94313B9B01AC01C401B3010E94543800
:1022E000BD85AE85DF84A8882B2F3A2F4D2D5A2D22
:1022F0000E9453382FE632E143E856E40E94313B16
:1023000023E333E343E250EC0E94313B0E943A392D
:10231000AB01BC0189890E94900DA989BA891196E7
:10232000BA8BA98BA330B10509F088CF0E94F40BBA
:102330000E94480F62960FB6F894DEBF0FBECDBF65
:10234000CF91DF911F910F91FF90EF90DF90CF9091
:10235000BF90AF909F908F907F906F905F904F90C5
:102360003F902F9008952F923F924F925F926F92DD
:102370007F928F929F92AF92BF92CF92DF92EF9215
:10238000FF920F931F93DF93CF93CDB7DEB72C97B8
:102390000FB6F894DEBF0FBECDBF5B016C013901F3
:1023A0004A011701280160918A0270918B02809185
:1023B0008C0290918D0220918E0230918F0240917B
:1023C000900250919102E0908A02F0908B0200916D
:1023D0008C0210918D02E0928E02F0928F02009397
:1023E000900210939102E0908202F090830200919B
:1023F0008402109185020E9453389B01AC01C801F0
:10240000B7010E9453389B01AC01209382023093A4
:1024100083024093840250938502C601B50120E0F7
:1024200030E0A9010E94CB38882351F4C401B301E4
:1024300020E030E0A9010E94CB38882309F4D2C003
:10244000C601B50120E030E048EC52E40E94D238E9
:1024500069837A838B839C83C401B30120E030E0DD
:1024600048EC52E40E94D2386D837E838F83988734
:102470006091820270918302809184029091850222
:10248000A20191010E945338F62E072F182FE92E32
:1024900080917A0290917B02A0917C02B0917D02A2
:1024A00089879A87AB87BC876F2D702F812F9E2DD0
:1024B00025E33AEF4EE85CE30E94313B0E94CF38BF
:1024C0003B014C016F2D702F812F9E2D20E030E0BD
:1024D00044EB52E40E94543825E33AEF4EE85CE3C3
:1024E0000E94313B0E94CF385B016C0159814A81C7
:1024F0003B812C81652F742F832F922FA401930190
:102500000E94313B1B012C015D814E813F8128855A
:10251000652F742F832F922FA60195010E94313BC6
:102520009B01AC01C201B1010E9454389B01AC0176
:1025300069857A858B859C850E9454389B01AC0106
:1025400020937A0230937B0240937C0250937D0269
:1025500020907E0230907F02409080025090810255
:102560006F2D702F812F9E2D20E030E044EB52E440
:102570000E94533825E33AEF4EE85CE30E94313B7A
:102580000E94CF387B018C015D814E813F8128857F
:10259000652F742F832F922FA40193010E94313B4A
:1025A0005B016C0159814A813B812C81652F742F1D
:1025B000832F922FA80197010E94313B9B01AC0110
:1025C000C601B5010E9454389B01AC01C201B101A2
:1025D0000E9454389B01AC01EAE7F2E02483358382
:1025E000468357832C960FB6F894DEBF0FBECDBF3F
:1025F000CF91DF911F910F91FF90EF90DF90CF90DF
:10260000BF90AF909F908F907F906F905F904F9012
:102610003F902F9008952F923F924F925F926F922A
:102620007F928F929F92AF92BF92CF92DF92EF9262
:10263000FF920F931F93DF93CF93CDB7DEB72E9703
:102640000FB6F894DEBF0FBECDBF180187019A8385
:1026500089837C836B83509541955F4F5E834D8367
:10266000309521953F4F38872F83CE0101969A8769
:10267000898779E0472E512C4C0E5D1E7C01662423
:102680007724CC24DD24D7016D917D917D018827AD
:1026900077FD8095982F0E946D394B015C01E8947D
:1026A000B7F8662D772D8C2D9D2DA50194010E94E4
:1026B000CB3887FF02C034016501E414F50419F733
:1026C000EE24FF24C101AA2797FDA095BA2F8B877E
:1026D0009C87AD87BE87A985BA85AD90BD90BA8726
:1026E000A9876B857C858D859E850E946D391B0130
:1026F0002C01B501882777FD8095982F0E946D39B0
:10270000262D372D4C2D5D2D0E94D238A20191012E
:102710000E94313B9B01AC01F701EE0FFF1FEE0F52
:10272000FF1FED5BFC4F208331834283538308946A
:10273000E11CF11CB4E0EB16F10469F60436110556
:102740002CF40115110509F051C005C0043611051E
:1027500011F00456104091E0E92EF12C662D772DF2
:102760008C2D9D2D20E030E048EC52E40E94313B5E
:10277000A20191010E94D2380E94B8385B016C011D
:10278000970122503040C80117FF03C090958195F2
:102790009F4FB7010E94CF3E620F731F882777FDBE
:1027A0008095982F0E946D399B01AC01C601B5013F
:1027B0000E9454380E943A39CB012E960FB6F894F5
:1027C000DEBF0FBECDBFCF91DF911F910F91FF9064
:1027D000EF90DF90CF90BF90AF909F908F907F90C1
:1027E0006F905F904F903F902F90089582E0E82E79
:1027F000F12CB4CF2F923F924F925F926F927F92C3
:102800008F929F92AF92BF92CF92DF92EF92FF9200
:102810000F931F93DF93CF93CDB7DEB72E970FB6ED
:10282000F894DEBF0FBECDBF7A836983653671052C
:1028300014F0645670404B0177FF04C0882499243B
:10284000861A970AE0904602F0904702A7014F5F70
:102850005F4F9C012E193F0900E010E05A01CC2483
:10286000B7FCC094DC2CAB82BC82CD82DE8214012A
:10287000442437FC4094542C6C01C818D908D886DD
:10288000CF82C901AA2797FDA095BA2F89879A8779
:10289000AB87BC877E876D873401F7FC34C0AD857C
:1028A000BE85B7FD2DC04801880C991C880C991C69
:1028B000F401ED5BFC4FA080B180C280D3806B81BE
:1028C0007C818D819E810E946D399B01AC01C60186
:1028D000B5010E94313B5B016C01C201B1010E9454
:1028E0006D399B01AC01C601B5010E94D2389B0134
:1028F000AC01F401EB5AFC4F2083318342835383B4
:10290000E614F70424F4ED85FE85F7FF13C0980163
:10291000220F331F220F331FF901ED5BFC4F808123
:102920009181A281B3812B5A3C4FF901808391831D
:10293000A283B383AF80B884AE14BF0494F54981F9
:102940005A814536510568F14801880C991C880C5C
:10295000991CF401ED5BFC4FA080B180C280D38054
:1029600069857A858B859C850E946D399B01AC01B8
:10297000C601B5010E94313B5B016C01C201B1018E
:102980000E946D399B01AC01C601B5010E94D2388D
:102990009B01AC01F401EB5AFC4F2083318342834D
:1029A00053830F5F1F4F0430110509F076CF2E9629
:1029B0000FB6F894DEBF0FBECDBFCF91DF911F9150
:1029C0000F91FF90EF90DF90CF90BF90AF909F90CE
:1029D0008F907F906F905F904F903F902F900895D1
:1029E00081E090E00A9B02C080E090E090939E021C
:1029F00080939D0281E090E00B9B02C080E090E01C
:102A000090939A028093990281E090E00C9B02C01F
:102A100080E090E0909354038093530381E090E032
:102A2000849B02C080E090E090939C0280939B0284
:102A300081E090E0869B02C080E090E090932803C4
:102A4000809327032091630081E090E023FF02C080
:102A500080E090E09093A4028093A3022091630011
:102A600081E090E024FF02C080E090E09093980223
:102A70008093970208951F920F920FB60F920BB694
:102A80000F921124EF92FF920F931F932F933F9376
:102A90004F935F936F937F938F939F93AF93BF9366
:102AA000EF93FF938FEF8DBD80E78CBD6091300277
:102AB0007091310280913202909133022AE037ED19
:102AC00043EA5CE30E9454387B018C017F2D912FF7
:102AD00020E030E040E85FE30E94963A181624F4C4
:102AE000EE24FF2400E81FE38E2D9F2DA02FB12F91
:102AF0008093300290933102A0933202B09333025C
:102B000060914A0270914B0280914C0290914D026B
:102B10002AE037ED43EA5CE30E9454387B018C01E4
:102B20007F2D912F20E030E040E85FE30E94963A4D
:102B3000181624F4EE24FF2400E81FE38E2D9F2DA9
:102B4000A02FB12F80934A0290934B02A0934C0286
:102B5000B0934D026091340270913502809136023B
:102B6000909137022DEC3CEC4CE45DE30E9454382C
:102B7000F62EE72E8C01A701652F742F912F20E0F0
:102B800030E040E85FE30E94963A181624F4FF24F0
:102B9000EE2400E81FE3A701852F9E2DA02FB12F63
:102BA0008093340290933502A0933602B09337029B
:102BB0000E94F01480919D0290919E020097B1F0C6
:102BC00080912E0290912F02009781F4809138021B
:102BD000909139020196909339028093380281E0F6
:102BE00090E090932F0280932E0210C080919D025E
:102BF00090919E02009751F480912E0290912F02A5
:102C0000009721F010922F0210922E0280919902CB
:102C100090919A02009731F180916402909165023F
:102C2000009701F580916E0290916F02019690934A
:102C30006F0280936E0221E030E0309365022093B2
:102C400064028091410390914203FC01EE0FFF1F4B
:102C5000E150FD4F3183208301969093420380938E
:102C6000410310C08091990290919A02009751F40B
:102C70008091640290916502009721F010926502A4
:102C80001092640280915303909154030097B1F025
:102C90008091600290916102009781F480915E02C0
:102CA00090915F02019690935F0280935E0281E0B3
:102CB00090E0909361028093600210C08091530372
:102CC00090915403009751F48091600290916102B9
:102CD000009721F0109261021092600280919B0295
:102CE00090919C020097B1F080915C0290915D02FE
:102CF000009781F48091660290916702019690930B
:102D000067028093660281E090E090935D02809379
:102D10005C0210C080919B0290919C02009751F43C
:102D200080915C0290915D02009721F010925D020B
:102D300010925C0280912703909128030097B1F0D4
:102D40008091480290914902009781F48091680235
:102D5000909169020196909369028093680281E0E4
:102D600090E0909349028093480210C0809127031D
:102D700090912803009751F4809148029091490264
:102D8000009721F010924902109248028091A3020C
:102D90009091A402009741F18091620290916302A8
:102DA000009711F580915A0290915B0201969093E1
:102DB0005B0280935A0281E090E0909363028093DB
:102DC00062028091410390914203FC01EE0FFF1FCC
:102DD000E150FD4F22E030E0318320830196909353
:102DE00042038093410310C08091A3029091A402FA
:102DF000009751F48091620290916302009721F054
:102E00001092630210926202809197029091980250
:102E10000097B1F08091440290914502009781F4AF
:102E2000809170029091710201969093710280934B
:102E3000700281E090E0909345028093440210C0BC
:102E40008091970290919802009751F480914402EA
:102E500090914502009721F0109245021092440291
:102E60008091460290914702009729F00196909335
:102E700047028093460280911E0290911F020097A4
:102E800049F080911E0290911F02019790931F02BA
:102E900080931E0280916A0290916B02009749F024
:102EA00080916A0290916B02019690936B028093DD
:102EB0006A028091580290915902009729F0019678
:102EC000909359028093580280914103909142035C
:102ED0008431910524F010924203109241036091D5
:102EE000290370912A0380912B0390912C03209148
:102EF0009302309194024091950250919602E09095
:102F00009F02F090A0020091A1021091A2020E94E3
:102F1000B311FF91EF91BF91AF919F918F917F91ED
:102F20006F915F914F913F912F911F910F91FF9062
:102F3000EF900F900BBE0F900FBE0F901F90189543
:102F4000AF92BF92CF92DF92EF92FF920F931F93B7
:102F500060E070E0CB019B01AC017B018C015B0167
:102F60006C010E948D101F910F91FF90EF90DF90E8
:102F7000CF90BF90AF900895FC01E65CFD4F80813B
:102F800090E0681779076CF080915802909159028F
:102F9000009759F481E090E0909359028093580291
:102FA00004C0109259021092580221E030E0809142
:102FB0005802909159028330910514F420E030E0DA
:102FC000C90108951F93182F81E10E943E01812FAE
:102FD0000E943E0180910E028823E1F30E942B01A2
:102FE000882391F31F9108954F925F926F927F9281
:102FF0008F929F92AF92BF92CF92DF92EF92FF9209
:103000000F931F93CF93DF938C013B01C1E0D0E07E
:10301000CC24DD248FEFA82EB12C88249924EE2413
:10302000FF2444245524401A510A14C0602F17FD70
:10303000642D8C2F0E94293790E0C816D90614F40D
:103040006C017E018A159B0524F4009711F05C0148
:103050004E0121966C167D064CF7101611060CF0E9
:103060007401C701DF91CF911F910F91FF90EF90F5
:10307000DF90CF90BF90AF909F908F907F906F9098
:103080005F904F9008956F927F928F929F92AF9230
:10309000BF92CF92DF92EF92FF920F931F93D62EA3
:1030A000C72EB82EA92E922E832E742E652E6E2D2D
:1030B0007F2D802F912FD601F5012B2F3A2F4F2FE7
:1030C0005E2F0E94963A1816ACF06E2D7F2D802F41
:1030D000912FD401F3012B2F3A2F4F2F5E2F0E94F7
:1030E000CB3887FF03C06401530104C0DE2CCF2C12
:1030F000B02EA12EA6019501652F7C2D832F9A2D30
:103100001F910F91FF90EF90DF90CF90BF90AF9005
:103110009F908F907F906F9008952F923F925F9233
:103120006F927F928F929F92AF92BF92CF92DF92D7
:10313000EF92FF920F931F93DF93CF93CDB7DEB73C
:1031400028970FB6F894DEBF0FBECDBF582E4B01A7
:103150005A834983109259021092580210921F020A
:1031600010921E0280911E0290911F02909366039E
:103170008093650380916503909166039093470265
:103180008093460260E070E080E090E0DC018B011B
:10319000000F111F000F111F98012B5A3C4FF9010E
:1031A00080839183A283B3832081318142815381C3
:1031B000F801ED5BFC4F20833183428353836F5FC3
:1031C0007F4F6430710519F700D000D000D0EDB703
:1031D000FEB731960DE213E0ADB7BEB712961C9361
:1031E0000E93119781EC91E09383828386EC91E0BA
:1031F000958384830E942338EDB7FEB736960FB6C9
:10320000F894FEBF0FBEEDBF80E067E0A8010E940A
:10321000670110926B0210926A02852D66E60E9489
:103220002937A82EE0908202F09083020091840258
:1032300010918502B401882777FD8095982F0E9410
:103240006D39A80197010E9454380E943A394B0108
:103250008A189108882777FD8095982F0E946D39EC
:103260005B016C01B401882777FD8095982F0E943F
:103270006D397B018C01C40168E572E00E94CF3E8C
:10328000882777FD8095982F0E946D392FE832ECC2
:1032900045E75EE30E9454389B01AC01C801B701C9
:1032A0000E94313B9B01AC01C601B5010E9454381C
:1032B0000E943A391B018824992491E0692E712CCF
:1032C0003C822B82140180911E0290911F02009774
:1032D000D1F770921F0260921E02852D66E60E9451
:1032E0002937E82EFF24852D67E60E94293738C04C
:1032F0000E94A017852D66E60E942937E82E852DAD
:1033000067E60E94293720916A0230916B022115ED
:10331000310521F470926B0260926A0220916A0278
:1033200030916B02F1E02F353F071CF00E94A0178F
:1033300012C1FF24E114F10499F020E030E0A9016A
:1033400020934A0230934B0240934C0250934D021B
:103350002093300230933102409332025093330273
:10336000082F10E0E114F10421F40115110509F40E
:10337000BFCF4B815C814115510591F0E41AF50AEC
:10338000B701882777FD8095982F0E946D392DEC25
:103390003CEC4CE45FE30E94313B0E943A391B0154
:1033A00089819A81009719F04C01801A910AB10124
:1033B000882777FD8095982F0E946D397B018C01BD
:1033C00060E070E088E492E420E030E048E452EC11
:1033D0000E9443180E943A391B01B401882777FDE7
:1033E0008095982F0E946D397B018C0160E070E020
:1033F00080E792E420E030E040E752EC0E9443187E
:103400000E943A394B01A0908202B0908302C09092
:103410008402D0908502B401882777FD8095982F8B
:103420000E946D3920914A0230914B0240914C022A
:1034300050914D020E94313B2DEC3CEC4CE45FE39B
:103440000E94313B6D837E838F839887B1018827EB
:1034500077FD8095982F0E946D3920913002309130
:10346000310240913202509133020E94313B7B0184
:103470008C0160916C0270916D02882777FD8095B8
:10348000982F0E946D39A60195010E9454385B0166
:103490006C0160E070E0CB012D813E814F81588549
:1034A0000E948D108091460290914702009721F46E
:1034B00070924702609246028091460290914702C4
:1034C000A1E08F359A0754F42114310409F0FBCEA2
:1034D000C40101968330910508F0F5CE109259028F
:1034E0001092580280E090E0DC0180939F0290935C
:1034F000A002A093A102B093A20280919F0290919A
:10350000A002A091A102B091A202809329039093FE
:103510002A03A0932B03B0932C038091290390914D
:103520002A03A0912B03B0912C03809393029093D4
:103530009402A0939502B0939602609193027091C9
:10354000940280919502909196020E943A3970936C
:1035500047026093460228960FB6F894DEBF0FBE6E
:10356000CDBFCF91DF911F910F91FF90EF90DF9032
:10357000CF90BF90AF909F908F907F906F905F9013
:103580003F902F9008952F923F925F926F927F927B
:103590008F929F92AF92BF92CF92DF92EF92FF9263
:1035A0000F931F93DF93CF93CDB7DEB760970FB61E
:1035B000F894DEBF0FBECDBF582E7A8369835C833B
:1035C0004B833E832D831092590210925802109221
:1035D0001F0210921E0280911E0290911F02909372
:1035E00066038093650380916503909166039093D1
:1035F00047028093460260E070E080E090E0DC01EA
:103600008B01000F111F000F111F98012B5A3C4F07
:10361000F90180839183A283B38320813181428128
:103620005381F801ED5BFC4F208331834283538348
:103630006F5F7F4F6430710519F700D000D000D064
:10364000EDB7FEB731960DE213E0ADB7BEB71296F7
:103650001C930E93119781EC91E0938382838AEC03
:1036600091E0958384830E942338EDB7FEB73696A8
:103670000FB6F894FEBF0FBEEDBF80E067E0A80173
:103680000E94670110926B0210926A0288249924AA
:1036900080E090E06624772431E0232E312C988B53
:1036A0008F8780911E0290911F020097D1F7309270
:1036B0001F0220921E02852D66E60E942937E82E01
:1036C000FF24852D67E60E942937082F10E0B701F7
:1036D000CF84D8883BC00E94A017852D66E60E9443
:1036E0002937A82E852D67E60E94293720916A0286
:1036F00030916B022115310521F430926B0220923A
:103700006A0220916A0230916B02F1E02F353F0787
:103710001CF00E94A01757C16A2D70E06115710559
:1037200099F020E030E0A90120934A0230934B0247
:1037300040934C0250934D0220933002309331025B
:103740004093320250933302082F10E06115710547
:1037500021F40115110509F4BECFD88ACF864B811B
:103760005C814115510589F0641B750B882777FD35
:103770008095982F0E946D392DEC3CEC4CE45FE372
:103780000E94313B0E943A393B0189819A8100971E
:1037900091F0E81AF90AB701882777FD8095982FEC
:1037A0000E946D392AE939E949E15FE30E94313B22
:1037B0000E943A394B01AD81BE81109721F0A01BC8
:1037C000B10BB88BAF87B301882777FD8095982F11
:1037D0000E946D397B018C0160E070E080EF91E424
:1037E00020E030E040EF51EC0E9443180E943A394B
:1037F0003B01EF85F889BF01882777FD8095982FD9
:103800000E946D397B018C0160E070E08CE592E4F0
:1038100020E030E04CE552EC0E9443180E943A3917
:10382000788B6F87B401882777FD8095982F0E9449
:103830006D397B018C0160E070E088E492E420E067
:1038400030E048E452EC0E9443180E943A394B01A0
:10385000E0903002F0903102009132021091330278
:10386000B301882777FD8095982F0E946D39A801B4
:1038700097010E94313B2DEC3CEC4CE45FE30E944D
:10388000313B6F83788789879A872F853889B9017B
:10389000882777FD8095982F0E946D3920914A02E4
:1038A00030914B0240914C0250914D020E94313BAD
:1038B0002DEC3CEC4CE45FE30E94313B6B877C8752
:1038C0008D879E87B401882777FD8095982F0E9469
:1038D0006D39A80197010E94313B7B018C016091F9
:1038E0006C0270916D02882777FD8095982F0E9459
:1038F0006D395B016C016F81788589859A852B858F
:103900003C854D855E850E948D1080914602909188
:103910004702009721F4309247022092460280919C
:1039200046029091470231E08F3593077CF4611491
:10393000710409F0B6CE8F85988901968330910580
:1039400008F0AFCE8114910409F0ABCE1092590269
:103950001092580280E090E0DC0180939F029093E7
:10396000A002A093A102B093A20280919F02909125
:10397000A002A091A102B091A2028093290390938A
:103980002A03A0932B03B0932C03809129039091D9
:103990002A03A0912B03B0912C0380939302909360
:1039A0009402A0939502B093960260919302709155
:1039B000940280919502909196020E943A397093F8
:1039C00047026093460260960FB6F894DEBF0FBEC2
:1039D000CDBFCF91DF911F910F91FF90EF90DF90BE
:1039E000CF90BF90AF909F908F907F906F905F909F
:1039F0003F902F9008952F923F924F925F926F9237
:103A00007F928F929F92AF92BF92CF92DF92EF926E
:103A1000FF920F931F93DF93CF93CDB7DEB72C9711
:103A20000FB6F894DEBF0FBECDBF5C013B015C83D7
:103A30004B8319011A83098310925902109258027C
:103A400010921F0210921E0280911E0290911F027E
:103A5000909366038093650380916503909166035C
:103A6000909347028093460260E070E080E090E02F
:103A7000DC018B01000F111F000F111F98012B5A41
:103A80003C4FF90180839183A283B38320813181EC
:103A900042815381F801ED5BFC4F208331834283E7
:103AA00053836F5F7F4F6430710519F700D000D0EA
:103AB00000D0EDB7FEB731960DE213E0ADB7BEB75B
:103AC00012961C930E93119781EC91E0938382835D
:103AD0008DEC91E0958384830E942338EDB7FEB787
:103AE00036960FB6F894FEBF0FBEEDBF80E067E0DC
:103AF000A8010E94670180918A0290918B02A09197
:103B00008C02B0918D028D839E83AF83B887C501EF
:103B1000B30140E050E020E030E08101E980FA802C
:103B20000E940B13A114B10471F16114710459F1D5
:103B3000B101882777FD8095982F0E946D397B0110
:103B40008C016091430370914403809145039091EF
:103B50004603209147033091480340914903509117
:103B60004A030E94A33A9B01AC01C801B7010E941D
:103B7000D2389B01AC015F77C801B7010E94313B8D
:103B80000E943A391B01C501B3014B815C8120E0E1
:103B900030E08101E980FA800E940B139093660364
:103BA00080936503C1010A966AE070E00E94CF3EEF
:103BB000CB01AA2797FDA095BA2F89879A87AB8753
:103BC000BC8780911E0290911F020097D1F7A1E05F
:103BD000B0E0B0931F02A0931E0280916503909104
:103BE000660369817A810E94FA13EB81FC81309728
:103BF00009F041C020918A0230918B0240918C02E1
:103C000050918D026D817E818F8198850E945338FD
:103C1000662EA72EE82E092F69857A858B859C85CF
:103C20000E946D399B01AC01662D7A2D8E2D902F4F
:103C30000E94313BE62EF72E082F192FC801B7013D
:103C40009F7720E030E040EF51E40E94963A18164A
:103C500054F40F2EF0E0EF2EF0E0FF2EF0E00F2FE7
:103C6000F0E01F2FF02DE0925D03F0925E030093D1
:103C70005F03109360038091460290914702009782
:103C800031F481E090E09093470280934602809166
:103C90006503909166032091460230914702821796
:103CA00093070CF056C0109259021092580280E00F
:103CB00090E0DC0180939F029093A002A093A10268
:103CC000B093A20280919F029091A002A091A102C4
:103CD000B091A2028093290390932A03A0932B030F
:103CE000B0932C038091290390912A03A0912B0378
:103CF000B0912C038093930290939402A093950229
:103D0000B093960260919302709194028091950213
:103D1000909196020E943A3970934702609346024E
:103D20002C960FB6F894DEBF0FBECDBFCF91DF91BA
:103D30001F910F91FF90EF90DF90CF90BF90AF90C9
:103D40009F908F907F906F905F904F903F902F90BB
:103D5000089560905503709056038090570390909B
:103D600058032090590330905A0340905B035090C1
:103D70005C03E0905D03F0905E0300915F0310919F
:103D8000600360916C0270916D02882777FD8095C9
:103D9000982F0E946D395B016C01C401B301A2012F
:103DA00091010E948D100DCF2F923F924F925F9202
:103DB0006F927F928F929F92AF92BF92CF92DF923B
:103DC000EF92FF920F931F93DF93CF93CDB7DEB7A0
:103DD00062970FB6F894DEBF0FBECDBF9A87898772
:103DE0007C876B873A0119011C830B83FE86ED8665
:103DF000BA82A982109259021092580210921F02A0
:103E000010921E0280911E0290911F0290936603F1
:103E100080936503809165039091660390934702B8
:103E20008093460260E070E080E090E0DC019B015E
:103E3000220F331F220F331FF901EB5AFC4F8083EF
:103E40009183A283B383E080F180028113812D5B93
:103E50003C4FF901E082F182028313836F5F7F4F51
:103E60006430710521F700D000D000D0EDB7FEB767
:103E700031960DE213E0ADB7BEB712961C930E93C8
:103E8000119781EC91E09383828382ED91E0958399
:103E900084830E942338EDB7FEB736960FB6F894A8
:103EA000FEBF0FBEEDBF80E067E0A8010E94670182
:103EB00080918A0290918B02A0918C02B0918D0228
:103EC0008D839E83AF83B887C301B10140E050E08A
:103ED00020E030E08601E980FA800E940B13611433
:103EE000710471F12114310459F1B601882777FD6D
:103EF0008095982F0E946D397B018C01609143035E
:103F000070914403809145039091460320914703AB
:103F1000309148034091490350914A030E94A33ACB
:103F20009B01AC01C801B7010E94D2389B01AC01D2
:103F30005F77C801B7010E94313B0E943A396B019B
:103F4000C301B1014B815C8120E030E08601E98052
:103F5000FA800E940B139093660380936503C60159
:103F60000A966AE070E00E94CF3ECB01AA2797FD37
:103F7000A095BA2F8F87988BA98BBA8B80911E0240
:103F800090911F020097D1F7A1E0B0E0B0931F021B
:103F9000A0931E02809165039091660369817A81E6
:103FA0000E94FA13EB81FC81309709F041C0209107
:103FB0008A0230918B0240918C0250918D026D816A
:103FC0007E818F8198850E945338662EA72EE82E19
:103FD000092F6F85788989899A890E946D399B019B
:103FE000AC01662D7A2D8E2D902F0E94313BE62E4E
:103FF000F72E082F192FC801B7019F7720E030E076
:1040000040EF51E40E94963A181654F40F2EF0E057
:10401000EF2EF0E0FF2EF0E00F2FF0E01F2FF02D3D
:10402000E0925D03F0925E0300935F0310936003E0
:104030008091460290914702009731F481E090E030
:1040400090934702809346028091650390916603A6
:1040500020914602309147028217930774F0A98598
:10406000BA85109709F05FC08B859C856D857E852C
:104070000E94BC17009709F456C010925902109282
:10408000580280E090E0DC0180939F029093A002B0
:10409000A093A102B093A20280919F029091A002EE
:1040A000A091A102B091A2028093290390932A03C8
:1040B000A0932B03B0932C038091290390912A03A2
:1040C000A0912B03B0912C038093930290939402C0
:1040D000A0939502B093960260919302709194021E
:1040E00080919502909196020E943A39709347020E
:1040F0006093460262960FB6F894DEBF0FBECDBF46
:10410000CF91DF911F910F91FF90EF90DF90CF90B3
:10411000BF90AF909F908F907F906F905F904F90E7
:104120003F902F90089560905503709056038090B3
:104130005703909058032090590330905A034090B1
:104140005B0350905C03E0905D03F0905E03009190
:104150005F031091600360916C0270916D0288277B
:1041600077FD8095982F0E946D395B016C01C40129
:10417000B301A20191010E948D1000CF2F923F92B6
:104180004F925F926F927F928F929F92AF92BF9267
:10419000CF92DF92EF92FF920F931F93DF93CF9313
:1041A000CDB7DEB72E970FB6F894DEBF0FBECDBFEA
:1041B0009A8389835B013A013E832D831801FC8237
:1041C000EB82109259021092580210921F02109224
:1041D0001E0280911E0290911F02909366038093AD
:1041E00065038091650390916603909347028093E5
:1041F000460260E070E080E090E0DC019B01220F6D
:10420000331F220F331FF901EB5AFC4F8083918338
:10421000A283B383E080F180028113812D5B3C4F48
:10422000F901E082F182028313836F5F7F4F643074
:10423000710521F700D000D000D0EDB7FEB7319660
:104240000DE213E0ADB7BEB712961C930E93119713
:1042500081EC91E09383828389ED91E0958384835F
:104260000E942338EDB7FEB736960FB6F894FEBF1E
:104270000FBEEDBF80E067E0A8010E94670180915A
:104280008A0290918B02A0918C02B0918D028F8353
:104290009887A987BA87C501B30140E050E020E0C4
:1042A00030E08101EB80FC800E940B13A114B1046B
:1042B00071F16114710459F1B101882777FD80957E
:1042C000982F0E946D397B018C016091430370919E
:1042D0004403809145039091460320914703309118
:1042E00048034091490350914A030E94A33A9B011D
:1042F000AC01C801B7010E94D2389B01AC015F77C5
:10430000C801B7010E94313B0E943A391B01C50127
:10431000B3014D815E8120E030E08101EB80FC80C3
:104320000E940B139093660380936503C1010A9664
:104330006AE070E00E94CF3ECB01AA2797FDA095CE
:10434000BA2F8B879C87AD87BE8780911E02909184
:104350001F020097D1F7A1E0B0E0B0931F02A09335
:104360001E0280916503909166036B817C810E949F
:10437000FA13ED81FE81309709F041C020918A0245
:1043800030918B0240918C0250918D026F81788523
:1043900089859A850E945338662EA72EE82E092F0C
:1043A0006B857C858D859E850E946D399B01AC0156
:1043B000662D7A2D8E2D902F0E94313BE62EF72E02
:1043C000082F192FC801B7019F7720E030E040EF98
:1043D00051E40E94963A181654F40F2EF0E0EF2E96
:1043E000F0E0FF2EF0E00F2FF0E01F2FF02DE09215
:1043F0005D03F0925E0300935F031093600380916E
:10440000460290914702009731F481E090E090934A
:104410004702809346028091650390916603209144
:1044200046023091470282179307F4F51092590221
:104430001092580280E090E0DC0180939F029093FC
:10444000A002A093A102B093A20280919F0290913A
:10445000A002A091A102B091A2028093290390939F
:104460002A03A0932B03B0932C03809129039091EE
:104470002A03A0912B03B0912C0380939302909375
:104480009402A0939502B09396026091930270916A
:10449000940280919502909196020E943A3970930D
:1044A000470260934602D2C0A981BA81109741F4B5
:1044B0008091990290919A02009709F49BC013C0D1
:1044C000E981FA81E130F10509F44DC089819A81D1
:1044D0008230910509F08EC08091990290919A02E4
:1044E000009709F440C0109259021092580280E0DF
:1044F00090E0DC0180939F029093A002A093A10220
:10450000B093A20280919F029091A002A091A1027B
:10451000B091A2028093290390932A03A0932B03C6
:10452000B0932C038091290390912A03A0912B032F
:10453000B0912C038093930290939402A0939502E0
:10454000B0939602609193027091940280919502CB
:10455000909196020E943A39709347026093460206
:1045600021E030E072C08091A3029091A4020097F4
:1045700009F440C0109259021092580280E090E075
:10458000DC0180939F029093A002A093A102B093BC
:10459000A20280919F029091A002A091A102B091ED
:1045A000A2028093290390932A03A0932B03B09334
:1045B0002C038091290390912A03A0912B03B091A1
:1045C0002C038093930290939402A0939502B0934E
:1045D000960260919302709194028091950290915D
:1045E00096020E943A39709347026093460222E095
:1045F00030E02BC0609055037090560380905703B5
:10460000909058032090590330905A0340905B03D8
:1046100050905C03E0905D03F0905E0300915F03B7
:104620001091600360916C0270916D02882777FD94
:104630008095982F0E946D395B016C01C401B30114
:10464000A20191010E948D1080CEC9012E960FB655
:10465000F894DEBF0FBECDBFCF91DF911F910F91B8
:10466000FF90EF90DF90CF90BF90AF909F908F9092
:104670007F906F905F904F903F902F9008952F9272
:104680003F924F925F926F927F928F929F92AF92E2
:10469000BF92CF92DF92EF92FF920F931F93DF931F
:1046A000CF93CDB7DEB7AA970FB6F894DEBF0FBE93
:1046B000CDBF4C017A8369835C834B8339011C87AE
:1046C0000B87FE82ED82B886AF821092590210925B
:1046D000580210921F0210921E0280911E029091A9
:1046E0001F02909366038093650380916503909108
:1046F0006603909347028093460220E030E00F2E3D
:10470000F0E0EF2EF0E0FF2EF0E00F2FF0E01F2F93
:10471000F02DC901880F991F880F991FFC01EB5AD2
:10472000FC4FE082F18202831383408151816281D8
:1047300073818D5B9C4FDC014D935D936D937C93F6
:1047400013972F5F3F4F2430310519F700D000D069
:1047500000D0EDB7FEB731960DE213E0ADB7BEB7AE
:1047600012961C930E93119781EC91E093838283B0
:1047700087EE91E0958384830E942338EDB7FEB7DE
:1047800036960FB6F894FEBF0FBEEDBF80E067E02F
:10479000A8010E94670128E230E049815A81429FC6
:1047A000C001439F900D529F900D112420916C02E7
:1047B00030916D02820F931F68E671E00E94CF3E38
:1047C000843B910524F411E0212E312C03C02224D6
:1047D0002A94322C80E090E06B817C8140E050E0B4
:1047E00020E030E08601EF80F8840E940B13909364
:1047F000660380936503C301880F991F880F991F73
:10480000860D971D4BEF5FEF649E9001659E300D06
:10481000749E300D1124269CB001279C700D369C8F
:10482000700D11247A876987D4011896BA8BA98BE9
:10483000E981FA81E65CFD4FFC8BEB8BA6016627D4
:1048400057FD6095762F4D8B5E8B6F8B788FD09454
:10485000C194D108D394A601662757FD6095762FA1
:10486000498F5A8F6B8F7C8FAC01662757FD6095FF
:10487000762F4D8F5E8F6F8F78A3B901882777FDD4
:104880008095982F69A37AA38BA39CA38827992747
:10489000881999099EA38DA3809165039091660361
:1048A0006F8178850E94FA1380911E0290911F02F9
:1048B000009791F7A1E0B0E0B0931F02A0931E0211
:1048C000E989FA89E131F10508F049C0C40197FE90
:1048D00002C08DA19EA1FC01E65CFD4F2081293024
:1048E00009F4D0C01814190444F06D817E810E942F
:1048F000BC17009709F4C6C0A0C1808190E02D814B
:104900003E81821793070CF4BDC049815A81481536
:10491000590509F092C1C0905903D0905A03E09014
:104920005B03F0905C0360916C0270916D028827CC
:1049300077FD8095982F0E946D394B015C0160E0F6
:1049400070E0CB01A70196017B018C016501540148
:104950000E948D1051E35A95F1F700006EC16DE091
:104960008616910409F08EC08091990290919A0266
:10497000009709F440C0109259021092580280E04A
:1049800090E0DC0180939F029093A002A093A1028B
:10499000B093A20280919F029091A002A091A102E7
:1049A000B091A2028093290390932A03A0932B0332
:1049B000B0932C038091290390912A03A0912B039B
:1049C000B0912C038093930290939402A09395024C
:1049D000B093960260919302709194028091950237
:1049E000909196020E943A39709347026093460272
:1049F00021E030E060C18091A3029091A402009771
:104A000009F440C0109259021092580280E090E0E0
:104A1000DC0180939F029093A002A093A102B09327
:104A2000A20280919F029091A002A091A102B09158
:104A3000A2028093290390932A03A0932B03B0939F
:104A40002C038091290390912A03A0912B03B0910C
:104A50002C038093930290939402A0939502B093B9
:104A600096026091930270919402809195029091C8
:104A700096020E943A39709347026093460222E000
:104A800030E019C1AB89BC898C91E82FF0E02B850F
:104A90003C85E21BF30BFE87ED87CF01F7FF03C0D8
:104AA000909581959F4F853091052CF16D8D7E8D70
:104AB0008F8D98A10E946D395B016C0169A17AA16B
:104AC0008BA19CA10E946D392B013C014D855E8517
:104AD000BA01882777FD8095982F0E946D397B0158
:104AE0008C01C601B501A30192010E9443180E94E6
:104AF0003A396B0102C0CD84DE846B817C8177FF03
:104B000004C0D094C194D108D3947CE0871691045A
:104B100049F4ED84FE84EE0CFF1CEE0CFF1CCC244B
:104B2000DD2402C0ED84FE846D897E898F89988D95
:104B30000E946D392B013C01698D7A8D8B8D9C8D86
:104B40000E946D396D877E878F87988BC70162E0E1
:104B500070E00E94CF3E882777FD8095982F0E94B5
:104B60006D397B018C01C301B2012D853E854F85D6
:104B700058890E9443182091590330915A0340915B
:104B80005B0350915C032FA338A749A75AA70E9443
:104B90003A3988279927861B970B829DB001839D00
:104BA000700D929D700D1124882777FD8095982FA8
:104BB0000E946D392B013C01D094C194D108D3944B
:104BC00089859A85C89EB001C99E700DD89E700DCA
:104BD0001124882777FD8095982F0E946D397B01DD
:104BE0008C0160916C0270916D02882777FD809531
:104BF000982F0E946D395B016C01C301B2012FA196
:104C000038A549A55AA50E948D1080914602909121
:104C10004702009731F4A1E0B0E0B0934702A093BF
:104C2000460280916503909166032091460230917F
:104C30004702821793070CF02FCE10925902109260
:104C4000580280E090E0DC0180939F029093A002E4
:104C5000A093A102B093A20280919F029091A00222
:104C6000A091A102B091A2028093290390932A03FC
:104C7000A0932B03B0932C038091290390912A03D6
:104C8000A0912B03B0912C038093930290939402F4
:104C9000A0939502B0939602609193027091940252
:104CA00080919502909196020E943A397093470242
:104CB0006093460201C0C901AA960FB6F894DEBF00
:104CC0000FBECDBFCF91DF911F910F91FF90EF905D
:104CD000DF90CF90BF90AF909F908F907F906F901C
:104CE0005F904F903F902F9008952F923F924F9258
:104CF0005F926F927F928F929F92AF92BF92CF926C
:104D0000DF92EF92FF920F931F93DF93CF9300D028
:104D100000D000D0CDB7DEB75C014B013A011901DC
:104D20001A830983109259021092580210921F029E
:104D300010921E0280911E0290911F0290936603B2
:104D40008093650380916503909166039093470279
:104D50008093460260E070E080E090E0DC019B011F
:104D6000220F331F220F331FF901EB5AFC4F8083B0
:104D70009183A283B383E080F18002811381F901E2
:104D8000ED5BFC4FE082F182028313836F5F7F4F04
:104D90006430710521F700D000D000D0EDB7FEB728
:104DA00031960DE213E0ADB7BEB712961C930E9389
:104DB000119781EC91E0938382838CEE91E095834F
:104DC00084830E942338EDB7FEB736960FB6F89469
:104DD000FEBF0FBEEDBF80E067E0A8010E94670143
:104DE000C501B401A30120E030E08101E980FA802F
:104DF0000E940B13B101882777FD8095982F0E94A0
:104E00006D397B018C016091430370914403809163
:104E10004503909146032091470330914803409108
:104E2000490350914A030E94A33A9B01AC01C80177
:104E3000B7010E94D2389B01AC015F77C801B7016E
:104E40000E94313B0E943A397B018C01C501B401BB
:104E5000A30120E030E08701E980FA800E940B1373
:104E600090936603809365039924882477246624AD
:104E700080911E0290911F020097D1F721E030E04F
:104E800030931F0220931E02809165039091660368
:104E900069817A810E94FA1360915D0370915E03CB
:104EA00080915F0390916003209146023091470208
:104EB0002115310531F4A1E0B0E0B0934702A09391
:104EC000460220916503309166034091460250915D
:104ED0004702241735070CF056C010925902109261
:104EE000580280E090E0DC0180939F029093A00242
:104EF000A093A102B093A20280919F029091A00280
:104F0000A091A102B091A2028093290390932A0359
:104F1000A0932B03B0932C038091290390912A0333
:104F2000A0912B03B0912C03809393029093940251
:104F3000A0939502B09396026091930270919402AF
:104F400080919502909196020E943A39709347029F
:104F50006093460226960FB6F894DEBF0FBECDBF13
:104F6000CF91DF911F910F91FF90EF90DF90CF9045
:104F7000BF90AF909F908F907F906F905F904F9079
:104F80003F902F900895905820E030E048EC52E494
:104F90000E94D2389B01AC01D401F3016B2F782D14
:104FA0008F2F962D0E945438962E872E782E692E9C
:104FB000209055033090560340905703509058036B
:104FC0008091590390915A03A0915B03B0915C03C7
:104FD0008B839C83AD83BE83E0905D03F0905E0382
:104FE00000915F031091600360916C0270916D02FB
:104FF000882777FD8095982F0E946D39D401F301A1
:105000002B2F3A2F4F2F5E2F0E9454385B016C01DB
:10501000C201B1012B813C814D815E810E948D10C6
:1050200027CF2F923F924F925F926F927F928F92F3
:105030009F92AF92BF92CF92DF92EF92FF920F9327
:105040001F93DF93CF9300D000D000D0CDB7DEB751
:105050007C01A62E972E1A0169011A8309831092EA
:1050600059021092580210921F0210921E02809153
:105070001E0290911F0290936603809365038091B6
:10508000650390916603909347028093460260E027
:1050900070E080E090E0DC014A2D592D9B01220F49
:1050A000331F220F331FF901EB5AFC4F808391838A
:1050B000A283B38380809180A280B3802D5B3C4F1C
:1050C000F90180829182A282B3826F5F7F4F643048
:1050D000710521F7A42E952E00D000D000D0EDB799
:1050E000FEB731960DE213E0ADB7BEB712961C9332
:1050F0000E93119781EC91E09383828382EF91E08C
:10510000958384830E942338EDB7FEB736960FB699
:10511000F894FEBF0FBEEDBF80E067E0A8010E94DB
:105120006701B701882777FD8095982F0E946D3918
:105130002BED3FE049E450E40E94313B7B018C01C0
:105140006A2D792D77FF03C0709561957F4F882771
:1051500077FD8095982F0E946D399B01AC01C801A5
:10516000B7010E94313B20E030E044E353E40E9469
:10517000D2380E943A392B013C0180E090E0B20124
:105180004A2D592D91018601E980FA800E940B1366
:10519000B601882777FD8095982F0E946D397B0195
:1051A0008C0120914703309148034091490350916D
:1051B0004A030E94D2389B01AC015F77C801B70156
:1051C0000E94313B0E943A397B018C0180E090E0E3
:1051D000B2014A2D592D91018701E980FA800E9480
:1051E0000B1390936603809365039924442433241E
:1051F0002224882477246624552480911E029091CD
:105200001F020097D1F721E030E030931F02209376
:105210001E02809165039091660369817A810E94E4
:10522000FA1360915D0370915E0380915F0390912A
:105230006003E0906103F0906203009163031091BA
:10524000640320914602309147022115310531F463
:10525000A1E0B0E0B0934702A0934602209165031D
:10526000309166034091460250914702241735075A
:105270000CF056C0109259021092580280E090E053
:10528000DC0180939F029093A002A093A102B093AF
:10529000A20280919F029091A002A091A102B091E0
:1052A000A2028093290390932A03A0932B03B09327
:1052B0002C038091290390912A03A0912B03B09194
:1052C0002C038093930290939402A0939502B09341
:1052D0009602609193027091940280919502909150
:1052E00096020E943A3970934702609346022696CE
:1052F0000FB6F894DEBF0FBECDBFCF91DF911F91E7
:105300000F91FF90EF90DF90CF90BF90AF909F9064
:105310008F907F906F905F904F903F902F90089567
:1053200020E030E048EC52E40E94D2389B01AC010E
:10533000682D772D862D952D0E945438862E772E38
:10534000682E592EC801B701905820E030E048EC93
:1053500052E40E94D2389B01AC01F101692D742DF9
:105360008F2F922D0E945438962E472E382E292E9C
:105370008091590390915A03A0915B03B0915C0313
:105380008B839C83AD83BE83E0906103F0906203C6
:10539000009163031091640360916C0270916D023F
:1053A000882777FD8095982F0E946D39282D372DFD
:1053B000462D552D0E945438F101292D342D4F2FA3
:1053C0005E2F0E9454385B016C0160E070E0CB01FD
:1053D0002B813C814D815E810E948D100ECF2F92DA
:1053E0003F924F925F926F927F928F929F92AF9275
:1053F000BF92CF92DF92EF92FF920F931F93DF93B2
:10540000CF93CDB7DEB728970FB6F894DEBF0FBEA7
:10541000CDBF6D837E838F8398877A011092590266
:105420001092580210921F0210921E0280911E02CA
:1054300090911F02909366038093650380916503AA
:1054400090916603909347028093460260E070E07B
:1054500080E090E0DC018B01000F111F000F111F95
:1054600098012B5A3C4FF90180839183A283B38327
:105470002081318142815381F801ED5BFC4F208313
:105480003183428353836F5F7F4F6430710519F717
:1054900000D000D000D0EDB7FEB731960DE213E09A
:1054A000ADB7BEB712961C930E93119781EC91E0A5
:1054B0009383828385EF91E0958384830E942338D0
:1054C000EDB7FEB736960FB6F894FEBF0FBEEDBF30
:1054D00080E067E0A8010E94670180918A029091B4
:1054E0008B02A0918C02B0918D0289839A83AB8349
:1054F000BC838DEC9CECACE4BEE3809334029093CF
:105500003502A0933602B09337023701882477FC26
:105510008094982CF094E194F108F39417014424BA
:1055200037FC4094542C80911E0290911F020097EA
:10553000D1F7A1E0B0E0B0931F02A0931E0220912A
:105540008A0230918B0240918C0250918D026981C8
:105550007A818B819C810E9453382D813E814F81BD
:1055600058850E94533820E030E040EA50E40E9421
:10557000313BD62EC72EB82EA92EC401B3010E94EE
:105580006D397B018C01C201B1010E946D399B0113
:10559000AC01C801B701ED2DFC2DAB2DBA2D7F015B
:1055A0008D010E9443187B018C019F772DEC3CEC10
:1055B0004CEC5DE30E94CB3818160CF456C01092E8
:1055C00059021092580280E090E0DC0180939F0223
:1055D0009093A002A093A102B093A20280919F0297
:1055E0009091A002A091A102B091A2028093290300
:1055F00090932A03A0932B03B0932C03809129034B
:1056000090912A03A0912B03B0912C0380939302D5
:1056100090939402A0939502B093960260919302A6
:105620007091940280919502909196020E943A396D
:10563000709347026093460228960FB6F894DEBF37
:105640000FBECDBFCF91DF911F910F91FF90EF90D3
:10565000DF90CF90BF90AF909F908F907F906F9092
:105660005F904F903F902F900895C801B70120910F
:1056700034023091350240913602509137020E9437
:10568000313B7B018C0160E070E0CB019B01AC0100
:105690005B016C010E948D1046CF2F923F924F927A
:1056A0005F926F927F928F929F92AF92BF92CF92B2
:1056B000DF92EF92FF920F931F93DF93CF93CDB7BB
:1056C000DEB76B970FB6F894DEBF0FBECDBF5C019F
:1056D0003B014A01290118016701109259021092F9
:1056E000580210921F0210921E0280911E02909189
:1056F0001F029093660380936503809165039091E8
:105700006603909347028093460220E030E00F2E1C
:10571000F0E0EF2EF0E0FF2EF0E00F2FF0E01F2F73
:10572000F02DC901880F991F880F991FFC01EB5AB2
:10573000FC4FE082F18202831383408151816281B8
:105740007381FC01ED5BFC4F408351836283738363
:105750002F5F3F4F2430310521F700D000D000D01B
:10576000EDB7FEB731960DE213E0ADB7BEB71296B6
:105770001C930E93119781EC91E09383828388EFC1
:1057800091E0958384830E942338EDB7FEB7369667
:105790000FB6F894FEBF0FBEEDBF80E067E0A80132
:1057A0000E94670180918A0290918B02A0918C02E5
:1057B000B0918D028C839D83AE83BF83C114D104CD
:1057C00009F45BC08DEC9CECACE4BEE38093340246
:1057D00090933502A0933602B093370292E0C91637
:1057E000D1040CF44AC0C501B30140E050E020E010
:1057F00030E0820171010E940B13A114B10471F118
:105800006114710459F1B201882777FD8095982FB2
:105810000E946D397B018C016091430370914403B8
:1058200080914503909146032091470330914803AE
:105830004091490350914A030E94A33A9B01AC0155
:10584000C801B7010E94D2389B01AC015F77C80143
:10585000B7010E94313B0E943A392B01C501B301C7
:1058600040E050E020E030E0820171010E940B1323
:10587000909366038093650354C0C501B301A401EE
:1058800020E030E0820171010E940B13B2018827F1
:1058900077FD8095982F0E946D397B018C01609176
:1058A00043037091440380914503909146032091F6
:1058B0004703309148034091490350914A030E94A5
:1058C000A33A9B01AC01C801B7010E94D2389B01E9
:1058D000AC015F77C801B7010E94313B0E943A39A1
:1058E0007B018C01C501B301A40120E030E08701F8
:1058F00071010E940B13909366038093650360917E
:105900004B0370914C0380914D0390914E030E9484
:105910003A39C62ED72ED7FE04C0D094C194D108F0
:10592000D394442419821A821B82C401AA2797FDAA
:10593000A095BA2F888B998BAA8BBB8BC601AA27FF
:1059400097FDA095BA2F8C8B9D8BAE8BBF8BD0947F
:10595000C194D108D394C601AA2797FDA095BA2F68
:10596000888F998FAA8FBB8F80911E0290911F0202
:105970000097D1F7A1E0B0E0B0931F02A0931E0200
:105980008091650390916603B1010E94FA13209102
:105990008A0230918B0240918C0250918D026C8171
:1059A0007D818E819F810E9453387B018C016889A3
:1059B00079898A899B890E946D399B01AC01C80154
:1059C000B7010E94533820E030E040EA50E40E94E2
:1059D000313BD62EC72EA82E892E6C897D898E89C3
:1059E0009F890E946D397B018C01688D798D8A8D2C
:1059F0009B8D0E946D399B01AC01C801B701D60196
:105A0000EB2EFA2E0A2D182D0E9443184B015C0133
:105A10002091340230913502409136025091370284
:105A20000E94313B9B01AC0120935D0330935E03E8
:105A300040935F035093600360915D0370915E0338
:105A400080915F0390916003905820E030E048EC33
:105A500052E40E94D2389B01AC01A9810A81EB80FB
:105A6000642D7A2F802F9E2D0E945438E62E072F0A
:105A7000D82EC92E462E79838A839B838091460235
:105A800090914702009731F4E1E0F0E0F093470293
:105A9000E09346028091650390916603209146024F
:105AA0003091470282179307DCF480E090E0DC013C
:105AB0008093590390935A03A0935B03B0935C03C4
:105AC0008091590390915A03A0915B03B0915C03BC
:105AD0008093550390935603A0935703B0935803B4
