:100000000C9455000C9474000C9474000C947400BF
:100010000C9474000C9474000C9474000C94740090
:100020000C9474000C9474000C9474000C94740080
:100030000C9474000C9474000C943A450C94740065
:100040000C9474000C9474000C9479690C947400F2
:100050000C9474000C9474000C9474000C94740050
:100060000C9474000C9474000C9474000C94740040
:100070000C9474000C9474000C940A010C94740099
:100080000C9474000C9474000C94740005A84CCD6E
:10009000B2D44EB93836A9020C50B9918688083CC2
:1000A000A6AAAA2ABE000000803F11241FBECFEFDF
:1000B000D0E1DEBFCDBF12E0A0E0B1E0E2EFF1EEB3
:1000C00000E00BBF02C007900D92AA35B107D9F727
:1000D00014E0AAE5B2E001C01D92A731B107E1F733
:1000E0000E9421240C94216A0C94000094EA9093BD
:1000F00074009091740097FFFCCF9AE09093730086
:1001000094E8909374009091740097FFFCCF8093D3
:10011000730084E8809374008091740087FFFCCFA3
:1001200084E98093740084EA809374008091740061
:1001300087FFFCCF8BE08093730084E8809374008A
:100140008091740087FFFCCF84E8809374008091D5
:10015000740087FFFCCF8091730094E99093740042
:10016000089594EA909374009091740097FFFCCFE7
:100170009AE09093730094E89093740090917400C7
:1001800097FFFCCF8093730084E880937400809184
:10019000740087FFFCCF6093730084E88093740041
:1001A0008091740087FFFCCF84E9809374000895E8
:1001B00010929B0088E980939A0086E080939D00CE
:1001C000109298008FE580939900789408951F937A
:1001D0001FEF1093730081E4809370000E94703EC3
:1001E0000E9465690E94D8000E946A3D1FBC85E09C
:1001F0008EBD1DBD80E78CBD84E087BF78948FE005
:1002000087BB81B3807F81BB84B3806F84BB18BA06
:100210001F9108951F920F920FB60F9211248F9382
:10022000DF93CF930F92CDB7DEB780919C00898387
:1002300080919B00887BE1F381E080935A02898161
:1002400080935B020F90CF91DF918F910F900FBE43
:100250000F901F901895DF93CF930F92CDB7DEB715
:1002600080915B02898310925B02F89410925A028B
:10027000789489810F90CF91DF91089590919B00A0
:1002800095FFFCCF80939C000895CF93DF93E4E724
:10029000F0E094EA9083A1EEB2E01197F1F700004C
:1002A000A3E7B0E09EE09C9394E89083C1EED2E097
:1002B0002197F1F700008C93908381EE92E00197F3
:1002C000F1F7000084E98083DF91CF910895EF92E8
:1002D000FF920F931F93DF93CF9300D0CDB7DEB77C
:1002E000082F162F843070F5643160F58BE1498357
:1002F0005A830E9445018CE40E944501812F0E948F
:100300004501802F0E94450180E791E00197F1F7B8
:1003100000C0E12EFF2449815A81042F152F06C009
:100320000E94450194EC9A95F1F700C0E4E1EE16C5
:10033000F10444F4F80181918F010894E11CF11C4F
:10034000882371F70F900F90CF91DF911F910F913C
:10035000FF90EF9008951F93DF93CF9300D0CDB718
:10036000DEB7182F8430F0F46431E0F48BE12A8397
:1003700069830E9445018CE40E9445016981862FB2
:100380000E944501812F0E94450180E791E001977D
:10039000F1F700C02A81822F0E94450194EC9A95C2
:1003A000F1F700C00F900F90CF91DF911F9108954A
:1003B0008BE10E94450183E40E94450186E696EEAA
:1003C000A0E081509040A040E1F70895EF92FF92A5
:1003D0000F931F93182FF62EE42E842F64E60E94AD
:1003E000C470082F282F30E0205D3F4F442737FD91
:1003F0004095542F812F6F2D0E94AB018CE9089FEF
:10040000002D11240E0D802F6AE00E94C470E82E8A
:100410006F2D6F5F282F30E0205D3F4F442737FD61
:100420004095542F812F0E94AB016F2D6E5F26EFF8
:10043000E29E202D1124200F30E0205D3F4F442705
:1004400037FD4095542F812F0E94AB011F910F91D2
:10045000FF90EF9008952F923F924F925F926F928C
:100460007F928F929F92AF92BF92CF92DF92EF9244
:10047000FF920F931F93CF93DF932C01EB01809199
:10048000C2029091C302009799F0F201EE0FFF1F94
:10049000E40DF51DEE0FFF1FE60FF71FEE0FFF1F18
:1004A000E658FD4F80819181009711F00C9408244B
:1004B0000E94D80100D000D00DED13E0ADB7BEB75B
:1004C00012961C930E9311971496DC93CE93139768
:1004D0000E94246A0F900F900F900F9080E091E09F
:1004E000642DA8010E94670180915C0290915D02D9
:1004F000009731F00E949D47B59BFECFB599FECF86
:100500004114510409F080C1C130D10511F00C949F
:100510007A0E0F2EF0E06F2EF0E07F2EF0E08F2E9F
:10052000F0E09F2EF02D6092F0027092F102809226
:10053000F2029092F3026092D6027092D7028092F9
:10054000D8029092D902FAE52F2E312C3092130363
:100550002092120386E090E060E970E044E050E011
:1005600027EC30E005E010E0E4EAEE2EF12CB2E3F7
:10057000CB2ED12CAEE1AA2EB12C0E94216210927A
:1005800013031092120380E090E06FE070E042EEFF
:100590005FEF28E230E002E310E00E943C5882EE78
:1005A0009FEF909313038093120384E190E066EA37
:1005B0007FEF4AE050E028E230E000E010E00E94E7
:1005C000D859ECEEFFEFF0931303E093120388E0A9
:1005D00090E060E070E044E150E023E230E00E940F
:1005E0003C5810921303109212038CE090E068E0E4
:1005F00070E045E050E023E030E004E110E0EE245C
:10060000FF24FCE3CF2ED12CE6E4AE2EB12C0E94C9
:1006100006558AE090E068E070E041E450E025E0B3
:1006200030E0AA24BB240E9406558DE090E068E0EB
:1006300070E048EE53E025E030E00E94065520913E
:1006400022033091230382179307D1F58DEF9FEF9B
:1006500066E270E04AE550E02DE230E009EC1FEF81
:100660000E943C586092F0027092F1028092F20275
:100670009092F3026092D6027092D7028092D802D2
:100680009092D902309213032092120380E090E0FE
:1006900060E070E044E050E027EC30E005E010E07E
:1006A000B4EAEB2EF12CA2E3CA2ED12C0E942162D7
:1006B00010921303109212030E949D470C941E196E
:1006C00080E090E06AE070E04CEE5FEF28E230E01E
:1006D0000EEC1FEF0E943C588CEE9FEF909313039B
:1006E000809312038CE090E066E070E04BEF5FEFE8
:1006F00023E030E00EE010E0EE24FF24F2E3CF2E02
:10070000D12CECE3AE2EB12C0E9406558AE090E08D
:1007100066E070E044EC5FEF25E030E0AA24BB2403
:100720000E9406558BEF9FEF66E070E048E15CEFBA
:1007300025E030E0B6E1EB2EF12C0E94065584EF67
:100740009FEF66EA7FEF4CEE5FEF28E230E000E0DB
:1007500010E00E94D859C8EDDFEFD0931303C09387
:1007600012038BEF9FEF60E070E040E050E028E282
:1007700030E00E94F84C82E390E090931303809362
:1007800012038CEE9FEF6AE570E040E050E028E253
:1007900030E00E94D859D0931303C093120380E035
:1007A00090E061EF7FEF48E250E028E230E00EECAD
:1007B0001FEFACE3EA2EF12C0E94165D6092F0026E
:1007C0007092F1028092F2029092F3026092D6024D
:1007D0007092D7028092D8029092D902309213037D
:1007E0002092120386E090E060E970E044E050E07F
:1007F00027EC30E005E010E0F4EAEF2EF12CE4E124
:10080000AE2EB12C0C94022491E04916510409F04B
:1008100084C1C230D10511F00C947A100F2EF0E093
:100820006F2EF0E07F2EF0E08F2EF0E09F2EF02D67
:100830006092F0027092F1028092F2029092F302C2
:100840006092D6027092D7028092D8029092D9021A
:100850001AE5212E312C309213032092120380E0EE
:1008600090E060E070E044E050E027EC30E005E02C
:1008700010E0B4EAEB2EF12CA2E3CA2ED12CAA246C
:10088000BB240E94216210921303109212038CEE7B
:100890009FEF60E070E046EA5FEF24E130E002E8BD
:1008A00010E0FCE3EF2EF12CE2E8CE2ED12C0E94DA
:1008B000DB528CE090E068E070E045E050E023E03F
:1008C00030E002E110E0EE24FF24B2E3CB2ED12C85
:1008D000ACE3AA2EB12C0E9406558AE090E068E0B5
:1008E00070E045E050E025E030E0AA24BB240E94FF
:1008F00006558DE090E068E070E048EE53E025E0BA
:1009000030E00E9406552091220330912303821784
:10091000930709F0A6C08AE090E068E070E04FE03D
:1009200050E025E030E00E9406558DEF9FEF68E231
:1009300070E04AE550E028E230E00EEC1FEF0E9444
:100940003C586092F0027092F1028092F202909212
:10095000F3026092D6027092D7028092D8029092EF
:10096000D902309213032092120380E090E060E0FD
:1009700070E044E050E027EC30E005E010E0F4EAFD
:10098000EF2EF12C0E942162109213031092120399
:100990008091E7028F3108F44BC06092F0027092B0
:1009A000F1028092F2029092F3026092D60270926B
:1009B000D7028092D8029092D902309213032092EB
:1009C000120380E090E060E070E044E050E027EC4B
:1009D00030E00E94216210921303109212038FEFF5
:1009E0009FEF6FE070E040E050E024E130E002E88B
:1009F00010E00E94F84C10921303109212036092C0
:100A0000F0027092F1028092F2029092F3026092F0
:100A1000D6027092D7028092D8029092D90280E0DA
:100A200090E060E070E048E050E02DE730E0C6C4C0
:100A30006092F0027092F1028092F2029092F302C0
:100A40006092D6027092D7028092D8029092D90218
:100A5000309213032092120386E090E060E970E088
:100A60003AC580E090E06AE070E044E150E028E2BE
:100A700030E00EEC1FEF0E943C5884E190E0909330
:100A80001303809312038CE090E065E070E046EF82
:100A90005FEF23E030E00EE010E0EE24FF24E2E31D
:100AA000CE2ED12CBCE3AB2EB12C0E9406558AE091
:100AB00090E065E070E040EB5FEF25E030E0A4EC13
:100AC000AA2EAFEFBA2E0E9406558EEF9FEF64E17B
:100AD00070E046E450E024E130E002E810E0F4E6A3
:100AE000EF2EF12CE8E7CE2ED12C0E94DB52609243
:100AF000F0027092F1028092F2029092F302609200
:100B0000D6027092D7028092D8029092D902309287
:100B10001303209212030C94F023A2E04A1651040E
:100B200009F026C7C330D10511F00C947A1020913A
:100B3000E70281E090E02F3110F480E090E09093A4
:100B400065028093640220911C0330911D032115DE
:100B5000310509F034C21DED612E13E0712E0097AE
:100B600009F494C081EF9FEF62E070E046EA5FEF26
:100B700028E230E006E910E0BCE3EB2EF12CA2E81D
:100B8000CA2ED12C0E94DB5210920F0310920E033A
:100B900010920D0310920C0310920503109204039F
:100BA00010921503109214031092DF021092DE02CD
:100BB0008CE090E068E070E045E050E023E030E059
:100BC00007E110E0EE24FF24F8E2CF2ED12CE2E37F
:100BD000AE2EB12C0E9406558AE090E068E070E0ED
:100BE0004AE250E025E030E0BEECAB2EBFEFBB2E7A
:100BF0000E94065580E090E060E070E046E450E03E
:100C000024E630E008E710E00E94F84C86E490E02B
:100C100090931303809312030E94D80100D000D058
:100C200000D0EDB7FEB73196ADB7BEB712967C9245
:100C30006E9211978EE091E09383828380911403EA
:100C400090911503958384830E94246AEDB7FEB7C3
:100C500036960FB6F894FEBF0FBEEDBF81E061E09F
:100C6000A3010E9467018091140390911503909352
:100C70001D0380931C038DEF9FEF61E170E044E161
:100C800050E02EE130E00CE810E0FAC181E090E0A5
:100C90006CE170E044EC5FEF28E230E002E310E04A
:100CA0000E943C5884EC9FEF9093130380931203AF
:100CB00089E190E066EA7FEF44EC5FEF28E230E004
:100CC00000E010E00E94D85982EE9FEF909313034A
:100CD0008093120382E090E069E170E044EC5FEF02
:100CE00028E230E00EEC1FEFACE3EA2EF12C0E947C
:100CF000165D109213031092120386EA9FEF6AE0CA
:100D000070E00E94D06810920F0310920E031092B0
:100D10000D0310920C03109205031092040310921D
:100D20001503109214031092DF021092DE028CE081
:100D300090E061E070E045E050E023E030E00BE05F
:100D400010E0EE24FF24F8E2CF2ED12CE2E3AE2E09
:100D5000B12C0E9406558AE090E061E070E045E029
:100D600050E025E030E0AA24BB240E94065580E034
:100D700090E061E070E048EE53E025E030E0BDE255
:100D8000EB2EF12C0E9406558AE090E061E070E0C5
:100D90004FE050E025E030E0EE24FF24AEECAA2E38
:100DA000AFEFBA2E0E9406550E94D80100D000D0A5
:100DB00000D0EDB7FEB73196ADB7BEB712967C92B4
:100DC0006E92119787E191E09383828380910C0367
:100DD00090910D03958384830E94246AEDB7FEB73A
:100DE00036960FB6F894FEBF0FBEEDBF81E061E00E
:100DF000A3010E94670180910C0390910D039093D1
:100E00001D0380931C0380915C0290915D0200970A
:100E100031F00E949D47B59BFECFB599FECF80E093
:100E200090E066EF7FEF41EF5FEF2EE130E008E208
:100E300010E00E943C5881EF9FEF90931303809342
:100E400012038CE090E063E070E04BEF5FEF23E093
:100E500030E004E010E0EE24FF24F8E2CF2ED12CA5
:100E6000AA24BB240E9406558AE090E063E070E06B
:100E700043ED5FEF25E030E0EEECAE2EEFEFBE2E5F
:100E80000E94065583E090E06EE170E045EB5FEF75
:100E90002EE130E00CE810E0B4E6EB2EF12C0E94DD
:100EA000165D80E090E0DC018093F0029093F10207
:100EB000A093F202B093F3028093D6029093D702EC
:100EC000A093D802B093D9028AE590E090931303DF
:100ED0008093120380E090E060E070E044E050E036
:100EE00027EC30E005E010E0A4EAEA2EF12CF2E372
:100EF000CF2ED12CAA24BB240E942162109213036E
:100F00001092120380E090E06EEF7FEF40E050E03F
:100F10002AE030E008E710E00E94F84C8CEE9FEFEA
:100F200060E070E04AEB5FEF2EE130E008E210E0B5
:100F30000E943C5884E190E0909313038093120345
:100F40008CE090E065E070E04BEF5FEF23E030E095
:100F50000BE010E0EE24FF24E3E2CE2ED12C0E9421
:100F600006558AE090E065E070E04BEF5FEF25E02A
:100F700030E0B8E2CB2ED12C0E9406558CEF9FEFCB
:100F800065E070E048E15CEF25E030E0A4E1EA2EA6
:100F9000F12C0E94065580E090E066EF7FEF4CEE6A
:100FA0005FEF28E230E00EEC1FEFF8E2EF2EF12CBD
:100FB0000E94165D1092130310921203A2C00097B4
:100FC00009F061C080E090E0DC018093F002909332
:100FD000F102A093F202B093F3028093D6029093B1
:100FE000D702A093D802B093D9028AE590E09093FB
:100FF00013038093120386E090E060E970E044E020
:1010000050E027EC30E005E010E0E4EAEE2EF12CB1
:10101000B2E3CB2ED12CAEE1AA2EB12C0E942162DC
:10102000109213031092120381E090E06CE170E0E3
:1010300044EC5FEF28E230E002E310E00E943C580D
:1010400084EC9FEF909313038093120389E190E067
:1010500066EA7FEF40E050E028E230E000E010E098
:101060000E94D8598EE190E090931303809312036D
:1010700080E090E067E170E04CE350E023E230E094
:101080000E943C5897CF8CEE9FEF60E070E046EAFC
:101090005FEF2EE130E00CE810E0FCE3EF2EF12CE6
:1010A000E2E8CE2ED12C0E94DB528CE090E068E08A
:1010B00070E045E050E023E030E002E110E0EE2493
:1010C000FF24B8E2CB2ED12CA2E3AA2EB12C0E9491
:1010D00006558AE090E068E070E049E150E025E0E4
:1010E00030E0AA24BB240E9406558DEF9FEF66E2F4
:1010F00070E04AE550E028E230E000E010E00E94B5
:101100003C5880911A0390911B03009709F00CC37F
:101110008CE090E068E070E045E050E023E030E0F3
:101120000FE010E0EE24FF24F8E2CF2ED12CE2E312
:10113000AE2EB12C0E9406558AE090E068E070E087
:1011400045E050E025E030E0AA24BB240E9406558B
:101150008DE090E068E070E048EE53E025E030E09C
:101160000E94065520912203309123038217930792
:1011700009F0C1C180E090E068E070E048EE53E023
:1011800025E030E0B8E2EB2EF12CA2E3CA2ED12C00
:101190000E94065510920F0310920E0310920D0339
:1011A00010920C0310920503109204031092150381
:1011B000109214031092DF021092DE028AE090E097
:1011C00068E070E04FE050E025E030E0F4ECAF2E56
:1011D000FFEFBF2E0E9406550E94D80100D000D01C
:1011E00000D0EDB7FEB731960DED13E0ADB7BEB749
:1011F00012961C930E9311978FE191E09383828353
:1012000080910E0390910F03958384830E94246A3A
:10121000EDB7FEB736960FB6F894FEBF0FBEEDBF22
:1012200081E061E0A8010E94670180910E03909126
:101230000F0390931B0380931A0380915C0290919B
:101240005D02009731F00E949D47B59BFECFB59996
:10125000FECF2091E20281E090E02F3110F080E09B
:1012600090E09093630280936202009709F0E2C0DD
:101270008EEF9FEF64E170E04AE550E024E130E05A
:1012800002E810E0E4E6EE2EF12CB8E7CB2ED12CEC
:101290000E94DB520F2EF0E06F2EF0E07F2EF0E088
:1012A0008F2EF0E09F2EF02D6092F0027092F102EE
:1012B0008092F2029092F3026092D6027092D7026C
:1012C0008092D8029092D902AAE52A2E312C30922F
:1012D00013032092120386E090E060E970E044E09E
:1012E00050E027EC30E005E010E0F4EAEF2EF12CBE
:1012F000E2E3CE2ED12CBEE1AB2EB12C0E942162B6
:1013000010921303109212038DEF9FEF62E370E0CF
:101310004AE550E028E230E006E910E00E943C583F
:101320006092F0027092F1028092F2029092F302C7
:101330006092D6027092D7028092D8029092D9021F
:10134000309213032092120380E090E060E070E09E
:1013500044E050E027EC30E005E010E0AA24BB2494
:101360000E942162109213031092120381E090E018
:101370006FE070E040E050E024E130E002E810E08F
:101380000E94F84C10921303109212036092F00224
:101390007092F1028092F2029092F3026092D60271
:1013A0007092D7028092D8029092D90280E090E0A9
:1013B00060E070E041E050E020E930E000E010E063
:1013C000EE24FF24A4E1CA2ED12C0E9421620E94A7
:1013D0009D4780E090E061EF7FEF40E050E024E146
:1013E00030E002E810E00E94F84C6092F002709247
:1013F000F1028092F2029092F3026092D602709211
:10140000D7028092D8029092D90230921303209290
:10141000120380E090E060E070E044E050E027ECF0
:1014200030E005E010E0F4EAEF2EF12CE2E3CE2EFE
:10143000D12C1DC680E090E068EF7FEF40E050E0E7
:1014400028E230E002E310E00E94F84C87EE9FEFC4
:1014500066EA7FEF4AEB5FEF23E230E000E010E066
:101460000E94D85984E190E0909313038093120373
:1014700082EE9FEF66EA7FEF46EA5FEF23E230E01D
:101480000E94D85980E090E061EF7FEF4CEE5FEF73
:1014900028E230E00EEC1FEF0E943C5880E090E024
:1014A000DC018093F0029093F102A093F202B093DA
:1014B000F3028093D6029093D702A093D802B09300
:1014C000D9028AE590E0909313038093120383E09E
:1014D00090E06EE770E044E050E027EC30E005E09B
:1014E00010E0B4EAEB2EF12CA2E3CA2ED12CF4E1E9
:1014F000AF2EB12CBCC58091620290916302813005
:10150000910509F051C080E090E06AE070E044E1AC
:1015100050E023E230E003ED1FEF0E943C5884E1ED
:1015200090E0909313038093120387EE9FEF66EA97
:101530007FEF4AEB5FEF23E230E00DE210E00E9424
:10154000D85988E290E0909313038093120382EEBF
:101550009FEF6AE570E040E050E028E230E000E014
:1015600010E00E94D85984E190E060E070E042E32E
:1015700050E02EE130E008ED1FEF0E943C5880E083
:1015800090E0DC018093F0029093F102A093F202CC
:10159000B093F3028093D6029093D702A093D8021F
:1015A000B093D9020C94C52180E090E06AE070E02D
:1015B0004CEE5FEF23E230E003ED1FEF0E943C585A
:1015C0008CEE9FEF90931303809312038CE090E0D6
:1015D00066E070E04BEF5FEF23E030E00BE010E0FF
:1015E000EE24FF24E8E2CE2ED12CB2E3AB2EB12CB8
:1015F0000E9406558AE090E066E070E04BEF5FEFF6
:1016000023E030E0AA24BB240E9406558BEF9FEF15
:1016100066E070E048E15CEF23E030E0A7E1EA2E0D
:10162000F12C0E94065584EF9FEF66EA7FEF40E0C1
:1016300050E028E230E000E010E00E94D8598CEE43
:101640009FEF6FEF7FEF4EEC5FEF23E230E00E9401
:101650003C5884E190E090931303809312038CE054
:1016600090E065E070E04BEF5FEF23E030E00BE0EF
:1016700010E0EE24FF24F2E3AF2EB12C0E940655B9
:101680008AE090E065E070E04DED5FEF23E030E050
:10169000EEECAE2EEFEFBE2E0E9406558EEF9FEFC2
:1016A00064E170E046E450E02EE130E00CE810E048
:1016B000B4E6EB2EF12CA8E7CA2ED12C0E94DB5207
:1016C0000F2EF0E06F2EF0E07F2EF0E08F2EF0E096
:1016D0009F2EF02D6092F0027092F1028092F20241
:1016E0009092F3026092D6027092D7028092D80252
:1016F0009092D902CAE5D0E0D0931303C0931203AD
:1017000080E090E060E070E044E050E027EC30E002
:1017100005E010E0F4EAEF2EF12CE2E3CE2ED12C1E
:10172000AA24BB240C9485218091620290916302CB
:10173000009709F09EC08CE090E068E070E045E022
:1017400050E023E030E00FE010E0EE24FF24B2E3AD
:10175000CB2ED12CACE3AA2EB12C0E9406558AE0E8
:1017600090E068E070E045E050E025E030E0AA2439
:10177000BB240E9406558DE090E068E070E048EEE2
:1017800053E025E030E00E94065581E090E068E0FB
:1017900070E048EE53E025E030E0FEE1EF2EF12C62
:1017A0000E9406558DEF9FEF69E270E04AE550E038
:1017B00023E230E000E010E00E943C588CE090E032
:1017C00068E070E045E050E023E030E00FE010E03A
:1017D000EE24FF24ECE3AE2EB12C0E9406558AE0E5
:1017E00090E068E070E045E050E023E030E0AA24BB
:1017F000BB240E9406558DEF9FEF68E270E04AE53A
:1018000050E022E330E004EC1FEFB0E5EB2EF12CCA
:101810000E94165D0F2EF0E06F2EF0E07F2EF0E0BC
:101820008F2EF0E09F2EF02D6092F0027092F10268
:101830008092F2029092F3026092D6027092D702E6
:101840008092D8029092D902AAE52A2E312C3092A9
:1018500013032092120380E090E060E070E044E027
:1018600050E027EC30E005E010E0F4EAEF2EF12C38
:1018700077CD8CE090E068E070E045E050E023E058
:1018800030E00FE010E0EE24FF24E2E3CE2ED12C76
:10189000BCE3AB2EB12C0E9406558DE090E068E0D1
:1018A00070E048EE53E025E030E0AA24BB240E941B
:1018B000065580E090E06CE070E044E150E028E202
:1018C00030E000E010E00E943C5884E190E090930A
:1018D0001303809312038CE190E06AE570E04AE51F
:1018E00050E028E230E00E94D8598CE190E066EAAE
:1018F0007FEF48E250E028E230E00E94D8598CE3C4
:1019000090E0909313038093120387E190E062E0EC
:1019100070E04EE150E028E230E00EEC1FEF0E9454
:101920003C5880E090E0DC018093F0029093F1025B
:10193000A093F202B093F3028093D6029093D70261
:10194000A093D802B093D9028AE590E09093130354
:101950008093120383E090E06EE770E044E050E093
:1019600027EC30E005E010E0A4EAEA2EF12C7CC37D
:10197000F3E04F16510409F0BDC1C430D10511F098
:101980000C94271660E070E084EB92EC44E650E0A3
:101990000E94B65B0F2EF0E06F2EF0E07F2EF0E09D
:1019A0008F2EF0E09F2EF02D609232037092330361
:1019B00080923403909235038091320390913303E7
:1019C000A0913403B091350380932E0390932F039D
:1019D000A0933003B093310380912E0390912F0395
:1019E000A0913003B091310380932A0390932B038D
:1019F000A0932C03B0932D038CE090E068E070E09E
:101A000045E050E023E030E002E110E0EE24FF2466
:101A1000F2E3CF2ED12CECE3AE2EB12C0E94065572
:101A20008AE090E068E070E045E050E025E030E0DA
:101A3000AA24BB240E9406558DE090E068E070E087
:101A400048EE53E025E030E00E9406552091220345
:101A5000309123038217930781F58DEF9FEF65E2A5
:101A600070E04AE550E028E230E00EEC1FEF0E9403
:101A70003C586092F0027092F1028092F2029092D1
:101A8000F3026092D6027092D7028092D8029092AE
:101A9000D9028AE590E0909313038093120380E0CB
:101AA00090E060E070E044E050E027EC30E005E0DA
:101AB00010E0B4EAEB2EF12CDAC280E090E06AE0AC
:101AC00070E044E150E028E230E00EEC1FEF0E94AD
:101AD0003C5884E190E0909313038093120320908C
:101AE0002E0330902F0340903003509031038CE050
:101AF00090E065E070E04BEF5FEF23E030E00EE058
:101B000010E0EE24FF24A8E2CA2ED12CF2E3AF2E7F
:101B1000B12C0E940655C201B1010E943B6B4FE0FF
:101B200050E0461B570B8AE090E065E070E025E04E
:101B300030E0AA24BB240E94065580E090E066EFC6
:101B40007FEF46E450E028E230E00EEC1FEFE4E6E1
:101B5000EE2EF12C0E94165D6092F0027092F1025E
:101B60008092F2029092F3026092D6027092D702B3
:101B70008092D8029092D902CAE5D0E0D0931303A4
:101B8000C093120380E090E060E070E044E050E039
:101B900027EC30E005E010E0B4EAEB2EF12CA2E3F4
:101BA000CA2ED12C0E9421621092130310921203AC
:101BB0008091E2028F3108F487C06092F002709247
:101BC000F1028092F2029092F3026092D602709239
:101BD000D7028092D8029092D902D0931303C09377
:101BE000120380E090E060E070E044E050E027EC19
:101BF00030E00E942162109213031092120381E0E0
:101C000090E06FE070E040E050E024E130E002E876
:101C100010E00E94F84C109213031092120360928D
:101C2000F0027092F1028092F2029092F3026092BE
:101C3000D6027092D7028092D8029092D90280E0A8
:101C400090E060E070E041E050E020E930E000E04A
:101C500010E0EE24FF24F4E1CF2ED12C0E9421626B
:101C60000E949D4780E090E061EF7FEF40E050E010
:101C700024E130E002E810E00E94F84C6092F002AB
:101C80007092F1028092F2029092F3026092D60278
:101C90007092D7028092D8029092D902D093130307
:101CA000C093120380E090E060E070E044E050E018
:101CB00027EC30E005E010E0E4EAEE2EF12CB2E390
:101CC000CB2ED12C0C9402246092F0027092F1027F
:101CD0008092F2029092F3026092D6027092D70242
:101CE0008092D8029092D902D0931303C09312032A
:101CF0000C94001E84E04816510409F0FBC1C53065
:101D0000D10511F00C9489170F2EF0E06F2EF0E042
:101D10007F2EF0E08F2EF0E09F2EF02D6092F002EB
:101D20007092F1028092F2029092F3026092D602D7
:101D30007092D7028092D8029092D902AAE5B0E0C0
:101D4000B0931303A093120380E090E060E070E092
:101D500044E050E027EC30E005E010E0A4EAEA2E91
:101D6000F12CF2E3CF2ED12CAA24BB240E942162B5
:101D700010921303109212038091C2029091C30239
:101D8000009709F4AFC08091B4029091B50200971A
:101D900009F0A8C08EE190E060E070E04EE650E00F
:101DA0002EE130E008E210E00E943C5884E190E02F
:101DB00090931303809312038CE090E063E070E053
:101DC0004BEF5FEF23E030E002E110E0EE24FF2470
:101DD0000E9406558AE090E063E070E044EC5FEF1B
:101DE00025E030E00E9406558CEF9FEF63E070E045
:101DF00048E15CEF25E030E0E6E1EE2EF12C0E94B8
:101E0000065584EF9FEF6AE570E044E150E028E278
:101E100030E000E010E00E94D859B8E22B2E312CBF
:101E2000309213032092120385E090E060E070E0AE
:101E300040E050E028E230E00E94F84C8EEC9FEF4A
:101E400090931303809312038CEE9FEF66EA7FEF6B
:101E500040E050E028E230E00E94D859309213036D
:101E60002092120380E090E064EF7FEF48ED5FEF97
:101E700028E230E00EEC1FEFACE3EA2EF12C0E94DA
:101E8000165D6092F0027092F1028092F2029092DE
:101E9000F3026092D6027092D7028092D80290929A
:101EA000D902EAE5F0E0F0931303E093120383E034
:101EB00090E06EE770E044E050E027EC30E005E0B1
:101EC00010E0F4EAEF2EF12CE4E1AE2EB12C0E94EA
:101ED00021621092130310921203D0932903C0932E
:101EE0002803B5C68CEE9FEF60E070E046EA5FEF36
:101EF00028E230E006E910E0BCE3EB2EF12CA2E88A
:101F0000CA2ED12C0E94DB528CE090E068E070E099
:101F100045E050E023E030E002E110E0EE24FF2451
:101F2000FCE3CF2ED12CE6E4AE2EB12C0E94065558
:101F30008AE090E068E070E045E050E025E030E0C5
:101F4000AA24BB240E9406558DE090E068E070E072
:101F500048EE53E025E030E00E9406552091220330
:101F6000309123038217930709F088C08AE090E03C
:101F700068E070E044E650E025E030E00E9406555D
:101F800080E090E068E070E048EE53E025E030E06B
:101F9000B8E2EB2EF12C0E94065580E090E069E05B
:101FA00070E044E150E02DE230E000E010E00E94FB
:101FB0003C58A4E16A2E712C7092130360921203B4
:101FC00084E190E06AE570E046E450E028E230E029
:101FD0000E94D85910921303109212038FE090E0E0
:101FE00066EA7FEF44E150E028E230E00E94D859F1
:101FF00070921303609212038AE090E060E070E058
:1020000046E450E028E230E00EEC1FEFF4E6EF2E5D
:10201000F12C0E94165D80E090E0DC018093F002DC
:102020009093F102A093F202B093F3028093D60250
:102030009093D702A093D802B093D9028AE590E09A
:10204000909313038093120383E090E06EE770E0B7
:1020500044E050E027EC30E005E010E0E4EAEE2E4A
:10206000F12CB2E3CB2ED12CAEE1AA2EB12C0E94E2
:1020700021621092130310921203E9C580E090E0F0
:102080006AE070E044E150E022E330E004EC1FEF4E
:102090000E943C5884E190E09093130380931203D4
:1020A0008CE090E065E070E046EF5FEF23E030E029
:1020B0000EE010E0EE24FF24F2E3CF2ED12CECE36F
:1020C000AE2EB12C0E9406558AE090E065E070E0EB
:1020D00040EB5FEF23E030E0B4ECAB2EBFEFBB2E64
:1020E0000E9406558EEF9FEF62E170E046E450E0FB
:1020F0000C94CB23F5E04F16510409F0D9C2209778
:1021000009F0A5C50F2EF0E06F2EF0E07F2EF0E075
:102110008F2EF0E09F2EF02D6092F0027092F1026F
:102120008092F2029092F3026092D6027092D702ED
:102130008092D8029092D9028AE590E0909313039E
:102140008093120383E090E06EE770E044E050E09B
:1021500027EC30E005E010E0A4EAEA2EF12CF2E3EF
:10216000CF2ED12CEEE1AE2EB12C0E942162109226
:1021700013031092120360923E0370923F03809209
:1021800040039092410380913E0390913F03A091C0
:102190004003B091410380933A0390933B03A09393
:1021A0003C03B0933D0360923203709233038092FC
:1021B0003403909235038091320390913303A091C0
:1021C0003403B091350380932E0390932F03A09393
:1021D0003003B093310380912E0390912F03A0918F
:1021E0003003B091310380932A0390932B03A09383
:1021F0002C03B0932D0380E063E10E942A698823B9
:10220000D1F38CE00E94486960E070E084EB92ECCE
:1022100044E650E00E94B65B80E090E0DC018093F1
:10222000F0029093F102A093F202B093F302809334
:10223000D6029093D702A093D802B093D9028AE530
:1022400090E0909313038093120386E090E060E99E
:1022500070E044E050E027EC30E005E010E0B4EA44
:10226000EB2EF12CA2E3CA2ED12CFEE1AF2EB12C25
:102270000E94216210921303109212038091720245
:1022800090917302009709F0EFC087E690E062E05A
:1022900070E00E94F147082F66E60E942A698733A2
:1022A00030F0802F67E60E942A698E3138F481E091
:1022B00090E0909319038093180304C010921903BF
:1022C0001092180382EE9FEF60E070E040E050E073
:1022D00028E230E006E910E00E94F84C0F2EF0E012
:1022E0006F2EF0E07F2EF0E08F2EF0E09F2EF02D8D
:1022F0006092F0027092F1028092F2029092F302E8
:102300006092D6027092D7028092D8029092D9023F
:1023100080E090E060E070E041E050E026E630E0F0
:1023200000E010E0EE24FF24E4E1CE2ED12CAA241C
:10233000BB240E94216287E690E062E070E00E9488
:10234000F14720912203309123038217930709F06C
:102350008BC0609232037092330380923403909268
:10236000350320913203309133034091340350916F
:10237000350320932E0330932F0340933003509363
:10238000310320912E0330912F034091300350915F
:10239000310320932A0330932B0340932C03509353
:1023A0002D036092F0027092F1028092F2029092FC
:1023B000F3026092D6027092D7028092D802909275
:1023C000D90262E870E04AE550E00E948A486091D4
:1023D00032037091330380913403909135030E944E
:1023E0003B6B709313036093120380E090E061E114
:1023F00070E040E050E024E130E002E810E00E94AC
:10240000F84C60912E0370912F03809130039091CE
:1024100031036090320370903303809034039090C6
:10242000350390580E943B6B7B018C01C401B301C2
:1024300090580E943B6B9B01AC0180E090E0B7019B
:10244000A9012EE130E00CE810E0BCE3EB2EF12C0A
:102450000E94165D109213031092120386EA9FEFFA
:102460006AE070E00E94D06820911803309119034F
:1024700080917202909173022115310509F0A8C074
:10248000009761F082EE9FEF60E070E040E050E086
:102490002EE130E008E210E00E94F84C8CE090E081
:1024A00061E070E045E050E023E030E00CE010E057
:1024B000EE24FF24A2E3CA2ED12CFCE3AF2EB12CD4
:1024C0000E9406558AE090E061E070E04FE050E045
:1024D00025E030E0AA24BB240E94065580E090E06D
:1024E00064E170E040E050E022E330E000E010E022
:1024F0000E94F84C8CE090E061E070E045E050E034
:1025000023E030E00CE010E00E9406558AE090E005
:1025100061E070E045E050E025E030E00E940655C3
:1025200081E090E061E070E048EE53E025E030E0CB
:10253000E4E1EE2EF12C0E9406558AE090E066EA76
:102540007FEF44E150E023E230E000E010E00E9441
:10255000D85984E190E090931303809312038FE0A5
:1025600090E060E070E046E450E028E230E00EECFD
:102570001FEFB4E6EB2EF12C0E94165D80E090E098
:10258000DC018093F0029093F102A093F202B093E9
:10259000F3028093D6029093D702A093D802B0930F
:1025A000D9028AE590E0909313038093120386E0AA
:1025B00090E060E970E044E050E027EC30E005E0B6
:1025C00010E0A4EAEA2EF12CFEE1AF2EB12C63C09C
:1025D000009761F48EE190E060E070E040E050E050
:1025E0002EE130E008E210E00E94F84C8CE090E030
:1025F00068E070E04AE050E023E030E000E110E005
:10260000EE24FF24E2E3CE2ED12CBCE3AB2EB12C82
:102610000E9406558AE090E068E070E048E250E0F1
:1026200025E030E0AA24BB240E9406558DEF9FEFE1
:1026300068E270E04AE550E028E230E00EEC1FEF7F
:102640000E943C5880E090E0DC018093F00290937F
:10265000F102A093F202B093F3028093D60290931A
:10266000D702A093D802B093D9028AE590E0909364
:1026700013038093120386E090E060E970E044E089
:1026800050E027EC30E005E010E0A4EAEA2EF12C5F
:10269000F4E1AF2EB12C0E9421621092130310922C
:1026A000120381E090E09093730280937202CFC294
:1026B0004114510409F0CBC2C530D10509F0BEC5A3
:1026C00080E063E10E942A698823D1F30F2EF0E0B5
:1026D0006F2EF0E07F2EF0E08F2EF0E09F2EF02D99
:1026E0006092F0027092F1028092F2029092F302F4
:1026F0006092D6027092D7028092D8029092D9024C
:10270000CAE5D0E0D0931303C093120386E090E0B3
:1027100060E970E044E050E027EC30E005E010E0D4
:10272000E4EAEE2EF12CB2E3CB2ED12CAEE1AA2EB0
:10273000B12C0E9421621092130310921203609236
:102740003203709233038092340390923503809168
:10275000320390913303A0913403B09135038093F9
:102760002E0390932F03A0933003B09331038091F5
:102770002E0390912F03A0913003B09131038093E9
:102780002A0390932B03A0932C03B0932D03609204
:102790003E0370923F0380924003909241038091E8
:1027A0003E0390913F03A0914003B0914103809379
:1027B0003A0390933B03A0933C03B0933D038CE01A
:1027C0000E94486960E070E084EB92E444E650E0E7
:1027D0000E94B65B6092F0027092F1028092F20267
:1027E0009092F3026092D6027092D7028092D80241
:1027F0009092D902D0931303C093120383E090E028
:102800006EE770E044E050E027EC30E00E94216287
:10281000109213031092120380917202909173022E
:10282000009709F0EFC087E690E062E070E00E9458
:10283000F147082F66E60E942A69833D30F4802F15
:1028400067E60E942A698E3138F481E090E0909327
:1028500019038093180304C01092190310921803EF
:102860008EE190E060E070E040E050E028E230E08F
:1028700006E910E00E94F84C0F2EF0E06F2EF0E019
:102880007F2EF0E08F2EF0E09F2EF02D6092F00270
:102890007092F1028092F2029092F3026092D6025C
:1028A0007092D7028092D8029092D90280E090E094
:1028B00060E070E048E050E020E730E000E010E049
:1028C000EE24FF24F4E1CF2ED12CAA24BB240E94B5
:1028D000216287E690E062E070E00E94F14720917B
:1028E0002203309123038217930709F08BC0609273
:1028F0003203709233038092340390923503209117
:1029000032033091330340913403509135032093C7
:102910002E0330932F0340933003509331032091C3
:102920002E0330912F0340913003509131032093B7
:102930002A0330932B0340932C0350932D03609272
:10294000F0027092F1028092F2029092F302609291
:10295000D6027092D7028092D8029092D90262E891
:1029600070E04AE550E00E948A486091320370911D
:10297000330380913403909135030E943B6B709335
:1029800013036093120380E090E061E170E040E0A7
:1029900050E024E130E002E810E00E94F84C609141
:1029A0002E0370912F03809130039091310360903A
:1029B0003203709033038090340390903503905825
:1029C0000E943B6B1B012C01C401B30190580E9473
:1029D0003B6B9B01AC0180E090E0B101A9012EE1CD
:1029E00030E00CE810E0ECE3EE2EF12C0E94165DD6
:1029F00010921303109212038AE590E06AE070E0EF
:102A00000E94D068209118033091190380917202BE
:102A1000909173022115310509F0A8C0009761F06B
:102A20008EE190E060E070E040E050E02EE130E0C8
:102A300008E210E00E94F84C8CE090E068E070E062
:102A400045E050E023E030E000E110E0EE24FF2418
:102A5000B2E3CB2ED12CACE3AA2EB12C0E940655AA
:102A60008AE090E068E070E04FE050E025E030E080
:102A7000AA24BB240E94065580E090E064E170E047
:102A800040E050E022E330E000E010E00E94F84C2B
:102A90008CE090E068E070E045E050E023E030E05A
:102AA00000E110E00E9406558AE090E068E070E0E6
:102AB00045E050E025E030E00E94065588E090E0D7
:102AC00068E070E048EE53E025E030E0F9E1EF2EF9
:102AD000F12C0E9406558FE090E06AE570E04CEE24
:102AE0005FEF28E230E000E010E00E94D8598CEE61
:102AF0009FEF909313038093120381EF9FEF60E0A9
:102B000070E04AEB5FEF28E230E00EEC1FEFE4E606
:102B1000EE2EF12C0E94165D80E090E0DC018093A7
:102B2000F0029093F102A093F202B093F30280932B
:102B3000D6029093D702A093D802B093D9028AE527
:102B400090E0909313038093120383E090E06EE78C
:102B500070E044E050E027EC30E005E010E0B4EA3B
:102B6000EB2EF12CAEE1AA2EB12C63C0009761F4DC
:102B700082EE9FEF60E070E040E050E02EE130E058
:102B800008E210E00E94F84C8CE090E061E070E018
:102B90004AE050E023E030E00CE010E0EE24FF24B7
:102BA000F2E3CF2ED12CECE3AE2EB12C0E940655D1
:102BB0008AE090E061E070E048E250E025E030E03B
:102BC000AA24BB240E94065583E090E068E270E0EE
:102BD00046EA5FEF28E230E00EEC1FEF0E943C581F
:102BE00080E090E0DC018093F0029093F102A093EA
:102BF000F202B093F3028093D6029093D702A0938F
:102C0000D802B093D9028AE590E0909313038093A1
:102C1000120383E090E06EE770E044E050E027ECC0
:102C200030E005E010E0B4EAEB2EF12CA4E1AA2E8E
:102C3000B12C0E942162109213031092120381E0C2
:102C400090E090937302809372020C940B2485E0C1
:102C50004816510409F058C1C430D10511F00C9444
:102C60000B240F2EF0E06F2EF0E07F2EF0E08F2E81
:102C7000F0E09F2EF02D6092F0027092F1028092AF
:102C8000F2029092F3026092D6027092D702809282
:102C9000D8029092D902CAE5D0E0D0931303C09332
:102CA000120383E090E06EE770E044E050E027EC30
:102CB00030E005E010E0F4EAEF2EF12CE2E3CE2E56
:102CC000D12CBEE1AB2EB12C0E94216210921303D5
:102CD0001092120380E090E06FE070E04EE150E06F
:102CE00028E230E002E310E00E943C588EE190E0E0
:102CF000909313038093120384E190E06AE570E0FF
:102D000046EF5FEF28E230E000E010E00E94D85983
:102D1000A4E14A2E512C509213034092120388EFE3
:102D20009FEF60E070E04CEE5FEF23E230E00E9446
:102D30003C5810921303109212038CE090E061E073
:102D400070E045E050E023E030E00EE010E0EE24DB
:102D5000FF24FCE3CF2ED12CE6E4AE2EB12C0E9452
:102D600006558AE090E061E070E042E350E025E043
:102D700030E0AA24BB240E9406558DE090E061E07B
:102D800070E048EE53E025E030E0B9E1EB2EF12CA5
:102D90000E9406550097C1F088E090E061E070E085
:102DA00048EE53E025E030E00E94065583E090E0D5
:102DB0006BE270E046EA5FEF2DE230E009EC1FEFD6
:102DC0000E943C580C94AE1F80E090E06AE070E0F6
:102DD00044E150E028E230E00EEC1FEF0E943C5846
:102DE00050921303409212038CE090E063E070E095
:102DF0004BEF5FEF23E030E002E110E0EE24FF2430
:102E0000A2E3CA2ED12CFCE3AF2EB12C0E940655B2
:102E10008AE090E063E070E044EC5FEF25E030E0B2
:102E2000AA24BB240E9406558CEF9FEF63E070E05C
:102E300048E15CEF25E030E0E6E1EE2EF12C0E9467
:102E4000065584EF9FEF6AE570E044E150E028E228
:102E500030E000E010E00E94D859B8E24B2E512C2F
:102E6000509213034092120385E090E060E070E01E
:102E700040E050E028E230E00E94F84C8EEC9FEFFA
:102E800090931303809312038CEE9FEF66EA7FEF1B
:102E900040E050E028E230E00E94D85950921303FD
:102EA0004092120380E090E061EF7FEF48ED5FEF2A
:102EB00028E230E00EEC1FEFACE3EA2EF12C0E948A
:102EC000165D6092F0027092F1028092F20290928E
:102ED000F3026092D6027092D7028092D80290924A
:102EE000D902D0931303C093120383E090E06EE7FE
:102EF00070E044E050E027EC30E005E010E0F4EA58
:102F0000EF2EF12C0C94DB2194E04916510409F0CA
:102F100095C1C330D10511F00C940B240F2EF0E0B5
:102F20006F2EF0E07F2EF0E08F2EF0E09F2EF02D40
:102F30006092F0027092F1028092F2029092F3029B
:102F40006092D6027092D7028092D8029092D902F3
:102F5000CAE5D0E0D0931303C093120380E090E061
:102F600060E070E044E050E027EC30E005E010E085
:102F7000E4EAEE2EF12CB2E3CB2ED12CAA24BB2412
:102F80000E942162109213031092120384E190E0D8
:102F900060E070E04AE550E024E130E002E810E053
:102FA000ACE3EA2EF12CF2E8CF2ED12C0E94DB52BA
:102FB0008CE090E061E070E045E050E023E030E03C
:102FC0000EE010E0EE24FF24E2E3CE2ED12CBCE391
:102FD000AB2EB12C0E9406558AE090E061E070E0D3
:102FE00045E050E025E030E0AA24BB240E940655CD
:102FF0008DE090E061E070E048EE53E025E030E0E5
:103000000E940655209122033091230382179307D3
:1030100009F0A6C08AE090E061E070E04FE050E087
:1030200025E030E00E94065583E090E068E270E021
:1030300046EA5FEF28E230E00EEC1FEF0E943C58BA
:103040006092F0027092F1028092F2029092F3028A
:103050006092D6027092D7028092D8029092D902E2
:10306000D0931303C093120380E090E060E070E01F
:1030700044E050E027EC30E005E010E0A4EAEA2E5E
:10308000F12C0E942162109213031092120380917E
:10309000E2028F3108F44BC06092F0027092F102AC
:1030A0008092F2029092F3026092D6027092D7025E
:1030B0008092D8029092D902D0931303C093120346
:1030C00080E090E060E070E044E050E027EC30E029
:1030D0000E942162109213031092120381E090E08B
:1030E0006FE070E040E050E024E130E002E810E002
:1030F0000E94F84C10921303109212036092F00297
:103100007092F1028092F2029092F3026092D602E3
:103110007092D7028092D8029092D90280E090E01B
:1031200060E070E041E050E020E930E000C76092EC
:10313000F0027092F1028092F2029092F302609299
:10314000D6027092D7028092D8029092D902D09380
:103150001303C093120383E090E06EE770E0E3C4D2
:1031600080E090E06AE070E04CEE5FEF28E230E053
:103170000EEC1FEF0E943C588CEE9FEF90931303D0
:10318000809312038CE090E064E070E046EF5FEF24
:1031900023E030E002E110E0EE24FF24F2E3CF2E42
:1031A000D12CECE3AE2EB12C0E9406558AE090E0C3
:1031B00064E070E042EE5FEF25E030E0B4ECAB2E6F
:1031C000BFEFBB2E0E94065582E090E064E170E004
:1031D0004AEB5FEF24E130E002E810E0A4E6EA2EDB
:1031E000F12CF8E7CF2ED12C0E94DB526092F00236
:1031F0007092F1028092F2029092F3026092D602F3
:103200007092D7028092D8029092D902D093130381
:10321000C093120380E090E060E070E044E050E092
:1032200027EC30E005E010E0E4EAEE2EF12CB2E30A
:10323000CB2ED12CAA24BB240C948A23A3E04A16BB
:10324000510409F02FC7C230D10511F00C94DF21D1
:103250002091E20281E090E02F3110F080E090E0D8
:10326000909363028093620220911A0330911B03B2
:103270002115310509F034C2ADED6A2EA3E07A2E96
:10328000009709F094C08FE090E062E070E04AE5BA
:1032900050E028E230E006E910E0FCE3EF2EF12CEC
:1032A000E2E8CE2ED12C0E94DB5210920F03109236
:1032B0000E0310920D0310920C031092050310924E
:1032C000040310921503109214031092DF0210925F
:1032D000DE028CE090E061E070E045E050E023E049
:1032E00030E002E110E0EE24FF24B8E2CB2ED12C36
:1032F000A2E3AA2EB12C0E9406558AE090E061E07C
:1033000070E04AE250E025E030E0FEECAF2EFFEF47
:10331000BF2E0E94065580E090E060E070E04AEB2E
:103320005FEF24E630E008E710E00E94F84C8AEBFB
:103330009FEF90931303809312030E94D80100D053
:1033400000D000D0EDB7FEB73196ADB7BEB712963C
:103350007C926E9211978EE091E0938382838091AC
:10336000140390911503958384830E94246AEDB71A
:10337000FEB736960FB6F894FEBF0FBEEDBF81E0E4
:1033800061E0A3010E9467018091140390911503ED
:1033900090931B0380931A0383E090E061E170E057
:1033A0004CEE5FEF2EE130E00CE810E0FBC18FEF58
:1033B0009FEF6CE170E04CE350E028E230E002E384
:1033C00010E00E943C588CE390E0909313038093AC
:1033D000120389E190E06AE570E04CE350E028E2F6
:1033E00030E000E010E00E94D8598EE190E0909328
:1033F0001303809312038EEF9FEF69E170E04CE3BB
:1034000050E028E230E00EEC1FEFECE3EE2EF12C62
:103410000E94165D10921303109212038AE590E049
:103420006AE070E00E94D06810920F0310920E03C1
:1034300010920D0310920C031092050310920403D6
:1034400010921503109214031092DF021092DE0204
:103450008CE090E068E070E045E050E023E030E090
:1034600000E110E0EE24FF24B8E2CB2ED12CA2E341
:10347000AA2EB12C0E9406558AE090E068E070E028
:1034800045E050E025E030E0AA24BB240E94065528
:1034900080E090E068E070E048EE53E025E030E046
:1034A000FDE2EF2EF12C0E9406558AE090E068E0E4
:1034B00070E04FE050E025E030E0EE24FF24EEEC39
:1034C000AE2EEFEFBE2E0E9406550E94D80100D00E
:1034D00000D000D0EDB7FEB73196ADB7BEB71296AB
:1034E0007C926E92119787E191E093838283809121
:1034F0000C0390910D03958384830E94246AEDB799
:10350000FEB736960FB6F894FEBF0FBEEDBF81E052
:1035100061E0A3010E94670180910C0390910D036B
:1035200090931B0380931A0380915C0290915D023B
:10353000009731F00E949D47B59BFECFB599FECF15
:1035400080E090E066EF7FEF4FE050E02EE130E06A
:1035500008E210E00E943C588FE090E09093130343
:10356000809312038CE090E065E070E04BEF5FEF3A
:1035700023E030E00EE010E0EE24FF24B8E2CB2E92
:10358000D12CAA24BB240E9406558AE090E065E075
:1035900070E043ED5FEF25E030E0AEECAA2EAFEF38
:1035A000BA2E0E9406558DEF9FEF6EE170E04BE45E
:1035B00050E02EE130E00CE810E0F4E6EF2EF12CC4
:1035C0000E94165D80E090E0DC018093F002909311
:1035D000F102A093F202B093F3028093D60290938B
:1035E000D702A093D802B093D9028AE590E09093D5
:1035F00013038093120380E090E060E070E044E009
:1036000050E027EC30E005E010E0E4EAEE2EF12C8B
:10361000B2E3CB2ED12CAA24BB240E9421621092AB
:1036200013031092120380E090E06EEF7FEF40E012
:1036300050E02AE030E008E710E00E94F84C84E116
:1036400090E060E070E046E450E02EE130E008E217
:1036500010E00E943C588CEE9FEF909313038093F0
:1036600012038CE090E064E070E04BEF5FEF23E04A
:1036700030E000E110E0EE24FF24A3E2CA2ED12CBA
:103680000E9406558AE090E064E070E04BEF5FEF47
:1036900025E030E0F8E2CF2ED12C0E9406558BEFCA
:1036A0009FEF64E070E048E15CEF25E030E0E4E1AA
:1036B000EE2EF12C0E94065580E090E066EF7FEF41
:1036C00044E150E028E230E00EEC1FEFB8E2EB2ED0
:1036D000F12C0E94165D1092130310921203A3C0E6
:1036E0008130910509F061C080E090E0DC018093B9
:1036F000F0029093F102A093F202B093F302809350
:10370000D6029093D702A093D802B093D9028AE54B
:1037100090E0909313038093120383E090E06EE7B0
:1037200070E044E050E027EC30E005E010E0A4EA6F
:10373000EA2EF12CF2E3CF2ED12CEEE1AE2EB12CFD
:103740000E94216210921303109212038FEF9FEFD9
:103750006CE170E04CE350E028E230E002E310E07E
:103760000E943C588CE390E09093130380931203E3
:1037700089E190E06AE570E040E050E028E230E066
:1037800000E010E00E94D85982EE9FEF909313035F
:103790008093120380E090E067E170E044EC5FEF1B
:1037A00023E230E00E943C5896CF84E190E060E054
:1037B00070E04AE550E02EE130E00CE810E0BCE3B8
:1037C000EB2EF12CA2E8CA2ED12C0E94DB528CE009
:1037D00090E061E070E045E050E023E030E00EE092
:1037E00010E0EE24FF24F8E2CF2ED12CE2E3AE2E3F
:1037F000B12C0E9406558AE090E061E070E049E15A
:1038000050E025E030E0AA24BB240E94065583E066
:1038100090E066E270E046EA5FEF28E230E000E028
:1038200010E00E943C5880911C0390911D0300976A
:1038300009F0ABC28CE090E061E070E045E050E060
:1038400023E030E00BE010E0EE24FF24B8E2CB2EC2
:10385000D12CA2E3AA2EB12C0E9406558AE090E05A
:1038600061E070E045E050E025E030E0AA24BB24B0
:103870000E9406558DE090E061E070E048EE53E074
:1038800025E030E00E940655209122033091230369
:103890008217930709F057C180E090E061E070E083
:1038A00048EE53E025E030E0F8E2EF2EF12CE2E3C1
:1038B000CE2ED12C0E94065510920F0310920E03AB
:1038C00010920D0310920C03109205031092040342
:1038D00010921503109214031092DF021092DE0270
:1038E0008AE090E061E070E04FE050E025E030E0F9
:1038F000B4ECAB2EBFEFBB2E0E9406550E94D80140
:1039000000D000D000D0EDB7FEB73196CDEDD3E0BA
:10391000ADB7BEB71296DC93CE9311978FE191E0CD
:103920009383828380910E0390910F039583848308
:103930000E94246AEDB7FEB736960FB6F894FEBF24
:103940000FBEEDBF81E061E0AE010E946701809192
:103950000E0390910F0390931D0380931C0380919D
:103960005C0290915D02009731F00E949D47B59BEB
:10397000FECFB599FECF2091E70281E090E02F3194
:1039800010F080E090E090936502809364020097CD
:1039900009F078C082E090E064E170E046EA5FEF11
:1039A00024E130E002E810E0A4E6EA2EF12CF8E78A
:1039B000CF2ED12C0E94DB520F2EF0E06F2EF0E0C4
:1039C0007F2EF0E08F2EF0E09F2EF02D6092F0021F
:1039D0007092F1028092F2029092F3026092D6020B
:1039E0007092D7028092D8029092D902CAE5D0E0B4
:1039F000D0931303C093120383E090E06EE770E06E
:103A000044E050E027EC30E005E010E0E4EAEE2E80
:103A1000F12CB2E3CB2ED12CAEE1AA2EB12C0E9418
:103A20002162109213031092120383E090E062E38C
:103A300070E046EA5FEF28E230E006E910E00E941D
:103A40003C586092F0027092F1028092F2029092E1
:103A5000F3026092D6027092D7028092D8029092BE
:103A6000D902D0931303C093120380E090E060E08A
:103A700070E044E050E027EC30E005E010E0AA24DC
:103A8000BB2427C280E090E068EF7FEF40E050E089
:103A900028E230E002E310E00E94F84C87EE9FEF4E
:103AA0006AE570E046E450E023E230E000E010E038
:103AB0000E94D8598CEE9FEF9093130380931203CA
:103AC00082EE9FEF6AE570E04AE550E023E230E0E5
:103AD0000E94D85980E090E061EF7FEF44E150E030
:103AE00028E230E00EEC1FEF0E943C5880E090E0AE
:103AF000DC018093F0029093F102A093F202B09364
:103B0000F3028093D6029093D702A093D802B09389
:103B1000D9028AE590E0909313038093120386E024
:103B200090E060E970E044E050E027EC30E005E030
:103B300010E0F4EAEF2EF12CE2E3CE2ED12CB4E12A
:103B4000AB2EB12CE7C58091620290916302813067
:103B5000910509F05AC080E090E06AE070E04CEE18
:103B60005FEF23E230E003ED1FEF0E943C588CEE44
:103B70009FEF909313038093120387EE9FEF6AE504
:103B800070E046E450E023E230E00DE210E00E94F5
:103B9000D85988ED9FEF909313038093120382EE20
:103BA0009FEF66EA7FEF40E050E028E230E000E07F
:103BB00010E00E94D8598CEE9FEF60E070E04EEC70
:103BC0005FEF2EE130E008ED1FEF0E943C5880E0EF
:103BD00090E0DC018093F0029093F102A093F20256
:103BE000B093F3028093D6029093D702A093D802A9
:103BF000B093D9028AE590E0909313038093120367
:103C000083E090E06EE770E0CAC380E090E06AE095
:103C100070E044E150E023E230E003ED1FEF0E944A
:103C20003C5884E190E090931303809312038CE05E
:103C300090E063E070E04BEF5FEF23E030E00FE0F7
:103C400010E0EE24FF24A8E2CA2ED12CF2E3AF2E1E
:103C5000B12C0E9406558AE090E063E070E04BEFE3
:103C60005FEF23E030E0AA24BB240E9406558CEFCE
:103C70009FEF63E070E048E15CEF23E030E0E7E1D4
:103C8000EE2EF12C0E94065584EF9FEF6AE570E05E
:103C900040E050E028E230E000E010E00E94D85917
:103CA00084E190E06FEF7FEF42E350E023E230E009
:103CB0000E943C588CEE9FEF909313038093120365
:103CC0008CE090E064E070E04BEF5FEF23E030E0E9
:103CD0000FE010E0EE24FF24B2E3AB2EB12C0E94E3
:103CE00006558AE090E064E070E04DED5FEF23E080
:103CF00030E0AEECAA2EAFEFBA2E0E94065582E05D
:103D000090E064E170E04AEB5FEF2EE130E00CE818
:103D100010E0F4E6EF2EF12CE8E7CE2ED12C0E9435
:103D2000DB520F2EF0E06F2EF0E07F2EF0E08F2EB2
:103D3000F0E09F2EF02D6092F0027092F1028092DE
:103D4000F2029092F3026092D6027092D7028092B1
:103D5000D8029092D902CAE5D0E0D0931303C09361
:103D6000120380E090E060E070E044E050E027EC77
:103D700030E005E010E0B4EAEB2EF12CA2E3CA2E0D
:103D8000D12CAA24BB240C94F90D8091640290914B
:103D900065028130910509F006C18CE090E061E098
:103DA00070E045E050E023E030E00BE010E0EE246E
:103DB000FF24F2E3CF2ED12CECE3AE2EB12C0E94E7
:103DC00006558AE090E061E070E045E050E025E0D3
:103DD00030E0AA24BB240E9406558DE090E061E00B
:103DE00070E048EE53E025E030E00E94065588E0A0
:103DF00090E061E070E048EE53E025E030E0BEE1A5
:103E0000EB2EF12C0E94065583E090E069E270E011
:103E100046EA5FEF23E230E000E010E00E943C5809
:103E20008CE090E061E070E045E050E023E030E0BD
:103E30000BE010E0EE24FF24ACE3AA2EB12C0E948C
:103E400006558AE090E061E070E045E050E023E054
:103E500030E0AA24BB240E94065583E090E068E28B
:103E600070E046EA5FEF22E330E004EC1FEFF0E59C
:103E7000EF2EF12C0E94165D0F2EF0E06F2EF0E079
:103E80007F2EF0E08F2EF0E09F2EF02D6092F0025A
:103E90007092F1028092F2029092F3026092D60246
:103EA0007092D7028092D8029092D902CAE5D0E0EF
:103EB000D0931303C093120380E090E060E070E0C1
:103EC00044E050E027EC30E005E010E0E4EAEE2EBC
:103ED000F12C0E94216210921303109212038FEFB3
:103EE0009FEF6FE070E040E050E024E130E002E856
:103EF00010E00E94F84C109213031092120360928B
:103F0000F0027092F1028092F2029092F3026092BB
:103F1000D6027092D7028092D8029092D90280E0A5
:103F200090E060E070E048E050E02DE730E000E035
:103F300010E0EE24FF24B4E1CB2ED12C0E942162AC
:103F40000E949D4780E090E061EF7FEF40E050E00D
:103F500024E130E002E810E00E94F84C6092F002A8
:103F60007092F1028092F2029092F3026092D60275
:103F70007092D7028092D8029092D902D093130304
:103F8000C093120380E090E060E070E044E050E015
:103F900027EC30E005E010E0A4EAEA2EF12CF2E391
:103FA000CF2ED12CB7C38CE090E061E070E045E00B
:103FB00050E023E030E00BE010E0EE24FF24E2E3E9
:103FC000CE2ED12CBCE3AB2EB12C0E9406558DE039
:103FD00090E061E070E048EE53E025E030E0AA2494
:103FE000BB240E94065580E090E06CE070E04CEE4F
:103FF0005FEF28E230E000E010E00E943C588CEED9
:104000009FEF90931303809312038CE190E066EA94
:104010007FEF46EA5FEF28E230E00E94D8598CE15A
:1040200090E06AE570E048ED5FEF28E230E00E9442
:10403000D85984EC9FEF909313038093120389EE79
:104040009FEF62E070E042EE5FEF28E230E00EECBE
:104050001FEF0E943C5880E090E0DC018093F0026A
:104060009093F102A093F202B093F3028093D602F0
:104070009093D702A093D802B093D9028AE590E03A
:10408000909313038093120386E090E060E970E060
:1040900044E050E027EC30E005E010E0A4EAEA2E2E
:1040A000F12C35C3F2E04F16510409F088C1C1303C
:1040B000D10509F0B0C360E070E084EB92E444E61F
:1040C00050E00E94B65B10921303109212030F2E61
:1040D000F0E06F2EF0E07F2EF0E08F2EF0E09F2ECC
:1040E000F02D6092320370923303809234039092E9
:1040F00035038091320390913303A0913403B09142
:10410000350380932E0390932F03A0933003B09335
:10411000310380912E0390912F03A0913003B09131
:10412000310380932A0390932B03A0932C03B09325
:104130002D038CE090E061E070E045E050E023E08A
:1041400030E00FE010E0EE24FF24F2E3CF2ED12C7C
:10415000ECE3AE2EB12C0E9406558AE090E061E0BF
:1041600070E045E050E025E030E0AA24BB240E9446
:1041700006558DE090E061E070E048EE53E025E008
:1041800030E00E94065520912203309123038217CC
:104190009307E9F588E090E061E070E048EE53E0D5
:1041A00023E030E0BEE1EB2EF12C0E94065583E0C7
:1041B00090E06BE270E046EA5FEF28E230E00EEC60
:1041C0001FEF0E943C586092F0027092F1028092C0
:1041D000F2029092F3026092D6027092D70280921D
:1041E000D8029092D9028AE590E0909313038093CD
:1041F000120380E090E060E070E044E050E027ECE3
:1042000030E005E010E0A4EAEA2EF12C83C280E061
:1042100090E06AE070E04CEE5FEF28E230E00EECF8
:104220001FEF0E943C588CEE9FEF909313038093F6
:10423000120320902E0330902F03409030035090B3
:1042400031038CE090E064E070E04BEF5FEF23E03F
:1042500030E002E110E0EE24FF24F8E2CF2ED12C72
:10426000E2E3AE2EB12C0E940655C201B1010E94BC
:104270003B6B4FE050E0461B570B8AE090E064E058
:1042800070E025E030E0AA24BB240E94065582E0BD
:1042900090E066EF7FEF4AEB5FEF28E230E00EEC54
:1042A0001FEFB4E6EB2EF12C0E94165D1092130363
:1042B000109212038091E7028F3108F456C0609289
:1042C000F0027092F1028092F2029092F3026092F8
:1042D000D6027092D7028092D8029092D902CAE593
:1042E000D0E0D0931303C093120380E090E060E02D
:1042F00070E044E050E027EC30E005E010E0A4EA94
:10430000EA2EF12CF2E3CF2ED12C0E9421621092E2
:104310001303109212038FEF9FEF6FE070E040E005
:1043200050E024E130E002E810E00E94F84C1092E6
:104330001303109212036092F0027092F1028092C5
:10434000F2029092F3026092D6027092D7028092AB
:10435000D8029092D90280E090E060E070E048E0FE
:1043600050E02DE730E00C94270E6092F00270923E
:10437000F1028092F2029092F3026092D602709261
:10438000D7028092D8029092D9028AE590E0909369
:1043900013038093120386E090E060E970E044E04C
:1043A00050E027EC30E005E010E0E4EAEE2EF12CDE
:1043B000B2E3CB2ED12CAEE1AA2EB12C23C281E0E8
:1043C0004816510409F027C2209709F024C20F2E85
:1043D000F0E06F2EF0E07F2EF0E08F2EF0E09F2EC9
:1043E000F02D6092F0027092F1028092F2029092AF
:1043F000F3026092D6027092D7028092D802909215
:10440000D902FAE54F2E512C509213034092120319
:1044100080E090E060E070E044E050E027EC30E0C5
:1044200005E010E0E4EAEE2EF12CB2E3CB2ED12C25
:10443000AA24BB240E94216210921303109212033B
:104440008091C2029091C302009709F49FC08091AD
:10445000860290918702009709F098C082EE9FEF44
:1044600060E070E042E95FEF2EE130E008E210E04A
:104470000E943C588CEE9FEF90931303809312039D
:104480008CE090E066E070E04BEF5FEF23E030E01F
:104490000EE010E0EE24FF240E9406558AE090E032
:1044A00066E070E044EC5FEF25E030E00E940655E6
:1044B0008BEF9FEF66E070E048E15CEF25E030E0D5
:1044C000A6E1EA2EF12C0E94065584EF9FEF66EAE2
:1044D0007FEF4CEE5FEF28E230E000E010E00E945A
:1044E000D859C8EDDFEFD0931303C09312038BEFBD
:1044F0009FEF60E070E040E050E028E230E00E9492
:10450000F84C82E390E090931303809312038CEEB7
:104510009FEF6AE570E040E050E028E230E00E9462
:10452000D859D0931303C093120380E090E064EF56
:104530007FEF48E250E028E230E00EEC1FEFFCE3B2
:10454000EF2EF12C0E94165D6092F0027092F10243
:104550008092F2029092F3026092D6027092D70299
:104560008092D8029092D902509213034092120383
:1045700086E090E060E970E044E050E027EC30E055
:1045800005E010E0E4EAEE2EF12CD9CA84E190E0D7
:1045900060E070E04AE550E028E230E006E910E033
:1045A000BCE3EB2EF12CA2E8CA2ED12C0E94DB52E8
:1045B0008CE090E061E070E045E050E023E030E026
:1045C0000EE010E0EE24FF24FCE3CF2ED12CE6E435
:1045D000AE2EB12C0E9406558AE090E061E070E0BA
:1045E00045E050E025E030E0AA24BB240E940655B7
:1045F0008DE090E061E070E048EE53E025E030E0CF
:104600000E940655209122033091230382179307BD
:1046100009F087C08AE090E061E070E044E650E095
:1046200025E030E00E94065580E090E061E070E017
:1046300048EE53E025E030E0B8E2EB2EF12C0E948A
:10464000065580E090E06BE070E04CEE5FEF2DE20D
:1046500030E000E010E00E943C58CCEEDFEFD09359
:104660001303C093120384E190E066EA7FEF4AEB04
:104670005FEF28E230E00E94D859109213031092A5
:1046800012038FE090E06AE570E04CEE5FEF28E205
:1046900030E00E94D859D0931303C093120386EFE1
:1046A0009FEF60E070E04AEB5FEF28E230E00EEC55
:1046B0001FEFA4E6EA2EF12C0E94165D80E090E048
:1046C000DC018093F0029093F102A093F202B09388
:1046D000F3028093D6029093D702A093D802B093AE
:1046E000D9028AE590E0909313038093120386E049
:1046F00090E060E970E044E050E027EC30E005E055
:1047000010E0F4EAEF2EF12CE2E3CE2ED12CBEE144
:10471000AB2EB12C0E94216210921303109212034F
:104720007AC080E090E06AE070E04CEE5FEF22E358
:1047300030E004EC1FEF0E943C588CEE9FEF90930A
:104740001303809312038CE090E064E070E046EF86
:104750005FEF23E030E002E110E0EE24FF24A2E36B
:10476000CA2ED12CFCE3AF2EB12C0E9406558AE054
:1047700090E064E070E042EE5FEF23E030E0E4ECD4
:10478000AE2EEFEFBE2E0E94065582E090E062E171
:1047900070E04AEB5FEF24E130E002E810E0B4E6BD
:1047A000EB2EF12CA8E7CA2ED12C0E94DB5280E020
:1047B00090E0DC018093F0029093F102A093F2026A
:1047C000B093F3028093D6029093D702A093D802BD
:1047D000B093D9028AE590E090931303809312037B
:1047E00080E090E060E070E044E050E027EC30E0F2
:1047F00005E010E0F4EAEF2EF12CE2E3CE2ED12C0E
:10480000AA24BB240E942162109213031092120367
:104810002FEF3FEF02C021E030E0C901DF91CF91DF
:104820001F910F91FF90EF90DF90CF90BF90AF90CE
:104830009F908F907F906F905F904F903F902F90C0
:1048400008952F923F924F925F926F927F928F9234
:104850009F92AF92BF92CF92DF92EF92FF920F930F
:104860001F93DF93CF9300D000D0CDB7DEB70E9467
:10487000E7008EE161E00E94B1008EE165E00E94F8
:10488000B1008EE164E10E94B1008EE160E10E941E
:10489000B1000E9410698BE00E94486982E30E9487
:1048A000DF4780E063E10E942A698823D1F30FEF9C
:1048B0001FE726E1015010402040E1F700C0000052
:1048C00080E090E0DC018093320390933303A09367
:1048D0003403B09335038091320390913303A09158
:1048E0003403B091350380932E0390932F03A0934C
:1048F0003003B093310380912E0390912F03A09148
:104900003003B091310380932A0390932B03A0933B
:104910002C03B0932D03C39A2FEF3FE744E02150BF
:1049200030404040E1F700C00000C3980F2EF0E097
:104930006F2EF0E07F2EF0E08F2EF0E09F2EF02D16
:104940001AE5212E312CB1E04B2E512CB49914C014
:1049500080915C0290915D02019790935D0280933B
:104960005C02C39A4FEF5FE764E041505040604003
:10497000E1F700C00000C398B69914C080915C02B2
:1049800090915D02019690935D0280935C02C39AC0
:104990006FEF7FE784E0615070408040E1F700C036
:1049A0000000C398B59B02C00C94C0300E94D8018F
:1049B000C39A8FEF9FE7A4E081509040A040E1F7B9
:1049C00000C00000C39880915C0290915D02AFEF3F
:1049D0008C3F9A0711F40C94312FBFEF8D3F9B074A
:1049E00044F4EFEF8B3F9E0711F00C94C0300C9411
:1049F000FE2F8230910510F00C94C030AAE7B2E08F
:104A0000E8E41D92EA95E9F78091E202893228F004
:104A1000109261021092600216C08091E702833307
:104A200018F082E090E006C08091E602833338F00F
:104A300083E090E0909361028093600204C0509202
:104A40006102409260020E94D80100D000D000D0E4
:104A5000EDB7FEB73196ADEDCA2EA3E0DA2EADB7B5
:104A6000BEB71296DC92CE92119708E211E0138342
:104A700002838091600290916102958384830E94F9
:104A8000246A2DB73EB72A5F3F4F0FB6F8943EBF5A
:104A90000FBE2DBF81E061E0A6010E9467018091F9
:104AA0005C0290915D02009731F00E949D47B59B9A
:104AB000FECFB599FECF8091600290916102823065
:104AC000910508F047C2009709F0B0C060E070E0BF
:104AD0008CED92EC44E650E00E94B65B4CEE5FEF4A
:104AE00050931303409312038CEE9FEF60E070E04D
:104AF00040E050E022E330E00CE310E00E94F84C8C
:104B000086E490E0909313038093120386EF9FEF67
:104B10006AE570E040E050E028E230E000E010E0BC
:104B20000E94D8596CEE7FEF7093130360931203C9
:104B30008CE090E064E070E04BEF5FEF23E030E06A
:104B400002E110E0EE24FF24F2E3CF2ED12CAA24C0
:104B5000BB240E9406558AE090E064E070E04BEFD1
:104B60005FEF25E030E00E94065584E090E064E0CD
:104B700070E048E15CEF25E030E0EEE1EE2EF12C54
:104B80000E94065585E090E06EE070E042E150E062
:104B900027E130E008E11CEFB2E3EB2EF12CCC244E
:104BA000DD240E94036087E690E062E070E00E94EE
:104BB000F147909323038093220384EF9FEF6AE5EC
:104BC00070E044E150E028E230E000E010E00E94B4
:104BD000D859109213031092120384E190E060E020
:104BE00070E04AE550E028E230E00EEC1FEFACE365
:104BF000EA2EF12CF2E8CF2ED12C0E94DB5210923B
:104C00001303109212038CE090E061E070E045E045
:104C100050E023E030E00EE010E0EE24FF24E2E379
:104C2000CE2ED12CBCE3AB2EB12C6DC084EE9FEF09
:104C300066EA7FEF4AEB5FEF28E230E002E310E044
:104C40000E94D85984E190E090931303809312035B
:104C500084E090E06EE070E042E150E027E130E077
:104C600008E11CEFA2E3EA2EF12CCC24DD240E9403
:104C7000036087E690E062E070E00E94F147909365
:104C800023038093220384EF9FEF6AE570E040E006
:104C900050E028E230E000E010E00E94D85984E1C2
:104CA00090E060E070E046E450E028E230E00EEC96
:104CB0001FEFFCE3EF2EF12CE2E8CE2ED12C0E9468
:104CC000DB5210921303109212038CE090E061E02B
:104CD00070E045E050E023E030E00EE010E0EE242C
:104CE000FF24B2E3CB2ED12CACE3AA2EB12C0E9430
:104CF00006558AE090E061E070E042E350E025E094
:104D000030E0AA24BB240E9406558DE090E061E0CB
:104D100070E048EE53E025E030E00EE010E0EE24D5
:104D2000FF24F2E3CF2ED12CAA24BB240E940655E7
:104D300090931F0380931E0320912203309123033D
:104D40008217930709F04AC088E090E061E070E0C4
:104D500048EE53E023E030E0EEE1EE2EF12C0E942D
:104D6000065583E090E06CE270E046EA5FEF28E2EF
:104D700030E00EEC1FEFB4E6EB2EF12C0E94165D36
:104D80006092F0027092F1028092F2029092F3022D
:104D90006092D6027092D7028092D8029092D90285
:104DA000309213032092120380E090E060E070E004
:104DB00044E050E027EC30E005E010E0A4EAEA2E01
:104DC000F12C0E942162109213031092120384E0CE
:104DD00090E0909329038093280302C35092B50278
:104DE0004092B4025092BF024092BE025092C3025F
:104DF0004092C20280E090E06AE070E044E150E05E
:104E000028E230E00EEC1FEF0E943C5884E190E075
:104E100090931303809312038CE090E063E070E0C2
:104E20004BEF5FEF23E030E002E110E0EE24FF24DF
:104E3000F2E3CF2ED12CECE3AE2EB12C0E9406551E
:104E40008AE090E063E070E044EC5FEF25E030E062
:104E5000AA24BB240E9406558CEF9FEF63E070E00C
:104E600048E15CEF25E030E0B6E1EB2EF12C0E944A
:104E7000065584EF9FEF6AE570E044E150E028E2D8
:104E800030E000E010E00E94D859A8E2EA2EF12CB0
:104E9000F0921303E092120385E090E060E070E08E
:104EA00040E050E028E230E00E94F84C8EEC9FEFAA
:104EB00090931303809312038CEE9FEF66EA7FEFCB
:104EC00040E050E028E230E00E94D859F09213030D
:104ED000E092120380E090E061EF7FEF48ED5FEF3A
:104EE00028E230E00EEC1FEFFCE3EF2EF12C0E94E5
:104EF000165D6092F0027092F1028092F20290923E
:104F0000F3026092D6027092D7028092D8029092F9
:104F1000D902309213032092120383E090E06EE7EF
:104F200070E044E050E027EC30E005E010E0E4EA17
:104F3000EE2EF12CB4E1AB2EB12C0E942162109226
:104F400013031092120385E090E09093290380935D
:104F5000280382C19C01225030402230310508F0E4
:104F600045C28230910509F0AFC060E070E08CED81
:104F700092E444E650E00E94B65BA4E1EA2EF12CF4
:104F8000F0921303E092120381E190E060E070E0A0
:104F900040E050E022E330E00CE310E00E94F84CE7
:104FA0008AEB9FEF909313038093120386EF9FEF9A
:104FB00066EA7FEF40E050E028E230E000E010E0F9
:104FC0000E94D859F0921303E09212038CE090E013
:104FD00065E070E04BEF5FEF23E030E00EE010E0C3
:104FE000EE24FF24F2E3CF2ED12CAA24BB240E946E
:104FF00006558AE090E065E070E04BEF5FEF25E05A
:1050000030E00E94065585E090E065E070E048E100
:105010005CEF25E030E0E9E1EE2EF12C0E94065530
:1050200084E090E06EE070E042E150E027E130E0A3
:1050300008E11CEFB2E3EB2EF12CCC24DD240E941E
:10504000036087E690E062E070E00E94F147909391
:1050500023038093220384EF9FEF66EA7FEF4CEEF9
:105060005FEF28E230E000E010E00E94D859109293
:105070001303109212038CEE9FEF60E070E046EA9B
:105080005FEF28E230E00EEC1FEFACE3EA2EF12CEC
:10509000F2E8CF2ED12C0E94DB5210921303109213
:1050A00012038CE090E068E070E045E050E023E01F
:1050B00030E002E110E0EE24FF24E2E3CE2ED12C1A
:1050C000BCE3AB2EB12C6DC084EE9FEF6AE570E0BF
:1050D00046E450E028E230E002E310E00E94D859B4
:1050E0008CEE9FEF909313038093120385E090E082
:1050F0006EE070E042E150E027E130E008E11CEFB3
:10510000A2E3EA2EF12CCC24DD240E94036087E682
:1051100090E062E070E00E94F14790932303809357
:10512000220384EF9FEF66EA7FEF40E050E028E241
:1051300030E000E010E00E94D8598CEE9FEF60E074
:1051400070E04AEB5FEF28E230E00EEC1FEFFCE38B
:10515000EF2EF12CE2E8CE2ED12C0E94DB521092E1
:105160001303109212038CE090E068E070E045E0D9
:1051700050E023E030E002E110E0EE24FF24B2E34F
:10518000CB2ED12CACE3AA2EB12C0E9406558AE07E
:1051900090E068E070E042E350E025E030E0AA24CF
:1051A000BB240E9406558DE090E068E070E048EE78
:1051B00053E025E030E002E110E0EE24FF24F2E3CA
:1051C000CF2ED12CAA24BB240E94065590931F03F6
:1051D00080931E03209122033091230382179307AB
:1051E00009F03FC08DEF9FEF6DE270E04AE550E0BF
:1051F00028E230E00EEC1FEFE4E6EE2EF12C0E94E8
:10520000165D6092F0027092F1028092F20290922A
:10521000F3026092D6027092D7028092D8029092E6
:10522000D902309213032092120380E090E060E0F4
:1052300070E044E050E027EC30E005E010E0B4EA34
:10524000EB2EF12C0E942162109213031092120394
:105250005092290340922803509225034092240340
:10526000C5C0509287024092860250927D024092C1
:105270007C025092C3024092C20280E090E06AE059
:1052800070E04CEE5FEF28E230E00EEC1FEF0E9482
:105290003C58ACEEBFEFB0931303A09312038CE025
:1052A00090E066E070E04BEF5FEF23E030E00EE06F
:1052B00010E0EE24FF24A2E3CA2ED12CFCE3AF2E93
:1052C000B12C0E9406558AE090E066E070E044EC64
:1052D0005FEF25E030E0AA24BB240E9406558BEF47
:1052E0009FEF66E070E048E15CEF25E030E0E6E14A
:1052F000EE2EF12C0E94065584EF9FEF66EA7FEFB9
:105300004CEE5FEF28E230E000E010E00E94D85958
:10531000E8EDFFEFF0931303E09312038BEF9FEFA1
:1053200060E070E040E050E028E230E00E94F84C9D
:1053300082E390E090931303809312038CEE9FEF2F
:105340006AE570E040E050E028E230E00E94D85981
:1053500018EDC12E1FEFD12ED0921303C09212036D
:1053600080E090E061EF7FEF48E250E028E230E03B
:105370000EEC1FEFBCE3EB2EF12C0E94165D609249
:10538000F0027092F1028092F2029092F302609227
:10539000D6027092D7028092D8029092D9023092AF
:1053A00013032092120386E090E060E970E044E08D
:1053B00050E027EC30E005E010E0A4EAEA2EF12C02
:1053C000F2E3CF2ED12CE4E1AE2EB12C0E9421626B
:1053D00010921303109212031092290310922803C3
:1053E0008FEF9FEF90932503809324030E94D801B1
:1053F00000D000D000D0EDB7FEB73196BDEDCB2E7A
:10540000B3E0DB2EADB7BEB71296DC92CE92119709
:1054100002E311E013830283809128039091290312
:10542000958384830E94246A2DB73EB72A5F3F4F3D
:105430000FB6F8943EBF0FBE2DBF81E061E0A6011C
:105440000E94670100D000D000D0EDB7FEB73196C2
:10545000ADB7BEB71296DC92CE921197ACE3CA2ECE
:10546000A1E0DA2ED382C28280912203909123039D
:10547000958384830E94246A0DB71EB70A5F1F4F6D
:105480000FB6F8941EBF0FBE0DBF82E061E04DED78
:1054900053E00E94670180915C0290915D02009749
:1054A00031F00E949D47B59BFECFB599FECF80910C
:1054B0002803909129039093270380932603EE24D9
:1054C000FF24F5E0CF2ED12CE6E0AE2EB12C0E94C9
:1054D000D80100D000D000D0EDB7FEB731960DED69
:1054E00013E0ADB7BEB712961C930E9311972BE441
:1054F00031E033832283809128039091290395839F
:1055000084830E94246A4DB75EB74A5F5F4F0FB62F
:10551000F8945EBF0FBE4DBF81E061E0A8010E941C
:10552000670100D000D000D0ADB7BEB71196EDB77F
:10553000FEB71283018303E511E013961C930E93CB
:105540001297E0912803F0912903EE0FFF1FEA590B
:10555000FD4F8081918115969C938E9314970E94A4
:10556000246A2DB73EB72A5F3F4F0FB6F8943EBF6F
:105570000FBE2DBF82E061E04DED53E00E94670158
:1055800080915C0290915D02009731F00E949D47EE
:10559000B59BFECFB599FECF20912803309129030A
:1055A000F901EE0FFF1FEA59FD4F808191810097AD
:1055B000D1F4C901B6010E94D070009789F425305A
:1055C000310529F480911A0390911B0307C021151E
:1055D000310549F480911C0390911D03009719F047
:1055E000C9010E94D03232E0E316F104E9F42091BF
:1055F000600230916102C90101968330910540F447
:1056000080912803909129038530910509F453C0B6
:10561000C90102978230910538F480912803909156
:105620002903009709F447C02091280330912903EA
:105630008091240390912503820F931F97FD05C04D
:10564000B5010E94D0708C0102C005E010E0C901D4
:10565000B8010E942B0297FF29C05092C3024092CA
:10566000C2028091280390912903F801EE0FFF1FD9
:10567000E00FF11FEE0FFF1FE80FF91FEE0FFF1FE6
:10568000E658FD4F41E050E051834083FC01EE0FAE
:10569000FF1FE80FF91FEE0FFF1FE00FF11FEE0FC6
:1056A000FF1FE658FD4F5182408205C01093290329
:1056B000009328030CCF80912403909125039095AB
:1056C00081959F4F90932503809324030894E11CB8
:1056D000F11C53E0E516F10409F0F9CE8091600267
:1056E000909161028230910508F04EC16092F00203
:1056F0007092F1028092F2029092F3026092D602CE
:105700007092D7028092D8029092D90230921303FD
:105710002092120383E090E06EE770E044E050E0F6
:1057200027EC30E005E010E0F4EAEF2EF12CE2E3A4
:10573000CE2ED12CBEE1AB2EB12C0E942162109254
:1057400013031092120360923E0370923F03809203
:1057500040039092410380913E0390913F03A091BA
:105760004003B091410380933A0390933B03A0938D
:105770003C03B0933D0380E090E06EE070E04EE1CA
:1057800050E023E230E00DE210E00E943C588EE150
:1057900090E0909313038093120384E190E06AE514
:1057A00070E046EF5FEF28E230E000E010E00E949A
:1057B000D85984E190E0909313038093120388EF0B
:1057C0009FEF61E070E04CEE5FEF2EE130E00E9471
:1057D0003C58109213031092120380916002909132
:1057E0006102009709F073C08CE090E061E070E026
:1057F00045E050E023E030E00EE010E0EE24FF242E
:10580000ACE3AA2EB12C0E9406558AE090E061E03C
:1058100070E044E150E025E030E0AA24BB240E947F
:10582000065588E090E061E070E048EE53E025E046
:1058300030E0FEE1EF2EF12C0E9406558AE090E068
:1058400061E070E04AE050E025E030E0EE24FF2423
:105850000E94065580E090E061E170E042EE5FEF6B
:1058600023E230E000E010E00E943C5882EE9FEF1F
:10587000909313038093120389E190E066EA7FEF2F
:1058800044EC5FEF28E230E00E94D85910921303F5
:10589000109212038CE090E061E070E045E050E08F
:1058A00023E030E00EE010E00E9406558AE090E030
:1058B00061E070E046E150E023E030E00E940655F0
:1058C0008CE190E066EA7FEF4AE550E04EC18CE063
:1058D00090E061E070E045E050E023E030E00EE071
:1058E00010E0EE24FF24E2E3CE2ED12CBCE3AB2E5D
:1058F000B12C0E9406558AE090E061E070E048E03B
:1059000050E025E030E0AA24BB240E94065580E048
:1059100090E06CE070E042EE5FEF23E230E000E008
:1059200010E00E943C5882EE9FEF90931303809307
:10593000120389E190E066EA7FEF44EC5FEF2DE22D
:1059400030E00E94D85910921303109212038CE099
:1059500090E068E070E045E050E023E030E002E1F4
:1059600010E00E9406558AE090E068E070E046E1B1
:1059700050E025E030E00E9406558CE190E06AE5B9
:1059800070E04AE550E052C16092F0027092F1027C
:105990008092F2029092F3026092D6027092D70245
:1059A0008092D8029092D90230921303209212036F
:1059B00086E090E060E970E044E050E027EC30E001
:1059C00005E010E0A4EAEA2EF12CF2E3CF2ED12C70
:1059D000EEE1AE2EB12C0E942162109213031092C0
:1059E000120360923E0370923F03809240039092B4
:1059F000410380913E0390913F03A0914003B091F9
:105A0000410380933A0390933B03A0933C03B093EC
:105A10003D0380E090E06EE070E042EE5FEF23E255
:105A200030E00DE210E00E943C5882EE9FEF909330
:105A300013038093120384E190E066EA7FEF4AE06B
:105A400050E028E230E000E010E00E94D8596CEE0F
:105A50007FEF709313036093120388E090E061E09E
:105A600070E044E150E02EE130E00E943C5810929A
:105A700013031092120380916002909161028230B0
:105A8000910509F077C08CE090E068E070E045E0B7
:105A900050E023E030E002E110E0EE24FF24BCE31C
:105AA000AB2EB12C0E9406558AE090E068E070E0D1
:105AB00044E150E025E030E0AA24BB240E940655D2
:105AC00081E090E068E070E048EE53E025E030E0EF
:105AD000A9E1EA2EF12C0E9406558AE090E068E0E8
