:100000000C9455000C9474000C9474000C947400BF
:100010000C9474000C9474000C9474000C94740090
:100020000C9474000C9474000C9474000C94740080
:100030000C9474000C9474000C9408280C947400B4
:100040000C9474000C9474000C94EF4C0C94740099
:100050000C9474000C9474000C9474000C94740050
:100060000C9474000C9474000C9474000C94740040
:100070000C9474000C9474000C940A010C94740099
:100080000C9474000C9474000C94740005A84CCD6E
:10009000B2D44EB93836A9020C50B9918688083CC2
:1000A000A6AAAA2ABE000000803F11241FBECFEFDF
:1000B000D0E1DEBFCDBF13E0A0E0B1E0EEEDF8EAA5
:1000C00000E00BBF02C007900D92A435B107D9F72D
:1000D0001BE0A4E5B3E001C01D92AB39B107E1F725
:1000E0000E94F3140C94974D0C94000094EA9093A2
:1000F00074009091740097FFFCCF9AE09093730086
:1001000094E8909374009091740097FFFCCF8093D3
:10011000730084E8809374008091740087FFFCCFA3
:1001200084E98093740084EA809374008091740061
:1001300087FFFCCF8BE08093730084E8809374008A
:100140008091740087FFFCCF84E8809374008091D5
:10015000740087FFFCCF8091730094E99093740042
:10016000089594EA909374009091740097FFFCCFE7
:100170009AE09093730094E89093740090917400C7
:1001800097FFFCCF8093730084E880937400809184
:10019000740087FFFCCF6093730084E88093740041
:1001A0008091740087FFFCCF84E9809374000895E8
:1001B00010929B0088E980939A0086E080939D00CE
:1001C000109298008FE580939900789408951F937A
:1001D0001FEF1093730081E4809370000E943E2112
:1001E0000E94DB4C0E94D8000E9438201FBC85E092
:1001F0008EBD1DBD80E78CBD84E087BF78948FE005
:1002000087BB81B3807F81BB84B3806F84BB18BA06
:100210001F9108951F920F920FB60F9211248F9382
:10022000DF93CF930F92CDB7DEB780919C00898387
:1002300080919B00887BE1F381E080935403898166
:10024000809355030F90CF91DF918F910F900FBE48
:100250000F901F901895DF93CF930F92CDB7DEB715
:1002600080915503898310925503F894109254039A
:10027000789489810F90CF91DF91089590919B00A0
:1002800095FFFCCF80939C000895CF93DF93E4E724
:10029000F0E094EA9083A1EEB2E01197F1F700004C
:1002A000A3E7B0E09EE09C9394E89083C1EED2E097
:1002B0002197F1F700008C93908381EE92E00197F3
:1002C000F1F7000084E98083DF91CF910895EF92E8
:1002D000FF920F931F93DF93CF9300D0CDB7DEB77C
:1002E000082F162F843070F5643160F58BE1498357
:1002F0005A830E9445018CE40E944501812F0E948F
:100300004501802F0E94450180E791E00197F1F7B8
:1003100000C0E12EFF2449815A81042F152F06C009
:100320000E94450194EC9A95F1F700C0E4E1EE16C5
:10033000F10444F4F80181918F010894E11CF11C4F
:10034000882371F70F900F90CF91DF911F910F913C
:10035000FF90EF9008951F93DF93CF9300D0CDB718
:10036000DEB7182F8430F0F46431E0F48BE12A8397
:1003700069830E9445018CE40E9445016981862FB2
:100380000E944501812F0E94450180E791E001977D
:10039000F1F700C02A81822F0E94450194EC9A95C2
:1003A000F1F700C00F900F90CF91DF911F9108954A
:1003B0008BE10E94450183E40E94450186E696EEAA
:1003C000A0E081509040A040E1F70895EF92FF92A5
:1003D0000F931F93182FF62EE42E842F64E60E94AD
:1003E0003A54082F282F30E0205D3F4F442737FD37
:1003F0004095542F812F6F2D0E94AB018CE9089FEF
:10040000002D11240E0D802F6AE00E943A54E82E30
:100410006F2D6F5F282F30E0205D3F4F442737FD61
:100420004095542F812F0E94AB016F2D6E5F26EFF8
:10043000E29E202D1124200F30E0205D3F4F442705
:1004400037FD4095542F812F0E94AB011F910F91D2
:10045000FF90EF900895EF92FF920F931F9380E02B
:1004600090E062E070E040E050E020E030E00AE040
:1004700010E0B8E7EB2EF12C0E94AB33009709F0A7
:1004800069C080E090E06CEF7FEF40E050E020E05A
:1004900030E00AE010E0A8E7EA2EF12C0E94AB332E
:1004A000009709F06BC080E090E066E070E040E00B
:1004B00050E020E030E00AE010E0F8E7EF2EF12C09
:1004C0000E94AB33009709F045C080E090E068EFF0
:1004D0007FEF40E050E020E030E00AE010E0E8E7A5
:1004E000EE2EF12C0E94AB33009709F047C080E05C
:1004F00090E06AE070E040E050E020E030E00AE0A8
:1005000010E0B8E7EB2EF12C0E94AB33009711F509
:1005100080E090E064EF7FEF40E050E020E030E0EA
:100520000AE010E0A8E7EA2EF12C0E94AB33009716
:1005300029F580E090E06EE070E040E050E020E0DF
:1005400030E00AE010E0F8E7EF2EF12C0E94AB3328
:10055000009719F081E090E013C080E090E060EF38
:100560007FEF40E050E020E030E00AE010E0E8E714
:10057000EE2EF12C0E94AB33009761F08FEF9FEFCE
:1005800060E070E040E050E02AE030E00CEE1FEF69
:100590000E94C82F1F910F91FF90EF9008957F92B6
:1005A0008F929F92AF92BF92CF92DF92EF92FF9283
:1005B0000F931F93CF93DF93EC014B01742E60FDDB
:1005C00021C080E090E0DC018093C0039093C103E0
:1005D000A093C203B093C3038093A6039093A70391
:1005E000A093A803B093A90380E090E060E070E0DE
:1005F00041E050E020E730E003E010E0F5E4EF2ECA
:10060000F12C20C080E090E0DC018093C003909347
:10061000C103A093C203B093C3038093A603909336
:10062000A703A093A803B093A90380E090E060E043
:1006300070E046E050E023E530E008E010E0E1E55E
:10064000EE2EF12CBEE1CB2ED12CAA24BB240E948D
:100650007A4522E030E0CE01B9010E944654FC0107
:10066000C401B9010E944654E817F90709F47BC098
:10067000C0FD37C086EF9FEF60E070E04AE050E0D9
:1006800028E230E002E310E00E9437398AE090E08F
:100690009093E3038093E2038EE79FEF60E070E0C6
:1006A00040E050E028E230E000E010E00E94C82F77
:1006B00080E090E062E070E048E15CEF20E030E054
:1006C000A4E1EA2EF12CF8E2CF2ED12CAA24BB24EF
:1006D0000E94C13186EF9FEF60E070E046EF5FEF70
:1006E00036C08AE090E060E070E046EF5FEF28E21D
:1006F00030E002E310E00E94373986EF9FEF9093DD
:10070000E3038093E20382E890E060E070E040E081
:1007100050E028E230E000E010E00E94C82F80E0C6
:1007200090E067E070E048EE53E020E030E0E4E184
:10073000EE2EF12CB8E2CB2ED12CAA24BB240E94A1
:10074000C1318AE090E060E070E04AE050E028E2E9
:1007500030E00EEC1FEF0E9437391092E303109245
:10076000E2030E946D2AA1E08A2E912C8C229D2208
:10077000C0FD4EC080E090E0DC018093C003909308
:10078000C103A093C203B093C3038093A6039093C5
:10079000A703A093A803B093A90380E090E060E0D2
:1007A00070E041E050E020E730E003E010E0F5E4E5
:1007B000EF2EF12CEEE1CE2ED12CAA24BB240E94E8
:1007C0007A4583E290E060E070E040E050E02EE1A6
:1007D00030E00CE810E00E94C82F80E090E060E07C
:1007E00070E048EE53E020E030E002E310E0BCE3CC
:1007F000EB2EF12C0E94AB33CE0162E070E00E9440
:1008000046549B01309521953F4F8BE490E04DC0BD
:1008100080E090E0DC018093C0039093C103A0933B
:10082000C203B093C3038093A6039093A703A0933E
:10083000A803B093A90380E090E060E070E046E098
:1008400050E023E530E008E010E0A1E5EA2EF12CCD
:10085000FEE1CF2ED12CAA24BB240E947A458BED39
:100860009FEF60E070E040E050E02EE130E00CE807
:1008700010E00E94C82F80E090E060E070E048EE59
:1008800053E020E030E002E310E0ECE3EE2EF12C48
:100890000E94AB33CE0162E070E00E9446549B019F
:1008A000309521953F4F8DE490E0289FB001299F1E
:1008B000700D389F700D112466597F4F80E090E0D5
:1008C00040E050E022E330E004EC1FEF0E94C82F2C
:1008D0002196C330D10518F465EB7FEF02C06BEFB2
:1008E0007FEF80E090E040E050E022E330E00CE376
:1008F00010E00E94C82F80E090E060E070E048E1E6
:100900005CEF20E030E002E310E0EE24FF240E94E0
:10091000AB3370FCB3C081149104D9F48CEE9FEF1B
:1009200066EA7FEF48ED5FEF22E330E000E010E0A1
:100930000E94D33A82E390E09093E3038093E20332
:100940008EEE9FEF6AE570E04CEE5FEF22E330E061
:1009500039C082EE9FEF66EA7FEF4AEB5FEF22E35A
:1009600030E000E010E00E94D33A84E190E0909300
:10097000E3038093E20384E090E06EE070E042E104
:1009800050E020E030E00AEB1FEFB2E3EB2EF12C59
:10099000CC24DD240E944F4384E090E06EE070E0C0
:1009A00042E150E024E130E008E11CEF0E944F43B7
:1009B00086EF9FEF6AE570E04AE050E028E230E021
:1009C00000E010E00E94D33A84EC9FEF9093E303A1
:1009D0008093E2038CE090E065E070E04BEF5FEF26
:1009E00023E030E002E110E0EE24FF24A2E3CA2E6F
:1009F000D12CAA24BB240E9441368AE090E065E015
:100A000070E048E85FEF25E030E00E9441368AEF71
:100A10009FEF65E070E048E15CEF25E030E0F9E150
:100A2000EF2EF12C0E94413680E090E066EF7FEFE0
:100A300042EE5FEF22E330E004EC1FEF0E94373913
:100A400080E090E0DC018093C0039093C103A09309
:100A5000C203B093C3038093A6039093A703A0930C
:100A6000A803B093A9038AE590E09093E3038093F1
:100A7000E20387E090E060EA70E0B2C08114910484
:100A8000D1F582EE9FEF6AE570E046E450E022E3A4
:100A900030E000E010E00E94D33A8CEE9FEF90939C
:100AA000E3038093E20385E090E06EE070E042E1D2
:100AB00050E020E030E00AEB1FEFE2E3EE2EF12CF5
:100AC000CC24DD240E944F4385E090E06EE070E08E
:100AD00042E150E024E130E008E11CEF0E944F4386
:100AE00086EF9FEF66EA7FEF46EF5FEF28E230E0A8
:100AF00000E010E01AC08CEE9FEF6AE570E048E27B
:100B000050E022E330E000E010E00E94D33A8EECA7
:100B10009FEF9093E3038093E2038EEE9FEF66EAEC
:100B20007FEF44E150E022E330E00E94D33A8CE3CF
:100B300090E09093E3038093E2038CE090E064E024
:100B400070E04BEF5FEF23E030E00EE010E0EE24CA
:100B5000FF24B2E3CB2ED12CAA24BB240E94413621
:100B60008AE090E064E070E048E85FEF25E030E084
:100B70000E9441368DEF9FEF64E070E048E15CEF4A
:100B800025E030E0A9E1EA2EF12C0E94413680E018
:100B900090E066EF7FEF4EE150E022E330E004ECBE
:100BA0001FEF0E94373980E090E0DC018093C003A2
:100BB0009093C103A093C203B093C3038093A60391
:100BC0009093A703A093A803B093A9038AE590E0AC
:100BD0009093E3038093E20382E090E066ED70E09F
:100BE00044E050E022EC30E005E010E0F3EAEF2EC4
:100BF000F12CE4E1AE2EB12C0E947A451092E30371
:100C00001092E203DF91CF911F910F91FF90EF902F
:100C1000DF90CF90BF90AF909F908F907F9008957E
:100C20002F923F924F925F926F927F928F929F92FC
:100C3000AF92BF92CF92DF92EF92FF920F931F93EA
:100C4000CF93DF93582E492E8BE00E94BE4C50FE6E
:100C50001CC10F2EF0E06F2EF0E07F2EF0E08F2E03
:100C6000F0E09F2EF02D6092C0037092C10380923D
:100C7000C2039092C3036092A6037092A70380926E
:100C8000A8039092A9038AE590E09093E3038093F0
:100C9000E20382E090E066ED70E044E050E022EC98
:100CA00030E005E010E0A3EAEA2EF12CF2E3CF2ECB
:100CB000D12CE4E1AE2EB12C0E947A451092E303D0
:100CC0001092E20360E070E080E291EC4AE050E0D4
:100CD0000E94023FC0E5D0E0D093E303C093E2035B
:100CE0008CE090E066E070E045E050E023E030E02A
:100CF00002E110E0EE24FF24B8E2CB2ED12CA2E3D7
:100D0000AA2EB12C0E944136F2E02F2E312C852DD7
:100D1000942DB1010E944654709561957F4F8DE2EC
:100D200090E0689FA001699F500D789F500D11249D
:100D3000415A5F4F8AE090E066E070E025E030E0E5
:100D4000AA24BB240E94413680E090E06AE070E073
:100D50004AE050E028E230E00EEC1FEF0E94373905
:100D60001092E3031092E2036092C0037092C103F9
:100D70008092C2039092C3036092A6037092A7036D
:100D80008092A8039092A90387E690E063E070E068
:100D90000E94C12A60E070E041E850E02DE930E0B7
:100DA0000E94902D80E090E06AE070E040E050E02A
:100DB0002EE130E008E210E00E94C82F80E090E0D1
:100DC0006AE070E04CE95FEF2EE130E008ED1FEFE4
:100DD000ECE3EE2EF12CB2E8CB2ED12C0E94D73CC6
:100DE00086EF9FEF9093E3038093E20380E090E02F
:100DF00067E070E048EE53E020E030E000E010E013
:100E0000A4E1EA2EF12CFEE1CF2ED12CE8E2AE2EA9
:100E1000B12C0E94C131D093E303C093E2038AE076
:100E200090E06AE570E04AE050E023E230E00E94A2
:100E3000D33A1092E3031092E2038CE090E068E072
:100E400070E045E050E023E030E008E110E0EE24FF
:100E5000FF24B2E3CB2ED12CAA24BB240E9441361E
:100E6000852D942DB1010E9446548DE290E0689F3B
:100E7000A001699F500D789F500D1124475E5F4F70
:100E80008AE090E068E070E01BC10F2EF0E06F2E6A
:100E9000F0E07F2EF0E08F2EF0E09F2EF02D60929C
:100EA000C0037092C1038092C2039092C303609208
:100EB000A6037092A7038092A8039092A9038AE5E3
:100EC00090E09093E3038093E20387E090E060EA90
:100ED00070E044E050E022EC30E005E010E0A3EAEE
:100EE000EA2EF12CF2E3CF2ED12CE4E1AE2EB12C80
:100EF0000E947A451092E3031092E20360E070E0F2
:100F000080E291E44AE050E00E94023FC0EBDFEF54
:100F1000D093E303C093E2038CE090E063E070E0E1
:100F200045E050E023E030E00EE010E0EE24FF2446
:100F3000B8E2CB2ED12CA2E3AA2EB12C0E944136CE
:100F4000F2E02F2E312C852D942DB1010E944654B4
:100F5000709561957F4F8DE290E0689FA001699F39
:100F6000500D789F500D1124415A5F4F8AE090E058
:100F700063E070E025E030E0AA24BB240E94413603
:100F800080E090E06AE070E046EF5FEF28E230E05A
:100F90000EEC1FEF0E9437391092E3031092E20328
:100FA0006092C0037092C1038092C2039092C30307
:100FB0006092A6037092A7038092A8039092A9035F
:100FC00087E690E063E070E00E94C12A60E070E094
:100FD00041E850E02DE930E00E94902D80E090E063
:100FE0006AE070E040E050E02EE130E008E210E01E
:100FF0000E94C82F80E090E06AE070E044E650E094
:101000002EE130E008ED1FEFECE3EE2EF12CB2E81C
:10101000CB2ED12C0E94D73C8AE090E09093E30342
:101020008093E20380E090E062E070E048E15CEFF2
:1010300020E030E000E010E0A4E1EA2EF12CFEE137
:10104000CF2ED12CE8E2AE2EB12C0E94C131D0932C
:10105000E303C093E2038AE090E066EA7FEF46EFA5
:101060005FEF23E230E00E94D33A1092E303109244
:10107000E2038CE090E061E070E045E050E023E0C6
:1010800030E001E110E0EE24FF24B2E3CB2ED12CBE
:10109000AA24BB240E944136852D942DB1010E94C3
:1010A00046548DE290E0689FA001699F500D789FA3
:1010B000500D1124475E5F4F8AE090E061E070E0E0
:1010C00025E030E0A4ECAA2EAFEFBA2E0E94413604
:1010D000DF91CF911F910F91FF90EF90DF90CF9014
:1010E000BF90AF909F908F907F906F905F904F9048
:1010F0003F902F900895EF92FF920F931F93CF93FD
:10110000DF9320E030E0BAE1EB2EF12C11C00D911D
:101110001D91C191D1910C171D0741F44C3051051F
:10112000C1F04F5F5F4F4D30510589F72F5F3F4F43
:10113000261737078CF4A82FB92F2E9DF0012F9D6D
:10114000F00D3E9DF00D1124E856FA4F40E050E0BE
:10115000DECF21E030E002C020E030E0C901DF91C5
:10116000CF911F910F91FF90EF900895CF93DF9350
:10117000FB0124E0EE0FFF1F2A95E1F7E655FE4F35
:10118000A0E0B0E060E070E02191319137FD11C046
:101190002417350771F0E901CC0FDD1FCA58DC4F69
:1011A0000990D881C02D209721F4009739F46F5F02
:1011B0007F4F1196A830B10539F79B01C901DF9126
:1011C000CF910895FC018081918118161906ACF425
:1011D000248135818217930781F424853585821710
:1011E000930759F081E090E090937B0380937A031A
:1011F000909377038093760319C084899589181694
:101200001906BCF4208D318D8217930791F4248543
:1012100035858217930769F081E090E090938F0302
:1012200080938E0390938B0380938A0321E030E0B8
:1012300002C020E030E0C90108950F931F93DF93AF
:10124000CF93CDB7DEB760970FB6F894DEBF0FBE71
:10125000CDBF8C01FC0160817181161617060CF060
:101260006EC044815581141615060CF068C024899F
:101270003589121613060CF062C0808D918D1816F8
:1012800019060CF05CC0240F351F260F371F280FDE
:10129000391F86E090E0A0916603B09167038A1B36
:1012A0009B0B880F991F2817390709F048C064174E
:1012B000750709F044C08AE792E020E030E0AE0113
:1012C0004F5F5F4FFC01A191B191CF01AA0FBB1FEE
:1012D000A00FB11F6D917C9111972115310579F007
:1012E000D9011197AA0FBB1FA40FB51F0D90BC9178
:1012F000A02D6A177B0719F12530310504F5161664
:10130000170654F4D901AA0FBB1FA40FB51F1196DD
:101310007C936E932F5F3F4FF2E08A389F0791F6E0
:10132000F9013197EE0FFF1FEC0FFD1F21E030E0B8
:101330004181528189819A814817590711F420E02F
:1013400030E0C90160960FB6F894DEBF0FBECDBF86
:10135000CF91DF911F910F9108952F923F924F925D
:101360005F926F927F928F929F92AF92BF92CF9235
:10137000DF92EF92FF920F931F93DF93CF93CDB73E
:10138000DEB728970FB6F894DEBF0FBECDBF9C83A3
:101390008B834B017A0189018091740390917503CD
:1013A000009709F015C1809190039091910348171F
:1013B00059070CF00DC1C901BA010E947B080097C2
:1013C00009F006C1F701EE0FFF1FEC5CFA4F9182A6
:1013D00080828AE190E0E89EF001E99EF00DF89E9F
:1013E000F00D1124E856FA4FD8018AE10D900192D0
:1013F0008150E1F78091920390919303009729F433
:10140000C8010E94E208009791F5809192039091A3
:1014100093038130910529F4C8010E941D090097AA
:1014200031F55401AA0CBB1CA00EB11EC40134E05E
:10143000880F991F3A95E1F72AEA622E21E0722E71
:10144000680E791E9C0126543E4F3A83298327015A
:101450000894411C511C1201220C331C84E395E0BA
:10146000280E391EF7013296FE83ED8314C081E009
:1014700090E09093750380937403ACEEB3E0E4E3E3
:10148000F5E084E601900D928150E1F7F09291032E
:10149000E09290039DC0F301219131913F01388783
:1014A0002F8337FD8FC08B819C812817390709F462
:1014B00089C0C901880F991FFC01EA58FC4F20819F
:1014C00031812115310509F07DC0F501208131817F
:1014D0003093E9032093E8037801E80EF91EF70141
:1014E00080819181F50191838083C090E803D09041
:1014F000E903F701D182C08280E090E06F817885B6
:10150000A4010E94B6088130910509F040C081E035
:1015100090E06F817885A4010E94B608BC0197FD18
:1015200036C0D092E903C092E8036C01CC0CDD1CFC
:10153000C00ED11EF60180819181F70191838083D5
:101540008091E8039091E903F601918380832F81D4
:101550003885F10131832083C9014D815E81980175
:101560000E94AD09F701808191819093E9038093F6
:10157000E803F60180819181F70191838083809156
:10158000E8039091E903F6019183808307C0C401C9
:101590006F817885A20198010E94AD09F5018081D3
:1015A00091819093E9038093E803F7018081918111
:1015B000F501918380838091E8039091E903F7011D
:1015C0009183808329813A816216730609F063CF83
:1015D00028960FB6F894DEBF0FBECDBFCF91DF9136
:1015E0001F910F91FF90EF90DF90CF90BF90AF9041
:1015F0009F908F907F906F905F904F903F902F9033
:1016000008958F929F92AF92BF92CF92DF92EF9206
:10161000FF920F931F93CF93DF93EC017B0159014E
:101620008091900390919103481759070CF05DC089
:10163000FA01EE0FFF1FEC5CFA4FD183C083C6178F
:10164000D70771F4ACEEB3E0E4E3F5E084E6019093
:101650000D928150E1F7509391034093900345C060
:10166000FE01EE0FFF1FE858FB4F81E090E09183F1
:1016700080838E01F4E0000F111FFA95E1F7065503
:101680001E4FE8E0CE2ED12C4A010894811C911CFB
:10169000F801819191918F019C01220F331FF90173
:1016A000E858FB4F408151814115510591F497FD58
:1016B00010C08E159F0541F02A0D3B1DF9012081B8
:1016C0003181121613062CF0B701A40195010E9476
:1016D000010B0894C108D108C114D104C9F6CC0F7C
:1016E000DD1FC858DB4F19821882DF91CF911F91FF
:1016F0000F91FF90EF90DF90CF90BF90AF909F90B1
:101700008F9008959A014AE1E8E7F4E0DF011D9225
:101710004A95E9F74AE050E05093910340939003D3
:1017200040E050E00E94010B21E030E08091900306
:10173000909191038A30910511F420E030E0C901C5
:101740000895FC0120813181828193812817390716
:10175000A9F424893589868997892817390771F46E
:1017600082859385248535858217930739F421E096
:1017700030E0468557858417950711F020E030E06A
:10178000C90108952F923F924F925F926F927F927C
:101790008F929F92AF92BF92CF92DF92EF92FF9281
:1017A0000F931F93DF93CF9300D000D000D0CDB71D
:1017B000DEB79A8389831B012A01B22EA32E809162
:1017C000AC0A9091AD0A481759070CF0D0C080912F
:1017D000740390917503009709F0C9C0822F932F6D
:1017E0000E94A10B0097A1F0A2E9B4E0E2EEF4E0C0
:1017F00080E501900D928150E1F75092AD0A409240
:10180000AC0A81E090E09093750380937403AFC0BD
:1018100036E7632E33E0732EC501092F182FEE240F
:10182000FF244201880C991C880C991C92EEC92E49
:1018300094E0D92E8C0C9D1C94012E5F3F4F3C836D
:101840002B830894411C511C89819A818E159F0518
:1018500009F47FC0F80180819181181619060CF0F7
:1018600078C0F30180819181009709F072C0C101B5
:10187000B7014B2D5A2D0E94820B009709F469C0C5
:10188000C501492F582F5E834D83CC24DD24ED8183
:10189000FE8180819181181619060CF44CC0C70195
:1018A000B6014B2D5A2D0E94820B009709F443C0BC
:1018B000F801808191819093E9038093E803ED81A1
:1018C000FE8180819181F801918380838091E8037A
:1018D0009091E903ED81FE8191838083F401F1828F
:1018E000E082EB81FC81D182C082E0919003F09193
:1018F0009103EE0FFF1FE651FC4F60817181C6011D
:10190000A2012B2D3A2D0E94C20BF80180819181FA
:101910009093E9038093E803ED81FE8180819181BA
:10192000F801918380838091E8039091E903ED8130
:10193000FE81918380830894C11CD11C2D813E813E
:101940002E5F3F4F3E832D833DE0C316D10409F047
:101950009ECF0894E11CF11C0E5F1F4F82E090E0C7
:10196000680E791E9DE0E916F10409F06DCF269608
:101970000FB6F894DEBF0FBECDBFCF91DF911F91A0
:101980000F91FF90EF90DF90CF90BF90AF909F901E
:101990008F907F906F905F904F903F902F90089521
:1019A000FC0144E0EE0FFF1F4A95E1F7E655FE4FBC
:1019B00020E030E0819191918617970711F4C901D9
:1019C00008952F5F3F4F28303105A1F70895EF921A
:1019D000FF920F931F93CF93DF937C019B01E091C4
:1019E0006A04F0916B042E1B3F0BC90137FF04C042
:1019F00088279927821B930B8530910544F0121696
:101A000013061CF42850304002C0285F3F4FC90124
:101A100037FF04C088279927821B930B84309105D8
:101A200009F081C012161306E4F5CF010196C8E053
:101A3000D0E0BE010E944654870163E0000F111FF1
:101A40006A95E1F7800F911F880F991F86559E4F69
:101A5000DC018D919C91119797FF65C0CF01029693
:101A6000BE010E944654800F911F880F991F865512
:101A70009E4FDC018D919C91119797FF54C0CF012F
:101A80000396BE010E944654800F911F880F991F34
:101A900086559E4FDC018D919C91119797FF43C015
:101AA00004C02115310519F43EC02CEF3FEFCF01E2
:101AB0000796C8E0D0E0BE010E9446548701A3E02B
:101AC000000F111FAA95E1F7800F911F880F991F32
:101AD00086559E4FDC018D919C91119797FF23C0F5
:101AE000CF010696BE010E944654800F911F880FB9
:101AF000991F86559E4FDC018D919C91119797FF00
:101B000012C0CF010596BE010E944654800F911F5E
:101B1000880F991F86559E4FFC018081918197FF08
:101B200002C024E030E08DE290E0289FA001299FD0
:101B3000500D389F500D1124CA01DF91CF911F9194
:101B40000F91FF90EF9008956F927F928F929F92E6
:101B5000AF92BF92CF92DF92EF92FF920F931F93BB
:101B6000CF93DF93EC013B018330910521F0883066
:101B7000910509F0B4C1809132059091330561144B
:101B8000710409F0C0C060E070E00E94E70CAC0195
:101B90004451504080E090E060E070E022E830E0A6
:101BA00008E710E00E94C82FFCEE8F2EFFEF9F2E5B
:101BB0009092E3038092E203CE0165E070E00E9420
:101BC00046548BE490E0689F8001699F100D789FD8
:101BD000100D11240758104085E090E06EE070E091
:101BE00042E150E020E030E0ECE3EE2EF12CB6E4F0
:101BF000CB2ED12C0E944F438CEE9FEF66EA7FEFF5
:101C000046EF5FEF22E330E000E010E00E94D33ABD
:101C10008CE390E09093E3038093E20380E090E014
:101C200063E070E040E050E028E13CEFA7E1EA2EFD
:101C3000F12CF2E3CF2ED12CAA24BB240E94C13177
:101C400086EF9FEF6AE570E04AE050E02DE230E079
:101C50000E94D33A9092E3038092E2038CE090E0FA
:101C600064E070E04BEF5FEF23E030E002E110E072
:101C7000EE24FF240E9441368AE090E064E070E0A8
:101C800046EF5FEF25E030E00E9441368BEF9FEF9B
:101C900064E070E048E15CEF25E030E0E9E1EE2E41
:101CA000F12CBCE3CB2ED12C0E94413680E090E099
:101CB00066EF7FEF4AEB5FEF2CE330E00AEB1FEFBC
:101CC000ACE3EA2EF12C0E94624080E090E0DC015F
:101CD0008093C0039093C103A093C203B093C30346
:101CE0008093A6039093A703A093A803B093A9039E
:101CF0008AE590E09093E3038093E20387E090E02D
:101D000060EA70E0D7C060E070E00E94E70CAC01D0
:101D10004C5E5F4F80E090E060E070E024E630E0F1
:101D200008E710E00E94C82FF4E1AF2EB12CB0926A
:101D3000E303A092E203CE0165E070E00E94465406
:101D40008BE490E0689F8001699F100D789F100DD3
:101D500011240758104084E090E06EE070E042E10A
:101D600050E020E030E0ECE3EE2EF12CB6E4CB2E98
:101D7000D12C0E944F4382EE9FEF6AE570E042E370
:101D800050E02DE230E000E010E00E94D33A8CEE0B
:101D90009FEF9093E3038093E20385E090E06EE091
:101DA00070E042E150E020E030E00EEC1FEFA2E3F3
:101DB000EA2EF12CCC24DD240E944F4385E090E0F4
:101DC0006EE070E042E150E027E130E008E11CEF16
:101DD0000E944F4386EF9FEF66EA7FEF40E050E0BE
:101DE0002DE230E000E010E00E94D33A8CEE9FEF4D
:101DF00060E070E04EEC5FEF28E230E00E9437399F
:101E0000B092E303A092E2038CE090E065E070E022
:101E10004BEF5FEF23E030E000E110E0EE24FF2421
:101E2000FCE3CF2ED12CAA24BB240E9441368AE0A9
:101E300090E065E070E046EF5FEF25E030E00E9463
:101E400041368CEF9FEF65E070E048E15CEF25E004
:101E500030E0E9E1EE2EF12C0E94413680E090E086
:101E600066EF7FEF46E450E022E330E004EC1FEF42
:101E7000B0E5EB2EF12C0E94624080E090E0DC01A6
:101E80008093C0039093C103A093C203B093C30394
:101E90008093A6039093A703A093A803B093A903EC
:101EA0008AE590E09093E3038093E20382E090E080
:101EB00066ED70E044E050E022EC30E005E010E038
:101EC000A3EAEA2EF12CF2E3CF2ED12CE4E1AE2EE0
:101ED000B12C0E947A451092E3031092E203C430C1
:101EE000D10521F0C930D10509F0B1C18091320589
:101EF0009091330521E06216710409F0BFC060E0E3
:101F000070E00E94E70CAC014C5E5F4F80E090E017
:101F100060E070E022E830E008E710E00E94C82F9F
:101F2000B4E18B2E912C9092E3038092E203CE01D8
:101F300065E070E00E9446548BE490E0689F800169
:101F4000699F100D789F100D11240758104084E0F0
:101F500090E06EE070E042E150E020E030E0ACE381
:101F6000EA2EF12CF6E4CF2ED12C0E944F438CEEBA
:101F70009FEF6AE570E04AE050E022E330E000E0E5
:101F800010E00E94D33A84EC9FEF9093E303809398
:101F9000E20380E090E066E070E040E050E028EE90
:101FA00033E0E7E1EE2EF12CB2E3CB2ED12CAA24C4
:101FB000BB240E94C13186EF9FEF66EA7FEF46EFB8
:101FC0005FEF2DE230E00E94D33A9092E3038092DB
:101FD000E2038CE090E065E070E04BEF5FEF23E020
:101FE00030E00EE010E0EE24FF24ACE3CA2ED12C4A
:101FF0000E9441368AE090E065E070E048E85FEFDB
:1020000025E030E00E9441368CEF9FEF65E070E004
:1020100048E15CEF25E030E0F9E1EF2EF12C0E9481
:10202000413680E090E066EF7FEF46E450E02CE33D
:1020300030E00AEB1FEFECE3EE2EF12C0E94624041
:1020400080E090E0DC018093C0039093C103A093F3
:10205000C203B093C3038093A6039093A703A093F6
:10206000A803B093A9038AE590E09093E3038093DB
:10207000E20382E090E066ED70E0D8C060E070E0DE
:102080000E94E70CAC014451504080E090E060E0D9
:1020900070E024E630E008E710E00E94C82FBCEEB4
:1020A000AB2EBFEFBB2EB092E303A092E203CE01B2
:1020B00065E070E00E9446548BE490E0689F8001E8
:1020C000699F100D789F100D11240258104084E074
:1020D00090E06EE070E042E150E020E030E0ACE300
:1020E000EA2EF12CF6E4CF2ED12C0E944F4382EE43
:1020F0009FEF66EA7FEF4EEC5FEF22E330E000E017
:1021000010E00E94D33A84E190E09093E30380933F
:10211000E20384E090E06EE070E042E150E020E015
:1021200030E00AEB1FEFE2E3EE2EF12CCC24DD24AD
:102130000E944F4384E090E06EE070E042E150E0A6
:1021400021E230E008E11CEF0E944F4386EF9FEF51
:102150006AE570E040E050E02DE230E000E010E0A1
:102160000E94D33A84E190E060E070E042E350E006
:1021700028E230E00E943739B092E303A092E203F4
:102180008CE090E064E070E04BEF5FEF23E030E044
:1021900002E110E0EE24FF24BCE3CB2ED12CAA24D4
:1021A000BB240E9441368AE090E064E070E048E899
:1021B0005FEF25E030E00E9441368BEF9FEF64E057
:1021C00070E048E15CEF25E030E0A9E1EA2EF12C77
:1021D0000E94413680E090E066EF7FEF4AEB5FEFD0
:1021E00022E330E004EC1FEFF0E5EF2EF12C0E942B
:1021F000624080E090E0DC018093C0039093C103D3
:10220000A093C203B093C3038093A6039093A70344
:10221000A093A803B093A9038AE590E09093E30309
:102220008093E20387E090E060EA70E044E050E0F1
:1022300022EC30E005E010E0E3EAEE2EF12CB2E310
:10224000CB2ED12CA4E1AA2EB12C0E947A4580E09D
:1022500090E0DC018093C0039093C103A093C2037C
:10226000B093C3038093A6039093A703A093A803FE
:10227000B093A9038AE590E09093E3038093E2038F
:1022800080E090E060E070E044E050E022EC30E07C
:1022900005E010E0F3EAEF2EF12CE2E3CE2ED12C94
:1022A000AA24BB240E947A451092E3031092E20311
:1022B0000E946D2ADF91CF911F910F91FF90EF90B7
:1022C000DF90CF90BF90AF909F908F907F906F9056
:1022D0000895CF92DF92EF92FF920F931F93DF93B7
:1022E000CF93CDB7DEB760970FB6F894DEBF0FBEC1
:1022F000CDBFDE011196E4EAF2E020E101900D92FB
:102300002150E1F700916A0410916B04FE013196AF
:1023100021E1E22EF12CEC0EFD1E28E030E06C01F4
:1023200093E0CC0CDD1C9A95E1F781919191800F9F
:10233000911FB9010E944654AC01D601A80FB91FE4
:10234000AA0FBB1FA655BE4F8D919C91119797FD6B
:1023500002C0CA0103C0EE15FF0539F760960FB63B
:10236000F894DEBF0FBECDBFCF91DF911F910F91CB
:10237000FF90EF90DF90CF9008956F927F928F92B1
:102380009F92AF92BF92CF92DF92EF92FF920F9304
:102390001F93CF93DF934C018B017A015901B1E672
:1023A000CB2EBBE0DB2EA0E06A2EA1E07A2E0E94AD
:1023B000D8018DB79EB708970FB6F8949EBF0FBE91
:1023C0008DBFEDB7FEB73196ADB7BEB71296DC92B2
:1023D000CE92119773826282E482F582B782A682DE
:1023E0000E949A4DEDB7FEB738960FB6F894FEBF2F
:1023F0000FBEEDBF81E061E0A6010E946701809100
:10240000560390915703009731F00E946D2AB59BB7
:10241000FECFB599FECFC701B5010E94D00CEC01EB
:1024200080916A0490916B04C817D90721F10115B6
:10243000110561F4C701BE010E94E70CAC0180E008
:1024400090E060E070E026E930E00BC0C701BE011B
:102450000E94E70CAC0180E090E060E070E02CE3CB
:1024600030E002E810E00E94C82FD0936B04C093C4
:102470006A040E942B028114910409F0C5C0C501B1
:102480000E9469114C01C501B4010E94E70C7C0156
:10249000C815D90509F497C0F7FE04C08827992705
:1024A0008E199F098B3591050CF45FC0A114B104FE
:1024B00029F0F2E0AF16B10409F057C0C0FF55C0D3
:1024C0001E141F042CF4A3EDBFEFEA0EFB1E04C084
:1024D000EDE2F0E0EE0EFF1ECE0162E070E00E9441
:1024E0004654880F991F8A559E4FDC014D915C918F
:1024F000495150408AE090E060E070E02EE130E029
:102500000CE810E00E9480491E141F041CF486EAA7
:102510009FEF02C08AE590E09093E3038093E2038B
:102520001E141F041CF043ED5FEF02C04DE250E0AB
:1025300087EE9FEFBA012EE130E00CE810E00E9438
:10254000D33A1092E3031092E20380E090E069E155
:1025500070E0A7012EE130E0E4E6EE2EF12CB8E7C2
:10256000CB2ED12C0E94D73C44C0CE0162E070E05B
:102570000E944654880F991F8A559E4FFC01408146
:1025800051814E5150408AE090E060E070E02EE1D1
:1025900030E008E210E00E94804980E090E06EE1C7
:1025A00070E0A7012EE130E008ED1FEFF4E6EF2E1A
:1025B000F12CE8E7CE2ED12C0E94D73C1092E303F9
:1025C0001092E20316C0C40162E070E00E9446541B
:1025D000880F991F8A559E4FDC014D915C918AE0CE
:1025E00090E060E070E028E230E006E910E00E9450
:1025F00080490E942B0290926B0480926A04B092F0
:102600003305A09232054CC0B1E08B169104A1F5C0
:1026100080E090E0DC018093B20A9093B30AA0932B
:10262000B40AB093B50ACE0162E070E00E9446544D
:10263000EC01CC0FDD1FCA55DE4F4881598148514E
:1026400050408AE090E060E070E02EE130E00CE87D
:1026500010E00E94804968E170E088819981681BE0
:10266000790B80E090E040E050E02EE130E00E9405
:10267000C82F0E942B0214C080E090E060E070E060
:10268000A70195010E94BD1131E0832E912C01E03C
:1026900010E03A2D2B2DAE2CBF2CE32EF22E87CE40
:1026A000DF91CF911F910F91FF90EF90DF90CF902E
:1026B000BF90AF909F908F907F906F900895AF9252
:1026C000BF92CF92DF92EF92FF920F931F93CF931F
:1026D000DF937C01CB016A01BA014AE553E00E9415
:1026E000820B0CEE13E0C0E0D0E08DEBA82E81E170
:1026F000B82E15C0E114F10431F0319781E090E07B
:10270000CE17DF0711F080E090E0F8014191519180
:102710008F01219620813181B701F5010995E09162
:102720009003F0919103CE17DF0724F381E0E816C0
:10273000F10459F4EE0FFF1FE651FC4F80819181A7
:10274000909333058093320504C0D0923305C09234
:102750003205DF91CF911F910F91FF90EF90DF90A5
:10276000CF90BF90AF9008950F931F93CF93DF93B7
:102770000E94D8018DB79EB70E970FB6F8949EBFF2
:102780000FBE8DBFEDB7FEB73196C1E6DBE0ADB74A
:10279000BEB71296DC93CE93119709E011E0138334
:1027A000028380915A0390915B0395838483809187
:1027B0005C0390915D039783868380915E03909183
:1027C0005F03918780878091600390916103938775
:1027D00082878091620390916303958784870E942A
:1027E0009A4D8DB79EB70E960FB6F8949EBF0FBE4A
:1027F0008DBF80E060E0AE010E946701ADB7BEB75B
:102800001E970FB6F894BEBF0FBEADBFEDB7FEB7B3
:1028100031961296DC93CE931197138302838091A5
:1028200064039091650395838483809166039091FE
:1028300067039783868380916803909169039187EA
:10284000808780916A0390916B0393878287809140
:102850006C0390916D03958784870E949A4D8DB784
:102860009EB70E960FB6F8949EBF0FBE8DBF81E047
:1028700060E0AE010E946701ADB7BEB71A970FB610
:10288000F894BEBF0FBEADBFEDB7FEB7319612963E
:10289000DC93CE9311978AE191E0938382838091B8
:1028A0006E0390916F039583848380917003909160
:1028B000710397838683809172039091730391874C
:1028C00080870E949A4D8DB79EB70A960FB6F894EE
:1028D0009EBF0FBE8DBF82E060E0AE010E94670127
:1028E000DF91CF911F910F910895EF92FF920F9377
:1028F0001F93CF93DF937C01EB010E946D2A85E645
:1029000090E063E070E00E94C12A009709F461C082
:1029100003E010E080E062E10E94A04C8823D1F344
:102920000E94DA4A80E063E10E94A04C8823D1F340
:1029300080E090E0FC01EE0FFF1F9C0163E0220F9E
:10294000331F6A95E1F7E20FF31FE752F54F20813D
:10295000318121153105A1F1228133812E193F09E1
:1029600037FF03C0309521953F4F2E31310544F597
:10297000FC01EE0FFF1F9C0143E0220F331F4A951D
:10298000E1F7E20FF31FE752F54F248135812C1B4D
:102990003D0B37FF03C0309521953F4F2431310562
:1029A0007CF4FC01EE0FFF1F23E0880F991F2A958E
:1029B000E1F7E80FF91FE752F54F208131810BC095
:1029C00001968930910509F0B5CF0150104009F00A
:1029D000A1CF20E030E0C901DF91CF911F910F918D
:1029E000FF90EF9008952F923F924F925F926F92D7
:1029F0007F928F929F92AF92BF92CF92DF92EF928F
:102A0000FF920F931F93DF93CF93CDB7DEB7A097BD
:102A10000FB6F894DEBF0FBECDBF0E94E7008EE177
:102A200061E00E94B1008EE165E00E94B1008EE19C
:102A300064E10E94B1008EE160E10E94B1000E9459
:102A4000864C8BE00E94BE4C8AE00E94AF2A80E058
:102A500063E10E94A04C8823D1F32FEF3FE746E1CA
:102A6000215030404040E1F700C0000080E090E09D
:102A7000DC018093B60A9093B70AA093B80AB0938A
:102A8000B90A2091B60A3091B70A4091B80A50911C
:102A9000B90A2093B20A3093B30A4093B40A509310
:102AA000B50A2091B20A3091B30A4091B40A50910C
:102AB000B50A2093AE0A3093AF0A4093B00A509300
:102AC000B10A8093C20A9093C30AA093C40AB09338
:102AD000C50A8091C20A9091C30AA091C40AB0911C
:102AE000C50A8093BE0A9093BF0AA093C00AB09310
:102AF000C10AC39A8FEF9FE7A4E081509040A040A5
:102B0000E1F700C00000C39811E6812E1BE0912E72
:102B1000B49914C0809156039091570301979093F4
:102B2000570380935603C39A2FEF3FE744E02150A9
:102B300030404040E1F700C00000C398B69914C08F
:102B40008091560390915703019690935703809379
:102B50005603C39A8FEF9FE7A4E081509040A040B6
:102B6000E1F700C00000C398B5995DC70E94D80185
:102B7000C39A2FEF3FE744E0215030404040E1F757
:102B800000C00000C3988091560390915703823093
:102B9000910509F4B4C0833091051CF497FF06C079
:102BA00042C78330910509F03EC7F1C60F2EF0E011
:102BB0004F2EF0E05F2EF0E06F2EF0E07F2EF02D34
:102BC0004092C0035092C1036092C2037092C3034B
:102BD0004092A6035092A7036092A8037092A903A3
:102BE000BAE52B2E312C3092E3032092E20382E0EF
:102BF00090E066ED70E044E050E022EC30E005E06B
:102C000010E0A3EAEA2EF12CF2E3CF2ED12CEEE174
:102C1000AE2EB12C0E947A454092C0035092C1035F
:102C20006092C2037092C3034092A6035092A7031E
:102C30006092A8037092A9033092E3032092E2030A
:102C400081E090E06DE770E044E050E022EC30E09D
:102C5000B2E3AB2EB12C0E947A451092E30310929E
:102C6000E2034092B60A5092B70A6092B80A709294
:102C7000B90A8091B60A9091B70AA091B80AB091AA
:102C8000B90A8093B20A9093B30AA093B40AB0939E
:102C9000B50A8091B20A9091B30AA091B40AB0919A
:102CA000B50A8093AE0A9093AF0AA093B00AB0938E
:102CB000B10A4092C20A5092C30A6092C40A70924A
:102CC000C50A8091C20A9091C30AA091C40AB0912A
:102CD000C50A8093BE0A9093BF0AA093C00AB0931E
:102CE000C10A60E070E080EA92EC44E650E00E94A5
:102CF000023F80EB9FEF9093E3038093E203A4E70E
:102D00006A2EA4E07A2E442455248CE590E06EE7E8
:102D100070E00E947514D3018D939C9381E890E03C
:102D200065E470E00E947514F301938382838CE064
:102D300090E063E070E045E050E023E030E001E146
:102D400010E0EE24FF24F2E3CF2ED12CECE3AE2EE4
:102D5000B12C0E944136F2E04F16510419F442E3BF
:102D600050E002C048E250E08AE090E063E070E0AA
:102D700025E030E001E110E0EE24FF24B2E3CB2EA9
:102D8000D12CA4ECAA2EAFEFBA2E0E9441360894A3
:102D9000411C511C2CEF3FEF620E731E33E04316B3
:102DA000510409F0B2CF0E94D8014DB75EB7485028
:102DB00050400FB6F8945EBF0FBE4DBFEDB7FEB7E3
:102DC0003196ADB7BEB712969C928E92119723E2C0
:102DD00031E03383228380916C0490916D0495835C
:102DE000848380916E0490916F04978386830E9400
:102DF0009A4D4DB75EB7485F5F4F0FB6F8945EBF10
:102E00000FBE4DBF80E060E0A4010E9467018DB756
:102E10009EB708970FB6F8949EBF0FBE8DBFEDB753
:102E2000FEB73196ADB7BEB712969C928E921197AF
:102E300023E231E033832283809170049091710406
:102E40009583848380917204909173049783868321
:102E50000E949A4D4DB75EB7485F5F4F0FB6F8942A
:102E60005EBF0FBE4DBF81E060E0A4010E9467011C
:102E70008DB79EB708970FB6F8949EBF0FBE8DBF53
:102E8000EDB7FEB73196ADB7BEB712969C928E9253
:102E9000119723E231E0338322838091740490916F
:102EA0007504958384838091760490917704978349
:102EB00086830E949A4D4DB75EB7485F5F4F0FB64D
:102EC000F8945EBF0FBE4DBF82E060E0A4010E9497
:102ED00067018091560390915703009731F00E944B
:102EE0006D2AB59BFECFB599FECF60E070E080E221
:102EF00091E44FE050E00E94023F86E890E06DE2EE
:102F000070E00E947514909373038093720360E0E5
:102F100070E080EA91E44EE150E00E94023F88EACE
:102F200090E067E570E00E947514909371038093C0
:102F3000700360E070E08CE092E448E250E00E94B0
:102F4000023F1092E3031092E20387EB90E064E506
:102F500070E00E94751490936B0380936A038DE573
:102F600090E060EA70E00E94751490936F03809384
:102F70006E0360E070E080E791E444E150E00E947D
:102F8000023F1092E3031092E2030E946D2A8AE549
:102F900093E00E94B4138FEF9FEF9093EB03809325
:102FA000EA0380916E0390916F03009731F48AE0F9
:102FB00090E09093EB038093EA03809170039091EB
:102FC0007103009731F48BE090E09093EB038093D2
:102FD000EA0381E090E090939103809390038091C5
:102FE000EA039091EB030A978230910508F087C0BD
:102FF0008CE090E061E070E045E050E023E030E0FC
:1030000001E110E0EE24FF24F2E3CF2ED12CECE31B
:10301000AE2EB12C0E9441368AE090E061E070E073
:1030200041E150E025E030E0AA24BB240E94413673
:1030300080E090E06EE170E046EA5FEF28E230E089
:103040000EEC1FEFBCE3EB2EF12CA2E8CA2ED12C24
:103050000E94D73C86E090E090936B0480936A04D2
:103060000E942B028091EA039091EB038B30910533
:10307000F1F481E090E061E070E04AE050E02BE0A4
:1030800030E00E94BD1180916E0390916F03909388
:10309000E9038093E803209170033091710330932A
:1030A0006F0320936E03909371038093700380915C
:1030B0006A0390916B03009719F082E090E002C0E0
:1030C00080E090E061E070E04AE050E028E030E02D
:1030D0000E94BD1180916E0390916F039093E9035C
:1030E0008093E80320916A0330916B0330936F0360
:1030F00020936E0390936B0380936A03C8C08AE0A9
:1031000090E060E070E046EF5FEF22E330E00CE338
:1031100010E00E94373986EF9FEF9093E30380938E
:10312000E20388E790E060E070E040E050E02CE3EC
:1031300030E000E010E00E94C82F80E090E067E0FF
:1031400070E048EE53E020E030E0F4E1EF2EF12CA7
:10315000ECE3CE2ED12CAA24BB240E94C1318AE0FC
:1031600090E060E070E04AE050E022E330E004EC00
:103170001FEF0E9437391092E3031092E2038CE0B4
:1031800090E068E070E045E050E023E030E008E1E6
:1031900010E0EE24FF24B2E3CB2ED12CACE3AA2E18
:1031A000B12C0E9441368AE090E068E070E044E192
:1031B00050E025E030E0AA24BB240E94413680E0A4
:1031C00090E06EE170E04AE550E028E230E00EEC7D
:1031D0001FEFFCE3EF2EF12CE2E8CE2ED12C0E9463
:1031E000D73C82E090E090936B0480936A040E9445
:1031F0002B028091700390917103009719F082E087
:1032000090E002C080E090E061E070E04CE050E0CF
:103210002BE030E00E94BD11809172039091730306
:103220009093E9038093E803209170033091710338
:103230003093730320937203909371038093700310
:1032400080916A0390916B03009719F082E090E0FF
:1032500002C080E090E061E070E04BE050E028E0E8
:1032600030E00E94BD1180916A0390916B039093AE
:10327000E9038093E8032091700330917103309348
:103280006B0320936A03909371038093700388E02B
:1032900090E0909333058093320561E070E00E94E6
:1032A000E70CAC0180E090E060E070E02CE330E0FF
:1032B00002E810E00E94C82F0E942B0281E090E0FB
:1032C00090936B0480936A048DE890E06CE970E061
:1032D0000E94751490936503809364038AE593E0DC
:1032E0000E94B413809132059091330560E070E044
:1032F0000E94E70CAC0180E090E060E070E02CE31D
:1033000030E00E94C82F10926B0410926A0485E48A
:1033100090E067E470E00E94751490935B038093E3
:103320005A0389EE90E067E470E00E947514909370
:103330005D0380935C0388E990E060E770E00E94A1
:10334000751490936103809360038AE593E00E9473
:10335000B413809132059091330567E070E00E94CC
:10336000E70CAC0180E090E060E070E02CE330E03E
:103370000E94C82F0E942B0287E090E090936B047C
:1033800080936A048BE890E06EE270E00E9475140E
:1033900090935F0380935E038FE890E069E470E0B0
:1033A0000E94751490936303809362038EE890E00B
:1033B00063E970E00E94751490936703809366033D
:1033C0008AE593E00E94B413809132059091330511
:1033D00066E070E00E94E70CAC0180E090E060E005
:1033E00070E02CE330E00E94C82F86E090E09093DC
:1033F0006B0480936A0481E390E067E470E00E94CC
:103400007514909369038093680384E890E069E6FB
:1034100070E00E94751490936D0380936C038AE5AD
:1034200093E00E94B4138091560390915703009744
:1034300031F00E946D2AB59BFECFB599FECFEAE52B
:10344000F3E080E090E0208131812115310519F40D
:10345000918380830197329653E0E437F50799F71B
:10346000EE24FF24B4E14B2EB5E05B2EF0929303E3
:10347000E0929203A8E9B5E0F2011D923197E9F7D5
:1034800000E010E0109391030093900310927503F5
:103490001092740360913205709133058FEF9FEFA6
:1034A00040E050E02AE533E00E94AD0980917403CA
:1034B00090917503009729F40D5F1F4F0333110599
:1034C00009F78AE593E00E94B4130CEE13E066243A
:1034D00077248AC00E94D8010894611C711C2DB702
:1034E0003EB7285030400FB6F8943EBF0FBE2DBFF8
:1034F000EDB7FEB73196ADB7BEB712969C928E92DD
:10350000119723E231E033832283D8018D919C917E
:1035100011979583848312968D919C91139797832D
:1035200086830E949A4DEDB7FEB738960FB6F89491
:10353000FEBF0FBEEDBF81E061E0A4010E94670104
:103540008091560390915703009731F00E946D2AA5
:10355000B59BFECFB599FECF8AE593E00E94B413E8
:103560008091560390915703009731F00E946D2A85
:10357000B59BFECFB599FECFD80112962D913C9107
:103580001397F901EE0FFF1FE65AFC4F80819181DE
:10359000181619061CF482E090E002C080E090E06A
:1035A000F8014081518160E070E00E94BD11F80196
:1035B000A191B1918F01AA0FBB1FA65ABC4F8D914B
:1035C0009C9111979093E9038093E8034081518186
:1035D000440F551F465A5C4FFA01208131811196E4
:1035E0003C932E9391838083E0919003F09191031B
:1035F0006E167F060CF46ECFEE0FFF1FE451FC4FEA
:103600008081918190933305809332050E946D2AC9
:103610000894E11CF11CF2E0EF16F10409F026CF4A
:10362000C39A2FEF3FE744E0215030404040E1F79C
:1036300000C00000C39881E090E090938F038093D6
:103640008E0390938B0380938A0390937B038093E4
:103650007A03909377038093760300E010E0109351
:10366000AD0A0093AC0A1092750310927403609136
:103670003205709133058FEF9FEF40E050E02AE56F
:1036800033E00E94C20B8091740390917503009700
:1036900029F40F5F1F4F0A30110509F7C39A8FEF06
:1036A0009FE7A4E081509040A040E1F700C00000F7
:1036B000C3982FEF3FE744E0215030404040E1F70E
:1036C00000C00000C39A8FEF9FE7A4E081509040B4
:1036D000A040E1F700C00000C39802E914E0EE2426
:1036E000FF2477C00E94D801ADB7BEB71A970FB6B6
:1036F000F894BEBF0FBEADBFEDB7FEB731961296C0
:103700009C928E92119729E231E03383228380913B
:1037100032059091330595838483D8018D919C91D6
:1037200011979783868312968D919C911397918719
:1037300080870E949A4DEDB7FEB73A960FB6F8947F
:10374000FEBF0FBEEDBF81E061E0A4010E946701F2
:103750008091560390915703009731F00E946D2A93
:10376000B59BFECFB599FECF6091320570913305C0
:10377000D8014D915C9180E090E00E945F13F801C8
:10378000608171814281538181E090E00E945F13EA
:10379000F801A081B181AA0FBB1FA65ABC4F8D9121
:1037A0009C9111979093E9038093E80342815381A0
:1037B000440F551F465A5C4FFA0120813181119602
:1037C0003C932E93918380830894E11CF11C0C5F41
:1037D0001F4F8091AC0A9091AD0AE816F9060CF4DF
:1037E00081CF8AE593E00E94B4130E946D2ADE0126
:1037F0001996ECE8F2E088E101900D928150E1F732
:103800003E010894611C711CD30180E090E029C046
:10381000F901E40FF51FEE0FFF1F81E090E08C0F20
:103820009D1FE80FF91F00851185F801EE0FFF1F9E
:10383000E459FB4F808191818E159F0539F4CB01AE
:103840001182108211961C930E9306C04F5F5F4F3A
:1038500046305105E9F6CB01019612968430910568
:1038600009F19C0135952795F901EE0FFF1F03E043
:10387000220F331F0A95E1F7E20FF31FEE0FFF1F30
:10388000E65AFC4FE080F18040E050E0BC016170FE
:1038900070709B01220F331F260F371F220F331F1B
:1038A000BC01B6CF0E94D80109811A81ADB7BEB75D
:1038B0001C970FB6F894BEBF0FBEADBFEDB7FEB7F5
:1038C000319612969C928E92119729E331E03383C0
:1038D0002283158304838B819C81978386838D81CA
:1038E0009E81918780878F819885938782870E94A8
:1038F0009A4D4DB75EB7445F5F4F0FB6F8945EBF09
:103900000FBE4DBF81E061E0A4010E94670180917C
:10391000560390915703009731F00E946D2AB59B92
:10392000FECFB599FECFC80162E070E00E94465418
:10393000BC0180913205909133050E94A40D00E0F6
:1039400010E0D301ED90FD903D01C7010E941006EB
:103950000330110521F0F3014081518102C040E0A4
:1039600050E0C801B7010E94CF020F5F1F4F043023
:10397000110539F70E946D2AC39A2FEF3FEF4CE2F1
:10398000215030404040E1F700C00000C39883E080
:1039900090E060E070E00E94A40D80915603909149
:1039A0005703009731F00E946D2AB59BFECFB59961
:1039B000FECF83E090E061E070E00E94A40D809172
:1039C000560390915703009731F00E946D2AB59BE2
:1039D000FECFB599FECF84E090E060E070E00E94F9
:1039E000A40D8091560390915703009731F00E94E7
:1039F0006D2AB59BFECFB599FECF84E090E061E0E3
:103A000070E00E94A40D8091560390915703009797
:103A100031F00E946D2AB59BFECFB599FECFB599C6
:103A2000FECFB59BFECF209156033091570385E41E
:103A300091E00EE511E021153105E9F16091B20345
:103A40005091B1034091B0033091B8032091B70376
:103A5000ADB7BEB71E970FB6F894BEBF0FBEADBFD1
:103A6000EDB7FEB7319612969C928E921197938382
:103A7000828364831582568317824087118632873A
:103A80001386248715860E949A4DEDB7FEB73E96A1
:103A90000FB6F894FEBF0FBEEDBF80E060E0A4015A
:103AA0000E9467013091B3032091B4039091B50354
:103AB0008091B6033CC06091C6035091C50340910C
:103AC000C4033091CC032091CB03ADB7BEB71E9792
:103AD0000FB6F894BEBF0FBEADBFEDB7FEB73196BF
:103AE00012969C928E92119793838283648315829F
:103AF000568317824087118632871386248715865E
:103B00000E949A4DEDB7FEB73E960FB6F894FEBFF1
:103B10000FBEEDBF80E060E0A4010E94670130911C
:103B2000C7032091C8039091C9038091CA034DB780
:103B30005EB74C5050400FB6F8945EBF0FBE4DBFFD
:103B4000EDB7FEB73196ADB7BEB712969C928E9286
:103B500011971383028334831582268317829087FB
:103B60001186828713860E949A4DEDB7FEB73C9668
:103B70000FB6F894FEBF0FBEEDBF81E060E0A40178
:103B80000E946701809156039091570397FF03C0ED
:103B9000909581959F4F69E070E00E944654909304
:103BA0005903809358030E9421228091580366E6AE
:103BB0000E94A04C682E8091580367E60E94A04C9A
:103BC000E82E0091580340905903802F68E60E9428
:103BD000A04C2DB73EB72C5030400FB6F8943EBFE6
:103BE0000FBE2DBFEDB7FEB73196ADB7BEB712967B
:103BF0009C928E92119726E731E0338322830483CF
:103C0000458266821782E0861186828713860E942B
:103C10009A4DEDB7FEB73C960FB6F894FEBF0FBEB7
:103C2000EDBF82E060E0A4010E9467014091CF0AED
:103C30005091D00A2091D10A3091D20AC090CD0A79
:103C4000D090CE0AE090870BF090880B60905B0BD1
:103C500070905C0B4090D70A5090D80A2090CB0A05
:103C60003090CC0A6091BE0A7091BF0A8091C00A60
:103C70009091C10AADB7BEB754970FB6F894BEBFC6
:103C80000FBEADBF0DB71EB70F5F1F4F12969C92B0
:103C90008E921197E9E8F1E0D8011396FC93EE9328
:103CA000129715965C934E93149717963C932E9308
:103CB00016971996DC92CE9218971B96FC92EE926C
:103CC0001A971D967C926E921C971F965C924E924C
:103CD0001E9751963C922E9250970E94B14EF80139
:103CE000738B628B0E949A4D2DB73EB72C5E3F4F6F
:103CF0000FB6F8943EBF0FBE2DBF83E060E0A40175
:103D00000E94670100D000D000D0EDB7FEB7319619
:103D1000ADB7BEB712969C928E9211978FE991E043
:103D20009383828380915603909157039583848374
:103D30000E949A4DEDB7FEB736960FB6F894FEBFC7
:103D40000FBEEDBF83E060E1A4010E9467010C9407
:103D5000881590E0FC01B096FE2FEE27208120937D
:103D6000C60A20FDFBCF8896B82FAA278C91908198
:103D70009093C60A90FDFBCF089590E08096F82FAF
:103D8000EE2780818093C60A80FDFBCF608380810F
:103D90008093C60A80FDFBCF089580E061E00E9419
:103DA000BD1E82E061E00E94BD1E81E061E00E94D4
:103DB000BD1E0895A82FB0E0FD01B096FE2FEE279E
:103DC00080818093C60A80FDFBCF9896BA2FAA27E0
:103DD000872F992787FD9A958C9380818093C60AB7
:103DE00080FDFBCF6C9380818093C60A80FDFBCF62
:103DF00008951F93CF93DF93182F80E06FE10E9407
:103E0000BD1EC1E0D0E002C0CC0FDD1F1A95E2F765
:103E100080E0BE010E94DA1E81E06FE10E94BD1EBB
:103E200081E0BE010E94DA1E82E06FE10E94BD1EA9
:103E300082E0BE010E94DA1E80E061E00E94BD1EA9
:103E400082E061E00E94BD1E81E061E00E94BD1E33
:103E5000DF91CF911F910895DF92EF92FF920F9320
:103E60001F93D82E7A018B019B01552737FD509562
:103E7000452FB9010E94DA1E8D2DB7010E94DA1E6E
:103E80001F910F91FF90EF90DF9008951F93182FCF
:103E900060E00E94BD1E8CEC9CE10197F1F700C030
:103EA0000000812F6DE10E94BD1E812F60E070E057
:103EB0000E94DA1E1F910895AF92BF92CF92DF92B7
:103EC000EF92FF920F931F93CF93DF93F82E6B0126
:103ED000EA018901AA24A3946115710509F4AA24B1
:103EE000BB24B394209709F4BB24EE24E39401157A
:103EF000110509F4EE248F2D6EE10E94BD1E6B2D7D
:103F000070E0660F771F660F771F8A2D90E043E001
:103F1000880F991F4A95E1F7682B792B8E2D90E039
:103F2000880F991F682B792B8F2D0E94DA1EAA20EB
:103F300021F08F2DB6010E94DA1EBB2021F08F2DBB
:103F4000BE010E94DA1EEE2021F08F2DB8010E94E2
:103F5000DA1E8F2D64E00E94BD1EDF91CF911F916C
:103F60000F91FF90EF90DF90CF90BF90AF900895AA
:103F70008F929F92AF92BF92CF92DF92EF92FF9279
:103F80000F931F93CF93DF93F82E4B016A01E90142
:103F9000AA24A3946115710509F4AA24BB24B3943F
:103FA000C114D10409F4BB24EE24E394209709F44E
:103FB000EE248F2D6EE10E94BD1E6A2D70E0A3E0FD
:103FC000660F771FAA95E1F761608B2D90E0880F4F
:103FD000991F880F991F682B792B8E2D90E0880FE1
:103FE000991F682B792B8F2D0E94DA1EAA2021F0B1
:103FF0008F2DB4010E94DA1EBB2021F08F2DB60157
:104000000E94DA1EEE2021F08F2DBE010E94DA1EE2
:104010008F2DB8010E94DA1E8F2D64E00E94BD1E14
:10402000DF91CF911F910F91FF90EF90DF90CF9094
:10403000BF90AF909F908F900895DF92EF92FF9284
:104040000F931F93D82E7A018B016FE10E94BD1E42
:104050008D2D60E270E00E94DA1E8D2DB801A7015F
:104060000E942C1F1F910F91FF90EF90DF900895F9
:1040700080E060E170E040E050E020E430E00E9449
:104080005C1F81E060E170E040E050E020E430E05F
:104090000E945C1F82E060E170E040E050E020E4BC
:1040A00030E00E945C1F80E04FEF5FEF6FEF7FE337
:1040B0000E941D2081E04FEF5FEF6FEF7FE30E94D2
:1040C0001D2082E04FEF5FEF6FEF7FE30E941D2026
:1040D0000895DF92EF92FF920F931F93DF93CF9398
:1040E0000F92CDB7DEB7D82E7A018B0177FF0AC0C9
:1040F00010950095F094E094E11CF11C011D111D38
:1041000090E001C091E08D2D6FE199830E94BD1E6A
:104110009981792F7295707F60E0686078608D2D4D
:104120000E94DA1E8D2DB801A7010E942C1F0F904E
:10413000CF91DF911F910F91FF90EF90DF90089545
:10414000AF92BF92CF92DF92EF92FF920F931F93A5
:10415000DF93CF93CDB7DEB72C970FB6F894DEBFC1
:104160000FBECDBF59016A010E94E44E69837A8374
:104170008B839C83C601B5010E94E44E6D837E83D0
:104180008F839887C801B7010E94E44E69877A87B8
:104190008B879C878E010F5F1F4FEE24F801608193
:1041A00071818281938121E73CEA4BE85EE30E94C2
:1041B000A8509B01AC01F801219331934193519395
:1041C0008F0120E030E040E857E40E94A8500E94B0
:1041D000B14EAB01BC018E2D0E946920E394FE2DEF
:1041E000F330E1F60E94CD1E2C960FB6F894DEBF98
:1041F0000FBECDBFCF91DF911F910F91FF90EF9038
:10420000DF90CF90BF90AF9008954F925F926F92E2
:104210007F928F929F92AF92BF92CF92DF92EF9256
:10422000FF920F931F93982E862E29013A016FE17A
:104230000E94BD1E682D70E06A62892D0E94DA1E00
:10424000892DB301A2010E942C1F892DB801A7015D
:104250000E942C1F892DB601A5010E942C1F1F91C1
:104260000F91FF90EF90DF90CF90BF90AF909F9015
:104270008F907F906F905F904F9008959F92AF9234
:10428000BF92CF92DF92EF92FF920F931F93DF9333
:10429000CF9300D00F92CDB7DEB71ABA15BA8FEF11
:1042A00084BB1092650083E08093640010E8A12E27
:1042B000B4E8BB2E6E010894C11CD11C85B3856087
:1042C00085BB83E39BE20197F1F785B38A7F85BBCA
:1042D000ECECFCE13197F1F700C000008091650043
:1042E0008D7F80936500AB9885B3887F85BB99B33C
:1042F0009983A89A19B385B3887F826085BB09B377
:10430000943C09F494C0943809F491C015BA80E043
:1043100060E044EB52E00E94670181E060E04AEB1C
:1043200052E00E946701143C09F481C0143809F47A
:104330007EC015BA80E060E044EB52E00E94670165
:1043400082E060E04AEC52E00E946701043C09F41C
:104350006EC0043809F46BC015BA80E060E044EB2D
:1043600052E00E94670183E060E04AED52E029C01C
:104370009E2C9C18892D6DE10E94BD1E892D60E048
:1043800070E00E94DA1EF8018081F70181937F01BD
:1043900000501F4FF3E200301F0751F78981803C26
:1043A00099F0803889F085B78F7385BF15BA80E0A2
:1043B00060E04AEE52E00E94670181E060E04AEB73
:1043C00052E00E9467017ACF80E060E040EF52E067
:1043D0000E94670180E098B3976098BB2FEF3FEB96
:1043E00046E0215030404040E1F700C0000098B363
:1043F000987F98BB2FEF3FEB46E021503040404084
:10440000E1F700C000008F5F833029F70E94D801D8
:104410000F900F900F90CF91DF911F910F91FF9010
:10442000EF90DF90CF90BF90AF909F900895A5BE82
:1044300082E080936D00B0926C00760100E010E2A3
:1044400097CFEF92FF920F931F93DF93CF9300D0FC
:1044500000D000D0CDB7DEB784E00E94760090E0B7
:104460009A83898389819A81982F88279A8389835F
:10447000E980FA8085E00E94760090E08E299F29ED
:104480009A83898369817A81882777FD8095982F1F
:104490000E94E44E20E030E048EC52E40E94494E95
:1044A0009B01AC012B833C834D835E836B817C81BC
:1044B0008D819E819F7720E030E044E353E40E94A9
:1044C0000D5018164CF26091BA0A7091BB0A809197
:1044D000BC0A9091BD0A2B813C814D815E810E9476
:1044E000424E882309F4D9C06B817C818D819E81E5
:1044F00020E030E0A9010E94424E87FF44C0609155
:10450000BA0A7091BB0A8091BC0A9091BD0A20E062
:1045100030E0A9010E940D501816ACF56B817C812A
:104520008D819E812091BA0A3091BB0A4091BC0ACC
:104530005091BD0A9F775F770E94CB4D20E030E01D
:1045400044E353E40E94424E87FD75C0E090BE0AEA
:10455000F090BF0A0091C00A1091C10A6091BA0A96
:104560007091BB0A8091BC0A9091BD0A2B813C815D
:104570004D815E810E94CA4D9B01AC0160E070E0FC
:1045800084EB93E46CC06B817C818D819E8120E003
:1045900030E0A9010E940D5018160CF04CC060913B
:1045A000BA0A7091BB0A8091BC0A9091BD0A20E0C2
:1045B00030E0A9010E94424E87FF3DC06B817C81A3
:1045C0008D819E812091BA0A3091BB0A4091BC0A2C
:1045D0005091BD0A9F775F770E94CB4D20E030E07D
:1045E00044E353E40E94424E87FD25C0E090BE0A9A
:1045F000F090BF0A0091C00A1091C10A6B817C81C2
:104600008D819E812091BA0A3091BB0A4091BC0AEB
:104610005091BD0A0E94CA4D9B01AC0160E070E060
:1046200084EB93E40E94CA4D9B01AC01C801B70121
:104630000E94CA4D1CC0E090BE0AF090BF0A0091D3
:10464000C00A1091C10A6B817C818D819E8120916D
:10465000BA0A3091BB0A4091BC0A5091BD0A0E942F
:10466000CA4D9B01AC01C801B7010E94CB4D9B0113
:10467000AC012093BE0A3093BF0A4093C00A509306
:10468000C10A8B819C81AD81BE818093BA0A9093CF
:10469000BB0AA093BC0AB093BD0A26960FB6F89445
:1046A000DEBF0FBECDBFCF91DF911F910F91FF9065
:1046B000EF9008952F923F924F925F926F927F9268
:1046C0008F929F92AF92BF92CF92DF92EF92FF9222
:1046D0000F931F93DF93CF93CDB7DEB762970FB6DB
:1046E000F894DEBF0FBECDBF69837A838B839C8332
:1046F0002D833E834F8358873701480160E070E087
:1047000084E394E4A60195010E94CA4D162F072F59
:10471000F82EE92E8D819E81AF81B8858093C70ADE
:104720009093C80AA093C90AB093CA0A89819A8152
:10473000AB81BC8180935D0B90935E0BA0935F0B6C
:10474000B093600BA092D30AB092D40AC092D50A5B
:10475000D092D60AC601B50120E030E044E353E42C
:104760000E94424E181684F0A8019701652F742FFD
:10477000832F922F20E030E044EB53E40E94CA4D97
:10478000162F072FF82EE92EA8019701652F702FFD
:10479000832F9E2D20E030E044EB52E40E94CA4D6E
:1047A00069877A878B879C87C401B30123EF36E63C
:1047B0004FE55EE30E94A8506D877E878F87988BB8
:1047C00080E090E036E9432E512C28E6222E21E0AD
:1047D000322E9A8B898BB201882777FD8095982F8E
:1047E0000E94E44E5B016C01C20188589F4FB101E9
:1047F0000E9446542C01C601B501D801F7012B2FA8
:10480000302F4F2F5E2D0E94CA4D25E33AEF4EE820
:104810005CE30E94A8500E94464E3B014C01C60139
:10482000B501B985AA85AB84DC842B2F3A2F4A2D9C
:104830005D2D0E94CA4D25E33AEF4EE85CE30E94ED
:10484000A8500E94464E5B016C016D817E818F8174
:104850009885A40193010E94A8503B014C016981F5
:104860007A818B819C81A60195010E94A8509B01B1
:10487000AC01C401B3010E94CB4DBD85AE85DF8480
:10488000A8882B2F3A2F4D2D5A2D0E94CA4D2FE666
:1048900032E143E856E40E94A85023E333E343E2C5
:1048A00050EC0E94A8500E94B14EAB01BC01898916
:1048B0000E946920A989BA891196BA8BA98BA33065
:1048C000B10509F088CF0E94CD1E0E942122629678
:1048D0000FB6F894DEBF0FBECDBFCF91DF911F9111
:1048E0000F91FF90EF90DF90CF90BF90AF909F908F
:1048F0008F907F906F905F904F903F902F90089592
:104900002F923F924F925F926F927F928F929F92DF
:10491000AF92BF92CF92DF92EF92FF920F931F93CD
:10492000DF93CF93CDB7DEB72C970FB6F894DEBFE9
:104930000FBECDBF5B016C0139014A01170128018F
:104940006091BE0A7091BF0A8091C00A9091C10A1D
:104950002091C20A3091C30A4091C40A5091C50AFD
:10496000E090BE0AF090BF0A0091C00A1091C10AFF
:10497000E092C20AF092C30A0093C40A1093C50AD7
:10498000E090B60AF090B70A0091B80A1091B90AFF
:104990000E94CA4D9B01AC01C801B7010E94CA4DDB
:1049A0009B01AC012093B60A3093B70A4093B80A32
:1049B0005093B90AC601B50120E030E0A9010E9478
:1049C000424E882351F4C401B30120E030E0A90134
:1049D0000E94424E882309F4D2C0C601B50120E0EE
:1049E00030E048EC52E40E94494E69837A838B831D
:1049F0009C83C401B30120E030E048EC52E40E9403
:104A0000494E6D837E838F8398876091B60A70913B
:104A1000B70A8091B80A9091B90AA20191010E9447
:104A2000CA4DF62E072F182FE92E8091AE0A9091CD
:104A3000AF0AA091B00AB091B10A89879A87AB8773
:104A4000BC876F2D702F812F9E2D25E33AEF4EE806
:104A50005CE30E94A8500E94464E3B014C016F2D22
:104A6000702F812F9E2D20E030E044EB52E40E9415
:104A7000CB4D25E33AEF4EE85CE30E94A8500E943C
:104A8000464E5B016C0159814A813B812C81652F27
:104A9000742F832F922FA40193010E94A8501B0111
:104AA0002C015D814E813F812885652F742F832FD6
:104AB000922FA60195010E94A8509B01AC01C20152
:104AC000B1010E94CB4D9B01AC0169857A858B8534
:104AD0009C850E94CB4D9B01AC012093AE0A309384
:104AE000AF0A4093B00A5093B10A2090B20A3090B6
:104AF000B30A4090B40A5090B50A6F2D702F812FE1
:104B00009E2D20E030E044EB52E40E94CA4D25E3A4
:104B10003AEF4EE85CE30E94A8500E94464E7B01AB
:104B20008C015D814E813F812885652F742F832FF5
:104B3000922FA40193010E94A8505B016C0159813E
:104B40004A813B812C81652F742F832F922FA801DE
:104B500097010E94A8509B01AC01C601B5010E94BB
:104B6000CB4D9B01AC01C201B1010E94CB4D9B0119
:104B7000AC01EEEAFAE024833583468357832C9612
:104B80000FB6F894DEBF0FBECDBFCF91DF911F915E
:104B90000F91FF90EF90DF90CF90BF90AF909F90DC
:104BA0008F907F906F905F904F903F902F900895DF
:104BB0002F923F924F925F926F927F928F929F922D
:104BC000AF92BF92CF92DF92EF92FF920F931F931B
:104BD000DF93CF93CDB7DEB72E970FB6F894DEBF35
:104BE0000FBECDBF180187019A8389837C836B83B5
:104BF000509541955F4F5E834D83309521953F4F92
:104C000038872F83CE0101969A87898779E0472ECE
:104C1000512C4C0E5D1E7C0166247724CC24DD24AF
:104C2000D7016D917D917D01882777FD8095982F23
:104C30000E94E44E4B015C01E894B7F8662D772D95
:104C40008C2D9D2DA50194010E94424E87FF02C02C
:104C500034016501E414F50419F7EE24FF24C101C1
:104C6000AA2797FDA095BA2F8B879C87AD87BE8713
:104C7000A985BA85AD90BD90BA87A9876B857C85DB
:104C80008D859E850E94E44E1B012C01B50188276D
:104C900077FD8095982F0E94E44E262D372D4C2DC0
:104CA0005D2D0E94494EA20191010E94A8509B01D6
:104CB000AC01F701EE0FFF1FEE0FFF1FE958F44F95
:104CC00020833183428353830894E11CF11CB4E0B8
:104CD000EB16F10469F6043611052CF401151105E3
:104CE00009F051C005C00436110511F004561040FA
:104CF00091E0E92EF12C662D772D8C2D9D2D20E055
:104D000030E048EC52E40E94A850A20191010E94B8
:104D1000494E0E942F4E5B016C019701225030409A
:104D2000C80117FF03C0909581959F4FB7010E945E
:104D30004654620F731F882777FD8095982F0E9435
:104D4000E44E9B01AC01C601B5010E94CB4D0E940F
:104D5000B14ECB012E960FB6F894DEBF0FBECDBF7D
:104D6000CF91DF911F910F91FF90EF90DF90CF9047
:104D7000BF90AF909F908F907F906F905F904F907B
:104D80003F902F90089582E0E82EF12CB4CF2F921F
:104D90003F924F925F926F927F928F929F92AF92CB
:104DA000BF92CF92DF92EF92FF920F931F93DF9308
:104DB000CF93CDB7DEB72E970FB6F894DEBF0FBEF8
:104DC000CDBF7A8369836536710514F064567040EF
:104DD0004B0177FF04C088249924861A970AE09033
:104DE000BC03F090BD03A7014F5F5F4F9C012E19DC
:104DF0003F0900E010E05A01CC24B7FCC094DC2C41
:104E0000AB82BC82CD82DE821401442437FC409404
:104E1000542C6C01C818D908D886CF82C901AA279A
:104E200097FDA095BA2F89879A87AB87BC877E8725
:104E30006D873401F7FC34C0AD85BE85B7FD2DC04C
:104E40004801880C991C880C991CF401E958F44F0E
:104E5000A080B180C280D3806B817C818D819E8156
:104E60000E94E44E9B01AC01C601B5010E94A8500E
:104E70005B016C01C201B1010E94E44E9B01AC01D7
:104E8000C601B5010E94494E9B01AC01F401E757F0
:104E9000F44F2083318342835383E614F70424F4D0
:104EA000ED85FE85F7FF13C09801220F331F220FF7
:104EB000331FF901E958F44F80819181A281B381B8
:104EC0002757344FF90180839183A283B383AF8046
:104ED000B884AE14BF0494F549815A814536510512
:104EE00068F14801880C991C880C991CF401E95858
:104EF000F44FA080B180C280D38069857A858B858C
:104F00009C850E94E44E9B01AC01C601B5010E9444
:104F1000A8505B016C01C201B1010E94E44E9B01EB
:104F2000AC01C601B5010E94494E9B01AC01F401E0
:104F3000E757F44F20833183428353830F5F1F4F22
:104F40000430110509F076CF2E960FB6F894DEBF27
:104F50000FBECDBFCF91DF911F910F91FF90EF90CA
:104F6000DF90CF90BF90AF909F908F907F906F9089
:104F70005F904F903F902F90089581E090E00A9BC2
:104F800002C080E090E09093D20A8093D10A81E041
:104F900090E00B9B02C080E090E09093CE0A80935B
:104FA000CD0A81E090E00C9B02C080E090E09093FD
:104FB000880B8093870B81E090E0849B02C080E0A7
:104FC00090E09093D00A8093CF0A81E090E0869B96
:104FD00002C080E090E090935C0B80935B0B20918B
:104FE000630081E090E023FD02C080E090E09093B8
:104FF000D80A8093D70A2091630081E090E024FDD5
:1050000002C080E090E09093CC0A8093CB0A089590
:105010001F920F920FB60F920BB60F921124EF92C0
:10502000FF920F931F932F933F934F935F936F9331
:105030007F938F939F93AF93BF93EF93FF938FEFE4
:105040008DBD80E78CBD6091A6037091A703809110
:10505000A8039091A9032AE037ED43EA5CE30E949C
:10506000CB4D7B018C017F2D912F20E030E040E87B
:105070005FE30E940D50181624F4EE24FF2400E88C
:105080001FE38E2D9F2DA02FB12F8093A603909309
:10509000A703A093A803B093A9036091C0037091E4
:1050A000C1038091C2039091C3032AE037ED43EA24
:1050B0005CE30E94CB4D7B018C017F2D912F20E082
:1050C00030E040E85FE30E940D50181624F4EE240F
:1050D000FF2400E81FE38E2D9F2DA02FB12F80937A
:1050E000C0039093C103A093C203B093C303609124
:1050F000AA037091AB038091AC039091AD032DECAA
:105100003CEC4CE45DE30E94CB4DF62EE72E8C0187
:10511000A701652F742F912F20E030E040E85FE376
:105120000E940D50181624F4FF24EE2400E81FE31B
:10513000A701852F9E2DA02FB12F8093AA039093B6
:10514000AB03A093AC03B093AD030E94BD27809145
:10515000D10A9091D20A0097B1F08091A403909166
:10516000A503009781F48091AE039091AF0301965F
:105170009093AF038093AE0381E090E09093A503FA
:105180008093A40310C08091D10A9091D20A009715
:1051900051F48091A4039091A503009721F01092FF
:1051A000A5031092A4038091CD0A9091CE0A009796
:1051B00031F18091DA039091DB03009701F5809142
:1051C000E4039091E50301969093E5038093E40353
:1051D00021E030E03093DB032093DA038091750BFC
:1051E0009091760BFC01EE0FFF1FED5CF44F3183C5
:1051F000208301969093760B8093750B10C080915D
:10520000CD0A9091CE0A009751F48091DA039091E3
:10521000DB03009721F01092DB031092DA038091F8
:10522000870B9091880B0097B1F08091D6039091F5
:10523000D703009781F48091D4039091D503019610
:105240009093D5038093D40381E090E09093D703AB
:105250008093D60310C08091870B9091880B0097A4
:1052600051F48091D6039091D703009721F01092CA
:10527000D7031092D6038091CF0A9091D00A00975D
:10528000B1F08091D2039091D303009781F4809183
:10529000DC039091DD0301969093DD038093DC03A2
:1052A00081E090E09093D3038093D20310C080916B
:1052B000CF0A9091D00A009751F48091D203909137
:1052C000D303009721F01092D3031092D203809160
:1052D0005B0B90915C0B0097B1F08091BE039091B5
:1052E000BF03009781F48091DE039091DF03019664
:1052F0009093DF038093DE0381E090E09093BF03FF
:105300008093BE0310C080915B0B90915C0B009763
:1053100051F48091BE039091BF03009721F0109249
:10532000BF031092BE038091D70A9091D80A0097CC
:1053300041F18091D8039091D903009711F58091A4
:10534000D0039091D10301969093D1038093D00321
:1053500081E090E09093D9038093D8038091750BFE
:105360009091760BFC01EE0FFF1FED5CF44F22E0F5
:1053700030E03183208301969093760B8093750BF8
:1053800010C08091D70A9091D80A009751F480916B
:10539000D8039091D903009721F01092D90310926D
:1053A000D8038091CB0A9091CC0A0097B1F08091FC
:1053B000BA039091BB03009781F48091E60390912A
:1053C000E70301969093E7038093E60381E090E082
:1053D0009093BB038093BA0310C08091CB0A909145
:1053E000CC0A009751F48091BA039091BB030097C7
:1053F00021F01092BB031092BA038091BC039091EC
:10540000BD03009729F001969093BD038093BC03E0
:105410008091940390919503009749F080919403B3
:1054200090919503019790939503809394038091B5
:10543000E0039091E103009749F08091E00390919F
:10544000E10301969093E1038093E0038091CE0302
:105450009091CF03009729F001969093CF0380930A
:10546000CE038091750B9091760B8431910524F0D9
:105470001092760B1092750B60915D0B70915E0B24
:1054800080915F0B9091600B2091C70A3091C80A00
:105490004091C90A5091CA0AE090D30AF090D40A08
:1054A0000091D50A1091D60A0E948024FF91EF91B5
:1054B000BF91AF919F918F917F916F915F914F912C
:1054C0003F912F911F910F91FF90EF900F900BBE86
:1054D0000F900FBE0F901F901895AF92BF92CF9272
:1054E000DF92EF92FF920F931F9360E070E0CB0189
:1054F0009B01AC017B018C015B016C010E945A2372
:105500001F910F91FF90EF90DF90CF90BF90AF90E1
:105510000895FC01E055FC4F808190E06817790701
:105520006CF08091CE039091CF03009759F481E005
:1055300090E09093CF038093CE0304C01092CF03EA
:105540001092CE0321E030E08091CE039091CF0302
:105550008A30910514F420E030E0C90108951F93CA
:10556000182F81E10E943E01812F0E943E0180910F
:1055700054038823E1F30E942B01882391F31F91A8
:1055800008954F925F926F927F928F929F92AF9207
:10559000BF92CF92DF92EF92FF920F931F93CF9320
:1055A000DF938C013B01C1E0D0E0CC24DD248FEF00
:1055B000A82EB12C88249924EE24FF2444245524B9
:1055C000401A510A14C0602F17FD642D8C2F0E94C1
:1055D000A04C90E0C816D90614F46C017E018A151F
:1055E0009B0524F4009711F05C014E0121966C1686
:1055F0007D064CF7101611060CF07401C701DF91FF
:10560000CF911F910F91FF90EF90DF90CF90BF90BF
:10561000AF909F908F907F906F905F904F90089584
:105620006F927F928F929F92AF92BF92CF92DF92B2
:10563000EF92FF920F931F93D62EC72EB82EA92E4E
:10564000922E832E742E652E6E2D7F2D802F912FFE
:10565000D601F5012B2F3A2F4F2F5E2F0E940D50B0
:105660001816ACF06E2D7F2D802F912FD401F301F1
:105670002B2F3A2F4F2F5E2F0E94424E87FF03C0E1
:105680006401530104C0DE2CCF2CB02EA12EA60144
:105690009501652F7C2D832F9A2D1F910F91FF90DF
:1056A000EF90DF90CF90BF90AF909F908F907F90C2
:1056B0006F9008952F923F925F926F927F928F9298
:1056C0009F92AF92BF92CF92DF92EF92FF920F9391
:1056D0001F93DF93CF93CDB7DEB728970FB6F8941B
:1056E000DEBF0FBECDBF582E4B015A8349831092A7
:1056F000CF031092CE0310929503109294038091E1
:1057000094039091950390939A0B8093990B8091B9
:10571000990B90919A0B9093BD038093BC0360E02A
:1057200070E080E090E0DC018B01000F111F000FA2
:10573000111F98012757344FF90180839183A28369
:10574000B3832081318142815381F801E958F44FBC
:1057500020833183428353836F5F7F4F64307105B1
:1057600019F700D000D000D0EDB7FEB7319601E6B2
:105770001BE0ADB7BEB712961C930E93119784E051
:1057800093E09383828389E093E0958384830E94EE
:105790009A4DEDB7FEB736960FB6F894FEBF0FBE22
:1057A000EDBF80E067E0A8010E9467011092E1036D
:1057B0001092E003852D66E60E94A04CA82EE09092
:1057C000B60AF090B70A0091B80A1091B90AB4016C
:1057D000882777FD8095982F0E94E44EA8019701B5
:1057E0000E94CB4D0E94B14E4B018A189108882728
:1057F00077FD8095982F0E94E44E5B016C01B40107
:10580000882777FD8095982F0E94E44E7B018C01BC
:10581000C40168E572E00E944654882777FD8095B0
:10582000982F0E94E44E2FE832EC45E75EE30E9499
:10583000CB4D9B01AC01C801B7010E94A8509B0150
:10584000AC01C601B5010E94CB4D0E94B14E1B01B7
:105850008824992491E0692E712C3C822B821401BA
:1058600080919403909195030097D1F770929503DE
:1058700060929403852D66E60E94A04CE82EFF24DA
:10588000852D67E60E94A04C38C00E946D2A852DA8
:1058900066E60E94A04CE82E852D67E60E94A04C8B
:1058A0002091E0033091E1032115310521F470923C
:1058B000E1036092E0032091E0033091E103F1E025
:1058C0002F353F071CF00E946D2A12C1FF24E114FE
:1058D000F10499F020E030E0A9012093C003309357
:1058E000C1034093C2035093C3032093A603309394
:1058F000A7034093A8035093A903082F10E0E114D5
:10590000F10421F40115110509F4BFCF4B815C812D
:105910004115510591F0E41AF50AB701882777FD82
:105920008095982F0E94E44E2DEC3CEC4CE45FE314
:105930000E94A8500E94B14E1B0189819A81009754
:1059400019F04C01801A910AB101882777FD8095E2
:10595000982F0E94E44E7B018C0160E070E088E4A7
:1059600092E420E030E048E452EC0E94102B0E94C8
:10597000B14E1B01B401882777FD8095982F0E94B6
:10598000E44E7B018C0160E070E080E792E420E06F
:1059900030E040E752EC0E94102B0E94B14E4B01C8
:1059A000A090B60AB090B70AC090B80AD090B90AD1
:1059B000B401882777FD8095982F0E94E44E2091AE
:1059C000C0033091C1034091C2035091C3030E94B0
:1059D000A8502DEC3CEC4CE45FE30E94A8506D8392
:1059E0007E838F839887B101882777FD8095982FD4
:1059F0000E94E44E2091A6033091A7034091A80392
:105A00005091A9030E94A8507B018C016091E20390
:105A10007091E303882777FD8095982F0E94E44ECC
:105A2000A60195010E94CB4D5B016C0160E070E026
:105A3000CB012D813E814F8158850E945A23809150
:105A4000BC039091BD03009721F47092BD03609256
:105A5000BC038091BC039091BD03A1E08F359A07F0
:105A600054F42114310409F0FBCEC40101968330B3
:105A7000910508F0F5CE1092CF031092CE0380E08E
:105A800090E0DC018093D30A9093D40AA093D50AC6
:105A9000B093D60A8091D30A9091D40AA091D50AE6
:105AA000B091D60A80935D0B90935E0BA0935F0B31
:105AB000B093600B80915D0B90915E0BA0915F0B9A
:105AC000B091600B8093C70A9093C80AA093C90A4B
:105AD000B093CA0A6091C70A7091C80A8091C90A36
