:100000000C9455000C9474000C9474000C947400BF
:100010000C9474000C9474000C9474000C94740090
:100020000C9474000C9474000C9474000C94740080
:100030000C9474000C9474000C94262C0C94740092
:100040000C9474000C9474000C94634E0C94740023
:100050000C9474000C9474000C9474000C94740050
:100060000C9474000C9474000C9474000C94740040
:100070000C9474000C9474000C940A010C94740099
:100080000C9474000C9474000C94740005A84CCD6E
:10009000B2D44EB93836A9020C50B9918688083CC2
:1000A000A6AAAA2ABE000000803F11241FBECFEFDF
:1000B000D0E1DEBFCDBF12E0A0E0B1E0E6ECFBEAAC
:1000C00000E00BBF02C007900D92A034B107D9F732
:1000D00013E0A0E4B2E001C01D92A939B107E1F735
:1000E0000E9414080C940B4F0C94000094EA909317
:1000F00074009091740097FFFCCF9AE09093730086
:1001000094E8909374009091740097FFFCCF8093D3
:10011000730084E8809374008091740087FFFCCFA3
:1001200084E98093740084EA809374008091740061
:1001300087FFFCCF8BE08093730084E8809374008A
:100140008091740087FFFCCF84E8809374008091D5
:10015000740087FFFCCF8091730094E99093740042
:10016000089594EA909374009091740097FFFCCFE7
:100170009AE09093730094E89093740090917400C7
:1001800097FFFCCF8093730084E880937400809184
:10019000740087FFFCCF6093730084E88093740041
:1001A0008091740087FFFCCF84E9809374000895E8
:1001B00010929B0088E980939A0086E080939D00CE
:1001C000109298008FE580939900789408951F937A
:1001D0001FEF1093730081E4809370000E945025FC
:1001E0000E944F4E0E94D8000E944A241FBC85E006
:1001F0008EBD1DBD80E78CBD84E087BF78948FE005
:1002000087BB81B3807F81BB84B3806F84BB18BA06
:100210001F9108951F920F920FB60F9211248F9382
:10022000DF93CF930F92CDB7DEB780919C00898387
:1002300080919B00887BE1F381E08093400289817B
:10024000809341020F90CF91DF918F910F900FBE5D
:100250000F901F901895DF93CF930F92CDB7DEB715
:1002600080914102898310924102F89410924002D9
:10027000789489810F90CF91DF91089590919B00A0
:1002800095FFFCCF80939C000895CF93DF93E4E724
:10029000F0E094EA9083A1EEB2E01197F1F700004C
:1002A000A3E7B0E09EE09C9394E89083C1EED2E097
:1002B0002197F1F700008C93908381EE92E00197F3
:1002C000F1F7000084E98083DF91CF910895EF92E8
:1002D000FF920F931F93DF93CF9300D0CDB7DEB77C
:1002E000082F162F843070F5643160F58BE1498357
:1002F0005A830E9445018CE40E944501812F0E948F
:100300004501802F0E94450180E791E00197F1F7B8
:1003100000C0E12EFF2449815A81042F152F06C009
:100320000E94450194EC9A95F1F700C0E4E1EE16C5
:10033000F10444F4F80181918F010894E11CF11C4F
:10034000882371F70F900F90CF91DF911F910F913C
:10035000FF90EF9008951F93DF93CF9300D0CDB718
:10036000DEB7182F8430F0F46431E0F48BE12A8397
:1003700069830E9445018CE40E9445016981862FB2
:100380000E944501812F0E94450180E791E001977D
:10039000F1F700C02A81822F0E94450194EC9A95C2
:1003A000F1F700C00F900F90CF91DF911F9108954A
:1003B0008BE10E94450183E40E94450186E696EEAA
:1003C000A0E081509040A040E1F70895EF92FF92A5
:1003D0000F931F93182FF62EE42E842F64E60E94AD
:1003E000AE55082F282F30E0205D3F4F442737FDC2
:1003F0004095542F812F6F2D0E94AB018CE9089FEF
:10040000002D11240E0D802F6AE00E94AE55E82EBB
:100410006F2D6F5F282F30E0205D3F4F442737FD61
:100420004095542F812F0E94AB016F2D6E5F26EFF8
:10043000E29E202D1124200F30E0205D3F4F442705
:1004400037FD4095542F812F0E94AB011F910F91D2
:10045000FF90EF900895AF92BF92CF92DF92EF920C
:10046000FF920F931F9380E090E06AE070E04CEE03
:100470005FEF2EE130E008E210E00E94603D8CEE7C
:100480009FEF9093A5028093A40284E190E066EA36
:100490007FEF4AEB5FEF2EE130E000E010E00E94DA
:1004A000FC3E1092A5021092A40284E190E06AE55D
:1004B00070E04AEB5FEF2EE130E00E94FC3E84E109
:1004C00090E09093A5028093A40280E090E066EF14
:1004D0007FEF4CEE5FEF2EE130E008ED1FEFBEE165
:1004E000EB2EF12C0E94384280E090E0DC018093FA
:1004F000820290938302A0938402B093850280933A
:10050000680290936902A0936A02B0936B028AE535
:1005100090E09093A5028093A40286E090E066E9C3
:1005200070E044E050E024EC30E005E010E0AAEA9E
:10053000EA2EF12CFEE1CF2ED12CEEE1AE2EB12C25
:100540000E9443471092A5021092A4021F910F919E
:10055000FF90EF90DF90CF90BF90AF900895AF9253
:10056000BF92CF92DF92EF92FF920F931F93CF93A0
:10057000DF9380E062E10E94144E8823D1F30E9451
:100580008E4C80E063E10E94144E8823D1F3809169
:10059000420290914302009779F4E0915002F09169
:1005A0005102609152027091530240915402509155
:1005B000550280E090E007C00E948B2EB59BFECFD5
:1005C000B599FECFEACFDC01AA0FBB1F9C0113E057
:1005D000220F331F1A95E1F7A20FB31FA952BD4F87
:1005E0002D913C9111972115310509F473C0129694
:1005F0002D913C9113972C53304037FF03C0309519
:1006000021953F4F2431310584F4FC01EE0FFF1F8B
:100610009C01A3E0220F331FAA95E1F7E20FF31F1D
:10062000E952FD4F0190F081E02DDC01AA0FBB1FC4
:100630009C0113E0220F331F1A95E1F7A20FB31F9D
:10064000A952BD4F12962D913C9113972A573040D5
:1006500037FF03C0309521953F4F243131057CF49D
:10066000DC01AA0FBB1F9C0163E0220F331F6A95B8
:10067000E1F7A20FB31FA952BD4F6D917C91DC0130
:10068000AA0FBB1F9C0113E0220F331F1A95E1F73D
:10069000A20FB31FA952BD4F12962D913C911397F3
:1006A0002A5B304037FF03C0309521953F4F2431FE
:1006B000310584F4DC01AA0FBB1F9C0113E0220F5B
:1006C000331F1A95E1F7A20FB31FA952BD4F4D91E9
:1006D0005C91119701968930910509F074CFF093E0
:1006E0005102E09350027093530260935202509370
:1006F0005502409354020E94D8018DB79EB70A97C5
:100700000FB6F8949EBF0FBE8DBFEDB7FEB7319602
:10071000CFE5D3E0ADB7BEB71296DC93CE93119779
:1007200080E091E093838283809150029091510206
:10073000958384838091520290915302978386839C
:100740008091540290915502918780870E940E4FAC
:100750008DB79EB70A960FB6F8949EBF0FBE8DBF99
:1007600081E061E0AE010E9467018091AA02909150
:10077000AB0220915002309151022817390779F0CD
:1007800020915202309153022817390741F02091ED
:100790005402309155022817390709F03AC18BEFFE
:1007A0009FEF67E170E040E050E02EE130E00CE8C0
:1007B00010E00E94E6338BE00E94324E20915002FE
:1007C000309151028091AA029091AB02281739070B
:1007D00009F049C086EF9FEF60E070E040E050E034
:1007E00024E130E002E810E00E94E63380E090E08F
:1007F000DC018093820290938302A0938402B093E1
:1008000085028093680290936902A0936A02B09374
:100810006B028091AA029091AB0260E070E042E925
:1008200050E029E730E00E94AE3180E090E06EE0D9
:1008300070E040E050E024E130E00E94E63380E0E8
:1008400090E062EF7FEF40E050E024E130E00E9472
:10085000E6338AE090E060E070E040E050E024E1C0
:1008600030E00E94E6338091520290915302209131
:10087000AA023091AB028217930789F520E030E09D
:10088000A901209382023093830240938402509303
:100890008502209368023093690240936A02509364
:1008A0006B0260E070E042E950E029E730E00E942E
:1008B000AE3180E090E06EE070E040E050E024E196
:1008C00030E002E810E00E94E63380E090E062EF62
:1008D0007FEF40E050E024E130E00E94E6332091D9
:1008E0005402309155028091AA029091AB022817D0
:1008F000390709F049C08AE090E060E070E040E02C
:1009000050E024E130E002E810E00E94E63380E0AD
:1009100090E0DC018093820290938302A093840292
:10092000B09385028093680290936902A0936A0253
:10093000B0936B028091AA029091AB0260E070E0EC
:1009400042E950E029E730E00E94AE3180E090E0DB
:100950006EE070E040E050E024E130E00E94E633D9
:1009600080E090E062EF7FEF40E050E024E130E093
:100970000E94E63386EF9FEF60E070E040E050E0D9
:1009800024E130E00E94E63384E090E06CEE7FEFFB
:1009900040E050E02EE130E00CE810E00E94E63349
:1009A00080E090E0DC018093820290938302A09328
:1009B0008402B09385028093680290936902A093A9
:1009C0006A02B0936B028AE590E09093A50280934F
:1009D000A40286E090E066E970E044E050E024EC98
:1009E00030E005E010E0AAEAEA2EF12CFEE1CF2E7D
:1009F000D12CEEE1AE2EB12C0E9443471092A502FD
:100A00001092A40286E0E0E5F2E0DF011D928A95F3
:100A1000E9F760E070E08CE892E444E650E00E9480
:100A2000DA4086E490E09093A5028093A4020E94AD
:100A30008B2E8091420290914302009731F00E94E8
:100A40008B2EB59BFECFB599FECF80E062E10E9470
:100A5000144E8823D1F30E948E4C80E063E10E9403
:100A6000144E8823D1F3E0915002F091510260912D
:100A7000520270915302409154025091550280E00D
:100A800090E0DC01AA0FBB1F9C0113E0220F331F73
:100A90001A95E1F7A20FB31FA952BD4F2D913C91BA
:100AA00011972115310509F473C012962D913C91CF
:100AB00013972353304037FF03C0309521953F4FA4
:100AC0002C31310584F4FC01EE0FFF1F9C01A3E0E3
:100AD000220F331FAA95E1F7E20FF31FE952FD4FF2
:100AE0000190F081E02DDC01AA0FBB1F9C0113E0F7
:100AF000220F331F1A95E1F7A20FB31FA952BD4F62
:100B000012962D913C9113972C57304037FF03C01C
:100B1000309521953F4F2C3131057CF4DC01AA0F33
:100B2000BB1F9C0163E0220F331F6A95E1F7A20F00
:100B3000B31FA952BD4F6D917C91DC01AA0FBB1F61
:100B40009C0113E0220F331F1A95E1F7A20FB31F88
:100B5000A952BD4F12962D913C9113972C5B3040BA
:100B600037FF03C0309521953F4F2C31310584F478
:100B7000DC01AA0FBB1F9C0113E0220F331F1A9543
:100B8000E1F7A20FB31FA952BD4F4D915C91119790
:100B900001968930910509F074CFF0935102E093EA
:100BA0005002709353026093520250935502409347
:100BB00054020E94D8018DB79EB70A970FB6F894D9
:100BC0009EBF0FBE8DBFEDB7FEB73196CFE5D3E028
:100BD000ADB7BEB71296DC93CE93119780E091E04B
:100BE00093838283809150029091510295838483F4
:100BF0008091520290915302978386838091540290
:100C000090915502918780870E940E4F8DB79EB7B5
:100C10000A960FB6F8949EBF0FBE8DBF81E061E0CB
:100C2000AE010E9467018091AA029091AB022091CF
:100C30005002309151022817390779F02091520261
:100C4000309153022817390741F020915402309116
:100C500055022817390709F0A2C10F2EF0E0AF2E78
:100C6000F0E0BF2EF0E0CF2EF0E0DF2EF02DA092CE
:100C7000B402B092B502C092B602D092B70280918F
:100C8000B4029091B502A091B602B091B7028093E0
:100C9000B0029093B102A093B202B093B3028091DC
:100CA000B0029091B102A091B202B091B3028093D0
:100CB000AC029093AD02A093AE02B093AF02A092AB
:100CC000C002B092C102C092C202D092C30280910F
:100CD000C0029091C102A091C202B091C302809360
:100CE000BC029093BD02A093BE02B093BF0285EFF9
:100CF0009FEF63E170E044E150E02EE130E00CE86A
:100D000010E0B4E1EB2EF12C0E9438421092A502C3
:100D10001092A4026091AC027091AD028091AE027B
:100D20009091AF020E942550EB016091B00270914A
:100D3000B1028091B2029091B3020E9425507B01D2
:100D40008CE00E94324E20915002309151028091ED
:100D5000AA029091AB022817390709F046C086EF26
:100D60009FEF60E070E040E050E024E130E002E816
:100D700010E00E94E633A0928202B0928302C092F9
:100D80008402D0928502A0926802B0926902C09259
:100D90006A02D0926B028091AA029091AB0260E04D
:100DA00070E042E950E029E730E00E94AE3180E097
:100DB00090E06EE070E040E050E024E130E00E941E
:100DC000E63380E090E062EF7FEF40E050E024E126
:100DD00030E00E94E6338AE090E060E070E040E0BE
:100DE00050E024E130E00E94E6338091520290917D
:100DF00053022091AA023091AB028217930789F522
:100E000020E030E0A90120938202309383024093D6
:100E100084025093850220936802309369024093C4
:100E20006A0250936B0260E070E042E950E029E70B
:100E300030E00E94AE3180E090E06EE070E040E093
:100E400050E024E130E002E810E00E94E63380E068
:100E500090E062EF7FEF40E050E024E130E00E945C
:100E6000E63320915402309155028091AA0290916C
:100E7000AB022817390709F049C08AE090E060E02A
:100E800070E040E050E024E130E002E810E00E9431
:100E9000E63380E090E0DC0180938202909383024D
:100EA000A0938402B09385028093680290936902B4
:100EB000A0936A02B0936B028091AA029091AB0258
:100EC00060E070E042E950E029E730E00E94AE3196
:100ED00080E090E06EE070E040E050E024E130E03F
:100EE0000E94E63380E090E062EF7FEF40E050E068
:100EF00024E130E00E94E63386EF9FEF60E070E08F
:100F000040E050E024E130E00E94E6336627772796
:100F10006C1B7D0B882799278E199F0946EA5FEF86
:100F20002EE130E00CE810E0A6E4EA2EF12C0E945D
:100F3000384280E090E0DC0180938202909383024B
:100F4000A0938402B0938502809368029093690213
:100F5000A0936A02B0936B028AE590E09093A50299
:100F60008093A40286E090E066E970E044E050E0FF
:100F700024EC30E005E010E0FAEAEF2EF12CEEE18F
:100F8000CE2ED12CBEE1AB2EB12C0E94434786E081
:100F9000E0E5F2E0DF011D928A95E9F708C060E024
:100FA00070E08CE892EC44E650E00E94DA4080E089
:100FB00090E0DC018093820290938302A0938402EC
:100FC000B09385028093680290936902A0936A02AD
:100FD000B0936B028AE590E09093A5028093A402FF
:100FE00086E090E066E970E044E050E024EC30E018
:100FF00005E010E0AAEAEA2EF12CFEE1CF2ED12C7A
:10100000EEE1AE2EB12C0E9443471092A502109241
:10101000A402DF91CF911F910F91FF90EF90DF908D
:10102000CF90BF90AF9008952F923F924F925F92D2
:101030006F927F928F929F92AF92BF92CF92DF92E8
:10104000EF92FF920F931F93DF93CF9300D000D0C6
:10105000CDB7DEB70E94E7008EE161E00E94B100EB
:101060008EE165E00E94B1008EE164E10E94B10072
:101070008EE160E10E94B1000E94FA4D8BE00E9477
:10108000324E82E30E94CD2E80E063E10E94144E36
:101090008823D1F30FEF1FE726E1015010402040D5
:1010A000E1F700C0000080E090E0DC018093B40232
:1010B0009093B502A093B602B093B7022091B40208
:1010C0003091B5024091B6025091B7022093B00220
:1010D0003093B1024093B2025093B3022091B00218
:1010E0003091B1024091B2025091B3022093AC0210
:1010F0003093AD024093AE025093AF028093C00292
:101100009093C102A093C202B093C3028091C00227
:101110009091C102A091C202B091C3028093BC021F
:101120009093BD02A093BE02B093BF02C39A2FEF6B
:101130003FE744E0215030404040E1F700C000006C
:10114000C3980F2EF0E06F2EF0E07F2EF0E08F2E90
:10115000F0E09F2EF02D1CEE212E1FEF312EBFE56B
:101160004B2EB3E05B2EB49914C080914202909153
:10117000430201979093430280934202C39A4FEF38
:101180005FE764E0415050406040E1F700C000007C
:10119000C398B69914C0809142029091430201967F
:1011A0009093430280934202C39A6FEF7FE784E0FB
:1011B000615070408040E1F700C00000C398B59BCB
:1011C00002C00C9424210E94D801C39A8FEF9FE79C
:1011D000A4E081509040A040E1F700C00000C39817
:1011E00080914202909143028230910574F597FFFD
:1011F00050C0AFEF8B3F9A0711F40C945E12BFEF13
:101200008C3F9B0774F4EFEF893F9E0711F40C9419
:101210003A1BFFEF8A3F9F0711F00C9424210C9496
:101220004E190FEF8E3F900711F40C94831E1FEFA1
:101230008F3F910714F00C947F1F2FEF8D3F920783
:1012400011F00C9424210C941A208630910509F495
:1012500069C58730910574F48430910509F4D2C3CF
:10126000853091050CF053C58330910511F00C9435
:101270002421BDC38830910509F4E9C78830910560
:101280000CF42DC78930910511F00C9424210C9495
:101290008E116092820270928302809284029092F8
:1012A0008502609268027092690280926A0290924E
:1012B0006B024AE550E05093A5024093A40283E0FC
:1012C00090E06AE770E044E050E024EC30E005E0B4
:1012D00010E0AAEAEA2EF12CFEE1CF2ED12CEEE1AD
:1012E000AE2EB12C0E9443471092A5021092A40288
:1012F0008CE090E061E070E045E050E023E030E019
:101300000CE010E0EE24FF24B8E2CB2ED12CA2E3B7
:10131000AA2EB12C0E942A3A8AE090E061E070E0A7
:1013200045E050E025E030E0AA24BB240E942A3AA0
:1013300081E090E061E270E046EA5FEF2EE130E0AC
:1013400000E010E00E94603D86EA9FEF9093A502C6
:101350008093A40285E090E066EA7FEF40E050E0F1
:101360002EE130E00E94FC3E1092A5021092A402F1
:1013700085E690E063E070E00E94DF2E9093AB0280
:101380008093AA020E94D80100D000D000D0EDB70F
:10139000FEB73196ADB7BEB712965C924E921197DA
:1013A00009E011E0138302838091AA029091AB02BD
:1013B000958384830E940E4F2DB73EB72A5F3F4F1F
:1013C0000FB6F8943EBF0FBE2DBF81E061E0A201D1
:1013D0000E9467018CE090E061E070E045E050E041
:1013E00023E030E00CE010E00E942A3A8AE090E02E
:1013F00061E070E042E150E025E030E0FEECAF2E2D
:10140000FFEFBF2E0E942A3A80E090E061EF7FEF6D
:1014100040E050E02EE130E008E210E00E94E633C8
:101420004AE550E05093A5024093A40280E090E08A
:1014300060E070E044E050E024EC30E005E010E0D3
:10144000EAEAEE2EF12CBEE1CB2ED12CAEE1AA2E93
:10145000B12C0E9443476092820270928302809274
:101460008402909285026092680270926902809272
:101470006A0290926B026AE570E07093A502609335
:10148000A40283E090E06AE770E044E050E024ECDE
:1014900030E00E9443471092A5021092A40280E01F
:1014A00090E06EEF7FEF40E050E02AE030E008E7A8
:1014B00010E00E94E6338CE190E060E070E046E4EA
:1014C00050E02EE130E008E210E00E94603D3092F2
:1014D000A5022092A4028BEE9FEF6AE570E04AE538
:1014E00050E02EE130E000E010E00E94FC3E10925F
:1014F000A9021092A8028CE090E066E070E04BEF49
:101500005FEF23E030E00EE010E0EE24FF24F8E28D
:10151000CF2ED12CAA24BB240E942A3A8AE090E044
:1015200066E070E046EF5FEF25E030E00E942A3A87
:1015300086E090E066E070E048E15CEF23E030E0B8
:10154000E4E1EE2EF12C0E942A3A80E090E061EF77
:101550007FEF48E250E028E230E00EEC1FEFB2E30C
:10156000EB2EF12C0E94384284E190E09093A5028A
:101570008093A4028091A8029091A90290934902BD
:1015800080934802809142029091430282309105FB
:1015900031F481E090E090934902809348028BEF10
:1015A0009FEF69E170E046E450E029E130E003E2BA
:1015B00010E00E94603D1092A5021092A402609279
:1015C000B4027092B5028092B6029092B7028091F6
:1015D000B4029091B502A091B602B091B702809387
:1015E000B0029093B102A093B202B093B302809183
:1015F000B0029091B102A091B202B091B302809377
:10160000AC029093AD02A093AE02B093AF02609291
:10161000C0027092C1028092C2029092C302809175
:10162000C0029091C102A091C202B091C302809306
:10163000BC029093BD02A093BE02B093BF028CE0A7
:1016400090E068E070E045E050E023E030E000E149
:1016500010E0EE24FF24A8E2CA2ED12CF2E3AF2E34
:10166000B12C0E942A3A8AE090E068E070E04AE0FB
:1016700050E025E030E0AA24BB240E942A3A88E00A
:1016800090E068E070E048EE53E023E030E0E9E10C
:10169000EE2EF12C0E942A3A6091B0027091B102B4
:1016A0008091B2029091B30201E010E020E030E0BE
:1016B00040E252E40E948151181614F000E010E05C
:1016C000109347020093460282E090E065E270E0EA
:1016D00046EA5FEF2EE130E000E010E00E94603D5E
:1016E00086EA9FEF9093A5028093A40285E090E0A4
:1016F00066EA7FEF40E050E02EE130E00E94FC3EE1
:101700001092A5021092A40280E090E06CE070E0DC
:1017100040E150E020E030E00AE010E0B8E2EB2EDB
:10172000F12CCC24DD240E94254581E090E064E288
:1017300070E046EA5FEF28E230E00EEC1FEFA6E42F
:10174000EA2EF12C0E9438421092A5021092A402B7
:101750000E948B2E0E94D8018DB79EB708970FB6B6
:10176000F8949EBF0FBE8DBFEDB7FEB73196ADB7F3
:10177000BEB712965C924E92119702E111E013836C
:1017800002838091460290914702958384838091E1
:10179000480290914902978386830E940E4F2DB78D
:1017A0003EB7285F3F4F0FB6F8943EBF0FBE2DBF28
:1017B00081E061E0A2010E94670180914602909160
:1017C0004702009709F442C08EE190E090934F02E7
:1017D00080934E0281E090E063E070E040E050E0F2
:1017E0002AE030E008E710E00E94E63360928202CF
:1017F00070928302809284029092850260926802C5
:101800007092690280926A0290926B024AE550E0FF
:101810005093A5024093A40283E090E06AE770E051
:1018200044E050E024EC30E005E010E0FAEAEF2E6E
:10183000F12CEEE1CE2ED12CBEE1AB2EB12C0E94CC
:1018400043471092A5021092A40225C06092820222
:101850007092830280928402909285026092680264
:101860007092690280926A0290926B0280E090E02E
:1018700060E070E041E050E025EA30E003E010E095
:10188000ADE9EA2EF12CFEE1CF2ED12CEEE1AE2E09
:10189000B12C0E94434785E690E063E070E00E942F
:1018A000DF2E2091AA023091AB028217930709F034
:1018B00097C06092B4027092B5028092B602909284
:1018C000B7028091B4029091B502A091B602B09196
:1018D000B7028093B0029093B102A093B202B0938A
:1018E000B3028091B0029091B102A091B202B09186
:1018F000B3028093AC029093AD02A093AE02B0937A
:10190000AF026092C0027092C1028092C2029092B5
:10191000C3028091C0029091C102A091C202B09115
:10192000C3028093BC029093BD02A093BE02B09309
:10193000BF0280914E0290914F02009729F0E8E299
:10194000F0E0A2E3B0E004C0EEE1F0E0A8E2B0E035
:101950008CE090E061E070E043E050E023E030E0B4
:101960000CE010E0EE24FF246F015D010E942A3A92
:1019700040914E0250914F024115510529F4EEE17C
:10198000F0E0A8EDBFEF04C0E8E2F0E0AEECBFEF9E
:101990004B5F5F4F8AE090E061E070E025E030E06F
:1019A0000CE010E0EE24FF246F015D010E942A3A52
:1019B0006091B0027091B1028091B2029091B30235
:1019C00090580E9425509B01AC0180E090E0B90145
:1019D00040E050E02EE130E00CE810E00E94E633F9
:1019E0008091480290914902009709F090C180913E
:1019F0004202909143028330910521F410924702F4
:101A000010924602809142029091430284309105E7
:101A100031F481E090E090934702809346028091F8
:101A2000460290914702009781F160928202709283
:101A30008302809284029092850260926802709282
:101A4000690280926A0290926B026AE570E070937C
:101A5000A5026093A40283E090E06AE770E044E0AE
:101A600050E024EC30E005E010E0BAEAEB2EF12C77
:101A7000AEE1CA2ED12CFEE1AF2EB12C0E9443471D
:101A80001092A5021092A40225C060928202709268
:101A90008302809284029092850260926802709222
:101AA000690280926A0290926B0280E090E060E0AE
:101AB00070E041E050E025EA30E003E010E0EDE9BD
:101AC000EE2EF12CBEE1CB2ED12CAEE1AA2EB12C04
:101AD0000E9443478EE190E06FEF7FEF46E450E0D5
:101AE0002EE130E008E210E00E94603D3092A50255
:101AF0002092A4028CEE9FEF6AE570E04AE550E088
:101B000029E130E000E010E00E94FC3E8CE090E033
:101B100066E070E04DEF5FEF23E030E00BE010E0B7
:101B2000EE24FF24F8E2CF2ED12CAA24BB240E945D
:101B30002A3A8AE090E066E070E04DEF5FEF25E042
:101B400030E00E942A3A86E090E066E070E048E1EA
:101B50005CEF23E030E0E4E1EE2EF12C0E942A3A23
:101B600085E090E06AE070E040E150E024E130E0A0
:101B700008E11CEFB8E2EB2EF12CCC24DD240E940E
:101B8000254585EF9FEF66EA7FEF40E050E02EE1CC
:101B900030E000E010E00E94FC3E81EF9FEF6FEF2D
:101BA0007FEF4EEC5FEF2EE130E00E94603D84E17C
:101BB00090E09093A5028093A4028CE090E063E013
:101BC00070E04BEF5FEF23E030E002E110E0EE2445
:101BD000FF24A8E2CA2ED12C0E942A3A8CEF9FEF54
:101BE00063E070E048E15CEF25E030E0F4E1EF2EE7
:101BF000F12C0E942A3A81EF9FEF6AE570E040E005
:101C000050E02EE130E000E010E00E94FC3E8FE06A
:101C100090E06FEF7FEF42E350E02EE130E00E9472
:101C2000603D3092A5022092A4028CE090E066E034
:101C300070E04BEF5FEF23E030E00EE010E0EE24C9
:101C4000FF240E942A3A8BEF9FEF66E070E048E1A4
:101C50005CEF25E030E0E4E1EE2EF12C0E942A3A20
:101C600084EF9FEF66EA7FEF46EF5FEF2EE130E013
:101C700000E010E00E94FC3E8CE390E09093A5020F
:101C80008093A4028CE090E064E070E04BEF5FEFA3
:101C900023E030E00EE010E0EE24FF240E942A3A18
:101CA0008DEF9FEF64E070E048E15CEF25E030E00D
:101CB000B4E1EB2EF12C0E942A3A80E090E066EF2E
:101CC0007FEF4EE150E028E230E00EEC1FEFA8E29B
:101CD000EA2EF12C0E9438426092820270928302B6
:101CE00080928402909285026092680270926902EA
:101CF00080926A0290926B02AAE5B0E0B093A502CE
:101D0000A093A40283E090E06AE770E0CAC18091EA
:101D10004202909143028530910521F410924702CE
:101D200010924602809142029091430286309105C2
:101D300031F481E090E090934702809346028091D5
:101D4000460290914702009709F49DC080E090E020
:101D500062E070E040E050E02AE030E008E710E0A8
:101D60000E94E63360928202709283028092840223
:101D700090928502609268027092690280926A0273
:101D800090926B02EAE5F0E0F093A502E093A402E2
:101D900083E090E06AE770E044E050E024EC30E05B
:101DA00005E010E0FAEAEF2EF12CEEE1CE2ED12C78
:101DB000BEE1AB2EB12C0E9443471092A5021092B7
:101DC000A40280E090E06EEF7FEF40E050E02AE078
:101DD00030E008E710E00E94E6338DE190E06FEF1D
:101DE0007FEF46E450E02EE130E008E210E00E9490
:101DF000603D3092A5022092A4028CEE9FEF6AE52E
:101E000070E04AE550E02EE130E000E010E00E9492
:101E1000FC3E8CE090E066E070E04BEF5FEF23E08B
:101E200030E00CE010E0EE24FF24A8E2CA2ED12C12
:101E3000AA24BB240E942A3A8AE090E066E070E07F
:101E40004BEF5FEF25E030E00E942A3A8CEE9FEFE7
:101E500066EA7FEF48ED5FEF2EE130E000E010E052
:101E60000E94FC3E8EE190E09093A5028093A40234
:101E700080E090E066EF7FEF46EF5FEF2EE130E02D
:101E80000E94603D4DC060928202709283028092F7
:101E90008402909285026092680270926902809238
:101EA0006A0290926B0280E090E060E070E041E0B6
:101EB00050E025EA30E003E010E0FDE9EF2EF12CE0
:101EC000EEE1CE2ED12CBEE1AB2EB12C0E944347C9
:101ED00087E290E060E070E04AE550E02EE130E01B
:101EE00008E210E00E94603D86EF9FEF6AE570E037
:101EF0004AE050E02EE130E000E010E00E94FC3EBD
:101F000084E690E09093A5028093A4028CE090E098
:101F100066EA7FEF4AE050E02EE130E00E94FC3EAE
:101F200084E190E09093A5028093A4028CE090E07D
:101F300065E070E04DEF5FEF23E030E002E110E09C
:101F4000EE24FF24A8E2CA2ED12CAA24BB240E948E
:101F50002A3A8AE090E065E070E04DEF5FEF25E01F
:101F600030E00E942A3A8CEF9FEF65E070E048E194
:101F70005CEF25E030E0F4E1EF2EF12C0E942A3AEC
:101F800081EF9FEF66EA7FEF48ED5FEF2EE130E0F3
:101F900000E010E00E94FC3E3092A5022092A402D4
:101FA00084EF9FEF6FEF7FEF4EEC5FEF29E130E0C2
:101FB0000E94603D84E190E09093A5028093A4028A
:101FC0008CE090E063E070E04BEF5FEF23E030E007
:101FD00002E110E0EE24FF240E942A3A8CEF9FEFEA
:101FE00063E070E048E15CEF25E030E0E4E1EE2EF4
:101FF000F12C0E942A3A84EF9FEF6AE570E04AE0F4
:1020000050E02EE130E000E010E00E94FC3E04ECE5
:102010001FEF1093A5020093A4028CE090E065E00E
:1020200070E04BEF5FEF23E030E002E110E0EE24E0
:10203000FF240E942A3A8AEF9FEF65E070E048E1B2
:102040005CEF25E030E0B4E1EB2EF12C0E942A3A5F
:1020500080E090E066EF7FEF42EE5FEF28E230E055
:102060000EEC1FEFA8E2EA2EF12C0E94384260929B
:102070008202709283028092840290928502609222
:1020800068027092690280926A0290926B022AE55D
:1020900030E03093A5022093A40286E090E066E948
:1020A00070E044E050E024EC30E005E010E0FAEAB3
:1020B000EF2EF12CEEE1CE2ED12CBEE1AB2EB12CC9
:1020C0000E9443471092A5021092A4020E948B2EF8
:1020D0008091480290914902009709F4B8C060923B
:1020E00082027092830280928402909285026092B2
:1020F00068027092690280926A0290926B024AE5CD
:1021000050E05093A5024093A40286E090E066E977
:1021100070E044E050E024EC30E005E010E0AAEA92
:10212000EA2EF12CFEE1CF2ED12CEEE1AE2EB12C19
:102130000E9443471092A5021092A40280E090E012
:1021400066E170E046EF5FEF2EE130E008E210E07C
:102150000E94603D88E090E066EA7FEF4AE050E050
:102160002EE130E000E010E00E94FC3E6AE570E005
:102170007093A5026093A40284E090E040E050E0F8
:1021800029E130E00E94FC3E1092A5021092A402C8
:102190008CE090E061E070E045E050E023E030E06A
:1021A0000EE010E0EE24FF24B8E2CB2ED12CAA24BE
:1021B000BB240E942A3A8AE090E061E070E045E0AA
:1021C00050E025E030E00E942A3A81E090E061E0B2
:1021D00070E048EE53E023E030E0A4E1EA2EF12C79
:1021E0000E942A3A82E090E069E170E04AEB5FEFFA
:1021F0002EE130E000E010E00E94603D8AEB9FEFAE
:102200009093A5028093A4028FE090E06AE570E0CD
:102210004CEE5FEF2EE130E008ED1FEF0E94FC3E38
:102220006092820270928302809284029092850270
:10223000609268027092690280926A0290926B02C8
:102240008AE590E09093A5028093A4027DC06092FD
:102250008202709283028092840290928502609240
:1022600068027092690280926A0290926B02AAE5FB
:10227000B0E0B093A502A093A40283E090E06AE7E7
:1022800070E044E050E024EC30E005E010E0FAEAD1
:10229000EF2EF12CEEE1CE2ED12CBEE1AB2EB12CE7
:1022A0000E9443471092A5021092A40280E090E0A1
:1022B0006DE070E044E150E02EE130E008E210E033
:1022C0000E94603D84E190E09093A5028093A40277
:1022D0008FE090E06AE570E046E450E02EE130E007
:1022E00000E010E00E94FC3E1092A5021092A402B1
:1022F00088E090E066EA7FEF40E050E02EE130E0D9
:102300000E94FC3E8BE190E060E070E040E050E035
:102310002EE130E008ED1FEF0E94E633609282026A
:102320007092830280928402909285026092680289
:102330007092690280926A0290926B02EAE5F0E084
:10234000F093A502E093A40286E090E066E970E0D5
:1023500044E050E024EC30E005E010E0AAEAEA2E88
:10236000F12CFEE1CF2ED12CEEE1AE2EB12C0E944D
:1023700043471092A5021092A402809142029091CC
:10238000430207978330910530F482E090E0909308
:10239000AB028093AA020E94AF020E942B020E940D
:1023A000AF028CEE9FEF60E070E040E050E02EE185
:1023B00030E008E210E00E94E6330AE510E01093F6
:1023C000A5020093A4028CEE9FEF6AE570E04CEE4C
:1023D0005FEF2EE130E000E010E00E94FC3E309222
:1023E000A5022092A40285E090E06EE070E042E158
:1023F00050E029E130E008E11CEFB8E2EB2EF12CCF
:10240000CC24DD240E94254581EF9FEF66EA7FEF13
:1024100040E050E028E230E000E010E00E94FC3EA6
:102420008BEF9FEF60E070E04AEB5FEF28E230E077
:102430000EEC1FEFA4E6EA2EF12C0E9438426092C7
:10244000820270928302809284029092850260924E
:1024500068027092690280926A0290926B022AE589
:1024600030E03093A5022093A40286E090E066E974
:1024700070E044E050E024EC30E005E010E0FAEADF
:10248000EF2EF12CEEE1CE2ED12CBEE1AB2EB12CF5
:102490000E9443471092A5021092A402809142022A
:1024A00090914302009731F00E948B2EB59BFECF96
:1024B000B599FECF1092A7021092A60260928202F6
:1024C00070928302809284029092850260926802E8
:1024D0007092690280926A0290926B024AE550E023
:1024E0005093A5024093A40286E090E066E970E074
:1024F00044E050E024EC30E005E010E0AAEAEA2EE7
:10250000F12CFEE1CF2ED12CEEE1AE2EB12C0E94AB
:1025100043471092A5021092A40280E090E064E18B
:1025200070E04CEE5FEF2EE130E008E210E00E9438
:10253000603D3092A5022092A4028091A602909163
:10254000A70290934B0280934A028091420290919D
:1025500043025FEF8B3F950731F481E090E0909369
:102560004B0280934A0280914A0290914B0200975D
:1025700009F4A5C485E090E064E170E04AEB5FEF08
:102580002EE130E000E010E00E94603D86EA9FEF1F
:102590009093A5028093A4028AE090E066EA7FEF20
:1025A00040E050E02EE130E00E94FC3E1092A50297
:1025B0001092A4028CE090E068E070E045E050E00A
:1025C00023E030E002E110E0EE24FF24B8E2CB2E5D
:1025D000D12CAA24BB240E942A3A8AE090E068E029
:1025E00070E04AE050E025E030E00E942A3A88E0BE
:1025F00090E068E070E048EE53E023E030E0A9E1CD
:10260000EA2EF12C0E942A3A2091740281E090E097
:102610002A3110F480E090E090934D0280934C02B8
:102620000E94D80100D000D000D0EDB7FEB731969F
:10263000ADB7BEB712965C924E92119708E211E0C8
:102640001383028380914A0290914B029583848385
:102650000E940E4F2DB73EB72A5F3F4F0FB6F8943A
:102660003EBF0FBE2DBF81E061E0A2010E94670165
:1026700082E090E06CE170E04AEB5FEF2EE130E049
:1026800000E010E00E94603D8AEB9FEF9093A5026E
:102690008093A4028FE090E066EA7FEF4CEE5FEF5C
:1026A0002EE130E00E94FC3E1092A5021092A4029E
:1026B00083E090E063E270E046EA5FEF29E130E01A
:1026C0000E94603D85E690E063E070E00E94DF2EAE
:1026D0002091AA023091AB028217930739F48FE060
:1026E00090E090934F0280934E0204C010924F02EC
:1026F00010924E028CE090E061E070E045E050E026
:1027000023E030E00BE010E0EE24FF24F8E2CF2ECF
:10271000D12CE2E3AE2EB12C0E942A3A40914E0217
:1027200050914F02465F5F4F8AE090E061E070E0B9
:1027300025E030E0BEECAB2EBFEFBB2E0E942A3A64
:1027400066EF7FEF80914E0290914F02681B790BEC
:1027500080E090E040E050E02EE130E008E210E060
:102760000E94E6334AE550E05093A5024093A4024C
:1027700080E090E060E070E044E050E024EC30E085
:1027800005E010E0AAEAEA2EF12CFEE1CF2ED12CD2
:10279000EEE1AE2EB12C0E9443476092820270920D
:1027A0008302809284029092850260926802709205
:1027B000690280926A0290926B026AE570E07093FF
:1027C000A5026093A40283E090E06AE770E044E031
:1027D00050E024EC30E00E9443471092A502109292
:1027E000A40280E090E06EEF7FEF40E050E02AE04E
:1027F00030E008E710E00E94E63381E290E060E01C
:1028000070E046E450E029E130E003E210E00E948D
:10281000603D3092A5022092A4028CEE9FEF6AE503
:1028200070E04AE550E02EE130E000E010E00E9468
:10283000FC3E8CE090E066E070E04BEF5FEF23E061
:1028400030E000E110E0EE24FF24B8E2CB2ED12CE2
:10285000AA24BB240E942A3A8AE090E066E070E055
:102860004BEF5FEF25E030E00E942A3A86E090E0EF
:1028700066E070E048E15CEF23E030E0A9E1EA2E99
:10288000F12C0E942A3A85E090E060E170E042E19C
:1028900050E022E130E008E11CEFF8E2EF2EF12CED
:1028A000CC24DD240E94254585E090E06FEB70E0AC
:1028B00040E050E020E030E000E010E0EE24FF24B3
:1028C000E8E2AE2EB12C0E94434780914C029091D9
:1028D0004D02009709F044C060E070E084EB92E4A0
:1028E00046E450E00E94DA4086E490E09093A5022E
:1028F0008093A40280E090E06BE070E044E150E05F
:1029000024E130E00EE110E00E94603DAAE5B0E075
:10291000B093A502A093A40285E090E06AE570E080
:1029200040E050E02EE130E000E010E00E94FC3E8C
:102930001092A5021092A40280E090E06BE070E09B
:102940004FE050E020E030E00AE010E0B8E2EB2E8B
:10295000F12C0E94254582E090E068E270E066C0BC
:1029600060E070E080EA91E444E150E00E94DA40E7
:102970001092A5021092A4020E948B2E8CE090E08F
:1029800061E070E045E050E023E030E00EE010E070
:10299000EE24FF24A8E2CA2ED12CF2E3AF2EB12CF4
:1029A0000E942A3A81E090E061E070E048EE53E056
:1029B00023E030E0E4E1EE2EF12CAA24BB240E94B7
:1029C0002A3A8EEF9FEF64E270E04AE550E02EE194
:1029D00030E000E010E00E94603DEAE5F0E0F093B6
:1029E000A502E093A40285E090E06AE570E040E093
:1029F00050E02EE130E00E94FC3E1092A5021092C1
:102A0000A40280E090E06BE070E04FE050E020E056
:102A100030E00AE010E0B8E2EB2EF12CCC24DD240B
:102A20000E94254582E090E066E270E046EA5FEFB2
:102A30002EE130E000E010E00E94603D8CE090E08C
:102A400061E070E045E050E023E030E00EE010E0AF
:102A5000EE24FF24A8E2CA2ED12CF2E3AF2EB12C33
:102A60000E942A3A81E090E061E070E048EE53E095
:102A700023E030E0E4E1EE2EF12CAA24BB240E94F6
:102A80002A3A8FEF9FEF69E170E046E450E02EE1D3
:102A900030E000E010E00E94603D06E410E010939A
:102AA000A5020093A4028FE090E06AE570E044E1A3
:102AB00050E02EE130E000E010E00E94FC3E109279
:102AC000A5021092A4028EEF9FEF63E270E04AE548
:102AD00050E02EE130E00E94603D85E690E063E04A
:102AE00070E00E94DF2E2091AA023091AB02821783
:102AF000930739F48FE090E090934F0280934E0259
:102B000004C010924F0210924E028CE090E068E0F8
:102B100070E045E050E023E030E00FE010E0EE240C
:102B2000FF24B8E2CB2ED12CA2E3AA2EB12C0E9416
:102B30002A3A40914E0250914F02465F5F4F8AE021
:102B400090E068E070E025E030E0FEECAF2EFFEFB3
:102B5000BF2E0E942A3A66EF7FEF80914E0290913D
:102B60004F02681B790B80E090E040E050E02EE1DE
:102B700030E008E210E00E94E6332AE530E03093CE
:102B8000A5022093A40280E090E060E070E044E0C1
:102B900050E024EC30E005E010E0EAEAEE2EF12C03
:102BA000BEE1CB2ED12CAEE1AA2EB12C0E94434720
:102BB00060928202709283028092840290928502D7
:102BC000609268027092690280926A0290926B022F
:102BD0004AE550E05093A5024093A40286E090E0BD
:102BE00066E970E044E050E024EC30E00E944347A6
:102BF0001092A5021092A40280E090E06EEF7FEFA9
:102C000040E050E02AE030E008E710E00E94E633C0
:102C10008FED9FEF60E070E04AEB5FEF2EE130E078
:102C200008E210E00E94603D64E170E07093A5024C
:102C30006093A4028CEE9FEF66EA7FEF46EA5FEFB7
:102C40002EE130E000E010E00E94FC3E8CE090E0DD
:102C500063E070E04BEF5FEF23E030E002E110E073
:102C6000EE24FF24F8E2CF2ED12CAA24BB240E940C
:102C70002A3A8AE090E063E070E04BEF5FEF23E0F8
:102C800030E00E942A3A83E090E063E070E048E19F
:102C90005CEF23E030E0E9E1EE2EF12C0E942A3ACD
:102CA00084E090E06EE070E042E150E024E130E04A
:102CB00008E11CEFB8E2EB2EF12CCC24DD240E94BD
:102CC000254581EF9FEF66EA7FEF48ED5FEF2EE14C
:102CD00030E000E010E00E94FC3E3092A50220921D
:102CE000A40281EF9FEF6FEF7FEF4EEC5FEF2EE1DD
:102CF00030E00E94603D84E190E09093A5028093D3
:102D0000A4028CE090E063E070E04BEF5FEF23E023
:102D100030E002E110E0EE24FF24A8E2CA2ED12C1C
:102D20000E942A3A8CEF9FEF63E070E048E15CEF8D
:102D300025E030E0F4E1EF2EF12C0E942A3A84EFF6
:102D40009FEF6AE570E04AE050E02EE130E000E0FD
:102D500010E00E94FC3EA4ECBFEFB093A502A0934C
:102D6000A4028CE090E065E070E04BEF5FEF23E0C1
:102D700030E002E110E0EE24FF240E942A3A8AE0CB
:102D800090E065E070E04BEF5FEF23E030E00E9401
:102D90002A3A8AEF9FEF65E070E048E15CEF25E0BA
:102DA00030E0E4E1EE2EF12C0E942A3A80E090E03F
:102DB00066EF7FEF42EE5FEF28E230E00EEC1FEFB0
:102DC000B8E2EB2EF12C0E9438426092820270929F
:102DD00083028092840290928502609268027092CF
:102DE000690280926A0290926B02EAE5F0E0F09349
:102DF000A502E093A40286E090E066E970E044E07A
:102E000050E024EC30E005E010E0AAEAEA2EF12CD4
:102E1000FEE1CF2ED12CEEE1AE2EB12C0E94434725
:102E20001092A5021092A40280E090E06AE070E0A7
:102E300040E050E028E230E002E310E00E94E63398
:102E400089E190E066EA7FEF40E050E02EE130E07B
:102E500000E010E00E94FC3E0AE510E01093A5029D
:102E60000093A40289E190E06AE570E04AE550E051
:102E70002EE130E008ED1FEF0E94FC3E60928202DE
:102E8000709283028092840290928502609268021E
:102E90007092690280926A0290926B022AE530E099
:102EA0003093A5022093A40286E090E066E970E0EA
:102EB00044E050E024EC30E005E010E009C780E099
:102EC00090E06FE070E040E050E028E230E00EEC8F
:102ED0001FEF0E94E6338CE090E066E070E04BEF7D
:102EE0005FEF23E030E00EE010E0EE24FF24B8E2D4
:102EF000CB2ED12CA2E3AA2EB12C0E942A3A8BEF22
:102F00009FEF66E070E048E15CEF25E030E0F4E13F
:102F1000EF2EF12CAA24BB240E942A3A84EF9FEFC3
:102F200066EA7FEF46EF5FEF28E230E000E010E076
:102F30000E94FC3E40E550E05093A5024093A4025D
:102F40008CE090E064E070E04BEF5FEF23E030E076
:102F50000EE010E0EE24FF240E942A3A8AE090E07E
:102F600064E070E04BEF5FEF25E030E00E942A3A2A
:102F70008DEF9FEF64E070E048E15CEF23E030E02C
:102F80000E942A3A80E090E066EF7FEF4EE150E049
:102F900028E230E00EEC1FEFE8E2EE2EF12C0E946A
:102FA00038426092820270928302809284029092F0
:102FB0008502609268027092690280926A02909221
:102FC0006B026AE570E07093A5026093A40283E04F
:102FD00090E06AE770E044E050E024EC30E005E087
:102FE00010E0BAEAEB2EF12CAEE1CA2ED12CFEE1B4
:102FF000AF2EB12C0E9443471092A5021092A4025A
:103000008091420290914302009731F00E948B2EF2
:10301000B59BFECFB599FECF80E090E06CE070E00C
:1030200044E150E02EE130E000E010E00E94603D1D
:1030300084E190E09093A5028093A4028FE090E059
:103040006AE570E046E450E02EE130E00E94FC3E8C
:103050001092A5021092A40287E090E066EA7FEF4A
:1030600040E050E02EE130E00E94FC3E8CE190E038
:1030700060E070E040E050E02EE130E008ED1FEF4E
:103080000E94E633609282027092830280928402F0
:1030900090928502609268027092690280926A0240
:1030A00090926B028AE590E09093A5028093A4022F
:1030B00086E090E066E970E044E050E024EC30E027
:1030C00005E010E0EAEAEE2EF12CBEE1CB2ED12C89
:1030D000AEE1AA2EB12C0E9443471092A502109295
:1030E000A4028091420290914302009731F00E9425
:1030F0008B2EB59BFECFB599FECF60E070E08CE8DB
:1031000092EC44E650E00E94DA408AEB9FEF909305
:10311000A5028093A40280E090E06AE070E04CEEAB
:103120005FEF2EE130E008E210E00E94603DA6EA89
:10313000BFEFB093A502A093A40288E090E066EAF6
:103140007FEF40E050E02EE130E000E010E00E9430
:10315000FC3E1092A5021092A4028CE090E068E080
:1031600070E045E050E023E030E000E110E0EE24C4
:10317000FF24F8E2CF2ED12CAA24BB240E942A3AA5
:103180008AE090E068E070E045E050E025E030E063
:103190000E942A3A88E090E068E070E048EE53E050
:1031A00023E030E0E9E1EE2EF12C0E942A3A80E0A3
:1031B00090E063E270E046EA5FEF2EE130E000E08D
:1031C00010E00E94603DE6EAFFEFF093A502E09375
:1031D000A40288E090E066EA7FEF40E050E02EE154
:1031E00030E00E94FC3E1092A5021092A4028CE0F6
:1031F00090E068E070E045E050E023E030E000E17E
:1032000010E0EE24FF240E942A3A8AE090E068E071
:1032100070E045E050E025E030E00E942A3A88E086
:1032200090E068E070E048EE53E023E030E0B9E180
:10323000EB2EF12C0E942A3A82E090E068E170E0E7
:1032400042EE5FEF2EE130E000E010E00E94603DD2
:1032500082EE9FEF9093A5028093A40284E190E018
:1032600066EA7FEF4AE050E02EE130E00E94FC3E4B
:1032700006E410E01093A5020093A4028AE090E017
:103280006AE570E044E150E02EE130E000E010E05B
:103290000E94FC3E1092A5021092A402809142026C
:1032A000909143021FEF8A3F910719F4E8E2F0E0A2
:1032B00002C0E0E0F0E08CE090E061E070E045E02A
:1032C00050E023E030E00EE010E0EE24FF24A3E223
:1032D000CA2ED12C5F010E942A3A8AE090E061E078
:1032E00070E045E050E025E030E0AA24BB240E94D5
:1032F0002A3A81E090E061E070E048EE53E025E09A
:1033000030E0F4E1EF2EF12C0E942A3A209179026C
:1033100081E090E0253110F480E090E090934D0240
:1033200080934C020E94D80100D000D000D0EDB7AD
:10333000FEB73196ADB7BEB712965C924E9211971A
:1033400005E311E01383028380914C0290914D02BA
:10335000958384830E940E4F2DB73EB72A5F3F4F5F
:103360000FB6F8943EBF0FBE2DBF81E061E0A20111
:103370000E9467018EEF9FEF68E170E046E450E045
:103380002EE130E000E010E00E94603D46E450E0B5
:103390005093A5024093A4028FE090E06AE570E0AC
:1033A00044E150E02EE130E00E94FC3E1092A50284
:1033B0001092A4028EEF9FEF62E270E04AE550E0C7
:1033C00029E130E00E94603D85E690E063E070E036
:1033D0000E94DF2E2091AA023091AB028217930740
:1033E00039F48FE090E090934F0280934E0204C036
:1033F00010924F0210924E028CE090E068E070E074
:1034000045E050E023E030E00FE010E0EE24FF2440
:10341000E8E2CE2ED12CB2E3AB2EB12C0E942A3A98
:1034200040914E0250914F02465F5F4F8AE090E01C
:1034300068E070E025E030E0AEECAA2EAFEFBA2EE7
:103440000E942A3A61EF7FEF80914E0290914F02E5
:10345000681B790B80E090E040E050E02EE130E026
:1034600008E210E00E94E6336AE570E07093A5027E
:103470006093A40280E090E060E070E044E050E0FF
:1034800024EC30E005E010E0FAEAEF2EF12CEEE15A
:10349000CE2ED12CBEE1AB2EB12C0E9443476092C0
:1034A00082027092830280928402909285026092DE
:1034B00068027092690280926A0290926B028AE5B9
:1034C00090E09093A5028093A40286E090E066E9E4
:1034D00070E044E050E024EC30E00E94434710925A
:1034E000A5021092A40280E090E06EEF7FEF40E032
:1034F00050E02AE030E008E710E00E94E6338FED6C
:103500009FEF60E070E04AEB5FEF29E130E003E21B
:1035100010E00E94603D84E190E09093A5028093CA
:10352000A4028CEE9FEF66EA7FEF46EA5FEF2EE1A2
:1035300030E000E010E00E94FC3E8CE090E063E0B0
:1035400070E04DEF5FEF23E030E002E110E0EE24A9
:10355000FF24A8E2CA2ED12CAA24BB240E942A3A16
:103560008AE090E063E070E04BEF5FEF25E030E051
:103570000E942A3A83E090E063E070E048E15CEF6B
:1035800023E030E0F9E1EF2EF12C0E942A3A84E0AA
:1035900090E06DE070E041E150E024E130E008E1CE
:1035A0001CEFE8E2EE2EF12CCC24DD240E94254510
:1035B00084E090E06FEB70E040E050E020E030E02D
:1035C00000E010E0EE24FF24B8E2AB2EB12C0E9404
:1035D000434780914C0290914D02009709F04AC0F8
:1035E00060E070E084EB92EC46E450E00E94DA4048
:1035F0008AEB9FEF9093A5028093A4020E948B2EEA
:1036000080E090E06BE070E04CEE5FEF24E130E0B2
:103610000EE110E00E94603D86EA9FEF9093A502C4
:103620008093A40285E090E066EA7FEF40E050E0FE
:103630002EE130E000E010E00E94FC3E1092A50276
:103640001092A40280E090E06AE070E04EE050E06A
:1036500020E030E00AE010E0A8E2EA2EF12C0E941F
:1036600025458EEF9FEF68E270E04AE550E02EE1DD
:1036700030E079C080E090E06DEF7FEF4CEE5FEFDF
:103680002AE030E008E710E0F4E1EF2EF12C0E9490
:1036900038421092A5021092A4028CE090E068E0FB
:1036A00070E042E050E023E030E002E110E0EE2480
:1036B000FF24E3E2CE2ED12CBDE2AB2EB12C0E9432
:1036C0002A3A8AE090E068E070E043E050E025E0CC
:1036D00030E0AA24BB240E942A3A88E090E068E007
:1036E00070E048EE53E023E030E0A9E1EA2EF12C4F
:1036F0000E942A3A82E090E066E270E046EA5FEFDC
:1037000029E130E000E010E00E94603D86EA9FEF92
:103710009093A5028093A40285E090E066EA7FEF93
:1037200040E050E02EE130E00E94FC3E1092A50205
:103730001092A40280E090E06BE070E04FE050E077
:1037400020E030E00FE010E0F3E2EF2EF12CCC248B
:10375000DD240E9425458FEF9FEF6EE170E04AE582
:1037600050E029E130E000E010E00E94603D8CE094
:1037700090E068E070E043E050E023E030E002E1F8
:1037800010E0EE24FF24E3E2CE2ED12CBDE2AB2EDE
:10379000B12C0E942A3A8AE090E068E070E043E0B1
:1037A00050E025E030E0AA24BB240E942A3A88E0B9
:1037B00090E068E070E048EE53E023E030E0A9E1FB
:1037C000EA2EF12CF8E2CF2ED12C0E942A3A80E08A
:1037D00090E06DE170E04AEB5FEF2EE130E000E059
:1037E00010E00E94603D8AEB9FEF9093A5028093CA
:1037F000A4028FE090E066EA7FEF4CEE5FEF2EE1EF
:1038000030E00E94FC3E1092A5021092A40282E0D9
:1038100090E066E270E046EA5FEF2EE130E00E9461
:10382000603D85E690E063E070E00E94DF2E20912D
:10383000AA023091AB028217930739F48FE090E02F
:1038400090934F0280934E0204C010924F02109248
:103850004E028CE090E061E070E045E050E023E053
:1038600030E00AE010E0EE24FF24E8E2CE2ED12C76
:10387000B2E3AB2EB12C0E942A3A40914E025091F5
:103880004F02465F5F4F8AE090E061E070E025E024
:1038900030E0AEECAA2EAFEFBA2E0E942A3A61EFCA
:1038A0007FEF80914E0290914F02681B790B80E070
:1038B00090E040E050E02EE130E008E210E00E94AD
:1038C000E633AAE5B0E0B093A502A093A40280E09D
:1038D00090E060E070E044E050E024EC30E005E08F
:1038E00010E0FAEAEF2EF12CEEE1CE2ED12CBEE163
:1038F000AB2EB12C0E9443476092820270928302E9
:1039000080928402909285026092680270926902AD
:1039100080926A0290926B02EAE5F0E0F093A502D1
:10392000E093A40283E090E06AE770E044E050E0B6
:1039300024EC30E00E9443471092A5021092A402AA
:1039400080E090E06EEF7FEF40E050E02AE030E072
:1039500008E710E00E94E63381E290E060E070E06A
:1039600046E450E02EE130E008E210E00E94603DC5
:103970003092A5022092A4028CEE9FEF6AE570E0DF
:103980004AE550E02EE130E000E010E00E94FC3E0D
:103990008CE090E066E070E04BEF5FEF23E030E01A
:1039A00000E110E0EE24FF24A8E2CA2ED12CAA24C4
:1039B000BB240E942A3A8AE090E066E070E04BEF78
:1039C0005FEF23E030E00E942A3A86E090E066E074
:1039D00070E048E15CEF23E030E0F9E1EF2EF12CFC
:1039E0000E942A3A85E090E060E170E042E150E018
:1039F00024E130E008E11CEFE8E2EE2EF12CCC24CB
:103A0000DD240E94254581EF9FEF6AE570E048E2E2
:103A100050E02EE130E000E010E00E94FC3E04E1C6
:103A200010E01093A5020093A4028FE090E06FEFE6
:103A30007FEF42E350E02EE130E000E010E00E9432
:103A4000603D3092A5022092A4028CE090E066E0F6
:103A500070E04BEF5FEF23E030E00EE010E0EE248B
:103A6000FF24B8E2CB2ED12C0E942A3A8BEF9FEF95
:103A700066E070E048E15CEF25E030E0A4E1EA2E8A
:103A8000F12C0E942A3A84EF9FEF66EA7FEF46EF1F
:103A90005FEF2EE130E000E010E00E94FC3E2CE3FE
:103AA00030E03093A5022093A4028CE090E064E023
:103AB00070E04BEF5FEF23E030E00EE010E0EE242B
:103AC000FF240E942A3A8AE090E064E070E04BEF25
:103AD0005FEF25E030E00E942A3A8DEF9FEF64E02F
:103AE00070E048E15CEF25E030E0F4E1EF2EF12CEE
:103AF0000E942A3A80E090E066EF7FEF4EE150E0CE
:103B000028E230E00EEC1FEFE8E2EE2EF12C0E94EE
:103B10003842609282027092830280928402909274
:103B20008502609268027092690280926A029092A5
:103B30006B024AE550E05093A5024093A40283E053
:103B400090E06AE770E044E050E024EC30E005E00B
:103B500010E0BAEAEB2EF12CAEE1CA2ED12CFEE138
:103B6000AF2EB12C0E9443471092A5021092A402DE
:103B700080E090E068E070E044E150E02EE130E069
:103B800008E210E00E94603D64E170E07093A502DD
:103B90006093A40286E190E06AE570E04CEE5FEF8E
:103BA0002EE130E000E010E00E94FC3E80E090E07A
:103BB00061E070E048E15CEF20E030E0E9E1EE2E0A
:103BC000F12CB8E2CB2ED12CAA24BB240E94BF3505
:103BD00086EA9FEF9093A5028093A4028AE090E08A
:103BE00066EA7FEF40E050E02EE130E00E94FC3ECC
:103BF0001092A5021092A4028CE090E061E070E0C7
:103C000045E050E023E030E00CE010E0EE24FF243B
:103C10000E942A3A8AE090E061E070E045E050E0DE
:103C200025E030E00E942A3A81E090E061E070E017
:103C300048EE53E023E030E0A4E1EA2EF12C0E94AC
:103C40002A3A81E090E069E170E04AEB5FEF2EE113
:103C500030E000E010E00E94603D8AEB9FEF90931F
:103C6000A5028093A4028FE090E06AE570E04CEE3C
:103C70005FEF2EE130E008ED1FEF0E94FC3E609206
:103C800082027092830280928402909285026092F6
:103C900068027092690280926A0290926B028AE5D1
:103CA00090E09093A5028093A40286E090E066E9FC
:103CB00070E044E050E024EC30E005E010E0FAEA87
:103CC000EF2EF12CEEE1CE2ED12CBEE1AB2EB12C9D
:103CD0000E9443471092A5021092A4020E948B2ECC
:103CE0008091420290914302009731F00E948B2E06
:103CF000B59BFECFB599FECF8091480290914902C5
:103D0000009709F097C160928202709283028092BC
:103D10008402909285026092680270926902809299
:103D20006A0290926B02AAE5B0E0B093A502A0935C
:103D3000A40286E090E066E970E044E050E024EC04
:103D400030E005E010E0AAEAEA2EF12CFEE1CF2EE9
:103D5000D12CEEE1AE2EB12C0E9443471092A50269
:103D60001092A40260E070E08CE892EC44E650E02F
:103D70000E94DA408AEB9FEF9093A5028093A40201
:103D800080E090E06AE070E04CEE5FEF2EE130E022
:103D900008E210E00E94603DE6EAFFEFF093A50222
:103DA000E093A40288E090E066EA7FEF40E050E014
:103DB0002EE130E000E010E00E94FC3E1092A502EF
:103DC0001092A4028CE090E068E070E045E050E0E2
:103DD00023E030E000E110E0EE24FF24B8E2CB2E37
:103DE000D12CAA24BB240E942A3A8AE090E068E001
:103DF00070E045E050E025E030E00E942A3A88E09B
:103E000090E068E070E048EE53E023E030E0A9E1A4
:103E1000EA2EF12C0E942A3A80E090E063E270E002
:103E200046EA5FEF2EE130E000E010E00E94603DE6
:103E300006EA1FEF1093A5020093A40288E090E029
:103E400066EA7FEF40E050E02EE130E000E010E075
:103E50000E94FC3E1092A5021092A4028CE090E019
:103E600068E070E045E050E023E030E000E110E081
:103E7000EE24FF240E942A3A8AE090E068E070E095
:103E800045E050E025E030E00E942A3A88E090E0EA
:103E900068E070E048EE53E023E030E0F9E1EF2E17
:103EA000F12C0E942A3A81E090E069E170E042EE54
:103EB0005FEF2EE130E000E010E00E94603D82EE16
:103EC0009FEF9093A5028093A40284E190E066EABC
:103ED0007FEF4AE050E02EE130E00E94FC3E26E415
:103EE00030E03093A5022093A40288E090E06AE5D8
:103EF00070E040E050E02EE130E00E94FC3E309265
:103F0000A5022092A40280914202909143023FEFC9
:103F10008F3F930719F408E210E002C000E010E0C0
:103F200082E090E063E270E04AEB5FEF2EE130E088
:103F30000E94603D1092A5021092A4028CE090E0D5
:103F400061E070E043E050E023E030E00BE010E09F
:103F5000EE24FF24E8E2CE2ED12CB2E3AB2EB12C1E
:103F60000E942A3A81E090E061E070E048EE53E080
:103F700023E030E0A4E1EA2EF12CAA24BB240E9425
:103F80002A3A81E090E06CE170E040EB5FEF2EE1D7
:103F900030E000E010E00E94603D80EB9FEF9093E6
:103FA000A5028093A40282E090E06CE070E040E122
:103FB00050E02CE030E008EE13E0F8E2EF2EF12CB8
:103FC000CC24DD240E94254586E090E06AE570E07F
:103FD0004AE050E02EE130E000E010E00E94FC3EBC
:103FE00084E190E09093A5028093A4028CE090E09D
:103FF00065E070E04BEF5FEF23E030E00BE010E0B6
:10400000EE24FF24E8E2CE2ED12C0E942A3A8AE048
:1040100090E065E070E04BEF5FEF25E030E00E945C
:104020002A3A8CEF9FEF65E070E048E15CEF23E017
:1040300030E0F3C060928202709283028092840228
:1040400090928502609268027092690280926A0280
:1040500090926B024AE550E05093A5024093A4026F
:1040600086E090E066E970E044E050E024EC30E067
:1040700005E010E0BAEAEB2EF12CAEE1CA2ED12C0D
:10408000FEE1AF2EB12C0E9443471092A502109280
:10409000A40281EF9FEF60E070E040E050E02EE18D
:1040A00030E008E210E00E94E6336AE570E07093C9
:1040B000A5026093A40287EE9FEF44E150E02EE159
:1040C00030E000E010E00E94FC3E84E190E090933C
:1040D000A5028093A40284E090E06CE070E040E1EF
:1040E00050E024E130E008E11CEFE8E2EE2EF12C94
:1040F000CC24DD240E94254582EF9FEF6AE570E025
:1041000042E350E02EE130E000E010E00E94FC3E8F
:104110003092A5022092A4028CE090E066E070E06C
:104120004DEF5FEF23E030E00CE010E0EE24FF24E1
:10413000B8E2CB2ED12CAA24BB240E942A3A8BEFC2
:104140009FEF66E070E048E15CEF25E030E0A4E13D
:10415000EA2EF12C0E942A3A83EF9FEF66EA7FEF66
:1041600040E050E02EE130E000E010E00E94FC3E34
:1041700081EF9FEF61E070E04EEC5FEF2EE130E009
:104180000E94603DF092A502E092A4028CE090E0D3
:1041900063E070E04DEF5FEF23E030E000E110E01E
:1041A000EE24FF240E942A3A83E090E063E070E06E
:1041B00048E15CEF25E030E0F9E1EF2EF12C0E94C0
:1041C0002A3A80E090E06BEF7FEF40E050E028E299
:1041D00030E000E010E00E94E6338CE090E065E023
:1041E00070E04DEF5FEF23E030E00BE010E0EE24F5
:1041F000FF240E942A3A8AE090E065E070E04BEFED
:104200005FEF25E030E00E942A3A8CEF9FEF65E0F7
:1042100070E048E15CEF25E030E0E4E1EE2EF12CC7
:104220000E942A3A80E090E061EF7FEF40E050E0AA
:1042300028E230E00EEC1FEF0E94E6330E948B2E46
:10424000B599FECFB59BFECF80914202909143027B
:10425000009709F440C0409174023091730220919C
:10426000720290917A0280917902ADB7BEB71E9723
:104270000FB6F894BEBF0FBEADBFEDB7FEB7319617
:1042800012965C924E92119702E411E0138302831E
:10429000448315823683178220871186928713867E
:1042A000848715860E940E4F2DB73EB7225F3F4F81
:1042B0000FB6F8943EBF0FBE2DBF80E060E0A201B4
:1042C0000E946701309175022091760290917702E9
:1042D0008091780242C040918802309187022091FB
:1042E000860290918E0280918D026DB77EB76E50DE
:1042F00070400FB6F8947EBF0FBE6DBFEDB7FEB72E
:104300003196ADB7BEB712965C924E92119702E409
:1043100011E013830283448315823683178220873A
:10432000118692871386848715860E940E4F2DB7BB
:104330003EB7225F3F4F0FB6F8943EBF0FBE2DBF72
:1043400080E060E0A2010E94670130918902209123
:104350008A0290918B0280918C024DB75EB74C50CF
:1043600050400FB6F8945EBF0FBE4DBFEDB7FEB71D
:104370003196ADB7BEB712965C924E9211970BE58F
:1043800011E013830283348315822683178290877A
:104390001186828713860E940E4F2DB73EB7245F89
:1043A0003F4F0FB6F8943EBF0FBE2DBF81E060E0D7
:1043B000A2010E946701809142029091430297FFFF
:1043C00003C0909581959F4F69E070E00E94BA55B7
:1043D00090934502809344020E94332680914402C8
:1043E00066E60E94144EC82E8091440267E60E9441
:1043F000144EE82E00914402A0904502802F68E6FA
:104400000E94144E4DB75EB74C5050400FB6F89412
:104410005EBF0FBE4DBFEDB7FEB73196ADB7BEB7AD
:1044200012965C924E92119724E731E033832283F7
:104430000483A582C6821782E0861186828713864E
:104440000E940E4F4DB75EB7445F5F4F0FB6F894B2
:104450005EBF0FBE4DBF82E060E0A2010E94670117
:104460006091CD027091CE027A8369834091CF0230
:104470005091D0028091CB029091CC029C838B838F
:10448000A0918503B0918603E0905903F0905A0300
:10449000C090D502D090D602A090C902B090CA02B6
:1044A0006091BC027091BD028091BE029091BF02EA
:1044B000EDB7FEB774970FB6F894FEBF0FBEEDBF11
:1044C0000DB71EB70F5F1F4F5282418227E831E0C0
:1044D000F8013383228329813A81358324835783EA
:1044E00046834B815C8151874087B387A287F586DD
:1044F000E486D786C686B18AA08A0E942550D80154
:1045000053967C936E9352970E940E4FEDB7FEB771
:1045100074960FB6F894FEBF0FBEEDBF83E060E067
:10452000A2010E94670100D000D000D0EDB7FEB715
:104530003196ADB7BEB712965C924E9211970DE9C7
:1045400011E013830283809142029091430295838C
:1045500084830E940E4F2DB73EB72A5F3F4F0FB6A0
:10456000F8943EBF0FBE2DBF83E060E1A2010E9420
:1045700067010C94B30890E0FC01B096FE2FEE2783
:1045800020812093C40220FDFBCF8896B82FAA2754
:104590008C9190819093C40290FDFBCF089590E0A0
:1045A0008096F82FEE2780818093C40280FDFBCF98
:1045B000608380818093C40280FDFBCF089580E0FA
:1045C00061E00E94CF2282E061E00E94CF2281E080
:1045D00061E00E94CF220895A82FB0E0FD01B096BF
:1045E000FE2FEE2780818093C40280FDFBCF98963A
:1045F000BA2FAA27872F992787FD9A958C938081B8
:104600008093C40280FDFBCF6C9380818093C402B1
:1046100080FDFBCF08951F93CF93DF93182F80E089
:104620006FE10E94CF22C1E0D0E002C0CC0FDD1FBD
:104630001A95E2F780E0BE010E94EC2281E06FE172
:104640000E94CF2281E0BE010E94EC2282E06FE155
:104650000E94CF2282E0BE010E94EC2280E061E055
:104660000E94CF2282E061E00E94CF2281E061E0DF
:104670000E94CF22DF91CF911F910895DF92EF9298
:10468000FF920F931F93D82E7A018B019B01552720
:1046900037FD5095452FB9010E94EC228D2DB701B1
:1046A0000E94EC221F910F91FF90EF90DF900895F0
:1046B0001F93182F60E00E94CF228CEC9CE10197A1
:1046C000F1F700C00000812F6DE10E94CF22812F01
:1046D00060E070E00E94EC221F910895AF92BF92BB
:1046E000CF92DF92EF92FF920F931F93CF93DF93BE
:1046F000F82E6B01EA018901AA24A39461157105C2
:1047000009F4AA24BB24B394209709F4BB24EE2413
:10471000E3940115110509F4EE248F2D6EE10E943A
:10472000CF226B2D70E0660F771F660F771F8A2DE3
:1047300090E043E0880F991F4A95E1F7682B792BA9
:104740008E2D90E0880F991F682B792B8F2D0E945A
:10475000EC22AA2021F08F2DB6010E94EC22BB2072
:1047600021F08F2DBE010E94EC22EE2021F08F2D32
:10477000B8010E94EC228F2D64E00E94CF22DF91CD
:10478000CF911F910F91FF90EF90DF90CF90BF904E
:10479000AF9008958F929F92AF92BF92CF92DF9287
:1047A000EF92FF920F931F93CF93DF93F82E4B015D
:1047B0006A01E901AA24A3946115710509F4AA24E8
:1047C000BB24B394C114D10409F4BB24EE24E394B4
:1047D000209709F4EE248F2D6EE10E94CF226A2DDE
:1047E00070E0A3E0660F771FAA95E1F761608B2D5B
:1047F00090E0880F991F880F991F682B792B8E2DB9
:1048000090E0880F991F682B792B8F2D0E94EC2246
:10481000AA2021F08F2DB4010E94EC22BB2021F0B0
:104820008F2DB6010E94EC22EE2021F08F2DBE01CB
:104830000E94EC228F2DB8010E94EC228F2D64E0A3
:104840000E94CF22DF91CF911F910F91FF90EF90A7
:10485000DF90CF90BF90AF909F908F900895DF92A0
:10486000EF92FF920F931F93D82E7A018B016FE185
:104870000E94CF228D2D60E270E00E94EC228D2DEF
:10488000B801A7010E943E231F910F91FF90EF9066
:10489000DF90089580E060E170E040E050E020E4C7
:1048A00030E00E946E2381E060E170E040E050E083
:1048B00020E430E00E946E2382E060E170E040E09E
:1048C00050E020E430E00E946E2380E04FEF5FEF85
:1048D0006FEF7FE30E942F2481E04FEF5FEF6FEFD8
:1048E0007FE30E942F2482E04FEF5FEF6FEF7FE3C3
:1048F0000E942F240895DF92EF92FF920F931F934F
:10490000DF93CF930F92CDB7DEB7D82E7A018B010C
:1049100077FF0AC010950095F094E094E11CF11C1B
:10492000011D111D90E001C091E08D2D6FE1998373
:104930000E94CF229981792F7295707F60E0686024
:1049400078608D2D0E94EC228D2DB801A7010E9468
:104950003E230F90CF91DF911F910F91FF90EF9029
:10496000DF900895AF92BF92CF92DF92EF92FF92C5
:104970000F931F93DF93CF93CDB7DEB72C970FB66E
:10498000F894DEBF0FBECDBF59016A010E94585096
:1049900069837A838B839C83C601B5010E9458503A
:1049A0006D837E838F839887C801B7010E9458501A
:1049B00069877A878B879C878E010F5F1F4FEE2454
:1049C000F801608171818281938121E73CEA4BE8A3
:1049D0005EE30E941C529B01AC01F80121933193CC
:1049E000419351938F0120E030E040E857E40E946A
:1049F0001C520E942550AB01BC018E2D0E947B24CD
:104A0000E394FE2DF330E1F60E94DF222C960FB6E0
:104A1000F894DEBF0FBECDBFCF91DF911F910F91F4
:104A2000FF90EF90DF90CF90BF90AF9008954F929E
:104A30005F926F927F928F929F92AF92BF92CF922E
:104A4000DF92EF92FF920F931F93982E862E2901EB
:104A50003A016FE10E94CF22682D70E06A62892DD1
:104A60000E94EC22892DB301A2010E943E23892DD0
:104A7000B801A7010E943E23892DB601A5010E941D
:104A80003E231F910F91FF90EF90DF90CF90BF904A
:104A9000AF909F908F907F906F905F904F90089510
:104AA0009F92AF92BF92CF92DF92EF92FF920F93BD
:104AB0001F93DF93CF9300D00F92CDB7DEB71ABA12
:104AC00015BA8FEF84BB1092650083E08093640079
:104AD00010E8A12EB4E8BB2E6E010894C11CD11CB5
:104AE00085B3856085BB83E39BE20197F1F785B3CE
:104AF0008A7F85BBECECFCE13197F1F700C0000048
:104B0000809165008D7F80936500AB9885B3887F29
:104B100085BB99B39983A89A19B385B3887F8260BE
:104B200085BB09B3943C09F494C0943809F491C04E
:104B300015BA80E060E044EA51E00E94670181E03C
:104B400060E04AEA51E00E946701143C09F481C028
:104B5000143809F47EC015BA80E060E044EA51E000
:104B60000E94670182E060E04AEB51E00E94670129
:104B7000043C09F46EC0043809F46BC015BA80E037
:104B800060E044EA51E00E94670183E060E04AECA3
:104B900051E029C09E2C9C18892D6DE10E94CF22E6
:104BA000892D60E070E00E94EC22F8018081F7011D
:104BB00081937F0100501F4FF3E200301F0751F730
:104BC0008981803C99F0803889F085B78F7385BFE3
:104BD00015BA80E060E04AED51E00E94670181E093
:104BE00060E04AEA51E00E9467017ACF80E060E02D
:104BF00040EE51E00E94670180E098B3976098BB57
:104C00002FEF3FEB46E0215030404040E1F700C03D
:104C1000000098B3987F98BB2FEF3FEB46E0215000
:104C200030404040E1F700C000008F5F833029F73B
:104C30000E94D8010F900F900F90CF91DF911F919C
:104C40000F91FF90EF90DF90CF90BF90AF909F902B
:104C50000895A5BE82E080936D00B0926C0076014D
:104C600000E010E297CF4F925F926F927F928F9207
:104C70009F92AF92BF92CF92DF92EF92FF920F93EB
:104C80001F93CF93DF9304E6802E912C84E00E9443
:104C90007600982F80E0EC0185E00E94760090E09D
:104CA0008C2B9D2BB4010E94BA55882777FD8095E7
:104CB000982F0E945850F62E072F182FE92E462EB7
:104CC000572E682E792E63015201E894D7F8C60159
:104CD000B50120E030E044E353E40E94815118160E
:104CE000ACF26091B8027091B9028091BA029091D1
:104CF000BB022F2D302F412F5E2D0E94B64F8823EF
:104D000009F4E5C06F2D702F812F9E2D20E030E03B
:104D1000A9010E94B64F87FF5DC06091B8027091F3
:104D2000B9028091BA029091BB0220E030E0A90163
:104D30000E94815118160CF04DC02091B80230919C
:104D4000B9024091BA025091BB025F77C601B5012A
:104D50000E943F4F20E030E044E353E40E94B64F0E
:104D600087FF15C0A090BC02B090BD02C090BE02EB
:104D7000D090BF022091B8023091B9024091BA029E
:104D80005091BB026F2D702F812F9E2D1CC0A090C3
:104D9000BC02B090BD02C090BE02D090BF02609134
:104DA000B8027091B9028091BA029091BB022F2D86
:104DB000302F412F5E2D0E943E4F9B01AC0160E0E1
:104DC00070E084EB93E40E943E4F9B01AC01C6016E
:104DD000B50169C0C301B20120E030E0A9010E9421
:104DE000815118160CF047C06091B8027091B90259
:104DF0008091BA029091BB0220E030E0A9010E94AC
:104E0000B64F87FF38C02091B8023091B902409167
:104E1000BA025091BB025F77C601B5010E943F4FB5
:104E200020E030E044E353E40E94B64F87FD23C006
:104E3000E090BC02F090BD020091BE021091BF0252
:104E40002091B8023091B9024091BA025091BB0250
:104E5000C301B2010E943E4F9B01AC0160E070E0D3
:104E600084EB93E40E943E4F9B01AC01C801B70163
:104E70000E943E4F1AC0E090BC02F090BD0200912B
:104E8000BE021091BF022091B8023091B902409148
:104E9000BA025091BB02C301B2010E943E4F9B0176
:104EA000AC01C801B7010E943F4F9B01AC012093A8
:104EB000BC023093BD024093BE025093BF024092A9
:104EC000B8025092B9026092BA027092BB02DF91AE
:104ED000CF911F910F91FF90EF90DF90CF90BF90F7
:104EE000AF909F908F907F906F905F904F900895BC
:104EF0002F923F924F925F926F927F928F929F92EA
:104F0000AF92BF92CF92DF92EF92FF920F931F93D7
:104F1000DF93CF93CDB7DEB762970FB6F894DEBFBD
:104F20000FBECDBF69837A838B839C832D833E83A1
:104F30004F8358873701480160E070E084E394E4D0
:104F4000A60195010E943E4F162F072FF82EE92E3D
:104F50008D819E81AF81B8858093C5029093C602F2
:104F6000A093C702B093C80289819A81AB81BC81AA
:104F700080935B0390935C03A0935D03B0935E0307
:104F8000A092D102B092D202C092D302D092D402A7
:104F9000C601B50120E030E044E353E40E94B64F7F
:104FA000181684F0A8019701652F742F832F922F74
:104FB00020E030E044EB53E40E943E4F162F072FD1
:104FC000F82EE92EA8019701652F702F832F9E2DB3
:104FD00020E030E044EB52E40E943E4F69877A873C
:104FE0008B879C87C401B30123EF36E64FE55EE370
:104FF0000E941C526D877E878F87988B80E090E09F
:1050000036E9432E512C28E6222E21E0322E9A8BAF
:10501000898BB201882777FD8095982F0E94585080
:105020005B016C01C20188589F4FB1010E94BA55C3
:105030002C01C601B501D801F7012B2F302F4F2FBE
:105040005E2D0E943E4F25E33AEF4EE85CE30E945E
:105050001C520E94BA4F3B014C01C601B501B985F3
:10506000AA85AB84DC842B2F3A2F4A2D5D2D0E941C
:105070003E4F25E33AEF4EE85CE30E941C520E944B
:10508000BA4F5B016C016D817E818F819885A4018F
:1050900093010E941C523B014C0169817A818B81F2
:1050A0009C81A60195010E941C529B01AC01C40188
:1050B000B3010E943F4FBD85AE85DF84A8882B2FAA
:1050C0003A2F4D2D5A2D0E943E4F2FE632E143E8F4
:1050D00056E40E941C5223E333E343E250EC0E9467
:1050E0001C520E942550AB01BC0189890E947B247F
:1050F000A989BA891196BA8BA98BA330B10509F099
:1051000088CF0E94DF220E94332662960FB6F89461
:10511000DEBF0FBECDBFCF91DF911F910F91FF90EA
:10512000EF90DF90CF90BF90AF909F908F907F9047
:105130006F905F904F903F902F9008952F923F92E5
:105140004F925F926F927F928F929F92AF92BF9297
:10515000CF92DF92EF92FF920F931F93DF93CF9343
:10516000CDB7DEB72C970FB6F894DEBF0FBECDBF1C
:105170005B016C0139014A01170128016091BC02F1
:105180007091BD028091BE029091BF022091C00239
:105190003091C1024091C2025091C302E090BC0222
:1051A000F090BD020091BE021091BF02E092C002D9
:1051B000F092C1020093C2021093C302E090B402C5
:1051C000F090B5020091B6021091B7020E943E4FD6
:1051D0009B01AC01C801B7010E943E4F9B01AC018D
:1051E0002093B4023093B5024093B6025093B702B5
:1051F000C601B50120E030E0A9010E94B64F882326
:1052000051F4C401B30120E030E0A9010E94B64F7F
:10521000882309F4D2C0C601B50120E030E048EC93
:1052200052E40E94BD4F69837A838B839C83C401BF
:10523000B30120E030E048EC52E40E94BD4F6D83A2
:105240007E838F8398876091B4027091B5028091BC
:10525000B6029091B702A20191010E943E4FF62E34
:10526000072F182FE92E8091AC029091AD02A091EA
:10527000AE02B091AF0289879A87AB87BC876F2D4A
:10528000702F812F9E2D25E33AEF4EE85CE30E94BC
:105290001C520E94BA4F3B014C016F2D702F812F81
:1052A0009E2D20E030E044EB52E40E943F4F25E386
:1052B0003AEF4EE85CE30E941C520E94BA4F5B0139
:1052C0006C0159814A813B812C81652F742F832F7A
:1052D000922FA40193010E941C521B012C015D819D
:1052E0004E813F812885652F742F832F922FA60131
:1052F00095010E941C529B01AC01C201B1010E94A8
:105300003F4F9B01AC0169857A858B859C850E9406
:105310003F4F9B01AC012093AC023093AD02409310
:10532000AE025093AF022090B0023090B102409094
:10533000B2025090B3026F2D702F812F9E2D20E06E
:1053400030E044EB52E40E943E4F25E33AEF4EE852
:105350005CE30E941C520E94BA4F7B018C015D816C
:105360004E813F812885652F742F832F922FA401B2
:1053700093010E941C525B016C0159814A813B815F
:105380002C81652F742F832F922FA80197010E94E3
:105390001C529B01AC01C601B5010E943F4F9B010D
:1053A000AC01C201B1010E943F4F9B01AC01ECEA8C
:1053B000F2E024833583468357832C960FB6F89406
:1053C000DEBF0FBECDBFCF91DF911F910F91FF9038
:1053D000EF90DF90CF90BF90AF909F908F907F9095
:1053E0006F905F904F903F902F9008952F923F9233
:1053F0004F925F926F927F928F929F92AF92BF92E5
:10540000CF92DF92EF92FF920F931F93DF93CF9390
:10541000CDB7DEB72E970FB6F894DEBF0FBECDBF67
:10542000180187019A8389837C836B83509541950A
:105430005F4F5E834D83309521953F4F38872F8393
:10544000CE0101969A87898779E0472E512C4C0E20
:105450005D1E7C0166247724CC24DD24D7016D9168
:105460007D917D01882777FD8095982F0E94585067
:105470004B015C01E894B7F8662D772D8C2D9D2D9E
:10548000A50194010E94B64F87FF02C03401650157
:10549000E414F50419F7EE24FF24C101AA2797FDAF
:1054A000A095BA2F8B879C87AD87BE87A985BA85C3
:1054B000AD90BD90BA87A9876B857C858D859E85CB
:1054C0000E9458501B012C01B501882777FD80955B
:1054D000982F0E945850262D372D4C2D5D2D0E945F
:1054E000BD4FA20191010E941C529B01AC01F7012A
:1054F000EE0FFF1FEE0FFF1FEB58FC4F2083318391
:10550000428353830894E11CF11CB4E0EB16F104D0
:1055100069F6043611052CF40115110509F051C086
:1055200005C00436110511F00456104091E0E92E33
:10553000F12C662D772D8C2D9D2D20E030E048EC50
:1055400052E40E941C52A20191010E94BD4F0E9490
:10555000A34F5B016C01970122503040C80117FF37
:1055600003C0909581959F4FB7010E94BA55620F75
:10557000731F882777FD8095982F0E9458509B01B4
:10558000AC01C601B5010E943F4F0E942550CB01DE
:105590002E960FB6F894DEBF0FBECDBFCF91DF9130
:1055A0001F910F91FF90EF90DF90CF90BF90AF9041
:1055B0009F908F907F906F905F904F903F902F9033
:1055C000089582E0E82EF12CB4CF2F923F924F92B3
:1055D0005F926F927F928F929F92AF92BF92CF9283
:1055E000DF92EF92FF920F931F93DF93CF93CDB78C
:1055F000DEB72E970FB6F894DEBF0FBECDBF7A830D
:1056000069836536710514F0645670404B0177FF6D
:1056100004C088249924861A970AE0907E02F090AC
:105620007F02A7014F5F5F4F9C012E193F0900E0E9
:1056300010E05A01CC24B7FCC094DC2CAB82BC82B5
:10564000CD82DE821401442437FC4094542C6C013A
:10565000C818D908D886CF82C901AA2797FDA09576
:10566000BA2F89879A87AB87BC877E876D8734017D
:10567000F7FC34C0AD85BE85B7FD2DC04801880C50
:10568000991C880C991CF401EB58FC4FA080B18048
:10569000C280D3806B817C818D819E810E94585015
:1056A0009B01AC01C601B5010E941C525B016C015B
:1056B000C201B1010E9458509B01AC01C601B50165
:1056C0000E94BD4F9B01AC01F401E957FC4F2083C0
:1056D000318342835383E614F70424F4ED85FE8579
:1056E000F7FF13C09801220F331F220F331FF90158
:1056F000EB58FC4F80819181A281B38129573C4FA7
:10570000F90180839183A283B383AF80B884AE1400
:10571000BF0494F549815A814536510568F1480125
:10572000880C991C880C991CF401EB58FC4FA08044
:10573000B180C280D38069857A858B859C850E94E3
:1057400058509B01AC01C601B5010E941C525B017F
:105750006C01C201B1010E9458509B01AC01C6010D
:10576000B5010E94BD4F9B01AC01F401E957FC4F0C
:1057700020833183428353830F5F1F4F0430110511
:1057800009F076CF2E960FB6F894DEBF0FBECDBFD0
:10579000CF91DF911F910F91FF90EF90DF90CF900D
:1057A000BF90AF909F908F907F906F905F904F9041
:1057B0003F902F90089581E090E00A9B02C080E026
:1057C00090E09093D0028093CF0281E090E00B9B19
:1057D00002C080E090E09093CC028093CB0281E005
:1057E00090E00C9B02C080E090E090938603809351
:1057F000850381E090E0849B02C080E090E090937C
:10580000CE028093CD0281E090E0869B02C080E0D2
:1058100090E090935A03809359032091630081E0B4
:1058200090E023FF02C080E090E09093D602809346
:10583000D5022091630081E090E024FF02C080E067
:1058400090E09093CA028093C90208951F920F922C
:105850000FB60F920BB60F921124EF92FF920F9397
:105860001F932F933F934F935F936F937F938F93E8
:105870009F93AF93BF93EF93FF938FEF8DBD80E71F
:105880008CBD609168027091690280916A0290916A
:105890006B022AE037ED43EA5CE30E943F4F7B0155
:1058A0008C017F2D912F20E030E040E85FE30E94E3
:1058B0008151181624F4EE24FF2400E81FE38E2DF6
:1058C0009F2DA02FB12F8093680290936902A0931F
:1058D0006A02B0936B0260918202709183028091A0
:1058E0008402909185022AE037ED43EA5CE30E944E
:1058F0003F4F7B018C017F2D912F20E030E040E86D
:105900005FE30E948151181624F4EE24FF2400E87E
:105910001FE38E2D9F2DA02FB12F80938202909395
:105920008302A0938402B093850260916C0270910F
:105930006D0280916E0290916F022DEC3CEC4CE474
:105940005DE30E943F4FF62EE72E8C01A701652FE5
:10595000742F912F20E030E040E85FE30E948151F6
:10596000181624F4FF24EE2400E81FE3A701852F76
:105970009E2DA02FB12F80936C0290936D02A09367
:105980006E02B0936F020E94DB2B8091CF02909148
:10599000D0020097B1F08091660290916702009763
:1059A00081F480917002909171020196909371023E
:1059B0008093700281E090E090936702809366028A
:1059C00010C08091CF029091D002009751F4809145
:1059D000660290916702009721F010926702109280
:1059E00066028091CB029091CC02009731F18091B8
:1059F0009C0290919D02009701F58091A6029091E2
:105A0000A70201969093A7028093A60221E030E0BE
:105A100030939D0220939C028091730390917403B4
:105A2000FC01EE0FFF1FEF5CFC4F318320830196DA
:105A3000909374038093730310C08091CB02909174
:105A4000CC02009751F480919C0290919D020097A6
:105A500021F010929D0210929C02809185039091FA
:105A600086030097B1F08091980290919902009777
:105A700081F48091960290919702019690939702FB
:105A80008093960281E090E090939902809398022F
:105A900010C08091850390918603009751F4809106
:105AA000980290919902009721F010929902109219
:105AB00098028091CD029091CE020097B1F0809132
:105AC000940290919502009781F480919E029091AA
:105AD0009F02019690939F0280939E0281E090E046
